{
  "_format": "hh-sol-artifact-1",
  "contractName": "BToken",
  "sourceName": "contracts/configurable-rights-pool/contracts/test/BToken.sol",
  "abi": [
    {
      "anonymous": false,
      "inputs": [
        {
          "indexed": true,
          "internalType": "address",
          "name": "owner",
          "type": "address"
        },
        {
          "indexed": true,
          "internalType": "address",
          "name": "spender",
          "type": "address"
        },
        {
          "indexed": false,
          "internalType": "uint256",
          "name": "value",
          "type": "uint256"
        }
      ],
      "name": "Approval",
      "type": "event"
    },
    {
      "anonymous": false,
      "inputs": [
        {
          "indexed": true,
          "internalType": "address",
          "name": "from",
          "type": "address"
        },
        {
          "indexed": true,
          "internalType": "address",
          "name": "to",
          "type": "address"
        },
        {
          "indexed": false,
          "internalType": "uint256",
          "name": "value",
          "type": "uint256"
        }
      ],
      "name": "Transfer",
      "type": "event"
    },
    {
      "inputs": [],
      "name": "BONE",
      "outputs": [
        {
          "internalType": "uint256",
          "name": "",
          "type": "uint256"
        }
      ],
      "stateMutability": "view",
      "type": "function"
    },
    {
      "inputs": [],
      "name": "BPOW_PRECISION",
      "outputs": [
        {
          "internalType": "uint256",
          "name": "",
          "type": "uint256"
        }
      ],
      "stateMutability": "view",
      "type": "function"
    },
    {
      "inputs": [],
      "name": "EXIT_FEE",
      "outputs": [
        {
          "internalType": "uint256",
          "name": "",
          "type": "uint256"
        }
      ],
      "stateMutability": "view",
      "type": "function"
    },
    {
      "inputs": [],
      "name": "INIT_POOL_SUPPLY",
      "outputs": [
        {
          "internalType": "uint256",
          "name": "",
          "type": "uint256"
        }
      ],
      "stateMutability": "view",
      "type": "function"
    },
    {
      "inputs": [],
      "name": "MAX_BOUND_TOKENS",
      "outputs": [
        {
          "internalType": "uint256",
          "name": "",
          "type": "uint256"
        }
      ],
      "stateMutability": "view",
      "type": "function"
    },
    {
      "inputs": [],
      "name": "MAX_BPOW_BASE",
      "outputs": [
        {
          "internalType": "uint256",
          "name": "",
          "type": "uint256"
        }
      ],
      "stateMutability": "view",
      "type": "function"
    },
    {
      "inputs": [],
      "name": "MAX_FEE",
      "outputs": [
        {
          "internalType": "uint256",
          "name": "",
          "type": "uint256"
        }
      ],
      "stateMutability": "view",
      "type": "function"
    },
    {
      "inputs": [],
      "name": "MAX_IN_RATIO",
      "outputs": [
        {
          "internalType": "uint256",
          "name": "",
          "type": "uint256"
        }
      ],
      "stateMutability": "view",
      "type": "function"
    },
    {
      "inputs": [],
      "name": "MAX_OUT_RATIO",
      "outputs": [
        {
          "internalType": "uint256",
          "name": "",
          "type": "uint256"
        }
      ],
      "stateMutability": "view",
      "type": "function"
    },
    {
      "inputs": [],
      "name": "MAX_TOTAL_WEIGHT",
      "outputs": [
        {
          "internalType": "uint256",
          "name": "",
          "type": "uint256"
        }
      ],
      "stateMutability": "view",
      "type": "function"
    },
    {
      "inputs": [],
      "name": "MAX_WEIGHT",
      "outputs": [
        {
          "internalType": "uint256",
          "name": "",
          "type": "uint256"
        }
      ],
      "stateMutability": "view",
      "type": "function"
    },
    {
      "inputs": [],
      "name": "MIN_BALANCE",
      "outputs": [
        {
          "internalType": "uint256",
          "name": "",
          "type": "uint256"
        }
      ],
      "stateMutability": "view",
      "type": "function"
    },
    {
      "inputs": [],
      "name": "MIN_BOUND_TOKENS",
      "outputs": [
        {
          "internalType": "uint256",
          "name": "",
          "type": "uint256"
        }
      ],
      "stateMutability": "view",
      "type": "function"
    },
    {
      "inputs": [],
      "name": "MIN_BPOW_BASE",
      "outputs": [
        {
          "internalType": "uint256",
          "name": "",
          "type": "uint256"
        }
      ],
      "stateMutability": "view",
      "type": "function"
    },
    {
      "inputs": [],
      "name": "MIN_FEE",
      "outputs": [
        {
          "internalType": "uint256",
          "name": "",
          "type": "uint256"
        }
      ],
      "stateMutability": "view",
      "type": "function"
    },
    {
      "inputs": [],
      "name": "MIN_WEIGHT",
      "outputs": [
        {
          "internalType": "uint256",
          "name": "",
          "type": "uint256"
        }
      ],
      "stateMutability": "view",
      "type": "function"
    },
    {
      "inputs": [
        {
          "internalType": "address",
          "name": "src",
          "type": "address"
        },
        {
          "internalType": "address",
          "name": "dst",
          "type": "address"
        }
      ],
      "name": "allowance",
      "outputs": [
        {
          "internalType": "uint256",
          "name": "",
          "type": "uint256"
        }
      ],
      "stateMutability": "view",
      "type": "function"
    },
    {
      "inputs": [
        {
          "internalType": "address",
          "name": "dst",
          "type": "address"
        },
        {
          "internalType": "uint256",
          "name": "amt",
          "type": "uint256"
        }
      ],
      "name": "approve",
      "outputs": [
        {
          "internalType": "bool",
          "name": "",
          "type": "bool"
        }
      ],
      "stateMutability": "nonpayable",
      "type": "function"
    },
    {
      "inputs": [
        {
          "internalType": "address",
          "name": "whom",
          "type": "address"
        }
      ],
      "name": "balanceOf",
      "outputs": [
        {
          "internalType": "uint256",
          "name": "",
          "type": "uint256"
        }
      ],
      "stateMutability": "view",
      "type": "function"
    },
    {
      "inputs": [],
      "name": "decimals",
      "outputs": [
        {
          "internalType": "uint8",
          "name": "",
          "type": "uint8"
        }
      ],
      "stateMutability": "view",
      "type": "function"
    },
    {
      "inputs": [
        {
          "internalType": "address",
          "name": "dst",
          "type": "address"
        },
        {
          "internalType": "uint256",
          "name": "amt",
          "type": "uint256"
        }
      ],
      "name": "decreaseApproval",
      "outputs": [
        {
          "internalType": "bool",
          "name": "",
          "type": "bool"
        }
      ],
      "stateMutability": "nonpayable",
      "type": "function"
    },
    {
      "inputs": [],
      "name": "getColor",
      "outputs": [
        {
          "internalType": "bytes32",
          "name": "",
          "type": "bytes32"
        }
      ],
      "stateMutability": "view",
      "type": "function"
    },
    {
      "inputs": [
        {
          "internalType": "address",
          "name": "dst",
          "type": "address"
        },
        {
          "internalType": "uint256",
          "name": "amt",
          "type": "uint256"
        }
      ],
      "name": "increaseApproval",
      "outputs": [
        {
          "internalType": "bool",
          "name": "",
          "type": "bool"
        }
      ],
      "stateMutability": "nonpayable",
      "type": "function"
    },
    {
      "inputs": [],
      "name": "name",
      "outputs": [
        {
          "internalType": "string",
          "name": "",
          "type": "string"
        }
      ],
      "stateMutability": "view",
      "type": "function"
    },
    {
      "inputs": [],
      "name": "symbol",
      "outputs": [
        {
          "internalType": "string",
          "name": "",
          "type": "string"
        }
      ],
      "stateMutability": "view",
      "type": "function"
    },
    {
      "inputs": [],
      "name": "totalSupply",
      "outputs": [
        {
          "internalType": "uint256",
          "name": "",
          "type": "uint256"
        }
      ],
      "stateMutability": "view",
      "type": "function"
    },
    {
      "inputs": [
        {
          "internalType": "address",
          "name": "dst",
          "type": "address"
        },
        {
          "internalType": "uint256",
          "name": "amt",
          "type": "uint256"
        }
      ],
      "name": "transfer",
      "outputs": [
        {
          "internalType": "bool",
          "name": "",
          "type": "bool"
        }
      ],
      "stateMutability": "nonpayable",
      "type": "function"
    },
    {
      "inputs": [
        {
          "internalType": "address",
          "name": "src",
          "type": "address"
        },
        {
          "internalType": "address",
          "name": "dst",
          "type": "address"
        },
        {
          "internalType": "uint256",
          "name": "amt",
          "type": "uint256"
        }
      ],
      "name": "transferFrom",
      "outputs": [
        {
          "internalType": "bool",
          "name": "",
          "type": "bool"
        }
      ],
      "stateMutability": "nonpayable",
      "type": "function"
    }
  ],
  "bytecode": "0x60c0604052601360808190527f42616c616e63657220506f6f6c20546f6b656e0000000000000000000000000060a090815261003e9160039190610089565b506040805180820190915260038082526210941560ea1b602090920191825261006991600491610089565b506005805460ff1916601217905534801561008357600080fd5b5061011c565b828054600181600116156101000203166002900490600052602060002090601f016020900481019282601f106100ca57805160ff19168380011785556100f7565b828001600101855582156100f7579182015b828111156100f75782518255916020019190600101906100dc565b50610103929150610107565b5090565b5b808211156101035760008155600101610108565b610e2c8061012b6000396000f3fe608060405234801561001057600080fd5b50600436106101c45760003560e01c8063992e2a92116100f9578063bc694ea211610097578063d73dd62311610071578063d73dd6231461042b578063dd62ed3e14610464578063e4a28a5214610293578063ec0930211461049f576101c4565b8063bc694ea21461041b578063c36596a6146102bd578063c6580d1214610423576101c4565b8063b0e0d136116100d3578063b0e0d136146103fb578063b7b800a414610403578063ba019dab1461040b578063bc063e1a14610413576101c4565b8063992e2a92146103b25780639a86139b146103ba578063a9059cbb146103c2576101c4565b8063313ce5671161016657806376c7a3c71161014057806376c7a3c714610392578063867378c51461039a5780639381cd2b146103a257806395d89b41146103aa576101c4565b8063313ce56714610308578063661884631461032657806370a082311461035f576101c4565b806318160ddd116101a257806318160ddd146102ad578063189d00ca146102b5578063218b5382146102bd57806323b872dd146102c5576101c4565b806306fdde03146101c9578063095ea7b31461024657806309a3bbe414610293575b600080fd5b6101d16104a7565b6040805160208082528351818301528351919283929083019185019080838360005b8381101561020b5781810151838201526020016101f3565b50505050905090810190601f1680156102385780820380516001836020036101000a031916815260200191505b509250505060405180910390f35b61027f6004803603604081101561025c57600080fd5b5073ffffffffffffffffffffffffffffffffffffffff813516906020013561055b565b604080519115158252519081900360200190f35b61029b6105ce565b60408051918252519081900360200190f35b61029b6105db565b61029b6105e1565b61029b6105f5565b61027f600480360360608110156102db57600080fd5b5073ffffffffffffffffffffffffffffffffffffffff813581169160208101359091169060400135610601565b6103106107fb565b6040805160ff9092168252519081900360200190f35b61027f6004803603604081101561033c57600080fd5b5073ffffffffffffffffffffffffffffffffffffffff8135169060200135610804565b61029b6004803603602081101561037557600080fd5b503573ffffffffffffffffffffffffffffffffffffffff16610922565b61029b61094a565b61029b61095c565b61029b610970565b6101d161097d565b61029b6109fc565b61029b610a08565b61027f600480360360408110156103d857600080fd5b5073ffffffffffffffffffffffffffffffffffffffff8135169060200135610a2c565b61029b610a42565b61029b610a47565b61029b610a4c565b61029b610a51565b61029b610a61565b61029b610a6d565b61027f6004803603604081101561044157600080fd5b5073ffffffffffffffffffffffffffffffffffffffff8135169060200135610a72565b61029b6004803603604081101561047a57600080fd5b5073ffffffffffffffffffffffffffffffffffffffff81358116916020013516610b1f565b61029b610b57565b60038054604080516020601f60027fffffffffffffffffffffffffffffffffffffffffffffffffffffffffffffffff6101006001881615020190951694909404938401819004810282018101909252828152606093909290918301828280156105515780601f1061052657610100808354040283529160200191610551565b820191906000526020600020905b81548152906001019060200180831161053457829003601f168201915b5050505050905090565b33600081815260016020908152604080832073ffffffffffffffffffffffffffffffffffffffff8716808552908352818420869055815186815291519394909390927f8c5be1e5ebec7d5bd14f71427d1e84f3dd0314c0f7b2291e5b200ac8c7c3b925928290030190a350600192915050565b6802b5e3af16b188000081565b60025490565b6402540be400670de0b6b3a76400005b0481565b670de0b6b3a764000081565b60003373ffffffffffffffffffffffffffffffffffffffff85161480610657575073ffffffffffffffffffffffffffffffffffffffff841660009081526001602090815260408083203384529091529020548211155b6106c257604080517f08c379a000000000000000000000000000000000000000000000000000000000815260206004820152601560248201527f4552525f42544f4b454e5f4241445f43414c4c45520000000000000000000000604482015290519081900360640190fd5b6106cd848484610b67565b3373ffffffffffffffffffffffffffffffffffffffff851614801590610743575073ffffffffffffffffffffffffffffffffffffffff841660009081526001602090815260408083203384529091529020547fffffffffffffffffffffffffffffffffffffffffffffffffffffffffffffffff14155b156107f15773ffffffffffffffffffffffffffffffffffffffff841660009081526001602090815260408083203384529091529020546107839083610cce565b73ffffffffffffffffffffffffffffffffffffffff858116600090815260016020908152604080832033808552908352928190208590558051948552519287169391927f8c5be1e5ebec7d5bd14f71427d1e84f3dd0314c0f7b2291e5b200ac8c7c3b9259281900390910190a35b5060019392505050565b60055460ff1690565b33600090815260016020908152604080832073ffffffffffffffffffffffffffffffffffffffff86168452909152812054808311156108735733600090815260016020908152604080832073ffffffffffffffffffffffffffffffffffffffff881684529091528120556108af565b61087d8184610cce565b33600090815260016020908152604080832073ffffffffffffffffffffffffffffffffffffffff891684529091529020555b33600081815260016020908152604080832073ffffffffffffffffffffffffffffffffffffffff89168085529083529281902054815190815290519293927f8c5be1e5ebec7d5bd14f71427d1e84f3dd0314c0f7b2291e5b200ac8c7c3b925929181900390910190a35060019392505050565b73ffffffffffffffffffffffffffffffffffffffff1660009081526020819052604090205490565b620f4240670de0b6b3a76400006105f1565b64e8d4a51000670de0b6b3a76400006105f1565b68056bc75e2d6310000081565b60048054604080516020601f60027fffffffffffffffffffffffffffffffffffffffffffffffffffffffffffffffff6101006001881615020190951694909404938401819004810282018101909252828152606093909290918301828280156105515780601f1061052657610100808354040283529160200191610551565b6704a03ce68d21555681565b7f42524f4e5a45000000000000000000000000000000000000000000000000000090565b6000610a39338484610b67565b50600192915050565b600881565b600281565b600181565b600a670de0b6b3a76400006105f1565b671bc16d674ec7ffff81565b600081565b33600090815260016020908152604080832073ffffffffffffffffffffffffffffffffffffffff86168452909152812054610aad9083610d56565b33600081815260016020908152604080832073ffffffffffffffffffffffffffffffffffffffff89168085529083529281902085905580519485525191937f8c5be1e5ebec7d5bd14f71427d1e84f3dd0314c0f7b2291e5b200ac8c7c3b925929081900390910190a350600192915050565b73ffffffffffffffffffffffffffffffffffffffff918216600090815260016020908152604080832093909416825291909152205490565b6002670de0b6b3a76400006105f1565b73ffffffffffffffffffffffffffffffffffffffff8316600090815260208190526040902054811115610bfb57604080517f08c379a000000000000000000000000000000000000000000000000000000000815260206004820152601460248201527f4552525f494e53554646494349454e545f42414c000000000000000000000000604482015290519081900360640190fd5b73ffffffffffffffffffffffffffffffffffffffff8316600090815260208190526040902054610c2b9082610cce565b73ffffffffffffffffffffffffffffffffffffffff8085166000908152602081905260408082209390935590841681522054610c679082610d56565b73ffffffffffffffffffffffffffffffffffffffff8084166000818152602081815260409182902094909455805185815290519193928716927fddf252ad1be2c89b69c2b068fc378daa952ba7f163c4a11628f55a4df523b3ef92918290030190a3505050565b6000806000610cdd8585610dd1565b915091508015610d4e57604080517f08c379a000000000000000000000000000000000000000000000000000000000815260206004820152601160248201527f4552525f5355425f554e444552464c4f57000000000000000000000000000000604482015290519081900360640190fd5b509392505050565b600082820183811015610dca57604080517f08c379a000000000000000000000000000000000000000000000000000000000815260206004820152601060248201527f4552525f4144445f4f564552464c4f5700000000000000000000000000000000604482015290519081900360640190fd5b9392505050565b600080828410610de75750508082036000610def565b505081810360015b925092905056fea26469706673582212205542571d1cd2836b3fb691ba4b47cf35dcc5c6314394294bfbb4f4af5495cceb64736f6c634300060c0033",
  "linkReferences": {},
  "deployedLinkReferences": {}
}