{
  "_format": "hh-sol-artifact-1",
  "contractName": "PrestigeByConstructionTest",
  "sourceName": "contracts/tv-prestige/contracts/test/PrestigeByConstructionTest.sol",
  "abi": [
    {
      "inputs": [
        {
          "internalType": "contract IPrestige",
          "name": "_prestige",
          "type": "address"
        }
      ],
      "stateMutability": "nonpayable",
      "type": "constructor"
    },
    {
      "inputs": [],
      "name": "constructionBlock",
      "outputs": [
        {
          "internalType": "uint256",
          "name": "",
          "type": "uint256"
        }
      ],
      "stateMutability": "view",
      "type": "function"
    },
    {
      "inputs": [],
      "name": "ifBronze",
      "outputs": [],
      "stateMutability": "view",
      "type": "function"
    },
    {
      "inputs": [],
      "name": "ifChad",
      "outputs": [],
      "stateMutability": "view",
      "type": "function"
    },
    {
      "inputs": [],
      "name": "ifCopper",
      "outputs": [],
      "stateMutability": "view",
      "type": "function"
    },
    {
      "inputs": [],
      "name": "ifDiamond",
      "outputs": [],
      "stateMutability": "view",
      "type": "function"
    },
    {
      "inputs": [],
      "name": "ifGold",
      "outputs": [],
      "stateMutability": "view",
      "type": "function"
    },
    {
      "inputs": [],
      "name": "ifJawad",
      "outputs": [],
      "stateMutability": "view",
      "type": "function"
    },
    {
      "inputs": [],
      "name": "ifNil",
      "outputs": [],
      "stateMutability": "view",
      "type": "function"
    },
    {
      "inputs": [],
      "name": "ifPlatinum",
      "outputs": [],
      "stateMutability": "view",
      "type": "function"
    },
    {
      "inputs": [],
      "name": "ifSilver",
      "outputs": [],
      "stateMutability": "view",
      "type": "function"
    },
    {
      "inputs": [
        {
          "internalType": "address",
          "name": "account",
          "type": "address"
        },
        {
          "internalType": "enum IPrestige.Status",
          "name": "status",
          "type": "uint8"
        }
      ],
      "name": "isStatus",
      "outputs": [
        {
          "internalType": "bool",
          "name": "",
          "type": "bool"
        }
      ],
      "stateMutability": "view",
      "type": "function"
    },
    {
      "inputs": [],
      "name": "prestige",
      "outputs": [
        {
          "internalType": "contract IPrestige",
          "name": "",
          "type": "address"
        }
      ],
      "stateMutability": "view",
      "type": "function"
    },
    {
      "inputs": [],
      "name": "unlimited",
      "outputs": [],
      "stateMutability": "view",
      "type": "function"
    }
  ],
  "bytecode": "0x608060405234801561001057600080fd5b506040516104833803806104838339818101604052602081101561003357600080fd5b5051600080546001600160a01b039092166001600160a01b03199092169190911790554360015561041a806100696000396000f3fe608060405234801561001057600080fd5b50600436106100df5760003560e01c80637270dc9c1161008c5780639d4a3d0f116100665780639d4a3d0f146101b1578063af611d7f146101b9578063c4eb28e0146101c1578063cb457d47146101c9576100df565b80637270dc9c1461017057806381ff67a4146101785780639c7081df14610180576100df565b80632471bc3e116100bd5780632471bc3e1461011057806330854ae4146101605780635603151714610168576100df565b806308d9d8f0146100e45780630f0af57f146100ee5780630ff5151814610108575b600080fd5b6100ec6101d1565b005b6100f661024d565b60408051918252519081900360200190f35b6100ec610253565b61014c6004803603604081101561012657600080fd5b50803573ffffffffffffffffffffffffffffffffffffffff16906020013560ff1661025c565b604080519115158252519081900360200190f35b6100ec610327565b6100ec610334565b6100ec610341565b6100ec61034e565b61018861035b565b6040805173ffffffffffffffffffffffffffffffffffffffff9092168252519081900360200190f35b6100ec610377565b6100ec610384565b6100ec610391565b6100ec61039e565b3360056101de828261025c565b61024957604080517f08c379a000000000000000000000000000000000000000000000000000000000815260206004820152600e60248201527f4552525f4d494e5f535441545553000000000000000000000000000000000000604482015290519081900360640190fd5b5050565b60015481565b3360036101de82825b60008054604080517fd865a5c800000000000000000000000000000000000000000000000000000000815273ffffffffffffffffffffffffffffffffffffffff868116600483015291518493929092169163d865a5c891602480820192602092909190829003018186803b1580156102d357600080fd5b505afa1580156102e7573d6000803e3d6000fd5b505050506040513d60208110156102fd57600080fd5b5051905060006103188285600881111561031357fe5b6103a0565b60015411925050505b92915050565b3360006101de828261025c565b3360016101de828261025c565b3360076101de828261025c565b3360086101de828261025c565b60005473ffffffffffffffffffffffffffffffffffffffff1681565b3360026101de828261025c565b3360066101de828261025c565b3360046101de828261025c565b565b6000816103af57506000610321565b5063ffffffff60207fffffffffffffffffffffffffffffffffffffffffffffffffffffffffffffffff83010283901c1661032156fea2646970667358221220d12a6bebe29ac3d3fda1bc8eba9a706b540eae73a471f24ead8c6cd814f0c68164736f6c634300060c0033",
  "linkReferences": {},
  "deployedLinkReferences": {}
}