{
  "_format": "hh-sol-artifact-1",
  "contractName": "ReserveToken",
  "sourceName": "contracts/test/ReserveToken.sol",
  "abi": [
    {
      "inputs": [],
      "stateMutability": "nonpayable",
      "type": "constructor"
    },
    {
      "anonymous": false,
      "inputs": [
        {
          "indexed": true,
          "internalType": "address",
          "name": "owner",
          "type": "address"
        },
        {
          "indexed": true,
          "internalType": "address",
          "name": "spender",
          "type": "address"
        },
        {
          "indexed": false,
          "internalType": "uint256",
          "name": "value",
          "type": "uint256"
        }
      ],
      "name": "Approval",
      "type": "event"
    },
    {
      "anonymous": false,
      "inputs": [
        {
          "indexed": true,
          "internalType": "address",
          "name": "from",
          "type": "address"
        },
        {
          "indexed": true,
          "internalType": "address",
          "name": "to",
          "type": "address"
        },
        {
          "indexed": false,
          "internalType": "uint256",
          "name": "value",
          "type": "uint256"
        }
      ],
      "name": "Transfer",
      "type": "event"
    },
    {
      "inputs": [],
      "name": "DECIMALS",
      "outputs": [
        {
          "internalType": "uint8",
          "name": "",
          "type": "uint8"
        }
      ],
      "stateMutability": "view",
      "type": "function"
    },
    {
      "inputs": [],
      "name": "TOTAL_SUPPLY",
      "outputs": [
        {
          "internalType": "uint256",
          "name": "",
          "type": "uint256"
        }
      ],
      "stateMutability": "view",
      "type": "function"
    },
    {
      "inputs": [
        {
          "internalType": "address",
          "name": "account_",
          "type": "address"
        }
      ],
      "name": "addFreezable",
      "outputs": [],
      "stateMutability": "nonpayable",
      "type": "function"
    },
    {
      "inputs": [
        {
          "internalType": "address",
          "name": "owner",
          "type": "address"
        },
        {
          "internalType": "address",
          "name": "spender",
          "type": "address"
        }
      ],
      "name": "allowance",
      "outputs": [
        {
          "internalType": "uint256",
          "name": "",
          "type": "uint256"
        }
      ],
      "stateMutability": "view",
      "type": "function"
    },
    {
      "inputs": [
        {
          "internalType": "address",
          "name": "spender",
          "type": "address"
        },
        {
          "internalType": "uint256",
          "name": "amount",
          "type": "uint256"
        }
      ],
      "name": "approve",
      "outputs": [
        {
          "internalType": "bool",
          "name": "",
          "type": "bool"
        }
      ],
      "stateMutability": "nonpayable",
      "type": "function"
    },
    {
      "inputs": [
        {
          "internalType": "address",
          "name": "account",
          "type": "address"
        }
      ],
      "name": "balanceOf",
      "outputs": [
        {
          "internalType": "uint256",
          "name": "",
          "type": "uint256"
        }
      ],
      "stateMutability": "view",
      "type": "function"
    },
    {
      "inputs": [
        {
          "internalType": "uint256",
          "name": "amount",
          "type": "uint256"
        }
      ],
      "name": "burn",
      "outputs": [],
      "stateMutability": "nonpayable",
      "type": "function"
    },
    {
      "inputs": [
        {
          "internalType": "address",
          "name": "account",
          "type": "address"
        },
        {
          "internalType": "uint256",
          "name": "amount",
          "type": "uint256"
        }
      ],
      "name": "burnFrom",
      "outputs": [],
      "stateMutability": "nonpayable",
      "type": "function"
    },
    {
      "inputs": [],
      "name": "decimals",
      "outputs": [
        {
          "internalType": "uint8",
          "name": "",
          "type": "uint8"
        }
      ],
      "stateMutability": "view",
      "type": "function"
    },
    {
      "inputs": [
        {
          "internalType": "address",
          "name": "spender",
          "type": "address"
        },
        {
          "internalType": "uint256",
          "name": "subtractedValue",
          "type": "uint256"
        }
      ],
      "name": "decreaseAllowance",
      "outputs": [
        {
          "internalType": "bool",
          "name": "",
          "type": "bool"
        }
      ],
      "stateMutability": "nonpayable",
      "type": "function"
    },
    {
      "inputs": [
        {
          "internalType": "address",
          "name": "",
          "type": "address"
        }
      ],
      "name": "freezables",
      "outputs": [
        {
          "internalType": "bool",
          "name": "",
          "type": "bool"
        }
      ],
      "stateMutability": "view",
      "type": "function"
    },
    {
      "inputs": [
        {
          "internalType": "address",
          "name": "spender",
          "type": "address"
        },
        {
          "internalType": "uint256",
          "name": "addedValue",
          "type": "uint256"
        }
      ],
      "name": "increaseAllowance",
      "outputs": [
        {
          "internalType": "bool",
          "name": "",
          "type": "bool"
        }
      ],
      "stateMutability": "nonpayable",
      "type": "function"
    },
    {
      "inputs": [],
      "name": "name",
      "outputs": [
        {
          "internalType": "string",
          "name": "",
          "type": "string"
        }
      ],
      "stateMutability": "view",
      "type": "function"
    },
    {
      "inputs": [],
      "name": "symbol",
      "outputs": [
        {
          "internalType": "string",
          "name": "",
          "type": "string"
        }
      ],
      "stateMutability": "view",
      "type": "function"
    },
    {
      "inputs": [],
      "name": "totalSupply",
      "outputs": [
        {
          "internalType": "uint256",
          "name": "",
          "type": "uint256"
        }
      ],
      "stateMutability": "view",
      "type": "function"
    },
    {
      "inputs": [
        {
          "internalType": "address",
          "name": "recipient",
          "type": "address"
        },
        {
          "internalType": "uint256",
          "name": "amount",
          "type": "uint256"
        }
      ],
      "name": "transfer",
      "outputs": [
        {
          "internalType": "bool",
          "name": "",
          "type": "bool"
        }
      ],
      "stateMutability": "nonpayable",
      "type": "function"
    },
    {
      "inputs": [
        {
          "internalType": "address",
          "name": "sender",
          "type": "address"
        },
        {
          "internalType": "address",
          "name": "recipient",
          "type": "address"
        },
        {
          "internalType": "uint256",
          "name": "amount",
          "type": "uint256"
        }
      ],
      "name": "transferFrom",
      "outputs": [
        {
          "internalType": "bool",
          "name": "",
          "type": "bool"
        }
      ],
      "stateMutability": "nonpayable",
      "type": "function"
    }
  ],
  "bytecode": "0x60806040523480156200001157600080fd5b50604080518082018252600b81526a55534420436c617373696360a81b602080830191825283518085019094526005845264555344434360d81b9084015281519192916200006291600391620002a9565b50805162000078906004906020840190620002a9565b50506005805460ff1916601217905550620000946006620000ad565b620000a73366038d7ea4c68000620000c3565b62000345565b6005805460ff191660ff92909216919091179055565b6001600160a01b0382166200011f576040805162461bcd60e51b815260206004820152601f60248201527f45524332303a206d696e7420746f20746865207a65726f206164647265737300604482015290519081900360640190fd5b6200012d60008383620001d2565b62000149816002546200024760201b6200087a1790919060201c565b6002556001600160a01b038216600090815260208181526040909120546200017c9183906200087a62000247821b17901c565b6001600160a01b0383166000818152602081815260408083209490945583518581529351929391927fddf252ad1be2c89b69c2b068fc378daa952ba7f163c4a11628f55a4df523b3ef9281900390910190a35050565b620001ea8383836200024260201b6200072a1760201c565b6001600160a01b03821660009081526006602052604090205460ff161562000242576040805162461bcd60e51b8152602060048201526006602482015265232927ad22a760d11b604482015290519081900360640190fd5b505050565b600082820183811015620002a2576040805162461bcd60e51b815260206004820152601b60248201527f536166654d6174683a206164646974696f6e206f766572666c6f770000000000604482015290519081900360640190fd5b9392505050565b828054600181600116156101000203166002900490600052602060002090601f016020900481019282601f10620002ec57805160ff19168380011785556200031c565b828001600101855582156200031c579182015b828111156200031c578251825591602001919060010190620002ff565b506200032a9291506200032e565b5090565b5b808211156200032a57600081556001016200032f565b61108b80620003556000396000f3fe608060405234801561001057600080fd5b506004361061011b5760003560e01c806348422faa116100b2578063902d55a511610081578063a457c2d711610066578063a457c2d7146103a7578063a9059cbb146103e0578063dd62ed3e146104195761011b565b8063902d55a51461039757806395d89b411461039f5761011b565b806348422faa146102c55780635bb9058b146102f857806370a082311461032b57806379cc67901461035e5761011b565b80632e0f2625116100ee5780632e0f262514610247578063313ce56714610265578063395093511461026d57806342966c68146102a65761011b565b806306fdde0314610120578063095ea7b31461019d57806318160ddd146101ea57806323b872dd14610204575b600080fd5b610128610454565b6040805160208082528351818301528351919283929083019185019080838360005b8381101561016257818101518382015260200161014a565b50505050905090810190601f16801561018f5780820380516001836020036101000a031916815260200191505b509250505060405180910390f35b6101d6600480360360408110156101b357600080fd5b5073ffffffffffffffffffffffffffffffffffffffff8135169060200135610508565b604080519115158252519081900360200190f35b6101f2610525565b60408051918252519081900360200190f35b6101d66004803603606081101561021a57600080fd5b5073ffffffffffffffffffffffffffffffffffffffff81358116916020810135909116906040013561052b565b61024f6105cc565b6040805160ff9092168252519081900360200190f35b61024f6105d1565b6101d66004803603604081101561028357600080fd5b5073ffffffffffffffffffffffffffffffffffffffff81351690602001356105da565b6102c3600480360360208110156102bc57600080fd5b5035610635565b005b6101d6600480360360208110156102db57600080fd5b503573ffffffffffffffffffffffffffffffffffffffff16610649565b6102c36004803603602081101561030e57600080fd5b503573ffffffffffffffffffffffffffffffffffffffff1661065e565b6101f26004803603602081101561034157600080fd5b503573ffffffffffffffffffffffffffffffffffffffff166106ad565b6102c36004803603604081101561037457600080fd5b5073ffffffffffffffffffffffffffffffffffffffff81351690602001356106d5565b6101f261072f565b61012861073a565b6101d6600480360360408110156103bd57600080fd5b5073ffffffffffffffffffffffffffffffffffffffff81351690602001356107b9565b6101d6600480360360408110156103f657600080fd5b5073ffffffffffffffffffffffffffffffffffffffff813516906020013561082e565b6101f26004803603604081101561042f57600080fd5b5073ffffffffffffffffffffffffffffffffffffffff81358116916020013516610842565b60038054604080516020601f60027fffffffffffffffffffffffffffffffffffffffffffffffffffffffffffffffff6101006001881615020190951694909404938401819004810282018101909252828152606093909290918301828280156104fe5780601f106104d3576101008083540402835291602001916104fe565b820191906000526020600020905b8154815290600101906020018083116104e157829003601f168201915b5050505050905090565b600061051c6105156108f5565b84846108f9565b50600192915050565b60025490565b6000610538848484610a40565b6105c2846105446108f5565b6105bd85604051806060016040528060288152602001610f7b6028913973ffffffffffffffffffffffffffffffffffffffff8a1660009081526001602052604081209061058f6108f5565b73ffffffffffffffffffffffffffffffffffffffff1681526020810191909152604001600020549190610c10565b6108f9565b5060019392505050565b600681565b60055460ff1690565b600061051c6105e76108f5565b846105bd85600160006105f86108f5565b73ffffffffffffffffffffffffffffffffffffffff908116825260208083019390935260409182016000908120918c16815292529020549061087a565b6106466106406108f5565b82610cc1565b50565b60066020526000908152604090205460ff1681565b73ffffffffffffffffffffffffffffffffffffffff16600090815260066020526040902080547fffffffffffffffffffffffffffffffffffffffffffffffffffffffffffffff00166001179055565b73ffffffffffffffffffffffffffffffffffffffff1660009081526020819052604090205490565b600061070c82604051806060016040528060248152602001610fa360249139610705866107006108f5565b610842565b9190610c10565b90506107208361071a6108f5565b836108f9565b61072a8383610cc1565b505050565b66038d7ea4c6800081565b60048054604080516020601f60027fffffffffffffffffffffffffffffffffffffffffffffffffffffffffffffffff6101006001881615020190951694909404938401819004810282018101909252828152606093909290918301828280156104fe5780601f106104d3576101008083540402835291602001916104fe565b600061051c6107c66108f5565b846105bd8560405180606001604052806025815260200161103160259139600160006107f06108f5565b73ffffffffffffffffffffffffffffffffffffffff908116825260208083019390935260409182016000908120918d16815292529020549190610c10565b600061051c61083b6108f5565b8484610a40565b73ffffffffffffffffffffffffffffffffffffffff918216600090815260016020908152604080832093909416825291909152205490565b6000828201838110156108ee57604080517f08c379a000000000000000000000000000000000000000000000000000000000815260206004820152601b60248201527f536166654d6174683a206164646974696f6e206f766572666c6f770000000000604482015290519081900360640190fd5b9392505050565b3390565b73ffffffffffffffffffffffffffffffffffffffff8316610965576040517f08c379a000000000000000000000000000000000000000000000000000000000815260040180806020018281038252602481526020018061100d6024913960400191505060405180910390fd5b73ffffffffffffffffffffffffffffffffffffffff82166109d1576040517f08c379a0000000000000000000000000000000000000000000000000000000008152600401808060200182810382526022815260200180610f336022913960400191505060405180910390fd5b73ffffffffffffffffffffffffffffffffffffffff808416600081815260016020908152604080832094871680845294825291829020859055815185815291517f8c5be1e5ebec7d5bd14f71427d1e84f3dd0314c0f7b2291e5b200ac8c7c3b9259281900390910190a3505050565b73ffffffffffffffffffffffffffffffffffffffff8316610aac576040517f08c379a0000000000000000000000000000000000000000000000000000000008152600401808060200182810382526025815260200180610fe86025913960400191505060405180910390fd5b73ffffffffffffffffffffffffffffffffffffffff8216610b18576040517f08c379a0000000000000000000000000000000000000000000000000000000008152600401808060200182810382526023815260200180610eee6023913960400191505060405180910390fd5b610b23838383610e0b565b610b6d81604051806060016040528060268152602001610f556026913973ffffffffffffffffffffffffffffffffffffffff86166000908152602081905260409020549190610c10565b73ffffffffffffffffffffffffffffffffffffffff8085166000908152602081905260408082209390935590841681522054610ba9908261087a565b73ffffffffffffffffffffffffffffffffffffffff8084166000818152602081815260409182902094909455805185815290519193928716927fddf252ad1be2c89b69c2b068fc378daa952ba7f163c4a11628f55a4df523b3ef92918290030190a3505050565b60008184841115610cb9576040517f08c379a00000000000000000000000000000000000000000000000000000000081526004018080602001828103825283818151815260200191508051906020019080838360005b83811015610c7e578181015183820152602001610c66565b50505050905090810190601f168015610cab5780820380516001836020036101000a031916815260200191505b509250505060405180910390fd5b505050900390565b73ffffffffffffffffffffffffffffffffffffffff8216610d2d576040517f08c379a0000000000000000000000000000000000000000000000000000000008152600401808060200182810382526021815260200180610fc76021913960400191505060405180910390fd5b610d3982600083610e0b565b610d8381604051806060016040528060228152602001610f116022913973ffffffffffffffffffffffffffffffffffffffff85166000908152602081905260409020549190610c10565b73ffffffffffffffffffffffffffffffffffffffff8316600090815260208190526040902055600254610db69082610eab565b60025560408051828152905160009173ffffffffffffffffffffffffffffffffffffffff8516917fddf252ad1be2c89b69c2b068fc378daa952ba7f163c4a11628f55a4df523b3ef9181900360200190a35050565b610e1683838361072a565b73ffffffffffffffffffffffffffffffffffffffff821660009081526006602052604090205460ff161561072a57604080517f08c379a000000000000000000000000000000000000000000000000000000000815260206004820152600660248201527f46524f5a454e0000000000000000000000000000000000000000000000000000604482015290519081900360640190fd5b60006108ee83836040518060400160405280601e81526020017f536166654d6174683a207375627472616374696f6e206f766572666c6f770000815250610c1056fe45524332303a207472616e7366657220746f20746865207a65726f206164647265737345524332303a206275726e20616d6f756e7420657863656564732062616c616e636545524332303a20617070726f766520746f20746865207a65726f206164647265737345524332303a207472616e7366657220616d6f756e7420657863656564732062616c616e636545524332303a207472616e7366657220616d6f756e74206578636565647320616c6c6f77616e636545524332303a206275726e20616d6f756e74206578636565647320616c6c6f77616e636545524332303a206275726e2066726f6d20746865207a65726f206164647265737345524332303a207472616e736665722066726f6d20746865207a65726f206164647265737345524332303a20617070726f76652066726f6d20746865207a65726f206164647265737345524332303a2064656372656173656420616c6c6f77616e63652062656c6f77207a65726fa26469706673582212208f1e71012a7110ada1d567d1f5346ec693ccd48db14a90e1f9baecea795df46164736f6c634300060c0033",
  "linkReferences": {},
  "deployedLinkReferences": {}
}