{
  "contracts/TVKPrestige.sol": {
    "TVKPrestige": {
      "abi": [
        {
          "inputs": [],
          "stateMutability": "nonpayable",
          "type": "constructor"
        },
        {
          "anonymous": false,
          "inputs": [
            {
              "indexed": false,
              "internalType": "address",
              "name": "_address",
              "type": "address"
            },
            {
              "indexed": false,
              "internalType": "enum IPrestige.Status",
              "name": "_old",
              "type": "uint8"
            },
            {
              "indexed": false,
              "internalType": "enum IPrestige.Status",
              "name": "_new",
              "type": "uint8"
            }
          ],
          "name": "StatusChange",
          "type": "event"
        },
        {
          "inputs": [],
          "name": "common",
          "outputs": [
            {
              "internalType": "uint256",
              "name": "",
              "type": "uint256"
            }
          ],
          "stateMutability": "view",
          "type": "function"
        },
        {
          "inputs": [],
          "name": "legendary",
          "outputs": [
            {
              "internalType": "uint256",
              "name": "",
              "type": "uint256"
            }
          ],
          "stateMutability": "view",
          "type": "function"
        },
        {
          "inputs": [],
          "name": "levels",
          "outputs": [
            {
              "internalType": "uint256[6]",
              "name": "",
              "type": "uint256[6]"
            }
          ],
          "stateMutability": "pure",
          "type": "function"
        },
        {
          "inputs": [],
          "name": "platinum",
          "outputs": [
            {
              "internalType": "uint256",
              "name": "",
              "type": "uint256"
            }
          ],
          "stateMutability": "view",
          "type": "function"
        },
        {
          "inputs": [],
          "name": "rare",
          "outputs": [
            {
              "internalType": "uint256",
              "name": "",
              "type": "uint256"
            }
          ],
          "stateMutability": "view",
          "type": "function"
        },
        {
          "inputs": [
            {
              "internalType": "address",
              "name": "_account",
              "type": "address"
            },
            {
              "internalType": "enum IPrestige.Status",
              "name": "_status",
              "type": "uint8"
            }
          ],
          "name": "set_status",
          "outputs": [],
          "stateMutability": "nonpayable",
          "type": "function"
        },
        {
          "inputs": [],
          "name": "special",
          "outputs": [
            {
              "internalType": "uint256",
              "name": "",
              "type": "uint256"
            }
          ],
          "stateMutability": "view",
          "type": "function"
        },
        {
          "inputs": [
            {
              "internalType": "address",
              "name": "_account",
              "type": "address"
            }
          ],
          "name": "status",
          "outputs": [
            {
              "internalType": "enum IPrestige.Status",
              "name": "",
              "type": "uint8"
            }
          ],
          "stateMutability": "view",
          "type": "function"
        },
        {
          "inputs": [],
          "name": "tvk",
          "outputs": [
            {
              "internalType": "contract IERC20",
              "name": "",
              "type": "address"
            }
          ],
          "stateMutability": "view",
          "type": "function"
        },
        {
          "inputs": [],
          "name": "uncommon",
          "outputs": [
            {
              "internalType": "uint256",
              "name": "",
              "type": "uint256"
            }
          ],
          "stateMutability": "view",
          "type": "function"
        }
      ],
      "evm": {
        "bytecode": {
          "linkReferences": {},
          "object": "608060405234801561001057600080fd5b50610a9e806100206000396000f3fe608060405234801561001057600080fd5b506004361061009e5760003560e01c8063a02eccaf11610066578063a02eccaf146101a6578063b786e5ca146101f7578063c937b0a91461022b578063ce9a3b0f14610249578063f739c261146102675761009e565b806344c4de41146100a35780634ecf518b146100c1578063645b8b1b146101075780636bb7b7a41461016a578063942d5f5614610188575b600080fd5b6100ab610285565b6040518082815260200191505060405180910390f35b6100c961028a565b6040518082600660200280838360005b838110156100f45780820151818401526020810190506100d9565b5050505090500191505060405180910390f35b6101496004803603602081101561011d57600080fd5b81019080803573ffffffffffffffffffffffffffffffffffffffff169060200190929190505050610305565b6040518082600581111561015957fe5b815260200191505060405180910390f35b610172610473565b6040518082815260200191505060405180910390f35b610190610481565b6040518082815260200191505060405180910390f35b6101f5600480360360408110156101bc57600080fd5b81019080803573ffffffffffffffffffffffffffffffffffffffff169060200190929190803560ff16906020019092919050505061048d565b005b6101ff610971565b604051808273ffffffffffffffffffffffffffffffffffffffff16815260200191505060405180910390f35b610233610989565b6040518082815260200191505060405180910390f35b61025161099f565b6040518082815260200191505060405180910390f35b61026f6109b0565b6040518082815260200191505060405180910390f35b600081565b610292610a46565b6040518060c0016040528060008152602001670de0b6b3a76400008152602001693782dace9d900000000081526020016c3025f39ef241c56cd2e7c4000081526020016ec097ce7bc90715b34b9f100000000081526020017103025f39ef241c56cd2e7c40000000000000815250905090565b60008073d084b83c305dafd76ae3e1b4e1f1fe2ecccb398873ffffffffffffffffffffffffffffffffffffffff166370a08231846040518263ffffffff1660e01b8152600401808273ffffffffffffffffffffffffffffffffffffffff16815260200191505060206040518083038186803b15801561038357600080fd5b505afa158015610397573d6000803e3d6000fd5b505050506040513d60208110156103ad57600080fd5b810190808051906020019092919050505090506103c8610a46565b6103d061028a565b905060005b60068160ff1610156104595782828260ff16600681106103f157fe5b60200201511115610418576001810360ff16600581111561040e57fe5b935050505061046e565b82828260ff166006811061042857fe5b6020020151141561044c578060ff16600581111561044257fe5b935050505061046e565b80806001019150506103d5565b8060ff16600581111561046857fe5b93505050505b919050565b693782dace9d900000000081565b670de0b6b3a764000081565b7fa910b436cadde7fdecf75fab5051f15a3029de055c54c1e819d66613a95c53f6823073ffffffffffffffffffffffffffffffffffffffff1663645b8b1b856040518263ffffffff1660e01b8152600401808273ffffffffffffffffffffffffffffffffffffffff16815260200191505060206040518083038186803b15801561051657600080fd5b505afa15801561052a573d6000803e3d6000fd5b505050506040513d602081101561054057600080fd5b810190808051906020019092919050505083604051808473ffffffffffffffffffffffffffffffffffffffff16815260200183600581111561057e57fe5b815260200182600581111561058f57fe5b8152602001935050505060405180910390a1600073d084b83c305dafd76ae3e1b4e1f1fe2ecccb398873ffffffffffffffffffffffffffffffffffffffff166370a08231846040518263ffffffff1660e01b8152600401808273ffffffffffffffffffffffffffffffffffffffff16815260200191505060206040518083038186803b15801561061e57600080fd5b505afa158015610632573d6000803e3d6000fd5b505050506040513d602081101561064857600080fd5b81019080805190602001909291905050509050600061066561028a565b83600581111561067157fe5b6006811061067b57fe5b602002015190508181106107765773d084b83c305dafd76ae3e1b4e1f1fe2ecccb398873ffffffffffffffffffffffffffffffffffffffff166323b872dd85306106c585876109c3565b6040518463ffffffff1660e01b8152600401808473ffffffffffffffffffffffffffffffffffffffff1681526020018373ffffffffffffffffffffffffffffffffffffffff1681526020018281526020019350505050602060405180830381600087803b15801561073557600080fd5b505af1158015610749573d6000803e3d6000fd5b505050506040513d602081101561075f57600080fd5b810190808051906020019092919050505050610841565b73d084b83c305dafd76ae3e1b4e1f1fe2ecccb398873ffffffffffffffffffffffffffffffffffffffff1663a9059cbb856107b185856109c3565b6040518363ffffffff1660e01b8152600401808373ffffffffffffffffffffffffffffffffffffffff16815260200182815260200192505050602060405180830381600087803b15801561080457600080fd5b505af1158015610818573d6000803e3d6000fd5b505050506040513d602081101561082e57600080fd5b8101908080519060200190929190505050505b8073d084b83c305dafd76ae3e1b4e1f1fe2ecccb398873ffffffffffffffffffffffffffffffffffffffff166370a08231866040518263ffffffff1660e01b8152600401808273ffffffffffffffffffffffffffffffffffffffff16815260200191505060206040518083038186803b1580156108bd57600080fd5b505afa1580156108d1573d6000803e3d6000fd5b505050506040513d60208110156108e757600080fd5b81019080805190602001909291905050501461096b576040517f08c379a000000000000000000000000000000000000000000000000000000000815260040180806020018281038252600f8152602001807f4552525f5354415455535f46554e44000000000000000000000000000000000081525060200191505060405180910390fd5b50505050565b73d084b83c305dafd76ae3e1b4e1f1fe2ecccb398881565b7103025f39ef241c56cd2e7c4000000000000081565b6c3025f39ef241c56cd2e7c4000081565b6ec097ce7bc90715b34b9f100000000081565b600082821115610a3b576040517f08c379a000000000000000000000000000000000000000000000000000000000815260040180806020018281038252601e8152602001807f536166654d6174683a207375627472616374696f6e206f766572666c6f77000081525060200191505060405180910390fd5b818303905092915050565b6040518060c0016040528060069060208202803683378082019150509050509056fea264697066735822122053434da3c5a2ec01c1d23db69e37444f4568f1e881c0dfdf4ec76cce3635adbd64736f6c63430007030033",
          "opcodes": "PUSH1 0x80 PUSH1 0x40 MSTORE CALLVALUE DUP1 ISZERO PUSH2 0x10 JUMPI PUSH1 0x0 DUP1 REVERT JUMPDEST POP PUSH2 0xA9E DUP1 PUSH2 0x20 PUSH1 0x0 CODECOPY PUSH1 0x0 RETURN INVALID PUSH1 0x80 PUSH1 0x40 MSTORE CALLVALUE DUP1 ISZERO PUSH2 0x10 JUMPI PUSH1 0x0 DUP1 REVERT JUMPDEST POP PUSH1 0x4 CALLDATASIZE LT PUSH2 0x9E JUMPI PUSH1 0x0 CALLDATALOAD PUSH1 0xE0 SHR DUP1 PUSH4 0xA02ECCAF GT PUSH2 0x66 JUMPI DUP1 PUSH4 0xA02ECCAF EQ PUSH2 0x1A6 JUMPI DUP1 PUSH4 0xB786E5CA EQ PUSH2 0x1F7 JUMPI DUP1 PUSH4 0xC937B0A9 EQ PUSH2 0x22B JUMPI DUP1 PUSH4 0xCE9A3B0F EQ PUSH2 0x249 JUMPI DUP1 PUSH4 0xF739C261 EQ PUSH2 0x267 JUMPI PUSH2 0x9E JUMP JUMPDEST DUP1 PUSH4 0x44C4DE41 EQ PUSH2 0xA3 JUMPI DUP1 PUSH4 0x4ECF518B EQ PUSH2 0xC1 JUMPI DUP1 PUSH4 0x645B8B1B EQ PUSH2 0x107 JUMPI DUP1 PUSH4 0x6BB7B7A4 EQ PUSH2 0x16A JUMPI DUP1 PUSH4 0x942D5F56 EQ PUSH2 0x188 JUMPI JUMPDEST PUSH1 0x0 DUP1 REVERT JUMPDEST PUSH2 0xAB PUSH2 0x285 JUMP JUMPDEST PUSH1 0x40 MLOAD DUP1 DUP3 DUP2 MSTORE PUSH1 0x20 ADD SWAP2 POP POP PUSH1 0x40 MLOAD DUP1 SWAP2 SUB SWAP1 RETURN JUMPDEST PUSH2 0xC9 PUSH2 0x28A JUMP JUMPDEST PUSH1 0x40 MLOAD DUP1 DUP3 PUSH1 0x6 PUSH1 0x20 MUL DUP1 DUP4 DUP4 PUSH1 0x0 JUMPDEST DUP4 DUP2 LT ISZERO PUSH2 0xF4 JUMPI DUP1 DUP3 ADD MLOAD DUP2 DUP5 ADD MSTORE PUSH1 0x20 DUP2 ADD SWAP1 POP PUSH2 0xD9 JUMP JUMPDEST POP POP POP POP SWAP1 POP ADD SWAP2 POP POP PUSH1 0x40 MLOAD DUP1 SWAP2 SUB SWAP1 RETURN JUMPDEST PUSH2 0x149 PUSH1 0x4 DUP1 CALLDATASIZE SUB PUSH1 0x20 DUP2 LT ISZERO PUSH2 0x11D JUMPI PUSH1 0x0 DUP1 REVERT JUMPDEST DUP2 ADD SWAP1 DUP1 DUP1 CALLDATALOAD PUSH20 0xFFFFFFFFFFFFFFFFFFFFFFFFFFFFFFFFFFFFFFFF AND SWAP1 PUSH1 0x20 ADD SWAP1 SWAP3 SWAP2 SWAP1 POP POP POP PUSH2 0x305 JUMP JUMPDEST PUSH1 0x40 MLOAD DUP1 DUP3 PUSH1 0x5 DUP2 GT ISZERO PUSH2 0x159 JUMPI INVALID JUMPDEST DUP2 MSTORE PUSH1 0x20 ADD SWAP2 POP POP PUSH1 0x40 MLOAD DUP1 SWAP2 SUB SWAP1 RETURN JUMPDEST PUSH2 0x172 PUSH2 0x473 JUMP JUMPDEST PUSH1 0x40 MLOAD DUP1 DUP3 DUP2 MSTORE PUSH1 0x20 ADD SWAP2 POP POP PUSH1 0x40 MLOAD DUP1 SWAP2 SUB SWAP1 RETURN JUMPDEST PUSH2 0x190 PUSH2 0x481 JUMP JUMPDEST PUSH1 0x40 MLOAD DUP1 DUP3 DUP2 MSTORE PUSH1 0x20 ADD SWAP2 POP POP PUSH1 0x40 MLOAD DUP1 SWAP2 SUB SWAP1 RETURN JUMPDEST PUSH2 0x1F5 PUSH1 0x4 DUP1 CALLDATASIZE SUB PUSH1 0x40 DUP2 LT ISZERO PUSH2 0x1BC JUMPI PUSH1 0x0 DUP1 REVERT JUMPDEST DUP2 ADD SWAP1 DUP1 DUP1 CALLDATALOAD PUSH20 0xFFFFFFFFFFFFFFFFFFFFFFFFFFFFFFFFFFFFFFFF AND SWAP1 PUSH1 0x20 ADD SWAP1 SWAP3 SWAP2 SWAP1 DUP1 CALLDATALOAD PUSH1 0xFF AND SWAP1 PUSH1 0x20 ADD SWAP1 SWAP3 SWAP2 SWAP1 POP POP POP PUSH2 0x48D JUMP JUMPDEST STOP JUMPDEST PUSH2 0x1FF PUSH2 0x971 JUMP JUMPDEST PUSH1 0x40 MLOAD DUP1 DUP3 PUSH20 0xFFFFFFFFFFFFFFFFFFFFFFFFFFFFFFFFFFFFFFFF AND DUP2 MSTORE PUSH1 0x20 ADD SWAP2 POP POP PUSH1 0x40 MLOAD DUP1 SWAP2 SUB SWAP1 RETURN JUMPDEST PUSH2 0x233 PUSH2 0x989 JUMP JUMPDEST PUSH1 0x40 MLOAD DUP1 DUP3 DUP2 MSTORE PUSH1 0x20 ADD SWAP2 POP POP PUSH1 0x40 MLOAD DUP1 SWAP2 SUB SWAP1 RETURN JUMPDEST PUSH2 0x251 PUSH2 0x99F JUMP JUMPDEST PUSH1 0x40 MLOAD DUP1 DUP3 DUP2 MSTORE PUSH1 0x20 ADD SWAP2 POP POP PUSH1 0x40 MLOAD DUP1 SWAP2 SUB SWAP1 RETURN JUMPDEST PUSH2 0x26F PUSH2 0x9B0 JUMP JUMPDEST PUSH1 0x40 MLOAD DUP1 DUP3 DUP2 MSTORE PUSH1 0x20 ADD SWAP2 POP POP PUSH1 0x40 MLOAD DUP1 SWAP2 SUB SWAP1 RETURN JUMPDEST PUSH1 0x0 DUP2 JUMP JUMPDEST PUSH2 0x292 PUSH2 0xA46 JUMP JUMPDEST PUSH1 0x40 MLOAD DUP1 PUSH1 0xC0 ADD PUSH1 0x40 MSTORE DUP1 PUSH1 0x0 DUP2 MSTORE PUSH1 0x20 ADD PUSH8 0xDE0B6B3A7640000 DUP2 MSTORE PUSH1 0x20 ADD PUSH10 0x3782DACE9D9000000000 DUP2 MSTORE PUSH1 0x20 ADD PUSH13 0x3025F39EF241C56CD2E7C40000 DUP2 MSTORE PUSH1 0x20 ADD PUSH15 0xC097CE7BC90715B34B9F1000000000 DUP2 MSTORE PUSH1 0x20 ADD PUSH18 0x3025F39EF241C56CD2E7C40000000000000 DUP2 MSTORE POP SWAP1 POP SWAP1 JUMP JUMPDEST PUSH1 0x0 DUP1 PUSH20 0xD084B83C305DAFD76AE3E1B4E1F1FE2ECCCB3988 PUSH20 0xFFFFFFFFFFFFFFFFFFFFFFFFFFFFFFFFFFFFFFFF AND PUSH4 0x70A08231 DUP5 PUSH1 0x40 MLOAD DUP3 PUSH4 0xFFFFFFFF AND PUSH1 0xE0 SHL DUP2 MSTORE PUSH1 0x4 ADD DUP1 DUP3 PUSH20 0xFFFFFFFFFFFFFFFFFFFFFFFFFFFFFFFFFFFFFFFF AND DUP2 MSTORE PUSH1 0x20 ADD SWAP2 POP POP PUSH1 0x20 PUSH1 0x40 MLOAD DUP1 DUP4 SUB DUP2 DUP7 DUP1 EXTCODESIZE ISZERO DUP1 ISZERO PUSH2 0x383 JUMPI PUSH1 0x0 DUP1 REVERT JUMPDEST POP GAS STATICCALL ISZERO DUP1 ISZERO PUSH2 0x397 JUMPI RETURNDATASIZE PUSH1 0x0 DUP1 RETURNDATACOPY RETURNDATASIZE PUSH1 0x0 REVERT JUMPDEST POP POP POP POP PUSH1 0x40 MLOAD RETURNDATASIZE PUSH1 0x20 DUP2 LT ISZERO PUSH2 0x3AD JUMPI PUSH1 0x0 DUP1 REVERT JUMPDEST DUP2 ADD SWAP1 DUP1 DUP1 MLOAD SWAP1 PUSH1 0x20 ADD SWAP1 SWAP3 SWAP2 SWAP1 POP POP POP SWAP1 POP PUSH2 0x3C8 PUSH2 0xA46 JUMP JUMPDEST PUSH2 0x3D0 PUSH2 0x28A JUMP JUMPDEST SWAP1 POP PUSH1 0x0 JUMPDEST PUSH1 0x6 DUP2 PUSH1 0xFF AND LT ISZERO PUSH2 0x459 JUMPI DUP3 DUP3 DUP3 PUSH1 0xFF AND PUSH1 0x6 DUP2 LT PUSH2 0x3F1 JUMPI INVALID JUMPDEST PUSH1 0x20 MUL ADD MLOAD GT ISZERO PUSH2 0x418 JUMPI PUSH1 0x1 DUP2 SUB PUSH1 0xFF AND PUSH1 0x5 DUP2 GT ISZERO PUSH2 0x40E JUMPI INVALID JUMPDEST SWAP4 POP POP POP POP PUSH2 0x46E JUMP JUMPDEST DUP3 DUP3 DUP3 PUSH1 0xFF AND PUSH1 0x6 DUP2 LT PUSH2 0x428 JUMPI INVALID JUMPDEST PUSH1 0x20 MUL ADD MLOAD EQ ISZERO PUSH2 0x44C JUMPI DUP1 PUSH1 0xFF AND PUSH1 0x5 DUP2 GT ISZERO PUSH2 0x442 JUMPI INVALID JUMPDEST SWAP4 POP POP POP POP PUSH2 0x46E JUMP JUMPDEST DUP1 DUP1 PUSH1 0x1 ADD SWAP2 POP POP PUSH2 0x3D5 JUMP JUMPDEST DUP1 PUSH1 0xFF AND PUSH1 0x5 DUP2 GT ISZERO PUSH2 0x468 JUMPI INVALID JUMPDEST SWAP4 POP POP POP POP JUMPDEST SWAP2 SWAP1 POP JUMP JUMPDEST PUSH10 0x3782DACE9D9000000000 DUP2 JUMP JUMPDEST PUSH8 0xDE0B6B3A7640000 DUP2 JUMP JUMPDEST PUSH32 0xA910B436CADDE7FDECF75FAB5051F15A3029DE055C54C1E819D66613A95C53F6 DUP3 ADDRESS PUSH20 0xFFFFFFFFFFFFFFFFFFFFFFFFFFFFFFFFFFFFFFFF AND PUSH4 0x645B8B1B DUP6 PUSH1 0x40 MLOAD DUP3 PUSH4 0xFFFFFFFF AND PUSH1 0xE0 SHL DUP2 MSTORE PUSH1 0x4 ADD DUP1 DUP3 PUSH20 0xFFFFFFFFFFFFFFFFFFFFFFFFFFFFFFFFFFFFFFFF AND DUP2 MSTORE PUSH1 0x20 ADD SWAP2 POP POP PUSH1 0x20 PUSH1 0x40 MLOAD DUP1 DUP4 SUB DUP2 DUP7 DUP1 EXTCODESIZE ISZERO DUP1 ISZERO PUSH2 0x516 JUMPI PUSH1 0x0 DUP1 REVERT JUMPDEST POP GAS STATICCALL ISZERO DUP1 ISZERO PUSH2 0x52A JUMPI RETURNDATASIZE PUSH1 0x0 DUP1 RETURNDATACOPY RETURNDATASIZE PUSH1 0x0 REVERT JUMPDEST POP POP POP POP PUSH1 0x40 MLOAD RETURNDATASIZE PUSH1 0x20 DUP2 LT ISZERO PUSH2 0x540 JUMPI PUSH1 0x0 DUP1 REVERT JUMPDEST DUP2 ADD SWAP1 DUP1 DUP1 MLOAD SWAP1 PUSH1 0x20 ADD SWAP1 SWAP3 SWAP2 SWAP1 POP POP POP DUP4 PUSH1 0x40 MLOAD DUP1 DUP5 PUSH20 0xFFFFFFFFFFFFFFFFFFFFFFFFFFFFFFFFFFFFFFFF AND DUP2 MSTORE PUSH1 0x20 ADD DUP4 PUSH1 0x5 DUP2 GT ISZERO PUSH2 0x57E JUMPI INVALID JUMPDEST DUP2 MSTORE PUSH1 0x20 ADD DUP3 PUSH1 0x5 DUP2 GT ISZERO PUSH2 0x58F JUMPI INVALID JUMPDEST DUP2 MSTORE PUSH1 0x20 ADD SWAP4 POP POP POP POP PUSH1 0x40 MLOAD DUP1 SWAP2 SUB SWAP1 LOG1 PUSH1 0x0 PUSH20 0xD084B83C305DAFD76AE3E1B4E1F1FE2ECCCB3988 PUSH20 0xFFFFFFFFFFFFFFFFFFFFFFFFFFFFFFFFFFFFFFFF AND PUSH4 0x70A08231 DUP5 PUSH1 0x40 MLOAD DUP3 PUSH4 0xFFFFFFFF AND PUSH1 0xE0 SHL DUP2 MSTORE PUSH1 0x4 ADD DUP1 DUP3 PUSH20 0xFFFFFFFFFFFFFFFFFFFFFFFFFFFFFFFFFFFFFFFF AND DUP2 MSTORE PUSH1 0x20 ADD SWAP2 POP POP PUSH1 0x20 PUSH1 0x40 MLOAD DUP1 DUP4 SUB DUP2 DUP7 DUP1 EXTCODESIZE ISZERO DUP1 ISZERO PUSH2 0x61E JUMPI PUSH1 0x0 DUP1 REVERT JUMPDEST POP GAS STATICCALL ISZERO DUP1 ISZERO PUSH2 0x632 JUMPI RETURNDATASIZE PUSH1 0x0 DUP1 RETURNDATACOPY RETURNDATASIZE PUSH1 0x0 REVERT JUMPDEST POP POP POP POP PUSH1 0x40 MLOAD RETURNDATASIZE PUSH1 0x20 DUP2 LT ISZERO PUSH2 0x648 JUMPI PUSH1 0x0 DUP1 REVERT JUMPDEST DUP2 ADD SWAP1 DUP1 DUP1 MLOAD SWAP1 PUSH1 0x20 ADD SWAP1 SWAP3 SWAP2 SWAP1 POP POP POP SWAP1 POP PUSH1 0x0 PUSH2 0x665 PUSH2 0x28A JUMP JUMPDEST DUP4 PUSH1 0x5 DUP2 GT ISZERO PUSH2 0x671 JUMPI INVALID JUMPDEST PUSH1 0x6 DUP2 LT PUSH2 0x67B JUMPI INVALID JUMPDEST PUSH1 0x20 MUL ADD MLOAD SWAP1 POP DUP2 DUP2 LT PUSH2 0x776 JUMPI PUSH20 0xD084B83C305DAFD76AE3E1B4E1F1FE2ECCCB3988 PUSH20 0xFFFFFFFFFFFFFFFFFFFFFFFFFFFFFFFFFFFFFFFF AND PUSH4 0x23B872DD DUP6 ADDRESS PUSH2 0x6C5 DUP6 DUP8 PUSH2 0x9C3 JUMP JUMPDEST PUSH1 0x40 MLOAD DUP5 PUSH4 0xFFFFFFFF AND PUSH1 0xE0 SHL DUP2 MSTORE PUSH1 0x4 ADD DUP1 DUP5 PUSH20 0xFFFFFFFFFFFFFFFFFFFFFFFFFFFFFFFFFFFFFFFF AND DUP2 MSTORE PUSH1 0x20 ADD DUP4 PUSH20 0xFFFFFFFFFFFFFFFFFFFFFFFFFFFFFFFFFFFFFFFF AND DUP2 MSTORE PUSH1 0x20 ADD DUP3 DUP2 MSTORE PUSH1 0x20 ADD SWAP4 POP POP POP POP PUSH1 0x20 PUSH1 0x40 MLOAD DUP1 DUP4 SUB DUP2 PUSH1 0x0 DUP8 DUP1 EXTCODESIZE ISZERO DUP1 ISZERO PUSH2 0x735 JUMPI PUSH1 0x0 DUP1 REVERT JUMPDEST POP GAS CALL ISZERO DUP1 ISZERO PUSH2 0x749 JUMPI RETURNDATASIZE PUSH1 0x0 DUP1 RETURNDATACOPY RETURNDATASIZE PUSH1 0x0 REVERT JUMPDEST POP POP POP POP PUSH1 0x40 MLOAD RETURNDATASIZE PUSH1 0x20 DUP2 LT ISZERO PUSH2 0x75F JUMPI PUSH1 0x0 DUP1 REVERT JUMPDEST DUP2 ADD SWAP1 DUP1 DUP1 MLOAD SWAP1 PUSH1 0x20 ADD SWAP1 SWAP3 SWAP2 SWAP1 POP POP POP POP PUSH2 0x841 JUMP JUMPDEST PUSH20 0xD084B83C305DAFD76AE3E1B4E1F1FE2ECCCB3988 PUSH20 0xFFFFFFFFFFFFFFFFFFFFFFFFFFFFFFFFFFFFFFFF AND PUSH4 0xA9059CBB DUP6 PUSH2 0x7B1 DUP6 DUP6 PUSH2 0x9C3 JUMP JUMPDEST PUSH1 0x40 MLOAD DUP4 PUSH4 0xFFFFFFFF AND PUSH1 0xE0 SHL DUP2 MSTORE PUSH1 0x4 ADD DUP1 DUP4 PUSH20 0xFFFFFFFFFFFFFFFFFFFFFFFFFFFFFFFFFFFFFFFF AND DUP2 MSTORE PUSH1 0x20 ADD DUP3 DUP2 MSTORE PUSH1 0x20 ADD SWAP3 POP POP POP PUSH1 0x20 PUSH1 0x40 MLOAD DUP1 DUP4 SUB DUP2 PUSH1 0x0 DUP8 DUP1 EXTCODESIZE ISZERO DUP1 ISZERO PUSH2 0x804 JUMPI PUSH1 0x0 DUP1 REVERT JUMPDEST POP GAS CALL ISZERO DUP1 ISZERO PUSH2 0x818 JUMPI RETURNDATASIZE PUSH1 0x0 DUP1 RETURNDATACOPY RETURNDATASIZE PUSH1 0x0 REVERT JUMPDEST POP POP POP POP PUSH1 0x40 MLOAD RETURNDATASIZE PUSH1 0x20 DUP2 LT ISZERO PUSH2 0x82E JUMPI PUSH1 0x0 DUP1 REVERT JUMPDEST DUP2 ADD SWAP1 DUP1 DUP1 MLOAD SWAP1 PUSH1 0x20 ADD SWAP1 SWAP3 SWAP2 SWAP1 POP POP POP POP JUMPDEST DUP1 PUSH20 0xD084B83C305DAFD76AE3E1B4E1F1FE2ECCCB3988 PUSH20 0xFFFFFFFFFFFFFFFFFFFFFFFFFFFFFFFFFFFFFFFF AND PUSH4 0x70A08231 DUP7 PUSH1 0x40 MLOAD DUP3 PUSH4 0xFFFFFFFF AND PUSH1 0xE0 SHL DUP2 MSTORE PUSH1 0x4 ADD DUP1 DUP3 PUSH20 0xFFFFFFFFFFFFFFFFFFFFFFFFFFFFFFFFFFFFFFFF AND DUP2 MSTORE PUSH1 0x20 ADD SWAP2 POP POP PUSH1 0x20 PUSH1 0x40 MLOAD DUP1 DUP4 SUB DUP2 DUP7 DUP1 EXTCODESIZE ISZERO DUP1 ISZERO PUSH2 0x8BD JUMPI PUSH1 0x0 DUP1 REVERT JUMPDEST POP GAS STATICCALL ISZERO DUP1 ISZERO PUSH2 0x8D1 JUMPI RETURNDATASIZE PUSH1 0x0 DUP1 RETURNDATACOPY RETURNDATASIZE PUSH1 0x0 REVERT JUMPDEST POP POP POP POP PUSH1 0x40 MLOAD RETURNDATASIZE PUSH1 0x20 DUP2 LT ISZERO PUSH2 0x8E7 JUMPI PUSH1 0x0 DUP1 REVERT JUMPDEST DUP2 ADD SWAP1 DUP1 DUP1 MLOAD SWAP1 PUSH1 0x20 ADD SWAP1 SWAP3 SWAP2 SWAP1 POP POP POP EQ PUSH2 0x96B JUMPI PUSH1 0x40 MLOAD PUSH32 0x8C379A000000000000000000000000000000000000000000000000000000000 DUP2 MSTORE PUSH1 0x4 ADD DUP1 DUP1 PUSH1 0x20 ADD DUP3 DUP2 SUB DUP3 MSTORE PUSH1 0xF DUP2 MSTORE PUSH1 0x20 ADD DUP1 PUSH32 0x4552525F5354415455535F46554E440000000000000000000000000000000000 DUP2 MSTORE POP PUSH1 0x20 ADD SWAP2 POP POP PUSH1 0x40 MLOAD DUP1 SWAP2 SUB SWAP1 REVERT JUMPDEST POP POP POP POP JUMP JUMPDEST PUSH20 0xD084B83C305DAFD76AE3E1B4E1F1FE2ECCCB3988 DUP2 JUMP JUMPDEST PUSH18 0x3025F39EF241C56CD2E7C40000000000000 DUP2 JUMP JUMPDEST PUSH13 0x3025F39EF241C56CD2E7C40000 DUP2 JUMP JUMPDEST PUSH15 0xC097CE7BC90715B34B9F1000000000 DUP2 JUMP JUMPDEST PUSH1 0x0 DUP3 DUP3 GT ISZERO PUSH2 0xA3B JUMPI PUSH1 0x40 MLOAD PUSH32 0x8C379A000000000000000000000000000000000000000000000000000000000 DUP2 MSTORE PUSH1 0x4 ADD DUP1 DUP1 PUSH1 0x20 ADD DUP3 DUP2 SUB DUP3 MSTORE PUSH1 0x1E DUP2 MSTORE PUSH1 0x20 ADD DUP1 PUSH32 0x536166654D6174683A207375627472616374696F6E206F766572666C6F770000 DUP2 MSTORE POP PUSH1 0x20 ADD SWAP2 POP POP PUSH1 0x40 MLOAD DUP1 SWAP2 SUB SWAP1 REVERT JUMPDEST DUP2 DUP4 SUB SWAP1 POP SWAP3 SWAP2 POP POP JUMP JUMPDEST PUSH1 0x40 MLOAD DUP1 PUSH1 0xC0 ADD PUSH1 0x40 MSTORE DUP1 PUSH1 0x6 SWAP1 PUSH1 0x20 DUP3 MUL DUP1 CALLDATASIZE DUP4 CALLDATACOPY DUP1 DUP3 ADD SWAP2 POP POP SWAP1 POP POP SWAP1 JUMP INVALID LOG2 PUSH5 0x6970667358 0x22 SLT KECCAK256 MSTORE8 NUMBER 0x4D LOG3 0xC5 LOG2 0xEC ADD 0xC1 0xD2 RETURNDATASIZE 0xB6 SWAP15 CALLDATACOPY DIFFICULTY 0x4F GASLIMIT PUSH9 0xF1E881C0DFDF4EC76C 0xCE CALLDATASIZE CALLDATALOAD 0xAD 0xBD PUSH5 0x736F6C6343 STOP SMOD SUB STOP CALLER "
        },
        "methodIdentifiers": {
          "common()": "44c4de41",
          "legendary()": "f739c261",
          "levels()": "4ecf518b",
          "platinum()": "c937b0a9",
          "rare()": "6bb7b7a4",
          "set_status(address,uint8)": "a02eccaf",
          "special()": "ce9a3b0f",
          "status(address)": "645b8b1b",
          "tvk()": "b786e5ca",
          "uncommon()": "942d5f56"
        }
      }
    }
  }
}