{
  "_format": "hh-sol-artifact-1",
  "contractName": "SmartPoolManager",
  "sourceName": "@beehiveinnovation/configurable-rights-pool/libraries/SmartPoolManager.sol",
  "abi": [
    {
      "inputs": [
        {
          "internalType": "contract IConfigurableRightsPool",
          "name": "self",
          "type": "IConfigurableRightsPool"
        },
        {
          "internalType": "contract IBPool",
          "name": "bPool",
          "type": "IBPool"
        },
        {
          "internalType": "uint256",
          "name": "poolAmountIn",
          "type": "uint256"
        },
        {
          "internalType": "uint256[]",
          "name": "minAmountsOut",
          "type": "uint256[]"
        }
      ],
      "name": "exitPool",
      "outputs": [
        {
          "internalType": "uint256",
          "name": "exitFee",
          "type": "uint256"
        },
        {
          "internalType": "uint256",
          "name": "pAiAfterExitFee",
          "type": "uint256"
        },
        {
          "internalType": "uint256[]",
          "name": "actualAmountsOut",
          "type": "uint256[]"
        }
      ],
      "stateMutability": "view",
      "type": "function"
    },
    {
      "inputs": [
        {
          "internalType": "contract IConfigurableRightsPool",
          "name": "self",
          "type": "IConfigurableRightsPool"
        },
        {
          "internalType": "contract IBPool",
          "name": "bPool",
          "type": "IBPool"
        },
        {
          "internalType": "address",
          "name": "tokenOut",
          "type": "address"
        },
        {
          "internalType": "uint256",
          "name": "tokenAmountOut",
          "type": "uint256"
        },
        {
          "internalType": "uint256",
          "name": "maxPoolAmountIn",
          "type": "uint256"
        }
      ],
      "name": "exitswapExternAmountOut",
      "outputs": [
        {
          "internalType": "uint256",
          "name": "exitFee",
          "type": "uint256"
        },
        {
          "internalType": "uint256",
          "name": "poolAmountIn",
          "type": "uint256"
        }
      ],
      "stateMutability": "view",
      "type": "function"
    },
    {
      "inputs": [
        {
          "internalType": "contract IConfigurableRightsPool",
          "name": "self",
          "type": "IConfigurableRightsPool"
        },
        {
          "internalType": "contract IBPool",
          "name": "bPool",
          "type": "IBPool"
        },
        {
          "internalType": "address",
          "name": "tokenOut",
          "type": "address"
        },
        {
          "internalType": "uint256",
          "name": "poolAmountIn",
          "type": "uint256"
        },
        {
          "internalType": "uint256",
          "name": "minAmountOut",
          "type": "uint256"
        }
      ],
      "name": "exitswapPoolAmountIn",
      "outputs": [
        {
          "internalType": "uint256",
          "name": "exitFee",
          "type": "uint256"
        },
        {
          "internalType": "uint256",
          "name": "tokenAmountOut",
          "type": "uint256"
        }
      ],
      "stateMutability": "view",
      "type": "function"
    },
    {
      "inputs": [
        {
          "internalType": "contract IConfigurableRightsPool",
          "name": "self",
          "type": "IConfigurableRightsPool"
        },
        {
          "internalType": "contract IBPool",
          "name": "bPool",
          "type": "IBPool"
        },
        {
          "internalType": "uint256",
          "name": "poolAmountOut",
          "type": "uint256"
        },
        {
          "internalType": "uint256[]",
          "name": "maxAmountsIn",
          "type": "uint256[]"
        }
      ],
      "name": "joinPool",
      "outputs": [
        {
          "internalType": "uint256[]",
          "name": "actualAmountsIn",
          "type": "uint256[]"
        }
      ],
      "stateMutability": "view",
      "type": "function"
    },
    {
      "inputs": [
        {
          "internalType": "contract IConfigurableRightsPool",
          "name": "self",
          "type": "IConfigurableRightsPool"
        },
        {
          "internalType": "contract IBPool",
          "name": "bPool",
          "type": "IBPool"
        },
        {
          "internalType": "address",
          "name": "tokenIn",
          "type": "address"
        },
        {
          "internalType": "uint256",
          "name": "tokenAmountIn",
          "type": "uint256"
        },
        {
          "internalType": "uint256",
          "name": "minPoolAmountOut",
          "type": "uint256"
        }
      ],
      "name": "joinswapExternAmountIn",
      "outputs": [
        {
          "internalType": "uint256",
          "name": "poolAmountOut",
          "type": "uint256"
        }
      ],
      "stateMutability": "view",
      "type": "function"
    },
    {
      "inputs": [
        {
          "internalType": "contract IConfigurableRightsPool",
          "name": "self",
          "type": "IConfigurableRightsPool"
        },
        {
          "internalType": "contract IBPool",
          "name": "bPool",
          "type": "IBPool"
        },
        {
          "internalType": "address",
          "name": "tokenIn",
          "type": "address"
        },
        {
          "internalType": "uint256",
          "name": "poolAmountOut",
          "type": "uint256"
        },
        {
          "internalType": "uint256",
          "name": "maxAmountIn",
          "type": "uint256"
        }
      ],
      "name": "joinswapPoolAmountOut",
      "outputs": [
        {
          "internalType": "uint256",
          "name": "tokenAmountIn",
          "type": "uint256"
        }
      ],
      "stateMutability": "view",
      "type": "function"
    }
  ],
  "bytecode": "0x614df4610026600b82828239805160001a60731461001957fe5b30600052607381538281f3fe73000000000000000000000000000000000000000030146080604052600436106100f45760003560e01c806382495b4511610096578063d505a94e11610070578063d505a94e14610247578063df90de0b1461025a578063efa587741461026d578063f544aa1c1461028d576100f4565b806382495b45146101e7578063a1925f1d14610207578063b489ec1914610227576100f4565b80635471c3e4116100d25780635471c3e41461015b5780636a6dc6e714610186578063724a2d53146101a657806377d44349146101c7576100f4565b80630970e47f146100f957806313b8bf241461011b5780631c1af1361461013b575b600080fd5b81801561010557600080fd5b50610119610114366004614439565b6102ad565b005b81801561012757600080fd5b506101196101363660046143c4565b610822565b81801561014757600080fd5b50610119610156366004614206565b610be8565b61016e61016936600461452d565b610bf4565b60405161017d93929190614d2e565b60405180910390f35b6101996101943660046144d3565b610f7a565b60405161017d9190614d17565b6101b96101b43660046144d3565b6114f6565b60405161017d929190614d20565b8180156101d357600080fd5b506101196101e236600461423e565b611a67565b8180156101f357600080fd5b50610119610202366004614399565b611aa8565b61021a61021536600461452d565b611e89565b60405161017d9190614702565b81801561023357600080fd5b50610119610242366004614349565b6121f1565b6101b96102553660046144d3565b6124f0565b6101996102683660046144d3565b6129c0565b81801561027957600080fd5b5061011961028836600461459e565b612e9e565b81801561029957600080fd5b506101196102a8366004614483565b613381565b60008373ffffffffffffffffffffffffffffffffffffffff166318160ddd6040518163ffffffff1660e01b815260040160206040518083038186803b1580156102f557600080fd5b505afa158015610309573d6000803e3d6000fd5b505050506040513d601f19601f8201168201806040525081019061032d91906145e3565b905060006104496103c6838673ffffffffffffffffffffffffffffffffffffffff1663948d8ce6876040518263ffffffff1660e01b81526004016103719190614635565b60206040518083038186803b15801561038957600080fd5b505afa15801561039d573d6000803e3d6000fd5b505050506040513d601f19601f820116820180604052508101906103c191906145e3565b613bef565b8573ffffffffffffffffffffffffffffffffffffffff1663936c34776040518163ffffffff1660e01b815260040160206040518083038186803b15801561040c57600080fd5b505afa158015610420573d6000803e3d6000fd5b505050506040513d601f19601f8201168201806040525081019061044491906145e3565b613ca2565b905060008473ffffffffffffffffffffffffffffffffffffffff1663f8b2cb4f856040518263ffffffff1660e01b81526004016104869190614635565b60206040518083038186803b15801561049e57600080fd5b505afa1580156104b2573d6000803e3d6000fd5b505050506040513d601f19601f820116820180604052508101906104d691906145e3565b6040517fcf5e7bd300000000000000000000000000000000000000000000000000000000815290915073ffffffffffffffffffffffffffffffffffffffff86169063cf5e7bd39061052b908790600401614635565b600060405180830381600087803b15801561054557600080fd5b505af1158015610559573d6000803e3d6000fd5b5050505060008473ffffffffffffffffffffffffffffffffffffffff1663a9059cbb8873ffffffffffffffffffffffffffffffffffffffff16633018205f6040518163ffffffff1660e01b815260040160206040518083038186803b1580156105c157600080fd5b505afa1580156105d5573d6000803e3d6000fd5b505050506040513d601f19601f820116820180604052508101906105f99190614222565b846040518363ffffffff1660e01b8152600401610617929190614687565b602060405180830381600087803b15801561063157600080fd5b505af1158015610645573d6000803e3d6000fd5b505050506040513d601f19601f820116820180604052508101906106699190614329565b9050806106ab576040517f08c379a00000000000000000000000000000000000000000000000000000000081526004016106a290614c72565b60405180910390fd5b8673ffffffffffffffffffffffffffffffffffffffff166355c32a238873ffffffffffffffffffffffffffffffffffffffff16633018205f6040518163ffffffff1660e01b815260040160206040518083038186803b15801561070d57600080fd5b505afa158015610721573d6000803e3d6000fd5b505050506040513d601f19601f820116820180604052508101906107459190614222565b856040518363ffffffff1660e01b8152600401610763929190614687565b600060405180830381600087803b15801561077d57600080fd5b505af1158015610791573d6000803e3d6000fd5b50506040517f220eb76000000000000000000000000000000000000000000000000000000000815273ffffffffffffffffffffffffffffffffffffffff8a16925063220eb76091506107e7908690600401614d17565b600060405180830381600087803b15801561080157600080fd5b505af1158015610815573d6000803e3d6000fd5b5050505050505050505050565b81431061085b576040517f08c379a00000000000000000000000000000000000000000000000000000000081526004016106a29061474c565b8243111561086b5743865561086f565b8286555b8061087e838860000154613d81565b10156108b6576040517f08c379a00000000000000000000000000000000000000000000000000000000081526004016106a290614783565b60608773ffffffffffffffffffffffffffffffffffffffff1663cc77828d6040518163ffffffff1660e01b815260040160006040518083038186803b1580156108fe57600080fd5b505afa158015610912573d6000803e3d6000fd5b505050506040513d6000823e601f3d9081017fffffffffffffffffffffffffffffffffffffffffffffffffffffffffffffffe0168201604052610958919081019061427e565b80519091508514610995576040517f08c379a00000000000000000000000000000000000000000000000000000000081526004016106a2906147b8565b6000815167ffffffffffffffff811180156109af57600080fd5b506040519080825280602002602001820160405280156109d9578160200160208202803683370190505b5080516109f09160028b019160209091019061411e565b5060005b8251811015610b83576802b5e3af16b1880000888883818110610a1357fe5b905060200201351115610a52576040517f08c379a00000000000000000000000000000000000000000000000000000000081526004016106a290614b28565b670de0b6b3a7640000888883818110610a6757fe5b905060200201351015610aa6576040517f08c379a00000000000000000000000000000000000000000000000000000000081526004016106a290614a4c565b610ac282898984818110610ab657fe5b90506020020135613dd4565b91508973ffffffffffffffffffffffffffffffffffffffff1663948d8ce6848381518110610aec57fe5b60200260200101516040518263ffffffff1660e01b8152600401610b109190614635565b60206040518083038186803b158015610b2857600080fd5b505afa158015610b3c573d6000803e3d6000fd5b505050506040513d601f19601f82011682018060405250810190610b6091906145e3565b896002018281548110610b6f57fe5b6000918252602090912001556001016109f4565b506802b5e3af16b1880000811115610bc7576040517f08c379a00000000000000000000000000000000000000000000000000000000081526004016106a2906148cb565b60018801849055610bdc600389018888614169565b50505050505050505050565b610bf181613e1a565b50565b6000806060808773ffffffffffffffffffffffffffffffffffffffff1663cc77828d6040518163ffffffff1660e01b815260040160006040518083038186803b158015610c4057600080fd5b505afa158015610c54573d6000803e3d6000fd5b505050506040513d6000823e601f3d9081017fffffffffffffffffffffffffffffffffffffffffffffffffffffffffffffffe0168201604052610c9a919081019061427e565b80519091508514610cd7576040517f08c379a00000000000000000000000000000000000000000000000000000000081526004016106a290614902565b60008973ffffffffffffffffffffffffffffffffffffffff166318160ddd6040518163ffffffff1660e01b815260040160206040518083038186803b158015610d1f57600080fd5b505afa158015610d33573d6000803e3d6000fd5b505050506040513d601f19601f82011682018060405250810190610d5791906145e3565b9050610d64886000613bef565b9450610d708886613d81565b93506000610d8385610444846001613dd4565b905080610dbc576040517f08c379a00000000000000000000000000000000000000000000000000000000081526004016106a29061485d565b825167ffffffffffffffff81118015610dd457600080fd5b50604051908082528060200260200182016040528015610dfe578160200160208202803683370190505b50935060005b8351811015610f6b576000848281518110610e1b57fe5b6020026020010151905060008c73ffffffffffffffffffffffffffffffffffffffff1663f8b2cb4f836040518263ffffffff1660e01b8152600401610e609190614635565b60206040518083038186803b158015610e7857600080fd5b505afa158015610e8c573d6000803e3d6000fd5b505050506040513d601f19601f82011682018060405250810190610eb091906145e3565b90506000610ec3856103c1846001613d81565b905080610efc576040517f08c379a00000000000000000000000000000000000000000000000000000000081526004016106a29061485d565b8b8b85818110610f0857fe5b90506020020135811015610f48576040517f08c379a00000000000000000000000000000000000000000000000000000000081526004016106a290614939565b80888581518110610f5557fe5b6020908102919091010152505050600101610e04565b50505050955095509592505050565b6040517f2f37b62400000000000000000000000000000000000000000000000000000000815260009073ffffffffffffffffffffffffffffffffffffffff861690632f37b62490610fcf908790600401614635565b60206040518083038186803b158015610fe757600080fd5b505afa158015610ffb573d6000803e3d6000fd5b505050506040513d601f19601f8201168201806040525081019061101f9190614329565b611055576040517f08c379a00000000000000000000000000000000000000000000000000000000081526004016106a290614aba565b6040517ff8b2cb4f00000000000000000000000000000000000000000000000000000000815273ffffffffffffffffffffffffffffffffffffffff861690635c1bbaf790829063f8b2cb4f906110af908990600401614635565b60206040518083038186803b1580156110c757600080fd5b505afa1580156110db573d6000803e3d6000fd5b505050506040513d601f19601f820116820180604052508101906110ff91906145e3565b6040517f948d8ce600000000000000000000000000000000000000000000000000000000815273ffffffffffffffffffffffffffffffffffffffff89169063948d8ce690611151908a90600401614635565b60206040518083038186803b15801561116957600080fd5b505afa15801561117d573d6000803e3d6000fd5b505050506040513d601f19601f820116820180604052508101906111a191906145e3565b8973ffffffffffffffffffffffffffffffffffffffff166318160ddd6040518163ffffffff1660e01b815260040160206040518083038186803b1580156111e757600080fd5b505afa1580156111fb573d6000803e3d6000fd5b505050506040513d601f19601f8201168201806040525081019061121f91906145e3565b8973ffffffffffffffffffffffffffffffffffffffff1663936c34776040518163ffffffff1660e01b815260040160206040518083038186803b15801561126557600080fd5b505afa158015611279573d6000803e3d6000fd5b505050506040513d601f19601f8201168201806040525081019061129d91906145e3565b888b73ffffffffffffffffffffffffffffffffffffffff1663d4cadf686040518163ffffffff1660e01b815260040160206040518083038186803b1580156112e457600080fd5b505afa1580156112f8573d6000803e3d6000fd5b505050506040513d601f19601f8201168201806040525081019061131c91906145e3565b6040518763ffffffff1660e01b815260040161133d96959493929190614d4d565b60206040518083038186803b15801561135557600080fd5b505afa158015611369573d6000803e3d6000fd5b505050506040513d601f19601f8201168201806040525081019061138d91906145e3565b9050806113c6576040517f08c379a00000000000000000000000000000000000000000000000000000000081526004016106a29061485d565b81811115611400576040517f08c379a00000000000000000000000000000000000000000000000000000000081526004016106a290614a15565b6040517ff8b2cb4f0000000000000000000000000000000000000000000000000000000081526114b49073ffffffffffffffffffffffffffffffffffffffff87169063f8b2cb4f90611456908890600401614635565b60206040518083038186803b15801561146e57600080fd5b505afa158015611482573d6000803e3d6000fd5b505050506040513d601f19601f820116820180604052508101906114a691906145e3565b6706f05b59d3b20000613bef565b8111156114ed576040517f08c379a00000000000000000000000000000000000000000000000000000000081526004016106a290614826565b95945050505050565b6000808573ffffffffffffffffffffffffffffffffffffffff16632f37b624866040518263ffffffff1660e01b81526004016115329190614635565b60206040518083038186803b15801561154a57600080fd5b505afa15801561155e573d6000803e3d6000fd5b505050506040513d601f19601f820116820180604052508101906115829190614329565b6115b8576040517f08c379a00000000000000000000000000000000000000000000000000000000081526004016106a290614aba565b6040517ff8b2cb4f00000000000000000000000000000000000000000000000000000000815261166c9073ffffffffffffffffffffffffffffffffffffffff88169063f8b2cb4f9061160e908990600401614635565b60206040518083038186803b15801561162657600080fd5b505afa15801561163a573d6000803e3d6000fd5b505050506040513d601f19601f8201168201806040525081019061165e91906145e3565b6704a03ce68d215556613bef565b8411156116a5576040517f08c379a00000000000000000000000000000000000000000000000000000000081526004016106a290614a83565b6040517ff8b2cb4f00000000000000000000000000000000000000000000000000000000815273ffffffffffffffffffffffffffffffffffffffff8716906382f652ad90829063f8b2cb4f906116ff908a90600401614635565b60206040518083038186803b15801561171757600080fd5b505afa15801561172b573d6000803e3d6000fd5b505050506040513d601f19601f8201168201806040525081019061174f91906145e3565b6040517f948d8ce600000000000000000000000000000000000000000000000000000000815273ffffffffffffffffffffffffffffffffffffffff8a169063948d8ce6906117a1908b90600401614635565b60206040518083038186803b1580156117b957600080fd5b505afa1580156117cd573d6000803e3d6000fd5b505050506040513d601f19601f820116820180604052508101906117f191906145e3565b8a73ffffffffffffffffffffffffffffffffffffffff166318160ddd6040518163ffffffff1660e01b815260040160206040518083038186803b15801561183757600080fd5b505afa15801561184b573d6000803e3d6000fd5b505050506040513d601f19601f8201168201806040525081019061186f91906145e3565b8a73ffffffffffffffffffffffffffffffffffffffff1663936c34776040518163ffffffff1660e01b815260040160206040518083038186803b1580156118b557600080fd5b505afa1580156118c9573d6000803e3d6000fd5b505050506040513d601f19601f820116820180604052508101906118ed91906145e3565b898c73ffffffffffffffffffffffffffffffffffffffff1663d4cadf686040518163ffffffff1660e01b815260040160206040518083038186803b15801561193457600080fd5b505afa158015611948573d6000803e3d6000fd5b505050506040513d601f19601f8201168201806040525081019061196c91906145e3565b6040518763ffffffff1660e01b815260040161198d96959493929190614d4d565b60206040518083038186803b1580156119a557600080fd5b505afa1580156119b9573d6000803e3d6000fd5b505050506040513d601f19601f820116820180604052508101906119dd91906145e3565b905080611a16576040517f08c379a00000000000000000000000000000000000000000000000000000000081526004016106a29061485d565b82811115611a50576040517f08c379a00000000000000000000000000000000000000000000000000000000081526004016106a290614a15565b611a5b816000613bef565b91509550959350505050565b60005b81811015611aa357611a9b838383818110611a8157fe5b9050602002016020810190611a969190614206565b613e1a565b600101611a6a565b505050565b8054611ab357611e85565b8054431015611aee576040517f08c379a00000000000000000000000000000000000000000000000000000000081526004016106a2906149a7565b60008160010154431115611b0757506001810154611b0a565b50435b6000611b1e83600101548460000154613d81565b90506000611b30838560000154613d81565b9050600080600060608873ffffffffffffffffffffffffffffffffffffffff1663cc77828d6040518163ffffffff1660e01b815260040160006040518083038186803b158015611b7f57600080fd5b505afa158015611b93573d6000803e3d6000fd5b505050506040513d6000823e601f3d9081017fffffffffffffffffffffffffffffffffffffffffffffffffffffffffffffffe0168201604052611bd9919081019061427e565b905060005b8151811015611e6c57886003018181548110611bf657fe5b9060005260206000200154896002018281548110611c1057fe5b906000526020600020015414611e6457886002018181548110611c2f57fe5b9060005260206000200154896003018281548110611c4957fe5b90600052602060002001541015611cd757611c96896002018281548110611c6c57fe5b90600052602060002001548a6003018381548110611c8657fe5b9060005260206000200154613d81565b9450611ca28588613ca2565b9350611cd0896002018281548110611cb657fe5b9060005260206000200154611ccb8887613bef565b613d81565b9250611d40565b611d03896003018281548110611ce957fe5b90600052602060002001548a6002018381548110611c8657fe5b9450611d0f8588613ca2565b9350611d3d896002018281548110611d2357fe5b9060005260206000200154611d388887613bef565b613dd4565b92505b60008a73ffffffffffffffffffffffffffffffffffffffff1663f8b2cb4f848481518110611d6a57fe5b60200260200101516040518263ffffffff1660e01b8152600401611d8e9190614635565b60206040518083038186803b158015611da657600080fd5b505afa158015611dba573d6000803e3d6000fd5b505050506040513d601f19601f82011682018060405250810190611dde91906145e3565b90508a73ffffffffffffffffffffffffffffffffffffffff16633fdddaa2848481518110611e0857fe5b602002602001015183876040518463ffffffff1660e01b8152600401611e30939291906146d4565b600060405180830381600087803b158015611e4a57600080fd5b505af1158015611e5e573d6000803e3d6000fd5b50505050505b600101611bde565b5087600101544310611e7d57600088555b505050505050505b5050565b6060808573ffffffffffffffffffffffffffffffffffffffff1663cc77828d6040518163ffffffff1660e01b815260040160006040518083038186803b158015611ed257600080fd5b505afa158015611ee6573d6000803e3d6000fd5b505050506040513d6000823e601f3d9081017fffffffffffffffffffffffffffffffffffffffffffffffffffffffffffffffe0168201604052611f2c919081019061427e565b80519091508314611f69576040517f08c379a00000000000000000000000000000000000000000000000000000000081526004016106a290614902565b60008773ffffffffffffffffffffffffffffffffffffffff166318160ddd6040518163ffffffff1660e01b815260040160206040518083038186803b158015611fb157600080fd5b505afa158015611fc5573d6000803e3d6000fd5b505050506040513d601f19601f82011682018060405250810190611fe991906145e3565b90506000611ffc87610444846001613d81565b905080612035576040517f08c379a00000000000000000000000000000000000000000000000000000000081526004016106a29061485d565b825167ffffffffffffffff8111801561204d57600080fd5b50604051908082528060200260200182016040528015612077578160200160208202803683370190505b50935060005b83518110156121e457600084828151811061209457fe5b6020026020010151905060008a73ffffffffffffffffffffffffffffffffffffffff1663f8b2cb4f836040518263ffffffff1660e01b81526004016120d99190614635565b60206040518083038186803b1580156120f157600080fd5b505afa158015612105573d6000803e3d6000fd5b505050506040513d601f19601f8201168201806040525081019061212991906145e3565b9050600061213c856103c1846001613dd4565b905080612175576040517f08c379a00000000000000000000000000000000000000000000000000000000081526004016106a29061485d565b89898581811061218157fe5b905060200201358111156121c1576040517f08c379a00000000000000000000000000000000000000000000000000000000081526004016106a290614a15565b808885815181106121ce57fe5b602090810291909101015250505060010161207d565b5050505095945050505050565b6040517f2f37b62400000000000000000000000000000000000000000000000000000000815273ffffffffffffffffffffffffffffffffffffffff861690632f37b62490612243908790600401614635565b60206040518083038186803b15801561225b57600080fd5b505afa15801561226f573d6000803e3d6000fd5b505050506040513d601f19601f820116820180604052508101906122939190614329565b156122ca576040517f08c379a00000000000000000000000000000000000000000000000000000000081526004016106a2906147ef565b6802b5e3af16b188000082111561230d576040517f08c379a00000000000000000000000000000000000000000000000000000000081526004016106a290614b28565b670de0b6b3a764000082101561234f576040517f08c379a00000000000000000000000000000000000000000000000000000000081526004016106a290614a4c565b670de0b6b3a76400006032026123e28673ffffffffffffffffffffffffffffffffffffffff1663936c34776040518163ffffffff1660e01b815260040160206040518083038186803b1580156123a457600080fd5b505afa1580156123b8573d6000803e3d6000fd5b505050506040513d601f19601f820116820180604052508101906123dc91906145e3565b84613dd4565b111561241a576040517f08c379a00000000000000000000000000000000000000000000000000000000081526004016106a2906148cb565b64e8d4a51000831015612459576040517f08c379a00000000000000000000000000000000000000000000000000000000081526004016106a290614c3b565b805460038201939093556002810191909155436001820155740100000000000000000000000000000000000000007fffffffffffffffffffffffff000000000000000000000000000000000000000090921673ffffffffffffffffffffffffffffffffffffffff93909316929092177fffffffffffffffffffffff00ffffffffffffffffffffffffffffffffffffffff1617905550565b6000808573ffffffffffffffffffffffffffffffffffffffff16632f37b624866040518263ffffffff1660e01b815260040161252c9190614635565b60206040518083038186803b15801561254457600080fd5b505afa158015612558573d6000803e3d6000fd5b505050506040513d601f19601f8201168201806040525081019061257c9190614329565b6125b2576040517f08c379a00000000000000000000000000000000000000000000000000000000081526004016106a290614aba565b6040517ff8b2cb4f00000000000000000000000000000000000000000000000000000000815273ffffffffffffffffffffffffffffffffffffffff871690638929801290829063f8b2cb4f9061260c908a90600401614635565b60206040518083038186803b15801561262457600080fd5b505afa158015612638573d6000803e3d6000fd5b505050506040513d601f19601f8201168201806040525081019061265c91906145e3565b6040517f948d8ce600000000000000000000000000000000000000000000000000000000815273ffffffffffffffffffffffffffffffffffffffff8a169063948d8ce6906126ae908b90600401614635565b60206040518083038186803b1580156126c657600080fd5b505afa1580156126da573d6000803e3d6000fd5b505050506040513d601f19601f820116820180604052508101906126fe91906145e3565b8a73ffffffffffffffffffffffffffffffffffffffff166318160ddd6040518163ffffffff1660e01b815260040160206040518083038186803b15801561274457600080fd5b505afa158015612758573d6000803e3d6000fd5b505050506040513d601f19601f8201168201806040525081019061277c91906145e3565b8a73ffffffffffffffffffffffffffffffffffffffff1663936c34776040518163ffffffff1660e01b815260040160206040518083038186803b1580156127c257600080fd5b505afa1580156127d6573d6000803e3d6000fd5b505050506040513d601f19601f820116820180604052508101906127fa91906145e3565b898c73ffffffffffffffffffffffffffffffffffffffff1663d4cadf686040518163ffffffff1660e01b815260040160206040518083038186803b15801561284157600080fd5b505afa158015612855573d6000803e3d6000fd5b505050506040513d601f19601f8201168201806040525081019061287991906145e3565b6040518763ffffffff1660e01b815260040161289a96959493929190614d4d565b60206040518083038186803b1580156128b257600080fd5b505afa1580156128c6573d6000803e3d6000fd5b505050506040513d601f19601f820116820180604052508101906128ea91906145e3565b905082811015612926576040517f08c379a00000000000000000000000000000000000000000000000000000000081526004016106a290614939565b6040517ff8b2cb4f00000000000000000000000000000000000000000000000000000000815261297c9073ffffffffffffffffffffffffffffffffffffffff88169063f8b2cb4f9061160e908990600401614635565b8111156129b5576040517f08c379a00000000000000000000000000000000000000000000000000000000081526004016106a290614a83565b611a5b846000613bef565b6040517f2f37b62400000000000000000000000000000000000000000000000000000000815260009073ffffffffffffffffffffffffffffffffffffffff861690632f37b62490612a15908790600401614635565b60206040518083038186803b158015612a2d57600080fd5b505afa158015612a41573d6000803e3d6000fd5b505050506040513d601f19601f82011682018060405250810190612a659190614329565b612a9b576040517f08c379a00000000000000000000000000000000000000000000000000000000081526004016106a290614aba565b6040517ff8b2cb4f000000000000000000000000000000000000000000000000000000008152612af19073ffffffffffffffffffffffffffffffffffffffff87169063f8b2cb4f90611456908890600401614635565b831115612b2a576040517f08c379a00000000000000000000000000000000000000000000000000000000081526004016106a290614826565b6040517ff8b2cb4f00000000000000000000000000000000000000000000000000000000815273ffffffffffffffffffffffffffffffffffffffff861690638656b65390829063f8b2cb4f90612b84908990600401614635565b60206040518083038186803b158015612b9c57600080fd5b505afa158015612bb0573d6000803e3d6000fd5b505050506040513d601f19601f82011682018060405250810190612bd491906145e3565b6040517f948d8ce600000000000000000000000000000000000000000000000000000000815273ffffffffffffffffffffffffffffffffffffffff89169063948d8ce690612c26908a90600401614635565b60206040518083038186803b158015612c3e57600080fd5b505afa158015612c52573d6000803e3d6000fd5b505050506040513d601f19601f82011682018060405250810190612c7691906145e3565b8973ffffffffffffffffffffffffffffffffffffffff166318160ddd6040518163ffffffff1660e01b815260040160206040518083038186803b158015612cbc57600080fd5b505afa158015612cd0573d6000803e3d6000fd5b505050506040513d601f19601f82011682018060405250810190612cf491906145e3565b8973ffffffffffffffffffffffffffffffffffffffff1663936c34776040518163ffffffff1660e01b815260040160206040518083038186803b158015612d3a57600080fd5b505afa158015612d4e573d6000803e3d6000fd5b505050506040513d601f19601f82011682018060405250810190612d7291906145e3565b888b73ffffffffffffffffffffffffffffffffffffffff1663d4cadf686040518163ffffffff1660e01b815260040160206040518083038186803b158015612db957600080fd5b505afa158015612dcd573d6000803e3d6000fd5b505050506040513d601f19601f82011682018060405250810190612df191906145e3565b6040518763ffffffff1660e01b8152600401612e1296959493929190614d4d565b60206040518083038186803b158015612e2a57600080fd5b505afa158015612e3e573d6000803e3d6000fd5b505050506040513d601f19601f82011682018060405250810190612e6291906145e3565b9050818110156114ed576040517f08c379a00000000000000000000000000000000000000000000000000000000081526004016106a290614939565b805474010000000000000000000000000000000000000000900460ff16612ef1576040517f08c379a00000000000000000000000000000000000000000000000000000000081526004016106a290614715565b81612f00438360010154613d81565b1015612f38576040517f08c379a00000000000000000000000000000000000000000000000000000000081526004016106a290614b5f565b60008473ffffffffffffffffffffffffffffffffffffffff166318160ddd6040518163ffffffff1660e01b815260040160206040518083038186803b158015612f8057600080fd5b505afa158015612f94573d6000803e3d6000fd5b505050506040513d601f19601f82011682018060405250810190612fb891906145e3565b90506000613013612fcd838560020154613bef565b8673ffffffffffffffffffffffffffffffffffffffff1663936c34776040518163ffffffff1660e01b815260040160206040518083038186803b15801561040c57600080fd5b83547fffffffffffffffffffffff00ffffffffffffffffffffffffffffffffffffffff81168555604080517f3018205f000000000000000000000000000000000000000000000000000000008152905192935060009273ffffffffffffffffffffffffffffffffffffffff928316926323b872dd92908b1691633018205f91600480820192602092909190829003018186803b1580156130b257600080fd5b505afa1580156130c6573d6000803e3d6000fd5b505050506040513d601f19601f820116820180604052508101906130ea9190614222565b8987600301546040518463ffffffff1660e01b815260040161310e93929190614656565b602060405180830381600087803b15801561312857600080fd5b505af115801561313c573d6000803e3d6000fd5b505050506040513d601f19601f820116820180604052508101906131609190614329565b905080613199576040517f08c379a00000000000000000000000000000000000000000000000000000000081526004016106a290614c72565b83546131dc9073ffffffffffffffffffffffffffffffffffffffff16877fffffffffffffffffffffffffffffffffffffffffffffffffffffffffffffffff613efc565b905080613215576040517f08c379a00000000000000000000000000000000000000000000000000000000081526004016106a290614c72565b8354600385015460028601546040517fe4e1e53800000000000000000000000000000000000000000000000000000000815273ffffffffffffffffffffffffffffffffffffffff808b169463e4e1e538946132779491909216926004016146d4565b600060405180830381600087803b15801561329157600080fd5b505af11580156132a5573d6000803e3d6000fd5b50506040517f4ba5788200000000000000000000000000000000000000000000000000000000815273ffffffffffffffffffffffffffffffffffffffff8a169250634ba5788291506132fb908590600401614d17565b600060405180830381600087803b15801561331557600080fd5b505af1158015613329573d6000803e3d6000fd5b50506040517f095dcccc00000000000000000000000000000000000000000000000000000000815273ffffffffffffffffffffffffffffffffffffffff8a16925063095dcccc91506107e79033908690600401614687565b670de0b6b3a76400008110156133c3576040517f08c379a00000000000000000000000000000000000000000000000000000000081526004016106a290614af1565b6802b5e3af16b1880000811115613406576040517f08c379a00000000000000000000000000000000000000000000000000000000081526004016106a290614894565b6040517f948d8ce600000000000000000000000000000000000000000000000000000000815260009073ffffffffffffffffffffffffffffffffffffffff85169063948d8ce69061345b908690600401614635565b60206040518083038186803b15801561347357600080fd5b505afa158015613487573d6000803e3d6000fd5b505050506040513d601f19601f820116820180604052508101906134ab91906145e3565b9050818114156134bb5750613be9565b6040517ff8b2cb4f00000000000000000000000000000000000000000000000000000000815260009073ffffffffffffffffffffffffffffffffffffffff86169063f8b2cb4f90613510908790600401614635565b60206040518083038186803b15801561352857600080fd5b505afa15801561353c573d6000803e3d6000fd5b505050506040513d601f19601f8201168201806040525081019061356091906145e3565b905060008673ffffffffffffffffffffffffffffffffffffffff166318160ddd6040518163ffffffff1660e01b815260040160206040518083038186803b1580156135aa57600080fd5b505afa1580156135be573d6000803e3d6000fd5b505050506040513d601f19601f820116820180604052508101906135e291906145e3565b905060008673ffffffffffffffffffffffffffffffffffffffff1663936c34776040518163ffffffff1660e01b815260040160206040518083038186803b15801561362c57600080fd5b505afa158015613640573d6000803e3d6000fd5b505050506040513d601f19601f8201168201806040525081019061366491906145e3565b90506000806000808789101561394c5761367e888a613d81565b915061368e866103c18488613ca2565b935061369e876103c1848b613ca2565b92506136aa8784613d81565b905064e8d4a510008110156136eb576040517f08c379a00000000000000000000000000000000000000000000000000000000081526004016106a290614970565b6040517f3fdddaa200000000000000000000000000000000000000000000000000000000815273ffffffffffffffffffffffffffffffffffffffff8c1690633fdddaa290613741908d9085908e906004016146d4565b600060405180830381600087803b15801561375b57600080fd5b505af115801561376f573d6000803e3d6000fd5b50506040517fa9059cbb0000000000000000000000000000000000000000000000000000000081526000925073ffffffffffffffffffffffffffffffffffffffff8d16915063a9059cbb906137ca9033908890600401614687565b602060405180830381600087803b1580156137e457600080fd5b505af11580156137f8573d6000803e3d6000fd5b505050506040513d601f19601f8201168201806040525081019061381c9190614329565b905080613855576040517f08c379a00000000000000000000000000000000000000000000000000000000081526004016106a290614c72565b6040517f55c32a2300000000000000000000000000000000000000000000000000000000815273ffffffffffffffffffffffffffffffffffffffff8e16906355c32a23906138a99033908990600401614687565b600060405180830381600087803b1580156138c357600080fd5b505af11580156138d7573d6000803e3d6000fd5b505050508c73ffffffffffffffffffffffffffffffffffffffff1663220eb760866040518263ffffffff1660e01b81526004016139149190614d17565b600060405180830381600087803b15801561392e57600080fd5b505af1158015613942573d6000803e3d6000fd5b5050505050613be0565b6139568989613d81565b91506802b5e3af16b188000061396c8684613dd4565b11156139a4576040517f08c379a00000000000000000000000000000000000000000000000000000000081526004016106a2906148cb565b6139b2866103c18488613ca2565b93506139c2876103c1848b613ca2565b925060008a73ffffffffffffffffffffffffffffffffffffffff166323b872dd3330876040518463ffffffff1660e01b8152600401613a0393929190614656565b602060405180830381600087803b158015613a1d57600080fd5b505af1158015613a31573d6000803e3d6000fd5b505050506040513d601f19601f82011682018060405250810190613a559190614329565b905080613a8e576040517f08c379a00000000000000000000000000000000000000000000000000000000081526004016106a290614c72565b8b73ffffffffffffffffffffffffffffffffffffffff16633fdddaa28c613ab58b88613dd4565b8d6040518463ffffffff1660e01b8152600401613ad4939291906146d4565b600060405180830381600087803b158015613aee57600080fd5b505af1158015613b02573d6000803e3d6000fd5b505050508c73ffffffffffffffffffffffffffffffffffffffff16634ba57882866040518263ffffffff1660e01b8152600401613b3f9190614d17565b600060405180830381600087803b158015613b5957600080fd5b505af1158015613b6d573d6000803e3d6000fd5b505050508c73ffffffffffffffffffffffffffffffffffffffff1663095dcccc33876040518363ffffffff1660e01b8152600401613bac929190614687565b600060405180830381600087803b158015613bc657600080fd5b505af1158015613bda573d6000803e3d6000fd5b50505050505b50505050505050505b50505050565b600082613bfe57506000613c9c565b82820282848281613c0b57fe5b0414613c43576040517f08c379a00000000000000000000000000000000000000000000000000000000081526004016106a290614b96565b6706f05b59d3b20000810181811015613c88576040517f08c379a00000000000000000000000000000000000000000000000000000000081526004016106a290614b96565b6000670de0b6b3a7640000825b0493505050505b92915050565b600081613cdb576040517f08c379a00000000000000000000000000000000000000000000000000000000081526004016106a290614c04565b82613ce857506000613c9c565b670de0b6b3a764000083810290848281613cfe57fe5b0414613d36576040517f08c379a00000000000000000000000000000000000000000000000000000000081526004016106a2906149de565b60028304810181811015613d76576040517f08c379a00000000000000000000000000000000000000000000000000000000081526004016106a2906149de565b6000848281613c9557fe5b6000806000613d9085856140f9565b915091508015613dcc576040517f08c379a00000000000000000000000000000000000000000000000000000000081526004016106a290614ca9565b509392505050565b600082820183811015613e13576040517f08c379a00000000000000000000000000000000000000000000000000000000081526004016106a290614ce0565b9392505050565b6040517fa9059cbb00000000000000000000000000000000000000000000000000000000815260009073ffffffffffffffffffffffffffffffffffffffff83169063a9059cbb90613e719033908590600401614687565b602060405180830381600087803b158015613e8b57600080fd5b505af1158015613e9f573d6000803e3d6000fd5b505050506040513d601f19601f82011682018060405250810190613ec39190614329565b905080611e85576040517f08c379a00000000000000000000000000000000000000000000000000000000081526004016106a290614bcd565b6000808473ffffffffffffffffffffffffffffffffffffffff1663dd62ed3e30866040518363ffffffff1660e01b8152600401613f3a9291906146ad565b60206040518083038186803b158015613f5257600080fd5b505afa158015613f66573d6000803e3d6000fd5b505050506040513d601f19601f82011682018060405250810190613f8a91906145e3565b905082811415613f9e576001915050613e13565b8015614053576040517f095ea7b300000000000000000000000000000000000000000000000000000000815273ffffffffffffffffffffffffffffffffffffffff86169063095ea7b390613ff9908790600090600401614687565b602060405180830381600087803b15801561401357600080fd5b505af1158015614027573d6000803e3d6000fd5b505050506040513d601f19601f8201168201806040525081019061404b9190614329565b915050613e13565b6040517f095ea7b300000000000000000000000000000000000000000000000000000000815273ffffffffffffffffffffffffffffffffffffffff86169063095ea7b3906140a79087908790600401614687565b602060405180830381600087803b1580156140c157600080fd5b505af11580156140d5573d6000803e3d6000fd5b505050506040513d601f19601f820116820180604052508101906114ed9190614329565b60008083831161410f5750508082036000614117565b505081810360015b9250929050565b828054828255906000526020600020908101928215614159579160200282015b8281111561415957825182559160200191906001019061413e565b506141659291506141a4565b5090565b828054828255906000526020600020908101928215614159579160200282015b82811115614159578235825591602001919060010190614189565b5b8082111561416557600081556001016141a5565b8051613c9c81614d9c565b60008083601f8401126141d5578182fd5b50813567ffffffffffffffff8111156141ec578182fd5b602083019150836020808302850101111561411757600080fd5b600060208284031215614217578081fd5b8135613e1381614d9c565b600060208284031215614233578081fd5b8151613e1381614d9c565b60008060208385031215614250578081fd5b823567ffffffffffffffff811115614266578182fd5b614272858286016141c4565b90969095509350505050565b60006020808385031215614290578182fd5b825167ffffffffffffffff808211156142a7578384fd5b818501915085601f8301126142ba578384fd5b8151818111156142c8578485fd5b83810291506142d8848301614d75565b8181528481019084860184860187018a10156142f2578788fd5b8795505b8386101561431c576143088a826141b9565b8352600195909501949186019186016142f6565b5098975050505050505050565b60006020828403121561433a578081fd5b81518015158114613e13578182fd5b600080600080600060a08688031215614360578081fd5b853561436b81614d9c565b9450602086013561437b81614d9c565b94979496505050506040830135926060810135926080909101359150565b600080604083850312156143ab578182fd5b82356143b681614d9c565b946020939093013593505050565b600080600080600080600060c0888a0312156143de578182fd5b87356143e981614d9c565b965060208801359550604088013567ffffffffffffffff81111561440b578283fd5b6144178a828b016141c4565b989b979a50986060810135976080820135975060a09091013595509350505050565b60008060006060848603121561444d578283fd5b833561445881614d9c565b9250602084013561446881614d9c565b9150604084013561447881614d9c565b809150509250925092565b60008060008060808587031215614498578384fd5b84356144a381614d9c565b935060208501356144b381614d9c565b925060408501356144c381614d9c565b9396929550929360600135925050565b600080600080600060a086880312156144ea578283fd5b85356144f581614d9c565b9450602086013561450581614d9c565b9350604086013561451581614d9c565b94979396509394606081013594506080013592915050565b600080600080600060808688031215614544578283fd5b853561454f81614d9c565b9450602086013561455f81614d9c565b935060408601359250606086013567ffffffffffffffff811115614581578182fd5b61458d888289016141c4565b969995985093965092949392505050565b600080600080608085870312156145b3578182fd5b84356145be81614d9c565b935060208501356145ce81614d9c565b93969395505050506040820135916060013590565b6000602082840312156145f4578081fd5b5051919050565b6000815180845260208085019450808401835b8381101561462a5781518752958201959082019060010161460e565b509495945050505050565b73ffffffffffffffffffffffffffffffffffffffff91909116815260200190565b73ffffffffffffffffffffffffffffffffffffffff9384168152919092166020820152604081019190915260600190565b73ffffffffffffffffffffffffffffffffffffffff929092168252602082015260400190565b73ffffffffffffffffffffffffffffffffffffffff92831681529116602082015260400190565b73ffffffffffffffffffffffffffffffffffffffff9390931683526020830191909152604082015260600190565b600060208252613e1360208301846145fb565b60208082526013908201527f4552525f4e4f5f544f4b454e5f434f4d4d495400000000000000000000000000604082015260600190565b6020808252601e908201527f4552525f4752414455414c5f5550444154455f54494d455f54524156454c0000604082015260600190565b6020808252818101527f4552525f5745494748545f4348414e47455f54494d455f42454c4f575f4d494e604082015260600190565b6020808252601a908201527f4552525f53544152545f574549474854535f4d49534d41544348000000000000604082015260600190565b6020808252600c908201527f4552525f49535f424f554e440000000000000000000000000000000000000000604082015260600190565b60208082526010908201527f4552525f4d41585f494e5f524154494f00000000000000000000000000000000604082015260600190565b6020808252600f908201527f4552525f4d4154485f415050524f580000000000000000000000000000000000604082015260600190565b6020808252600e908201527f4552525f4d41585f574549474854000000000000000000000000000000000000604082015260600190565b60208082526014908201527f4552525f4d41585f544f54414c5f574549474854000000000000000000000000604082015260600190565b60208082526014908201527f4552525f414d4f554e54535f4d49534d41544348000000000000000000000000604082015260600190565b6020808252600d908201527f4552525f4c494d49545f4f555400000000000000000000000000000000000000604082015260600190565b6020808252600f908201527f4552525f4d494e5f42414c414e43450000000000000000000000000000000000604082015260600190565b60208082526011908201527f4552525f43414e545f504f4b455f594554000000000000000000000000000000604082015260600190565b60208082526010908201527f4552525f4449565f494e5445524e414c00000000000000000000000000000000604082015260600190565b6020808252600c908201527f4552525f4c494d49545f494e0000000000000000000000000000000000000000604082015260600190565b60208082526014908201527f4552525f5745494748545f42454c4f575f4d494e000000000000000000000000604082015260600190565b60208082526011908201527f4552525f4d41585f4f55545f524154494f000000000000000000000000000000604082015260600190565b6020808252600d908201527f4552525f4e4f545f424f554e4400000000000000000000000000000000000000604082015260600190565b6020808252600e908201527f4552525f4d494e5f574549474854000000000000000000000000000000000000604082015260600190565b60208082526014908201527f4552525f5745494748545f41424f56455f4d4158000000000000000000000000604082015260600190565b6020808252601b908201527f4552525f54494d454c4f434b5f5354494c4c5f434f554e54494e470000000000604082015260600190565b60208082526010908201527f4552525f4d554c5f4f564552464c4f5700000000000000000000000000000000604082015260600190565b60208082526017908201527f4552525f4e4f4e434f4e464f524d494e475f544f4b454e000000000000000000604082015260600190565b6020808252600c908201527f4552525f4449565f5a45524f0000000000000000000000000000000000000000604082015260600190565b60208082526015908201527f4552525f42414c414e43455f42454c4f575f4d494e0000000000000000000000604082015260600190565b6020808252600f908201527f4552525f45524332305f46414c53450000000000000000000000000000000000604082015260600190565b60208082526011908201527f4552525f5355425f554e444552464c4f57000000000000000000000000000000604082015260600190565b60208082526010908201527f4552525f4144445f4f564552464c4f5700000000000000000000000000000000604082015260600190565b90815260200190565b918252602082015260400190565b6000848252836020830152606060408301526114ed60608301846145fb565b958652602086019490945260408501929092526060840152608083015260a082015260c00190565b60405181810167ffffffffffffffff81118282101715614d9457600080fd5b604052919050565b73ffffffffffffffffffffffffffffffffffffffff81168114610bf157600080fdfea2646970667358221220fe4fa075deee83e20704bb43dbab7b9e44c050c5a0b129a4a5cdb8b9685131a464736f6c634300060c0033",
  "linkReferences": {},
  "deployedLinkReferences": {}
}