{
  "_format": "hh-sol-artifact-1",
  "contractName": "PrestigeByConstructionClaimTest",
  "sourceName": "contracts/tv-prestige/contracts/test/PrestigeByConstructionClaimTest.sol",
  "abi": [
    {
      "inputs": [
        {
          "internalType": "contract IPrestige",
          "name": "_prestige",
          "type": "address"
        }
      ],
      "stateMutability": "nonpayable",
      "type": "constructor"
    },
    {
      "anonymous": false,
      "inputs": [
        {
          "indexed": true,
          "internalType": "address",
          "name": "owner",
          "type": "address"
        },
        {
          "indexed": true,
          "internalType": "address",
          "name": "spender",
          "type": "address"
        },
        {
          "indexed": false,
          "internalType": "uint256",
          "name": "value",
          "type": "uint256"
        }
      ],
      "name": "Approval",
      "type": "event"
    },
    {
      "anonymous": false,
      "inputs": [
        {
          "indexed": true,
          "internalType": "address",
          "name": "from",
          "type": "address"
        },
        {
          "indexed": true,
          "internalType": "address",
          "name": "to",
          "type": "address"
        },
        {
          "indexed": false,
          "internalType": "uint256",
          "name": "value",
          "type": "uint256"
        }
      ],
      "name": "Transfer",
      "type": "event"
    },
    {
      "inputs": [
        {
          "internalType": "address",
          "name": "owner",
          "type": "address"
        },
        {
          "internalType": "address",
          "name": "spender",
          "type": "address"
        }
      ],
      "name": "allowance",
      "outputs": [
        {
          "internalType": "uint256",
          "name": "",
          "type": "uint256"
        }
      ],
      "stateMutability": "view",
      "type": "function"
    },
    {
      "inputs": [
        {
          "internalType": "address",
          "name": "spender",
          "type": "address"
        },
        {
          "internalType": "uint256",
          "name": "amount",
          "type": "uint256"
        }
      ],
      "name": "approve",
      "outputs": [
        {
          "internalType": "bool",
          "name": "",
          "type": "bool"
        }
      ],
      "stateMutability": "nonpayable",
      "type": "function"
    },
    {
      "inputs": [
        {
          "internalType": "address",
          "name": "account",
          "type": "address"
        }
      ],
      "name": "balanceOf",
      "outputs": [
        {
          "internalType": "uint256",
          "name": "",
          "type": "uint256"
        }
      ],
      "stateMutability": "view",
      "type": "function"
    },
    {
      "inputs": [
        {
          "internalType": "address",
          "name": "account",
          "type": "address"
        }
      ],
      "name": "claim",
      "outputs": [],
      "stateMutability": "nonpayable",
      "type": "function"
    },
    {
      "inputs": [
        {
          "internalType": "address",
          "name": "",
          "type": "address"
        }
      ],
      "name": "claims",
      "outputs": [
        {
          "internalType": "bool",
          "name": "",
          "type": "bool"
        }
      ],
      "stateMutability": "view",
      "type": "function"
    },
    {
      "inputs": [],
      "name": "constructionBlock",
      "outputs": [
        {
          "internalType": "uint256",
          "name": "",
          "type": "uint256"
        }
      ],
      "stateMutability": "view",
      "type": "function"
    },
    {
      "inputs": [],
      "name": "decimals",
      "outputs": [
        {
          "internalType": "uint8",
          "name": "",
          "type": "uint8"
        }
      ],
      "stateMutability": "view",
      "type": "function"
    },
    {
      "inputs": [
        {
          "internalType": "address",
          "name": "spender",
          "type": "address"
        },
        {
          "internalType": "uint256",
          "name": "subtractedValue",
          "type": "uint256"
        }
      ],
      "name": "decreaseAllowance",
      "outputs": [
        {
          "internalType": "bool",
          "name": "",
          "type": "bool"
        }
      ],
      "stateMutability": "nonpayable",
      "type": "function"
    },
    {
      "inputs": [
        {
          "internalType": "address",
          "name": "spender",
          "type": "address"
        },
        {
          "internalType": "uint256",
          "name": "addedValue",
          "type": "uint256"
        }
      ],
      "name": "increaseAllowance",
      "outputs": [
        {
          "internalType": "bool",
          "name": "",
          "type": "bool"
        }
      ],
      "stateMutability": "nonpayable",
      "type": "function"
    },
    {
      "inputs": [
        {
          "internalType": "address",
          "name": "account",
          "type": "address"
        },
        {
          "internalType": "enum IPrestige.Status",
          "name": "status",
          "type": "uint8"
        }
      ],
      "name": "isStatus",
      "outputs": [
        {
          "internalType": "bool",
          "name": "",
          "type": "bool"
        }
      ],
      "stateMutability": "view",
      "type": "function"
    },
    {
      "inputs": [],
      "name": "name",
      "outputs": [
        {
          "internalType": "string",
          "name": "",
          "type": "string"
        }
      ],
      "stateMutability": "view",
      "type": "function"
    },
    {
      "inputs": [],
      "name": "prestige",
      "outputs": [
        {
          "internalType": "contract IPrestige",
          "name": "",
          "type": "address"
        }
      ],
      "stateMutability": "view",
      "type": "function"
    },
    {
      "inputs": [],
      "name": "symbol",
      "outputs": [
        {
          "internalType": "string",
          "name": "",
          "type": "string"
        }
      ],
      "stateMutability": "view",
      "type": "function"
    },
    {
      "inputs": [],
      "name": "totalSupply",
      "outputs": [
        {
          "internalType": "uint256",
          "name": "",
          "type": "uint256"
        }
      ],
      "stateMutability": "view",
      "type": "function"
    },
    {
      "inputs": [
        {
          "internalType": "address",
          "name": "recipient",
          "type": "address"
        },
        {
          "internalType": "uint256",
          "name": "amount",
          "type": "uint256"
        }
      ],
      "name": "transfer",
      "outputs": [
        {
          "internalType": "bool",
          "name": "",
          "type": "bool"
        }
      ],
      "stateMutability": "nonpayable",
      "type": "function"
    },
    {
      "inputs": [
        {
          "internalType": "address",
          "name": "sender",
          "type": "address"
        },
        {
          "internalType": "address",
          "name": "recipient",
          "type": "address"
        },
        {
          "internalType": "uint256",
          "name": "amount",
          "type": "uint256"
        }
      ],
      "name": "transferFrom",
      "outputs": [
        {
          "internalType": "bool",
          "name": "",
          "type": "bool"
        }
      ],
      "stateMutability": "nonpayable",
      "type": "function"
    }
  ],
  "bytecode": "0x60806040523480156200001157600080fd5b506040516200127c3803806200127c833981810160405260208110156200003757600080fd5b5051604080518082018252600781526633b7b6322a35b760c91b60208281019182528351808501909452600484526323aa25a760e11b908401528151849391620000859160039190620000da565b5080516200009b906004906020840190620000da565b5050600580546001600160a01b0390931661010002610100600160a81b031960ff19909416601217939093169290921790915550504360065562000176565b828054600181600116156101000203166002900490600052602060002090601f016020900481019282601f106200011d57805160ff19168380011785556200014d565b828001600101855582156200014d579182015b828111156200014d57825182559160200191906001019062000130565b506200015b9291506200015f565b5090565b5b808211156200015b576000815560010162000160565b6110f680620001866000396000f3fe608060405234801561001057600080fd5b50600436106101005760003560e01c80633950935111610097578063a457c2d711610066578063a457c2d714610368578063a9059cbb146103a1578063c6788bdd146103da578063dd62ed3e1461040d57610100565b806339509351146102c357806370a08231146102fc57806395d89b411461032f5780639c7081df1461033757610100565b80631e83409a116100d35780631e83409a146101f157806323b872dd146102265780632471bc3e14610269578063313ce567146102a557610100565b806306fdde0314610105578063095ea7b3146101825780630f0af57f146101cf57806318160ddd146101e9575b600080fd5b61010d610448565b6040805160208082528351818301528351919283929083019185019080838360005b8381101561014757818101518382015260200161012f565b50505050905090810190601f1680156101745780820380516001836020036101000a031916815260200191505b509250505060405180910390f35b6101bb6004803603604081101561019857600080fd5b5073ffffffffffffffffffffffffffffffffffffffff81351690602001356104fc565b604080519115158252519081900360200190f35b6101d761051a565b60408051918252519081900360200190f35b6101d7610520565b6102246004803603602081101561020757600080fd5b503573ffffffffffffffffffffffffffffffffffffffff16610526565b005b6101bb6004803603606081101561023c57600080fd5b5073ffffffffffffffffffffffffffffffffffffffff813581169160208101359091169060400135610693565b6101bb6004803603604081101561027f57600080fd5b50803573ffffffffffffffffffffffffffffffffffffffff16906020013560ff16610734565b6102ad610801565b6040805160ff9092168252519081900360200190f35b6101bb600480360360408110156102d957600080fd5b5073ffffffffffffffffffffffffffffffffffffffff813516906020013561080a565b6101d76004803603602081101561031257600080fd5b503573ffffffffffffffffffffffffffffffffffffffff16610865565b61010d61088d565b61033f61090c565b6040805173ffffffffffffffffffffffffffffffffffffffff9092168252519081900360200190f35b6101bb6004803603604081101561037e57600080fd5b5073ffffffffffffffffffffffffffffffffffffffff813516906020013561092d565b6101bb600480360360408110156103b757600080fd5b5073ffffffffffffffffffffffffffffffffffffffff81351690602001356109a2565b6101bb600480360360208110156103f057600080fd5b503573ffffffffffffffffffffffffffffffffffffffff166109b6565b6101d76004803603604081101561042357600080fd5b5073ffffffffffffffffffffffffffffffffffffffff813581169160200135166109cb565b60038054604080516020601f60027fffffffffffffffffffffffffffffffffffffffffffffffffffffffffffffffff6101006001881615020190951694909404938401819004810282018101909252828152606093909290918301828280156104f25780601f106104c7576101008083540402835291602001916104f2565b820191906000526020600020905b8154815290600101906020018083116104d557829003601f168201915b5050505050905090565b6000610510610509610a03565b8484610a07565b5060015b92915050565b60065481565b60025490565b73ffffffffffffffffffffffffffffffffffffffff8116600090815260076020526040902054819060049060ff16156105c057604080517f08c379a000000000000000000000000000000000000000000000000000000000815260206004820152600e60248201527f4552525f4d554c54495f4d494e54000000000000000000000000000000000000604482015290519081900360640190fd5b73ffffffffffffffffffffffffffffffffffffffff8316600090815260076020526040902080547fffffffffffffffffffffffffffffffffffffffffffffffffffffffffffffff00166001179055610619836064610b4e565b6106238282610734565b61068e57604080517f08c379a000000000000000000000000000000000000000000000000000000000815260206004820152600e60248201527f4552525f4d494e5f535441545553000000000000000000000000000000000000604482015290519081900360640190fd5b505050565b60006106a0848484610c7f565b61072a846106ac610a03565b6107258560405180606001604052806028815260200161102b6028913973ffffffffffffffffffffffffffffffffffffffff8a166000908152600160205260408120906106f7610a03565b73ffffffffffffffffffffffffffffffffffffffff1681526020810191909152604001600020549190610e4f565b610a07565b5060019392505050565b600554604080517fd865a5c800000000000000000000000000000000000000000000000000000000815273ffffffffffffffffffffffffffffffffffffffff858116600483015291516000938493610100909104169163d865a5c8916024808301926020929190829003018186803b1580156107af57600080fd5b505afa1580156107c3573d6000803e3d6000fd5b505050506040513d60208110156107d957600080fd5b5051905060006107f4828560088111156107ef57fe5b610f00565b6006541195945050505050565b60055460ff1690565b6000610510610817610a03565b846107258560016000610828610a03565b73ffffffffffffffffffffffffffffffffffffffff908116825260208083019390935260409182016000908120918c168152925290205490610f44565b73ffffffffffffffffffffffffffffffffffffffff1660009081526020819052604090205490565b60048054604080516020601f60027fffffffffffffffffffffffffffffffffffffffffffffffffffffffffffffffff6101006001881615020190951694909404938401819004810282018101909252828152606093909290918301828280156104f25780601f106104c7576101008083540402835291602001916104f2565b600554610100900473ffffffffffffffffffffffffffffffffffffffff1681565b600061051061093a610a03565b846107258560405180606001604052806025815260200161109c6025913960016000610964610a03565b73ffffffffffffffffffffffffffffffffffffffff908116825260208083019390935260409182016000908120918d16815292529020549190610e4f565b60006105106109af610a03565b8484610c7f565b60076020526000908152604090205460ff1681565b73ffffffffffffffffffffffffffffffffffffffff918216600090815260016020908152604080832093909416825291909152205490565b3390565b73ffffffffffffffffffffffffffffffffffffffff8316610a73576040517f08c379a00000000000000000000000000000000000000000000000000000000081526004018080602001828103825260248152602001806110786024913960400191505060405180910390fd5b73ffffffffffffffffffffffffffffffffffffffff8216610adf576040517f08c379a0000000000000000000000000000000000000000000000000000000008152600401808060200182810382526022815260200180610fe36022913960400191505060405180910390fd5b73ffffffffffffffffffffffffffffffffffffffff808416600081815260016020908152604080832094871680845294825291829020859055815185815291517f8c5be1e5ebec7d5bd14f71427d1e84f3dd0314c0f7b2291e5b200ac8c7c3b9259281900390910190a3505050565b73ffffffffffffffffffffffffffffffffffffffff8216610bd057604080517f08c379a000000000000000000000000000000000000000000000000000000000815260206004820152601f60248201527f45524332303a206d696e7420746f20746865207a65726f206164647265737300604482015290519081900360640190fd5b610bdc6000838361068e565b600254610be99082610f44565b60025573ffffffffffffffffffffffffffffffffffffffff8216600090815260208190526040902054610c1c9082610f44565b73ffffffffffffffffffffffffffffffffffffffff83166000818152602081815260408083209490945583518581529351929391927fddf252ad1be2c89b69c2b068fc378daa952ba7f163c4a11628f55a4df523b3ef9281900390910190a35050565b73ffffffffffffffffffffffffffffffffffffffff8316610ceb576040517f08c379a00000000000000000000000000000000000000000000000000000000081526004018080602001828103825260258152602001806110536025913960400191505060405180910390fd5b73ffffffffffffffffffffffffffffffffffffffff8216610d57576040517f08c379a0000000000000000000000000000000000000000000000000000000008152600401808060200182810382526023815260200180610fc06023913960400191505060405180910390fd5b610d6283838361068e565b610dac816040518060600160405280602681526020016110056026913973ffffffffffffffffffffffffffffffffffffffff86166000908152602081905260409020549190610e4f565b73ffffffffffffffffffffffffffffffffffffffff8085166000908152602081905260408082209390935590841681522054610de89082610f44565b73ffffffffffffffffffffffffffffffffffffffff8084166000818152602081815260409182902094909455805185815290519193928716927fddf252ad1be2c89b69c2b068fc378daa952ba7f163c4a11628f55a4df523b3ef92918290030190a3505050565b60008184841115610ef8576040517f08c379a00000000000000000000000000000000000000000000000000000000081526004018080602001828103825283818151815260200191508051906020019080838360005b83811015610ebd578181015183820152602001610ea5565b50505050905090810190601f168015610eea5780820380516001836020036101000a031916815260200191505b509250505060405180910390fd5b505050900390565b600081610f0f57506000610514565b5063ffffffff60207fffffffffffffffffffffffffffffffffffffffffffffffffffffffffffffffff83010283901c16610514565b600082820183811015610fb857604080517f08c379a000000000000000000000000000000000000000000000000000000000815260206004820152601b60248201527f536166654d6174683a206164646974696f6e206f766572666c6f770000000000604482015290519081900360640190fd5b939250505056fe45524332303a207472616e7366657220746f20746865207a65726f206164647265737345524332303a20617070726f766520746f20746865207a65726f206164647265737345524332303a207472616e7366657220616d6f756e7420657863656564732062616c616e636545524332303a207472616e7366657220616d6f756e74206578636565647320616c6c6f77616e636545524332303a207472616e736665722066726f6d20746865207a65726f206164647265737345524332303a20617070726f76652066726f6d20746865207a65726f206164647265737345524332303a2064656372656173656420616c6c6f77616e63652062656c6f77207a65726fa2646970667358221220add97e0ab15959f54ec812c80344ebdb3b82b642e24bb813cd5c13d41cbbfe7a64736f6c634300060c0033",
  "linkReferences": {},
  "deployedLinkReferences": {}
}