{
  "_format": "hh-sol-artifact-1",
  "contractName": "PrestigeTest",
  "sourceName": "contracts/test/PrestigeTest.sol",
  "abi": [
    {
      "anonymous": false,
      "inputs": [
        {
          "indexed": false,
          "internalType": "address",
          "name": "account",
          "type": "address"
        },
        {
          "indexed": false,
          "internalType": "enum IPrestige.Status[2]",
          "name": "change",
          "type": "uint8[2]"
        }
      ],
      "name": "StatusChange",
      "type": "event"
    },
    {
      "inputs": [
        {
          "internalType": "address",
          "name": "account",
          "type": "address"
        },
        {
          "internalType": "enum IPrestige.Status",
          "name": "newStatus",
          "type": "uint8"
        },
        {
          "internalType": "bytes",
          "name": "data",
          "type": "bytes"
        }
      ],
      "name": "setStatus",
      "outputs": [],
      "stateMutability": "nonpayable",
      "type": "function"
    },
    {
      "inputs": [
        {
          "internalType": "address",
          "name": "account",
          "type": "address"
        }
      ],
      "name": "statusReport",
      "outputs": [
        {
          "internalType": "uint256",
          "name": "",
          "type": "uint256"
        }
      ],
      "stateMutability": "view",
      "type": "function"
    },
    {
      "inputs": [
        {
          "internalType": "address",
          "name": "",
          "type": "address"
        }
      ],
      "name": "statuses",
      "outputs": [
        {
          "internalType": "uint256",
          "name": "",
          "type": "uint256"
        }
      ],
      "stateMutability": "view",
      "type": "function"
    }
  ],
  "bytecode": "0x608060405234801561001057600080fd5b506104c7806100206000396000f3fe608060405234801561001057600080fd5b50600436106100415760003560e01c80638a5c263014610046578063af11c1f014610113578063d865a5c814610158575b600080fd5b6101116004803603606081101561005c57600080fd5b73ffffffffffffffffffffffffffffffffffffffff8235169160ff6020820135169181019060608101604082013564010000000081111561009c57600080fd5b8201836020820111156100ae57600080fd5b803590602001918460018302840111640100000000831117156100d057600080fd5b91908080601f01602080910402602001604051908101604052809392919081815260200183838082843760009201919091525092955061018b945050505050565b005b6101466004803603602081101561012957600080fd5b503573ffffffffffffffffffffffffffffffffffffffff16610336565b60408051918252519081900360200190f35b6101466004803603602081101561016e57600080fd5b503573ffffffffffffffffffffffffffffffffffffffff16610348565b600082600881111561019957fe5b141561020657604080517f08c379a000000000000000000000000000000000000000000000000000000000815260206004820152600e60248201527f4552525f4e494c5f535441545553000000000000000000000000000000000000604482015290519081900360640190fd5b600061021184610348565b9050600061021f82436103a2565b90506102438282600881111561023157fe5b86600881111561023d57fe5b436103f1565b73ffffffffffffffffffffffffffffffffffffffff861660009081526020819052604090205561027585828686610424565b7fe765a8fc6bca3a0cb57e76753ddbb51c450e9aac1a626da74a8119beb9b6d0798560405180604001604052808460088111156102ae57fe5b60088111156102b957fe5b81526020018760088111156102ca57fe5b60088111156102d557fe5b815250604051808373ffffffffffffffffffffffffffffffffffffffff16815260200182600260200280838360005b8381101561031c578181015183820152602001610304565b505050509050019250505060405180910390a15050505050565b60006020819052908152604090205481565b73ffffffffffffffffffffffffffffffffffffffff811660009081526020819052604081205480610399577fffffffffffffffffffffffffffffffffffffffffffffffffffffffffffffffff61039b565b805b9392505050565b6000805b60088110156103e5578263ffffffff168160200285901c63ffffffff1611156103dd578060088111156103d557fe5b9150506103eb565b6001016103a6565b50600890505b92915050565b60008383101561040c57610405858461042a565b945061041b565b6104188585858561045a565b94505b50929392505050565b50505050565b7fffffffffffffffffffffffffffffffffffffffffffffffffffffffffffffffff60209190910290811c901b1790565b6000835b83811015610487576020810283811b63ffffffff90911b1996909616959095179460010161045e565b509394935050505056fea2646970667358221220f84e7f68e69331b99d78504a90e549f165cc78712c7092b1652a0dddb040fc2764736f6c634300060c0033",
  "linkReferences": {},
  "deployedLinkReferences": {}
}