{
  "_format": "hh-sol-artifact-1",
  "contractName": "VerifyTier",
  "sourceName": "contracts/tier/VerifyTier.sol",
  "abi": [
    {
      "inputs": [
        {
          "internalType": "contract Verify",
          "name": "verify_",
          "type": "address"
        }
      ],
      "stateMutability": "nonpayable",
      "type": "constructor"
    },
    {
      "anonymous": false,
      "inputs": [
        {
          "indexed": true,
          "internalType": "address",
          "name": "account",
          "type": "address"
        },
        {
          "indexed": true,
          "internalType": "enum ITier.Tier",
          "name": "startTier",
          "type": "uint8"
        },
        {
          "indexed": true,
          "internalType": "enum ITier.Tier",
          "name": "endTier",
          "type": "uint8"
        }
      ],
      "name": "TierChange",
      "type": "event"
    },
    {
      "inputs": [
        {
          "internalType": "address",
          "name": "account_",
          "type": "address"
        }
      ],
      "name": "report",
      "outputs": [
        {
          "internalType": "uint256",
          "name": "",
          "type": "uint256"
        }
      ],
      "stateMutability": "view",
      "type": "function"
    },
    {
      "inputs": [
        {
          "internalType": "address",
          "name": "",
          "type": "address"
        },
        {
          "internalType": "enum ITier.Tier",
          "name": "",
          "type": "uint8"
        },
        {
          "internalType": "bytes",
          "name": "",
          "type": "bytes"
        }
      ],
      "name": "setTier",
      "outputs": [],
      "stateMutability": "nonpayable",
      "type": "function"
    },
    {
      "inputs": [],
      "name": "verify",
      "outputs": [
        {
          "internalType": "contract Verify",
          "name": "",
          "type": "address"
        }
      ],
      "stateMutability": "view",
      "type": "function"
    }
  ],
  "bytecode": "0x60a060405234801561001057600080fd5b5060405161057d38038061057d83398101604081905261002f91610044565b60601b6001600160601b031916608052610072565b600060208284031215610055578081fd5b81516001600160a01b038116811461006b578182fd5b9392505050565b60805160601c6104e96100946000398061011b528061020352506104e96000f3fe608060405234801561001057600080fd5b50600436106100415760003560e01c806352dab69d14610046578063e053ea311461005b578063fc735e9914610084575b600080fd5b6100596100543660046102c9565b610099565b005b61006e61006936600461028e565b6100d4565b60405161007b9190610425565b60405180910390f35b61008c610201565b60405161007b91906103cd565b6040517f08c379a00000000000000000000000000000000000000000000000000000000081526004016100cb906103ee565b60405180910390fd5b60006100de610277565b6040517f31e658a500000000000000000000000000000000000000000000000000000000815273ffffffffffffffffffffffffffffffffffffffff7f000000000000000000000000000000000000000000000000000000000000000016906331e658a5906101509086906004016103cd565b604080518083038186803b15801561016757600080fd5b505afa15801561017b573d6000803e3d6000fd5b505050506040513d601f19601f8201168201806040525081019061019f9190610380565b90506002815160038111156101b057fe5b14156101d7576101cf600060016008846020015163ffffffff16610225565b9150506101fc565b7fffffffffffffffffffffffffffffffffffffffffffffffffffffffffffffffff9150505b919050565b7f000000000000000000000000000000000000000000000000000000000000000081565b600080600085600881111561023657fe5b90505b84600881111561024557fe5b81101561026c5763ffffffff6020820290811b199790971684881b17969150600101610239565b509495945050505050565b604080518082019091526000808252602082015290565b60006020828403121561029f578081fd5b813573ffffffffffffffffffffffffffffffffffffffff811681146102c2578182fd5b9392505050565b6000806000606084860312156102dd578182fd5b833573ffffffffffffffffffffffffffffffffffffffff81168114610300578283fd5b92506020840135610310816104a3565b9150604084013567ffffffffffffffff81111561032b578182fd5b8401601f8101861361033b578182fd5b803561034e61034982610455565b61042e565b818152876020838501011115610362578384fd5b610373826020830160208601610497565b8093505050509250925092565b600060408284031215610391578081fd5b61039b604061042e565b8251600481106103a9578283fd5b8152602083015163ffffffff811681146103c1578283fd5b60208201529392505050565b73ffffffffffffffffffffffffffffffffffffffff91909116815260200190565b60208082526008908201527f5345545f54494552000000000000000000000000000000000000000000000000604082015260600190565b90815260200190565b60405181810167ffffffffffffffff8111828210171561044d57600080fd5b604052919050565b600067ffffffffffffffff82111561046b578081fd5b50601f017fffffffffffffffffffffffffffffffffffffffffffffffffffffffffffffffe01660200190565b82818337506000910152565b600981106104b057600080fd5b5056fea26469706673582212201af19421507659159a1f8d978c1ebdaac3de3f1142f05e98528bcabfbd17ca1d64736f6c634300060c0033",
  "linkReferences": {},
  "deployedLinkReferences": {}
}