{
  "_format": "hh-sol-artifact-1",
  "contractName": "PrestigeUtil",
  "sourceName": "contracts/tv-prestige/contracts/PrestigeUtil.sol",
  "abi": [
    {
      "inputs": [],
      "name": "UNINITIALIZED",
      "outputs": [
        {
          "internalType": "uint256",
          "name": "",
          "type": "uint256"
        }
      ],
      "stateMutability": "view",
      "type": "function"
    }
  ],
  "bytecode": "0x60aa610024600b82828239805160001a607314601757fe5b30600052607381538281f3fe730000000000000000000000000000000000000000301460806040526004361060335760003560e01c806381e45d9a146038575b600080fd5b603e6050565b60408051918252519081900360200190f35b7fffffffffffffffffffffffffffffffffffffffffffffffffffffffffffffffff8156fea2646970667358221220fc0e9eeed5dbaeb49af077227df3b609be0c3f9611796658c7927917a6c130f364736f6c634300060c0033",
  "linkReferences": {},
  "deployedLinkReferences": {}
}