{
  "_format": "hh-sol-artifact-1",
  "contractName": "ESPFactory",
  "sourceName": "contracts/configurable-rights-pool/contracts/templates/ESPFactory.sol",
  "abi": [
    {
      "anonymous": false,
      "inputs": [
        {
          "indexed": true,
          "internalType": "address",
          "name": "caller",
          "type": "address"
        },
        {
          "indexed": true,
          "internalType": "address",
          "name": "pool",
          "type": "address"
        }
      ],
      "name": "LogNewEsp",
      "type": "event"
    },
    {
      "inputs": [
        {
          "internalType": "address",
          "name": "addr",
          "type": "address"
        }
      ],
      "name": "isEsp",
      "outputs": [
        {
          "internalType": "bool",
          "name": "",
          "type": "bool"
        }
      ],
      "stateMutability": "view",
      "type": "function"
    },
    {
      "inputs": [
        {
          "internalType": "address",
          "name": "factoryAddress",
          "type": "address"
        },
        {
          "components": [
            {
              "internalType": "string",
              "name": "poolTokenSymbol",
              "type": "string"
            },
            {
              "internalType": "string",
              "name": "poolTokenName",
              "type": "string"
            },
            {
              "internalType": "address[]",
              "name": "constituentTokens",
              "type": "address[]"
            },
            {
              "internalType": "uint256[]",
              "name": "tokenBalances",
              "type": "uint256[]"
            },
            {
              "internalType": "uint256[]",
              "name": "tokenWeights",
              "type": "uint256[]"
            },
            {
              "internalType": "uint256",
              "name": "swapFee",
              "type": "uint256"
            }
          ],
          "internalType": "struct ConfigurableRightsPool.PoolParams",
          "name": "poolParams",
          "type": "tuple"
        },
        {
          "components": [
            {
              "internalType": "bool",
              "name": "canPauseSwapping",
              "type": "bool"
            },
            {
              "internalType": "bool",
              "name": "canChangeSwapFee",
              "type": "bool"
            },
            {
              "internalType": "bool",
              "name": "canChangeWeights",
              "type": "bool"
            },
            {
              "internalType": "bool",
              "name": "canAddRemoveTokens",
              "type": "bool"
            },
            {
              "internalType": "bool",
              "name": "canWhitelistLPs",
              "type": "bool"
            },
            {
              "internalType": "bool",
              "name": "canChangeCap",
              "type": "bool"
            }
          ],
          "internalType": "struct RightsManager.Rights",
          "name": "rights",
          "type": "tuple"
        }
      ],
      "name": "newEsp",
      "outputs": [
        {
          "internalType": "contract ElasticSupplyPool",
          "name": "",
          "type": "address"
        }
      ],
      "stateMutability": "nonpayable",
      "type": "function"
    }
  ],
  "bytecode": "0x608060405234801561001057600080fd5b50617cd7806100206000396000f3fe60806040523480156200001157600080fd5b50600436106200003a5760003560e01c8063cd222a3c146200003f578063d723e9a8146200006e575b600080fd5b62000056620000503660046200036d565b62000094565b604051620000659190620006f1565b60405180910390f35b620000856200007f36600462000392565b620000bf565b6040516200006591906200054f565b73ffffffffffffffffffffffffffffffffffffffff1660009081526020819052604090205460ff1690565b60006002620000d26040850185620007a1565b9050101562000118576040517f08c379a00000000000000000000000000000000000000000000000000000000081526004016200010f906200076a565b60405180910390fd5b620001276040840184620007a1565b9050620001386060850185620007a1565b90501462000174576040517f08c379a00000000000000000000000000000000000000000000000000000000081526004016200010f9062000733565b620001836040840184620007a1565b9050620001946080850185620007a1565b905014620001d0576040517f08c379a00000000000000000000000000000000000000000000000000000000081526004016200010f90620006fc565b6000848484604051620001e3906200031c565b620001f19392919062000570565b604051809103906000f0801580156200020e573d6000803e3d6000fd5b5060405190915073ffffffffffffffffffffffffffffffffffffffff82169033907f392509ecc4ad5b92397a030038745a7bc8cddca4eb9f6e658895d3455a18b04b90600090a373ffffffffffffffffffffffffffffffffffffffff81166000818152602081905260409081902080547fffffffffffffffffffffffffffffffffffffffffffffffffffffffffffffff00166001179055517f92eefe9b0000000000000000000000000000000000000000000000000000000081526392eefe9b90620002df9033906004016200054f565b600060405180830381600087803b158015620002fa57600080fd5b505af11580156200030f573d6000803e3d6000fd5b5092979650505050505050565b6173a780620008fb83390190565b803573ffffffffffffffffffffffffffffffffffffffff811681146200034f57600080fd5b92915050565b600060c0828403121562000367578081fd5b50919050565b6000602082840312156200037f578081fd5b6200038b83836200032a565b9392505050565b60008060006101008486031215620003a8578182fd5b833573ffffffffffffffffffffffffffffffffffffffff81168114620003cc578283fd5b9250602084013567ffffffffffffffff811115620003e8578283fd5b620003f68682870162000355565b92505062000408856040860162000355565b90509250925092565b73ffffffffffffffffffffffffffffffffffffffff16815260200190565b60008284527f07ffffffffffffffffffffffffffffffffffffffffffffffffffffffffffffff83111562000461578081fd5b6020830280836020870137939093016020019283525090919050565b600082845282826020860137806020848601015260207fffffffffffffffffffffffffffffffffffffffffffffffffffffffffffffffe0601f85011685010190509392505050565b8035620004d281620008e8565b151582526020810135620004e681620008e8565b151560208301526040810135620004fd81620008e8565b1515604083015260608101356200051481620008e8565b1515606083015260808101356200052b81620008e8565b1515608083015260a08101356200054281620008e8565b80151560a0840152505050565b73ffffffffffffffffffffffffffffffffffffffff91909116815260200190565b600061010073ffffffffffffffffffffffffffffffffffffffff8616835260208181850152620005a1868762000882565b60c084870152620005b86101c0870182846200047d565b93505050620005ca8187018762000882565b7fffffffffffffffffffffffffffffffffffffffffffffffffffffffffffffff008087860301610120880152620006038583856200047d565b94506200061460408a018a62000819565b9350915080878603016101408801528462000630848762000810565b929550869290505b838310156200066d578486016200065b8262000655838a6200032a565b62000411565b91508096505060018301925062000638565b6200067c60608b018b62000819565b965094508188820301610160890152620006988187876200042f565b955050620006aa60808a018a62000819565b9450925080878603016101808801525050620006c88383836200042f565b60a08801356101a08701529350620006e992505060408401905084620004c5565b949350505050565b901515815260200190565b6020808252601a908201527f4552525f53544152545f574549474854535f4d49534d41544348000000000000604082015260600190565b6020808252601b908201527f4552525f53544152545f42414c414e4345535f4d49534d415443480000000000604082015260600190565b60208082526012908201527f4552525f544f4f5f4645575f544f4b454e530000000000000000000000000000604082015260600190565b60008083357fffffffffffffffffffffffffffffffffffffffffffffffffffffffffffffffe1843603018112620007d6578283fd5b83018035915067ffffffffffffffff821115620007f1578283fd5b60209081019250810236038213156200080957600080fd5b9250929050565b90815260200190565b60008083357fffffffffffffffffffffffffffffffffffffffffffffffffffffffffffffffe18436030181126200084e578283fd5b830160208101925035905067ffffffffffffffff8111156200086f57600080fd5b6020810236038313156200080957600080fd5b60008083357fffffffffffffffffffffffffffffffffffffffffffffffffffffffffffffffe1843603018112620008b7578283fd5b830160208101925035905067ffffffffffffffff811115620008d857600080fd5b8036038313156200080957600080fd5b8015158114620008f757600080fd5b5056fe60806040523480156200001157600080fd5b50604051620073a7380380620073a7833981016040819052620000349162000701565b8282828160000151826020015181600390805190602001906200005992919062000366565b5080516200006f90600490602084019062000366565b5050600580546001600160a01b03191633179055506001600655620f4240670de0b6b3a7640000048260a001511015620000c65760405162461bcd60e51b8152600401620000bd9062000961565b60405180910390fd5b60a082015167016345785d8a00001015620000f55760405162461bcd60e51b8152600401620000bd9062000961565b81604001515182606001515114620001215760405162461bcd60e51b8152600401620000bd90620008fe565b816040015151826080015151146200014d5760405162461bcd60e51b8152600401620000bd9062000890565b60028260400151511015620001765760405162461bcd60e51b8152600401620000bd9062000935565b600882604001515111156200019f5760405162461bcd60e51b8152600401620000bd9062000998565b60408083015190516377d4434960e01b815273__$5e2b30ced2d26d67b7a543a19b8b0a2fb2$__916377d4434991620001dc919060040162000841565b60006040518083038186803b158015620001f557600080fd5b505af41580156200020a573d6000803e3d6000fd5b5050600780546001600160a01b0319166001600160a01b03871617905550508051600980546020808501516040808701516060880151608089015160a08a015160ff199097169815159890981761ff001916610100941515949094029390931762ff0000191662010000911515919091021763ff00000019166301000000921515929092029190911760ff60201b1916640100000000951515959095029490941760ff60281b1916650100000000009215159290920291909117909155908301518051620002dd926013920190620003eb565b5060608201518051620002f99160149160209091019062000451565b5060a082015160125562015f906015556101f4601655608082015180516200032a91600c9160209091019062000451565b50506000600a55505060001960185560408101516200035d5760405162461bcd60e51b8152600401620000bd90620008c7565b50505062000a2f565b828054600181600116156101000203166002900490600052602060002090601f016020900481019282601f10620003a957805160ff1916838001178555620003d9565b82800160010185558215620003d9579182015b82811115620003d9578251825591602001919060010190620003bc565b50620003e79291506200048e565b5090565b82805482825590600052602060002090810192821562000443579160200282015b828111156200044357825182546001600160a01b0319166001600160a01b039091161782556020909201916001909101906200040c565b50620003e7929150620004a5565b828054828255906000526020600020908101928215620003d95791602002820182811115620003d9578251825591602001919060010190620003bc565b5b80821115620003e757600081556001016200048f565b5b80821115620003e75780546001600160a01b0319168155600101620004a6565b600082601f830112620004d7578081fd5b8151620004ee620004e882620009f6565b620009cf565b8181529150602080830190848101818402860182018710156200051057600080fd5b6000805b85811015620005475782516001600160a01b038116811462000534578283fd5b8552938301939183019160010162000514565b50505050505092915050565b600082601f83011262000564578081fd5b815162000575620004e882620009f6565b8181529150602080830190848101818402860182018710156200059757600080fd5b60005b84811015620005b8578151845292820192908201906001016200059a565b505050505092915050565b80518015158114620005d457600080fd5b92915050565b600082601f830112620005eb578081fd5b81516001600160401b0381111562000601578182fd5b602062000617601f8301601f19168201620009cf565b925081835284818386010111156200062e57600080fd5b60005b828110156200064e57848101820151848201830152810162000631565b82811115620006605760008284860101525b50505092915050565b600060c082840312156200067b578081fd5b6200068760c0620009cf565b9050620006958383620005c3565b8152620006a68360208401620005c3565b6020820152620006ba8360408401620005c3565b6040820152620006ce8360608401620005c3565b6060820152620006e28360808401620005c3565b6080820152620006f68360a08401620005c3565b60a082015292915050565b6000806000610100848603121562000717578283fd5b8351620007248162000a16565b60208501519093506001600160401b038082111562000741578384fd5b9085019060c0828803121562000755578384fd5b6200076160c0620009cf565b82518281111562000770578586fd5b6200077e89828601620005da565b82525060208301518281111562000793578586fd5b620007a189828601620005da565b602083015250604083015182811115620007b9578586fd5b620007c789828601620004c6565b604083015250606083015182811115620007df578586fd5b620007ed8982860162000553565b60608301525060808301518281111562000805578586fd5b620008138982860162000553565b60808301525060a083015160a082015280945050505062000838856040860162000669565b90509250925092565b6020808252825182820181905260009190848201906040850190845b81811015620008845783516001600160a01b0316835292840192918401916001016200085d565b50909695505050505050565b6020808252601a908201527f4552525f53544152545f574549474854535f4d49534d41544348000000000000604082015260600190565b6020808252601c908201527f4552525f4e4f545f434f4e464947555241424c455f5745494748545300000000604082015260600190565b6020808252601b908201527f4552525f53544152545f42414c414e4345535f4d49534d415443480000000000604082015260600190565b6020808252601290820152714552525f544f4f5f4645575f544f4b454e5360701b604082015260600190565b60208082526014908201527f4552525f494e56414c49445f535741505f464545000000000000000000000000604082015260600190565b60208082526013908201527f4552525f544f4f5f4d414e595f544f4b454e5300000000000000000000000000604082015260600190565b6040518181016001600160401b0381118282101715620009ee57600080fd5b604052919050565b60006001600160401b0382111562000a0c578081fd5b5060209081020190565b6001600160a01b038116811462000a2c57600080fd5b50565b6169688062000a3f6000396000f3fe608060405234801561001057600080fd5b50600436106103785760003560e01c806370a08231116101d3578063b02f0b7311610104578063dd62ed3e116100a2578063e7f1a5541161007c578063e7f1a55414610700578063e854f53d14610708578063f226b52814610710578063fde924f71461071857610378565b8063dd62ed3e146106d2578063e211b875146106e5578063e2762d4b146106ed57610378565b8063c3391d27116100de578063c3391d2714610680578063c42bd05a14610693578063c83a1c2d146106ac578063d73dd623146106bf57610378565b8063b02f0b731461065d578063b64ef17b14610670578063c275d81b1461067857610378565b80639776e94b116101715780639d829c2b1161014b5780639d829c2b14610632578063a3f4df7e1461063a578063a835a0de14610642578063a9059cbb1461064a57610378565b80639776e94b14610602578063980e8db6146106105780639a82417e1461062a57610378565b80638259e6a0116101ad5780638259e6a0146105c157806392eefe9b146105d4578063948d8ce6146105e757806395d89b41146105fa57610378565b806370a082311461059357806374983a0d146105a6578063806c6f87146105ae57610378565b806334e19907116102ad5780634f69c0d41161024b5780635db34277116102255780635db34277146105475780635fa7b5841461055a578063661884631461056d5780636d06dfa01461058057610378565b80634f69c0d41461050b57806355c32a231461051e5780635a8342d81461053157610378565b806347786d371161028757806347786d37146104bf57806349b59552146104d25780634ba57882146104e55780634c20d209146104f857610378565b806334e199071461048657806337c6f4d91461049957806346ab38f1146104ac57610378565b806318160ddd1161031a578063246bc19b116102f4578063246bc19b1461044e5780632e0f2625146104615780633018205f14610476578063313ce5671461047e57610378565b806318160ddd14610420578063220eb7601461042857806323b872dd1461043b57610378565b8063095ea7b311610356578063095ea7b3146103d05780630a165940146103f05780630ce27925146104055780630f93ab471461040d57610378565b806302c967481461037d57806306fdde03146103a6578063095dcccc146103bb575b600080fd5b61039061038b366004615b8d565b610720565b60405161039d919061688b565b60405180910390f35b6103ae61098d565b60405161039d919061616a565b6103ce6103c9366004615b62565b610a41565b005b6103e36103de366004615b62565b610a88565b60405161039d9190615f7b565b6103f8610b00565b60405161039d9190615e73565b610390610b1c565b6103ce61041b366004615ace565b610b22565b6103906113be565b6103ce610436366004615d57565b6113c4565b6103e3610449366004615b22565b611409565b6103ce61045c366004615c5a565b6115dc565b610469611722565b60405161039d91906168a2565b6103f8611727565b610469611743565b6103ce610494366004615d57565b611748565b6103e36104a7366004615d38565b61196f565b6103906104ba366004615b8d565b611a1d565b6103ce6104cd366004615d57565b611c71565b6103ce6104e0366004615ce4565b611e68565b6103ce6104f3366004615d57565b612050565b6103ce610506366004615b8d565b612092565b6103ce610519366004615d87565b6123d5565b6103ce61052c366004615b62565b612974565b6105396129b7565b60405161039d929190616894565b610390610555366004615b8d565b6129c0565b6103ce610568366004615ace565b612c39565b6103e361057b366004615b62565b612efb565b61039061058e366004615b8d565b61301b565b6103906105a1366004615ace565b613294565b6103f86132bc565b6103e36105bc366004615ace565b6132d4565b6103ce6105cf366004615d57565b613338565b6103ce6105e2366004615ace565b613448565b6103906105f5366004615ace565b613574565b6103ae6136a8565b6103ce61045c366004615b62565b610618613727565b60405161039d96959493929190615f86565b6103f8613763565b6103f861377b565b6103ae613793565b6103906137cc565b6103e3610658366004615b62565b6137d2565b6103ce61066b366004615d87565b613835565b6103f8613d65565b6103ce613d81565b6103ce61068e366004615e42565b6116f0565b61069b613fc2565b60405161039d959493929190615eec565b6103ce6106ba366004615ace565b614007565b6103e36106cd366004615b62565b6141c0565b6103906106e0366004615aea565b614260565b6103ce614298565b6103ce6106fb366004615ace565b61435b565b61039061456f565b610390614575565b61039061457b565b6103e3614582565b60405160009033907fffffffff000000000000000000000000000000000000000000000000000000008335169061075a9084903690615fb6565b60405180910390a2600260065414156107a8576040517f08c379a000000000000000000000000000000000000000000000000000000000815260040161079f9061646f565b60405180910390fd5b600260065560085473ffffffffffffffffffffffffffffffffffffffff166107fc576040517f08c379a000000000000000000000000000000000000000000000000000000000815260040161079f90616393565b6008546040517f724a2d53000000000000000000000000000000000000000000000000000000008152600091829173__$5e2b30ced2d26d67b7a543a19b8b0a2fb2$__9163724a2d539161087391309173ffffffffffffffffffffffffffffffffffffffff909116908b908b908b90600401616071565b604080518083038186803b15801561088a57600080fd5b505af415801561089e573d6000803e3d6000fd5b505050506040513d601f19601f820116820180604052508101906108c29190615dd1565b9150915080925060006108d584846146b5565b90508673ffffffffffffffffffffffffffffffffffffffff163373ffffffffffffffffffffffffffffffffffffffff167fc62fc35ac75e3bff532648e2859a3e1694002cfa357614ae8e034df7f83db5e988604051610934919061688b565b60405180910390a361094633856129ad565b61094f816113fd565b6007546109729073ffffffffffffffffffffffffffffffffffffffff1684610a7a565b61097d873388614708565b5050505b60016006559392505050565b60048054604080516020601f60027fffffffffffffffffffffffffffffffffffffffffffffffffffffffffffffffff610100600188161502019095169490940493840181900481028201810190925282815260609390929091830182828015610a375780601f10610a0c57610100808354040283529160200191610a37565b820191906000526020600020905b815481529060010190602001808311610a1a57829003601f168201915b5050505050905090565b333014610a7a576040517f08c379a000000000000000000000000000000000000000000000000000000000815260040161079f906161db565b610a848282614a11565b5050565b33600081815260026020908152604080832073ffffffffffffffffffffffffffffffffffffffff8716808552925280832085905551919290917f8c5be1e5ebec7d5bd14f71427d1e84f3dd0314c0f7b2291e5b200ac8c7c3b92590610aee90869061688b565b60405180910390a35060015b92915050565b60075473ffffffffffffffffffffffffffffffffffffffff1681565b60185481565b3373ffffffffffffffffffffffffffffffffffffffff166000357fffffffff00000000000000000000000000000000000000000000000000000000167bffffffffffffffffffffffffffffffffffffffffffffffffffffffff1916600036604051610b8e929190615fb6565b60405180910390a260026006541415610bd3576040517f08c379a000000000000000000000000000000000000000000000000000000000815260040161079f9061646f565b600260065560085473ffffffffffffffffffffffffffffffffffffffff16610c27576040517f08c379a000000000000000000000000000000000000000000000000000000000815260040161079f90616393565b600a5415610c61576040517f08c379a000000000000000000000000000000000000000000000000000000000815260040161079f906167df565b6008546040517f2f37b62400000000000000000000000000000000000000000000000000000000815273ffffffffffffffffffffffffffffffffffffffff90911690632f37b62490610cb7908490600401615e73565b60206040518083038186803b158015610ccf57600080fd5b505afa158015610ce3573d6000803e3d6000fd5b505050506040513d601f19601f82011682018060405250810190610d079190615d00565b610d3d576040517f08c379a000000000000000000000000000000000000000000000000000000000815260040161079f906164a6565b6008546040517ff8b2cb4f00000000000000000000000000000000000000000000000000000000815260009173ffffffffffffffffffffffffffffffffffffffff169063f8b2cb4f90610d94908590600401615e73565b60206040518083038186803b158015610dac57600080fd5b505afa158015610dc0573d6000803e3d6000fd5b505050506040513d601f19601f82011682018060405250810190610de49190615d6f565b6008546040517f8c28cbe800000000000000000000000000000000000000000000000000000000815291925073ffffffffffffffffffffffffffffffffffffffff1690638c28cbe890610e3b908590600401615e73565b600060405180830381600087803b158015610e5557600080fd5b505af1158015610e69573d6000803e3d6000fd5b50506008546040517ff8b2cb4f0000000000000000000000000000000000000000000000000000000081526000935073ffffffffffffffffffffffffffffffffffffffff909116915063f8b2cb4f90610ec6908690600401615e73565b60206040518083038186803b158015610ede57600080fd5b505afa158015610ef2573d6000803e3d6000fd5b505050506040513d601f19601f82011682018060405250810190610f169190615d6f565b905080821415610f275750506113b6565b6008546040517f948d8ce600000000000000000000000000000000000000000000000000000000815260009173ffffffffffffffffffffffffffffffffffffffff169063948d8ce690610f7e908790600401615e73565b60206040518083038186803b158015610f9657600080fd5b505afa158015610faa573d6000803e3d6000fd5b505050506040513d601f19601f82011682018060405250810190610fce9190615d6f565b90506000610fe5610fdf8385614a1c565b85614acd565b90506000611005611000610ff98585614a1c565b6001614acd565b614bac565b90506060600860009054906101000a900473ffffffffffffffffffffffffffffffffffffffff1673ffffffffffffffffffffffffffffffffffffffff1663cc77828d6040518163ffffffff1660e01b815260040160006040518083038186803b15801561107157600080fd5b505afa158015611085573d6000803e3d6000fd5b505050506040513d6000823e601f3d9081017fffffffffffffffffffffffffffffffffffffffffffffffffffffffffffffffe01682016040526110cb9190810190615bc1565b905060005b81518110156113ae578773ffffffffffffffffffffffffffffffffffffffff168282815181106110fc57fe5b602002602001015173ffffffffffffffffffffffffffffffffffffffff1614156111b1576008546040517f3fdddaa200000000000000000000000000000000000000000000000000000000815273ffffffffffffffffffffffffffffffffffffffff90911690633fdddaa29061117a908b908a908890600401615f4d565b600060405180830381600087803b15801561119457600080fd5b505af11580156111a8573d6000803e3d6000fd5b505050506113a6565b600854825160009173ffffffffffffffffffffffffffffffffffffffff169063948d8ce6908590859081106111e257fe5b60200260200101516040518263ffffffff1660e01b81526004016112069190615e73565b60206040518083038186803b15801561121e57600080fd5b505afa158015611232573d6000803e3d6000fd5b505050506040513d601f19601f820116820180604052508101906112569190615d6f565b600854845191925060009173ffffffffffffffffffffffffffffffffffffffff9091169063f8b2cb4f9086908690811061128c57fe5b60200260200101516040518263ffffffff1660e01b81526004016112b09190615e73565b60206040518083038186803b1580156112c857600080fd5b505afa1580156112dc573d6000803e3d6000fd5b505050506040513d601f19601f820116820180604052508101906113009190615d6f565b905060006113176113118785614a1c565b88614acd565b600854865191925073ffffffffffffffffffffffffffffffffffffffff1690633fdddaa29087908790811061134857fe5b602002602001015184846040518463ffffffff1660e01b815260040161137093929190615f4d565b600060405180830381600087803b15801561138a57600080fd5b505af115801561139e573d6000803e3d6000fd5b505050505050505b6001016110d0565b505050505050505b506001600655565b60005490565b3330146113fd576040517f08c379a000000000000000000000000000000000000000000000000000000000815260040161079f906161db565b61140681614bfd565b50565b600073ffffffffffffffffffffffffffffffffffffffff8316611458576040517f08c379a000000000000000000000000000000000000000000000000000000000815260040161079f906162ee565b3373ffffffffffffffffffffffffffffffffffffffff851614806114ac575073ffffffffffffffffffffffffffffffffffffffff841660009081526002602090815260408083203384529091529020548211155b6114e2576040517f08c379a000000000000000000000000000000000000000000000000000000000815260040161079f9061665e565b6114ed848484614c77565b73ffffffffffffffffffffffffffffffffffffffff8416600081815260026020908152604080832033808552925290912054911480159061154e57507fffffffffffffffffffffffffffffffffffffffffffffffffffffffffffffffff8114155b156115cf5761155d81846146b5565b73ffffffffffffffffffffffffffffffffffffffff86811660009081526002602090815260408083203380855292529182902084905590519187169290917f8c5be1e5ebec7d5bd14f71427d1e84f3dd0314c0f7b2291e5b200ac8c7c3b925916115c69161688b565b60405180910390a35b60019150505b9392505050565b3373ffffffffffffffffffffffffffffffffffffffff166000357fffffffff00000000000000000000000000000000000000000000000000000000167bffffffffffffffffffffffffffffffffffffffffffffffffffffffff1916600036604051611648929190615fb6565b60405180910390a260055473ffffffffffffffffffffffffffffffffffffffff1633146116a1576040517f08c379a000000000000000000000000000000000000000000000000000000000815260040161079f906161db565b60085473ffffffffffffffffffffffffffffffffffffffff166116f0576040517f08c379a000000000000000000000000000000000000000000000000000000000815260040161079f90616393565b6040517f08c379a000000000000000000000000000000000000000000000000000000000815260040161079f90616249565b601281565b60055473ffffffffffffffffffffffffffffffffffffffff1690565b601290565b3373ffffffffffffffffffffffffffffffffffffffff166000357fffffffff00000000000000000000000000000000000000000000000000000000167bffffffffffffffffffffffffffffffffffffffffffffffffffffffff19166000366040516117b4929190615fb6565b60405180910390a2600260065414156117f9576040517f08c379a000000000000000000000000000000000000000000000000000000000815260040161079f9061646f565b600260065560055473ffffffffffffffffffffffffffffffffffffffff16331461184f576040517f08c379a000000000000000000000000000000000000000000000000000000000815260040161079f906161db565b60085473ffffffffffffffffffffffffffffffffffffffff1661189e576040517f08c379a000000000000000000000000000000000000000000000000000000000815260040161079f90616393565b600954610100900460ff166118df576040517f08c379a000000000000000000000000000000000000000000000000000000000815260040161079f906167a8565b6008546040517f34e1990700000000000000000000000000000000000000000000000000000000815273ffffffffffffffffffffffffffffffffffffffff909116906334e199079061193590849060040161688b565b600060405180830381600087803b15801561194f57600080fd5b505af1158015611963573d6000803e3d6000fd5b50506001600655505050565b6040517f4583544a00000000000000000000000000000000000000000000000000000000815260009073__$2e01043d609d645301b32b1d7a001b4107$__90634583544a906119c5906009908690600401616816565b60206040518083038186803b1580156119dd57600080fd5b505af41580156119f1573d6000803e3d6000fd5b505050506040513d601f19601f82011682018060405250810190611a159190615d00565b90505b919050565b60405160009033907fffffffff0000000000000000000000000000000000000000000000000000000083351690611a579084903690615fb6565b60405180910390a260026006541415611a9c576040517f08c379a000000000000000000000000000000000000000000000000000000000815260040161079f9061646f565b600260065560085473ffffffffffffffffffffffffffffffffffffffff16611af0576040517f08c379a000000000000000000000000000000000000000000000000000000000815260040161079f90616393565b6008546040517fd505a94e000000000000000000000000000000000000000000000000000000008152600091829173__$5e2b30ced2d26d67b7a543a19b8b0a2fb2$__9163d505a94e91611b6791309173ffffffffffffffffffffffffffffffffffffffff909116908b908b908b90600401616071565b604080518083038186803b158015611b7e57600080fd5b505af4158015611b92573d6000803e3d6000fd5b505050506040513d601f19601f82011682018060405250810190611bb69190615dd1565b915091508092506000611bc986846146b5565b90508673ffffffffffffffffffffffffffffffffffffffff163373ffffffffffffffffffffffffffffffffffffffff167fc62fc35ac75e3bff532648e2859a3e1694002cfa357614ae8e034df7f83db5e986604051611c28919061688b565b60405180910390a3611c3a33876129ad565b611c43816113fd565b600754611c669073ffffffffffffffffffffffffffffffffffffffff1684610a7a565b61097d873386614708565b3373ffffffffffffffffffffffffffffffffffffffff166000357fffffffff00000000000000000000000000000000000000000000000000000000167bffffffffffffffffffffffffffffffffffffffffffffffffffffffff1916600036604051611cdd929190615fb6565b60405180910390a260026006541415611d22576040517f08c379a000000000000000000000000000000000000000000000000000000000815260040161079f9061646f565b600260065560085473ffffffffffffffffffffffffffffffffffffffff16611d76576040517f08c379a000000000000000000000000000000000000000000000000000000000815260040161079f90616393565b60055473ffffffffffffffffffffffffffffffffffffffff163314611dc7576040517f08c379a000000000000000000000000000000000000000000000000000000000815260040161079f906161db565b60095465010000000000900460ff16611e0c576040517f08c379a000000000000000000000000000000000000000000000000000000000815260040161079f90616582565b3373ffffffffffffffffffffffffffffffffffffffff167f6bc200110c7794738d401810b22ef824a2044a8ccb022d4ad8769840370331f560185483604051611e56929190616894565b60405180910390a26018556001600655565b3373ffffffffffffffffffffffffffffffffffffffff166000357fffffffff00000000000000000000000000000000000000000000000000000000167bffffffffffffffffffffffffffffffffffffffffffffffffffffffff1916600036604051611ed4929190615fb6565b60405180910390a260026006541415611f19576040517f08c379a000000000000000000000000000000000000000000000000000000000815260040161079f9061646f565b600260065560055473ffffffffffffffffffffffffffffffffffffffff163314611f6f576040517f08c379a000000000000000000000000000000000000000000000000000000000815260040161079f906161db565b60085473ffffffffffffffffffffffffffffffffffffffff16611fbe576040517f08c379a000000000000000000000000000000000000000000000000000000000815260040161079f90616393565b60095460ff16611ffa576040517f08c379a000000000000000000000000000000000000000000000000000000000815260040161079f90616703565b6008546040517f49b5955200000000000000000000000000000000000000000000000000000000815273ffffffffffffffffffffffffffffffffffffffff909116906349b5955290611935908490600401615f7b565b333014612089576040517f08c379a000000000000000000000000000000000000000000000000000000000815260040161079f906161db565b61140681614d4f565b3373ffffffffffffffffffffffffffffffffffffffff166000357fffffffff00000000000000000000000000000000000000000000000000000000167bffffffffffffffffffffffffffffffffffffffffffffffffffffffff19166000366040516120fe929190615fb6565b60405180910390a260026006541415612143576040517f08c379a000000000000000000000000000000000000000000000000000000000815260040161079f9061646f565b600260065560055473ffffffffffffffffffffffffffffffffffffffff163314612199576040517f08c379a000000000000000000000000000000000000000000000000000000000815260040161079f906161db565b60085473ffffffffffffffffffffffffffffffffffffffff166121e8576040517f08c379a000000000000000000000000000000000000000000000000000000000815260040161079f90616393565b6009546301000000900460ff1661222b576040517f08c379a000000000000000000000000000000000000000000000000000000000815260040161079f90616212565b600a5415612265576040517f08c379a000000000000000000000000000000000000000000000000000000000815260040161079f906167df565b6040517f1c1af13600000000000000000000000000000000000000000000000000000000815273__$5e2b30ced2d26d67b7a543a19b8b0a2fb2$__90631c1af136906122b5908690600401615e73565b60006040518083038186803b1580156122cd57600080fd5b505af41580156122e1573d6000803e3d6000fd5b505060405133925030915073ffffffffffffffffffffffffffffffffffffffff8616907f33b043686b9408a355896fe90b2f8ecc86a41d87d1554ef65a739948b4f23e2790600090a46008546040517fb489ec1900000000000000000000000000000000000000000000000000000000815273__$5e2b30ced2d26d67b7a543a19b8b0a2fb2$__9163b489ec199161239b9173ffffffffffffffffffffffffffffffffffffffff1690879087908790600e90600401616003565b60006040518083038186803b1580156123b357600080fd5b505af41580156123c7573d6000803e3d6000fd5b505060016006555050505050565b3373ffffffffffffffffffffffffffffffffffffffff166000357fffffffff00000000000000000000000000000000000000000000000000000000167bffffffffffffffffffffffffffffffffffffffffffffffffffffffff1916600036604051612441929190615fb6565b60405180910390a260026006541415612486576040517f08c379a000000000000000000000000000000000000000000000000000000000815260040161079f9061646f565b600260065560085473ffffffffffffffffffffffffffffffffffffffff166124da576040517f08c379a000000000000000000000000000000000000000000000000000000000815260040161079f90616393565b600854604080517ffde924f7000000000000000000000000000000000000000000000000000000008152905160009273ffffffffffffffffffffffffffffffffffffffff169163fde924f7916004808301926020929190829003018186803b15801561254557600080fd5b505afa158015612559573d6000803e3d6000fd5b505050506040513d601f19601f8201168201806040525081019061257d9190615d00565b6008546040517f49b5955200000000000000000000000000000000000000000000000000000000815291925073ffffffffffffffffffffffffffffffffffffffff16906349b59552906125d590600090600401615f7b565b600060405180830381600087803b1580156125ef57600080fd5b505af1158015612603573d6000803e3d6000fd5b5050600954640100000000900460ff1615915081905061263257503360009081526017602052604090205460ff165b612668576040517f08c379a000000000000000000000000000000000000000000000000000000000815260040161079f90616280565b6008546040517fa1925f1d00000000000000000000000000000000000000000000000000000000815260609173__$5e2b30ced2d26d67b7a543a19b8b0a2fb2$__9163a1925f1d916126db91309173ffffffffffffffffffffffffffffffffffffffff16908a908a908a906004016160b2565b60006040518083038186803b1580156126f357600080fd5b505af4158015612707573d6000803e3d6000fd5b505050506040513d6000823e601f3d9081017fffffffffffffffffffffffffffffffffffffffffffffffffffffffffffffffe016820160405261274d9190810190615ca9565b90506060600860009054906101000a900473ffffffffffffffffffffffffffffffffffffffff1673ffffffffffffffffffffffffffffffffffffffff1663cc77828d6040518163ffffffff1660e01b815260040160006040518083038186803b1580156127b957600080fd5b505afa1580156127cd573d6000803e3d6000fd5b505050506040513d6000823e601f3d9081017fffffffffffffffffffffffffffffffffffffffffffffffffffffffffffffffe01682016040526128139190810190615bc1565b905060005b81518110156128cb57600082828151811061282f57fe5b60200260200101519050600084838151811061284757fe5b602002602001015190508173ffffffffffffffffffffffffffffffffffffffff163373ffffffffffffffffffffffffffffffffffffffff167fea39e3b35c5cd8937999ed5f7fbab30acd562a931fc4a887fed2a47c3074aa72836040516128ae919061688b565b60405180910390a36128c1823383614d96565b5050600101612818565b506128d586612089565b6128df3387610a7a565b50506008546040517f49b5955200000000000000000000000000000000000000000000000000000000815273ffffffffffffffffffffffffffffffffffffffff909116906349b5955290612937908490600401615f7b565b600060405180830381600087803b15801561295157600080fd5b505af1158015612965573d6000803e3d6000fd5b50506001600655505050505050565b3330146129ad576040517f08c379a000000000000000000000000000000000000000000000000000000000815260040161079f906161db565b610a848282615086565b600a54600b5482565b60405160009033907fffffffff00000000000000000000000000000000000000000000000000000000833516906129fa9084903690615fb6565b60405180910390a260026006541415612a3f576040517f08c379a000000000000000000000000000000000000000000000000000000000815260040161079f9061646f565b600260065560085473ffffffffffffffffffffffffffffffffffffffff16612a93576040517f08c379a000000000000000000000000000000000000000000000000000000000815260040161079f90616393565b600954640100000000900460ff161580612abc57503360009081526017602052604090205460ff165b612af2576040517f08c379a000000000000000000000000000000000000000000000000000000000815260040161079f90616280565b6008546040517fdf90de0b00000000000000000000000000000000000000000000000000000000815273__$5e2b30ced2d26d67b7a543a19b8b0a2fb2$__9163df90de0b91612b6491309173ffffffffffffffffffffffffffffffffffffffff90911690899089908990600401616071565b60206040518083038186803b158015612b7c57600080fd5b505af4158015612b90573d6000803e3d6000fd5b505050506040513d601f19601f82011682018060405250810190612bb49190615d6f565b90508373ffffffffffffffffffffffffffffffffffffffff163373ffffffffffffffffffffffffffffffffffffffff167fea39e3b35c5cd8937999ed5f7fbab30acd562a931fc4a887fed2a47c3074aa7285604051612c13919061688b565b60405180910390a3612c2481612089565b612c2e3382610a7a565b610981843385614d96565b3373ffffffffffffffffffffffffffffffffffffffff166000357fffffffff00000000000000000000000000000000000000000000000000000000167bffffffffffffffffffffffffffffffffffffffffffffffffffffffff1916600036604051612ca5929190615fb6565b60405180910390a260026006541415612cea576040517f08c379a000000000000000000000000000000000000000000000000000000000815260040161079f9061646f565b600260065560055473ffffffffffffffffffffffffffffffffffffffff163314612d40576040517f08c379a000000000000000000000000000000000000000000000000000000000815260040161079f906161db565b60085473ffffffffffffffffffffffffffffffffffffffff16612d8f576040517f08c379a000000000000000000000000000000000000000000000000000000000815260040161079f90616393565b6009546301000000900460ff16612dd2576040517f08c379a000000000000000000000000000000000000000000000000000000000815260040161079f90616212565b600e5474010000000000000000000000000000000000000000900460ff1615612e27576040517f08c379a000000000000000000000000000000000000000000000000000000000815260040161079f90616695565b600a5415612e61576040517f08c379a000000000000000000000000000000000000000000000000000000000815260040161079f906167df565b6008546040517f0970e47f00000000000000000000000000000000000000000000000000000000815273__$5e2b30ced2d26d67b7a543a19b8b0a2fb2$__91630970e47f91612ecf91309173ffffffffffffffffffffffffffffffffffffffff909116908690600401616041565b60006040518083038186803b158015612ee757600080fd5b505af4158015611963573d6000803e3d6000fd5b33600090815260026020908152604080832073ffffffffffffffffffffffffffffffffffffffff86168452909152812054808310612f695733600090815260026020908152604080832073ffffffffffffffffffffffffffffffffffffffff88168452909152812055612fa5565b612f7381846146b5565b33600090815260026020908152604080832073ffffffffffffffffffffffffffffffffffffffff891684529091529020555b33600081815260026020908152604080832073ffffffffffffffffffffffffffffffffffffffff89168085529252918290205491519092917f8c5be1e5ebec7d5bd14f71427d1e84f3dd0314c0f7b2291e5b200ac8c7c3b92591613009919061688b565b60405180910390a35060019392505050565b60405160009033907fffffffff00000000000000000000000000000000000000000000000000000000833516906130559084903690615fb6565b60405180910390a26002600654141561309a576040517f08c379a000000000000000000000000000000000000000000000000000000000815260040161079f9061646f565b600260065560085473ffffffffffffffffffffffffffffffffffffffff166130ee576040517f08c379a000000000000000000000000000000000000000000000000000000000815260040161079f90616393565b600954640100000000900460ff16158061311757503360009081526017602052604090205460ff165b61314d576040517f08c379a000000000000000000000000000000000000000000000000000000000815260040161079f90616280565b6008546040517f6a6dc6e700000000000000000000000000000000000000000000000000000000815273__$5e2b30ced2d26d67b7a543a19b8b0a2fb2$__91636a6dc6e7916131bf91309173ffffffffffffffffffffffffffffffffffffffff90911690899089908990600401616071565b60206040518083038186803b1580156131d757600080fd5b505af41580156131eb573d6000803e3d6000fd5b505050506040513d601f19601f8201168201806040525081019061320f9190615d6f565b90508373ffffffffffffffffffffffffffffffffffffffff163373ffffffffffffffffffffffffffffffffffffffff167fea39e3b35c5cd8937999ed5f7fbab30acd562a931fc4a887fed2a47c3074aa728360405161326e919061688b565b60405180910390a361327f83612089565b6132893384610a7a565b610981843383614d96565b73ffffffffffffffffffffffffffffffffffffffff1660009081526001602052604090205490565b73__$2e01043d609d645301b32b1d7a001b4107$__90565b600954600090640100000000900460ff1615613319575073ffffffffffffffffffffffffffffffffffffffff811660009081526017602052604090205460ff16611a18565b5073ffffffffffffffffffffffffffffffffffffffff81161515611a18565b60055473ffffffffffffffffffffffffffffffffffffffff163314613389576040517f08c379a000000000000000000000000000000000000000000000000000000000815260040161079f906161db565b3373ffffffffffffffffffffffffffffffffffffffff166000357fffffffff00000000000000000000000000000000000000000000000000000000167bffffffffffffffffffffffffffffffffffffffffffffffffffffffff19166000366040516133f5929190615fb6565b60405180910390a26002600654141561343a576040517f08c379a000000000000000000000000000000000000000000000000000000000815260040161079f9061646f565b60026006556113b681615091565b60055473ffffffffffffffffffffffffffffffffffffffff163314613499576040517f08c379a000000000000000000000000000000000000000000000000000000000815260040161079f906161db565b73ffffffffffffffffffffffffffffffffffffffff81166134e6576040517f08c379a000000000000000000000000000000000000000000000000000000000815260040161079f906162ee565b60055460405173ffffffffffffffffffffffffffffffffffffffff8084169216907f8be0079c531659141344cd1fd0a4f28419497f9722a3daafe3b4186f6b6457e090600090a3600580547fffffffffffffffffffffffff00000000000000000000000000000000000000001673ffffffffffffffffffffffffffffffffffffffff92909216919091179055565b6000600260065414156135b3576040517f08c379a000000000000000000000000000000000000000000000000000000000815260040161079f906164dd565b60085473ffffffffffffffffffffffffffffffffffffffff16613602576040517f08c379a000000000000000000000000000000000000000000000000000000000815260040161079f90616393565b6008546040517f948d8ce600000000000000000000000000000000000000000000000000000000815273ffffffffffffffffffffffffffffffffffffffff9091169063948d8ce690613658908590600401615e73565b60206040518083038186803b15801561367057600080fd5b505afa158015613684573d6000803e3d6000fd5b505050506040513d601f19601f82011682018060405250810190611a159190615d6f565b60038054604080516020601f60027fffffffffffffffffffffffffffffffffffffffffffffffffffffffffffffffff610100600188161502019095169490940493840181900481028201810190925282815260609390929091830182828015610a375780601f10610a0c57610100808354040283529160200191610a37565b60095460ff8082169161010081048216916201000082048116916301000000810482169164010000000082048116916501000000000090041686565b73__$14191dc44486ac03a0fbc408ea075e1304$__90565b73__$5e2b30ced2d26d67b7a543a19b8b0a2fb2$__90565b6040518060400160405280601381526020017f42616c616e63657220536d61727420506f6f6c0000000000000000000000000081525081565b6101f481565b600073ffffffffffffffffffffffffffffffffffffffff8316613821576040517f08c379a000000000000000000000000000000000000000000000000000000000815260040161079f906162ee565b61382c338484614c77565b50600192915050565b3373ffffffffffffffffffffffffffffffffffffffff166000357fffffffff00000000000000000000000000000000000000000000000000000000167bffffffffffffffffffffffffffffffffffffffffffffffffffffffff19166000366040516138a1929190615fb6565b60405180910390a2600260065414156138e6576040517f08c379a000000000000000000000000000000000000000000000000000000000815260040161079f9061646f565b600260065560085473ffffffffffffffffffffffffffffffffffffffff1661393a576040517f08c379a000000000000000000000000000000000000000000000000000000000815260040161079f90616393565b600854604080517ffde924f7000000000000000000000000000000000000000000000000000000008152905160009273ffffffffffffffffffffffffffffffffffffffff169163fde924f7916004808301926020929190829003018186803b1580156139a557600080fd5b505afa1580156139b9573d6000803e3d6000fd5b505050506040513d601f19601f820116820180604052508101906139dd9190615d00565b6008546040517f49b5955200000000000000000000000000000000000000000000000000000000815291925073ffffffffffffffffffffffffffffffffffffffff16906349b5955290613a3590600090600401615f7b565b600060405180830381600087803b158015613a4f57600080fd5b505af1158015613a63573d6000803e3d6000fd5b50506008546040517f5471c3e40000000000000000000000000000000000000000000000000000000081526000935083925060609173__$5e2b30ced2d26d67b7a543a19b8b0a2fb2$__91635471c3e491613adf91309173ffffffffffffffffffffffffffffffffffffffff16908c908c908c906004016160b2565b60006040518083038186803b158015613af757600080fd5b505af4158015613b0b573d6000803e3d6000fd5b505050506040513d6000823e601f3d9081017fffffffffffffffffffffffffffffffffffffffffffffffffffffffffffffffe0168201604052613b519190810190615df4565b925092509250613b6133886129ad565b600754613b849073ffffffffffffffffffffffffffffffffffffffff1684610a7a565b613b8d826113fd565b600854604080517fcc77828d000000000000000000000000000000000000000000000000000000008152905160609273ffffffffffffffffffffffffffffffffffffffff169163cc77828d916004808301926000929190829003018186803b158015613bf857600080fd5b505afa158015613c0c573d6000803e3d6000fd5b505050506040513d6000823e601f3d9081017fffffffffffffffffffffffffffffffffffffffffffffffffffffffffffffffe0168201604052613c529190810190615bc1565b905060005b8151811015613d0a576000828281518110613c6e57fe5b602002602001015190506000848381518110613c8657fe5b602002602001015190508173ffffffffffffffffffffffffffffffffffffffff163373ffffffffffffffffffffffffffffffffffffffff167fc62fc35ac75e3bff532648e2859a3e1694002cfa357614ae8e034df7f83db5e983604051613ced919061688b565b60405180910390a3613d00823383614708565b5050600101613c57565b50506008546040517f49b5955200000000000000000000000000000000000000000000000000000000815273ffffffffffffffffffffffffffffffffffffffff90911693506349b59552925061293791508490600401615f7b565b60085473ffffffffffffffffffffffffffffffffffffffff1681565b3373ffffffffffffffffffffffffffffffffffffffff166000357fffffffff00000000000000000000000000000000000000000000000000000000167bffffffffffffffffffffffffffffffffffffffffffffffffffffffff1916600036604051613ded929190615fb6565b60405180910390a260026006541415613e32576040517f08c379a000000000000000000000000000000000000000000000000000000000815260040161079f9061646f565b600260065560055473ffffffffffffffffffffffffffffffffffffffff163314613e88576040517f08c379a000000000000000000000000000000000000000000000000000000000815260040161079f906161db565b60085473ffffffffffffffffffffffffffffffffffffffff16613ed7576040517f08c379a000000000000000000000000000000000000000000000000000000000815260040161079f90616393565b6009546301000000900460ff16613f1a576040517f08c379a000000000000000000000000000000000000000000000000000000000815260040161079f90616212565b6008546016546040517fefa5877400000000000000000000000000000000000000000000000000000000815273__$5e2b30ced2d26d67b7a543a19b8b0a2fb2$__9263efa5877492613f8b92309273ffffffffffffffffffffffffffffffffffffffff169190600e90600401616134565b60006040518083038186803b158015613fa357600080fd5b505af4158015613fb7573d6000803e3d6000fd5b505060016006555050565b600e54600f5460105460115473ffffffffffffffffffffffffffffffffffffffff84169374010000000000000000000000000000000000000000900460ff1692919085565b60055473ffffffffffffffffffffffffffffffffffffffff163314614058576040517f08c379a000000000000000000000000000000000000000000000000000000000815260040161079f906161db565b60026006541415614095576040517f08c379a000000000000000000000000000000000000000000000000000000000815260040161079f9061646f565b60026006556040513390600080357fffffffff0000000000000000000000000000000000000000000000000000000016916140d291903690615fb6565b60405180910390a2600954640100000000900460ff1661411e576040517f08c379a000000000000000000000000000000000000000000000000000000000815260040161079f90616325565b73ffffffffffffffffffffffffffffffffffffffff811661416b576040517f08c379a000000000000000000000000000000000000000000000000000000000815260040161079f90616514565b73ffffffffffffffffffffffffffffffffffffffff16600090815260176020526040902080547fffffffffffffffffffffffffffffffffffffffffffffffffffffffffffffff00166001908117909155600655565b33600090815260026020908152604080832073ffffffffffffffffffffffffffffffffffffffff861684529091528120546141fb9083615744565b33600081815260026020908152604080832073ffffffffffffffffffffffffffffffffffffffff8916808552925291829020849055905190927f8c5be1e5ebec7d5bd14f71427d1e84f3dd0314c0f7b2291e5b200ac8c7c3b92591610aee919061688b565b73ffffffffffffffffffffffffffffffffffffffff918216600090815260026020908152604080832093909416825291909152205490565b3373ffffffffffffffffffffffffffffffffffffffff166000357fffffffff00000000000000000000000000000000000000000000000000000000167bffffffffffffffffffffffffffffffffffffffffffffffffffffffff1916600036604051614304929190615fb6565b60405180910390a260085473ffffffffffffffffffffffffffffffffffffffff166116f0576040517f08c379a000000000000000000000000000000000000000000000000000000000815260040161079f90616393565b60055473ffffffffffffffffffffffffffffffffffffffff1633146143ac576040517f08c379a000000000000000000000000000000000000000000000000000000000815260040161079f906161db565b600260065414156143e9576040517f08c379a000000000000000000000000000000000000000000000000000000000815260040161079f9061646f565b60026006556040513390600080357fffffffff00000000000000000000000000000000000000000000000000000000169161442691903690615fb6565b60405180910390a2600954640100000000900460ff16614472576040517f08c379a000000000000000000000000000000000000000000000000000000000815260040161079f90616325565b73ffffffffffffffffffffffffffffffffffffffff811660009081526017602052604090205460ff166144d1576040517f08c379a000000000000000000000000000000000000000000000000000000000815260040161079f9061635c565b73ffffffffffffffffffffffffffffffffffffffff811661451e576040517f08c379a000000000000000000000000000000000000000000000000000000000815260040161079f90616514565b73ffffffffffffffffffffffffffffffffffffffff16600090815260176020526040902080547fffffffffffffffffffffffffffffffffffffffffffffffffffffffffffffff001690556001600655565b60165481565b60155481565b62015f9081565b6000600260065414156145c1576040517f08c379a000000000000000000000000000000000000000000000000000000000815260040161079f906164dd565b60085473ffffffffffffffffffffffffffffffffffffffff16614610576040517f08c379a000000000000000000000000000000000000000000000000000000000815260040161079f90616393565b600860009054906101000a900473ffffffffffffffffffffffffffffffffffffffff1673ffffffffffffffffffffffffffffffffffffffff1663fde924f76040518163ffffffff1660e01b815260040160206040518083038186803b15801561467857600080fd5b505afa15801561468c573d6000803e3d6000fd5b505050506040513d601f19601f820116820180604052508101906146b09190615d00565b905090565b60008060006146c48585615783565b915091508015614700576040517f08c379a000000000000000000000000000000000000000000000000000000000815260040161079f9061673a565b509392505050565b60085473ffffffffffffffffffffffffffffffffffffffff16614757576040517f08c379a000000000000000000000000000000000000000000000000000000000815260040161079f90616393565b6008546040517ff8b2cb4f00000000000000000000000000000000000000000000000000000000815260009173ffffffffffffffffffffffffffffffffffffffff169063f8b2cb4f906147ae908790600401615e73565b60206040518083038186803b1580156147c657600080fd5b505afa1580156147da573d6000803e3d6000fd5b505050506040513d601f19601f820116820180604052508101906147fe9190615d6f565b6008546040517f948d8ce600000000000000000000000000000000000000000000000000000000815291925060009173ffffffffffffffffffffffffffffffffffffffff9091169063948d8ce69061485a908890600401615e73565b60206040518083038186803b15801561487257600080fd5b505afa158015614886573d6000803e3d6000fd5b505050506040513d601f19601f820116820180604052508101906148aa9190615d6f565b60085490915073ffffffffffffffffffffffffffffffffffffffff16633fdddaa2866148d685876146b5565b846040518463ffffffff1660e01b81526004016148f593929190615f4d565b600060405180830381600087803b15801561490f57600080fd5b505af1158015614923573d6000803e3d6000fd5b50506040517fa9059cbb0000000000000000000000000000000000000000000000000000000081526000925073ffffffffffffffffffffffffffffffffffffffff8816915063a9059cbb9061497e9088908890600401615f27565b602060405180830381600087803b15801561499857600080fd5b505af11580156149ac573d6000803e3d6000fd5b505050506040513d601f19601f820116820180604052508101906149d09190615d00565b905080614a09576040517f08c379a000000000000000000000000000000000000000000000000000000000815260040161079f906166cc565b505050505050565b610a84308383614c77565b600082614a2b57506000610afa565b82820282848281614a3857fe5b0414614a70576040517f08c379a000000000000000000000000000000000000000000000000000000000815260040161079f9061654b565b6706f05b59d3b20000810181811015614ab5576040517f08c379a000000000000000000000000000000000000000000000000000000000815260040161079f9061654b565b6000670de0b6b3a7640000825b049695505050505050565b600081614b06576040517f08c379a000000000000000000000000000000000000000000000000000000000815260040161079f906165b9565b82614b1357506000610afa565b670de0b6b3a764000083810290848281614b2957fe5b0414614b61576040517f08c379a000000000000000000000000000000000000000000000000000000000815260040161079f90616438565b60028304810181811015614ba1576040517f08c379a000000000000000000000000000000000000000000000000000000000815260040161079f90616438565b6000848281614ac257fe5b60006003821115614bef575080600160028204015b81811015614be957809150600281828581614bd857fe5b040181614be157fe5b049050614bc1565b50611a18565b8115611a1857506001919050565b30600090815260016020526040902054614c1790826146b5565b3060009081526001602052604081209190915554614c3590826146b5565b600090815560405130907fddf252ad1be2c89b69c2b068fc378daa952ba7f163c4a11628f55a4df523b3ef90614c6c90859061688b565b60405180910390a350565b73ffffffffffffffffffffffffffffffffffffffff8316600090815260016020526040902054614ca790826146b5565b73ffffffffffffffffffffffffffffffffffffffff8085166000908152600160205260408082209390935590841681522054614ce39082615744565b73ffffffffffffffffffffffffffffffffffffffff80841660008181526001602052604090819020939093559151908516907fddf252ad1be2c89b69c2b068fc378daa952ba7f163c4a11628f55a4df523b3ef90614d4290859061688b565b60405180910390a3505050565b614d58816157a8565b6018546000541115611406576040517f08c379a000000000000000000000000000000000000000000000000000000000815260040161079f90616627565b60085473ffffffffffffffffffffffffffffffffffffffff16614de5576040517f08c379a000000000000000000000000000000000000000000000000000000000815260040161079f90616393565b6008546040517ff8b2cb4f00000000000000000000000000000000000000000000000000000000815260009173ffffffffffffffffffffffffffffffffffffffff169063f8b2cb4f90614e3c908790600401615e73565b60206040518083038186803b158015614e5457600080fd5b505afa158015614e68573d6000803e3d6000fd5b505050506040513d601f19601f82011682018060405250810190614e8c9190615d6f565b6008546040517f948d8ce600000000000000000000000000000000000000000000000000000000815291925060009173ffffffffffffffffffffffffffffffffffffffff9091169063948d8ce690614ee8908890600401615e73565b60206040518083038186803b158015614f0057600080fd5b505afa158015614f14573d6000803e3d6000fd5b505050506040513d601f19601f82011682018060405250810190614f389190615d6f565b905060008573ffffffffffffffffffffffffffffffffffffffff166323b872dd8630876040518463ffffffff1660e01b8152600401614f7993929190615e94565b602060405180830381600087803b158015614f9357600080fd5b505af1158015614fa7573d6000803e3d6000fd5b505050506040513d601f19601f82011682018060405250810190614fcb9190615d00565b905080615004576040517f08c379a000000000000000000000000000000000000000000000000000000000815260040161079f906166cc565b60085473ffffffffffffffffffffffffffffffffffffffff16633fdddaa28761502d8688615744565b856040518463ffffffff1660e01b815260040161504c93929190615f4d565b600060405180830381600087803b15801561506657600080fd5b505af115801561507a573d6000803e3d6000fd5b50505050505050505050565b610a84823083614c77565b60085473ffffffffffffffffffffffffffffffffffffffff16156150e1576040517f08c379a000000000000000000000000000000000000000000000000000000000815260040161079f906163ca565b68056bc75e2d63100000811015615124576040517f08c379a000000000000000000000000000000000000000000000000000000000815260040161079f90616401565b6b033b2e3c9fd0803ce800000081111561516a576040517f08c379a000000000000000000000000000000000000000000000000000000000815260040161079f906162b7565b60095465010000000000900460ff16156151845760188190555b61518d81612089565b6151973382610a7a565b600760009054906101000a900473ffffffffffffffffffffffffffffffffffffffff1673ffffffffffffffffffffffffffffffffffffffff1663d556c5dc6040518163ffffffff1660e01b8152600401602060405180830381600087803b15801561520157600080fd5b505af1158015615215573d6000803e3d6000fd5b505050506040513d601f19601f820116820180604052508101906152399190615d1c565b600880547fffffffffffffffffffffffff00000000000000000000000000000000000000001673ffffffffffffffffffffffffffffffffffffffff9283161790819055604080517fc6580d120000000000000000000000000000000000000000000000000000000081529051919092169163c6580d12916004808301926020929190829003018186803b1580156152cf57600080fd5b505afa1580156152e3573d6000803e3d6000fd5b505050506040513d601f19601f820116820180604052508101906153079190615d6f565b1561533e576040517f08c379a000000000000000000000000000000000000000000000000000000000815260040161079f906165f0565b60005b6013548110156155b85760006013828154811061535a57fe5b60009182526020822001546014805473ffffffffffffffffffffffffffffffffffffffff9092169350908490811061538e57fe5b906000526020600020015490506000600a60020184815481106153ad57fe5b60009182526020822001546040517f23b872dd00000000000000000000000000000000000000000000000000000000815290925073ffffffffffffffffffffffffffffffffffffffff8516906323b872dd9061541190339030908890600401615e94565b602060405180830381600087803b15801561542b57600080fd5b505af115801561543f573d6000803e3d6000fd5b505050506040513d601f19601f820116820180604052508101906154639190615d00565b90508061549c576040517f08c379a000000000000000000000000000000000000000000000000000000000815260040161079f906166cc565b6008546154e39073ffffffffffffffffffffffffffffffffffffffff86811691167fffffffffffffffffffffffffffffffffffffffffffffffffffffffffffffffff615818565b90508061551c576040517f08c379a000000000000000000000000000000000000000000000000000000000815260040161079f906166cc565b6008546040517fe4e1e53800000000000000000000000000000000000000000000000000000000815273ffffffffffffffffffffffffffffffffffffffff9091169063e4e1e5389061557690879087908790600401615f4d565b600060405180830381600087803b15801561559057600080fd5b505af11580156155a4573d6000803e3d6000fd5b505060019096019550615341945050505050565b505b6013541561562a5760138054806155cd57fe5b60008281526020902081017fffffffffffffffffffffffffffffffffffffffffffffffffffffffffffffffff90810180547fffffffffffffffffffffffff00000000000000000000000000000000000000001690550190556155ba565b6008546012546040517f34e1990700000000000000000000000000000000000000000000000000000000815273ffffffffffffffffffffffffffffffffffffffff909216916334e19907916156819160040161688b565b600060405180830381600087803b15801561569b57600080fd5b505af11580156156af573d6000803e3d6000fd5b50506008546040517f49b5955200000000000000000000000000000000000000000000000000000000815273ffffffffffffffffffffffffffffffffffffffff90911692506349b59552915061570a90600190600401615f7b565b600060405180830381600087803b15801561572457600080fd5b505af1158015615738573d6000803e3d6000fd5b50506000601255505050565b6000828201838110156115d5576040517f08c379a000000000000000000000000000000000000000000000000000000000815260040161079f90616771565b60008083831161579957505080820360006157a1565b505081810360015b9250929050565b306000908152600160205260409020546157c29082615744565b30600090815260016020526040812091909155546157e09082615744565b60009081556040513091907fddf252ad1be2c89b69c2b068fc378daa952ba7f163c4a11628f55a4df523b3ef90614c6c90859061688b565b6000808473ffffffffffffffffffffffffffffffffffffffff1663dd62ed3e30866040518363ffffffff1660e01b8152600401615856929190615ec5565b60206040518083038186803b15801561586e57600080fd5b505afa158015615882573d6000803e3d6000fd5b505050506040513d601f19601f820116820180604052508101906158a69190615d6f565b9050828114156158ba5760019150506115d5565b801561596f576040517f095ea7b300000000000000000000000000000000000000000000000000000000815273ffffffffffffffffffffffffffffffffffffffff86169063095ea7b390615915908790600090600401615f27565b602060405180830381600087803b15801561592f57600080fd5b505af1158015615943573d6000803e3d6000fd5b505050506040513d601f19601f820116820180604052508101906159679190615d00565b9150506115d5565b6040517f095ea7b300000000000000000000000000000000000000000000000000000000815273ffffffffffffffffffffffffffffffffffffffff86169063095ea7b3906159c39087908790600401615f27565b602060405180830381600087803b1580156159dd57600080fd5b505af11580156159f1573d6000803e3d6000fd5b505050506040513d601f19601f82011682018060405250810190615a159190615d00565b95945050505050565b60008083601f840112615a2f578081fd5b50813567ffffffffffffffff811115615a46578182fd5b60208301915083602080830285010111156157a157600080fd5b600082601f830112615a70578081fd5b8151615a83615a7e826168d7565b6168b0565b818152915060208083019084810181840286018201871015615aa457600080fd5b60005b84811015615ac357815184529282019290820190600101615aa7565b505050505092915050565b600060208284031215615adf578081fd5b81356115d581616902565b60008060408385031215615afc578081fd5b8235615b0781616902565b91506020830135615b1781616902565b809150509250929050565b600080600060608486031215615b36578081fd5b8335615b4181616902565b92506020840135615b5181616902565b929592945050506040919091013590565b60008060408385031215615b74578182fd5b8235615b7f81616902565b946020939093013593505050565b600080600060608486031215615ba1578283fd5b8335615bac81616902565b95602085013595506040909401359392505050565b60006020808385031215615bd3578182fd5b825167ffffffffffffffff811115615be9578283fd5b8301601f81018513615bf9578283fd5b8051615c07615a7e826168d7565b8181528381019083850185840285018601891015615c23578687fd5b8694505b83851015615c4e578051615c3a81616902565b835260019490940193918501918501615c27565b50979650505050505050565b60008060008060608587031215615c6f578081fd5b843567ffffffffffffffff811115615c85578182fd5b615c9187828801615a1e565b90989097506020870135966040013595509350505050565b600060208284031215615cba578081fd5b815167ffffffffffffffff811115615cd0578182fd5b615cdc84828501615a60565b949350505050565b600060208284031215615cf5578081fd5b81356115d581616924565b600060208284031215615d11578081fd5b81516115d581616924565b600060208284031215615d2d578081fd5b81516115d581616902565b600060208284031215615d49578081fd5b8135600681106115d5578182fd5b600060208284031215615d68578081fd5b5035919050565b600060208284031215615d80578081fd5b5051919050565b600080600060408486031215615d9b578081fd5b83359250602084013567ffffffffffffffff811115615db8578182fd5b615dc486828701615a1e565b9497909650939450505050565b60008060408385031215615de3578182fd5b505080516020909101519092909150565b600080600060608486031215615e08578081fd5b8351925060208401519150604084015167ffffffffffffffff811115615e2c578182fd5b615e3886828701615a60565b9150509250925092565b600080600060608486031215615e56578081fd5b505081359360208301359350604090920135919050565b15159052565b73ffffffffffffffffffffffffffffffffffffffff91909116815260200190565b73ffffffffffffffffffffffffffffffffffffffff9384168152919092166020820152604081019190915260600190565b73ffffffffffffffffffffffffffffffffffffffff92831681529116602082015260400190565b73ffffffffffffffffffffffffffffffffffffffff959095168552921515602085015260408401919091526060830152608082015260a00190565b73ffffffffffffffffffffffffffffffffffffffff929092168252602082015260400190565b73ffffffffffffffffffffffffffffffffffffffff9390931683526020830191909152604082015260600190565b901515815260200190565b9515158652931515602086015291151560408501521515606084015215156080830152151560a082015260c00190565b60006020825282602083015282846040840137818301604090810191909152601f9092017fffffffffffffffffffffffffffffffffffffffffffffffffffffffffffffffe0160101919050565b73ffffffffffffffffffffffffffffffffffffffff958616815293909416602084015260408301919091526060820152608081019190915260a00190565b73ffffffffffffffffffffffffffffffffffffffff93841681529183166020830152909116604082015260600190565b73ffffffffffffffffffffffffffffffffffffffff958616815293851660208501529190931660408301526060820192909252608081019190915260a00190565b600073ffffffffffffffffffffffffffffffffffffffff8088168352808716602084015250846040830152608060608301528260808301527f07ffffffffffffffffffffffffffffffffffffffffffffffffffffffffffffff831115616116578081fd5b60208302808560a08501379190910160a00190815295945050505050565b73ffffffffffffffffffffffffffffffffffffffff94851681529290931660208301526040820152606081019190915260800190565b6000602080835283518082850152825b818110156161965785810183015185820160400152820161617a565b818111156161a75783604083870101525b50601f017fffffffffffffffffffffffffffffffffffffffffffffffffffffffffffffffe016929092016040019392505050565b60208082526012908201527f4552525f4e4f545f434f4e54524f4c4c45520000000000000000000000000000604082015260600190565b6020808252601c908201527f4552525f43414e4e4f545f4144445f52454d4f56455f544f4b454e5300000000604082015260600190565b60208082526019908201527f4552525f554e535550504f525445445f4f5045524154494f4e00000000000000604082015260600190565b60208082526014908201527f4552525f4e4f545f4f4e5f57484954454c495354000000000000000000000000604082015260600190565b60208082526013908201527f4552525f494e49545f535550504c595f4d415800000000000000000000000000604082015260600190565b60208082526010908201527f4552525f5a45524f5f4144445245535300000000000000000000000000000000604082015260600190565b60208082526018908201527f4552525f43414e4e4f545f57484954454c4953545f4c50530000000000000000604082015260600190565b60208082526016908201527f4552525f4c505f4e4f545f57484954454c495354454400000000000000000000604082015260600190565b6020808252600f908201527f4552525f4e4f545f435245415445440000000000000000000000000000000000604082015260600190565b6020808252600e908201527f4552525f49535f43524541544544000000000000000000000000000000000000604082015260600190565b60208082526013908201527f4552525f494e49545f535550504c595f4d494e00000000000000000000000000604082015260600190565b60208082526010908201527f4552525f4449565f494e5445524e414c00000000000000000000000000000000604082015260600190565b6020808252600b908201527f4552525f5245454e545259000000000000000000000000000000000000000000604082015260600190565b6020808252600d908201527f4552525f4e4f545f424f554e4400000000000000000000000000000000000000604082015260600190565b60208082526010908201527f4552525f5245454e5452595f5649455700000000000000000000000000000000604082015260600190565b60208082526013908201527f4552525f494e56414c49445f4144445245535300000000000000000000000000604082015260600190565b60208082526010908201527f4552525f4d554c5f4f564552464c4f5700000000000000000000000000000000604082015260600190565b60208082526015908201527f4552525f43414e4e4f545f4348414e47455f4341500000000000000000000000604082015260600190565b6020808252600c908201527f4552525f4449565f5a45524f0000000000000000000000000000000000000000604082015260600190565b60208082526014908201527f4552525f4e4f4e5a45524f5f455849545f464545000000000000000000000000604082015260600190565b60208082526015908201527f4552525f4341505f4c494d49545f524541434845440000000000000000000000604082015260600190565b60208082526016908201527f4552525f5043544f4b454e5f4241445f43414c4c455200000000000000000000604082015260600190565b6020808252601b908201527f4552525f52454d4f56455f574954485f4144445f50454e44494e470000000000604082015260600190565b6020808252600f908201527f4552525f45524332305f46414c53450000000000000000000000000000000000604082015260600190565b60208082526015908201527f4552525f4e4f545f5041555341424c455f535741500000000000000000000000604082015260600190565b60208082526011908201527f4552525f5355425f554e444552464c4f57000000000000000000000000000000604082015260600190565b60208082526010908201527f4552525f4144445f4f564552464c4f5700000000000000000000000000000000604082015260600190565b6020808252601d908201527f4552525f4e4f545f434f4e464947555241424c455f535741505f464545000000604082015260600190565b6020808252601c908201527f4552525f4e4f5f5550444154455f445552494e475f4752414455414c00000000604082015260600190565b600060e082019050835460ff80821615158452808260081c1615156020850152808260101c1615156040850152808260181c161515606085015261686260808501828460201c16615e6d565b61687460a08501828460281c16615e6d565b505061687f836168f7565b60c08301529392505050565b90815260200190565b918252602082015260400190565b60ff91909116815260200190565b60405181810167ffffffffffffffff811182821017156168cf57600080fd5b604052919050565b600067ffffffffffffffff8211156168ed578081fd5b5060209081020190565b8060068110611a1857fe5b73ffffffffffffffffffffffffffffffffffffffff8116811461140657600080fd5b801515811461140657600080fdfea264697066735822122083c350b2564a60f5b9ac8b527171fdf10512e3cc6dadbf6967e4641f723ee66964736f6c634300060c0033a2646970667358221220cb34abb4bee5bcc41aa82aa8ceec26e3109d649447b09f224fa5091776d06c2864736f6c634300060c0033",
  "linkReferences": {
    "contracts/configurable-rights-pool/libraries/BalancerSafeMath.sol": {
      "BalancerSafeMath": [
        {
          "length": 20,
          "start": 19135
        }
      ]
    },
    "contracts/configurable-rights-pool/libraries/RightsManager.sol": {
      "RightsManager": [
        {
          "length": 20,
          "start": 11508
        },
        {
          "length": 20,
          "start": 17944
        }
      ]
    },
    "contracts/configurable-rights-pool/libraries/SmartPoolManager.sol": {
      "SmartPoolManager": [
        {
          "length": 20,
          "start": 2766
        },
        {
          "length": 20,
          "start": 7046
        },
        {
          "length": 20,
          "start": 11898
        },
        {
          "length": 20,
          "start": 13799
        },
        {
          "length": 20,
          "start": 13999
        },
        {
          "length": 20,
          "start": 14832
        },
        {
          "length": 20,
          "start": 15991
        },
        {
          "length": 20,
          "start": 16870
        },
        {
          "length": 20,
          "start": 17618
        },
        {
          "length": 20,
          "start": 19159
        },
        {
          "length": 20,
          "start": 19956
        },
        {
          "length": 20,
          "start": 21154
        }
      ]
    }
  },
  "deployedLinkReferences": {
    "contracts/configurable-rights-pool/libraries/BalancerSafeMath.sol": {
      "BalancerSafeMath": [
        {
          "length": 20,
          "start": 19103
        }
      ]
    },
    "contracts/configurable-rights-pool/libraries/RightsManager.sol": {
      "RightsManager": [
        {
          "length": 20,
          "start": 11476
        },
        {
          "length": 20,
          "start": 17912
        }
      ]
    },
    "contracts/configurable-rights-pool/libraries/SmartPoolManager.sol": {
      "SmartPoolManager": [
        {
          "length": 20,
          "start": 2734
        },
        {
          "length": 20,
          "start": 7014
        },
        {
          "length": 20,
          "start": 11866
        },
        {
          "length": 20,
          "start": 13767
        },
        {
          "length": 20,
          "start": 13967
        },
        {
          "length": 20,
          "start": 14800
        },
        {
          "length": 20,
          "start": 15959
        },
        {
          "length": 20,
          "start": 16838
        },
        {
          "length": 20,
          "start": 17586
        },
        {
          "length": 20,
          "start": 19127
        },
        {
          "length": 20,
          "start": 19924
        },
        {
          "length": 20,
          "start": 21122
        }
      ]
    }
  }
}