{
  "_format": "hh-sol-artifact-1",
  "contractName": "BBronze",
  "sourceName": "contracts/configurable-rights-pool/contracts/test/BColor.sol",
  "abi": [
    {
      "inputs": [],
      "name": "getColor",
      "outputs": [
        {
          "internalType": "bytes32",
          "name": "",
          "type": "bytes32"
        }
      ],
      "stateMutability": "view",
      "type": "function"
    }
  ],
  "bytecode": "0x6080604052348015600f57600080fd5b50609f8061001e6000396000f3fe6080604052348015600f57600080fd5b506004361060285760003560e01c80639a86139b14602d575b600080fd5b60336045565b60408051918252519081900360200190f35b7f42524f4e5a4500000000000000000000000000000000000000000000000000009056fea264697066735822122007feaeb50bdc6499c670546196ab20f74617f3700af76f4b5be55c6ea50966c664736f6c634300060c0033",
  "linkReferences": {},
  "deployedLinkReferences": {}
}