{
  "_format": "hh-sol-artifact-1",
  "contractName": "Verify",
  "sourceName": "contracts/verify/Verify.sol",
  "abi": [
    {
      "inputs": [
        {
          "internalType": "address",
          "name": "admin_",
          "type": "address"
        }
      ],
      "stateMutability": "nonpayable",
      "type": "constructor"
    },
    {
      "anonymous": false,
      "inputs": [
        {
          "indexed": true,
          "internalType": "address",
          "name": "account",
          "type": "address"
        },
        {
          "indexed": true,
          "internalType": "uint256",
          "name": "id",
          "type": "uint256"
        }
      ],
      "name": "Add",
      "type": "event"
    },
    {
      "anonymous": false,
      "inputs": [
        {
          "indexed": true,
          "internalType": "uint256",
          "name": "id",
          "type": "uint256"
        }
      ],
      "name": "Approve",
      "type": "event"
    },
    {
      "anonymous": false,
      "inputs": [
        {
          "indexed": true,
          "internalType": "uint256",
          "name": "id",
          "type": "uint256"
        }
      ],
      "name": "Ban",
      "type": "event"
    },
    {
      "anonymous": false,
      "inputs": [
        {
          "indexed": true,
          "internalType": "address",
          "name": "account",
          "type": "address"
        }
      ],
      "name": "Remove",
      "type": "event"
    },
    {
      "anonymous": false,
      "inputs": [
        {
          "indexed": true,
          "internalType": "bytes32",
          "name": "role",
          "type": "bytes32"
        },
        {
          "indexed": true,
          "internalType": "bytes32",
          "name": "previousAdminRole",
          "type": "bytes32"
        },
        {
          "indexed": true,
          "internalType": "bytes32",
          "name": "newAdminRole",
          "type": "bytes32"
        }
      ],
      "name": "RoleAdminChanged",
      "type": "event"
    },
    {
      "anonymous": false,
      "inputs": [
        {
          "indexed": true,
          "internalType": "bytes32",
          "name": "role",
          "type": "bytes32"
        },
        {
          "indexed": true,
          "internalType": "address",
          "name": "account",
          "type": "address"
        },
        {
          "indexed": true,
          "internalType": "address",
          "name": "sender",
          "type": "address"
        }
      ],
      "name": "RoleGranted",
      "type": "event"
    },
    {
      "anonymous": false,
      "inputs": [
        {
          "indexed": true,
          "internalType": "bytes32",
          "name": "role",
          "type": "bytes32"
        },
        {
          "indexed": true,
          "internalType": "address",
          "name": "account",
          "type": "address"
        },
        {
          "indexed": true,
          "internalType": "address",
          "name": "sender",
          "type": "address"
        }
      ],
      "name": "RoleRevoked",
      "type": "event"
    },
    {
      "inputs": [],
      "name": "APPROVER",
      "outputs": [
        {
          "internalType": "bytes32",
          "name": "",
          "type": "bytes32"
        }
      ],
      "stateMutability": "view",
      "type": "function"
    },
    {
      "inputs": [],
      "name": "APPROVER_ADMIN",
      "outputs": [
        {
          "internalType": "bytes32",
          "name": "",
          "type": "bytes32"
        }
      ],
      "stateMutability": "view",
      "type": "function"
    },
    {
      "inputs": [],
      "name": "BANNER",
      "outputs": [
        {
          "internalType": "bytes32",
          "name": "",
          "type": "bytes32"
        }
      ],
      "stateMutability": "view",
      "type": "function"
    },
    {
      "inputs": [],
      "name": "BANNER_ADMIN",
      "outputs": [
        {
          "internalType": "bytes32",
          "name": "",
          "type": "bytes32"
        }
      ],
      "stateMutability": "view",
      "type": "function"
    },
    {
      "inputs": [],
      "name": "DEFAULT_ADMIN_ROLE",
      "outputs": [
        {
          "internalType": "bytes32",
          "name": "",
          "type": "bytes32"
        }
      ],
      "stateMutability": "view",
      "type": "function"
    },
    {
      "inputs": [],
      "name": "REMOVER",
      "outputs": [
        {
          "internalType": "bytes32",
          "name": "",
          "type": "bytes32"
        }
      ],
      "stateMutability": "view",
      "type": "function"
    },
    {
      "inputs": [],
      "name": "REMOVER_ADMIN",
      "outputs": [
        {
          "internalType": "bytes32",
          "name": "",
          "type": "bytes32"
        }
      ],
      "stateMutability": "view",
      "type": "function"
    },
    {
      "inputs": [
        {
          "internalType": "uint256",
          "name": "id_",
          "type": "uint256"
        }
      ],
      "name": "add",
      "outputs": [],
      "stateMutability": "nonpayable",
      "type": "function"
    },
    {
      "inputs": [
        {
          "internalType": "uint256",
          "name": "id_",
          "type": "uint256"
        }
      ],
      "name": "approve",
      "outputs": [],
      "stateMutability": "nonpayable",
      "type": "function"
    },
    {
      "inputs": [
        {
          "internalType": "uint256",
          "name": "id_",
          "type": "uint256"
        }
      ],
      "name": "ban",
      "outputs": [],
      "stateMutability": "nonpayable",
      "type": "function"
    },
    {
      "inputs": [
        {
          "internalType": "bytes32",
          "name": "role",
          "type": "bytes32"
        }
      ],
      "name": "getRoleAdmin",
      "outputs": [
        {
          "internalType": "bytes32",
          "name": "",
          "type": "bytes32"
        }
      ],
      "stateMutability": "view",
      "type": "function"
    },
    {
      "inputs": [
        {
          "internalType": "bytes32",
          "name": "role",
          "type": "bytes32"
        },
        {
          "internalType": "uint256",
          "name": "index",
          "type": "uint256"
        }
      ],
      "name": "getRoleMember",
      "outputs": [
        {
          "internalType": "address",
          "name": "",
          "type": "address"
        }
      ],
      "stateMutability": "view",
      "type": "function"
    },
    {
      "inputs": [
        {
          "internalType": "bytes32",
          "name": "role",
          "type": "bytes32"
        }
      ],
      "name": "getRoleMemberCount",
      "outputs": [
        {
          "internalType": "uint256",
          "name": "",
          "type": "uint256"
        }
      ],
      "stateMutability": "view",
      "type": "function"
    },
    {
      "inputs": [
        {
          "internalType": "bytes32",
          "name": "role",
          "type": "bytes32"
        },
        {
          "internalType": "address",
          "name": "account",
          "type": "address"
        }
      ],
      "name": "grantRole",
      "outputs": [],
      "stateMutability": "nonpayable",
      "type": "function"
    },
    {
      "inputs": [
        {
          "internalType": "bytes32",
          "name": "role",
          "type": "bytes32"
        },
        {
          "internalType": "address",
          "name": "account",
          "type": "address"
        }
      ],
      "name": "hasRole",
      "outputs": [
        {
          "internalType": "bool",
          "name": "",
          "type": "bool"
        }
      ],
      "stateMutability": "view",
      "type": "function"
    },
    {
      "inputs": [
        {
          "internalType": "address",
          "name": "",
          "type": "address"
        }
      ],
      "name": "ids",
      "outputs": [
        {
          "internalType": "uint256",
          "name": "",
          "type": "uint256"
        }
      ],
      "stateMutability": "view",
      "type": "function"
    },
    {
      "inputs": [
        {
          "internalType": "address",
          "name": "account_",
          "type": "address"
        }
      ],
      "name": "remove",
      "outputs": [],
      "stateMutability": "nonpayable",
      "type": "function"
    },
    {
      "inputs": [
        {
          "internalType": "bytes32",
          "name": "role",
          "type": "bytes32"
        },
        {
          "internalType": "address",
          "name": "account",
          "type": "address"
        }
      ],
      "name": "renounceRole",
      "outputs": [],
      "stateMutability": "nonpayable",
      "type": "function"
    },
    {
      "inputs": [
        {
          "internalType": "bytes32",
          "name": "role",
          "type": "bytes32"
        },
        {
          "internalType": "address",
          "name": "account",
          "type": "address"
        }
      ],
      "name": "revokeRole",
      "outputs": [],
      "stateMutability": "nonpayable",
      "type": "function"
    },
    {
      "inputs": [
        {
          "internalType": "address",
          "name": "account_",
          "type": "address"
        }
      ],
      "name": "state",
      "outputs": [
        {
          "components": [
            {
              "internalType": "enum Status",
              "name": "status",
              "type": "uint8"
            },
            {
              "internalType": "uint32",
              "name": "since",
              "type": "uint32"
            }
          ],
          "internalType": "struct State",
          "name": "",
          "type": "tuple"
        }
      ],
      "stateMutability": "view",
      "type": "function"
    },
    {
      "inputs": [
        {
          "internalType": "uint256",
          "name": "",
          "type": "uint256"
        }
      ],
      "name": "states",
      "outputs": [
        {
          "internalType": "enum Status",
          "name": "status",
          "type": "uint8"
        },
        {
          "internalType": "uint32",
          "name": "since",
          "type": "uint32"
        }
      ],
      "stateMutability": "view",
      "type": "function"
    }
  ],
  "bytecode": "0x60806040523480156200001157600080fd5b50604051620017a4380380620017a48339810160408190526200003491620002d5565b6001600160a01b038116620000665760405162461bcd60e51b81526004016200005d9062000305565b60405180910390fd5b620000a17f5ff1fb0ce9089603e6e193667ed17164e0360a6148f4a39fc194055588948a31600080516020620017448339815191526200016f565b620000bc6000805160206200174483398151915282620001c1565b620000f77f794e4221ebb6dd4e460d558b4ec709511d44017d6610ba89daa896c0684ddfac600080516020620017848339815191526200016f565b620001126000805160206200178483398151915282620001c1565b6200014d7f5a686c9d070917be517818979fb56f451f007e3ae83e96fb5a22a304929b070d600080516020620017648339815191526200016f565b620001686000805160206200176483398151915282620001c1565b5062000328565b600082815260208190526040808220600201549051839285917fbd79b86ffe0ab8e8776151514217cd7cacd52c909f66475c3af44e129f0b00ff9190a460009182526020829052604090912060020155565b620001cd8282620001d1565b5050565b600082815260208181526040909120620001f691839062000c886200024a821b17901c565b15620001cd57620002066200026a565b6001600160a01b0316816001600160a01b0316837f2f8788117e7eff1d82e926ec794901d17c78024a50270940304540a733656f0d60405160405180910390a45050565b600062000261836001600160a01b0384166200026e565b90505b92915050565b3390565b60006200027c8383620002bd565b620002b45750815460018181018455600084815260208082209093018490558454848252828601909352604090209190915562000264565b50600062000264565b60009081526001919091016020526040902054151590565b600060208284031215620002e7578081fd5b81516001600160a01b0381168114620002fe578182fd5b9392505050565b6020808252600990820152680c17d050d0d3d5539560ba1b604082015260600190565b61140c80620003386000396000f3fe608060405234801561001057600080fd5b50600436106101775760003560e01c80633d111c7e116100d857806391d148541161008c578063b8c55bfa11610066578063b8c55bfa146102dd578063ca15c873146102e5578063d547741f146102f857610177565b806391d14854146102a2578063a217fddf146102c2578063b759f954146102ca57610177565b80637547a867116100bd5780637547a8671461027257806381792e441461027a5780639010d07c1461028257610177565b80633d111c7e146102575780636b6ece261461025f57610177565b8063248a9ca31161012f5780632f2ff15d116101145780632f2ff15d1461021157806331e658a51461022457806336568abe1461024457610177565b8063248a9ca3146101eb57806329092d0e146101fe57610177565b8063100ec99811610160578063100ec998146101bb5780631847c06b146101d05780631e210912146101e357610177565b8063017a91051461017c5780631003e2d2146101a6575b600080fd5b61018f61018a36600461100a565b61030b565b60405161019d9291906110bf565b60405180910390f35b6101b96101b436600461100a565b61032d565b005b6101c36104b7565b60405161019d91906110b6565b6101c36101de366004610fcf565b6104db565b6101c36104ed565b6101c36101f936600461100a565b610511565b6101b961020c366004610fcf565b610526565b6101b961021f366004611022565b610612565b610237610232366004610fcf565b610674565b60405161019d919061139f565b6101b9610252366004611022565b6106f0565b6101c3610766565b6101b961026d36600461100a565b61078a565b6101c361099a565b6101c36109be565b610295610290366004611069565b6109e2565b60405161019d919061108a565b6102b56102b0366004611022565b610a03565b60405161019d91906110ab565b6101c3610a1b565b6101b96102d836600461100a565b610a20565b6101c3610bf9565b6101c36102f336600461100a565b610c1d565b6101b9610306366004611022565b610c34565b60026020526000908152604090205460ff811690610100900463ffffffff1682565b336000908152600160205260409020541561037d576040517f08c379a00000000000000000000000000000000000000000000000000000000081526004016103749061130b565b60405180910390fd5b600160008281526002602052604090205460ff16600381111561039c57fe5b106103d3576040517f08c379a0000000000000000000000000000000000000000000000000000000008152600401610374906112d4565b3360009081526001602081905260409182902083905581518083019092528190815263ffffffff431660209182015260008381526002909152604090208151815482907fffffffffffffffffffffffffffffffffffffffffffffffffffffffffffffff0016600183600381111561044657fe5b021790555060209190910151815463ffffffff909116610100027fffffffffffffffffffffffffffffffffffffffffffffffffffffff00000000ff909116179055604051819033907f2728c9d3205d667bbc0eefdfeda366261b4d021949630c047f3e5834b30611ab90600090a350565b7f9d65f741849e7609dd1e2c70f0d7da5f5433b36bfcf3ba4d27d2bb08ad2155b181565b60016020526000908152604090205481565b7f2d4d1d70bd81797c3479f5c3f873a5c9203d249659c3b317cdad46367472783c81565b60009081526020819052604090206002015490565b6105507f794e4221ebb6dd4e460d558b4ec709511d44017d6610ba89daa896c0684ddfac33610a03565b610586576040517f08c379a00000000000000000000000000000000000000000000000000000000081526004016103749061119b565b73ffffffffffffffffffffffffffffffffffffffff81166000818152600160208181526040808420805485526002835281852080547fffffffffffffffffffffffffffffffffffffffffffffffffffffff00000000001690558585529290915290829055517fbe7c7ac3248df4581c206a84aab3cb4e7d521b5398b42b681757f78a5a7d411e9190a250565b600082815260208190526040902060020154610630906102b0610caa565b610666576040517f08c379a00000000000000000000000000000000000000000000000000000000081526004016103749061113e565b6106708282610cae565b5050565b61067c610fb8565b73ffffffffffffffffffffffffffffffffffffffff8216600090815260016020908152604080832054835260029091529081902081518083019092528054829060ff1660038111156106ca57fe5b60038111156106d557fe5b81529054610100900463ffffffff1660209091015292915050565b6106f8610caa565b73ffffffffffffffffffffffffffffffffffffffff168173ffffffffffffffffffffffffffffffffffffffff161461075c576040517f08c379a000000000000000000000000000000000000000000000000000000000815260040161037490611342565b6106708282610d31565b7f5ff1fb0ce9089603e6e193667ed17164e0360a6148f4a39fc194055588948a3181565b806107c1576040517f08c379a0000000000000000000000000000000000000000000000000000000008152600401610374906111d2565b6107eb7f5a686c9d070917be517818979fb56f451f007e3ae83e96fb5a22a304929b070d33610a03565b610821576040517f08c379a00000000000000000000000000000000000000000000000000000000081526004016103749061129d565b60008181526002602052604081205460ff16600381111561083e57fe5b11610875576040517f08c379a0000000000000000000000000000000000000000000000000000000008152600401610374906112d4565b600360008281526002602052604090205460ff16600381111561089457fe5b106108cb576040517f08c379a0000000000000000000000000000000000000000000000000000000008152600401610374906112d4565b60408051808201909152806003815263ffffffff431660209182015260008381526002909152604090208151815482907fffffffffffffffffffffffffffffffffffffffffffffffffffffffffffffff0016600183600381111561092b57fe5b021790555060209190910151815463ffffffff909116610100027fffffffffffffffffffffffffffffffffffffffffffffffffffffff00000000ff90911617905560405181907f10c91cab40bd045b8ac5fdc1ca69bfc3f8a63ab08131495a922b3653382187f690600090a250565b7f794e4221ebb6dd4e460d558b4ec709511d44017d6610ba89daa896c0684ddfac81565b7fbb496ca6fee71a17f78592fbc6fc7f04a436edb9c709c4289d6bbfbc5fd45f4d81565b60008281526020819052604081206109fa9083610db4565b90505b92915050565b60008281526020819052604081206109fa9083610dc0565b600081565b610a4a7f5ff1fb0ce9089603e6e193667ed17164e0360a6148f4a39fc194055588948a3133610a03565b610a80576040517f08c379a000000000000000000000000000000000000000000000000000000000815260040161037490611209565b60008181526002602052604081205460ff166003811115610a9d57fe5b11610ad4576040517f08c379a0000000000000000000000000000000000000000000000000000000008152600401610374906112d4565b600260008281526002602052604090205460ff166003811115610af357fe5b10610b2a576040517f08c379a0000000000000000000000000000000000000000000000000000000008152600401610374906112d4565b60408051808201909152806002815263ffffffff431660209182015260008381526002909152604090208151815482907fffffffffffffffffffffffffffffffffffffffffffffffffffffffffffffff00166001836003811115610b8a57fe5b021790555060209190910151815463ffffffff909116610100027fffffffffffffffffffffffffffffffffffffffffffffffffffffff00000000ff90911617905560405181907f77b92c0722e5bbe8d1413b7fbec6093bc4dc966a65832498dc8c2c67d9a937cc90600090a250565b7f5a686c9d070917be517818979fb56f451f007e3ae83e96fb5a22a304929b070d81565b60008181526020819052604081206109fd90610de2565b600082815260208190526040902060020154610c52906102b0610caa565b61075c576040517f08c379a000000000000000000000000000000000000000000000000000000000815260040161037490611240565b60006109fa8373ffffffffffffffffffffffffffffffffffffffff8416610ded565b3390565b6000828152602081905260409020610cc69082610c88565b1561067057610cd3610caa565b73ffffffffffffffffffffffffffffffffffffffff168173ffffffffffffffffffffffffffffffffffffffff16837f2f8788117e7eff1d82e926ec794901d17c78024a50270940304540a733656f0d60405160405180910390a45050565b6000828152602081905260409020610d499082610e37565b1561067057610d56610caa565b73ffffffffffffffffffffffffffffffffffffffff168173ffffffffffffffffffffffffffffffffffffffff16837ff6391f5c32d9c69d2a47ea670b442974b53935d1edc7fd64eb21e047a839171b60405160405180910390a45050565b60006109fa8383610e59565b60006109fa8373ffffffffffffffffffffffffffffffffffffffff8416610eb8565b60006109fd82610ed0565b6000610df98383610eb8565b610e2f575081546001818101845560008481526020808220909301849055845484825282860190935260409020919091556109fd565b5060006109fd565b60006109fa8373ffffffffffffffffffffffffffffffffffffffff8416610ed4565b81546000908210610e96576040517f08c379a0000000000000000000000000000000000000000000000000000000008152600401610374906110e1565b826000018281548110610ea557fe5b9060005260206000200154905092915050565b60009081526001919091016020526040902054151590565b5490565b60008181526001830160205260408120548015610fae5783547fffffffffffffffffffffffffffffffffffffffffffffffffffffffffffffffff8083019190810190600090879083908110610f2557fe5b9060005260206000200154905080876000018481548110610f4257fe5b600091825260208083209091019290925582815260018981019092526040902090840190558654879080610f7257fe5b600190038181906000526020600020016000905590558660010160008781526020019081526020016000206000905560019450505050506109fd565b60009150506109fd565b604080518082019091526000808252602082015290565b600060208284031215610fe0578081fd5b813573ffffffffffffffffffffffffffffffffffffffff81168114611003578182fd5b9392505050565b60006020828403121561101b578081fd5b5035919050565b60008060408385031215611034578081fd5b82359150602083013573ffffffffffffffffffffffffffffffffffffffff8116811461105e578182fd5b809150509250929050565b6000806040838503121561107b578182fd5b50508035926020909101359150565b73ffffffffffffffffffffffffffffffffffffffff91909116815260200190565b901515815260200190565b90815260200190565b604081016110cc846113c9565b92815263ffffffff9190911660209091015290565b60208082526022908201527f456e756d657261626c655365743a20696e646578206f7574206f6620626f756e60408201527f6473000000000000000000000000000000000000000000000000000000000000606082015260800190565b6020808252602f908201527f416363657373436f6e74726f6c3a2073656e646572206d75737420626520616e60408201527f2061646d696e20746f206772616e740000000000000000000000000000000000606082015260800190565b6020808252600c908201527f4f4e4c595f52454d4f5645520000000000000000000000000000000000000000604082015260600190565b60208082526004908201527f305f494400000000000000000000000000000000000000000000000000000000604082015260600190565b6020808252600d908201527f4f4e4c595f415050524f56455200000000000000000000000000000000000000604082015260600190565b60208082526030908201527f416363657373436f6e74726f6c3a2073656e646572206d75737420626520616e60408201527f2061646d696e20746f207265766f6b6500000000000000000000000000000000606082015260800190565b6020808252600b908201527f4f4e4c595f42414e4e4552000000000000000000000000000000000000000000604082015260600190565b6020808252600e908201527f43555252454e545f535441545553000000000000000000000000000000000000604082015260600190565b6020808252600c908201527f4f56455257524954455f49440000000000000000000000000000000000000000604082015260600190565b6020808252602f908201527f416363657373436f6e74726f6c3a2063616e206f6e6c792072656e6f756e636560408201527f20726f6c657320666f722073656c660000000000000000000000000000000000606082015260800190565b815160408201906113af816113c9565b8083525063ffffffff602084015116602083015292915050565b600481106113d357fe5b5056fea264697066735822122042b505f21668e5fedb14cb01442d88168a4c0a7c16d3a75dc39f40a72b81a71164736f6c634300060c00332d4d1d70bd81797c3479f5c3f873a5c9203d249659c3b317cdad46367472783cbb496ca6fee71a17f78592fbc6fc7f04a436edb9c709c4289d6bbfbc5fd45f4d9d65f741849e7609dd1e2c70f0d7da5f5433b36bfcf3ba4d27d2bb08ad2155b1",
  "linkReferences": {},
  "deployedLinkReferences": {}
}