{
  "_format": "hh-sol-artifact-1",
  "contractName": "PrestigeByConstruction",
  "sourceName": "contracts/tv-prestige/contracts/PrestigeByConstruction.sol",
  "abi": [
    {
      "inputs": [
        {
          "internalType": "contract IPrestige",
          "name": "_prestige",
          "type": "address"
        }
      ],
      "stateMutability": "nonpayable",
      "type": "constructor"
    },
    {
      "inputs": [],
      "name": "constructionBlock",
      "outputs": [
        {
          "internalType": "uint256",
          "name": "",
          "type": "uint256"
        }
      ],
      "stateMutability": "view",
      "type": "function"
    },
    {
      "inputs": [
        {
          "internalType": "address",
          "name": "account",
          "type": "address"
        },
        {
          "internalType": "enum IPrestige.Status",
          "name": "status",
          "type": "uint8"
        }
      ],
      "name": "isStatus",
      "outputs": [
        {
          "internalType": "bool",
          "name": "",
          "type": "bool"
        }
      ],
      "stateMutability": "view",
      "type": "function"
    },
    {
      "inputs": [],
      "name": "prestige",
      "outputs": [
        {
          "internalType": "contract IPrestige",
          "name": "",
          "type": "address"
        }
      ],
      "stateMutability": "view",
      "type": "function"
    }
  ],
  "bytecode": "0x608060405234801561001057600080fd5b506040516102b13803806102b18339818101604052602081101561003357600080fd5b5051600080546001600160a01b039092166001600160a01b031990921691909117905543600155610248806100696000396000f3fe608060405234801561001057600080fd5b50600436106100415760003560e01c80630f0af57f146100465780632471bc3e146100605780639c7081df146100b0575b600080fd5b61004e6100e1565b60408051918252519081900360200190f35b61009c6004803603604081101561007657600080fd5b50803573ffffffffffffffffffffffffffffffffffffffff16906020013560ff166100e7565b604080519115158252519081900360200190f35b6100b86101b2565b6040805173ffffffffffffffffffffffffffffffffffffffff9092168252519081900360200190f35b60015481565b60008054604080517fd865a5c800000000000000000000000000000000000000000000000000000000815273ffffffffffffffffffffffffffffffffffffffff868116600483015291518493929092169163d865a5c891602480820192602092909190829003018186803b15801561015e57600080fd5b505afa158015610172573d6000803e3d6000fd5b505050506040513d602081101561018857600080fd5b5051905060006101a38285600881111561019e57fe5b6101ce565b60015411925050505b92915050565b60005473ffffffffffffffffffffffffffffffffffffffff1681565b6000816101dd575060006101ac565b5063ffffffff60207fffffffffffffffffffffffffffffffffffffffffffffffffffffffffffffffff83010283901c166101ac56fea2646970667358221220dc7df0e9e878ddc640c9746fade67c2cb730b098d897e7ac1809bb5a833e613b64736f6c634300060c0033",
  "linkReferences": {},
  "deployedLinkReferences": {}
}