{
  "_format": "hh-sol-artifact-1",
  "contractName": "RedeemableERC20",
  "sourceName": "contracts/RedeemableERC20.sol",
  "abi": [
    {
      "inputs": [
        {
          "components": [
            {
              "internalType": "string",
              "name": "name",
              "type": "string"
            },
            {
              "internalType": "string",
              "name": "symbol",
              "type": "string"
            },
            {
              "internalType": "contract IPrestige",
              "name": "prestige",
              "type": "address"
            },
            {
              "internalType": "enum IPrestige.Status",
              "name": "minimumStatus",
              "type": "uint8"
            },
            {
              "internalType": "uint256",
              "name": "totalSupply",
              "type": "uint256"
            }
          ],
          "internalType": "struct RedeemableERC20Config",
          "name": "config_",
          "type": "tuple"
        }
      ],
      "stateMutability": "nonpayable",
      "type": "constructor"
    },
    {
      "anonymous": false,
      "inputs": [
        {
          "indexed": true,
          "internalType": "address",
          "name": "owner",
          "type": "address"
        },
        {
          "indexed": true,
          "internalType": "address",
          "name": "spender",
          "type": "address"
        },
        {
          "indexed": false,
          "internalType": "uint256",
          "name": "value",
          "type": "uint256"
        }
      ],
      "name": "Approval",
      "type": "event"
    },
    {
      "anonymous": false,
      "inputs": [
        {
          "indexed": true,
          "internalType": "uint32",
          "name": "newPhaseBlock_",
          "type": "uint32"
        }
      ],
      "name": "PhaseShiftScheduled",
      "type": "event"
    },
    {
      "anonymous": false,
      "inputs": [
        {
          "indexed": true,
          "internalType": "address",
          "name": "redeemer",
          "type": "address"
        },
        {
          "indexed": true,
          "internalType": "address",
          "name": "redeemable",
          "type": "address"
        },
        {
          "indexed": false,
          "internalType": "uint256[2]",
          "name": "redeemAmounts",
          "type": "uint256[2]"
        }
      ],
      "name": "Redeem",
      "type": "event"
    },
    {
      "anonymous": false,
      "inputs": [
        {
          "indexed": true,
          "internalType": "bytes32",
          "name": "role",
          "type": "bytes32"
        },
        {
          "indexed": true,
          "internalType": "bytes32",
          "name": "previousAdminRole",
          "type": "bytes32"
        },
        {
          "indexed": true,
          "internalType": "bytes32",
          "name": "newAdminRole",
          "type": "bytes32"
        }
      ],
      "name": "RoleAdminChanged",
      "type": "event"
    },
    {
      "anonymous": false,
      "inputs": [
        {
          "indexed": true,
          "internalType": "bytes32",
          "name": "role",
          "type": "bytes32"
        },
        {
          "indexed": true,
          "internalType": "address",
          "name": "account",
          "type": "address"
        },
        {
          "indexed": true,
          "internalType": "address",
          "name": "sender",
          "type": "address"
        }
      ],
      "name": "RoleGranted",
      "type": "event"
    },
    {
      "anonymous": false,
      "inputs": [
        {
          "indexed": true,
          "internalType": "bytes32",
          "name": "role",
          "type": "bytes32"
        },
        {
          "indexed": true,
          "internalType": "address",
          "name": "account",
          "type": "address"
        },
        {
          "indexed": true,
          "internalType": "address",
          "name": "sender",
          "type": "address"
        }
      ],
      "name": "RoleRevoked",
      "type": "event"
    },
    {
      "anonymous": false,
      "inputs": [
        {
          "indexed": true,
          "internalType": "address",
          "name": "from",
          "type": "address"
        },
        {
          "indexed": true,
          "internalType": "address",
          "name": "to",
          "type": "address"
        },
        {
          "indexed": false,
          "internalType": "uint256",
          "name": "value",
          "type": "uint256"
        }
      ],
      "name": "Transfer",
      "type": "event"
    },
    {
      "inputs": [],
      "name": "DEFAULT_ADMIN_ROLE",
      "outputs": [
        {
          "internalType": "bytes32",
          "name": "",
          "type": "bytes32"
        }
      ],
      "stateMutability": "view",
      "type": "function"
    },
    {
      "inputs": [],
      "name": "MAX_REDEEMABLES",
      "outputs": [
        {
          "internalType": "uint8",
          "name": "",
          "type": "uint8"
        }
      ],
      "stateMutability": "view",
      "type": "function"
    },
    {
      "inputs": [],
      "name": "MINIMUM_INITIAL_SUPPLY",
      "outputs": [
        {
          "internalType": "uint256",
          "name": "",
          "type": "uint256"
        }
      ],
      "stateMutability": "view",
      "type": "function"
    },
    {
      "inputs": [],
      "name": "RECEIVER",
      "outputs": [
        {
          "internalType": "bytes32",
          "name": "",
          "type": "bytes32"
        }
      ],
      "stateMutability": "view",
      "type": "function"
    },
    {
      "inputs": [],
      "name": "SENDER",
      "outputs": [
        {
          "internalType": "bytes32",
          "name": "",
          "type": "bytes32"
        }
      ],
      "stateMutability": "view",
      "type": "function"
    },
    {
      "inputs": [],
      "name": "UNINITIALIZED",
      "outputs": [
        {
          "internalType": "uint32",
          "name": "",
          "type": "uint32"
        }
      ],
      "stateMutability": "view",
      "type": "function"
    },
    {
      "inputs": [
        {
          "internalType": "contract IERC20",
          "name": "newRedeemable_",
          "type": "address"
        }
      ],
      "name": "adminAddRedeemable",
      "outputs": [],
      "stateMutability": "nonpayable",
      "type": "function"
    },
    {
      "inputs": [
        {
          "internalType": "address",
          "name": "distributorAccount_",
          "type": "address"
        }
      ],
      "name": "adminBurnDistributor",
      "outputs": [],
      "stateMutability": "nonpayable",
      "type": "function"
    },
    {
      "inputs": [
        {
          "internalType": "address",
          "name": "owner",
          "type": "address"
        },
        {
          "internalType": "address",
          "name": "spender",
          "type": "address"
        }
      ],
      "name": "allowance",
      "outputs": [
        {
          "internalType": "uint256",
          "name": "",
          "type": "uint256"
        }
      ],
      "stateMutability": "view",
      "type": "function"
    },
    {
      "inputs": [
        {
          "internalType": "address",
          "name": "spender",
          "type": "address"
        },
        {
          "internalType": "uint256",
          "name": "amount",
          "type": "uint256"
        }
      ],
      "name": "approve",
      "outputs": [
        {
          "internalType": "bool",
          "name": "",
          "type": "bool"
        }
      ],
      "stateMutability": "nonpayable",
      "type": "function"
    },
    {
      "inputs": [
        {
          "internalType": "address",
          "name": "account",
          "type": "address"
        }
      ],
      "name": "balanceOf",
      "outputs": [
        {
          "internalType": "uint256",
          "name": "",
          "type": "uint256"
        }
      ],
      "stateMutability": "view",
      "type": "function"
    },
    {
      "inputs": [
        {
          "internalType": "uint32[8]",
          "name": "phaseBlocks_",
          "type": "uint32[8]"
        },
        {
          "internalType": "enum Phase",
          "name": "phase_",
          "type": "uint8"
        }
      ],
      "name": "blockNumberForPhase",
      "outputs": [
        {
          "internalType": "uint32",
          "name": "",
          "type": "uint32"
        }
      ],
      "stateMutability": "pure",
      "type": "function"
    },
    {
      "inputs": [
        {
          "internalType": "uint256",
          "name": "amount",
          "type": "uint256"
        }
      ],
      "name": "burn",
      "outputs": [],
      "stateMutability": "nonpayable",
      "type": "function"
    },
    {
      "inputs": [
        {
          "internalType": "address",
          "name": "account",
          "type": "address"
        },
        {
          "internalType": "uint256",
          "name": "amount",
          "type": "uint256"
        }
      ],
      "name": "burnFrom",
      "outputs": [],
      "stateMutability": "nonpayable",
      "type": "function"
    },
    {
      "inputs": [],
      "name": "constructionBlock",
      "outputs": [
        {
          "internalType": "uint256",
          "name": "",
          "type": "uint256"
        }
      ],
      "stateMutability": "view",
      "type": "function"
    },
    {
      "inputs": [],
      "name": "currentPhase",
      "outputs": [
        {
          "internalType": "enum Phase",
          "name": "",
          "type": "uint8"
        }
      ],
      "stateMutability": "view",
      "type": "function"
    },
    {
      "inputs": [],
      "name": "decimals",
      "outputs": [
        {
          "internalType": "uint8",
          "name": "",
          "type": "uint8"
        }
      ],
      "stateMutability": "view",
      "type": "function"
    },
    {
      "inputs": [
        {
          "internalType": "address",
          "name": "spender",
          "type": "address"
        },
        {
          "internalType": "uint256",
          "name": "subtractedValue",
          "type": "uint256"
        }
      ],
      "name": "decreaseAllowance",
      "outputs": [
        {
          "internalType": "bool",
          "name": "",
          "type": "bool"
        }
      ],
      "stateMutability": "nonpayable",
      "type": "function"
    },
    {
      "inputs": [],
      "name": "getRedeemables",
      "outputs": [
        {
          "internalType": "address[8]",
          "name": "",
          "type": "address[8]"
        }
      ],
      "stateMutability": "view",
      "type": "function"
    },
    {
      "inputs": [
        {
          "internalType": "bytes32",
          "name": "role",
          "type": "bytes32"
        }
      ],
      "name": "getRoleAdmin",
      "outputs": [
        {
          "internalType": "bytes32",
          "name": "",
          "type": "bytes32"
        }
      ],
      "stateMutability": "view",
      "type": "function"
    },
    {
      "inputs": [
        {
          "internalType": "bytes32",
          "name": "role",
          "type": "bytes32"
        },
        {
          "internalType": "uint256",
          "name": "index",
          "type": "uint256"
        }
      ],
      "name": "getRoleMember",
      "outputs": [
        {
          "internalType": "address",
          "name": "",
          "type": "address"
        }
      ],
      "stateMutability": "view",
      "type": "function"
    },
    {
      "inputs": [
        {
          "internalType": "bytes32",
          "name": "role",
          "type": "bytes32"
        }
      ],
      "name": "getRoleMemberCount",
      "outputs": [
        {
          "internalType": "uint256",
          "name": "",
          "type": "uint256"
        }
      ],
      "stateMutability": "view",
      "type": "function"
    },
    {
      "inputs": [
        {
          "internalType": "bytes32",
          "name": "role",
          "type": "bytes32"
        },
        {
          "internalType": "address",
          "name": "account",
          "type": "address"
        }
      ],
      "name": "grantRole",
      "outputs": [],
      "stateMutability": "nonpayable",
      "type": "function"
    },
    {
      "inputs": [
        {
          "internalType": "bytes32",
          "name": "role",
          "type": "bytes32"
        },
        {
          "internalType": "address",
          "name": "account",
          "type": "address"
        }
      ],
      "name": "hasRole",
      "outputs": [
        {
          "internalType": "bool",
          "name": "",
          "type": "bool"
        }
      ],
      "stateMutability": "view",
      "type": "function"
    },
    {
      "inputs": [
        {
          "internalType": "address",
          "name": "spender",
          "type": "address"
        },
        {
          "internalType": "uint256",
          "name": "addedValue",
          "type": "uint256"
        }
      ],
      "name": "increaseAllowance",
      "outputs": [
        {
          "internalType": "bool",
          "name": "",
          "type": "bool"
        }
      ],
      "stateMutability": "nonpayable",
      "type": "function"
    },
    {
      "inputs": [
        {
          "internalType": "address",
          "name": "account",
          "type": "address"
        },
        {
          "internalType": "enum IPrestige.Status",
          "name": "status",
          "type": "uint8"
        }
      ],
      "name": "isStatus",
      "outputs": [
        {
          "internalType": "bool",
          "name": "",
          "type": "bool"
        }
      ],
      "stateMutability": "view",
      "type": "function"
    },
    {
      "inputs": [],
      "name": "minimumPrestigeStatus",
      "outputs": [
        {
          "internalType": "enum IPrestige.Status",
          "name": "",
          "type": "uint8"
        }
      ],
      "stateMutability": "view",
      "type": "function"
    },
    {
      "inputs": [],
      "name": "name",
      "outputs": [
        {
          "internalType": "string",
          "name": "",
          "type": "string"
        }
      ],
      "stateMutability": "view",
      "type": "function"
    },
    {
      "inputs": [
        {
          "internalType": "uint32[8]",
          "name": "phaseBlocks_",
          "type": "uint32[8]"
        },
        {
          "internalType": "uint32",
          "name": "blockNumber_",
          "type": "uint32"
        }
      ],
      "name": "phaseAtBlockNumber",
      "outputs": [
        {
          "internalType": "enum Phase",
          "name": "",
          "type": "uint8"
        }
      ],
      "stateMutability": "pure",
      "type": "function"
    },
    {
      "inputs": [
        {
          "internalType": "uint256",
          "name": "",
          "type": "uint256"
        }
      ],
      "name": "phaseBlocks",
      "outputs": [
        {
          "internalType": "uint32",
          "name": "",
          "type": "uint32"
        }
      ],
      "stateMutability": "view",
      "type": "function"
    },
    {
      "inputs": [],
      "name": "prestige",
      "outputs": [
        {
          "internalType": "contract IPrestige",
          "name": "",
          "type": "address"
        }
      ],
      "stateMutability": "view",
      "type": "function"
    },
    {
      "inputs": [
        {
          "internalType": "uint256",
          "name": "redeemAmount_",
          "type": "uint256"
        }
      ],
      "name": "redeem",
      "outputs": [],
      "stateMutability": "nonpayable",
      "type": "function"
    },
    {
      "inputs": [
        {
          "internalType": "contract IERC20[]",
          "name": "specificRedeemables_",
          "type": "address[]"
        },
        {
          "internalType": "uint256",
          "name": "redeemAmount_",
          "type": "uint256"
        }
      ],
      "name": "redeemSpecific",
      "outputs": [],
      "stateMutability": "nonpayable",
      "type": "function"
    },
    {
      "inputs": [
        {
          "internalType": "bytes32",
          "name": "role",
          "type": "bytes32"
        },
        {
          "internalType": "address",
          "name": "account",
          "type": "address"
        }
      ],
      "name": "renounceRole",
      "outputs": [],
      "stateMutability": "nonpayable",
      "type": "function"
    },
    {
      "inputs": [
        {
          "internalType": "bytes32",
          "name": "role",
          "type": "bytes32"
        },
        {
          "internalType": "address",
          "name": "account",
          "type": "address"
        }
      ],
      "name": "revokeRole",
      "outputs": [],
      "stateMutability": "nonpayable",
      "type": "function"
    },
    {
      "inputs": [],
      "name": "symbol",
      "outputs": [
        {
          "internalType": "string",
          "name": "",
          "type": "string"
        }
      ],
      "stateMutability": "view",
      "type": "function"
    },
    {
      "inputs": [],
      "name": "totalSupply",
      "outputs": [
        {
          "internalType": "uint256",
          "name": "",
          "type": "uint256"
        }
      ],
      "stateMutability": "view",
      "type": "function"
    },
    {
      "inputs": [
        {
          "internalType": "address",
          "name": "recipient",
          "type": "address"
        },
        {
          "internalType": "uint256",
          "name": "amount",
          "type": "uint256"
        }
      ],
      "name": "transfer",
      "outputs": [
        {
          "internalType": "bool",
          "name": "",
          "type": "bool"
        }
      ],
      "stateMutability": "nonpayable",
      "type": "function"
    },
    {
      "inputs": [
        {
          "internalType": "address",
          "name": "sender",
          "type": "address"
        },
        {
          "internalType": "address",
          "name": "recipient",
          "type": "address"
        },
        {
          "internalType": "uint256",
          "name": "amount",
          "type": "uint256"
        }
      ],
      "name": "transferFrom",
      "outputs": [
        {
          "internalType": "bool",
          "name": "",
          "type": "bool"
        }
      ],
      "stateMutability": "nonpayable",
      "type": "function"
    }
  ],
  "bytecode": "0x61018060405263ffffffff608081815260a082905260c082905260e08290526101008290526101208290526101408290526101609190915262000047906001906008620006e2565b503480156200005557600080fd5b5060405162003a4d38038062003a4d8339810160408190526200007891620008f2565b80516020808301516040840151600280546001600160a01b0319166001600160a01b039092169190911790554360035582519091620000bd9160079185019062000785565b508051620000d390600890602084019062000785565b50506009805460ff19166012179055506001600a556080810151670de0b6b3a76400001115620001205760405162461bcd60e51b8152600401620001179062000a90565b60405180910390fd5b6060810151600c805460ff191660018360088111156200013c57fe5b02179055506200014e60003362000186565b6200016960008051602062003a2d8339815191523362000186565b6200017f3382608001516200019660201b60201c565b5062000b2e565b6200019282826200027b565b5050565b6001600160a01b038216620001bf5760405162461bcd60e51b8152600401620001179062000ac7565b620001cd60008383620002f4565b620001e9816006546200044160201b620012a51790919060201c565b6006556001600160a01b0382166000908152600460209081526040909120546200021e918390620012a562000441821b17901c565b6001600160a01b0383166000818152600460205260408082209390935591519091907fddf252ad1be2c89b69c2b068fc378daa952ba7f163c4a11628f55a4df523b3ef906200026f90859062000afe565b60405180910390a35050565b600082815260208181526040909120620002a0918390620012e462000472821b17901c565b156200019257620002b062000489565b6001600160a01b0316816001600160a01b0316837f2f8788117e7eff1d82e926ec794901d17c78024a50270940304540a733656f0d60405160405180910390a45050565b6200030c8383836200043c60201b62000d981760201c565b6001600160a01b038216301415620003385760405162461bcd60e51b8152600401620001179062000a43565b600081118015620003945750620003707fcf2b1209506b76f140fb1bc5fe66d6e42627c4b9703a951d65552f50f14c9ee7846200048d565b806200039257506200039260008051602062003a2d833981519152836200048d565b155b156200043c576000620003a6620004b1565b6008811115620003b257fe5b1415620003f157600c54620003cc90839060ff1662000520565b620003eb5760405162461bcd60e51b8152600401620001179062000a6c565b6200043c565b6001620003fd620004b1565b60088111156200040957fe5b14156200043a576001600160a01b03821615620003eb5760405162461bcd60e51b8152600401620001179062000a23565bfe5b505050565b600082820183811015620004695760405162461bcd60e51b81526004016200011790620009ec565b90505b92915050565b600062000469836001600160a01b038416620005df565b3390565b600082815260208181526040822062000469918490620013066200062e821b17901c565b604080516101008101918290526000916200051b91906001906008908286855b82829054906101000a900463ffffffff1663ffffffff1681526020019060040190602082600301049283019260010382029150808411620004d15750439450506200064592505050565b905090565b600254604051631b0cb4b960e31b815260009182916001600160a01b039091169063d865a5c89062000557908790600401620009d8565b60206040518083038186803b1580156200057057600080fd5b505afa15801562000585573d6000803e3d6000fd5b505050506040513d601f19601f82011682018060405250810190620005ab9190620009bf565b90506000620005d282856008811115620005c157fe5b620006a160201b620013281760201c565b6003541195945050505050565b6000620005ed8383620006ca565b62000625575081546001818101845560008481526020808220909301849055845484825282860190935260409020919091556200046c565b5060006200046c565b600062000469836001600160a01b038416620006ca565b6000805b600881101562000698578381600881106200066057fe5b602002015163ffffffff168363ffffffff1610156200068f578060088111156200068657fe5b9150506200046c565b60010162000649565b50600862000469565b600081620006b2575060006200046c565b5063ffffffff602060001983010283901c166200046c565b60009081526001919091016020526040902054151590565b600183019183908215620007735791602002820160005b838211156200073f57835183826101000a81548163ffffffff021916908363ffffffff1602179055509260200192600401602081600301049283019260010302620006f9565b8015620007715782816101000a81549063ffffffff02191690556004016020816003010492830192600103026200073f565b505b506200078192915062000806565b5090565b828054600181600116156101000203166002900490600052602060002090601f016020900481019282601f10620007c857805160ff1916838001178555620007f8565b82800160010185558215620007f8579182015b82811115620007f8578251825591602001919060010190620007db565b506200078192915062000824565b5b808211156200078157805463ffffffff1916815560010162000807565b5b8082111562000781576000815560010162000825565b80516001600160a01b03811681146200046c57600080fd5b8051600981106200046c57600080fd5b600082601f83011262000874578081fd5b81516001600160401b038111156200088a578182fd5b6020620008a0601f8301601f1916820162000b07565b92508183528481838601011115620008b757600080fd5b60005b82811015620008d7578481018201518482018301528101620008ba565b82811115620008e95760008284860101525b50505092915050565b60006020828403121562000904578081fd5b81516001600160401b03808211156200091b578283fd5b9083019060a082860312156200092f578283fd5b6200093b60a062000b07565b8251828111156200094a578485fd5b620009588782860162000863565b8252506020830151828111156200096d578485fd5b6200097b8782860162000863565b6020830152506200099086604085016200083b565b6040820152620009a4866060850162000853565b60608201526080830151608082015280935050505092915050565b600060208284031215620009d1578081fd5b5051919050565b6001600160a01b0391909116815260200190565b6020808252601b908201527f536166654d6174683a206164646974696f6e206f766572666c6f770000000000604082015260600190565b602080825260069082015265232927ad22a760d11b604082015260600190565b6020808252600f908201526e2a27a5a2a72fa9a2a7222fa9a2a62360891b604082015260600190565b6020808252600a90820152694d494e5f53544154555360b01b604082015260600190565b60208082526016908201527f4d494e494d554d5f494e495449414c5f535550504c5900000000000000000000604082015260600190565b6020808252601f908201527f45524332303a206d696e7420746f20746865207a65726f206164647265737300604082015260600190565b90815260200190565b6040518181016001600160401b038111828210171562000b2657600080fd5b604052919050565b612eef8062000b3e6000396000f3fe608060405234801561001057600080fd5b50600436106102ad5760003560e01c806353bcb3251161017b578063a217fddf116100d8578063c5c97ece1161008c578063d547741f11610071578063d547741f1461052c578063db006a751461053f578063dd62ed3e14610552576102ad565b8063c5c97ece14610506578063ca15c87314610519576102ad565b8063a9059cbb116100bd578063a9059cbb146104e3578063ad3cb103146104f6578063ad7430cc146104fe576102ad565b8063a217fddf146104c8578063a457c2d7146104d0576102ad565b80639010d07c1161012f57806395d89b411161011457806395d89b41146104a55780639923c94b146104ad5780639c7081df146104c0576102ad565b80639010d07c1461047257806391d1485414610492576102ad565b806370a082311161016057806370a082311461044457806379cc67901461045757806381e45d9a1461046a576102ad565b806353bcb325146104345780636050f2f81461043c576102ad565b80632471bc3e1161022957806334c1df75116101dd57806339509351116101c257806339509351146103ee57806342966c681461040157806345bdfa8a14610414576102ad565b806334c1df75146103c857806336568abe146103db576102ad565b806327d557411161020e57806327d557411461038d5780632f2ff15d146103a0578063313ce567146103b3576102ad565b80632471bc3e14610367578063248a9ca31461037a576102ad565b80630f0af57f116102805780631c77bb2c116102655780631c77bb2c1461032a5780631ca1d59a1461033f57806323b872dd14610354576102ad565b80630f0af57f1461030d57806318160ddd14610322576102ad565b806301725c00146102b2578063055ad42e146102d057806306fdde03146102d8578063095ea7b3146102ed575b600080fd5b6102ba610565565b6040516102c79190612594565b60405180910390f35b6102ba61056e565b6102e06105d9565b6040516102c791906125a7565b6103006102fb366004612278565b61068d565b6040516102c79190612580565b6103156106ab565b6040516102c7919061258b565b6103156106b1565b6103326106b7565b6040516102c79190612510565b61035261034d3660046121b7565b61073d565b005b61030061036236600461220b565b6108ce565b61030061037536600461224b565b610970565b61031561038836600461241c565b610a41565b61035261039b3660046121b7565b610a56565b6103526103ae366004612434565b610b03565b6103bb610b61565b6040516102c79190612d30565b6102ba6103d6366004612378565b610b6a565b6103526103e9366004612434565b610bc1565b6103006103fc366004612278565b610c37565b61035261040f36600461241c565b610c92565b610427610422366004612347565b610ca6565b6040516102c79190612d1f565b6103bb610cf7565b610315610cfc565b6103156104523660046121b7565b610d20565b610352610465366004612278565b610d48565b610427610d9d565b610485610480366004612458565b610dc1565b6040516102c791906124c9565b6103006104a0366004612434565b610dd9565b6102e0610df1565b6104276104bb36600461241c565b610e70565b610485610e9d565b610315610eb9565b6103006104de366004612278565b610ebe565b6103006104f1366004612278565b610f33565b610315610f47565b610315610f53565b6103526105143660046122a3565b610f77565b61031561052736600461241c565b611191565b61035261053a366004612434565b6111a8565b61035261054d36600461241c565b6111fc565b6103156105603660046121d3565b61126d565b600c5460ff1681565b604080516101008101918290526000916105d491906001906008908286855b82829054906101000a900463ffffffff1663ffffffff168152602001906004019060208260030104928301926001038202915080841161058d579050505050505043610b6a565b905090565b60078054604080516020601f60027fffffffffffffffffffffffffffffffffffffffffffffffffffffffffffffffff6101006001881615020190951694909404938401819004810282018101909252828152606093909290918301828280156106835780601f1061065857610100808354040283529160200191610683565b820191906000526020600020905b81548152906001019060200180831161066657829003601f168201915b5050505050905090565b60006106a161069a61136c565b8484611370565b5060015b92915050565b60035481565b60065490565b6106bf61218d565b6106c761218d565b60005b600b5481101561073757600b81815481106106e157fe5b60009182526020909120015473ffffffffffffffffffffffffffffffffffffffff1682826008811061070f57fe5b73ffffffffffffffffffffffffffffffffffffffff90921660209290920201526001016106ca565b50905090565b610748600033610dd9565b610787576040517f08c379a000000000000000000000000000000000000000000000000000000000815260040161077e90612939565b60405180910390fd5b600b546008116107c3576040517f08c379a000000000000000000000000000000000000000000000000000000000815260040161077e90612c8b565b60005b600b54811015610856578173ffffffffffffffffffffffffffffffffffffffff16600b82815481106107f457fe5b60009182526020909120015473ffffffffffffffffffffffffffffffffffffffff16141561084e576040517f08c379a000000000000000000000000000000000000000000000000000000000815260040161077e90612848565b6001016107c6565b50600b80546001810182556000919091527f0175b7a638427703f0dbe7bb9bbf987a2551717b34e79f33b5b1008d1fa01db90180547fffffffffffffffffffffffff00000000000000000000000000000000000000001673ffffffffffffffffffffffffffffffffffffffff92909216919091179055565b60006108db84848461147f565b610965846108e761136c565b61096085604051806060016040528060288152602001612e496028913973ffffffffffffffffffffffffffffffffffffffff8a1660009081526005602052604081209061093261136c565b73ffffffffffffffffffffffffffffffffffffffff1681526020810191909152604001600020549190611609565b611370565b5060015b9392505050565b6002546040517fd865a5c8000000000000000000000000000000000000000000000000000000008152600091829173ffffffffffffffffffffffffffffffffffffffff9091169063d865a5c8906109cb9087906004016124c9565b60206040518083038186803b1580156109e357600080fd5b505afa1580156109f7573d6000803e3d6000fd5b505050506040513d601f19601f82011682018060405250810190610a1b9190612479565b90506000610a3482856008811115610a2f57fe5b611328565b6003541195945050505050565b60009081526020819052604090206002015490565b610a61600033610dd9565b610a97576040517f08c379a000000000000000000000000000000000000000000000000000000000815260040161077e90612939565b600080610aa261056e565b6008811115610aad57fe5b14610ae4576040517f08c379a000000000000000000000000000000000000000000000000000000000815260040161077e90612811565b610aed4361164f565b610aff82610afa84610d20565b6117c5565b5050565b600082815260208190526040902060020154610b21906104a061136c565b610b57576040517f08c379a000000000000000000000000000000000000000000000000000000000815260040161077e906126b2565b610aff82826118f5565b60095460ff1690565b6000805b6008811015610bb757838160088110610b8357fe5b602002015163ffffffff168363ffffffff161015610baf57806008811115610ba757fe5b9150506106a5565b600101610b6e565b5060089392505050565b610bc961136c565b73ffffffffffffffffffffffffffffffffffffffff168173ffffffffffffffffffffffffffffffffffffffff1614610c2d576040517f08c379a000000000000000000000000000000000000000000000000000000000815260040161077e90612cc2565b610aff8282611978565b60006106a1610c4461136c565b846109608560056000610c5561136c565b73ffffffffffffffffffffffffffffffffffffffff908116825260208083019390935260409182016000908120918c1681529252902054906112a5565b610ca3610c9d61136c565b826117c5565b50565b600080826008811115610cb557fe5b1415610cc3575060006106a5565b826001836008811115610cd257fe5b0360088110610cdd57fe5b602002016020810190610cf09190612491565b90506106a5565b600881565b7fcf2b1209506b76f140fb1bc5fe66d6e42627c4b9703a951d65552f50f14c9ee781565b73ffffffffffffffffffffffffffffffffffffffff1660009081526004602052604090205490565b6000610d7a82604051806060016040528060248152602001612e7160249139610d738661056061136c565b9190611609565b9050610d8e83610d8861136c565b83611370565b610d9883836117c5565b505050565b7fffffffffffffffffffffffffffffffffffffffffffffffffffffffffffffffff81565b600082815260208190526040812061096990836119fb565b60008281526020819052604081206109699083611306565b60088054604080516020601f60027fffffffffffffffffffffffffffffffffffffffffffffffffffffffffffffffff6101006001881615020190951694909404938401819004810282018101909252828152606093909290918301828280156106835780601f1061065857610100808354040283529160200191610683565b60018160088110610e7d57fe5b60089182820401919006600402915054906101000a900463ffffffff1681565b60025473ffffffffffffffffffffffffffffffffffffffff1681565b600081565b60006106a1610ecb61136c565b8461096085604051806060016040528060258152602001612e956025913960056000610ef561136c565b73ffffffffffffffffffffffffffffffffffffffff908116825260208083019390935260409182016000908120918d16815292529020549190611609565b60006106a1610f4061136c565b848461147f565b670de0b6b3a764000081565b7f94201143cc0a32610f14f8f185ebb23e4ca60f1758e49668647d0879b1e81f0b81565b600180610f8261056e565b6008811115610f8d57fe5b14610fc4576040517f08c379a000000000000000000000000000000000000000000000000000000000815260040161077e90612811565b6002600a541415611001576040517f08c379a000000000000000000000000000000000000000000000000000000000815260040161077e90612c54565b6002600a5560006110106106b1565b905061101c33846117c5565b60005b845181101561118557600085828151811061103657fe5b6020026020010151905060006110df846110d9888573ffffffffffffffffffffffffffffffffffffffff166370a08231306040518263ffffffff1660e01b815260040161108391906124c9565b60206040518083038186803b15801561109b57600080fd5b505afa1580156110af573d6000803e3d6000fd5b505050506040513d601f19601f820116820180604052508101906110d39190612479565b90611a07565b90611a5b565b90508173ffffffffffffffffffffffffffffffffffffffff163373ffffffffffffffffffffffffffffffffffffffff167ff8eb02c03b445447861a4fda33b7470adf3b693b314b35a1efb8203edc28d65660405180604001604052808a8152602001858152506040516111529190612558565b60405180910390a361117b73ffffffffffffffffffffffffffffffffffffffff83163383611a9d565b505060010161101f565b50506001600a55505050565b60008181526020819052604081206106a590611b3e565b6000828152602081905260409020600201546111c6906104a061136c565b610c2d576040517f08c379a000000000000000000000000000000000000000000000000000000000815260040161077e906128dc565b610ca3600b80548060200260200160405190810160405280929190818152602001828054801561126257602002820191906000526020600020905b815473ffffffffffffffffffffffffffffffffffffffff168152600190910190602001808311611237575b505050505082610f77565b73ffffffffffffffffffffffffffffffffffffffff918216600090815260056020908152604080832093909416825291909152205490565b600082820183811015610969576040517f08c379a000000000000000000000000000000000000000000000000000000000815260040161077e906127a3565b60006109698373ffffffffffffffffffffffffffffffffffffffff8416611b49565b60006109698373ffffffffffffffffffffffffffffffffffffffff8416611b93565b600081611337575060006106a5565b5063ffffffff60207fffffffffffffffffffffffffffffffffffffffffffffffffffffffffffffffff83010283901c166106a5565b3390565b73ffffffffffffffffffffffffffffffffffffffff83166113bd576040517f08c379a000000000000000000000000000000000000000000000000000000000815260040161077e90612b63565b73ffffffffffffffffffffffffffffffffffffffff821661140a576040517f08c379a000000000000000000000000000000000000000000000000000000000815260040161077e90612746565b73ffffffffffffffffffffffffffffffffffffffff80841660008181526005602090815260408083209487168084529490915290819020849055517f8c5be1e5ebec7d5bd14f71427d1e84f3dd0314c0f7b2291e5b200ac8c7c3b9259061147290859061258b565b60405180910390a3505050565b73ffffffffffffffffffffffffffffffffffffffff83166114cc576040517f08c379a000000000000000000000000000000000000000000000000000000000815260040161077e90612acf565b73ffffffffffffffffffffffffffffffffffffffff8216611519576040517f08c379a000000000000000000000000000000000000000000000000000000000815260040161077e90612655565b611524838383611bab565b61156e81604051806060016040528060268152602001612e236026913973ffffffffffffffffffffffffffffffffffffffff86166000908152600460205260409020549190611609565b73ffffffffffffffffffffffffffffffffffffffff80851660009081526004602052604080822093909355908416815220546115aa90826112a5565b73ffffffffffffffffffffffffffffffffffffffff80841660008181526004602052604090819020939093559151908516907fddf252ad1be2c89b69c2b068fc378daa952ba7f163c4a11628f55a4df523b3ef9061147290859061258b565b60008184841115611647576040517f08c379a000000000000000000000000000000000000000000000000000000000815260040161077e91906125a7565b505050900390565b8063ffffffff164363ffffffff161115611695576040517f08c379a000000000000000000000000000000000000000000000000000000000815260040161077e9061270f565b63ffffffff818116106116d4576040517f08c379a000000000000000000000000000000000000000000000000000000000815260040161077e906127da565b60006116de61056e565b60088111156116e957fe5b9050600181600881106116f857fe5b60088104919091015460079091166004026101000a900463ffffffff9081161461174e576040517f08c379a000000000000000000000000000000000000000000000000000000000815260040161077e90612b2c565b61175782611d44565b816001826008811061176557fe5b600891828204019190066004026101000a81548163ffffffff021916908363ffffffff1602179055508163ffffffff167f260aac5b840edc27b89fdf50e91311a413363a400959466e1049e6d071b8cee260405160405180910390a25050565b73ffffffffffffffffffffffffffffffffffffffff8216611812576040517f08c379a000000000000000000000000000000000000000000000000000000000815260040161077e90612a72565b61181e82600083611bab565b61186881604051806060016040528060228152602001612e016022913973ffffffffffffffffffffffffffffffffffffffff85166000908152600460205260409020549190611609565b73ffffffffffffffffffffffffffffffffffffffff831660009081526004602052604090205560065461189b9082611d69565b60065560405160009073ffffffffffffffffffffffffffffffffffffffff8416907fddf252ad1be2c89b69c2b068fc378daa952ba7f163c4a11628f55a4df523b3ef906118e990859061258b565b60405180910390a35050565b600082815260208190526040902061190d90826112e4565b15610aff5761191a61136c565b73ffffffffffffffffffffffffffffffffffffffff168173ffffffffffffffffffffffffffffffffffffffff16837f2f8788117e7eff1d82e926ec794901d17c78024a50270940304540a733656f0d60405160405180910390a45050565b60008281526020819052604090206119909082611dab565b15610aff5761199d61136c565b73ffffffffffffffffffffffffffffffffffffffff168173ffffffffffffffffffffffffffffffffffffffff16837ff6391f5c32d9c69d2a47ea670b442974b53935d1edc7fd64eb21e047a839171b60405160405180910390a45050565b60006109698383611dcd565b600082611a16575060006106a5565b82820282848281611a2357fe5b0414610969576040517f08c379a000000000000000000000000000000000000000000000000000000000815260040161077e90612a15565b600061096983836040518060400160405280601a81526020017f536166654d6174683a206469766973696f6e206279207a65726f000000000000815250611e2c565b610d988363a9059cbb60e01b8484604051602401611abc9291906124ea565b604080517fffffffffffffffffffffffffffffffffffffffffffffffffffffffffffffffe08184030181529190526020810180517bffffffffffffffffffffffffffffffffffffffffffffffffffffffff167fffffffff0000000000000000000000000000000000000000000000000000000090931692909217909152611e7d565b60006106a582611f33565b6000611b558383611b93565b611b8b575081546001818101845560008481526020808220909301849055845484825282860190935260409020919091556106a5565b5060006106a5565b60009081526001919091016020526040902054151590565b611bb6838383610d98565b73ffffffffffffffffffffffffffffffffffffffff8216301415611c06576040517f08c379a000000000000000000000000000000000000000000000000000000000815260040161077e906129a7565b600081118015611c6d5750611c3b7fcf2b1209506b76f140fb1bc5fe66d6e42627c4b9703a951d65552f50f14c9ee784610dd9565b80611c6b5750611c6b7f94201143cc0a32610f14f8f185ebb23e4ca60f1758e49668647d0879b1e81f0b83610dd9565b155b15610d98576000611c7c61056e565b6008811115611c8757fe5b1415611cd957600c54611c9e90839060ff16610970565b611cd4576040517f08c379a000000000000000000000000000000000000000000000000000000000815260040161077e906129de565b610d98565b6001611ce361056e565b6008811115611cee57fe5b1415611d425773ffffffffffffffffffffffffffffffffffffffff821615611cd4576040517f08c379a000000000000000000000000000000000000000000000000000000000815260040161077e90612970565bfe5b611d4d81610ca3565b6002611d5761056e565b6008811115611d6257fe5b10610ca357fe5b600061096983836040518060400160405280601e81526020017f536166654d6174683a207375627472616374696f6e206f766572666c6f770000815250611609565b60006109698373ffffffffffffffffffffffffffffffffffffffff8416611f37565b81546000908210611e0a576040517f08c379a000000000000000000000000000000000000000000000000000000000815260040161077e906125f8565b826000018281548110611e1957fe5b9060005260206000200154905092915050565b60008183611e67576040517f08c379a000000000000000000000000000000000000000000000000000000000815260040161077e91906125a7565b506000838581611e7357fe5b0495945050505050565b6060611edf826040518060400160405280602081526020017f5361666545524332303a206c6f772d6c6576656c2063616c6c206661696c65648152508573ffffffffffffffffffffffffffffffffffffffff1661201b9092919063ffffffff16565b805190915015610d985780806020019051810190611efd91906123fc565b610d98576040517f08c379a000000000000000000000000000000000000000000000000000000000815260040161077e90612bf7565b5490565b600081815260018301602052604081205480156120115783547fffffffffffffffffffffffffffffffffffffffffffffffffffffffffffffffff8083019190810190600090879083908110611f8857fe5b9060005260206000200154905080876000018481548110611fa557fe5b600091825260208083209091019290925582815260018981019092526040902090840190558654879080611fd557fe5b600190038181906000526020600020016000905590558660010160008781526020019081526020016000206000905560019450505050506106a5565b60009150506106a5565b606061202a8484600085612032565b949350505050565b60608247101561206e576040517f08c379a000000000000000000000000000000000000000000000000000000000815260040161077e9061287f565b61207785612134565b6120ad576040517f08c379a000000000000000000000000000000000000000000000000000000000815260040161077e90612bc0565b600060608673ffffffffffffffffffffffffffffffffffffffff1685876040516120d791906124ad565b60006040518083038185875af1925050503d8060008114612114576040519150601f19603f3d011682016040523d82523d6000602084013e612119565b606091505b509150915061212982828661213a565b979650505050505050565b3b151590565b60608315612149575081610969565b8251156121595782518084602001fd5b816040517f08c379a000000000000000000000000000000000000000000000000000000000815260040161077e91906125a7565b6040518061010001604052806008906020820280368337509192915050565b80356106a581612dbf565b6000602082840312156121c8578081fd5b813561096981612dbf565b600080604083850312156121e5578081fd5b82356121f081612dbf565b9150602083013561220081612dbf565b809150509250929050565b60008060006060848603121561221f578081fd5b833561222a81612dbf565b9250602084013561223a81612dbf565b929592945050506040919091013590565b6000806040838503121561225d578182fd5b823561226881612dbf565b9150602083013561220081612de1565b6000806040838503121561228a578182fd5b823561229581612dbf565b946020939093013593505050565b600080604083850312156122b5578182fd5b823567ffffffffffffffff8111156122cb578283fd5b8301601f810185136122db578283fd5b80356122ee6122e982612d65565b612d3e565b80828252602080830192508085018982838702880101111561230e578788fd5b8795505b84861015612338576123248a826121ac565b845260019590950194928101928101612312565b50909896013596505050505050565b600080610120838503121561235a578182fd5b61010083018481111561236b578283fd5b8392503561220081612de1565b600080610120838503121561238b578182fd5b83601f840112612399578182fd5b6101006123a581612d3e565b908401908085878411156123b7578586fd5b855b60088110156123ea57813563ffffffff811681146123d5578788fd5b845260209384019391909101906001016123b9565b50909450509035905061220081612dee565b60006020828403121561240d578081fd5b81518015158114610969578182fd5b60006020828403121561242d578081fd5b5035919050565b60008060408385031215612446578182fd5b82359150602083013561220081612dbf565b6000806040838503121561246a578182fd5b50508035926020909101359150565b60006020828403121561248a578081fd5b5051919050565b6000602082840312156124a2578081fd5b813561096981612dee565b600082516124bf818460208701612d85565b9190910192915050565b73ffffffffffffffffffffffffffffffffffffffff91909116815260200190565b73ffffffffffffffffffffffffffffffffffffffff929092168252602082015260400190565b6101008101818360005b600881101561254f57815173ffffffffffffffffffffffffffffffffffffffff1683526020928301929091019060010161251a565b50505092915050565b60408101818360005b600281101561254f578151835260209283019290910190600101612561565b901515815260200190565b90815260200190565b602081016125a183612db5565b91905290565b60006020825282518060208401526125c6816040850160208701612d85565b601f017fffffffffffffffffffffffffffffffffffffffffffffffffffffffffffffffe0169190910160400192915050565b60208082526022908201527f456e756d657261626c655365743a20696e646578206f7574206f6620626f756e60408201527f6473000000000000000000000000000000000000000000000000000000000000606082015260800190565b60208082526023908201527f45524332303a207472616e7366657220746f20746865207a65726f206164647260408201527f6573730000000000000000000000000000000000000000000000000000000000606082015260800190565b6020808252602f908201527f416363657373436f6e74726f6c3a2073656e646572206d75737420626520616e60408201527f2061646d696e20746f206772616e740000000000000000000000000000000000606082015260800190565b6020808252600f908201527f4e4558545f424c4f434b5f504153540000000000000000000000000000000000604082015260600190565b60208082526022908201527f45524332303a20617070726f766520746f20746865207a65726f20616464726560408201527f7373000000000000000000000000000000000000000000000000000000000000606082015260800190565b6020808252601b908201527f536166654d6174683a206164646974696f6e206f766572666c6f770000000000604082015260600190565b60208082526018908201527f4e4558545f424c4f434b5f554e494e495449414c495a45440000000000000000604082015260600190565b60208082526009908201527f4241445f50484153450000000000000000000000000000000000000000000000604082015260600190565b60208082526014908201527f4455504c49434154455f52454445454d41424c45000000000000000000000000604082015260600190565b60208082526026908201527f416464726573733a20696e73756666696369656e742062616c616e636520666f60408201527f722063616c6c0000000000000000000000000000000000000000000000000000606082015260800190565b60208082526030908201527f416363657373436f6e74726f6c3a2073656e646572206d75737420626520616e60408201527f2061646d696e20746f207265766f6b6500000000000000000000000000000000606082015260800190565b6020808252600a908201527f4f4e4c595f41444d494e00000000000000000000000000000000000000000000604082015260600190565b60208082526006908201527f46524f5a454e0000000000000000000000000000000000000000000000000000604082015260600190565b6020808252600f908201527f544f4b454e5f53454e445f53454c460000000000000000000000000000000000604082015260600190565b6020808252600a908201527f4d494e5f53544154555300000000000000000000000000000000000000000000604082015260600190565b60208082526021908201527f536166654d6174683a206d756c7469706c69636174696f6e206f766572666c6f60408201527f7700000000000000000000000000000000000000000000000000000000000000606082015260800190565b60208082526021908201527f45524332303a206275726e2066726f6d20746865207a65726f2061646472657360408201527f7300000000000000000000000000000000000000000000000000000000000000606082015260800190565b60208082526025908201527f45524332303a207472616e736665722066726f6d20746865207a65726f20616460408201527f6472657373000000000000000000000000000000000000000000000000000000606082015260800190565b6020808252600e908201527f4e4558545f424c4f434b5f534554000000000000000000000000000000000000604082015260600190565b60208082526024908201527f45524332303a20617070726f76652066726f6d20746865207a65726f2061646460408201527f7265737300000000000000000000000000000000000000000000000000000000606082015260800190565b6020808252601d908201527f416464726573733a2063616c6c20746f206e6f6e2d636f6e7472616374000000604082015260600190565b6020808252602a908201527f5361666545524332303a204552433230206f7065726174696f6e20646964206e60408201527f6f74207375636365656400000000000000000000000000000000000000000000606082015260800190565b6020808252601f908201527f5265656e7472616e637947756172643a207265656e7472616e742063616c6c00604082015260600190565b6020808252600f908201527f4d41585f52454445454d41424c45530000000000000000000000000000000000604082015260600190565b6020808252602f908201527f416363657373436f6e74726f6c3a2063616e206f6e6c792072656e6f756e636560408201527f20726f6c657320666f722073656c660000000000000000000000000000000000606082015260800190565b63ffffffff91909116815260200190565b60ff91909116815260200190565b60405181810167ffffffffffffffff81118282101715612d5d57600080fd5b604052919050565b600067ffffffffffffffff821115612d7b578081fd5b5060209081020190565b60005b83811015612da0578181015183820152602001612d88565b83811115612daf576000848401525b50505050565b60098110610ca357fe5b73ffffffffffffffffffffffffffffffffffffffff81168114610ca357600080fd5b60098110610ca357600080fd5b63ffffffff81168114610ca357600080fdfe45524332303a206275726e20616d6f756e7420657863656564732062616c616e636545524332303a207472616e7366657220616d6f756e7420657863656564732062616c616e636545524332303a207472616e7366657220616d6f756e74206578636565647320616c6c6f77616e636545524332303a206275726e20616d6f756e74206578636565647320616c6c6f77616e636545524332303a2064656372656173656420616c6c6f77616e63652062656c6f77207a65726fa264697066735822122091cc88c8f06bed443c6777d831b8b13158916a62a298fb6837d0b5e839ecf85964736f6c634300060c003394201143cc0a32610f14f8f185ebb23e4ca60f1758e49668647d0879b1e81f0b",
  "linkReferences": {},
  "deployedLinkReferences": {}
}