{
  "_format": "hh-sol-artifact-1",
  "contractName": "BMath",
  "sourceName": "contracts/configurable-rights-pool/contracts/test/BMath.sol",
  "abi": [
    {
      "inputs": [],
      "name": "BONE",
      "outputs": [
        {
          "internalType": "uint256",
          "name": "",
          "type": "uint256"
        }
      ],
      "stateMutability": "view",
      "type": "function"
    },
    {
      "inputs": [],
      "name": "BPOW_PRECISION",
      "outputs": [
        {
          "internalType": "uint256",
          "name": "",
          "type": "uint256"
        }
      ],
      "stateMutability": "view",
      "type": "function"
    },
    {
      "inputs": [],
      "name": "EXIT_FEE",
      "outputs": [
        {
          "internalType": "uint256",
          "name": "",
          "type": "uint256"
        }
      ],
      "stateMutability": "view",
      "type": "function"
    },
    {
      "inputs": [],
      "name": "INIT_POOL_SUPPLY",
      "outputs": [
        {
          "internalType": "uint256",
          "name": "",
          "type": "uint256"
        }
      ],
      "stateMutability": "view",
      "type": "function"
    },
    {
      "inputs": [],
      "name": "MAX_BOUND_TOKENS",
      "outputs": [
        {
          "internalType": "uint256",
          "name": "",
          "type": "uint256"
        }
      ],
      "stateMutability": "view",
      "type": "function"
    },
    {
      "inputs": [],
      "name": "MAX_BPOW_BASE",
      "outputs": [
        {
          "internalType": "uint256",
          "name": "",
          "type": "uint256"
        }
      ],
      "stateMutability": "view",
      "type": "function"
    },
    {
      "inputs": [],
      "name": "MAX_FEE",
      "outputs": [
        {
          "internalType": "uint256",
          "name": "",
          "type": "uint256"
        }
      ],
      "stateMutability": "view",
      "type": "function"
    },
    {
      "inputs": [],
      "name": "MAX_IN_RATIO",
      "outputs": [
        {
          "internalType": "uint256",
          "name": "",
          "type": "uint256"
        }
      ],
      "stateMutability": "view",
      "type": "function"
    },
    {
      "inputs": [],
      "name": "MAX_OUT_RATIO",
      "outputs": [
        {
          "internalType": "uint256",
          "name": "",
          "type": "uint256"
        }
      ],
      "stateMutability": "view",
      "type": "function"
    },
    {
      "inputs": [],
      "name": "MAX_TOTAL_WEIGHT",
      "outputs": [
        {
          "internalType": "uint256",
          "name": "",
          "type": "uint256"
        }
      ],
      "stateMutability": "view",
      "type": "function"
    },
    {
      "inputs": [],
      "name": "MAX_WEIGHT",
      "outputs": [
        {
          "internalType": "uint256",
          "name": "",
          "type": "uint256"
        }
      ],
      "stateMutability": "view",
      "type": "function"
    },
    {
      "inputs": [],
      "name": "MIN_BALANCE",
      "outputs": [
        {
          "internalType": "uint256",
          "name": "",
          "type": "uint256"
        }
      ],
      "stateMutability": "view",
      "type": "function"
    },
    {
      "inputs": [],
      "name": "MIN_BOUND_TOKENS",
      "outputs": [
        {
          "internalType": "uint256",
          "name": "",
          "type": "uint256"
        }
      ],
      "stateMutability": "view",
      "type": "function"
    },
    {
      "inputs": [],
      "name": "MIN_BPOW_BASE",
      "outputs": [
        {
          "internalType": "uint256",
          "name": "",
          "type": "uint256"
        }
      ],
      "stateMutability": "view",
      "type": "function"
    },
    {
      "inputs": [],
      "name": "MIN_FEE",
      "outputs": [
        {
          "internalType": "uint256",
          "name": "",
          "type": "uint256"
        }
      ],
      "stateMutability": "view",
      "type": "function"
    },
    {
      "inputs": [],
      "name": "MIN_WEIGHT",
      "outputs": [
        {
          "internalType": "uint256",
          "name": "",
          "type": "uint256"
        }
      ],
      "stateMutability": "view",
      "type": "function"
    },
    {
      "inputs": [
        {
          "internalType": "uint256",
          "name": "tokenBalanceIn",
          "type": "uint256"
        },
        {
          "internalType": "uint256",
          "name": "tokenWeightIn",
          "type": "uint256"
        },
        {
          "internalType": "uint256",
          "name": "tokenBalanceOut",
          "type": "uint256"
        },
        {
          "internalType": "uint256",
          "name": "tokenWeightOut",
          "type": "uint256"
        },
        {
          "internalType": "uint256",
          "name": "tokenAmountOut",
          "type": "uint256"
        },
        {
          "internalType": "uint256",
          "name": "swapFee",
          "type": "uint256"
        }
      ],
      "name": "calcInGivenOut",
      "outputs": [
        {
          "internalType": "uint256",
          "name": "tokenAmountIn",
          "type": "uint256"
        }
      ],
      "stateMutability": "pure",
      "type": "function"
    },
    {
      "inputs": [
        {
          "internalType": "uint256",
          "name": "tokenBalanceIn",
          "type": "uint256"
        },
        {
          "internalType": "uint256",
          "name": "tokenWeightIn",
          "type": "uint256"
        },
        {
          "internalType": "uint256",
          "name": "tokenBalanceOut",
          "type": "uint256"
        },
        {
          "internalType": "uint256",
          "name": "tokenWeightOut",
          "type": "uint256"
        },
        {
          "internalType": "uint256",
          "name": "tokenAmountIn",
          "type": "uint256"
        },
        {
          "internalType": "uint256",
          "name": "swapFee",
          "type": "uint256"
        }
      ],
      "name": "calcOutGivenIn",
      "outputs": [
        {
          "internalType": "uint256",
          "name": "tokenAmountOut",
          "type": "uint256"
        }
      ],
      "stateMutability": "pure",
      "type": "function"
    },
    {
      "inputs": [
        {
          "internalType": "uint256",
          "name": "tokenBalanceOut",
          "type": "uint256"
        },
        {
          "internalType": "uint256",
          "name": "tokenWeightOut",
          "type": "uint256"
        },
        {
          "internalType": "uint256",
          "name": "poolSupply",
          "type": "uint256"
        },
        {
          "internalType": "uint256",
          "name": "totalWeight",
          "type": "uint256"
        },
        {
          "internalType": "uint256",
          "name": "tokenAmountOut",
          "type": "uint256"
        },
        {
          "internalType": "uint256",
          "name": "swapFee",
          "type": "uint256"
        }
      ],
      "name": "calcPoolInGivenSingleOut",
      "outputs": [
        {
          "internalType": "uint256",
          "name": "poolAmountIn",
          "type": "uint256"
        }
      ],
      "stateMutability": "pure",
      "type": "function"
    },
    {
      "inputs": [
        {
          "internalType": "uint256",
          "name": "tokenBalanceIn",
          "type": "uint256"
        },
        {
          "internalType": "uint256",
          "name": "tokenWeightIn",
          "type": "uint256"
        },
        {
          "internalType": "uint256",
          "name": "poolSupply",
          "type": "uint256"
        },
        {
          "internalType": "uint256",
          "name": "totalWeight",
          "type": "uint256"
        },
        {
          "internalType": "uint256",
          "name": "tokenAmountIn",
          "type": "uint256"
        },
        {
          "internalType": "uint256",
          "name": "swapFee",
          "type": "uint256"
        }
      ],
      "name": "calcPoolOutGivenSingleIn",
      "outputs": [
        {
          "internalType": "uint256",
          "name": "poolAmountOut",
          "type": "uint256"
        }
      ],
      "stateMutability": "pure",
      "type": "function"
    },
    {
      "inputs": [
        {
          "internalType": "uint256",
          "name": "tokenBalanceIn",
          "type": "uint256"
        },
        {
          "internalType": "uint256",
          "name": "tokenWeightIn",
          "type": "uint256"
        },
        {
          "internalType": "uint256",
          "name": "poolSupply",
          "type": "uint256"
        },
        {
          "internalType": "uint256",
          "name": "totalWeight",
          "type": "uint256"
        },
        {
          "internalType": "uint256",
          "name": "poolAmountOut",
          "type": "uint256"
        },
        {
          "internalType": "uint256",
          "name": "swapFee",
          "type": "uint256"
        }
      ],
      "name": "calcSingleInGivenPoolOut",
      "outputs": [
        {
          "internalType": "uint256",
          "name": "tokenAmountIn",
          "type": "uint256"
        }
      ],
      "stateMutability": "pure",
      "type": "function"
    },
    {
      "inputs": [
        {
          "internalType": "uint256",
          "name": "tokenBalanceOut",
          "type": "uint256"
        },
        {
          "internalType": "uint256",
          "name": "tokenWeightOut",
          "type": "uint256"
        },
        {
          "internalType": "uint256",
          "name": "poolSupply",
          "type": "uint256"
        },
        {
          "internalType": "uint256",
          "name": "totalWeight",
          "type": "uint256"
        },
        {
          "internalType": "uint256",
          "name": "poolAmountIn",
          "type": "uint256"
        },
        {
          "internalType": "uint256",
          "name": "swapFee",
          "type": "uint256"
        }
      ],
      "name": "calcSingleOutGivenPoolIn",
      "outputs": [
        {
          "internalType": "uint256",
          "name": "tokenAmountOut",
          "type": "uint256"
        }
      ],
      "stateMutability": "pure",
      "type": "function"
    },
    {
      "inputs": [
        {
          "internalType": "uint256",
          "name": "tokenBalanceIn",
          "type": "uint256"
        },
        {
          "internalType": "uint256",
          "name": "tokenWeightIn",
          "type": "uint256"
        },
        {
          "internalType": "uint256",
          "name": "tokenBalanceOut",
          "type": "uint256"
        },
        {
          "internalType": "uint256",
          "name": "tokenWeightOut",
          "type": "uint256"
        },
        {
          "internalType": "uint256",
          "name": "swapFee",
          "type": "uint256"
        }
      ],
      "name": "calcSpotPrice",
      "outputs": [
        {
          "internalType": "uint256",
          "name": "spotPrice",
          "type": "uint256"
        }
      ],
      "stateMutability": "pure",
      "type": "function"
    },
    {
      "inputs": [],
      "name": "getColor",
      "outputs": [
        {
          "internalType": "bytes32",
          "name": "",
          "type": "bytes32"
        }
      ],
      "stateMutability": "view",
      "type": "function"
    }
  ],
  "bytecode": "0x608060405234801561001057600080fd5b50610f6a806100206000396000f3fe608060405234801561001057600080fd5b50600436106101985760003560e01c8063a221ee49116100e3578063bc694ea21161008c578063e4a28a5211610066578063e4a28a521461019d578063ec0930211461037b578063f8d6aed41461038357610198565b8063bc694ea21461036b578063c36596a6146101bf578063c6580d121461037357610198565b8063ba019dab116100bd578063ba019dab14610320578063ba9530a614610328578063bc063e1a1461036357610198565b8063a221ee49146102db578063b0e0d13614610310578063b7b800a41461031857610198565b80638656b653116101455780639381cd2b1161011f5780639381cd2b146102c3578063992e2a92146102cb5780639a86139b146102d357610198565b80638656b65314610245578063867378c514610280578063892980121461028857610198565b80635c1bbaf7116101765780635c1bbaf7146101c757806376c7a3c71461020257806382f652ad1461020a57610198565b806309a3bbe41461019d578063189d00ca146101b7578063218b5382146101bf575b600080fd5b6101a56103be565b60408051918252519081900360200190f35b6101a56103cb565b6101a56103df565b6101a5600480360360c08110156101dd57600080fd5b5080359060208101359060408101359060608101359060808101359060a001356103eb565b6101a56104a3565b6101a5600480360360c081101561022057600080fd5b5080359060208101359060408101359060608101359060808101359060a001356104b5565b6101a5600480360360c081101561025b57600080fd5b5080359060208101359060408101359060608101359060808101359060a00135610574565b6101a5610615565b6101a5600480360360c081101561029e57600080fd5b5080359060208101359060408101359060608101359060808101359060a00135610629565b6101a56106d9565b6101a56106e6565b6101a56106f2565b6101a5600480360360a08110156102f157600080fd5b5080359060208101359060408101359060608101359060800135610716565b6101a561077b565b6101a5610780565b6101a5610785565b6101a5600480360360c081101561033e57600080fd5b5080359060208101359060408101359060608101359060808101359060a0013561078a565b6101a561080b565b6101a561081b565b6101a5610827565b6101a561082c565b6101a5600480360360c081101561039957600080fd5b5080359060208101359060408101359060608101359060808101359060a0013561083c565b6802b5e3af16b188000081565b6402540be400670de0b6b3a76400005b0481565b670de0b6b3a764000081565b6000806103f887866108bf565b905060006104068786610a4d565b9050600061041482896108bf565b9050600061042a670de0b6b3a7640000856108bf565b905060006104388383610ac8565b90506000610446828e610c19565b90506000610454828f610d29565b9050600061047361046d670de0b6b3a76400008a610d29565b8b610c19565b90506104908261048b670de0b6b3a764000084610d29565b6108bf565b9f9e505050505050505050505050505050565b620f4240670de0b6b3a76400006103db565b6000806104c287866108bf565b905060006104d8670de0b6b3a764000083610d29565b905060006104e68286610c19565b905060006105008761048b670de0b6b3a764000085610d29565b9050600061050e8c83610d29565b9050600061051c828e6108bf565b9050600061052a8288610ac8565b90506000610538828e610c19565b905060006105468e83610d29565b905061055f8161048b670de0b6b3a76400006000610d29565b99505050505050505050509695505050505050565b60008061058187866108bf565b905060006105a061059a670de0b6b3a764000084610d29565b85610c19565b905060006105bf866105ba670de0b6b3a764000085610d29565b610c19565b905060006105cd8b83610a4d565b905060006105db828d6108bf565b905060006105e98287610ac8565b905060006105f7828d610c19565b9050610603818d610d29565b9e9d5050505050505050505050505050565b64e8d4a51000670de0b6b3a76400006103db565b60008061063687866108bf565b90506000610651856105ba670de0b6b3a76400006000610d29565b9050600061065f8883610d29565b9050600061066d828a6108bf565b9050600061068c82610687670de0b6b3a7640000886108bf565b610ac8565b9050600061069a828e610c19565b905060006106a88e83610d29565b905060006106c161046d670de0b6b3a76400008a610d29565b9050610490826105ba670de0b6b3a764000084610d29565b68056bc75e2d6310000081565b6704a03ce68d21555681565b7f42524f4e5a45000000000000000000000000000000000000000000000000000090565b60008061072387876108bf565b9050600061073186866108bf565b9050600061073f83836108bf565b90506000610761670de0b6b3a764000061048b670de0b6b3a764000089610d29565b905061076d8282610c19565b9a9950505050505050505050565b600881565b600281565b600181565b60008061079787866108bf565b905060006107ad670de0b6b3a764000085610d29565b90506107b98582610c19565b905060006107cb8a61048b8c85610a4d565b905060006107d98285610ac8565b905060006107ef670de0b6b3a764000083610d29565b90506107fb8a82610c19565b9c9b505050505050505050505050565b600a670de0b6b3a76400006103db565b671bc16d674ec7ffff81565b600081565b6002670de0b6b3a76400006103db565b60008061084985886108bf565b905060006108578786610d29565b9050600061086588836108bf565b905060006108738285610ac8565b905061088781670de0b6b3a7640000610d29565b905061089b670de0b6b3a764000087610d29565b94506108b06108aa8c83610c19565b866108bf565b9b9a5050505050505050505050565b60008161092d57604080517f08c379a000000000000000000000000000000000000000000000000000000000815260206004820152600c60248201527f4552525f4449565f5a45524f0000000000000000000000000000000000000000604482015290519081900360640190fd5b670de0b6b3a764000083028315806109555750670de0b6b3a764000084828161095257fe5b04145b6109c057604080517f08c379a000000000000000000000000000000000000000000000000000000000815260206004820152601060248201527f4552525f4449565f494e5445524e414c00000000000000000000000000000000604482015290519081900360640190fd5b60028304810181811015610a3557604080517f08c379a000000000000000000000000000000000000000000000000000000000815260206004820152601060248201527f4552525f4449565f494e5445524e414c00000000000000000000000000000000604482015290519081900360640190fd5b6000848281610a4057fe5b0493505050505b92915050565b600082820183811015610ac157604080517f08c379a000000000000000000000000000000000000000000000000000000000815260206004820152601060248201527f4552525f4144445f4f564552464c4f5700000000000000000000000000000000604482015290519081900360640190fd5b9392505050565b60006001831015610b3a57604080517f08c379a000000000000000000000000000000000000000000000000000000000815260206004820152601560248201527f4552525f42504f575f424153455f544f4f5f4c4f570000000000000000000000604482015290519081900360640190fd5b671bc16d674ec7ffff831115610bb157604080517f08c379a000000000000000000000000000000000000000000000000000000000815260206004820152601660248201527f4552525f42504f575f424153455f544f4f5f4849474800000000000000000000604482015290519081900360640190fd5b6000610bbc83610db1565b90506000610bca8483610d29565b90506000610be086610bdb85610dcc565b610dda565b905081610bf1579250610a47915050565b6000610c0287846305f5e100610e31565b9050610c0e8282610c19565b979650505050505050565b6000828202831580610c33575082848281610c3057fe5b04145b610c9e57604080517f08c379a000000000000000000000000000000000000000000000000000000000815260206004820152601060248201527f4552525f4d554c5f4f564552464c4f5700000000000000000000000000000000604482015290519081900360640190fd5b6706f05b59d3b20000810181811015610d1857604080517f08c379a000000000000000000000000000000000000000000000000000000000815260206004820152601060248201527f4552525f4d554c5f4f564552464c4f5700000000000000000000000000000000604482015290519081900360640190fd5b6000670de0b6b3a764000082610a40565b6000806000610d388585610f0f565b915091508015610da957604080517f08c379a000000000000000000000000000000000000000000000000000000000815260206004820152601160248201527f4552525f5355425f554e444552464c4f57000000000000000000000000000000604482015290519081900360640190fd5b509392505050565b6000670de0b6b3a7640000610dc583610dcc565b0292915050565b670de0b6b3a7640000900490565b60008060028306610df357670de0b6b3a7640000610df5565b835b90506002830492505b8215610ac157610e0e8485610c19565b93506002830615610e2657610e238185610c19565b90505b600283049250610dfe565b6000828180610e4887670de0b6b3a7640000610f0f565b9092509050670de0b6b3a764000080600060015b888410610f00576000670de0b6b3a764000082029050600080610e908a610e8b85670de0b6b3a7640000610d29565b610f0f565b91509150610ea2876105ba848c610c19565b9650610eae87846108bf565b965086610ebd57505050610f00565b8715610ec7579315935b8015610ed1579315935b8415610ee857610ee18688610d29565b9550610ef5565b610ef28688610a4d565b95505b505050600101610e5c565b50909998505050505050505050565b600080828410610f255750508082036000610f2d565b505081810360015b925092905056fea26469706673582212200134b33ee6db5f59a96e9765e1aff8a6c883805d5f9185584dc7ecc70185187464736f6c634300060c0033",
  "linkReferences": {},
  "deployedLinkReferences": {}
}