{
  "_format": "hh-sol-artifact-1",
  "contractName": "RedeemableERC20Pool",
  "sourceName": "contracts/pool/RedeemableERC20Pool.sol",
  "abi": [
    {
      "inputs": [
        {
          "components": [
            {
              "internalType": "contract CRPFactory",
              "name": "crpFactory",
              "type": "address"
            },
            {
              "internalType": "contract BFactory",
              "name": "balancerFactory",
              "type": "address"
            },
            {
              "internalType": "contract IERC20",
              "name": "reserve",
              "type": "address"
            },
            {
              "internalType": "contract RedeemableERC20",
              "name": "token",
              "type": "address"
            },
            {
              "internalType": "uint256",
              "name": "reserveInit",
              "type": "uint256"
            },
            {
              "internalType": "uint256",
              "name": "initialValuation",
              "type": "uint256"
            },
            {
              "internalType": "uint256",
              "name": "finalValuation",
              "type": "uint256"
            },
            {
              "internalType": "uint256",
              "name": "minimumTradingDuration",
              "type": "uint256"
            }
          ],
          "internalType": "struct RedeemableERC20PoolConfig",
          "name": "config_",
          "type": "tuple"
        }
      ],
      "stateMutability": "nonpayable",
      "type": "constructor"
    },
    {
      "anonymous": false,
      "inputs": [
        {
          "indexed": true,
          "internalType": "address",
          "name": "previousOwner",
          "type": "address"
        },
        {
          "indexed": true,
          "internalType": "address",
          "name": "newOwner",
          "type": "address"
        }
      ],
      "name": "OwnershipTransferred",
      "type": "event"
    },
    {
      "anonymous": false,
      "inputs": [
        {
          "indexed": true,
          "internalType": "uint32",
          "name": "newPhaseBlock_",
          "type": "uint32"
        }
      ],
      "name": "PhaseShiftScheduled",
      "type": "event"
    },
    {
      "inputs": [],
      "name": "MIN_BALANCER_POOL_BALANCE",
      "outputs": [
        {
          "internalType": "uint256",
          "name": "",
          "type": "uint256"
        }
      ],
      "stateMutability": "view",
      "type": "function"
    },
    {
      "inputs": [],
      "name": "MIN_RESERVE_INIT",
      "outputs": [
        {
          "internalType": "uint256",
          "name": "",
          "type": "uint256"
        }
      ],
      "stateMutability": "view",
      "type": "function"
    },
    {
      "inputs": [],
      "name": "UNINITIALIZED",
      "outputs": [
        {
          "internalType": "uint32",
          "name": "",
          "type": "uint32"
        }
      ],
      "stateMutability": "view",
      "type": "function"
    },
    {
      "inputs": [
        {
          "internalType": "uint32[8]",
          "name": "phaseBlocks_",
          "type": "uint32[8]"
        },
        {
          "internalType": "enum Phase",
          "name": "phase_",
          "type": "uint8"
        }
      ],
      "name": "blockNumberForPhase",
      "outputs": [
        {
          "internalType": "uint32",
          "name": "",
          "type": "uint32"
        }
      ],
      "stateMutability": "pure",
      "type": "function"
    },
    {
      "inputs": [],
      "name": "crp",
      "outputs": [
        {
          "internalType": "contract ConfigurableRightsPool",
          "name": "",
          "type": "address"
        }
      ],
      "stateMutability": "view",
      "type": "function"
    },
    {
      "inputs": [],
      "name": "currentPhase",
      "outputs": [
        {
          "internalType": "enum Phase",
          "name": "",
          "type": "uint8"
        }
      ],
      "stateMutability": "view",
      "type": "function"
    },
    {
      "inputs": [],
      "name": "finalValuation",
      "outputs": [
        {
          "internalType": "uint256",
          "name": "",
          "type": "uint256"
        }
      ],
      "stateMutability": "view",
      "type": "function"
    },
    {
      "inputs": [],
      "name": "finalWeight",
      "outputs": [
        {
          "internalType": "uint256",
          "name": "",
          "type": "uint256"
        }
      ],
      "stateMutability": "view",
      "type": "function"
    },
    {
      "inputs": [],
      "name": "minimumTradingDuration",
      "outputs": [
        {
          "internalType": "uint256",
          "name": "",
          "type": "uint256"
        }
      ],
      "stateMutability": "view",
      "type": "function"
    },
    {
      "inputs": [],
      "name": "owner",
      "outputs": [
        {
          "internalType": "address",
          "name": "",
          "type": "address"
        }
      ],
      "stateMutability": "view",
      "type": "function"
    },
    {
      "inputs": [],
      "name": "ownerEndDutchAuction",
      "outputs": [],
      "stateMutability": "nonpayable",
      "type": "function"
    },
    {
      "inputs": [
        {
          "internalType": "uint32[8]",
          "name": "phaseBlocks_",
          "type": "uint32[8]"
        },
        {
          "internalType": "uint32",
          "name": "blockNumber_",
          "type": "uint32"
        }
      ],
      "name": "phaseAtBlockNumber",
      "outputs": [
        {
          "internalType": "enum Phase",
          "name": "",
          "type": "uint8"
        }
      ],
      "stateMutability": "pure",
      "type": "function"
    },
    {
      "inputs": [
        {
          "internalType": "uint256",
          "name": "",
          "type": "uint256"
        }
      ],
      "name": "phaseBlocks",
      "outputs": [
        {
          "internalType": "uint32",
          "name": "",
          "type": "uint32"
        }
      ],
      "stateMutability": "view",
      "type": "function"
    },
    {
      "inputs": [],
      "name": "renounceOwnership",
      "outputs": [],
      "stateMutability": "nonpayable",
      "type": "function"
    },
    {
      "inputs": [],
      "name": "reserve",
      "outputs": [
        {
          "internalType": "contract IERC20",
          "name": "",
          "type": "address"
        }
      ],
      "stateMutability": "view",
      "type": "function"
    },
    {
      "inputs": [],
      "name": "reserveInit",
      "outputs": [
        {
          "internalType": "uint256",
          "name": "",
          "type": "uint256"
        }
      ],
      "stateMutability": "view",
      "type": "function"
    },
    {
      "inputs": [],
      "name": "startDutchAuction",
      "outputs": [],
      "stateMutability": "nonpayable",
      "type": "function"
    },
    {
      "inputs": [],
      "name": "token",
      "outputs": [
        {
          "internalType": "contract RedeemableERC20",
          "name": "",
          "type": "address"
        }
      ],
      "stateMutability": "view",
      "type": "function"
    },
    {
      "inputs": [
        {
          "internalType": "address",
          "name": "newOwner",
          "type": "address"
        }
      ],
      "name": "transferOwnership",
      "outputs": [],
      "stateMutability": "nonpayable",
      "type": "function"
    }
  ],
  "bytecode": "0x61026060405263ffffffff6101608181526101808290526101a08290526101c08290526101e0829052610200829052610220829052610240919091526200004b906001906008620009d6565b503480156200005957600080fd5b5060405162002dc038038062002dc08339810160408190526200007c9162000ae2565b60006200008862000790565b600080546001600160a01b0319166001600160a01b0383169081178255604051929350917f8be0079c531659141344cd1fd0a4f28419497f9722a3daafe3b4186f6b6457e0908290a3506305f5e10081608001511015620001065760405162461bcd60e51b8152600401620000fd9062000f5f565b60405180910390fd5b8060c001518160a001511015620001315760405162461bcd60e51b8152600401620000fd9062000f96565b6060808201516001600160601b031990821b81166080908152604084015190921b1660c0908152908201805160e052519082015162000171919062000794565b6101205260c08101516101405260e081015160a0526040805160028082526060808301845292602083019080368337019050509050816040015181600081518110620001b957fe5b60200260200101906001600160a01b031690816001600160a01b031681525050816060015181600181518110620001ec57fe5b6001600160a01b03929092166020928302919091019091015260408051600280825260608281019093528160200160208202803683370190505090508260800151816000815181106200023b57fe5b60200260200101818152505082606001516001600160a01b03166318160ddd6040518163ffffffff1660e01b815260040160206040518083038186803b1580156200028557600080fd5b505afa1580156200029a573d6000803e3d6000fd5b505050506040513d601f19601f82011682018060405250810190620002c0919062000c1e565b81600181518110620002ce57fe5b602002602001018181525050600081600181518110620002ea57fe5b602002602001015111620003125760405162461bcd60e51b8152600401620000fd906200100e565b6040805160028082526060808301845292602083019080368337019050509050670de0b6b3a7640000816000815181106200034957fe5b6020026020010181815250506200036f84608001518560a001516200079460201b60201c565b816001815181106200037d57fe5b602090810291909101015260408051600680825260e08201909252606091816020016020820280368337019050509050600181600281518110620003bd57fe5b602002602001019015159081151581525050600181600481518110620003df57fe5b602002602001019015159081151581525050600085600001516001600160a01b0316634420002b87602001516040518060c00160405280604051806040016040528060048152602001630523230560e41b81525081526020016040518060400160405280601381526020017f52656465656d61626c654552433230506f6f6c000000000000000000000000008152508152602001898152602001888152602001878152602001620f4240670de0b6b3a7640000816200049a57fe5b0490526040516330211cff60e21b815273__$c7f394f0430b200d573091ca9a0309069c$__9063c08473fc90620004d690899060040162000e36565b60c06040518083038186803b158015620004ef57600080fd5b505af415801562000504573d6000803e3d6000fd5b505050506040513d601f19601f820116820180604052508101906200052a919062000b81565b6040518463ffffffff1660e01b81526004016200054a9392919062000d41565b602060405180830381600087803b1580156200056557600080fd5b505af11580156200057a573d6000803e3d6000fd5b505050506040513d601f19601f82011682018060405250810190620005a0919062000ac3565b6001600160601b0319606082901b16610100526040808801516080890151915163095ea7b360e01b81529293506001600160a01b03169163095ea7b391620005ee9185919060040162000e1d565b602060405180830381600087803b1580156200060957600080fd5b505af11580156200061e573d6000803e3d6000fd5b505050506040513d601f19601f8201168201806040525081019062000644919062000aa4565b620006635760405162461bcd60e51b8152600401620000fd9062001034565b85606001516001600160a01b031663095ea7b38288606001516001600160a01b03166318160ddd6040518163ffffffff1660e01b815260040160206040518083038186803b158015620006b557600080fd5b505afa158015620006ca573d6000803e3d6000fd5b505050506040513d601f19601f82011682018060405250810190620006f0919062000c1e565b6040518363ffffffff1660e01b81526004016200070f92919062000e1d565b602060405180830381600087803b1580156200072a57600080fd5b505af11580156200073f573d6000803e3d6000fd5b505050506040513d601f19601f8201168201806040525081019062000765919062000aa4565b620007845760405162461bcd60e51b8152600401620000fd9062000f01565b505050505050620010ac565b3390565b600080620007d284620007be670de0b6b3a7640000866200087060201b62000fbf1790919060201c565b620008b060201b620010131790919060201c565b9050670de0b6b3a7640000811015620007ff5760405162461bcd60e51b8152600401620000fd9062000f28565b6200082181670de0b6b3a7640000620008fa60201b620010551790919060201c565b62000846670de0b6b3a7640000806032026200092260201b620010941790919060201c565b1015620008675760405162461bcd60e51b8152600401620000fd9062000e93565b90505b92915050565b60008262000881575060006200086a565b828202828482816200088f57fe5b0414620008675760405162461bcd60e51b8152600401620000fd9062000fcd565b60006200086783836040518060400160405280601a81526020017f536166654d6174683a206469766973696f6e206279207a65726f0000000000008152506200096c60201b60201c565b600082820183811015620008675760405162461bcd60e51b8152600401620000fd9062000eca565b60006200086783836040518060400160405280601e81526020017f536166654d6174683a207375627472616374696f6e206f766572666c6f770000815250620009a760201b60201c565b60008183620009905760405162461bcd60e51b8152600401620000fd919062000e7e565b5060008385816200099d57fe5b0495945050505050565b60008184841115620009ce5760405162461bcd60e51b8152600401620000fd919062000e7e565b505050900390565b60018301918390821562000a675791602002820160005b8382111562000a3357835183826101000a81548163ffffffff021916908363ffffffff1602179055509260200192600401602081600301049283019260010302620009ed565b801562000a655782816101000a81549063ffffffff021916905560040160208160030104928301926001030262000a33565b505b5062000a7592915062000a79565b5090565b5b8082111562000a7557805463ffffffff1916815560010162000a7a565b80516200086a8162001096565b60006020828403121562000ab6578081fd5b8151620008678162001084565b60006020828403121562000ad5578081fd5b8151620008678162001096565b600061010080838503121562000af6578182fd5b62000b01816200105d565b9050825162000b108162001096565b8152602083015162000b228162001096565b602082015262000b36846040850162000a97565b604082015262000b4a846060850162000a97565b60608201526080830151608082015260a083015160a082015260c083015160c082015260e083015160e08201528091505092915050565b600060c0828403121562000b93578081fd5b62000b9f60c06200105d565b825162000bac8162001084565b8152602083015162000bbe8162001084565b6020820152604083015162000bd38162001084565b6040820152606083015162000be88162001084565b6060820152608083015162000bfd8162001084565b608082015260a083015162000c128162001084565b60a08201529392505050565b60006020828403121562000c30578081fd5b5051919050565b6000815180845260208085019450808401835b8381101562000c715781516001600160a01b03168752958201959082019060010162000c4a565b509495945050505050565b6000815180845260208085019450808401835b8381101562000c715781518752958201959082019060010162000c8f565b60008151808452815b8181101562000cd45760208185018101518683018201520162000cb6565b8181111562000ce65782602083870101525b50601f01601f19169290920160200192915050565b80511515825260208101511515602083015260408101511515604083015260608101511515606083015260808101511515608083015260a0810151151560a08301525050565b6001600160a01b038416815261010060208201819052835160c0838301526000919062000d736101c085018262000cad565b915050602085015160ff19808584030161012086015262000d95838362000cad565b925060408701519150808584030161014086015262000db5838362000c37565b925060608701519150808584030161016086015262000dd5838362000c7c565b92506080870151915080858403016101808601525062000df6828262000c7c565b60a08701516101a0860152925062000e15915050604083018462000cfb565b949350505050565b6001600160a01b03929092168252602082015260400190565b6020808252825182820181905260009190848201906040850190845b8181101562000e7257835115158352928401929184019160010162000e52565b50909695505050505050565b60006020825262000867602083018462000cad565b60208082526014908201527f4d41585f5745494748545f56414c554154494f4e000000000000000000000000604082015260600190565b6020808252601b908201527f536166654d6174683a206164646974696f6e206f766572666c6f770000000000604082015260600190565b6020808252600d908201526c544f4b454e5f415050524f564560981b604082015260600190565b60208082526014908201527f4d494e5f5745494748545f56414c554154494f4e000000000000000000000000604082015260600190565b60208082526014908201527f524553455256455f494e49545f4d494e494d554d000000000000000000000000604082015260600190565b60208082526014908201527f4d494e5f494e495449414c5f56414c5554494f4e000000000000000000000000604082015260600190565b60208082526021908201527f536166654d6174683a206d756c7469706c69636174696f6e206f766572666c6f6040820152607760f81b606082015260800190565b6020808252600c908201526b0544f4b454e5f494e49545f360a41b604082015260600190565b6020808252600f908201526e524553455256455f415050524f564560881b604082015260600190565b6040518181016001600160401b03811182821017156200107c57600080fd5b604052919050565b80151581146200109357600080fd5b50565b6001600160a01b03811681146200109357600080fd5b60805160601c60a05160c05160601c60e0516101005160601c6101205161014051611c766200114a600039806103ec5250806102ea528061061c5250806103685280610690528061074352806108f25280610a5e5280610ae75280610b245250806107b75250806107db52806108b65280610d9c5280610e385250806102c652806105a1525080610a225280610c775280610f9d5250611c766000f3fe608060405234801561001057600080fd5b50600436106101515760003560e01c8063715018a6116100cd578063bb06997211610081578063e52ecbfb11610066578063e52ecbfb14610236578063f2fde38b1461023e578063fc0c546a1461025157610151565b8063bb06997214610226578063cd3293de1461022e57610151565b80638da5cb5b116100b25780638da5cb5b146102035780639923c94b1461020b578063b45ba7181461021e57610151565b8063715018a6146101f157806381e45d9a146101fb57610151565b80633fd8108e116101245780634ea2cb19116101095780634ea2cb19146101d95780636ba85bd6146101e15780636d002347146101e957610151565b80633fd8108e146101a457806345bdfa8a146101b957610151565b8063055ad42e1461015657806318fd663f1461017457806324ee2f4d1461018957806334c1df7514610191575b600080fd5b61015e610259565b60405161016b919061183f565b60405180910390f35b61017c6102c4565b60405161016b9190611b97565b61017c6102e8565b61015e61019f366004611665565b61030c565b6101ac610366565b60405161016b91906117d3565b6101cc6101c7366004611626565b61038a565b60405161016b9190611bcf565b61017c6103db565b61017c6103e3565b61017c6103ea565b6101f961040e565b005b6101cc6104e2565b6101ac610506565b6101cc610219366004611731565b610522565b6101f961054f565b61017c6107b5565b6101ac6107d9565b6101f96107fd565b6101f961024c36600461160a565b610e65565b6101ac610f9b565b604080516101008101918290526000916102bf91906001906008908286855b82829054906101000a900463ffffffff1663ffffffff168152602001906004019060208260030104928301926001038202915080841161027857905050505050504361030c565b905090565b7f000000000000000000000000000000000000000000000000000000000000000081565b7f000000000000000000000000000000000000000000000000000000000000000081565b6000805b60088110156103595783816008811061032557fe5b602002015163ffffffff168363ffffffff1610156103515780600881111561034957fe5b915050610360565b600101610310565b5060085b90505b92915050565b7f000000000000000000000000000000000000000000000000000000000000000081565b60008082600881111561039957fe5b14156103a757506000610360565b8260018360088111156103b657fe5b03600881106103c157fe5b6020020160208101906103d49190611761565b9050610360565b6305f5e10081565b620f424081565b7f000000000000000000000000000000000000000000000000000000000000000081565b6104166110d6565b60005473ffffffffffffffffffffffffffffffffffffffff908116911614610473576040517f08c379a000000000000000000000000000000000000000000000000000000000815260040161046a90611a97565b60405180910390fd5b6000805460405173ffffffffffffffffffffffffffffffffffffffff909116907f8be0079c531659141344cd1fd0a4f28419497f9722a3daafe3b4186f6b6457e0908390a3600080547fffffffffffffffffffffffff0000000000000000000000000000000000000000169055565b7fffffffffffffffffffffffffffffffffffffffffffffffffffffffffffffffff81565b60005473ffffffffffffffffffffffffffffffffffffffff1690565b6001816008811061052f57fe5b60089182820401919006600402915054906101000a900463ffffffff1681565b60008061055a610259565b600881111561056557fe5b1461059c576040517f08c379a000000000000000000000000000000000000000000000000000000000815260040161046a906119a6565b6000437f00000000000000000000000000000000000000000000000000000000000000000190506105cc436110da565b6105d8816001016110da565b6040805160028082526060808301845292602083019080368337019050509050670de0b6b3a76400008160008151811061060e57fe5b6020026020010181815250507f00000000000000000000000000000000000000000000000000000000000000008160018151811061064857fe5b60209081029190910101526040517fc3391d2700000000000000000000000000000000000000000000000000000000815273ffffffffffffffffffffffffffffffffffffffff7f0000000000000000000000000000000000000000000000000000000000000000169063c3391d27906106d6906b033b2e3c9fd0803ce8000000906000908190600401611bb9565b600060405180830381600087803b1580156106f057600080fd5b505af1158015610704573d6000803e3d6000fd5b50506040517f246bc19b00000000000000000000000000000000000000000000000000000000815273ffffffffffffffffffffffffffffffffffffffff7f000000000000000000000000000000000000000000000000000000000000000016925063246bc19b915061077e9084904390879060040161181a565b600060405180830381600087803b15801561079857600080fd5b505af11580156107ac573d6000803e3d6000fd5b50505050505050565b7f000000000000000000000000000000000000000000000000000000000000000081565b7f000000000000000000000000000000000000000000000000000000000000000081565b6108056110d6565b60005473ffffffffffffffffffffffffffffffffffffffff908116911614610859576040517f08c379a000000000000000000000000000000000000000000000000000000000815260040161046a90611a97565b600280610864610259565b600881111561086f57fe5b146108a6576040517f08c379a000000000000000000000000000000000000000000000000000000000815260040161046a906119a6565b6108af436110da565b6000610a197f000000000000000000000000000000000000000000000000000000000000000073ffffffffffffffffffffffffffffffffffffffff166370a082317f000000000000000000000000000000000000000000000000000000000000000073ffffffffffffffffffffffffffffffffffffffff1663b64ef17b6040518163ffffffff1660e01b815260040160206040518083038186803b15801561095657600080fd5b505afa15801561096a573d6000803e3d6000fd5b505050506040513d601f19601f8201168201806040525081019061098e9190611715565b6040518263ffffffff1660e01b81526004016109aa91906117d3565b60206040518083038186803b1580156109c257600080fd5b505afa1580156109d6573d6000803e3d6000fd5b505050506040513d601f19601f820116820180604052508101906109fa9190611749565b610a13620f42406b033b2e3c9fd0803ce8000000610fbf565b90611013565b90506000610ac27f000000000000000000000000000000000000000000000000000000000000000073ffffffffffffffffffffffffffffffffffffffff166370a082317f000000000000000000000000000000000000000000000000000000000000000073ffffffffffffffffffffffffffffffffffffffff1663b64ef17b6040518163ffffffff1660e01b815260040160206040518083038186803b15801561095657600080fd5b90506000610ae382610add68056bc75e2d6310000086611250565b90611250565b90507f000000000000000000000000000000000000000000000000000000000000000073ffffffffffffffffffffffffffffffffffffffff1663b02f0b73827f000000000000000000000000000000000000000000000000000000000000000073ffffffffffffffffffffffffffffffffffffffff166370a08231306040518263ffffffff1660e01b8152600401610b7b91906117d3565b60206040518083038186803b158015610b9357600080fd5b505afa158015610ba7573d6000803e3d6000fd5b505050506040513d601f19601f82011682018060405250810190610bcb9190611749565b604080516002808252606082018352939092039290602083019080368337019050506040518363ffffffff1660e01b8152600401610c0a929190611ba0565b600060405180830381600087803b158015610c2457600080fd5b505af1158015610c38573d6000803e3d6000fd5b50506040517f70a0823100000000000000000000000000000000000000000000000000000000815273ffffffffffffffffffffffffffffffffffffffff7f00000000000000000000000000000000000000000000000000000000000000001692506342966c68915082906370a0823190610cb69030906004016117d3565b60206040518083038186803b158015610cce57600080fd5b505afa158015610ce2573d6000803e3d6000fd5b505050506040513d601f19601f82011682018060405250810190610d069190611749565b6040518263ffffffff1660e01b8152600401610d229190611b97565b600060405180830381600087803b158015610d3c57600080fd5b505af1158015610d50573d6000803e3d6000fd5b50505050610e5f610d5f610506565b6040517f70a0823100000000000000000000000000000000000000000000000000000000815273ffffffffffffffffffffffffffffffffffffffff7f000000000000000000000000000000000000000000000000000000000000000016906370a0823190610dd19030906004016117d3565b60206040518083038186803b158015610de957600080fd5b505afa158015610dfd573d6000803e3d6000fd5b505050506040513d601f19601f82011682018060405250810190610e219190611749565b73ffffffffffffffffffffffffffffffffffffffff7f0000000000000000000000000000000000000000000000000000000000000000169190611267565b50505050565b610e6d6110d6565b60005473ffffffffffffffffffffffffffffffffffffffff908116911614610ec1576040517f08c379a000000000000000000000000000000000000000000000000000000000815260040161046a90611a97565b73ffffffffffffffffffffffffffffffffffffffff8116610f0e576040517f08c379a000000000000000000000000000000000000000000000000000000000815260040161046a906118db565b6000805460405173ffffffffffffffffffffffffffffffffffffffff808516939216917f8be0079c531659141344cd1fd0a4f28419497f9722a3daafe3b4186f6b6457e091a3600080547fffffffffffffffffffffffff00000000000000000000000000000000000000001673ffffffffffffffffffffffffffffffffffffffff92909216919091179055565b7f000000000000000000000000000000000000000000000000000000000000000081565b600082610fce57506000610360565b82820282848281610fdb57fe5b041461035d576040517f08c379a000000000000000000000000000000000000000000000000000000000815260040161046a90611a3a565b600061035d83836040518060400160405280601a81526020017f536166654d6174683a206469766973696f6e206279207a65726f00000000000081525061130d565b60008282018381101561035d576040517f08c379a000000000000000000000000000000000000000000000000000000000815260040161046a90611938565b600061035d83836040518060400160405280601e81526020017f536166654d6174683a207375627472616374696f6e206f766572666c6f770000815250611360565b3390565b8063ffffffff164363ffffffff161115611120576040517f08c379a000000000000000000000000000000000000000000000000000000000815260040161046a906118a4565b63ffffffff8181161061115f576040517f08c379a000000000000000000000000000000000000000000000000000000000815260040161046a9061196f565b6000611169610259565b600881111561117457fe5b90506001816008811061118357fe5b60088104919091015460079091166004026101000a900463ffffffff908116146111d9576040517f08c379a000000000000000000000000000000000000000000000000000000000815260040161046a90611acc565b6111e2826113a6565b81600182600881106111f057fe5b600891828204019190066004026101000a81548163ffffffff021916908363ffffffff1602179055508163ffffffff167f260aac5b840edc27b89fdf50e91311a413363a400959466e1049e6d071b8cee260405160405180910390a25050565b600081831015611260578161035d565b5090919050565b6113088363a9059cbb60e01b84846040516024016112869291906117f4565b604080517fffffffffffffffffffffffffffffffffffffffffffffffffffffffffffffffe08184030181529190526020810180517bffffffffffffffffffffffffffffffffffffffffffffffffffffffff167fffffffff00000000000000000000000000000000000000000000000000000000909316929092179091526113ce565b505050565b60008183611348576040517f08c379a000000000000000000000000000000000000000000000000000000000815260040161046a9190611853565b50600083858161135457fe5b049150505b9392505050565b6000818484111561139e576040517f08c379a000000000000000000000000000000000000000000000000000000000815260040161046a9190611853565b505050900390565b6113af816113cb565b60036113b9610259565b60088111156113c457fe5b106113cb57fe5b50565b6060611430826040518060400160405280602081526020017f5361666545524332303a206c6f772d6c6576656c2063616c6c206661696c65648152508573ffffffffffffffffffffffffffffffffffffffff166114849092919063ffffffff16565b805190915015611308578080602001905181019061144e91906116f5565b611308576040517f08c379a000000000000000000000000000000000000000000000000000000000815260040161046a90611b3a565b6060611493848460008561149b565b949350505050565b6060824710156114d7576040517f08c379a000000000000000000000000000000000000000000000000000000000815260040161046a906119dd565b6114e08561159d565b611516576040517f08c379a000000000000000000000000000000000000000000000000000000000815260040161046a90611b03565b600060608673ffffffffffffffffffffffffffffffffffffffff16858760405161154091906117b7565b60006040518083038185875af1925050503d806000811461157d576040519150601f19603f3d011682016040523d82523d6000602084013e611582565b606091505b50915091506115928282866115a3565b979650505050505050565b3b151590565b606083156115b2575081611359565b8251156115c25782518084602001fd5b816040517f08c379a000000000000000000000000000000000000000000000000000000000815260040161046a9190611853565b803563ffffffff8116811461036057600080fd5b60006020828403121561161b578081fd5b813561035d81611c0c565b6000806101208385031215611639578081fd5b61010083018481111561164a578182fd5b839250356009811061165a578182fd5b809150509250929050565b6000806101208385031215611678578182fd5b83601f840112611686578182fd5b60405161010080820182811067ffffffffffffffff821117156116a7578485fd5b60405284018185878311156116ba578586fd5b855b60088110156116e4576116cf89836115f6565b835260209283019291909101906001016116bc565b509294505035905061165a81611c2e565b600060208284031215611706578081fd5b8151801515811461035d578182fd5b600060208284031215611726578081fd5b815161035d81611c0c565b600060208284031215611742578081fd5b5035919050565b60006020828403121561175a578081fd5b5051919050565b600060208284031215611772578081fd5b813561035d81611c2e565b6000815180845260208085019450808401835b838110156117ac57815187529582019590820190600101611790565b509495945050505050565b600082516117c9818460208701611be0565b9190910192915050565b73ffffffffffffffffffffffffffffffffffffffff91909116815260200190565b73ffffffffffffffffffffffffffffffffffffffff929092168252602082015260400190565b60006060825261182d606083018661177d565b60208301949094525060400152919050565b602081016009831061184d57fe5b91905290565b6000602082528251806020840152611872816040850160208701611be0565b601f017fffffffffffffffffffffffffffffffffffffffffffffffffffffffffffffffe0169190910160400192915050565b6020808252600f908201527f4e4558545f424c4f434b5f504153540000000000000000000000000000000000604082015260600190565b60208082526026908201527f4f776e61626c653a206e6577206f776e657220697320746865207a65726f206160408201527f6464726573730000000000000000000000000000000000000000000000000000606082015260800190565b6020808252601b908201527f536166654d6174683a206164646974696f6e206f766572666c6f770000000000604082015260600190565b60208082526018908201527f4e4558545f424c4f434b5f554e494e495449414c495a45440000000000000000604082015260600190565b60208082526009908201527f4241445f50484153450000000000000000000000000000000000000000000000604082015260600190565b60208082526026908201527f416464726573733a20696e73756666696369656e742062616c616e636520666f60408201527f722063616c6c0000000000000000000000000000000000000000000000000000606082015260800190565b60208082526021908201527f536166654d6174683a206d756c7469706c69636174696f6e206f766572666c6f60408201527f7700000000000000000000000000000000000000000000000000000000000000606082015260800190565b6020808252818101527f4f776e61626c653a2063616c6c6572206973206e6f7420746865206f776e6572604082015260600190565b6020808252600e908201527f4e4558545f424c4f434b5f534554000000000000000000000000000000000000604082015260600190565b6020808252601d908201527f416464726573733a2063616c6c20746f206e6f6e2d636f6e7472616374000000604082015260600190565b6020808252602a908201527f5361666545524332303a204552433230206f7065726174696f6e20646964206e60408201527f6f74207375636365656400000000000000000000000000000000000000000000606082015260800190565b90815260200190565b600083825260406020830152611493604083018461177d565b9283526020830191909152604082015260600190565b63ffffffff91909116815260200190565b60005b83811015611bfb578181015183820152602001611be3565b83811115610e5f5750506000910152565b73ffffffffffffffffffffffffffffffffffffffff811681146113cb57600080fd5b63ffffffff811681146113cb57600080fdfea26469706673582212206684ccf2f0425c8f9428d696690cc88aae6476978f8db0712d6e7d13b5fd7d1c64736f6c634300060c0033",
  "linkReferences": {
    "@beehiveinnovation/configurable-rights-pool/libraries/RightsManager.sol": {
      "RightsManager": [
        {
          "length": 20,
          "start": 1196
        }
      ]
    }
  },
  "deployedLinkReferences": {}
}