{
  "_format": "hh-sol-artifact-1",
  "contractName": "SeedERC20ForceSendEther",
  "sourceName": "contracts/test/SeedERC20ForceSendEther.sol",
  "abi": [
    {
      "stateMutability": "payable",
      "type": "fallback"
    },
    {
      "inputs": [
        {
          "internalType": "contract SeedERC20",
          "name": "seedERC20Contract_",
          "type": "address"
        }
      ],
      "name": "destroy",
      "outputs": [],
      "stateMutability": "nonpayable",
      "type": "function"
    },
    {
      "stateMutability": "payable",
      "type": "receive"
    }
  ],
  "bytecode": "0x6080604052348015600f57600080fd5b5060988061001e6000396000f3fe608060405260043610601e5760003560e01c8062f55d9d146026576024565b36602457005b005b348015603157600080fd5b50602460048036036020811015604657600080fd5b503573ffffffffffffffffffffffffffffffffffffffff168080fffea264697066735822122071b6b52c9e9a748db9f1d8b9a975e1160d236de9ea8ca872a777e4bfd2b8298a64736f6c634300060c0033",
  "linkReferences": {},
  "deployedLinkReferences": {}
}