{
  "contracts/pool/IBalancerConstants.sol": {
    "IBalancerConstants": {
      "abi": [
        {
          "inputs": [],
          "name": "BONE",
          "outputs": [
            {
              "internalType": "uint256",
              "name": "",
              "type": "uint256"
            }
          ],
          "stateMutability": "view",
          "type": "function"
        },
        {
          "inputs": [],
          "name": "EXIT_FEE",
          "outputs": [
            {
              "internalType": "uint256",
              "name": "",
              "type": "uint256"
            }
          ],
          "stateMutability": "view",
          "type": "function"
        },
        {
          "inputs": [],
          "name": "MAX_ASSET_LIMIT",
          "outputs": [
            {
              "internalType": "uint256",
              "name": "",
              "type": "uint256"
            }
          ],
          "stateMutability": "view",
          "type": "function"
        },
        {
          "inputs": [],
          "name": "MAX_BALANCE",
          "outputs": [
            {
              "internalType": "uint256",
              "name": "",
              "type": "uint256"
            }
          ],
          "stateMutability": "view",
          "type": "function"
        },
        {
          "inputs": [],
          "name": "MAX_FEE",
          "outputs": [
            {
              "internalType": "uint256",
              "name": "",
              "type": "uint256"
            }
          ],
          "stateMutability": "view",
          "type": "function"
        },
        {
          "inputs": [],
          "name": "MAX_IN_RATIO",
          "outputs": [
            {
              "internalType": "uint256",
              "name": "",
              "type": "uint256"
            }
          ],
          "stateMutability": "view",
          "type": "function"
        },
        {
          "inputs": [],
          "name": "MAX_OUT_RATIO",
          "outputs": [
            {
              "internalType": "uint256",
              "name": "",
              "type": "uint256"
            }
          ],
          "stateMutability": "view",
          "type": "function"
        },
        {
          "inputs": [],
          "name": "MAX_POOL_SUPPLY",
          "outputs": [
            {
              "internalType": "uint256",
              "name": "",
              "type": "uint256"
            }
          ],
          "stateMutability": "view",
          "type": "function"
        },
        {
          "inputs": [],
          "name": "MAX_TOTAL_WEIGHT",
          "outputs": [
            {
              "internalType": "uint256",
              "name": "",
              "type": "uint256"
            }
          ],
          "stateMutability": "view",
          "type": "function"
        },
        {
          "inputs": [],
          "name": "MAX_UINT",
          "outputs": [
            {
              "internalType": "uint256",
              "name": "",
              "type": "uint256"
            }
          ],
          "stateMutability": "view",
          "type": "function"
        },
        {
          "inputs": [],
          "name": "MAX_WEIGHT",
          "outputs": [
            {
              "internalType": "uint256",
              "name": "",
              "type": "uint256"
            }
          ],
          "stateMutability": "view",
          "type": "function"
        },
        {
          "inputs": [],
          "name": "MIN_ASSET_LIMIT",
          "outputs": [
            {
              "internalType": "uint256",
              "name": "",
              "type": "uint256"
            }
          ],
          "stateMutability": "view",
          "type": "function"
        },
        {
          "inputs": [],
          "name": "MIN_BALANCE",
          "outputs": [
            {
              "internalType": "uint256",
              "name": "",
              "type": "uint256"
            }
          ],
          "stateMutability": "view",
          "type": "function"
        },
        {
          "inputs": [],
          "name": "MIN_FEE",
          "outputs": [
            {
              "internalType": "uint256",
              "name": "",
              "type": "uint256"
            }
          ],
          "stateMutability": "view",
          "type": "function"
        },
        {
          "inputs": [],
          "name": "MIN_POOL_SUPPLY",
          "outputs": [
            {
              "internalType": "uint256",
              "name": "",
              "type": "uint256"
            }
          ],
          "stateMutability": "view",
          "type": "function"
        },
        {
          "inputs": [],
          "name": "MIN_WEIGHT",
          "outputs": [
            {
              "internalType": "uint256",
              "name": "",
              "type": "uint256"
            }
          ],
          "stateMutability": "view",
          "type": "function"
        }
      ],
      "evm": {
        "bytecode": {
          "linkReferences": {},
          "object": "610277610026600b82828239805160001a60731461001957fe5b30600052607381538281f3fe730000000000000000000000000000000000000000301460806040526004361061010a5760003560e01c8063bc063e1a116100a1578063def92c6911610070578063def92c6914610171578063e4a28a521461010f578063e5b5019a14610179578063ec093021146101815761010a565b8063bc063e1a14610159578063c36596a614610129578063c6580d1214610161578063cc12f267146101695761010a565b806376c7a3c7116100dd57806376c7a3c7146101415780637e88781c14610149578063867378c514610141578063992e2a92146101515761010a565b806309a3bbe41461010f578063218b5382146101295780634d1acbab146101315780636fd34b9f14610139575b600080fd5b610117610189565b60408051918252519081900360200190f35b610117610196565b6101176101a2565b6101176101a7565b6101176101ac565b6101176101be565b6101176101cb565b6101176101d7565b6101176101e7565b6101176101ec565b6101176101fc565b61011761020d565b610117610231565b6802b5e3af16b188000081565b670de0b6b3a764000081565b600281565b600881565b620f4240670de0b6b3a76400005b0481565b68056bc75e2d6310000081565b6704a03ce68d21555681565b600a670de0b6b3a76400006101ba565b600081565b6b033b2e3c9fd0803ce800000081565b6c0c9f2c9cd04674edea4000000081565b7fffffffffffffffffffffffffffffffffffffffffffffffffffffffffffffffff81565b6002670de0b6b3a76400006101ba56fea2646970667358221220b2b7d8c8951a16cb16302c791efdf2ec80085b1ea73abfffc30a63c4b80aaf9564736f6c634300060c0033",
          "opcodes": "PUSH2 0x277 PUSH2 0x26 PUSH1 0xB DUP3 DUP3 DUP3 CODECOPY DUP1 MLOAD PUSH1 0x0 BYTE PUSH1 0x73 EQ PUSH2 0x19 JUMPI INVALID JUMPDEST ADDRESS PUSH1 0x0 MSTORE PUSH1 0x73 DUP2 MSTORE8 DUP3 DUP2 RETURN INVALID PUSH20 0x0 ADDRESS EQ PUSH1 0x80 PUSH1 0x40 MSTORE PUSH1 0x4 CALLDATASIZE LT PUSH2 0x10A JUMPI PUSH1 0x0 CALLDATALOAD PUSH1 0xE0 SHR DUP1 PUSH4 0xBC063E1A GT PUSH2 0xA1 JUMPI DUP1 PUSH4 0xDEF92C69 GT PUSH2 0x70 JUMPI DUP1 PUSH4 0xDEF92C69 EQ PUSH2 0x171 JUMPI DUP1 PUSH4 0xE4A28A52 EQ PUSH2 0x10F JUMPI DUP1 PUSH4 0xE5B5019A EQ PUSH2 0x179 JUMPI DUP1 PUSH4 0xEC093021 EQ PUSH2 0x181 JUMPI PUSH2 0x10A JUMP JUMPDEST DUP1 PUSH4 0xBC063E1A EQ PUSH2 0x159 JUMPI DUP1 PUSH4 0xC36596A6 EQ PUSH2 0x129 JUMPI DUP1 PUSH4 0xC6580D12 EQ PUSH2 0x161 JUMPI DUP1 PUSH4 0xCC12F267 EQ PUSH2 0x169 JUMPI PUSH2 0x10A JUMP JUMPDEST DUP1 PUSH4 0x76C7A3C7 GT PUSH2 0xDD JUMPI DUP1 PUSH4 0x76C7A3C7 EQ PUSH2 0x141 JUMPI DUP1 PUSH4 0x7E88781C EQ PUSH2 0x149 JUMPI DUP1 PUSH4 0x867378C5 EQ PUSH2 0x141 JUMPI DUP1 PUSH4 0x992E2A92 EQ PUSH2 0x151 JUMPI PUSH2 0x10A JUMP JUMPDEST DUP1 PUSH4 0x9A3BBE4 EQ PUSH2 0x10F JUMPI DUP1 PUSH4 0x218B5382 EQ PUSH2 0x129 JUMPI DUP1 PUSH4 0x4D1ACBAB EQ PUSH2 0x131 JUMPI DUP1 PUSH4 0x6FD34B9F EQ PUSH2 0x139 JUMPI JUMPDEST PUSH1 0x0 DUP1 REVERT JUMPDEST PUSH2 0x117 PUSH2 0x189 JUMP JUMPDEST PUSH1 0x40 DUP1 MLOAD SWAP2 DUP3 MSTORE MLOAD SWAP1 DUP2 SWAP1 SUB PUSH1 0x20 ADD SWAP1 RETURN JUMPDEST PUSH2 0x117 PUSH2 0x196 JUMP JUMPDEST PUSH2 0x117 PUSH2 0x1A2 JUMP JUMPDEST PUSH2 0x117 PUSH2 0x1A7 JUMP JUMPDEST PUSH2 0x117 PUSH2 0x1AC JUMP JUMPDEST PUSH2 0x117 PUSH2 0x1BE JUMP JUMPDEST PUSH2 0x117 PUSH2 0x1CB JUMP JUMPDEST PUSH2 0x117 PUSH2 0x1D7 JUMP JUMPDEST PUSH2 0x117 PUSH2 0x1E7 JUMP JUMPDEST PUSH2 0x117 PUSH2 0x1EC JUMP JUMPDEST PUSH2 0x117 PUSH2 0x1FC JUMP JUMPDEST PUSH2 0x117 PUSH2 0x20D JUMP JUMPDEST PUSH2 0x117 PUSH2 0x231 JUMP JUMPDEST PUSH9 0x2B5E3AF16B1880000 DUP2 JUMP JUMPDEST PUSH8 0xDE0B6B3A7640000 DUP2 JUMP JUMPDEST PUSH1 0x2 DUP2 JUMP JUMPDEST PUSH1 0x8 DUP2 JUMP JUMPDEST PUSH3 0xF4240 PUSH8 0xDE0B6B3A7640000 JUMPDEST DIV DUP2 JUMP JUMPDEST PUSH9 0x56BC75E2D63100000 DUP2 JUMP JUMPDEST PUSH8 0x4A03CE68D215556 DUP2 JUMP JUMPDEST PUSH1 0xA PUSH8 0xDE0B6B3A7640000 PUSH2 0x1BA JUMP JUMPDEST PUSH1 0x0 DUP2 JUMP JUMPDEST PUSH12 0x33B2E3C9FD0803CE8000000 DUP2 JUMP JUMPDEST PUSH13 0xC9F2C9CD04674EDEA40000000 DUP2 JUMP JUMPDEST PUSH32 0xFFFFFFFFFFFFFFFFFFFFFFFFFFFFFFFFFFFFFFFFFFFFFFFFFFFFFFFFFFFFFFFF DUP2 JUMP JUMPDEST PUSH1 0x2 PUSH8 0xDE0B6B3A7640000 PUSH2 0x1BA JUMP INVALID LOG2 PUSH5 0x6970667358 0x22 SLT KECCAK256 0xB2 0xB7 0xD8 0xC8 SWAP6 BYTE AND 0xCB AND ADDRESS 0x2C PUSH26 0x1EFDF2EC80085B1EA73ABFFFC30A63C4B80AAF9564736F6C6343 STOP MOD 0xC STOP CALLER "
        },
        "methodIdentifiers": {
          "BONE()": "c36596a6",
          "EXIT_FEE()": "c6580d12",
          "MAX_ASSET_LIMIT()": "6fd34b9f",
          "MAX_BALANCE()": "def92c69",
          "MAX_FEE()": "bc063e1a",
          "MAX_IN_RATIO()": "ec093021",
          "MAX_OUT_RATIO()": "992e2a92",
          "MAX_POOL_SUPPLY()": "cc12f267",
          "MAX_TOTAL_WEIGHT()": "09a3bbe4",
          "MAX_UINT()": "e5b5019a",
          "MAX_WEIGHT()": "e4a28a52",
          "MIN_ASSET_LIMIT()": "4d1acbab",
          "MIN_BALANCE()": "867378c5",
          "MIN_FEE()": "76c7a3c7",
          "MIN_POOL_SUPPLY()": "7e88781c",
          "MIN_WEIGHT()": "218b5382"
        }
      }
    }
  }
}