{
  "contracts/tier/VerifyTier.sol": {
    "VerifyTier": {
      "abi": [
        {
          "inputs": [
            {
              "internalType": "contract Verify",
              "name": "verify_",
              "type": "address"
            }
          ],
          "stateMutability": "nonpayable",
          "type": "constructor"
        },
        {
          "anonymous": false,
          "inputs": [
            {
              "indexed": true,
              "internalType": "address",
              "name": "account",
              "type": "address"
            },
            {
              "indexed": true,
              "internalType": "enum ITier.Tier",
              "name": "startTier",
              "type": "uint8"
            },
            {
              "indexed": true,
              "internalType": "enum ITier.Tier",
              "name": "endTier",
              "type": "uint8"
            }
          ],
          "name": "TierChange",
          "type": "event"
        },
        {
          "inputs": [
            {
              "internalType": "address",
              "name": "account_",
              "type": "address"
            }
          ],
          "name": "report",
          "outputs": [
            {
              "internalType": "uint256",
              "name": "",
              "type": "uint256"
            }
          ],
          "stateMutability": "view",
          "type": "function"
        },
        {
          "inputs": [
            {
              "internalType": "address",
              "name": "",
              "type": "address"
            },
            {
              "internalType": "enum ITier.Tier",
              "name": "",
              "type": "uint8"
            },
            {
              "internalType": "bytes",
              "name": "",
              "type": "bytes"
            }
          ],
          "name": "setTier",
          "outputs": [],
          "stateMutability": "nonpayable",
          "type": "function"
        },
        {
          "inputs": [],
          "name": "verify",
          "outputs": [
            {
              "internalType": "contract Verify",
              "name": "",
              "type": "address"
            }
          ],
          "stateMutability": "view",
          "type": "function"
        }
      ],
      "evm": {
        "bytecode": {
          "linkReferences": {},
          "object": "60a060405234801561001057600080fd5b506040516106b23803806106b283398101604081905261002f91610044565b60601b6001600160601b031916608052610072565b600060208284031215610055578081fd5b81516001600160a01b038116811461006b578182fd5b9392505050565b60805160601c6106196100996000398061011b52806101e152806102c552506106196000f3fe608060405234801561001057600080fd5b50600436106100415760003560e01c806352dab69d14610046578063e053ea311461005b578063fc735e9914610084575b600080fd5b6100596100543660046103ac565b610099565b005b61006e61006936600461038a565b6100d4565b60405161007b9190610591565b60405180910390f35b61008c6102c3565b60405161007b91906104f8565b6040517f08c379a00000000000000000000000000000000000000000000000000000000081526004016100cb90610519565b60405180910390fd5b60006100de610339565b6040517f31e658a500000000000000000000000000000000000000000000000000000000815273ffffffffffffffffffffffffffffffffffffffff7f000000000000000000000000000000000000000000000000000000000000000016906331e658a5906101509086906004016104f8565b60806040518083038186803b15801561016857600080fd5b505afa15801561017c573d6000803e3d6000fd5b505050506040513d601f19601f820116820180604052508101906101a09190610499565b905060026040517f6be018c300000000000000000000000000000000000000000000000000000000815273ffffffffffffffffffffffffffffffffffffffff7f00000000000000000000000000000000000000000000000000000000000000001690636be018c3906102189085904390600401610550565b60206040518083038186803b15801561023057600080fd5b505afa158015610244573d6000803e3d6000fd5b505050506040513d601f19601f82011682018060405250810190610268919061047a565b600381111561027357fe5b1415610299576102916000806008846040015163ffffffff166102e7565b9150506102be565b7fffffffffffffffffffffffffffffffffffffffffffffffffffffffffffffffff9150505b919050565b7f000000000000000000000000000000000000000000000000000000000000000081565b60008060008560088111156102f857fe5b90505b84600881111561030757fe5b81101561032e5763ffffffff6020820290811b199790971684881b179691506001016102fb565b509495945050505050565b60408051608081018252600080825260208201819052918101829052606081019190915290565b803573ffffffffffffffffffffffffffffffffffffffff8116811461038457600080fd5b92915050565b60006020828403121561039b578081fd5b6103a58383610360565b9392505050565b6000806000606084860312156103c0578182fd5b6103ca8585610360565b92506020808501356103db816105c1565b9250604085013567ffffffffffffffff808211156103f7578384fd5b818701915087601f83011261040a578384fd5b813581811115610418578485fd5b610448847fffffffffffffffffffffffffffffffffffffffffffffffffffffffffffffffe0601f8401160161059a565b9150808252888482850101111561045d578485fd5b808484018584013784848284010152508093505050509250925092565b60006020828403121561048b578081fd5b8151600481106103a5578182fd5b6000608082840312156104aa578081fd5b6104b4608061059a565b8251815260208301516104c6816105d1565b602082015260408301516104d9816105d1565b604082015260608301516104ec816105d1565b60608201529392505050565b73ffffffffffffffffffffffffffffffffffffffff91909116815260200190565b60208082526008908201527f5345545f54494552000000000000000000000000000000000000000000000000604082015260600190565b8251815260208084015163ffffffff908116918301919091526040808501518216908301526060938401518116938201939093529116608082015260a00190565b90815260200190565b60405181810167ffffffffffffffff811182821017156105b957600080fd5b604052919050565b600981106105ce57600080fd5b50565b63ffffffff811681146105ce57600080fdfea264697066735822122044cd2e2b0352ff540883e2e291076ef23953b6c9dd6aa2b8ebe53ac979abf5c164736f6c634300060c0033",
          "opcodes": "PUSH1 0xA0 PUSH1 0x40 MSTORE CALLVALUE DUP1 ISZERO PUSH2 0x10 JUMPI PUSH1 0x0 DUP1 REVERT JUMPDEST POP PUSH1 0x40 MLOAD PUSH2 0x6B2 CODESIZE SUB DUP1 PUSH2 0x6B2 DUP4 CODECOPY DUP2 ADD PUSH1 0x40 DUP2 SWAP1 MSTORE PUSH2 0x2F SWAP2 PUSH2 0x44 JUMP JUMPDEST PUSH1 0x60 SHL PUSH1 0x1 PUSH1 0x1 PUSH1 0x60 SHL SUB NOT AND PUSH1 0x80 MSTORE PUSH2 0x72 JUMP JUMPDEST PUSH1 0x0 PUSH1 0x20 DUP3 DUP5 SUB SLT ISZERO PUSH2 0x55 JUMPI DUP1 DUP2 REVERT JUMPDEST DUP2 MLOAD PUSH1 0x1 PUSH1 0x1 PUSH1 0xA0 SHL SUB DUP2 AND DUP2 EQ PUSH2 0x6B JUMPI DUP2 DUP3 REVERT JUMPDEST SWAP4 SWAP3 POP POP POP JUMP JUMPDEST PUSH1 0x80 MLOAD PUSH1 0x60 SHR PUSH2 0x619 PUSH2 0x99 PUSH1 0x0 CODECOPY DUP1 PUSH2 0x11B MSTORE DUP1 PUSH2 0x1E1 MSTORE DUP1 PUSH2 0x2C5 MSTORE POP PUSH2 0x619 PUSH1 0x0 RETURN INVALID PUSH1 0x80 PUSH1 0x40 MSTORE CALLVALUE DUP1 ISZERO PUSH2 0x10 JUMPI PUSH1 0x0 DUP1 REVERT JUMPDEST POP PUSH1 0x4 CALLDATASIZE LT PUSH2 0x41 JUMPI PUSH1 0x0 CALLDATALOAD PUSH1 0xE0 SHR DUP1 PUSH4 0x52DAB69D EQ PUSH2 0x46 JUMPI DUP1 PUSH4 0xE053EA31 EQ PUSH2 0x5B JUMPI DUP1 PUSH4 0xFC735E99 EQ PUSH2 0x84 JUMPI JUMPDEST PUSH1 0x0 DUP1 REVERT JUMPDEST PUSH2 0x59 PUSH2 0x54 CALLDATASIZE PUSH1 0x4 PUSH2 0x3AC JUMP JUMPDEST PUSH2 0x99 JUMP JUMPDEST STOP JUMPDEST PUSH2 0x6E PUSH2 0x69 CALLDATASIZE PUSH1 0x4 PUSH2 0x38A JUMP JUMPDEST PUSH2 0xD4 JUMP JUMPDEST PUSH1 0x40 MLOAD PUSH2 0x7B SWAP2 SWAP1 PUSH2 0x591 JUMP JUMPDEST PUSH1 0x40 MLOAD DUP1 SWAP2 SUB SWAP1 RETURN JUMPDEST PUSH2 0x8C PUSH2 0x2C3 JUMP JUMPDEST PUSH1 0x40 MLOAD PUSH2 0x7B SWAP2 SWAP1 PUSH2 0x4F8 JUMP JUMPDEST PUSH1 0x40 MLOAD PUSH32 0x8C379A000000000000000000000000000000000000000000000000000000000 DUP2 MSTORE PUSH1 0x4 ADD PUSH2 0xCB SWAP1 PUSH2 0x519 JUMP JUMPDEST PUSH1 0x40 MLOAD DUP1 SWAP2 SUB SWAP1 REVERT JUMPDEST PUSH1 0x0 PUSH2 0xDE PUSH2 0x339 JUMP JUMPDEST PUSH1 0x40 MLOAD PUSH32 0x31E658A500000000000000000000000000000000000000000000000000000000 DUP2 MSTORE PUSH20 0xFFFFFFFFFFFFFFFFFFFFFFFFFFFFFFFFFFFFFFFF PUSH32 0x0 AND SWAP1 PUSH4 0x31E658A5 SWAP1 PUSH2 0x150 SWAP1 DUP7 SWAP1 PUSH1 0x4 ADD PUSH2 0x4F8 JUMP JUMPDEST PUSH1 0x80 PUSH1 0x40 MLOAD DUP1 DUP4 SUB DUP2 DUP7 DUP1 EXTCODESIZE ISZERO DUP1 ISZERO PUSH2 0x168 JUMPI PUSH1 0x0 DUP1 REVERT JUMPDEST POP GAS STATICCALL ISZERO DUP1 ISZERO PUSH2 0x17C JUMPI RETURNDATASIZE PUSH1 0x0 DUP1 RETURNDATACOPY RETURNDATASIZE PUSH1 0x0 REVERT JUMPDEST POP POP POP POP PUSH1 0x40 MLOAD RETURNDATASIZE PUSH1 0x1F NOT PUSH1 0x1F DUP3 ADD AND DUP3 ADD DUP1 PUSH1 0x40 MSTORE POP DUP2 ADD SWAP1 PUSH2 0x1A0 SWAP2 SWAP1 PUSH2 0x499 JUMP JUMPDEST SWAP1 POP PUSH1 0x2 PUSH1 0x40 MLOAD PUSH32 0x6BE018C300000000000000000000000000000000000000000000000000000000 DUP2 MSTORE PUSH20 0xFFFFFFFFFFFFFFFFFFFFFFFFFFFFFFFFFFFFFFFF PUSH32 0x0 AND SWAP1 PUSH4 0x6BE018C3 SWAP1 PUSH2 0x218 SWAP1 DUP6 SWAP1 NUMBER SWAP1 PUSH1 0x4 ADD PUSH2 0x550 JUMP JUMPDEST PUSH1 0x20 PUSH1 0x40 MLOAD DUP1 DUP4 SUB DUP2 DUP7 DUP1 EXTCODESIZE ISZERO DUP1 ISZERO PUSH2 0x230 JUMPI PUSH1 0x0 DUP1 REVERT JUMPDEST POP GAS STATICCALL ISZERO DUP1 ISZERO PUSH2 0x244 JUMPI RETURNDATASIZE PUSH1 0x0 DUP1 RETURNDATACOPY RETURNDATASIZE PUSH1 0x0 REVERT JUMPDEST POP POP POP POP PUSH1 0x40 MLOAD RETURNDATASIZE PUSH1 0x1F NOT PUSH1 0x1F DUP3 ADD AND DUP3 ADD DUP1 PUSH1 0x40 MSTORE POP DUP2 ADD SWAP1 PUSH2 0x268 SWAP2 SWAP1 PUSH2 0x47A JUMP JUMPDEST PUSH1 0x3 DUP2 GT ISZERO PUSH2 0x273 JUMPI INVALID JUMPDEST EQ ISZERO PUSH2 0x299 JUMPI PUSH2 0x291 PUSH1 0x0 DUP1 PUSH1 0x8 DUP5 PUSH1 0x40 ADD MLOAD PUSH4 0xFFFFFFFF AND PUSH2 0x2E7 JUMP JUMPDEST SWAP2 POP POP PUSH2 0x2BE JUMP JUMPDEST PUSH32 0xFFFFFFFFFFFFFFFFFFFFFFFFFFFFFFFFFFFFFFFFFFFFFFFFFFFFFFFFFFFFFFFF SWAP2 POP POP JUMPDEST SWAP2 SWAP1 POP JUMP JUMPDEST PUSH32 0x0 DUP2 JUMP JUMPDEST PUSH1 0x0 DUP1 PUSH1 0x0 DUP6 PUSH1 0x8 DUP2 GT ISZERO PUSH2 0x2F8 JUMPI INVALID JUMPDEST SWAP1 POP JUMPDEST DUP5 PUSH1 0x8 DUP2 GT ISZERO PUSH2 0x307 JUMPI INVALID JUMPDEST DUP2 LT ISZERO PUSH2 0x32E JUMPI PUSH4 0xFFFFFFFF PUSH1 0x20 DUP3 MUL SWAP1 DUP2 SHL NOT SWAP8 SWAP1 SWAP8 AND DUP5 DUP9 SHL OR SWAP7 SWAP2 POP PUSH1 0x1 ADD PUSH2 0x2FB JUMP JUMPDEST POP SWAP5 SWAP6 SWAP5 POP POP POP POP POP JUMP JUMPDEST PUSH1 0x40 DUP1 MLOAD PUSH1 0x80 DUP2 ADD DUP3 MSTORE PUSH1 0x0 DUP1 DUP3 MSTORE PUSH1 0x20 DUP3 ADD DUP2 SWAP1 MSTORE SWAP2 DUP2 ADD DUP3 SWAP1 MSTORE PUSH1 0x60 DUP2 ADD SWAP2 SWAP1 SWAP2 MSTORE SWAP1 JUMP JUMPDEST DUP1 CALLDATALOAD PUSH20 0xFFFFFFFFFFFFFFFFFFFFFFFFFFFFFFFFFFFFFFFF DUP2 AND DUP2 EQ PUSH2 0x384 JUMPI PUSH1 0x0 DUP1 REVERT JUMPDEST SWAP3 SWAP2 POP POP JUMP JUMPDEST PUSH1 0x0 PUSH1 0x20 DUP3 DUP5 SUB SLT ISZERO PUSH2 0x39B JUMPI DUP1 DUP2 REVERT JUMPDEST PUSH2 0x3A5 DUP4 DUP4 PUSH2 0x360 JUMP JUMPDEST SWAP4 SWAP3 POP POP POP JUMP JUMPDEST PUSH1 0x0 DUP1 PUSH1 0x0 PUSH1 0x60 DUP5 DUP7 SUB SLT ISZERO PUSH2 0x3C0 JUMPI DUP2 DUP3 REVERT JUMPDEST PUSH2 0x3CA DUP6 DUP6 PUSH2 0x360 JUMP JUMPDEST SWAP3 POP PUSH1 0x20 DUP1 DUP6 ADD CALLDATALOAD PUSH2 0x3DB DUP2 PUSH2 0x5C1 JUMP JUMPDEST SWAP3 POP PUSH1 0x40 DUP6 ADD CALLDATALOAD PUSH8 0xFFFFFFFFFFFFFFFF DUP1 DUP3 GT ISZERO PUSH2 0x3F7 JUMPI DUP4 DUP5 REVERT JUMPDEST DUP2 DUP8 ADD SWAP2 POP DUP8 PUSH1 0x1F DUP4 ADD SLT PUSH2 0x40A JUMPI DUP4 DUP5 REVERT JUMPDEST DUP2 CALLDATALOAD DUP2 DUP2 GT ISZERO PUSH2 0x418 JUMPI DUP5 DUP6 REVERT JUMPDEST PUSH2 0x448 DUP5 PUSH32 0xFFFFFFFFFFFFFFFFFFFFFFFFFFFFFFFFFFFFFFFFFFFFFFFFFFFFFFFFFFFFFFE0 PUSH1 0x1F DUP5 ADD AND ADD PUSH2 0x59A JUMP JUMPDEST SWAP2 POP DUP1 DUP3 MSTORE DUP9 DUP5 DUP3 DUP6 ADD ADD GT ISZERO PUSH2 0x45D JUMPI DUP5 DUP6 REVERT JUMPDEST DUP1 DUP5 DUP5 ADD DUP6 DUP5 ADD CALLDATACOPY DUP5 DUP5 DUP3 DUP5 ADD ADD MSTORE POP DUP1 SWAP4 POP POP POP POP SWAP3 POP SWAP3 POP SWAP3 JUMP JUMPDEST PUSH1 0x0 PUSH1 0x20 DUP3 DUP5 SUB SLT ISZERO PUSH2 0x48B JUMPI DUP1 DUP2 REVERT JUMPDEST DUP2 MLOAD PUSH1 0x4 DUP2 LT PUSH2 0x3A5 JUMPI DUP2 DUP3 REVERT JUMPDEST PUSH1 0x0 PUSH1 0x80 DUP3 DUP5 SUB SLT ISZERO PUSH2 0x4AA JUMPI DUP1 DUP2 REVERT JUMPDEST PUSH2 0x4B4 PUSH1 0x80 PUSH2 0x59A JUMP JUMPDEST DUP3 MLOAD DUP2 MSTORE PUSH1 0x20 DUP4 ADD MLOAD PUSH2 0x4C6 DUP2 PUSH2 0x5D1 JUMP JUMPDEST PUSH1 0x20 DUP3 ADD MSTORE PUSH1 0x40 DUP4 ADD MLOAD PUSH2 0x4D9 DUP2 PUSH2 0x5D1 JUMP JUMPDEST PUSH1 0x40 DUP3 ADD MSTORE PUSH1 0x60 DUP4 ADD MLOAD PUSH2 0x4EC DUP2 PUSH2 0x5D1 JUMP JUMPDEST PUSH1 0x60 DUP3 ADD MSTORE SWAP4 SWAP3 POP POP POP JUMP JUMPDEST PUSH20 0xFFFFFFFFFFFFFFFFFFFFFFFFFFFFFFFFFFFFFFFF SWAP2 SWAP1 SWAP2 AND DUP2 MSTORE PUSH1 0x20 ADD SWAP1 JUMP JUMPDEST PUSH1 0x20 DUP1 DUP3 MSTORE PUSH1 0x8 SWAP1 DUP3 ADD MSTORE PUSH32 0x5345545F54494552000000000000000000000000000000000000000000000000 PUSH1 0x40 DUP3 ADD MSTORE PUSH1 0x60 ADD SWAP1 JUMP JUMPDEST DUP3 MLOAD DUP2 MSTORE PUSH1 0x20 DUP1 DUP5 ADD MLOAD PUSH4 0xFFFFFFFF SWAP1 DUP2 AND SWAP2 DUP4 ADD SWAP2 SWAP1 SWAP2 MSTORE PUSH1 0x40 DUP1 DUP6 ADD MLOAD DUP3 AND SWAP1 DUP4 ADD MSTORE PUSH1 0x60 SWAP4 DUP5 ADD MLOAD DUP2 AND SWAP4 DUP3 ADD SWAP4 SWAP1 SWAP4 MSTORE SWAP2 AND PUSH1 0x80 DUP3 ADD MSTORE PUSH1 0xA0 ADD SWAP1 JUMP JUMPDEST SWAP1 DUP2 MSTORE PUSH1 0x20 ADD SWAP1 JUMP JUMPDEST PUSH1 0x40 MLOAD DUP2 DUP2 ADD PUSH8 0xFFFFFFFFFFFFFFFF DUP2 GT DUP3 DUP3 LT OR ISZERO PUSH2 0x5B9 JUMPI PUSH1 0x0 DUP1 REVERT JUMPDEST PUSH1 0x40 MSTORE SWAP2 SWAP1 POP JUMP JUMPDEST PUSH1 0x9 DUP2 LT PUSH2 0x5CE JUMPI PUSH1 0x0 DUP1 REVERT JUMPDEST POP JUMP JUMPDEST PUSH4 0xFFFFFFFF DUP2 AND DUP2 EQ PUSH2 0x5CE JUMPI PUSH1 0x0 DUP1 REVERT INVALID LOG2 PUSH5 0x6970667358 0x22 SLT KECCAK256 DIFFICULTY 0xCD 0x2E 0x2B SUB MSTORE SELFDESTRUCT SLOAD ADDMOD DUP4 0xE2 0xE2 SWAP2 SMOD PUSH15 0xF23953B6C9DD6AA2B8EBE53AC979AB CREATE2 0xC1 PUSH5 0x736F6C6343 STOP MOD 0xC STOP CALLER "
        },
        "methodIdentifiers": {
          "report(address)": "e053ea31",
          "setTier(address,uint8,bytes)": "52dab69d",
          "verify()": "fc735e99"
        }
      }
    }
  }
}