{
  "contracts/redeemableERC20/RedeemableERC20Factory.sol": {
    "RedeemableERC20Factory": {
      "abi": [
        {
          "anonymous": false,
          "inputs": [
            {
              "indexed": true,
              "internalType": "address",
              "name": "_contract",
              "type": "address"
            }
          ],
          "name": "NewContract",
          "type": "event"
        },
        {
          "inputs": [
            {
              "internalType": "bytes",
              "name": "data_",
              "type": "bytes"
            }
          ],
          "name": "createChild",
          "outputs": [
            {
              "internalType": "address",
              "name": "",
              "type": "address"
            }
          ],
          "stateMutability": "nonpayable",
          "type": "function"
        },
        {
          "inputs": [
            {
              "components": [
                {
                  "internalType": "address",
                  "name": "admin",
                  "type": "address"
                },
                {
                  "internalType": "string",
                  "name": "name",
                  "type": "string"
                },
                {
                  "internalType": "string",
                  "name": "symbol",
                  "type": "string"
                },
                {
                  "internalType": "contract ITier",
                  "name": "tier",
                  "type": "address"
                },
                {
                  "internalType": "enum ITier.Tier",
                  "name": "minimumStatus",
                  "type": "uint8"
                },
                {
                  "internalType": "uint256",
                  "name": "totalSupply",
                  "type": "uint256"
                }
              ],
              "internalType": "struct RedeemableERC20Config",
              "name": "config_",
              "type": "tuple"
            }
          ],
          "name": "createChild",
          "outputs": [
            {
              "internalType": "address",
              "name": "",
              "type": "address"
            }
          ],
          "stateMutability": "nonpayable",
          "type": "function"
        },
        {
          "inputs": [
            {
              "internalType": "address",
              "name": "maybeChild_",
              "type": "address"
            }
          ],
          "name": "isChild",
          "outputs": [
            {
              "internalType": "bool",
              "name": "",
              "type": "bool"
            }
          ],
          "stateMutability": "nonpayable",
          "type": "function"
        }
      ],
      "evm": {
        "bytecode": {
          "linkReferences": {},
          "object": "608060405234801561001057600080fd5b5060016000556144b9806100256000396000f3fe60806040523480156200001157600080fd5b5060043610620000465760003560e01c80632ea72a49146200004b5780639bfa20bb146200007a578063fc91a8971462000091575b600080fd5b620000626200005c36600462000415565b620000b7565b60405162000071919062000658565b60405180910390f35b620000626200008b36600462000487565b6200019d565b620000a8620000a2366004620003d0565b62000257565b60405162000071919062000679565b60006002600054141562000102576040517f08c379a0000000000000000000000000000000000000000000000000000000008152600401620000f99062000699565b60405180910390fd5b6002600090815562000115848462000282565b73ffffffffffffffffffffffffffffffffffffffff8116600081815260016020819052604080832080547fffffffffffffffffffffffffffffffffffffffffffffffffffffffffffffff00169092179091555192935090917f387ea218537e939551af33bbc2dd6c53b1fee55d377a0dce288258f972cb3a9c9190a260016000559392505050565b60003073ffffffffffffffffffffffffffffffffffffffff16632ea72a4983604051602001620001ce9190620006d0565b6040516020818303038152906040526040518263ffffffff1660e01b8152600401620001fb919062000684565b602060405180830381600087803b1580156200021657600080fd5b505af11580156200022b573d6000803e3d6000fd5b505050506040513d601f19601f82011682018060405250810190620002519190620003f6565b92915050565b73ffffffffffffffffffffffffffffffffffffffff1660009081526001602052604090205460ff1690565b60006200028e620002e2565b6200029c83850185620004c2565b9050600081604051620002af9062000319565b620002bb9190620007c2565b604051809103906000f080158015620002d8573d6000803e3d6000fd5b5095945050505050565b6040805160c08101825260008082526060602083018190529282018390529181018290529060808201908152602001600081525090565b613b50806200093483390190565b803562000251816200090d565b8035600981106200025157600080fd5b600082601f83011262000355578081fd5b813567ffffffffffffffff8111156200036c578182fd5b6200039f60207fffffffffffffffffffffffffffffffffffffffffffffffffffffffffffffffe0601f8401160162000878565b9150808252836020828501011115620003b757600080fd5b8060208401602084013760009082016020015292915050565b600060208284031215620003e2578081fd5b8135620003ef816200090d565b9392505050565b60006020828403121562000408578081fd5b8151620003ef816200090d565b6000806020838503121562000428578081fd5b823567ffffffffffffffff8082111562000440578283fd5b818501915085601f83011262000454578283fd5b81358181111562000463578384fd5b86602082850101111562000475578384fd5b60209290920196919550909350505050565b60006020828403121562000499578081fd5b813567ffffffffffffffff811115620004b0578182fd5b820160c08185031215620003ef578182fd5b600060208284031215620004d4578081fd5b813567ffffffffffffffff80821115620004ec578283fd5b9083019060c0828603121562000500578283fd5b6200050c60c062000878565b62000518868462000327565b81526020830135828111156200052c578485fd5b6200053a8782860162000344565b60208301525060408301358281111562000552578485fd5b620005608782860162000344565b60408301525062000575866060850162000327565b606082015262000589866080850162000334565b608082015260a083013560a082015280935050505092915050565b60008151808452815b81811015620005cb57602081850181015186830182015201620005ad565b81811115620005dd5782602083870101525b50601f017fffffffffffffffffffffffffffffffffffffffffffffffffffffffffffffffe0169290920160200192915050565b600082845282826020860137806020848601015260207fffffffffffffffffffffffffffffffffffffffffffffffffffffffffffffffe0601f85011685010190509392505050565b73ffffffffffffffffffffffffffffffffffffffff91909116815260200190565b901515815260200190565b600060208252620003ef6020830184620005a4565b6020808252601f908201527f5265656e7472616e637947756172643a207265656e7472616e742063616c6c00604082015260600190565b6000602082528235620006e3816200090d565b73ffffffffffffffffffffffffffffffffffffffff80821660208501526200070f6020860186620008a0565b925060c060408601526200072860e08601848362000610565b9250506200073a6040860186620008a0565b7fffffffffffffffffffffffffffffffffffffffffffffffffffffffffffffffe08685030160608701526200077184828462000610565b93505050606085013562000785816200090d565b8181166080860152505060a08401620007a2816080870162000334565b60098110620007ad57fe5b60a08501523560c09093019290925250919050565b60006020825273ffffffffffffffffffffffffffffffffffffffff808451166020840152602084015160c060408501526200080160e0850182620005a4565b905060408501517fffffffffffffffffffffffffffffffffffffffffffffffffffffffffffffffe08583030160608601526200083e8282620005a4565b91505081606086015116608085015260808501519150600982106200085f57fe5b60a08481019290925293015160c0909201919091525090565b60405181810167ffffffffffffffff811182821017156200089857600080fd5b604052919050565b60008083357fffffffffffffffffffffffffffffffffffffffffffffffffffffffffffffffe1843603018112620008d5578283fd5b830160208101925035905067ffffffffffffffff811115620008f657600080fd5b8036038313156200090657600080fd5b9250929050565b73ffffffffffffffffffffffffffffffffffffffff811681146200093057600080fd5b5056fe61018060405263ffffffff608081815260a082905260c082905260e08290526101008290526101208290526101408290526101609190915262000047906001906008620006f9565b503480156200005557600080fd5b5060405162003b5038038062003b50833981016040819052620000789162000909565b60208181015160408301516060840151600280546001600160a01b0319166001600160a01b0390921691909117905543600355815191929091620000c391600791908501906200079c565b508051620000d99060089060208401906200079c565b50506009805460ff19166012179055506001600a5560a0810151670de0b6b3a76400001115620001265760405162461bcd60e51b81526004016200011d9062000ab9565b60405180910390fd5b6080810151600c805460ff191660018360088111156200014257fe5b0217905550805162000157906000906200018f565b8051620001759060008051602062003b30833981519152906200018f565b805160a08201516200018891906200019f565b5062000b57565b6200019b828262000284565b5050565b6001600160a01b038216620001c85760405162461bcd60e51b81526004016200011d9062000af0565b620001d660008383620002fd565b620001f2816006546200044a60201b620013461790919060201c565b6006556001600160a01b03821660009081526004602090815260409091205462000227918390620013466200044a821b17901c565b6001600160a01b0383166000818152600460205260408082209390935591519091907fddf252ad1be2c89b69c2b068fc378daa952ba7f163c4a11628f55a4df523b3ef906200027890859062000b27565b60405180910390a35050565b600082815260208181526040909120620002a9918390620013856200047b821b17901c565b156200019b57620002b962000492565b6001600160a01b0316816001600160a01b0316837f2f8788117e7eff1d82e926ec794901d17c78024a50270940304540a733656f0d60405160405180910390a45050565b620003158383836200044560201b62000b791760201c565b6001600160a01b038216301415620003415760405162461bcd60e51b81526004016200011d9062000a90565b6000811180156200039d5750620003797fcf2b1209506b76f140fb1bc5fe66d6e42627c4b9703a951d65552f50f14c9ee78462000496565b806200039b57506200039b60008051602062003b308339815191528362000496565b155b1562000445576000620003af620004ba565b6008811115620003bb57fe5b1415620003fa57600c54620003d590839060ff1662000529565b620003f45760405162461bcd60e51b81526004016200011d9062000a17565b62000445565b600162000406620004ba565b60088111156200041257fe5b141562000443576001600160a01b03821615620003f45760405162461bcd60e51b81526004016200011d9062000a70565bfe5b505050565b600082820183811015620004725760405162461bcd60e51b81526004016200011d9062000a39565b90505b92915050565b600062000472836001600160a01b038416620005d5565b3390565b600082815260208181526040822062000472918490620013a762000624821b17901c565b604080516101008101918290526000916200052491906001906008908286855b82829054906101000a900463ffffffff1663ffffffff1681526020019060040190602082600301049283019260010382029150808411620004da5750439450506200063b92505050565b905090565b60025460405163e053ea3160e01b8152600091620005c9916001600160a01b039091169063e053ea31906200056390879060040162000a03565b60206040518083038186803b1580156200057c57600080fd5b505afa15801562000591573d6000803e3d6000fd5b505050506040513d601f19601f82011682018060405250810190620005b79190620009ea565b836200069760201b620013c91760201c565b60035410159392505050565b6000620005e38383620006e1565b6200061b5750815460018181018455600084815260208082209093018490558454848252828601909352604090209190915562000475565b50600062000475565b600062000472836001600160a01b038416620006e1565b6000805b60088110156200068e578381600881106200065657fe5b602002015163ffffffff168363ffffffff16101562000685578060088111156200067c57fe5b91505062000475565b6001016200063f565b50600862000472565b600080826008811115620006a757fe5b1415620006b75750600062000475565b60006001836008811115620006c857fe5b0360200290508084901c63ffffffff1691505092915050565b60009081526001919091016020526040902054151590565b6001830191839082156200078a5791602002820160005b838211156200075657835183826101000a81548163ffffffff021916908363ffffffff160217905550926020019260040160208160030104928301926001030262000710565b8015620007885782816101000a81549063ffffffff021916905560040160208160030104928301926001030262000756565b505b50620007989291506200081d565b5090565b828054600181600116156101000203166002900490600052602060002090601f016020900481019282601f10620007df57805160ff19168380011785556200080f565b828001600101855582156200080f579182015b828111156200080f578251825591602001919060010190620007f2565b50620007989291506200083b565b5b808211156200079857805463ffffffff191681556001016200081e565b5b808211156200079857600081556001016200083c565b80516001600160a01b03811681146200047557600080fd5b8051600981106200047557600080fd5b600082601f8301126200088b578081fd5b81516001600160401b03811115620008a1578182fd5b6020620008b7601f8301601f1916820162000b30565b92508183528481838601011115620008ce57600080fd5b60005b82811015620008ee578481018201518482018301528101620008d1565b82811115620009005760008284860101525b50505092915050565b6000602082840312156200091b578081fd5b81516001600160401b038082111562000932578283fd5b9083019060c0828603121562000946578283fd5b6200095260c062000b30565b6200095e868462000852565b815260208301518281111562000972578485fd5b62000980878286016200087a565b60208301525060408301518281111562000998578485fd5b620009a6878286016200087a565b604083015250620009bb866060850162000852565b6060820152620009cf86608085016200086a565b608082015260a083015160a082015280935050505092915050565b600060208284031215620009fc578081fd5b5051919050565b6001600160a01b0391909116815260200190565b60208082526008908201526726a4a72faa24a2a960c11b604082015260600190565b6020808252601b908201527f536166654d6174683a206164646974696f6e206f766572666c6f770000000000604082015260600190565b602080825260069082015265232927ad22a760d11b604082015260600190565b6020808252600f908201526e2a27a5a2a72fa9a2a7222fa9a2a62360891b604082015260600190565b60208082526016908201527f4d494e494d554d5f494e495449414c5f535550504c5900000000000000000000604082015260600190565b6020808252601f908201527f45524332303a206d696e7420746f20746865207a65726f206164647265737300604082015260600190565b90815260200190565b6040518181016001600160401b038111828210171562000b4f57600080fd5b604052919050565b612fc98062000b676000396000f3fe608060405234801561001057600080fd5b50600436106102d35760003560e01c806381e45d9a11610186578063a9059cbb116100e3578063d547741f11610097578063de1533ba11610071578063de1533ba14610578578063f1ebd5dd1461058b578063fa5070a014610593576102d3565b8063d547741f1461053f578063db006a7514610552578063dd62ed3e14610565576102d3565b8063ad7430cc116100c8578063ad7430cc14610511578063c5c97ece14610519578063ca15c8731461052c576102d3565b8063a9059cbb146104f6578063ad3cb10314610509576102d3565b80639923c94b1161013a578063a217fddf1161011f578063a217fddf146104d3578063a30872db146104db578063a457c2d7146104e3576102d3565b80639923c94b146104ad5780639e46cb42146104c0576102d3565b806391d148541161016b57806391d148541461048a57806395d89b411461049d57806396773ebe146104a5576102d3565b806381e45d9a146104625780639010d07c1461046a576102d3565b806334c1df751161023457806353bcb325116101e857806370a08231116101cd57806370a082311461042957806377544f331461043c57806379cc67901461044f576102d3565b806353bcb325146104195780636050f2f814610421576102d3565b8063395093511161021957806339509351146103d357806342966c68146103e657806345bdfa8a146103f9576102d3565b806334c1df75146103ad57806336568abe146103c0576102d3565b80631c77bb2c1161028b578063248a9ca311610270578063248a9ca3146103705780632f2ff15d14610383578063313ce56714610398576102d3565b80631c77bb2c1461034857806323b872dd1461035d576102d3565b8063095ea7b3116102bc578063095ea7b31461030b5780630f0af57f1461032b57806318160ddd14610340576102d3565b8063055ad42e146102d857806306fdde03146102f6575b600080fd5b6102e061059b565b6040516102ed9190612637565b60405180910390f35b6102fe610606565b6040516102ed919061264a565b61031e61031936600461231b565b6106ba565b6040516102ed9190612623565b6103336106d8565b6040516102ed919061262e565b6103336106de565b6103506106e4565b6040516102ed91906125b3565b61031e61036b3660046122ae565b61076a565b61033361037e3660046124bf565b61080c565b6103966103913660046124d7565b610821565b005b6103a061088c565b6040516102ed9190612e0a565b6102e06103bb36600461241b565b610895565b6103966103ce3660046124d7565b6108ec565b61031e6103e136600461231b565b610962565b6103966103f43660046124bf565b6109bd565b61040c6104073660046123ea565b6109d1565b6040516102ed9190612df9565b6103a0610a19565b610333610a1e565b61033361043736600461225a565b610a42565b61031e61044a3660046122ee565b610a6a565b61039661045d36600461231b565b610b29565b61040c610b7e565b61047d6104783660046124fb565b610ba2565b6040516102ed919061256c565b61031e6104983660046124d7565b610bba565b6102fe610bd2565b610333610c51565b61040c6104bb3660046124bf565b610c75565b6103966104ce36600461225a565b610ca2565b610333610e49565b61047d610e4e565b61031e6104f136600461231b565b610e6a565b61031e61050436600461231b565b610edf565b610333610ef3565b610333610eff565b610396610527366004612346565b610f23565b61033361053a3660046124bf565b61113d565b61039661054d3660046124d7565b611154565b6103966105603660046124bf565b6111a8565b610333610573366004612276565b611219565b61039661058636600461225a565b611251565b6102e0611319565b610333611322565b6040805161010081019182905260009161060191906001906008908286855b82829054906101000a900463ffffffff1663ffffffff16815260200190600401906020826003010492830192600103820291508084116105ba579050505050505043610895565b905090565b60078054604080516020601f60027fffffffffffffffffffffffffffffffffffffffffffffffffffffffffffffffff6101006001881615020190951694909404938401819004810282018101909252828152606093909290918301828280156106b05780601f10610685576101008083540402835291602001916106b0565b820191906000526020600020905b81548152906001019060200180831161069357829003601f168201915b5050505050905090565b60006106ce6106c761140f565b8484611413565b5060015b92915050565b60035481565b60065490565b6106ec612230565b6106f4612230565b60005b600b5481101561076457600b818154811061070e57fe5b60009182526020909120015473ffffffffffffffffffffffffffffffffffffffff1682826008811061073c57fe5b73ffffffffffffffffffffffffffffffffffffffff90921660209290920201526001016106f7565b50905090565b6000610777848484611522565b6108018461078361140f565b6107fc85604051806060016040528060288152602001612f236028913973ffffffffffffffffffffffffffffffffffffffff8a166000908152600560205260408120906107ce61140f565b73ffffffffffffffffffffffffffffffffffffffff16815260208101919091526040016000205491906116ac565b611413565b5060015b9392505050565b60009081526020819052604090206002015490565b60008281526020819052604090206002015461083f9061049861140f565b61087e576040517f08c379a000000000000000000000000000000000000000000000000000000000815260040161087590612755565b60405180910390fd5b61088882826116f2565b5050565b60095460ff1690565b6000805b60088110156108e2578381600881106108ae57fe5b602002015163ffffffff168363ffffffff1610156108da578060088111156108d257fe5b9150506106d2565b600101610899565b5060089392505050565b6108f461140f565b73ffffffffffffffffffffffffffffffffffffffff168173ffffffffffffffffffffffffffffffffffffffff1614610958576040517f08c379a000000000000000000000000000000000000000000000000000000000815260040161087590612d9c565b6108888282611775565b60006106ce61096f61140f565b846107fc856005600061098061140f565b73ffffffffffffffffffffffffffffffffffffffff908116825260208083019390935260409182016000908120918c168152925290205490611346565b6109ce6109c861140f565b826117f8565b50565b6000808260088111156109e057fe5b116109ec576000610805565b8260018360088111156109fb57fe5b0360088110610a0657fe5b6020020160208101906108059190612534565b600881565b7fcf2b1209506b76f140fb1bc5fe66d6e42627c4b9703a951d65552f50f14c9ee781565b73ffffffffffffffffffffffffffffffffffffffff1660009081526004602052604090205490565b6002546040517fe053ea31000000000000000000000000000000000000000000000000000000008152600091610b1d9173ffffffffffffffffffffffffffffffffffffffff9091169063e053ea3190610ac790879060040161256c565b60206040518083038186803b158015610adf57600080fd5b505afa158015610af3573d6000803e3d6000fd5b505050506040513d601f19601f82011682018060405250810190610b17919061251c565b836113c9565b60035410159392505050565b6000610b5b82604051806060016040528060248152602001612f4b60249139610b548661057361140f565b91906116ac565b9050610b6f83610b6961140f565b83611413565b610b7983836117f8565b505050565b7fffffffffffffffffffffffffffffffffffffffffffffffffffffffffffffffff81565b60008281526020819052604081206108059083611928565b600082815260208190526040812061080590836113a7565b60088054604080516020601f60027fffffffffffffffffffffffffffffffffffffffffffffffffffffffffffffffff6101006001881615020190951694909404938401819004810282018101909252828152606093909290918301828280156106b05780601f10610685576101008083540402835291602001916106b0565b7fa67ce9b482cd7c7b30f4cea2f7e71abe8f7040cc572c570552199c488f160ad181565b60018160088110610c8257fe5b60089182820401919006600402915054906101000a900463ffffffff1681565b610ccc7fa638e6d52802f3ab217de611c9b2d0023a709998a8ce9b01094ec3fdb3ded4e233610bba565b610d02576040517f08c379a000000000000000000000000000000000000000000000000000000000815260040161087590612d65565b600b54600811610d3e576040517f08c379a000000000000000000000000000000000000000000000000000000000815260040161087590612d2e565b60005b600b54811015610dd1578173ffffffffffffffffffffffffffffffffffffffff16600b8281548110610d6f57fe5b60009182526020909120015473ffffffffffffffffffffffffffffffffffffffff161415610dc9576040517f08c379a000000000000000000000000000000000000000000000000000000000815260040161087590612922565b600101610d41565b50600b80546001810182556000919091527f0175b7a638427703f0dbe7bb9bbf987a2551717b34e79f33b5b1008d1fa01db90180547fffffffffffffffffffffffff00000000000000000000000000000000000000001673ffffffffffffffffffffffffffffffffffffffff92909216919091179055565b600081565b60025473ffffffffffffffffffffffffffffffffffffffff1681565b60006106ce610e7761140f565b846107fc85604051806060016040528060258152602001612f6f6025913960056000610ea161140f565b73ffffffffffffffffffffffffffffffffffffffff908116825260208083019390935260409182016000908120918d168152925290205491906116ac565b60006106ce610eec61140f565b8484611522565b670de0b6b3a764000081565b7f94201143cc0a32610f14f8f185ebb23e4ca60f1758e49668647d0879b1e81f0b81565b600180610f2e61059b565b6008811115610f3957fe5b14610f70576040517f08c379a0000000000000000000000000000000000000000000000000000000008152600401610875906128eb565b6002600a541415610fad576040517f08c379a000000000000000000000000000000000000000000000000000000000815260040161087590612cf7565b6002600a556000610fbc6106de565b9050610fc833846117f8565b60005b8451811015611131576000858281518110610fe257fe5b60200260200101519050600061108b84611085888573ffffffffffffffffffffffffffffffffffffffff166370a08231306040518263ffffffff1660e01b815260040161102f919061256c565b60206040518083038186803b15801561104757600080fd5b505afa15801561105b573d6000803e3d6000fd5b505050506040513d601f19601f8201168201806040525081019061107f919061251c565b90611934565b90611988565b90508173ffffffffffffffffffffffffffffffffffffffff163373ffffffffffffffffffffffffffffffffffffffff167ff8eb02c03b445447861a4fda33b7470adf3b693b314b35a1efb8203edc28d65660405180604001604052808a8152602001858152506040516110fe91906125fb565b60405180910390a361112773ffffffffffffffffffffffffffffffffffffffff831633836119ca565b5050600101610fcb565b50506001600a55505050565b60008181526020819052604081206106d290611a6b565b6000828152602081905260409020600201546111729061049861140f565b610958576040517f08c379a0000000000000000000000000000000000000000000000000000000008152600401610875906129b6565b6109ce600b80548060200260200160405190810160405280929190818152602001828054801561120e57602002820191906000526020600020905b815473ffffffffffffffffffffffffffffffffffffffff1681526001909101906020018083116111e3575b505050505082610f23565b73ffffffffffffffffffffffffffffffffffffffff918216600090815260056020908152604080832093909416825291909152205490565b60008061125c61059b565b600881111561126757fe5b1461129e576040517f08c379a0000000000000000000000000000000000000000000000000000000008152600401610875906128eb565b6112c87fa67ce9b482cd7c7b30f4cea2f7e71abe8f7040cc572c570552199c488f160ad133610bba565b6112fe576040517f08c379a000000000000000000000000000000000000000000000000000000000815260040161087590612cc0565b61130743611a76565b6108888261131484610a42565b6117f8565b600c5460ff1681565b7fa638e6d52802f3ab217de611c9b2d0023a709998a8ce9b01094ec3fdb3ded4e281565b600082820183811015610805576040517f08c379a00000000000000000000000000000000000000000000000000000000081526004016108759061287d565b60006108058373ffffffffffffffffffffffffffffffffffffffff8416611bec565b60006108058373ffffffffffffffffffffffffffffffffffffffff8416611c36565b6000808260088111156113d857fe5b14156113e6575060006106d2565b600060018360088111156113f657fe5b0360200290508084901c63ffffffff1691505092915050565b3390565b73ffffffffffffffffffffffffffffffffffffffff8316611460576040517f08c379a000000000000000000000000000000000000000000000000000000000815260040161087590612bcf565b73ffffffffffffffffffffffffffffffffffffffff82166114ad576040517f08c379a0000000000000000000000000000000000000000000000000000000008152600401610875906127e9565b73ffffffffffffffffffffffffffffffffffffffff80841660008181526005602090815260408083209487168084529490915290819020849055517f8c5be1e5ebec7d5bd14f71427d1e84f3dd0314c0f7b2291e5b200ac8c7c3b9259061151590859061262e565b60405180910390a3505050565b73ffffffffffffffffffffffffffffffffffffffff831661156f576040517f08c379a000000000000000000000000000000000000000000000000000000000815260040161087590612b3b565b73ffffffffffffffffffffffffffffffffffffffff82166115bc576040517f08c379a0000000000000000000000000000000000000000000000000000000008152600401610875906126f8565b6115c7838383611c4e565b61161181604051806060016040528060268152602001612efd6026913973ffffffffffffffffffffffffffffffffffffffff861660009081526004602052604090205491906116ac565b73ffffffffffffffffffffffffffffffffffffffff808516600090815260046020526040808220939093559084168152205461164d9082611346565b73ffffffffffffffffffffffffffffffffffffffff80841660008181526004602052604090819020939093559151908516907fddf252ad1be2c89b69c2b068fc378daa952ba7f163c4a11628f55a4df523b3ef9061151590859061262e565b600081848411156116ea576040517f08c379a0000000000000000000000000000000000000000000000000000000008152600401610875919061264a565b505050900390565b600082815260208190526040902061170a9082611385565b156108885761171761140f565b73ffffffffffffffffffffffffffffffffffffffff168173ffffffffffffffffffffffffffffffffffffffff16837f2f8788117e7eff1d82e926ec794901d17c78024a50270940304540a733656f0d60405160405180910390a45050565b600082815260208190526040902061178d9082611de7565b156108885761179a61140f565b73ffffffffffffffffffffffffffffffffffffffff168173ffffffffffffffffffffffffffffffffffffffff16837ff6391f5c32d9c69d2a47ea670b442974b53935d1edc7fd64eb21e047a839171b60405160405180910390a45050565b73ffffffffffffffffffffffffffffffffffffffff8216611845576040517f08c379a000000000000000000000000000000000000000000000000000000000815260040161087590612ade565b61185182600083611c4e565b61189b81604051806060016040528060228152602001612edb6022913973ffffffffffffffffffffffffffffffffffffffff851660009081526004602052604090205491906116ac565b73ffffffffffffffffffffffffffffffffffffffff83166000908152600460205260409020556006546118ce9082611e09565b60065560405160009073ffffffffffffffffffffffffffffffffffffffff8416907fddf252ad1be2c89b69c2b068fc378daa952ba7f163c4a11628f55a4df523b3ef9061191c90859061262e565b60405180910390a35050565b60006108058383611e4b565b600082611943575060006106d2565b8282028284828161195057fe5b0414610805576040517f08c379a000000000000000000000000000000000000000000000000000000000815260040161087590612a81565b600061080583836040518060400160405280601a81526020017f536166654d6174683a206469766973696f6e206279207a65726f000000000000815250611eaa565b610b798363a9059cbb60e01b84846040516024016119e992919061258d565b604080517fffffffffffffffffffffffffffffffffffffffffffffffffffffffffffffffe08184030181529190526020810180517bffffffffffffffffffffffffffffffffffffffffffffffffffffffff167fffffffff0000000000000000000000000000000000000000000000000000000090931692909217909152611efb565b60006106d282611fb1565b8063ffffffff164363ffffffff161115611abc576040517f08c379a0000000000000000000000000000000000000000000000000000000008152600401610875906127b2565b63ffffffff81811610611afb576040517f08c379a0000000000000000000000000000000000000000000000000000000008152600401610875906128b4565b6000611b0561059b565b6008811115611b1057fe5b905060018160088110611b1f57fe5b60088104919091015460079091166004026101000a900463ffffffff90811614611b75576040517f08c379a000000000000000000000000000000000000000000000000000000000815260040161087590612b98565b611b7e82611fb5565b8160018260088110611b8c57fe5b600891828204019190066004026101000a81548163ffffffff021916908363ffffffff1602179055508163ffffffff167f260aac5b840edc27b89fdf50e91311a413363a400959466e1049e6d071b8cee260405160405180910390a25050565b6000611bf88383611c36565b611c2e575081546001818101845560008481526020808220909301849055845484825282860190935260409020919091556106d2565b5060006106d2565b60009081526001919091016020526040902054151590565b611c59838383610b79565b73ffffffffffffffffffffffffffffffffffffffff8216301415611ca9576040517f08c379a000000000000000000000000000000000000000000000000000000000815260040161087590612a4a565b600081118015611d105750611cde7fcf2b1209506b76f140fb1bc5fe66d6e42627c4b9703a951d65552f50f14c9ee784610bba565b80611d0e5750611d0e7f94201143cc0a32610f14f8f185ebb23e4ca60f1758e49668647d0879b1e81f0b83610bba565b155b15610b79576000611d1f61059b565b6008811115611d2a57fe5b1415611d7c57600c54611d4190839060ff16610a6a565b611d77576040517f08c379a000000000000000000000000000000000000000000000000000000000815260040161087590612846565b610b79565b6001611d8661059b565b6008811115611d9157fe5b1415611de55773ffffffffffffffffffffffffffffffffffffffff821615611d77576040517f08c379a000000000000000000000000000000000000000000000000000000000815260040161087590612a13565bfe5b60006108058373ffffffffffffffffffffffffffffffffffffffff8416611fda565b600061080583836040518060400160405280601e81526020017f536166654d6174683a207375627472616374696f6e206f766572666c6f7700008152506116ac565b81546000908210611e88576040517f08c379a00000000000000000000000000000000000000000000000000000000081526004016108759061269b565b826000018281548110611e9757fe5b9060005260206000200154905092915050565b60008183611ee5576040517f08c379a0000000000000000000000000000000000000000000000000000000008152600401610875919061264a565b506000838581611ef157fe5b0495945050505050565b6060611f5d826040518060400160405280602081526020017f5361666545524332303a206c6f772d6c6576656c2063616c6c206661696c65648152508573ffffffffffffffffffffffffffffffffffffffff166120be9092919063ffffffff16565b805190915015610b795780806020019051810190611f7b919061249f565b610b79576040517f08c379a000000000000000000000000000000000000000000000000000000000815260040161087590612c63565b5490565b611fbe816109ce565b6002611fc861059b565b6008811115611fd357fe5b106109ce57fe5b600081815260018301602052604081205480156120b45783547fffffffffffffffffffffffffffffffffffffffffffffffffffffffffffffffff808301919081019060009087908390811061202b57fe5b906000526020600020015490508087600001848154811061204857fe5b60009182526020808320909101929092558281526001898101909252604090209084019055865487908061207857fe5b600190038181906000526020600020016000905590558660010160008781526020019081526020016000206000905560019450505050506106d2565b60009150506106d2565b60606120cd84846000856120d5565b949350505050565b606082471015612111576040517f08c379a000000000000000000000000000000000000000000000000000000000815260040161087590612959565b61211a856121d7565b612150576040517f08c379a000000000000000000000000000000000000000000000000000000000815260040161087590612c2c565b600060608673ffffffffffffffffffffffffffffffffffffffff16858760405161217a9190612550565b60006040518083038185875af1925050503d80600081146121b7576040519150601f19603f3d011682016040523d82523d6000602084013e6121bc565b606091505b50915091506121cc8282866121dd565b979650505050505050565b3b151590565b606083156121ec575081610805565b8251156121fc5782518084602001fd5b816040517f08c379a0000000000000000000000000000000000000000000000000000000008152600401610875919061264a565b6040518061010001604052806008906020820280368337509192915050565b80356106d281612e99565b60006020828403121561226b578081fd5b813561080581612e99565b60008060408385031215612288578081fd5b823561229381612e99565b915060208301356122a381612e99565b809150509250929050565b6000806000606084860312156122c2578081fd5b83356122cd81612e99565b925060208401356122dd81612e99565b929592945050506040919091013590565b60008060408385031215612300578182fd5b823561230b81612e99565b915060208301356122a381612ebb565b6000806040838503121561232d578182fd5b823561233881612e99565b946020939093013593505050565b60008060408385031215612358578182fd5b823567ffffffffffffffff81111561236e578283fd5b8301601f8101851361237e578283fd5b803561239161238c82612e3f565b612e18565b8082825260208083019250808501898283870288010111156123b1578788fd5b8795505b848610156123db576123c78a8261224f565b8452600195909501949281019281016123b5565b50909896013596505050505050565b60008061012083850312156123fd578182fd5b61010083018481111561240e578283fd5b839250356122a381612ebb565b600080610120838503121561242e578182fd5b83601f84011261243c578182fd5b61010061244881612e18565b9084019080858784111561245a578586fd5b855b600881101561248d57813563ffffffff81168114612478578788fd5b8452602093840193919091019060010161245c565b5090945050903590506122a381612ec8565b6000602082840312156124b0578081fd5b81518015158114610805578182fd5b6000602082840312156124d0578081fd5b5035919050565b600080604083850312156124e9578182fd5b8235915060208301356122a381612e99565b6000806040838503121561250d578182fd5b50508035926020909101359150565b60006020828403121561252d578081fd5b5051919050565b600060208284031215612545578081fd5b813561080581612ec8565b60008251612562818460208701612e5f565b9190910192915050565b73ffffffffffffffffffffffffffffffffffffffff91909116815260200190565b73ffffffffffffffffffffffffffffffffffffffff929092168252602082015260400190565b6101008101818360005b60088110156125f257815173ffffffffffffffffffffffffffffffffffffffff168352602092830192909101906001016125bd565b50505092915050565b60408101818360005b60028110156125f2578151835260209283019290910190600101612604565b901515815260200190565b90815260200190565b6020810161264483612e8f565b91905290565b6000602082528251806020840152612669816040850160208701612e5f565b601f017fffffffffffffffffffffffffffffffffffffffffffffffffffffffffffffffe0169190910160400192915050565b60208082526022908201527f456e756d657261626c655365743a20696e646578206f7574206f6620626f756e60408201527f6473000000000000000000000000000000000000000000000000000000000000606082015260800190565b60208082526023908201527f45524332303a207472616e7366657220746f20746865207a65726f206164647260408201527f6573730000000000000000000000000000000000000000000000000000000000606082015260800190565b6020808252602f908201527f416363657373436f6e74726f6c3a2073656e646572206d75737420626520616e60408201527f2061646d696e20746f206772616e740000000000000000000000000000000000606082015260800190565b6020808252600f908201527f4e4558545f424c4f434b5f504153540000000000000000000000000000000000604082015260600190565b60208082526022908201527f45524332303a20617070726f766520746f20746865207a65726f20616464726560408201527f7373000000000000000000000000000000000000000000000000000000000000606082015260800190565b60208082526008908201527f4d494e5f54494552000000000000000000000000000000000000000000000000604082015260600190565b6020808252601b908201527f536166654d6174683a206164646974696f6e206f766572666c6f770000000000604082015260600190565b60208082526018908201527f4e4558545f424c4f434b5f554e494e495449414c495a45440000000000000000604082015260600190565b60208082526009908201527f4241445f50484153450000000000000000000000000000000000000000000000604082015260600190565b60208082526014908201527f4455504c49434154455f52454445454d41424c45000000000000000000000000604082015260600190565b60208082526026908201527f416464726573733a20696e73756666696369656e742062616c616e636520666f60408201527f722063616c6c0000000000000000000000000000000000000000000000000000606082015260800190565b60208082526030908201527f416363657373436f6e74726f6c3a2073656e646572206d75737420626520616e60408201527f2061646d696e20746f207265766f6b6500000000000000000000000000000000606082015260800190565b60208082526006908201527f46524f5a454e0000000000000000000000000000000000000000000000000000604082015260600190565b6020808252600f908201527f544f4b454e5f53454e445f53454c460000000000000000000000000000000000604082015260600190565b60208082526021908201527f536166654d6174683a206d756c7469706c69636174696f6e206f766572666c6f60408201527f7700000000000000000000000000000000000000000000000000000000000000606082015260800190565b60208082526021908201527f45524332303a206275726e2066726f6d20746865207a65726f2061646472657360408201527f7300000000000000000000000000000000000000000000000000000000000000606082015260800190565b60208082526025908201527f45524332303a207472616e736665722066726f6d20746865207a65726f20616460408201527f6472657373000000000000000000000000000000000000000000000000000000606082015260800190565b6020808252600e908201527f4e4558545f424c4f434b5f534554000000000000000000000000000000000000604082015260600190565b60208082526024908201527f45524332303a20617070726f76652066726f6d20746865207a65726f2061646460408201527f7265737300000000000000000000000000000000000000000000000000000000606082015260800190565b6020808252601d908201527f416464726573733a2063616c6c20746f206e6f6e2d636f6e7472616374000000604082015260600190565b6020808252602a908201527f5361666545524332303a204552433230206f7065726174696f6e20646964206e60408201527f6f74207375636365656400000000000000000000000000000000000000000000606082015260800190565b60208082526017908201527f4f4e4c595f4449535452494255544f525f4255524e4552000000000000000000604082015260600190565b6020808252601f908201527f5265656e7472616e637947756172643a207265656e7472616e742063616c6c00604082015260600190565b6020808252600f908201527f4d41585f52454445454d41424c45530000000000000000000000000000000000604082015260600190565b60208082526015908201527f4f4e4c595f52454445454d41424c455f41444445520000000000000000000000604082015260600190565b6020808252602f908201527f416363657373436f6e74726f6c3a2063616e206f6e6c792072656e6f756e636560408201527f20726f6c657320666f722073656c660000000000000000000000000000000000606082015260800190565b63ffffffff91909116815260200190565b60ff91909116815260200190565b60405181810167ffffffffffffffff81118282101715612e3757600080fd5b604052919050565b600067ffffffffffffffff821115612e55578081fd5b5060209081020190565b60005b83811015612e7a578181015183820152602001612e62565b83811115612e89576000848401525b50505050565b600981106109ce57fe5b73ffffffffffffffffffffffffffffffffffffffff811681146109ce57600080fd5b600981106109ce57600080fd5b63ffffffff811681146109ce57600080fdfe45524332303a206275726e20616d6f756e7420657863656564732062616c616e636545524332303a207472616e7366657220616d6f756e7420657863656564732062616c616e636545524332303a207472616e7366657220616d6f756e74206578636565647320616c6c6f77616e636545524332303a206275726e20616d6f756e74206578636565647320616c6c6f77616e636545524332303a2064656372656173656420616c6c6f77616e63652062656c6f77207a65726fa26469706673582212207af40acc8c288427831be9a59abee73d8fe7b691dd2f0324132ed968e7fdfff264736f6c634300060c003394201143cc0a32610f14f8f185ebb23e4ca60f1758e49668647d0879b1e81f0ba2646970667358221220d01a299af6c7d3fbd46dea69a8cf5a77af40dfdc513882211935fd93b4dd818f64736f6c634300060c0033",
          "opcodes": "PUSH1 0x80 PUSH1 0x40 MSTORE CALLVALUE DUP1 ISZERO PUSH2 0x10 JUMPI PUSH1 0x0 DUP1 REVERT JUMPDEST POP PUSH1 0x1 PUSH1 0x0 SSTORE PUSH2 0x44B9 DUP1 PUSH2 0x25 PUSH1 0x0 CODECOPY PUSH1 0x0 RETURN INVALID PUSH1 0x80 PUSH1 0x40 MSTORE CALLVALUE DUP1 ISZERO PUSH3 0x11 JUMPI PUSH1 0x0 DUP1 REVERT JUMPDEST POP PUSH1 0x4 CALLDATASIZE LT PUSH3 0x46 JUMPI PUSH1 0x0 CALLDATALOAD PUSH1 0xE0 SHR DUP1 PUSH4 0x2EA72A49 EQ PUSH3 0x4B JUMPI DUP1 PUSH4 0x9BFA20BB EQ PUSH3 0x7A JUMPI DUP1 PUSH4 0xFC91A897 EQ PUSH3 0x91 JUMPI JUMPDEST PUSH1 0x0 DUP1 REVERT JUMPDEST PUSH3 0x62 PUSH3 0x5C CALLDATASIZE PUSH1 0x4 PUSH3 0x415 JUMP JUMPDEST PUSH3 0xB7 JUMP JUMPDEST PUSH1 0x40 MLOAD PUSH3 0x71 SWAP2 SWAP1 PUSH3 0x658 JUMP JUMPDEST PUSH1 0x40 MLOAD DUP1 SWAP2 SUB SWAP1 RETURN JUMPDEST PUSH3 0x62 PUSH3 0x8B CALLDATASIZE PUSH1 0x4 PUSH3 0x487 JUMP JUMPDEST PUSH3 0x19D JUMP JUMPDEST PUSH3 0xA8 PUSH3 0xA2 CALLDATASIZE PUSH1 0x4 PUSH3 0x3D0 JUMP JUMPDEST PUSH3 0x257 JUMP JUMPDEST PUSH1 0x40 MLOAD PUSH3 0x71 SWAP2 SWAP1 PUSH3 0x679 JUMP JUMPDEST PUSH1 0x0 PUSH1 0x2 PUSH1 0x0 SLOAD EQ ISZERO PUSH3 0x102 JUMPI PUSH1 0x40 MLOAD PUSH32 0x8C379A000000000000000000000000000000000000000000000000000000000 DUP2 MSTORE PUSH1 0x4 ADD PUSH3 0xF9 SWAP1 PUSH3 0x699 JUMP JUMPDEST PUSH1 0x40 MLOAD DUP1 SWAP2 SUB SWAP1 REVERT JUMPDEST PUSH1 0x2 PUSH1 0x0 SWAP1 DUP2 SSTORE PUSH3 0x115 DUP5 DUP5 PUSH3 0x282 JUMP JUMPDEST PUSH20 0xFFFFFFFFFFFFFFFFFFFFFFFFFFFFFFFFFFFFFFFF DUP2 AND PUSH1 0x0 DUP2 DUP2 MSTORE PUSH1 0x1 PUSH1 0x20 DUP2 SWAP1 MSTORE PUSH1 0x40 DUP1 DUP4 KECCAK256 DUP1 SLOAD PUSH32 0xFFFFFFFFFFFFFFFFFFFFFFFFFFFFFFFFFFFFFFFFFFFFFFFFFFFFFFFFFFFFFF00 AND SWAP1 SWAP3 OR SWAP1 SWAP2 SSTORE MLOAD SWAP3 SWAP4 POP SWAP1 SWAP2 PUSH32 0x387EA218537E939551AF33BBC2DD6C53B1FEE55D377A0DCE288258F972CB3A9C SWAP2 SWAP1 LOG2 PUSH1 0x1 PUSH1 0x0 SSTORE SWAP4 SWAP3 POP POP POP JUMP JUMPDEST PUSH1 0x0 ADDRESS PUSH20 0xFFFFFFFFFFFFFFFFFFFFFFFFFFFFFFFFFFFFFFFF AND PUSH4 0x2EA72A49 DUP4 PUSH1 0x40 MLOAD PUSH1 0x20 ADD PUSH3 0x1CE SWAP2 SWAP1 PUSH3 0x6D0 JUMP JUMPDEST PUSH1 0x40 MLOAD PUSH1 0x20 DUP2 DUP4 SUB SUB DUP2 MSTORE SWAP1 PUSH1 0x40 MSTORE PUSH1 0x40 MLOAD DUP3 PUSH4 0xFFFFFFFF AND PUSH1 0xE0 SHL DUP2 MSTORE PUSH1 0x4 ADD PUSH3 0x1FB SWAP2 SWAP1 PUSH3 0x684 JUMP JUMPDEST PUSH1 0x20 PUSH1 0x40 MLOAD DUP1 DUP4 SUB DUP2 PUSH1 0x0 DUP8 DUP1 EXTCODESIZE ISZERO DUP1 ISZERO PUSH3 0x216 JUMPI PUSH1 0x0 DUP1 REVERT JUMPDEST POP GAS CALL ISZERO DUP1 ISZERO PUSH3 0x22B JUMPI RETURNDATASIZE PUSH1 0x0 DUP1 RETURNDATACOPY RETURNDATASIZE PUSH1 0x0 REVERT JUMPDEST POP POP POP POP PUSH1 0x40 MLOAD RETURNDATASIZE PUSH1 0x1F NOT PUSH1 0x1F DUP3 ADD AND DUP3 ADD DUP1 PUSH1 0x40 MSTORE POP DUP2 ADD SWAP1 PUSH3 0x251 SWAP2 SWAP1 PUSH3 0x3F6 JUMP JUMPDEST SWAP3 SWAP2 POP POP JUMP JUMPDEST PUSH20 0xFFFFFFFFFFFFFFFFFFFFFFFFFFFFFFFFFFFFFFFF AND PUSH1 0x0 SWAP1 DUP2 MSTORE PUSH1 0x1 PUSH1 0x20 MSTORE PUSH1 0x40 SWAP1 KECCAK256 SLOAD PUSH1 0xFF AND SWAP1 JUMP JUMPDEST PUSH1 0x0 PUSH3 0x28E PUSH3 0x2E2 JUMP JUMPDEST PUSH3 0x29C DUP4 DUP6 ADD DUP6 PUSH3 0x4C2 JUMP JUMPDEST SWAP1 POP PUSH1 0x0 DUP2 PUSH1 0x40 MLOAD PUSH3 0x2AF SWAP1 PUSH3 0x319 JUMP JUMPDEST PUSH3 0x2BB SWAP2 SWAP1 PUSH3 0x7C2 JUMP JUMPDEST PUSH1 0x40 MLOAD DUP1 SWAP2 SUB SWAP1 PUSH1 0x0 CREATE DUP1 ISZERO DUP1 ISZERO PUSH3 0x2D8 JUMPI RETURNDATASIZE PUSH1 0x0 DUP1 RETURNDATACOPY RETURNDATASIZE PUSH1 0x0 REVERT JUMPDEST POP SWAP6 SWAP5 POP POP POP POP POP JUMP JUMPDEST PUSH1 0x40 DUP1 MLOAD PUSH1 0xC0 DUP2 ADD DUP3 MSTORE PUSH1 0x0 DUP1 DUP3 MSTORE PUSH1 0x60 PUSH1 0x20 DUP4 ADD DUP2 SWAP1 MSTORE SWAP3 DUP3 ADD DUP4 SWAP1 MSTORE SWAP2 DUP2 ADD DUP3 SWAP1 MSTORE SWAP1 PUSH1 0x80 DUP3 ADD SWAP1 DUP2 MSTORE PUSH1 0x20 ADD PUSH1 0x0 DUP2 MSTORE POP SWAP1 JUMP JUMPDEST PUSH2 0x3B50 DUP1 PUSH3 0x934 DUP4 CODECOPY ADD SWAP1 JUMP JUMPDEST DUP1 CALLDATALOAD PUSH3 0x251 DUP2 PUSH3 0x90D JUMP JUMPDEST DUP1 CALLDATALOAD PUSH1 0x9 DUP2 LT PUSH3 0x251 JUMPI PUSH1 0x0 DUP1 REVERT JUMPDEST PUSH1 0x0 DUP3 PUSH1 0x1F DUP4 ADD SLT PUSH3 0x355 JUMPI DUP1 DUP2 REVERT JUMPDEST DUP2 CALLDATALOAD PUSH8 0xFFFFFFFFFFFFFFFF DUP2 GT ISZERO PUSH3 0x36C JUMPI DUP2 DUP3 REVERT JUMPDEST PUSH3 0x39F PUSH1 0x20 PUSH32 0xFFFFFFFFFFFFFFFFFFFFFFFFFFFFFFFFFFFFFFFFFFFFFFFFFFFFFFFFFFFFFFE0 PUSH1 0x1F DUP5 ADD AND ADD PUSH3 0x878 JUMP JUMPDEST SWAP2 POP DUP1 DUP3 MSTORE DUP4 PUSH1 0x20 DUP3 DUP6 ADD ADD GT ISZERO PUSH3 0x3B7 JUMPI PUSH1 0x0 DUP1 REVERT JUMPDEST DUP1 PUSH1 0x20 DUP5 ADD PUSH1 0x20 DUP5 ADD CALLDATACOPY PUSH1 0x0 SWAP1 DUP3 ADD PUSH1 0x20 ADD MSTORE SWAP3 SWAP2 POP POP JUMP JUMPDEST PUSH1 0x0 PUSH1 0x20 DUP3 DUP5 SUB SLT ISZERO PUSH3 0x3E2 JUMPI DUP1 DUP2 REVERT JUMPDEST DUP2 CALLDATALOAD PUSH3 0x3EF DUP2 PUSH3 0x90D JUMP JUMPDEST SWAP4 SWAP3 POP POP POP JUMP JUMPDEST PUSH1 0x0 PUSH1 0x20 DUP3 DUP5 SUB SLT ISZERO PUSH3 0x408 JUMPI DUP1 DUP2 REVERT JUMPDEST DUP2 MLOAD PUSH3 0x3EF DUP2 PUSH3 0x90D JUMP JUMPDEST PUSH1 0x0 DUP1 PUSH1 0x20 DUP4 DUP6 SUB SLT ISZERO PUSH3 0x428 JUMPI DUP1 DUP2 REVERT JUMPDEST DUP3 CALLDATALOAD PUSH8 0xFFFFFFFFFFFFFFFF DUP1 DUP3 GT ISZERO PUSH3 0x440 JUMPI DUP3 DUP4 REVERT JUMPDEST DUP2 DUP6 ADD SWAP2 POP DUP6 PUSH1 0x1F DUP4 ADD SLT PUSH3 0x454 JUMPI DUP3 DUP4 REVERT JUMPDEST DUP2 CALLDATALOAD DUP2 DUP2 GT ISZERO PUSH3 0x463 JUMPI DUP4 DUP5 REVERT JUMPDEST DUP7 PUSH1 0x20 DUP3 DUP6 ADD ADD GT ISZERO PUSH3 0x475 JUMPI DUP4 DUP5 REVERT JUMPDEST PUSH1 0x20 SWAP3 SWAP1 SWAP3 ADD SWAP7 SWAP2 SWAP6 POP SWAP1 SWAP4 POP POP POP POP JUMP JUMPDEST PUSH1 0x0 PUSH1 0x20 DUP3 DUP5 SUB SLT ISZERO PUSH3 0x499 JUMPI DUP1 DUP2 REVERT JUMPDEST DUP2 CALLDATALOAD PUSH8 0xFFFFFFFFFFFFFFFF DUP2 GT ISZERO PUSH3 0x4B0 JUMPI DUP2 DUP3 REVERT JUMPDEST DUP3 ADD PUSH1 0xC0 DUP2 DUP6 SUB SLT ISZERO PUSH3 0x3EF JUMPI DUP2 DUP3 REVERT JUMPDEST PUSH1 0x0 PUSH1 0x20 DUP3 DUP5 SUB SLT ISZERO PUSH3 0x4D4 JUMPI DUP1 DUP2 REVERT JUMPDEST DUP2 CALLDATALOAD PUSH8 0xFFFFFFFFFFFFFFFF DUP1 DUP3 GT ISZERO PUSH3 0x4EC JUMPI DUP3 DUP4 REVERT JUMPDEST SWAP1 DUP4 ADD SWAP1 PUSH1 0xC0 DUP3 DUP7 SUB SLT ISZERO PUSH3 0x500 JUMPI DUP3 DUP4 REVERT JUMPDEST PUSH3 0x50C PUSH1 0xC0 PUSH3 0x878 JUMP JUMPDEST PUSH3 0x518 DUP7 DUP5 PUSH3 0x327 JUMP JUMPDEST DUP2 MSTORE PUSH1 0x20 DUP4 ADD CALLDATALOAD DUP3 DUP2 GT ISZERO PUSH3 0x52C JUMPI DUP5 DUP6 REVERT JUMPDEST PUSH3 0x53A DUP8 DUP3 DUP7 ADD PUSH3 0x344 JUMP JUMPDEST PUSH1 0x20 DUP4 ADD MSTORE POP PUSH1 0x40 DUP4 ADD CALLDATALOAD DUP3 DUP2 GT ISZERO PUSH3 0x552 JUMPI DUP5 DUP6 REVERT JUMPDEST PUSH3 0x560 DUP8 DUP3 DUP7 ADD PUSH3 0x344 JUMP JUMPDEST PUSH1 0x40 DUP4 ADD MSTORE POP PUSH3 0x575 DUP7 PUSH1 0x60 DUP6 ADD PUSH3 0x327 JUMP JUMPDEST PUSH1 0x60 DUP3 ADD MSTORE PUSH3 0x589 DUP7 PUSH1 0x80 DUP6 ADD PUSH3 0x334 JUMP JUMPDEST PUSH1 0x80 DUP3 ADD MSTORE PUSH1 0xA0 DUP4 ADD CALLDATALOAD PUSH1 0xA0 DUP3 ADD MSTORE DUP1 SWAP4 POP POP POP POP SWAP3 SWAP2 POP POP JUMP JUMPDEST PUSH1 0x0 DUP2 MLOAD DUP1 DUP5 MSTORE DUP2 JUMPDEST DUP2 DUP2 LT ISZERO PUSH3 0x5CB JUMPI PUSH1 0x20 DUP2 DUP6 ADD DUP2 ADD MLOAD DUP7 DUP4 ADD DUP3 ADD MSTORE ADD PUSH3 0x5AD JUMP JUMPDEST DUP2 DUP2 GT ISZERO PUSH3 0x5DD JUMPI DUP3 PUSH1 0x20 DUP4 DUP8 ADD ADD MSTORE JUMPDEST POP PUSH1 0x1F ADD PUSH32 0xFFFFFFFFFFFFFFFFFFFFFFFFFFFFFFFFFFFFFFFFFFFFFFFFFFFFFFFFFFFFFFE0 AND SWAP3 SWAP1 SWAP3 ADD PUSH1 0x20 ADD SWAP3 SWAP2 POP POP JUMP JUMPDEST PUSH1 0x0 DUP3 DUP5 MSTORE DUP3 DUP3 PUSH1 0x20 DUP7 ADD CALLDATACOPY DUP1 PUSH1 0x20 DUP5 DUP7 ADD ADD MSTORE PUSH1 0x20 PUSH32 0xFFFFFFFFFFFFFFFFFFFFFFFFFFFFFFFFFFFFFFFFFFFFFFFFFFFFFFFFFFFFFFE0 PUSH1 0x1F DUP6 ADD AND DUP6 ADD ADD SWAP1 POP SWAP4 SWAP3 POP POP POP JUMP JUMPDEST PUSH20 0xFFFFFFFFFFFFFFFFFFFFFFFFFFFFFFFFFFFFFFFF SWAP2 SWAP1 SWAP2 AND DUP2 MSTORE PUSH1 0x20 ADD SWAP1 JUMP JUMPDEST SWAP1 ISZERO ISZERO DUP2 MSTORE PUSH1 0x20 ADD SWAP1 JUMP JUMPDEST PUSH1 0x0 PUSH1 0x20 DUP3 MSTORE PUSH3 0x3EF PUSH1 0x20 DUP4 ADD DUP5 PUSH3 0x5A4 JUMP JUMPDEST PUSH1 0x20 DUP1 DUP3 MSTORE PUSH1 0x1F SWAP1 DUP3 ADD MSTORE PUSH32 0x5265656E7472616E637947756172643A207265656E7472616E742063616C6C00 PUSH1 0x40 DUP3 ADD MSTORE PUSH1 0x60 ADD SWAP1 JUMP JUMPDEST PUSH1 0x0 PUSH1 0x20 DUP3 MSTORE DUP3 CALLDATALOAD PUSH3 0x6E3 DUP2 PUSH3 0x90D JUMP JUMPDEST PUSH20 0xFFFFFFFFFFFFFFFFFFFFFFFFFFFFFFFFFFFFFFFF DUP1 DUP3 AND PUSH1 0x20 DUP6 ADD MSTORE PUSH3 0x70F PUSH1 0x20 DUP7 ADD DUP7 PUSH3 0x8A0 JUMP JUMPDEST SWAP3 POP PUSH1 0xC0 PUSH1 0x40 DUP7 ADD MSTORE PUSH3 0x728 PUSH1 0xE0 DUP7 ADD DUP5 DUP4 PUSH3 0x610 JUMP JUMPDEST SWAP3 POP POP PUSH3 0x73A PUSH1 0x40 DUP7 ADD DUP7 PUSH3 0x8A0 JUMP JUMPDEST PUSH32 0xFFFFFFFFFFFFFFFFFFFFFFFFFFFFFFFFFFFFFFFFFFFFFFFFFFFFFFFFFFFFFFE0 DUP7 DUP6 SUB ADD PUSH1 0x60 DUP8 ADD MSTORE PUSH3 0x771 DUP5 DUP3 DUP5 PUSH3 0x610 JUMP JUMPDEST SWAP4 POP POP POP PUSH1 0x60 DUP6 ADD CALLDATALOAD PUSH3 0x785 DUP2 PUSH3 0x90D JUMP JUMPDEST DUP2 DUP2 AND PUSH1 0x80 DUP7 ADD MSTORE POP POP PUSH1 0xA0 DUP5 ADD PUSH3 0x7A2 DUP2 PUSH1 0x80 DUP8 ADD PUSH3 0x334 JUMP JUMPDEST PUSH1 0x9 DUP2 LT PUSH3 0x7AD JUMPI INVALID JUMPDEST PUSH1 0xA0 DUP6 ADD MSTORE CALLDATALOAD PUSH1 0xC0 SWAP1 SWAP4 ADD SWAP3 SWAP1 SWAP3 MSTORE POP SWAP2 SWAP1 POP JUMP JUMPDEST PUSH1 0x0 PUSH1 0x20 DUP3 MSTORE PUSH20 0xFFFFFFFFFFFFFFFFFFFFFFFFFFFFFFFFFFFFFFFF DUP1 DUP5 MLOAD AND PUSH1 0x20 DUP5 ADD MSTORE PUSH1 0x20 DUP5 ADD MLOAD PUSH1 0xC0 PUSH1 0x40 DUP6 ADD MSTORE PUSH3 0x801 PUSH1 0xE0 DUP6 ADD DUP3 PUSH3 0x5A4 JUMP JUMPDEST SWAP1 POP PUSH1 0x40 DUP6 ADD MLOAD PUSH32 0xFFFFFFFFFFFFFFFFFFFFFFFFFFFFFFFFFFFFFFFFFFFFFFFFFFFFFFFFFFFFFFE0 DUP6 DUP4 SUB ADD PUSH1 0x60 DUP7 ADD MSTORE PUSH3 0x83E DUP3 DUP3 PUSH3 0x5A4 JUMP JUMPDEST SWAP2 POP POP DUP2 PUSH1 0x60 DUP7 ADD MLOAD AND PUSH1 0x80 DUP6 ADD MSTORE PUSH1 0x80 DUP6 ADD MLOAD SWAP2 POP PUSH1 0x9 DUP3 LT PUSH3 0x85F JUMPI INVALID JUMPDEST PUSH1 0xA0 DUP5 DUP2 ADD SWAP3 SWAP1 SWAP3 MSTORE SWAP4 ADD MLOAD PUSH1 0xC0 SWAP1 SWAP3 ADD SWAP2 SWAP1 SWAP2 MSTORE POP SWAP1 JUMP JUMPDEST PUSH1 0x40 MLOAD DUP2 DUP2 ADD PUSH8 0xFFFFFFFFFFFFFFFF DUP2 GT DUP3 DUP3 LT OR ISZERO PUSH3 0x898 JUMPI PUSH1 0x0 DUP1 REVERT JUMPDEST PUSH1 0x40 MSTORE SWAP2 SWAP1 POP JUMP JUMPDEST PUSH1 0x0 DUP1 DUP4 CALLDATALOAD PUSH32 0xFFFFFFFFFFFFFFFFFFFFFFFFFFFFFFFFFFFFFFFFFFFFFFFFFFFFFFFFFFFFFFE1 DUP5 CALLDATASIZE SUB ADD DUP2 SLT PUSH3 0x8D5 JUMPI DUP3 DUP4 REVERT JUMPDEST DUP4 ADD PUSH1 0x20 DUP2 ADD SWAP3 POP CALLDATALOAD SWAP1 POP PUSH8 0xFFFFFFFFFFFFFFFF DUP2 GT ISZERO PUSH3 0x8F6 JUMPI PUSH1 0x0 DUP1 REVERT JUMPDEST DUP1 CALLDATASIZE SUB DUP4 SGT ISZERO PUSH3 0x906 JUMPI PUSH1 0x0 DUP1 REVERT JUMPDEST SWAP3 POP SWAP3 SWAP1 POP JUMP JUMPDEST PUSH20 0xFFFFFFFFFFFFFFFFFFFFFFFFFFFFFFFFFFFFFFFF DUP2 AND DUP2 EQ PUSH3 0x930 JUMPI PUSH1 0x0 DUP1 REVERT JUMPDEST POP JUMP INVALID PUSH2 0x180 PUSH1 0x40 MSTORE PUSH4 0xFFFFFFFF PUSH1 0x80 DUP2 DUP2 MSTORE PUSH1 0xA0 DUP3 SWAP1 MSTORE PUSH1 0xC0 DUP3 SWAP1 MSTORE PUSH1 0xE0 DUP3 SWAP1 MSTORE PUSH2 0x100 DUP3 SWAP1 MSTORE PUSH2 0x120 DUP3 SWAP1 MSTORE PUSH2 0x140 DUP3 SWAP1 MSTORE PUSH2 0x160 SWAP2 SWAP1 SWAP2 MSTORE PUSH3 0x47 SWAP1 PUSH1 0x1 SWAP1 PUSH1 0x8 PUSH3 0x6F9 JUMP JUMPDEST POP CALLVALUE DUP1 ISZERO PUSH3 0x55 JUMPI PUSH1 0x0 DUP1 REVERT JUMPDEST POP PUSH1 0x40 MLOAD PUSH3 0x3B50 CODESIZE SUB DUP1 PUSH3 0x3B50 DUP4 CODECOPY DUP2 ADD PUSH1 0x40 DUP2 SWAP1 MSTORE PUSH3 0x78 SWAP2 PUSH3 0x909 JUMP JUMPDEST PUSH1 0x20 DUP2 DUP2 ADD MLOAD PUSH1 0x40 DUP4 ADD MLOAD PUSH1 0x60 DUP5 ADD MLOAD PUSH1 0x2 DUP1 SLOAD PUSH1 0x1 PUSH1 0x1 PUSH1 0xA0 SHL SUB NOT AND PUSH1 0x1 PUSH1 0x1 PUSH1 0xA0 SHL SUB SWAP1 SWAP3 AND SWAP2 SWAP1 SWAP2 OR SWAP1 SSTORE NUMBER PUSH1 0x3 SSTORE DUP2 MLOAD SWAP2 SWAP3 SWAP1 SWAP2 PUSH3 0xC3 SWAP2 PUSH1 0x7 SWAP2 SWAP1 DUP6 ADD SWAP1 PUSH3 0x79C JUMP JUMPDEST POP DUP1 MLOAD PUSH3 0xD9 SWAP1 PUSH1 0x8 SWAP1 PUSH1 0x20 DUP5 ADD SWAP1 PUSH3 0x79C JUMP JUMPDEST POP POP PUSH1 0x9 DUP1 SLOAD PUSH1 0xFF NOT AND PUSH1 0x12 OR SWAP1 SSTORE POP PUSH1 0x1 PUSH1 0xA SSTORE PUSH1 0xA0 DUP2 ADD MLOAD PUSH8 0xDE0B6B3A7640000 GT ISZERO PUSH3 0x126 JUMPI PUSH1 0x40 MLOAD PUSH3 0x461BCD PUSH1 0xE5 SHL DUP2 MSTORE PUSH1 0x4 ADD PUSH3 0x11D SWAP1 PUSH3 0xAB9 JUMP JUMPDEST PUSH1 0x40 MLOAD DUP1 SWAP2 SUB SWAP1 REVERT JUMPDEST PUSH1 0x80 DUP2 ADD MLOAD PUSH1 0xC DUP1 SLOAD PUSH1 0xFF NOT AND PUSH1 0x1 DUP4 PUSH1 0x8 DUP2 GT ISZERO PUSH3 0x142 JUMPI INVALID JUMPDEST MUL OR SWAP1 SSTORE POP DUP1 MLOAD PUSH3 0x157 SWAP1 PUSH1 0x0 SWAP1 PUSH3 0x18F JUMP JUMPDEST DUP1 MLOAD PUSH3 0x175 SWAP1 PUSH1 0x0 DUP1 MLOAD PUSH1 0x20 PUSH3 0x3B30 DUP4 CODECOPY DUP2 MLOAD SWAP2 MSTORE SWAP1 PUSH3 0x18F JUMP JUMPDEST DUP1 MLOAD PUSH1 0xA0 DUP3 ADD MLOAD PUSH3 0x188 SWAP2 SWAP1 PUSH3 0x19F JUMP JUMPDEST POP PUSH3 0xB57 JUMP JUMPDEST PUSH3 0x19B DUP3 DUP3 PUSH3 0x284 JUMP JUMPDEST POP POP JUMP JUMPDEST PUSH1 0x1 PUSH1 0x1 PUSH1 0xA0 SHL SUB DUP3 AND PUSH3 0x1C8 JUMPI PUSH1 0x40 MLOAD PUSH3 0x461BCD PUSH1 0xE5 SHL DUP2 MSTORE PUSH1 0x4 ADD PUSH3 0x11D SWAP1 PUSH3 0xAF0 JUMP JUMPDEST PUSH3 0x1D6 PUSH1 0x0 DUP4 DUP4 PUSH3 0x2FD JUMP JUMPDEST PUSH3 0x1F2 DUP2 PUSH1 0x6 SLOAD PUSH3 0x44A PUSH1 0x20 SHL PUSH3 0x1346 OR SWAP1 SWAP2 SWAP1 PUSH1 0x20 SHR JUMP JUMPDEST PUSH1 0x6 SSTORE PUSH1 0x1 PUSH1 0x1 PUSH1 0xA0 SHL SUB DUP3 AND PUSH1 0x0 SWAP1 DUP2 MSTORE PUSH1 0x4 PUSH1 0x20 SWAP1 DUP2 MSTORE PUSH1 0x40 SWAP1 SWAP2 KECCAK256 SLOAD PUSH3 0x227 SWAP2 DUP4 SWAP1 PUSH3 0x1346 PUSH3 0x44A DUP3 SHL OR SWAP1 SHR JUMP JUMPDEST PUSH1 0x1 PUSH1 0x1 PUSH1 0xA0 SHL SUB DUP4 AND PUSH1 0x0 DUP2 DUP2 MSTORE PUSH1 0x4 PUSH1 0x20 MSTORE PUSH1 0x40 DUP1 DUP3 KECCAK256 SWAP4 SWAP1 SWAP4 SSTORE SWAP2 MLOAD SWAP1 SWAP2 SWAP1 PUSH32 0xDDF252AD1BE2C89B69C2B068FC378DAA952BA7F163C4A11628F55A4DF523B3EF SWAP1 PUSH3 0x278 SWAP1 DUP6 SWAP1 PUSH3 0xB27 JUMP JUMPDEST PUSH1 0x40 MLOAD DUP1 SWAP2 SUB SWAP1 LOG3 POP POP JUMP JUMPDEST PUSH1 0x0 DUP3 DUP2 MSTORE PUSH1 0x20 DUP2 DUP2 MSTORE PUSH1 0x40 SWAP1 SWAP2 KECCAK256 PUSH3 0x2A9 SWAP2 DUP4 SWAP1 PUSH3 0x1385 PUSH3 0x47B DUP3 SHL OR SWAP1 SHR JUMP JUMPDEST ISZERO PUSH3 0x19B JUMPI PUSH3 0x2B9 PUSH3 0x492 JUMP JUMPDEST PUSH1 0x1 PUSH1 0x1 PUSH1 0xA0 SHL SUB AND DUP2 PUSH1 0x1 PUSH1 0x1 PUSH1 0xA0 SHL SUB AND DUP4 PUSH32 0x2F8788117E7EFF1D82E926EC794901D17C78024A50270940304540A733656F0D PUSH1 0x40 MLOAD PUSH1 0x40 MLOAD DUP1 SWAP2 SUB SWAP1 LOG4 POP POP JUMP JUMPDEST PUSH3 0x315 DUP4 DUP4 DUP4 PUSH3 0x445 PUSH1 0x20 SHL PUSH3 0xB79 OR PUSH1 0x20 SHR JUMP JUMPDEST PUSH1 0x1 PUSH1 0x1 PUSH1 0xA0 SHL SUB DUP3 AND ADDRESS EQ ISZERO PUSH3 0x341 JUMPI PUSH1 0x40 MLOAD PUSH3 0x461BCD PUSH1 0xE5 SHL DUP2 MSTORE PUSH1 0x4 ADD PUSH3 0x11D SWAP1 PUSH3 0xA90 JUMP JUMPDEST PUSH1 0x0 DUP2 GT DUP1 ISZERO PUSH3 0x39D JUMPI POP PUSH3 0x379 PUSH32 0xCF2B1209506B76F140FB1BC5FE66D6E42627C4B9703A951D65552F50F14C9EE7 DUP5 PUSH3 0x496 JUMP JUMPDEST DUP1 PUSH3 0x39B JUMPI POP PUSH3 0x39B PUSH1 0x0 DUP1 MLOAD PUSH1 0x20 PUSH3 0x3B30 DUP4 CODECOPY DUP2 MLOAD SWAP2 MSTORE DUP4 PUSH3 0x496 JUMP JUMPDEST ISZERO JUMPDEST ISZERO PUSH3 0x445 JUMPI PUSH1 0x0 PUSH3 0x3AF PUSH3 0x4BA JUMP JUMPDEST PUSH1 0x8 DUP2 GT ISZERO PUSH3 0x3BB JUMPI INVALID JUMPDEST EQ ISZERO PUSH3 0x3FA JUMPI PUSH1 0xC SLOAD PUSH3 0x3D5 SWAP1 DUP4 SWAP1 PUSH1 0xFF AND PUSH3 0x529 JUMP JUMPDEST PUSH3 0x3F4 JUMPI PUSH1 0x40 MLOAD PUSH3 0x461BCD PUSH1 0xE5 SHL DUP2 MSTORE PUSH1 0x4 ADD PUSH3 0x11D SWAP1 PUSH3 0xA17 JUMP JUMPDEST PUSH3 0x445 JUMP JUMPDEST PUSH1 0x1 PUSH3 0x406 PUSH3 0x4BA JUMP JUMPDEST PUSH1 0x8 DUP2 GT ISZERO PUSH3 0x412 JUMPI INVALID JUMPDEST EQ ISZERO PUSH3 0x443 JUMPI PUSH1 0x1 PUSH1 0x1 PUSH1 0xA0 SHL SUB DUP3 AND ISZERO PUSH3 0x3F4 JUMPI PUSH1 0x40 MLOAD PUSH3 0x461BCD PUSH1 0xE5 SHL DUP2 MSTORE PUSH1 0x4 ADD PUSH3 0x11D SWAP1 PUSH3 0xA70 JUMP JUMPDEST INVALID JUMPDEST POP POP POP JUMP JUMPDEST PUSH1 0x0 DUP3 DUP3 ADD DUP4 DUP2 LT ISZERO PUSH3 0x472 JUMPI PUSH1 0x40 MLOAD PUSH3 0x461BCD PUSH1 0xE5 SHL DUP2 MSTORE PUSH1 0x4 ADD PUSH3 0x11D SWAP1 PUSH3 0xA39 JUMP JUMPDEST SWAP1 POP JUMPDEST SWAP3 SWAP2 POP POP JUMP JUMPDEST PUSH1 0x0 PUSH3 0x472 DUP4 PUSH1 0x1 PUSH1 0x1 PUSH1 0xA0 SHL SUB DUP5 AND PUSH3 0x5D5 JUMP JUMPDEST CALLER SWAP1 JUMP JUMPDEST PUSH1 0x0 DUP3 DUP2 MSTORE PUSH1 0x20 DUP2 DUP2 MSTORE PUSH1 0x40 DUP3 KECCAK256 PUSH3 0x472 SWAP2 DUP5 SWAP1 PUSH3 0x13A7 PUSH3 0x624 DUP3 SHL OR SWAP1 SHR JUMP JUMPDEST PUSH1 0x40 DUP1 MLOAD PUSH2 0x100 DUP2 ADD SWAP2 DUP3 SWAP1 MSTORE PUSH1 0x0 SWAP2 PUSH3 0x524 SWAP2 SWAP1 PUSH1 0x1 SWAP1 PUSH1 0x8 SWAP1 DUP3 DUP7 DUP6 JUMPDEST DUP3 DUP3 SWAP1 SLOAD SWAP1 PUSH2 0x100 EXP SWAP1 DIV PUSH4 0xFFFFFFFF AND PUSH4 0xFFFFFFFF AND DUP2 MSTORE PUSH1 0x20 ADD SWAP1 PUSH1 0x4 ADD SWAP1 PUSH1 0x20 DUP3 PUSH1 0x3 ADD DIV SWAP3 DUP4 ADD SWAP3 PUSH1 0x1 SUB DUP3 MUL SWAP2 POP DUP1 DUP5 GT PUSH3 0x4DA JUMPI POP NUMBER SWAP5 POP POP PUSH3 0x63B SWAP3 POP POP POP JUMP JUMPDEST SWAP1 POP SWAP1 JUMP JUMPDEST PUSH1 0x2 SLOAD PUSH1 0x40 MLOAD PUSH4 0xE053EA31 PUSH1 0xE0 SHL DUP2 MSTORE PUSH1 0x0 SWAP2 PUSH3 0x5C9 SWAP2 PUSH1 0x1 PUSH1 0x1 PUSH1 0xA0 SHL SUB SWAP1 SWAP2 AND SWAP1 PUSH4 0xE053EA31 SWAP1 PUSH3 0x563 SWAP1 DUP8 SWAP1 PUSH1 0x4 ADD PUSH3 0xA03 JUMP JUMPDEST PUSH1 0x20 PUSH1 0x40 MLOAD DUP1 DUP4 SUB DUP2 DUP7 DUP1 EXTCODESIZE ISZERO DUP1 ISZERO PUSH3 0x57C JUMPI PUSH1 0x0 DUP1 REVERT JUMPDEST POP GAS STATICCALL ISZERO DUP1 ISZERO PUSH3 0x591 JUMPI RETURNDATASIZE PUSH1 0x0 DUP1 RETURNDATACOPY RETURNDATASIZE PUSH1 0x0 REVERT JUMPDEST POP POP POP POP PUSH1 0x40 MLOAD RETURNDATASIZE PUSH1 0x1F NOT PUSH1 0x1F DUP3 ADD AND DUP3 ADD DUP1 PUSH1 0x40 MSTORE POP DUP2 ADD SWAP1 PUSH3 0x5B7 SWAP2 SWAP1 PUSH3 0x9EA JUMP JUMPDEST DUP4 PUSH3 0x697 PUSH1 0x20 SHL PUSH3 0x13C9 OR PUSH1 0x20 SHR JUMP JUMPDEST PUSH1 0x3 SLOAD LT ISZERO SWAP4 SWAP3 POP POP POP JUMP JUMPDEST PUSH1 0x0 PUSH3 0x5E3 DUP4 DUP4 PUSH3 0x6E1 JUMP JUMPDEST PUSH3 0x61B JUMPI POP DUP2 SLOAD PUSH1 0x1 DUP2 DUP2 ADD DUP5 SSTORE PUSH1 0x0 DUP5 DUP2 MSTORE PUSH1 0x20 DUP1 DUP3 KECCAK256 SWAP1 SWAP4 ADD DUP5 SWAP1 SSTORE DUP5 SLOAD DUP5 DUP3 MSTORE DUP3 DUP7 ADD SWAP1 SWAP4 MSTORE PUSH1 0x40 SWAP1 KECCAK256 SWAP2 SWAP1 SWAP2 SSTORE PUSH3 0x475 JUMP JUMPDEST POP PUSH1 0x0 PUSH3 0x475 JUMP JUMPDEST PUSH1 0x0 PUSH3 0x472 DUP4 PUSH1 0x1 PUSH1 0x1 PUSH1 0xA0 SHL SUB DUP5 AND PUSH3 0x6E1 JUMP JUMPDEST PUSH1 0x0 DUP1 JUMPDEST PUSH1 0x8 DUP2 LT ISZERO PUSH3 0x68E JUMPI DUP4 DUP2 PUSH1 0x8 DUP2 LT PUSH3 0x656 JUMPI INVALID JUMPDEST PUSH1 0x20 MUL ADD MLOAD PUSH4 0xFFFFFFFF AND DUP4 PUSH4 0xFFFFFFFF AND LT ISZERO PUSH3 0x685 JUMPI DUP1 PUSH1 0x8 DUP2 GT ISZERO PUSH3 0x67C JUMPI INVALID JUMPDEST SWAP2 POP POP PUSH3 0x475 JUMP JUMPDEST PUSH1 0x1 ADD PUSH3 0x63F JUMP JUMPDEST POP PUSH1 0x8 PUSH3 0x472 JUMP JUMPDEST PUSH1 0x0 DUP1 DUP3 PUSH1 0x8 DUP2 GT ISZERO PUSH3 0x6A7 JUMPI INVALID JUMPDEST EQ ISZERO PUSH3 0x6B7 JUMPI POP PUSH1 0x0 PUSH3 0x475 JUMP JUMPDEST PUSH1 0x0 PUSH1 0x1 DUP4 PUSH1 0x8 DUP2 GT ISZERO PUSH3 0x6C8 JUMPI INVALID JUMPDEST SUB PUSH1 0x20 MUL SWAP1 POP DUP1 DUP5 SWAP1 SHR PUSH4 0xFFFFFFFF AND SWAP2 POP POP SWAP3 SWAP2 POP POP JUMP JUMPDEST PUSH1 0x0 SWAP1 DUP2 MSTORE PUSH1 0x1 SWAP2 SWAP1 SWAP2 ADD PUSH1 0x20 MSTORE PUSH1 0x40 SWAP1 KECCAK256 SLOAD ISZERO ISZERO SWAP1 JUMP JUMPDEST PUSH1 0x1 DUP4 ADD SWAP2 DUP4 SWAP1 DUP3 ISZERO PUSH3 0x78A JUMPI SWAP2 PUSH1 0x20 MUL DUP3 ADD PUSH1 0x0 JUMPDEST DUP4 DUP3 GT ISZERO PUSH3 0x756 JUMPI DUP4 MLOAD DUP4 DUP3 PUSH2 0x100 EXP DUP2 SLOAD DUP2 PUSH4 0xFFFFFFFF MUL NOT AND SWAP1 DUP4 PUSH4 0xFFFFFFFF AND MUL OR SWAP1 SSTORE POP SWAP3 PUSH1 0x20 ADD SWAP3 PUSH1 0x4 ADD PUSH1 0x20 DUP2 PUSH1 0x3 ADD DIV SWAP3 DUP4 ADD SWAP3 PUSH1 0x1 SUB MUL PUSH3 0x710 JUMP JUMPDEST DUP1 ISZERO PUSH3 0x788 JUMPI DUP3 DUP2 PUSH2 0x100 EXP DUP2 SLOAD SWAP1 PUSH4 0xFFFFFFFF MUL NOT AND SWAP1 SSTORE PUSH1 0x4 ADD PUSH1 0x20 DUP2 PUSH1 0x3 ADD DIV SWAP3 DUP4 ADD SWAP3 PUSH1 0x1 SUB MUL PUSH3 0x756 JUMP JUMPDEST POP JUMPDEST POP PUSH3 0x798 SWAP3 SWAP2 POP PUSH3 0x81D JUMP JUMPDEST POP SWAP1 JUMP JUMPDEST DUP3 DUP1 SLOAD PUSH1 0x1 DUP2 PUSH1 0x1 AND ISZERO PUSH2 0x100 MUL SUB AND PUSH1 0x2 SWAP1 DIV SWAP1 PUSH1 0x0 MSTORE PUSH1 0x20 PUSH1 0x0 KECCAK256 SWAP1 PUSH1 0x1F ADD PUSH1 0x20 SWAP1 DIV DUP2 ADD SWAP3 DUP3 PUSH1 0x1F LT PUSH3 0x7DF JUMPI DUP1 MLOAD PUSH1 0xFF NOT AND DUP4 DUP1 ADD OR DUP6 SSTORE PUSH3 0x80F JUMP JUMPDEST DUP3 DUP1 ADD PUSH1 0x1 ADD DUP6 SSTORE DUP3 ISZERO PUSH3 0x80F JUMPI SWAP2 DUP3 ADD JUMPDEST DUP3 DUP2 GT ISZERO PUSH3 0x80F JUMPI DUP3 MLOAD DUP3 SSTORE SWAP2 PUSH1 0x20 ADD SWAP2 SWAP1 PUSH1 0x1 ADD SWAP1 PUSH3 0x7F2 JUMP JUMPDEST POP PUSH3 0x798 SWAP3 SWAP2 POP PUSH3 0x83B JUMP JUMPDEST JUMPDEST DUP1 DUP3 GT ISZERO PUSH3 0x798 JUMPI DUP1 SLOAD PUSH4 0xFFFFFFFF NOT AND DUP2 SSTORE PUSH1 0x1 ADD PUSH3 0x81E JUMP JUMPDEST JUMPDEST DUP1 DUP3 GT ISZERO PUSH3 0x798 JUMPI PUSH1 0x0 DUP2 SSTORE PUSH1 0x1 ADD PUSH3 0x83C JUMP JUMPDEST DUP1 MLOAD PUSH1 0x1 PUSH1 0x1 PUSH1 0xA0 SHL SUB DUP2 AND DUP2 EQ PUSH3 0x475 JUMPI PUSH1 0x0 DUP1 REVERT JUMPDEST DUP1 MLOAD PUSH1 0x9 DUP2 LT PUSH3 0x475 JUMPI PUSH1 0x0 DUP1 REVERT JUMPDEST PUSH1 0x0 DUP3 PUSH1 0x1F DUP4 ADD SLT PUSH3 0x88B JUMPI DUP1 DUP2 REVERT JUMPDEST DUP2 MLOAD PUSH1 0x1 PUSH1 0x1 PUSH1 0x40 SHL SUB DUP2 GT ISZERO PUSH3 0x8A1 JUMPI DUP2 DUP3 REVERT JUMPDEST PUSH1 0x20 PUSH3 0x8B7 PUSH1 0x1F DUP4 ADD PUSH1 0x1F NOT AND DUP3 ADD PUSH3 0xB30 JUMP JUMPDEST SWAP3 POP DUP2 DUP4 MSTORE DUP5 DUP2 DUP4 DUP7 ADD ADD GT ISZERO PUSH3 0x8CE JUMPI PUSH1 0x0 DUP1 REVERT JUMPDEST PUSH1 0x0 JUMPDEST DUP3 DUP2 LT ISZERO PUSH3 0x8EE JUMPI DUP5 DUP2 ADD DUP3 ADD MLOAD DUP5 DUP3 ADD DUP4 ADD MSTORE DUP2 ADD PUSH3 0x8D1 JUMP JUMPDEST DUP3 DUP2 GT ISZERO PUSH3 0x900 JUMPI PUSH1 0x0 DUP3 DUP5 DUP7 ADD ADD MSTORE JUMPDEST POP POP POP SWAP3 SWAP2 POP POP JUMP JUMPDEST PUSH1 0x0 PUSH1 0x20 DUP3 DUP5 SUB SLT ISZERO PUSH3 0x91B JUMPI DUP1 DUP2 REVERT JUMPDEST DUP2 MLOAD PUSH1 0x1 PUSH1 0x1 PUSH1 0x40 SHL SUB DUP1 DUP3 GT ISZERO PUSH3 0x932 JUMPI DUP3 DUP4 REVERT JUMPDEST SWAP1 DUP4 ADD SWAP1 PUSH1 0xC0 DUP3 DUP7 SUB SLT ISZERO PUSH3 0x946 JUMPI DUP3 DUP4 REVERT JUMPDEST PUSH3 0x952 PUSH1 0xC0 PUSH3 0xB30 JUMP JUMPDEST PUSH3 0x95E DUP7 DUP5 PUSH3 0x852 JUMP JUMPDEST DUP2 MSTORE PUSH1 0x20 DUP4 ADD MLOAD DUP3 DUP2 GT ISZERO PUSH3 0x972 JUMPI DUP5 DUP6 REVERT JUMPDEST PUSH3 0x980 DUP8 DUP3 DUP7 ADD PUSH3 0x87A JUMP JUMPDEST PUSH1 0x20 DUP4 ADD MSTORE POP PUSH1 0x40 DUP4 ADD MLOAD DUP3 DUP2 GT ISZERO PUSH3 0x998 JUMPI DUP5 DUP6 REVERT JUMPDEST PUSH3 0x9A6 DUP8 DUP3 DUP7 ADD PUSH3 0x87A JUMP JUMPDEST PUSH1 0x40 DUP4 ADD MSTORE POP PUSH3 0x9BB DUP7 PUSH1 0x60 DUP6 ADD PUSH3 0x852 JUMP JUMPDEST PUSH1 0x60 DUP3 ADD MSTORE PUSH3 0x9CF DUP7 PUSH1 0x80 DUP6 ADD PUSH3 0x86A JUMP JUMPDEST PUSH1 0x80 DUP3 ADD MSTORE PUSH1 0xA0 DUP4 ADD MLOAD PUSH1 0xA0 DUP3 ADD MSTORE DUP1 SWAP4 POP POP POP POP SWAP3 SWAP2 POP POP JUMP JUMPDEST PUSH1 0x0 PUSH1 0x20 DUP3 DUP5 SUB SLT ISZERO PUSH3 0x9FC JUMPI DUP1 DUP2 REVERT JUMPDEST POP MLOAD SWAP2 SWAP1 POP JUMP JUMPDEST PUSH1 0x1 PUSH1 0x1 PUSH1 0xA0 SHL SUB SWAP2 SWAP1 SWAP2 AND DUP2 MSTORE PUSH1 0x20 ADD SWAP1 JUMP JUMPDEST PUSH1 0x20 DUP1 DUP3 MSTORE PUSH1 0x8 SWAP1 DUP3 ADD MSTORE PUSH8 0x26A4A72FAA24A2A9 PUSH1 0xC1 SHL PUSH1 0x40 DUP3 ADD MSTORE PUSH1 0x60 ADD SWAP1 JUMP JUMPDEST PUSH1 0x20 DUP1 DUP3 MSTORE PUSH1 0x1B SWAP1 DUP3 ADD MSTORE PUSH32 0x536166654D6174683A206164646974696F6E206F766572666C6F770000000000 PUSH1 0x40 DUP3 ADD MSTORE PUSH1 0x60 ADD SWAP1 JUMP JUMPDEST PUSH1 0x20 DUP1 DUP3 MSTORE PUSH1 0x6 SWAP1 DUP3 ADD MSTORE PUSH6 0x232927AD22A7 PUSH1 0xD1 SHL PUSH1 0x40 DUP3 ADD MSTORE PUSH1 0x60 ADD SWAP1 JUMP JUMPDEST PUSH1 0x20 DUP1 DUP3 MSTORE PUSH1 0xF SWAP1 DUP3 ADD MSTORE PUSH15 0x2A27A5A2A72FA9A2A7222FA9A2A623 PUSH1 0x89 SHL PUSH1 0x40 DUP3 ADD MSTORE PUSH1 0x60 ADD SWAP1 JUMP JUMPDEST PUSH1 0x20 DUP1 DUP3 MSTORE PUSH1 0x16 SWAP1 DUP3 ADD MSTORE PUSH32 0x4D494E494D554D5F494E495449414C5F535550504C5900000000000000000000 PUSH1 0x40 DUP3 ADD MSTORE PUSH1 0x60 ADD SWAP1 JUMP JUMPDEST PUSH1 0x20 DUP1 DUP3 MSTORE PUSH1 0x1F SWAP1 DUP3 ADD MSTORE PUSH32 0x45524332303A206D696E7420746F20746865207A65726F206164647265737300 PUSH1 0x40 DUP3 ADD MSTORE PUSH1 0x60 ADD SWAP1 JUMP JUMPDEST SWAP1 DUP2 MSTORE PUSH1 0x20 ADD SWAP1 JUMP JUMPDEST PUSH1 0x40 MLOAD DUP2 DUP2 ADD PUSH1 0x1 PUSH1 0x1 PUSH1 0x40 SHL SUB DUP2 GT DUP3 DUP3 LT OR ISZERO PUSH3 0xB4F JUMPI PUSH1 0x0 DUP1 REVERT JUMPDEST PUSH1 0x40 MSTORE SWAP2 SWAP1 POP JUMP JUMPDEST PUSH2 0x2FC9 DUP1 PUSH3 0xB67 PUSH1 0x0 CODECOPY PUSH1 0x0 RETURN INVALID PUSH1 0x80 PUSH1 0x40 MSTORE CALLVALUE DUP1 ISZERO PUSH2 0x10 JUMPI PUSH1 0x0 DUP1 REVERT JUMPDEST POP PUSH1 0x4 CALLDATASIZE LT PUSH2 0x2D3 JUMPI PUSH1 0x0 CALLDATALOAD PUSH1 0xE0 SHR DUP1 PUSH4 0x81E45D9A GT PUSH2 0x186 JUMPI DUP1 PUSH4 0xA9059CBB GT PUSH2 0xE3 JUMPI DUP1 PUSH4 0xD547741F GT PUSH2 0x97 JUMPI DUP1 PUSH4 0xDE1533BA GT PUSH2 0x71 JUMPI DUP1 PUSH4 0xDE1533BA EQ PUSH2 0x578 JUMPI DUP1 PUSH4 0xF1EBD5DD EQ PUSH2 0x58B JUMPI DUP1 PUSH4 0xFA5070A0 EQ PUSH2 0x593 JUMPI PUSH2 0x2D3 JUMP JUMPDEST DUP1 PUSH4 0xD547741F EQ PUSH2 0x53F JUMPI DUP1 PUSH4 0xDB006A75 EQ PUSH2 0x552 JUMPI DUP1 PUSH4 0xDD62ED3E EQ PUSH2 0x565 JUMPI PUSH2 0x2D3 JUMP JUMPDEST DUP1 PUSH4 0xAD7430CC GT PUSH2 0xC8 JUMPI DUP1 PUSH4 0xAD7430CC EQ PUSH2 0x511 JUMPI DUP1 PUSH4 0xC5C97ECE EQ PUSH2 0x519 JUMPI DUP1 PUSH4 0xCA15C873 EQ PUSH2 0x52C JUMPI PUSH2 0x2D3 JUMP JUMPDEST DUP1 PUSH4 0xA9059CBB EQ PUSH2 0x4F6 JUMPI DUP1 PUSH4 0xAD3CB103 EQ PUSH2 0x509 JUMPI PUSH2 0x2D3 JUMP JUMPDEST DUP1 PUSH4 0x9923C94B GT PUSH2 0x13A JUMPI DUP1 PUSH4 0xA217FDDF GT PUSH2 0x11F JUMPI DUP1 PUSH4 0xA217FDDF EQ PUSH2 0x4D3 JUMPI DUP1 PUSH4 0xA30872DB EQ PUSH2 0x4DB JUMPI DUP1 PUSH4 0xA457C2D7 EQ PUSH2 0x4E3 JUMPI PUSH2 0x2D3 JUMP JUMPDEST DUP1 PUSH4 0x9923C94B EQ PUSH2 0x4AD JUMPI DUP1 PUSH4 0x9E46CB42 EQ PUSH2 0x4C0 JUMPI PUSH2 0x2D3 JUMP JUMPDEST DUP1 PUSH4 0x91D14854 GT PUSH2 0x16B JUMPI DUP1 PUSH4 0x91D14854 EQ PUSH2 0x48A JUMPI DUP1 PUSH4 0x95D89B41 EQ PUSH2 0x49D JUMPI DUP1 PUSH4 0x96773EBE EQ PUSH2 0x4A5 JUMPI PUSH2 0x2D3 JUMP JUMPDEST DUP1 PUSH4 0x81E45D9A EQ PUSH2 0x462 JUMPI DUP1 PUSH4 0x9010D07C EQ PUSH2 0x46A JUMPI PUSH2 0x2D3 JUMP JUMPDEST DUP1 PUSH4 0x34C1DF75 GT PUSH2 0x234 JUMPI DUP1 PUSH4 0x53BCB325 GT PUSH2 0x1E8 JUMPI DUP1 PUSH4 0x70A08231 GT PUSH2 0x1CD JUMPI DUP1 PUSH4 0x70A08231 EQ PUSH2 0x429 JUMPI DUP1 PUSH4 0x77544F33 EQ PUSH2 0x43C JUMPI DUP1 PUSH4 0x79CC6790 EQ PUSH2 0x44F JUMPI PUSH2 0x2D3 JUMP JUMPDEST DUP1 PUSH4 0x53BCB325 EQ PUSH2 0x419 JUMPI DUP1 PUSH4 0x6050F2F8 EQ PUSH2 0x421 JUMPI PUSH2 0x2D3 JUMP JUMPDEST DUP1 PUSH4 0x39509351 GT PUSH2 0x219 JUMPI DUP1 PUSH4 0x39509351 EQ PUSH2 0x3D3 JUMPI DUP1 PUSH4 0x42966C68 EQ PUSH2 0x3E6 JUMPI DUP1 PUSH4 0x45BDFA8A EQ PUSH2 0x3F9 JUMPI PUSH2 0x2D3 JUMP JUMPDEST DUP1 PUSH4 0x34C1DF75 EQ PUSH2 0x3AD JUMPI DUP1 PUSH4 0x36568ABE EQ PUSH2 0x3C0 JUMPI PUSH2 0x2D3 JUMP JUMPDEST DUP1 PUSH4 0x1C77BB2C GT PUSH2 0x28B JUMPI DUP1 PUSH4 0x248A9CA3 GT PUSH2 0x270 JUMPI DUP1 PUSH4 0x248A9CA3 EQ PUSH2 0x370 JUMPI DUP1 PUSH4 0x2F2FF15D EQ PUSH2 0x383 JUMPI DUP1 PUSH4 0x313CE567 EQ PUSH2 0x398 JUMPI PUSH2 0x2D3 JUMP JUMPDEST DUP1 PUSH4 0x1C77BB2C EQ PUSH2 0x348 JUMPI DUP1 PUSH4 0x23B872DD EQ PUSH2 0x35D JUMPI PUSH2 0x2D3 JUMP JUMPDEST DUP1 PUSH4 0x95EA7B3 GT PUSH2 0x2BC JUMPI DUP1 PUSH4 0x95EA7B3 EQ PUSH2 0x30B JUMPI DUP1 PUSH4 0xF0AF57F EQ PUSH2 0x32B JUMPI DUP1 PUSH4 0x18160DDD EQ PUSH2 0x340 JUMPI PUSH2 0x2D3 JUMP JUMPDEST DUP1 PUSH4 0x55AD42E EQ PUSH2 0x2D8 JUMPI DUP1 PUSH4 0x6FDDE03 EQ PUSH2 0x2F6 JUMPI JUMPDEST PUSH1 0x0 DUP1 REVERT JUMPDEST PUSH2 0x2E0 PUSH2 0x59B JUMP JUMPDEST PUSH1 0x40 MLOAD PUSH2 0x2ED SWAP2 SWAP1 PUSH2 0x2637 JUMP JUMPDEST PUSH1 0x40 MLOAD DUP1 SWAP2 SUB SWAP1 RETURN JUMPDEST PUSH2 0x2FE PUSH2 0x606 JUMP JUMPDEST PUSH1 0x40 MLOAD PUSH2 0x2ED SWAP2 SWAP1 PUSH2 0x264A JUMP JUMPDEST PUSH2 0x31E PUSH2 0x319 CALLDATASIZE PUSH1 0x4 PUSH2 0x231B JUMP JUMPDEST PUSH2 0x6BA JUMP JUMPDEST PUSH1 0x40 MLOAD PUSH2 0x2ED SWAP2 SWAP1 PUSH2 0x2623 JUMP JUMPDEST PUSH2 0x333 PUSH2 0x6D8 JUMP JUMPDEST PUSH1 0x40 MLOAD PUSH2 0x2ED SWAP2 SWAP1 PUSH2 0x262E JUMP JUMPDEST PUSH2 0x333 PUSH2 0x6DE JUMP JUMPDEST PUSH2 0x350 PUSH2 0x6E4 JUMP JUMPDEST PUSH1 0x40 MLOAD PUSH2 0x2ED SWAP2 SWAP1 PUSH2 0x25B3 JUMP JUMPDEST PUSH2 0x31E PUSH2 0x36B CALLDATASIZE PUSH1 0x4 PUSH2 0x22AE JUMP JUMPDEST PUSH2 0x76A JUMP JUMPDEST PUSH2 0x333 PUSH2 0x37E CALLDATASIZE PUSH1 0x4 PUSH2 0x24BF JUMP JUMPDEST PUSH2 0x80C JUMP JUMPDEST PUSH2 0x396 PUSH2 0x391 CALLDATASIZE PUSH1 0x4 PUSH2 0x24D7 JUMP JUMPDEST PUSH2 0x821 JUMP JUMPDEST STOP JUMPDEST PUSH2 0x3A0 PUSH2 0x88C JUMP JUMPDEST PUSH1 0x40 MLOAD PUSH2 0x2ED SWAP2 SWAP1 PUSH2 0x2E0A JUMP JUMPDEST PUSH2 0x2E0 PUSH2 0x3BB CALLDATASIZE PUSH1 0x4 PUSH2 0x241B JUMP JUMPDEST PUSH2 0x895 JUMP JUMPDEST PUSH2 0x396 PUSH2 0x3CE CALLDATASIZE PUSH1 0x4 PUSH2 0x24D7 JUMP JUMPDEST PUSH2 0x8EC JUMP JUMPDEST PUSH2 0x31E PUSH2 0x3E1 CALLDATASIZE PUSH1 0x4 PUSH2 0x231B JUMP JUMPDEST PUSH2 0x962 JUMP JUMPDEST PUSH2 0x396 PUSH2 0x3F4 CALLDATASIZE PUSH1 0x4 PUSH2 0x24BF JUMP JUMPDEST PUSH2 0x9BD JUMP JUMPDEST PUSH2 0x40C PUSH2 0x407 CALLDATASIZE PUSH1 0x4 PUSH2 0x23EA JUMP JUMPDEST PUSH2 0x9D1 JUMP JUMPDEST PUSH1 0x40 MLOAD PUSH2 0x2ED SWAP2 SWAP1 PUSH2 0x2DF9 JUMP JUMPDEST PUSH2 0x3A0 PUSH2 0xA19 JUMP JUMPDEST PUSH2 0x333 PUSH2 0xA1E JUMP JUMPDEST PUSH2 0x333 PUSH2 0x437 CALLDATASIZE PUSH1 0x4 PUSH2 0x225A JUMP JUMPDEST PUSH2 0xA42 JUMP JUMPDEST PUSH2 0x31E PUSH2 0x44A CALLDATASIZE PUSH1 0x4 PUSH2 0x22EE JUMP JUMPDEST PUSH2 0xA6A JUMP JUMPDEST PUSH2 0x396 PUSH2 0x45D CALLDATASIZE PUSH1 0x4 PUSH2 0x231B JUMP JUMPDEST PUSH2 0xB29 JUMP JUMPDEST PUSH2 0x40C PUSH2 0xB7E JUMP JUMPDEST PUSH2 0x47D PUSH2 0x478 CALLDATASIZE PUSH1 0x4 PUSH2 0x24FB JUMP JUMPDEST PUSH2 0xBA2 JUMP JUMPDEST PUSH1 0x40 MLOAD PUSH2 0x2ED SWAP2 SWAP1 PUSH2 0x256C JUMP JUMPDEST PUSH2 0x31E PUSH2 0x498 CALLDATASIZE PUSH1 0x4 PUSH2 0x24D7 JUMP JUMPDEST PUSH2 0xBBA JUMP JUMPDEST PUSH2 0x2FE PUSH2 0xBD2 JUMP JUMPDEST PUSH2 0x333 PUSH2 0xC51 JUMP JUMPDEST PUSH2 0x40C PUSH2 0x4BB CALLDATASIZE PUSH1 0x4 PUSH2 0x24BF JUMP JUMPDEST PUSH2 0xC75 JUMP JUMPDEST PUSH2 0x396 PUSH2 0x4CE CALLDATASIZE PUSH1 0x4 PUSH2 0x225A JUMP JUMPDEST PUSH2 0xCA2 JUMP JUMPDEST PUSH2 0x333 PUSH2 0xE49 JUMP JUMPDEST PUSH2 0x47D PUSH2 0xE4E JUMP JUMPDEST PUSH2 0x31E PUSH2 0x4F1 CALLDATASIZE PUSH1 0x4 PUSH2 0x231B JUMP JUMPDEST PUSH2 0xE6A JUMP JUMPDEST PUSH2 0x31E PUSH2 0x504 CALLDATASIZE PUSH1 0x4 PUSH2 0x231B JUMP JUMPDEST PUSH2 0xEDF JUMP JUMPDEST PUSH2 0x333 PUSH2 0xEF3 JUMP JUMPDEST PUSH2 0x333 PUSH2 0xEFF JUMP JUMPDEST PUSH2 0x396 PUSH2 0x527 CALLDATASIZE PUSH1 0x4 PUSH2 0x2346 JUMP JUMPDEST PUSH2 0xF23 JUMP JUMPDEST PUSH2 0x333 PUSH2 0x53A CALLDATASIZE PUSH1 0x4 PUSH2 0x24BF JUMP JUMPDEST PUSH2 0x113D JUMP JUMPDEST PUSH2 0x396 PUSH2 0x54D CALLDATASIZE PUSH1 0x4 PUSH2 0x24D7 JUMP JUMPDEST PUSH2 0x1154 JUMP JUMPDEST PUSH2 0x396 PUSH2 0x560 CALLDATASIZE PUSH1 0x4 PUSH2 0x24BF JUMP JUMPDEST PUSH2 0x11A8 JUMP JUMPDEST PUSH2 0x333 PUSH2 0x573 CALLDATASIZE PUSH1 0x4 PUSH2 0x2276 JUMP JUMPDEST PUSH2 0x1219 JUMP JUMPDEST PUSH2 0x396 PUSH2 0x586 CALLDATASIZE PUSH1 0x4 PUSH2 0x225A JUMP JUMPDEST PUSH2 0x1251 JUMP JUMPDEST PUSH2 0x2E0 PUSH2 0x1319 JUMP JUMPDEST PUSH2 0x333 PUSH2 0x1322 JUMP JUMPDEST PUSH1 0x40 DUP1 MLOAD PUSH2 0x100 DUP2 ADD SWAP2 DUP3 SWAP1 MSTORE PUSH1 0x0 SWAP2 PUSH2 0x601 SWAP2 SWAP1 PUSH1 0x1 SWAP1 PUSH1 0x8 SWAP1 DUP3 DUP7 DUP6 JUMPDEST DUP3 DUP3 SWAP1 SLOAD SWAP1 PUSH2 0x100 EXP SWAP1 DIV PUSH4 0xFFFFFFFF AND PUSH4 0xFFFFFFFF AND DUP2 MSTORE PUSH1 0x20 ADD SWAP1 PUSH1 0x4 ADD SWAP1 PUSH1 0x20 DUP3 PUSH1 0x3 ADD DIV SWAP3 DUP4 ADD SWAP3 PUSH1 0x1 SUB DUP3 MUL SWAP2 POP DUP1 DUP5 GT PUSH2 0x5BA JUMPI SWAP1 POP POP POP POP POP POP NUMBER PUSH2 0x895 JUMP JUMPDEST SWAP1 POP SWAP1 JUMP JUMPDEST PUSH1 0x7 DUP1 SLOAD PUSH1 0x40 DUP1 MLOAD PUSH1 0x20 PUSH1 0x1F PUSH1 0x2 PUSH32 0xFFFFFFFFFFFFFFFFFFFFFFFFFFFFFFFFFFFFFFFFFFFFFFFFFFFFFFFFFFFFFFFF PUSH2 0x100 PUSH1 0x1 DUP9 AND ISZERO MUL ADD SWAP1 SWAP6 AND SWAP5 SWAP1 SWAP5 DIV SWAP4 DUP5 ADD DUP2 SWAP1 DIV DUP2 MUL DUP3 ADD DUP2 ADD SWAP1 SWAP3 MSTORE DUP3 DUP2 MSTORE PUSH1 0x60 SWAP4 SWAP1 SWAP3 SWAP1 SWAP2 DUP4 ADD DUP3 DUP3 DUP1 ISZERO PUSH2 0x6B0 JUMPI DUP1 PUSH1 0x1F LT PUSH2 0x685 JUMPI PUSH2 0x100 DUP1 DUP4 SLOAD DIV MUL DUP4 MSTORE SWAP2 PUSH1 0x20 ADD SWAP2 PUSH2 0x6B0 JUMP JUMPDEST DUP3 ADD SWAP2 SWAP1 PUSH1 0x0 MSTORE PUSH1 0x20 PUSH1 0x0 KECCAK256 SWAP1 JUMPDEST DUP2 SLOAD DUP2 MSTORE SWAP1 PUSH1 0x1 ADD SWAP1 PUSH1 0x20 ADD DUP1 DUP4 GT PUSH2 0x693 JUMPI DUP3 SWAP1 SUB PUSH1 0x1F AND DUP3 ADD SWAP2 JUMPDEST POP POP POP POP POP SWAP1 POP SWAP1 JUMP JUMPDEST PUSH1 0x0 PUSH2 0x6CE PUSH2 0x6C7 PUSH2 0x140F JUMP JUMPDEST DUP5 DUP5 PUSH2 0x1413 JUMP JUMPDEST POP PUSH1 0x1 JUMPDEST SWAP3 SWAP2 POP POP JUMP JUMPDEST PUSH1 0x3 SLOAD DUP2 JUMP JUMPDEST PUSH1 0x6 SLOAD SWAP1 JUMP JUMPDEST PUSH2 0x6EC PUSH2 0x2230 JUMP JUMPDEST PUSH2 0x6F4 PUSH2 0x2230 JUMP JUMPDEST PUSH1 0x0 JUMPDEST PUSH1 0xB SLOAD DUP2 LT ISZERO PUSH2 0x764 JUMPI PUSH1 0xB DUP2 DUP2 SLOAD DUP2 LT PUSH2 0x70E JUMPI INVALID JUMPDEST PUSH1 0x0 SWAP2 DUP3 MSTORE PUSH1 0x20 SWAP1 SWAP2 KECCAK256 ADD SLOAD PUSH20 0xFFFFFFFFFFFFFFFFFFFFFFFFFFFFFFFFFFFFFFFF AND DUP3 DUP3 PUSH1 0x8 DUP2 LT PUSH2 0x73C JUMPI INVALID JUMPDEST PUSH20 0xFFFFFFFFFFFFFFFFFFFFFFFFFFFFFFFFFFFFFFFF SWAP1 SWAP3 AND PUSH1 0x20 SWAP3 SWAP1 SWAP3 MUL ADD MSTORE PUSH1 0x1 ADD PUSH2 0x6F7 JUMP JUMPDEST POP SWAP1 POP SWAP1 JUMP JUMPDEST PUSH1 0x0 PUSH2 0x777 DUP5 DUP5 DUP5 PUSH2 0x1522 JUMP JUMPDEST PUSH2 0x801 DUP5 PUSH2 0x783 PUSH2 0x140F JUMP JUMPDEST PUSH2 0x7FC DUP6 PUSH1 0x40 MLOAD DUP1 PUSH1 0x60 ADD PUSH1 0x40 MSTORE DUP1 PUSH1 0x28 DUP2 MSTORE PUSH1 0x20 ADD PUSH2 0x2F23 PUSH1 0x28 SWAP2 CODECOPY PUSH20 0xFFFFFFFFFFFFFFFFFFFFFFFFFFFFFFFFFFFFFFFF DUP11 AND PUSH1 0x0 SWAP1 DUP2 MSTORE PUSH1 0x5 PUSH1 0x20 MSTORE PUSH1 0x40 DUP2 KECCAK256 SWAP1 PUSH2 0x7CE PUSH2 0x140F JUMP JUMPDEST PUSH20 0xFFFFFFFFFFFFFFFFFFFFFFFFFFFFFFFFFFFFFFFF AND DUP2 MSTORE PUSH1 0x20 DUP2 ADD SWAP2 SWAP1 SWAP2 MSTORE PUSH1 0x40 ADD PUSH1 0x0 KECCAK256 SLOAD SWAP2 SWAP1 PUSH2 0x16AC JUMP JUMPDEST PUSH2 0x1413 JUMP JUMPDEST POP PUSH1 0x1 JUMPDEST SWAP4 SWAP3 POP POP POP JUMP JUMPDEST PUSH1 0x0 SWAP1 DUP2 MSTORE PUSH1 0x20 DUP2 SWAP1 MSTORE PUSH1 0x40 SWAP1 KECCAK256 PUSH1 0x2 ADD SLOAD SWAP1 JUMP JUMPDEST PUSH1 0x0 DUP3 DUP2 MSTORE PUSH1 0x20 DUP2 SWAP1 MSTORE PUSH1 0x40 SWAP1 KECCAK256 PUSH1 0x2 ADD SLOAD PUSH2 0x83F SWAP1 PUSH2 0x498 PUSH2 0x140F JUMP JUMPDEST PUSH2 0x87E JUMPI PUSH1 0x40 MLOAD PUSH32 0x8C379A000000000000000000000000000000000000000000000000000000000 DUP2 MSTORE PUSH1 0x4 ADD PUSH2 0x875 SWAP1 PUSH2 0x2755 JUMP JUMPDEST PUSH1 0x40 MLOAD DUP1 SWAP2 SUB SWAP1 REVERT JUMPDEST PUSH2 0x888 DUP3 DUP3 PUSH2 0x16F2 JUMP JUMPDEST POP POP JUMP JUMPDEST PUSH1 0x9 SLOAD PUSH1 0xFF AND SWAP1 JUMP JUMPDEST PUSH1 0x0 DUP1 JUMPDEST PUSH1 0x8 DUP2 LT ISZERO PUSH2 0x8E2 JUMPI DUP4 DUP2 PUSH1 0x8 DUP2 LT PUSH2 0x8AE JUMPI INVALID JUMPDEST PUSH1 0x20 MUL ADD MLOAD PUSH4 0xFFFFFFFF AND DUP4 PUSH4 0xFFFFFFFF AND LT ISZERO PUSH2 0x8DA JUMPI DUP1 PUSH1 0x8 DUP2 GT ISZERO PUSH2 0x8D2 JUMPI INVALID JUMPDEST SWAP2 POP POP PUSH2 0x6D2 JUMP JUMPDEST PUSH1 0x1 ADD PUSH2 0x899 JUMP JUMPDEST POP PUSH1 0x8 SWAP4 SWAP3 POP POP POP JUMP JUMPDEST PUSH2 0x8F4 PUSH2 0x140F JUMP JUMPDEST PUSH20 0xFFFFFFFFFFFFFFFFFFFFFFFFFFFFFFFFFFFFFFFF AND DUP2 PUSH20 0xFFFFFFFFFFFFFFFFFFFFFFFFFFFFFFFFFFFFFFFF AND EQ PUSH2 0x958 JUMPI PUSH1 0x40 MLOAD PUSH32 0x8C379A000000000000000000000000000000000000000000000000000000000 DUP2 MSTORE PUSH1 0x4 ADD PUSH2 0x875 SWAP1 PUSH2 0x2D9C JUMP JUMPDEST PUSH2 0x888 DUP3 DUP3 PUSH2 0x1775 JUMP JUMPDEST PUSH1 0x0 PUSH2 0x6CE PUSH2 0x96F PUSH2 0x140F JUMP JUMPDEST DUP5 PUSH2 0x7FC DUP6 PUSH1 0x5 PUSH1 0x0 PUSH2 0x980 PUSH2 0x140F JUMP JUMPDEST PUSH20 0xFFFFFFFFFFFFFFFFFFFFFFFFFFFFFFFFFFFFFFFF SWAP1 DUP2 AND DUP3 MSTORE PUSH1 0x20 DUP1 DUP4 ADD SWAP4 SWAP1 SWAP4 MSTORE PUSH1 0x40 SWAP2 DUP3 ADD PUSH1 0x0 SWAP1 DUP2 KECCAK256 SWAP2 DUP13 AND DUP2 MSTORE SWAP3 MSTORE SWAP1 KECCAK256 SLOAD SWAP1 PUSH2 0x1346 JUMP JUMPDEST PUSH2 0x9CE PUSH2 0x9C8 PUSH2 0x140F JUMP JUMPDEST DUP3 PUSH2 0x17F8 JUMP JUMPDEST POP JUMP JUMPDEST PUSH1 0x0 DUP1 DUP3 PUSH1 0x8 DUP2 GT ISZERO PUSH2 0x9E0 JUMPI INVALID JUMPDEST GT PUSH2 0x9EC JUMPI PUSH1 0x0 PUSH2 0x805 JUMP JUMPDEST DUP3 PUSH1 0x1 DUP4 PUSH1 0x8 DUP2 GT ISZERO PUSH2 0x9FB JUMPI INVALID JUMPDEST SUB PUSH1 0x8 DUP2 LT PUSH2 0xA06 JUMPI INVALID JUMPDEST PUSH1 0x20 MUL ADD PUSH1 0x20 DUP2 ADD SWAP1 PUSH2 0x805 SWAP2 SWAP1 PUSH2 0x2534 JUMP JUMPDEST PUSH1 0x8 DUP2 JUMP JUMPDEST PUSH32 0xCF2B1209506B76F140FB1BC5FE66D6E42627C4B9703A951D65552F50F14C9EE7 DUP2 JUMP JUMPDEST PUSH20 0xFFFFFFFFFFFFFFFFFFFFFFFFFFFFFFFFFFFFFFFF AND PUSH1 0x0 SWAP1 DUP2 MSTORE PUSH1 0x4 PUSH1 0x20 MSTORE PUSH1 0x40 SWAP1 KECCAK256 SLOAD SWAP1 JUMP JUMPDEST PUSH1 0x2 SLOAD PUSH1 0x40 MLOAD PUSH32 0xE053EA3100000000000000000000000000000000000000000000000000000000 DUP2 MSTORE PUSH1 0x0 SWAP2 PUSH2 0xB1D SWAP2 PUSH20 0xFFFFFFFFFFFFFFFFFFFFFFFFFFFFFFFFFFFFFFFF SWAP1 SWAP2 AND SWAP1 PUSH4 0xE053EA31 SWAP1 PUSH2 0xAC7 SWAP1 DUP8 SWAP1 PUSH1 0x4 ADD PUSH2 0x256C JUMP JUMPDEST PUSH1 0x20 PUSH1 0x40 MLOAD DUP1 DUP4 SUB DUP2 DUP7 DUP1 EXTCODESIZE ISZERO DUP1 ISZERO PUSH2 0xADF JUMPI PUSH1 0x0 DUP1 REVERT JUMPDEST POP GAS STATICCALL ISZERO DUP1 ISZERO PUSH2 0xAF3 JUMPI RETURNDATASIZE PUSH1 0x0 DUP1 RETURNDATACOPY RETURNDATASIZE PUSH1 0x0 REVERT JUMPDEST POP POP POP POP PUSH1 0x40 MLOAD RETURNDATASIZE PUSH1 0x1F NOT PUSH1 0x1F DUP3 ADD AND DUP3 ADD DUP1 PUSH1 0x40 MSTORE POP DUP2 ADD SWAP1 PUSH2 0xB17 SWAP2 SWAP1 PUSH2 0x251C JUMP JUMPDEST DUP4 PUSH2 0x13C9 JUMP JUMPDEST PUSH1 0x3 SLOAD LT ISZERO SWAP4 SWAP3 POP POP POP JUMP JUMPDEST PUSH1 0x0 PUSH2 0xB5B DUP3 PUSH1 0x40 MLOAD DUP1 PUSH1 0x60 ADD PUSH1 0x40 MSTORE DUP1 PUSH1 0x24 DUP2 MSTORE PUSH1 0x20 ADD PUSH2 0x2F4B PUSH1 0x24 SWAP2 CODECOPY PUSH2 0xB54 DUP7 PUSH2 0x573 PUSH2 0x140F JUMP JUMPDEST SWAP2 SWAP1 PUSH2 0x16AC JUMP JUMPDEST SWAP1 POP PUSH2 0xB6F DUP4 PUSH2 0xB69 PUSH2 0x140F JUMP JUMPDEST DUP4 PUSH2 0x1413 JUMP JUMPDEST PUSH2 0xB79 DUP4 DUP4 PUSH2 0x17F8 JUMP JUMPDEST POP POP POP JUMP JUMPDEST PUSH32 0xFFFFFFFFFFFFFFFFFFFFFFFFFFFFFFFFFFFFFFFFFFFFFFFFFFFFFFFFFFFFFFFF DUP2 JUMP JUMPDEST PUSH1 0x0 DUP3 DUP2 MSTORE PUSH1 0x20 DUP2 SWAP1 MSTORE PUSH1 0x40 DUP2 KECCAK256 PUSH2 0x805 SWAP1 DUP4 PUSH2 0x1928 JUMP JUMPDEST PUSH1 0x0 DUP3 DUP2 MSTORE PUSH1 0x20 DUP2 SWAP1 MSTORE PUSH1 0x40 DUP2 KECCAK256 PUSH2 0x805 SWAP1 DUP4 PUSH2 0x13A7 JUMP JUMPDEST PUSH1 0x8 DUP1 SLOAD PUSH1 0x40 DUP1 MLOAD PUSH1 0x20 PUSH1 0x1F PUSH1 0x2 PUSH32 0xFFFFFFFFFFFFFFFFFFFFFFFFFFFFFFFFFFFFFFFFFFFFFFFFFFFFFFFFFFFFFFFF PUSH2 0x100 PUSH1 0x1 DUP9 AND ISZERO MUL ADD SWAP1 SWAP6 AND SWAP5 SWAP1 SWAP5 DIV SWAP4 DUP5 ADD DUP2 SWAP1 DIV DUP2 MUL DUP3 ADD DUP2 ADD SWAP1 SWAP3 MSTORE DUP3 DUP2 MSTORE PUSH1 0x60 SWAP4 SWAP1 SWAP3 SWAP1 SWAP2 DUP4 ADD DUP3 DUP3 DUP1 ISZERO PUSH2 0x6B0 JUMPI DUP1 PUSH1 0x1F LT PUSH2 0x685 JUMPI PUSH2 0x100 DUP1 DUP4 SLOAD DIV MUL DUP4 MSTORE SWAP2 PUSH1 0x20 ADD SWAP2 PUSH2 0x6B0 JUMP JUMPDEST PUSH32 0xA67CE9B482CD7C7B30F4CEA2F7E71ABE8F7040CC572C570552199C488F160AD1 DUP2 JUMP JUMPDEST PUSH1 0x1 DUP2 PUSH1 0x8 DUP2 LT PUSH2 0xC82 JUMPI INVALID JUMPDEST PUSH1 0x8 SWAP2 DUP3 DUP3 DIV ADD SWAP2 SWAP1 MOD PUSH1 0x4 MUL SWAP2 POP SLOAD SWAP1 PUSH2 0x100 EXP SWAP1 DIV PUSH4 0xFFFFFFFF AND DUP2 JUMP JUMPDEST PUSH2 0xCCC PUSH32 0xA638E6D52802F3AB217DE611C9B2D0023A709998A8CE9B01094EC3FDB3DED4E2 CALLER PUSH2 0xBBA JUMP JUMPDEST PUSH2 0xD02 JUMPI PUSH1 0x40 MLOAD PUSH32 0x8C379A000000000000000000000000000000000000000000000000000000000 DUP2 MSTORE PUSH1 0x4 ADD PUSH2 0x875 SWAP1 PUSH2 0x2D65 JUMP JUMPDEST PUSH1 0xB SLOAD PUSH1 0x8 GT PUSH2 0xD3E JUMPI PUSH1 0x40 MLOAD PUSH32 0x8C379A000000000000000000000000000000000000000000000000000000000 DUP2 MSTORE PUSH1 0x4 ADD PUSH2 0x875 SWAP1 PUSH2 0x2D2E JUMP JUMPDEST PUSH1 0x0 JUMPDEST PUSH1 0xB SLOAD DUP2 LT ISZERO PUSH2 0xDD1 JUMPI DUP2 PUSH20 0xFFFFFFFFFFFFFFFFFFFFFFFFFFFFFFFFFFFFFFFF AND PUSH1 0xB DUP3 DUP2 SLOAD DUP2 LT PUSH2 0xD6F JUMPI INVALID JUMPDEST PUSH1 0x0 SWAP2 DUP3 MSTORE PUSH1 0x20 SWAP1 SWAP2 KECCAK256 ADD SLOAD PUSH20 0xFFFFFFFFFFFFFFFFFFFFFFFFFFFFFFFFFFFFFFFF AND EQ ISZERO PUSH2 0xDC9 JUMPI PUSH1 0x40 MLOAD PUSH32 0x8C379A000000000000000000000000000000000000000000000000000000000 DUP2 MSTORE PUSH1 0x4 ADD PUSH2 0x875 SWAP1 PUSH2 0x2922 JUMP JUMPDEST PUSH1 0x1 ADD PUSH2 0xD41 JUMP JUMPDEST POP PUSH1 0xB DUP1 SLOAD PUSH1 0x1 DUP2 ADD DUP3 SSTORE PUSH1 0x0 SWAP2 SWAP1 SWAP2 MSTORE PUSH32 0x175B7A638427703F0DBE7BB9BBF987A2551717B34E79F33B5B1008D1FA01DB9 ADD DUP1 SLOAD PUSH32 0xFFFFFFFFFFFFFFFFFFFFFFFF0000000000000000000000000000000000000000 AND PUSH20 0xFFFFFFFFFFFFFFFFFFFFFFFFFFFFFFFFFFFFFFFF SWAP3 SWAP1 SWAP3 AND SWAP2 SWAP1 SWAP2 OR SWAP1 SSTORE JUMP JUMPDEST PUSH1 0x0 DUP2 JUMP JUMPDEST PUSH1 0x2 SLOAD PUSH20 0xFFFFFFFFFFFFFFFFFFFFFFFFFFFFFFFFFFFFFFFF AND DUP2 JUMP JUMPDEST PUSH1 0x0 PUSH2 0x6CE PUSH2 0xE77 PUSH2 0x140F JUMP JUMPDEST DUP5 PUSH2 0x7FC DUP6 PUSH1 0x40 MLOAD DUP1 PUSH1 0x60 ADD PUSH1 0x40 MSTORE DUP1 PUSH1 0x25 DUP2 MSTORE PUSH1 0x20 ADD PUSH2 0x2F6F PUSH1 0x25 SWAP2 CODECOPY PUSH1 0x5 PUSH1 0x0 PUSH2 0xEA1 PUSH2 0x140F JUMP JUMPDEST PUSH20 0xFFFFFFFFFFFFFFFFFFFFFFFFFFFFFFFFFFFFFFFF SWAP1 DUP2 AND DUP3 MSTORE PUSH1 0x20 DUP1 DUP4 ADD SWAP4 SWAP1 SWAP4 MSTORE PUSH1 0x40 SWAP2 DUP3 ADD PUSH1 0x0 SWAP1 DUP2 KECCAK256 SWAP2 DUP14 AND DUP2 MSTORE SWAP3 MSTORE SWAP1 KECCAK256 SLOAD SWAP2 SWAP1 PUSH2 0x16AC JUMP JUMPDEST PUSH1 0x0 PUSH2 0x6CE PUSH2 0xEEC PUSH2 0x140F JUMP JUMPDEST DUP5 DUP5 PUSH2 0x1522 JUMP JUMPDEST PUSH8 0xDE0B6B3A7640000 DUP2 JUMP JUMPDEST PUSH32 0x94201143CC0A32610F14F8F185EBB23E4CA60F1758E49668647D0879B1E81F0B DUP2 JUMP JUMPDEST PUSH1 0x1 DUP1 PUSH2 0xF2E PUSH2 0x59B JUMP JUMPDEST PUSH1 0x8 DUP2 GT ISZERO PUSH2 0xF39 JUMPI INVALID JUMPDEST EQ PUSH2 0xF70 JUMPI PUSH1 0x40 MLOAD PUSH32 0x8C379A000000000000000000000000000000000000000000000000000000000 DUP2 MSTORE PUSH1 0x4 ADD PUSH2 0x875 SWAP1 PUSH2 0x28EB JUMP JUMPDEST PUSH1 0x2 PUSH1 0xA SLOAD EQ ISZERO PUSH2 0xFAD JUMPI PUSH1 0x40 MLOAD PUSH32 0x8C379A000000000000000000000000000000000000000000000000000000000 DUP2 MSTORE PUSH1 0x4 ADD PUSH2 0x875 SWAP1 PUSH2 0x2CF7 JUMP JUMPDEST PUSH1 0x2 PUSH1 0xA SSTORE PUSH1 0x0 PUSH2 0xFBC PUSH2 0x6DE JUMP JUMPDEST SWAP1 POP PUSH2 0xFC8 CALLER DUP5 PUSH2 0x17F8 JUMP JUMPDEST PUSH1 0x0 JUMPDEST DUP5 MLOAD DUP2 LT ISZERO PUSH2 0x1131 JUMPI PUSH1 0x0 DUP6 DUP3 DUP2 MLOAD DUP2 LT PUSH2 0xFE2 JUMPI INVALID JUMPDEST PUSH1 0x20 MUL PUSH1 0x20 ADD ADD MLOAD SWAP1 POP PUSH1 0x0 PUSH2 0x108B DUP5 PUSH2 0x1085 DUP9 DUP6 PUSH20 0xFFFFFFFFFFFFFFFFFFFFFFFFFFFFFFFFFFFFFFFF AND PUSH4 0x70A08231 ADDRESS PUSH1 0x40 MLOAD DUP3 PUSH4 0xFFFFFFFF AND PUSH1 0xE0 SHL DUP2 MSTORE PUSH1 0x4 ADD PUSH2 0x102F SWAP2 SWAP1 PUSH2 0x256C JUMP JUMPDEST PUSH1 0x20 PUSH1 0x40 MLOAD DUP1 DUP4 SUB DUP2 DUP7 DUP1 EXTCODESIZE ISZERO DUP1 ISZERO PUSH2 0x1047 JUMPI PUSH1 0x0 DUP1 REVERT JUMPDEST POP GAS STATICCALL ISZERO DUP1 ISZERO PUSH2 0x105B JUMPI RETURNDATASIZE PUSH1 0x0 DUP1 RETURNDATACOPY RETURNDATASIZE PUSH1 0x0 REVERT JUMPDEST POP POP POP POP PUSH1 0x40 MLOAD RETURNDATASIZE PUSH1 0x1F NOT PUSH1 0x1F DUP3 ADD AND DUP3 ADD DUP1 PUSH1 0x40 MSTORE POP DUP2 ADD SWAP1 PUSH2 0x107F SWAP2 SWAP1 PUSH2 0x251C JUMP JUMPDEST SWAP1 PUSH2 0x1934 JUMP JUMPDEST SWAP1 PUSH2 0x1988 JUMP JUMPDEST SWAP1 POP DUP2 PUSH20 0xFFFFFFFFFFFFFFFFFFFFFFFFFFFFFFFFFFFFFFFF AND CALLER PUSH20 0xFFFFFFFFFFFFFFFFFFFFFFFFFFFFFFFFFFFFFFFF AND PUSH32 0xF8EB02C03B445447861A4FDA33B7470ADF3B693B314B35A1EFB8203EDC28D656 PUSH1 0x40 MLOAD DUP1 PUSH1 0x40 ADD PUSH1 0x40 MSTORE DUP1 DUP11 DUP2 MSTORE PUSH1 0x20 ADD DUP6 DUP2 MSTORE POP PUSH1 0x40 MLOAD PUSH2 0x10FE SWAP2 SWAP1 PUSH2 0x25FB JUMP JUMPDEST PUSH1 0x40 MLOAD DUP1 SWAP2 SUB SWAP1 LOG3 PUSH2 0x1127 PUSH20 0xFFFFFFFFFFFFFFFFFFFFFFFFFFFFFFFFFFFFFFFF DUP4 AND CALLER DUP4 PUSH2 0x19CA JUMP JUMPDEST POP POP PUSH1 0x1 ADD PUSH2 0xFCB JUMP JUMPDEST POP POP PUSH1 0x1 PUSH1 0xA SSTORE POP POP POP JUMP JUMPDEST PUSH1 0x0 DUP2 DUP2 MSTORE PUSH1 0x20 DUP2 SWAP1 MSTORE PUSH1 0x40 DUP2 KECCAK256 PUSH2 0x6D2 SWAP1 PUSH2 0x1A6B JUMP JUMPDEST PUSH1 0x0 DUP3 DUP2 MSTORE PUSH1 0x20 DUP2 SWAP1 MSTORE PUSH1 0x40 SWAP1 KECCAK256 PUSH1 0x2 ADD SLOAD PUSH2 0x1172 SWAP1 PUSH2 0x498 PUSH2 0x140F JUMP JUMPDEST PUSH2 0x958 JUMPI PUSH1 0x40 MLOAD PUSH32 0x8C379A000000000000000000000000000000000000000000000000000000000 DUP2 MSTORE PUSH1 0x4 ADD PUSH2 0x875 SWAP1 PUSH2 0x29B6 JUMP JUMPDEST PUSH2 0x9CE PUSH1 0xB DUP1 SLOAD DUP1 PUSH1 0x20 MUL PUSH1 0x20 ADD PUSH1 0x40 MLOAD SWAP1 DUP2 ADD PUSH1 0x40 MSTORE DUP1 SWAP3 SWAP2 SWAP1 DUP2 DUP2 MSTORE PUSH1 0x20 ADD DUP3 DUP1 SLOAD DUP1 ISZERO PUSH2 0x120E JUMPI PUSH1 0x20 MUL DUP3 ADD SWAP2 SWAP1 PUSH1 0x0 MSTORE PUSH1 0x20 PUSH1 0x0 KECCAK256 SWAP1 JUMPDEST DUP2 SLOAD PUSH20 0xFFFFFFFFFFFFFFFFFFFFFFFFFFFFFFFFFFFFFFFF AND DUP2 MSTORE PUSH1 0x1 SWAP1 SWAP2 ADD SWAP1 PUSH1 0x20 ADD DUP1 DUP4 GT PUSH2 0x11E3 JUMPI JUMPDEST POP POP POP POP POP DUP3 PUSH2 0xF23 JUMP JUMPDEST PUSH20 0xFFFFFFFFFFFFFFFFFFFFFFFFFFFFFFFFFFFFFFFF SWAP2 DUP3 AND PUSH1 0x0 SWAP1 DUP2 MSTORE PUSH1 0x5 PUSH1 0x20 SWAP1 DUP2 MSTORE PUSH1 0x40 DUP1 DUP4 KECCAK256 SWAP4 SWAP1 SWAP5 AND DUP3 MSTORE SWAP2 SWAP1 SWAP2 MSTORE KECCAK256 SLOAD SWAP1 JUMP JUMPDEST PUSH1 0x0 DUP1 PUSH2 0x125C PUSH2 0x59B JUMP JUMPDEST PUSH1 0x8 DUP2 GT ISZERO PUSH2 0x1267 JUMPI INVALID JUMPDEST EQ PUSH2 0x129E JUMPI PUSH1 0x40 MLOAD PUSH32 0x8C379A000000000000000000000000000000000000000000000000000000000 DUP2 MSTORE PUSH1 0x4 ADD PUSH2 0x875 SWAP1 PUSH2 0x28EB JUMP JUMPDEST PUSH2 0x12C8 PUSH32 0xA67CE9B482CD7C7B30F4CEA2F7E71ABE8F7040CC572C570552199C488F160AD1 CALLER PUSH2 0xBBA JUMP JUMPDEST PUSH2 0x12FE JUMPI PUSH1 0x40 MLOAD PUSH32 0x8C379A000000000000000000000000000000000000000000000000000000000 DUP2 MSTORE PUSH1 0x4 ADD PUSH2 0x875 SWAP1 PUSH2 0x2CC0 JUMP JUMPDEST PUSH2 0x1307 NUMBER PUSH2 0x1A76 JUMP JUMPDEST PUSH2 0x888 DUP3 PUSH2 0x1314 DUP5 PUSH2 0xA42 JUMP JUMPDEST PUSH2 0x17F8 JUMP JUMPDEST PUSH1 0xC SLOAD PUSH1 0xFF AND DUP2 JUMP JUMPDEST PUSH32 0xA638E6D52802F3AB217DE611C9B2D0023A709998A8CE9B01094EC3FDB3DED4E2 DUP2 JUMP JUMPDEST PUSH1 0x0 DUP3 DUP3 ADD DUP4 DUP2 LT ISZERO PUSH2 0x805 JUMPI PUSH1 0x40 MLOAD PUSH32 0x8C379A000000000000000000000000000000000000000000000000000000000 DUP2 MSTORE PUSH1 0x4 ADD PUSH2 0x875 SWAP1 PUSH2 0x287D JUMP JUMPDEST PUSH1 0x0 PUSH2 0x805 DUP4 PUSH20 0xFFFFFFFFFFFFFFFFFFFFFFFFFFFFFFFFFFFFFFFF DUP5 AND PUSH2 0x1BEC JUMP JUMPDEST PUSH1 0x0 PUSH2 0x805 DUP4 PUSH20 0xFFFFFFFFFFFFFFFFFFFFFFFFFFFFFFFFFFFFFFFF DUP5 AND PUSH2 0x1C36 JUMP JUMPDEST PUSH1 0x0 DUP1 DUP3 PUSH1 0x8 DUP2 GT ISZERO PUSH2 0x13D8 JUMPI INVALID JUMPDEST EQ ISZERO PUSH2 0x13E6 JUMPI POP PUSH1 0x0 PUSH2 0x6D2 JUMP JUMPDEST PUSH1 0x0 PUSH1 0x1 DUP4 PUSH1 0x8 DUP2 GT ISZERO PUSH2 0x13F6 JUMPI INVALID JUMPDEST SUB PUSH1 0x20 MUL SWAP1 POP DUP1 DUP5 SWAP1 SHR PUSH4 0xFFFFFFFF AND SWAP2 POP POP SWAP3 SWAP2 POP POP JUMP JUMPDEST CALLER SWAP1 JUMP JUMPDEST PUSH20 0xFFFFFFFFFFFFFFFFFFFFFFFFFFFFFFFFFFFFFFFF DUP4 AND PUSH2 0x1460 JUMPI PUSH1 0x40 MLOAD PUSH32 0x8C379A000000000000000000000000000000000000000000000000000000000 DUP2 MSTORE PUSH1 0x4 ADD PUSH2 0x875 SWAP1 PUSH2 0x2BCF JUMP JUMPDEST PUSH20 0xFFFFFFFFFFFFFFFFFFFFFFFFFFFFFFFFFFFFFFFF DUP3 AND PUSH2 0x14AD JUMPI PUSH1 0x40 MLOAD PUSH32 0x8C379A000000000000000000000000000000000000000000000000000000000 DUP2 MSTORE PUSH1 0x4 ADD PUSH2 0x875 SWAP1 PUSH2 0x27E9 JUMP JUMPDEST PUSH20 0xFFFFFFFFFFFFFFFFFFFFFFFFFFFFFFFFFFFFFFFF DUP1 DUP5 AND PUSH1 0x0 DUP2 DUP2 MSTORE PUSH1 0x5 PUSH1 0x20 SWAP1 DUP2 MSTORE PUSH1 0x40 DUP1 DUP4 KECCAK256 SWAP5 DUP8 AND DUP1 DUP5 MSTORE SWAP5 SWAP1 SWAP2 MSTORE SWAP1 DUP2 SWAP1 KECCAK256 DUP5 SWAP1 SSTORE MLOAD PUSH32 0x8C5BE1E5EBEC7D5BD14F71427D1E84F3DD0314C0F7B2291E5B200AC8C7C3B925 SWAP1 PUSH2 0x1515 SWAP1 DUP6 SWAP1 PUSH2 0x262E JUMP JUMPDEST PUSH1 0x40 MLOAD DUP1 SWAP2 SUB SWAP1 LOG3 POP POP POP JUMP JUMPDEST PUSH20 0xFFFFFFFFFFFFFFFFFFFFFFFFFFFFFFFFFFFFFFFF DUP4 AND PUSH2 0x156F JUMPI PUSH1 0x40 MLOAD PUSH32 0x8C379A000000000000000000000000000000000000000000000000000000000 DUP2 MSTORE PUSH1 0x4 ADD PUSH2 0x875 SWAP1 PUSH2 0x2B3B JUMP JUMPDEST PUSH20 0xFFFFFFFFFFFFFFFFFFFFFFFFFFFFFFFFFFFFFFFF DUP3 AND PUSH2 0x15BC JUMPI PUSH1 0x40 MLOAD PUSH32 0x8C379A000000000000000000000000000000000000000000000000000000000 DUP2 MSTORE PUSH1 0x4 ADD PUSH2 0x875 SWAP1 PUSH2 0x26F8 JUMP JUMPDEST PUSH2 0x15C7 DUP4 DUP4 DUP4 PUSH2 0x1C4E JUMP JUMPDEST PUSH2 0x1611 DUP2 PUSH1 0x40 MLOAD DUP1 PUSH1 0x60 ADD PUSH1 0x40 MSTORE DUP1 PUSH1 0x26 DUP2 MSTORE PUSH1 0x20 ADD PUSH2 0x2EFD PUSH1 0x26 SWAP2 CODECOPY PUSH20 0xFFFFFFFFFFFFFFFFFFFFFFFFFFFFFFFFFFFFFFFF DUP7 AND PUSH1 0x0 SWAP1 DUP2 MSTORE PUSH1 0x4 PUSH1 0x20 MSTORE PUSH1 0x40 SWAP1 KECCAK256 SLOAD SWAP2 SWAP1 PUSH2 0x16AC JUMP JUMPDEST PUSH20 0xFFFFFFFFFFFFFFFFFFFFFFFFFFFFFFFFFFFFFFFF DUP1 DUP6 AND PUSH1 0x0 SWAP1 DUP2 MSTORE PUSH1 0x4 PUSH1 0x20 MSTORE PUSH1 0x40 DUP1 DUP3 KECCAK256 SWAP4 SWAP1 SWAP4 SSTORE SWAP1 DUP5 AND DUP2 MSTORE KECCAK256 SLOAD PUSH2 0x164D SWAP1 DUP3 PUSH2 0x1346 JUMP JUMPDEST PUSH20 0xFFFFFFFFFFFFFFFFFFFFFFFFFFFFFFFFFFFFFFFF DUP1 DUP5 AND PUSH1 0x0 DUP2 DUP2 MSTORE PUSH1 0x4 PUSH1 0x20 MSTORE PUSH1 0x40 SWAP1 DUP2 SWAP1 KECCAK256 SWAP4 SWAP1 SWAP4 SSTORE SWAP2 MLOAD SWAP1 DUP6 AND SWAP1 PUSH32 0xDDF252AD1BE2C89B69C2B068FC378DAA952BA7F163C4A11628F55A4DF523B3EF SWAP1 PUSH2 0x1515 SWAP1 DUP6 SWAP1 PUSH2 0x262E JUMP JUMPDEST PUSH1 0x0 DUP2 DUP5 DUP5 GT ISZERO PUSH2 0x16EA JUMPI PUSH1 0x40 MLOAD PUSH32 0x8C379A000000000000000000000000000000000000000000000000000000000 DUP2 MSTORE PUSH1 0x4 ADD PUSH2 0x875 SWAP2 SWAP1 PUSH2 0x264A JUMP JUMPDEST POP POP POP SWAP1 SUB SWAP1 JUMP JUMPDEST PUSH1 0x0 DUP3 DUP2 MSTORE PUSH1 0x20 DUP2 SWAP1 MSTORE PUSH1 0x40 SWAP1 KECCAK256 PUSH2 0x170A SWAP1 DUP3 PUSH2 0x1385 JUMP JUMPDEST ISZERO PUSH2 0x888 JUMPI PUSH2 0x1717 PUSH2 0x140F JUMP JUMPDEST PUSH20 0xFFFFFFFFFFFFFFFFFFFFFFFFFFFFFFFFFFFFFFFF AND DUP2 PUSH20 0xFFFFFFFFFFFFFFFFFFFFFFFFFFFFFFFFFFFFFFFF AND DUP4 PUSH32 0x2F8788117E7EFF1D82E926EC794901D17C78024A50270940304540A733656F0D PUSH1 0x40 MLOAD PUSH1 0x40 MLOAD DUP1 SWAP2 SUB SWAP1 LOG4 POP POP JUMP JUMPDEST PUSH1 0x0 DUP3 DUP2 MSTORE PUSH1 0x20 DUP2 SWAP1 MSTORE PUSH1 0x40 SWAP1 KECCAK256 PUSH2 0x178D SWAP1 DUP3 PUSH2 0x1DE7 JUMP JUMPDEST ISZERO PUSH2 0x888 JUMPI PUSH2 0x179A PUSH2 0x140F JUMP JUMPDEST PUSH20 0xFFFFFFFFFFFFFFFFFFFFFFFFFFFFFFFFFFFFFFFF AND DUP2 PUSH20 0xFFFFFFFFFFFFFFFFFFFFFFFFFFFFFFFFFFFFFFFF AND DUP4 PUSH32 0xF6391F5C32D9C69D2A47EA670B442974B53935D1EDC7FD64EB21E047A839171B PUSH1 0x40 MLOAD PUSH1 0x40 MLOAD DUP1 SWAP2 SUB SWAP1 LOG4 POP POP JUMP JUMPDEST PUSH20 0xFFFFFFFFFFFFFFFFFFFFFFFFFFFFFFFFFFFFFFFF DUP3 AND PUSH2 0x1845 JUMPI PUSH1 0x40 MLOAD PUSH32 0x8C379A000000000000000000000000000000000000000000000000000000000 DUP2 MSTORE PUSH1 0x4 ADD PUSH2 0x875 SWAP1 PUSH2 0x2ADE JUMP JUMPDEST PUSH2 0x1851 DUP3 PUSH1 0x0 DUP4 PUSH2 0x1C4E JUMP JUMPDEST PUSH2 0x189B DUP2 PUSH1 0x40 MLOAD DUP1 PUSH1 0x60 ADD PUSH1 0x40 MSTORE DUP1 PUSH1 0x22 DUP2 MSTORE PUSH1 0x20 ADD PUSH2 0x2EDB PUSH1 0x22 SWAP2 CODECOPY PUSH20 0xFFFFFFFFFFFFFFFFFFFFFFFFFFFFFFFFFFFFFFFF DUP6 AND PUSH1 0x0 SWAP1 DUP2 MSTORE PUSH1 0x4 PUSH1 0x20 MSTORE PUSH1 0x40 SWAP1 KECCAK256 SLOAD SWAP2 SWAP1 PUSH2 0x16AC JUMP JUMPDEST PUSH20 0xFFFFFFFFFFFFFFFFFFFFFFFFFFFFFFFFFFFFFFFF DUP4 AND PUSH1 0x0 SWAP1 DUP2 MSTORE PUSH1 0x4 PUSH1 0x20 MSTORE PUSH1 0x40 SWAP1 KECCAK256 SSTORE PUSH1 0x6 SLOAD PUSH2 0x18CE SWAP1 DUP3 PUSH2 0x1E09 JUMP JUMPDEST PUSH1 0x6 SSTORE PUSH1 0x40 MLOAD PUSH1 0x0 SWAP1 PUSH20 0xFFFFFFFFFFFFFFFFFFFFFFFFFFFFFFFFFFFFFFFF DUP5 AND SWAP1 PUSH32 0xDDF252AD1BE2C89B69C2B068FC378DAA952BA7F163C4A11628F55A4DF523B3EF SWAP1 PUSH2 0x191C SWAP1 DUP6 SWAP1 PUSH2 0x262E JUMP JUMPDEST PUSH1 0x40 MLOAD DUP1 SWAP2 SUB SWAP1 LOG3 POP POP JUMP JUMPDEST PUSH1 0x0 PUSH2 0x805 DUP4 DUP4 PUSH2 0x1E4B JUMP JUMPDEST PUSH1 0x0 DUP3 PUSH2 0x1943 JUMPI POP PUSH1 0x0 PUSH2 0x6D2 JUMP JUMPDEST DUP3 DUP3 MUL DUP3 DUP5 DUP3 DUP2 PUSH2 0x1950 JUMPI INVALID JUMPDEST DIV EQ PUSH2 0x805 JUMPI PUSH1 0x40 MLOAD PUSH32 0x8C379A000000000000000000000000000000000000000000000000000000000 DUP2 MSTORE PUSH1 0x4 ADD PUSH2 0x875 SWAP1 PUSH2 0x2A81 JUMP JUMPDEST PUSH1 0x0 PUSH2 0x805 DUP4 DUP4 PUSH1 0x40 MLOAD DUP1 PUSH1 0x40 ADD PUSH1 0x40 MSTORE DUP1 PUSH1 0x1A DUP2 MSTORE PUSH1 0x20 ADD PUSH32 0x536166654D6174683A206469766973696F6E206279207A65726F000000000000 DUP2 MSTORE POP PUSH2 0x1EAA JUMP JUMPDEST PUSH2 0xB79 DUP4 PUSH4 0xA9059CBB PUSH1 0xE0 SHL DUP5 DUP5 PUSH1 0x40 MLOAD PUSH1 0x24 ADD PUSH2 0x19E9 SWAP3 SWAP2 SWAP1 PUSH2 0x258D JUMP JUMPDEST PUSH1 0x40 DUP1 MLOAD PUSH32 0xFFFFFFFFFFFFFFFFFFFFFFFFFFFFFFFFFFFFFFFFFFFFFFFFFFFFFFFFFFFFFFE0 DUP2 DUP5 SUB ADD DUP2 MSTORE SWAP2 SWAP1 MSTORE PUSH1 0x20 DUP2 ADD DUP1 MLOAD PUSH28 0xFFFFFFFFFFFFFFFFFFFFFFFFFFFFFFFFFFFFFFFFFFFFFFFFFFFFFFFF AND PUSH32 0xFFFFFFFF00000000000000000000000000000000000000000000000000000000 SWAP1 SWAP4 AND SWAP3 SWAP1 SWAP3 OR SWAP1 SWAP2 MSTORE PUSH2 0x1EFB JUMP JUMPDEST PUSH1 0x0 PUSH2 0x6D2 DUP3 PUSH2 0x1FB1 JUMP JUMPDEST DUP1 PUSH4 0xFFFFFFFF AND NUMBER PUSH4 0xFFFFFFFF AND GT ISZERO PUSH2 0x1ABC JUMPI PUSH1 0x40 MLOAD PUSH32 0x8C379A000000000000000000000000000000000000000000000000000000000 DUP2 MSTORE PUSH1 0x4 ADD PUSH2 0x875 SWAP1 PUSH2 0x27B2 JUMP JUMPDEST PUSH4 0xFFFFFFFF DUP2 DUP2 AND LT PUSH2 0x1AFB JUMPI PUSH1 0x40 MLOAD PUSH32 0x8C379A000000000000000000000000000000000000000000000000000000000 DUP2 MSTORE PUSH1 0x4 ADD PUSH2 0x875 SWAP1 PUSH2 0x28B4 JUMP JUMPDEST PUSH1 0x0 PUSH2 0x1B05 PUSH2 0x59B JUMP JUMPDEST PUSH1 0x8 DUP2 GT ISZERO PUSH2 0x1B10 JUMPI INVALID JUMPDEST SWAP1 POP PUSH1 0x1 DUP2 PUSH1 0x8 DUP2 LT PUSH2 0x1B1F JUMPI INVALID JUMPDEST PUSH1 0x8 DUP2 DIV SWAP2 SWAP1 SWAP2 ADD SLOAD PUSH1 0x7 SWAP1 SWAP2 AND PUSH1 0x4 MUL PUSH2 0x100 EXP SWAP1 DIV PUSH4 0xFFFFFFFF SWAP1 DUP2 AND EQ PUSH2 0x1B75 JUMPI PUSH1 0x40 MLOAD PUSH32 0x8C379A000000000000000000000000000000000000000000000000000000000 DUP2 MSTORE PUSH1 0x4 ADD PUSH2 0x875 SWAP1 PUSH2 0x2B98 JUMP JUMPDEST PUSH2 0x1B7E DUP3 PUSH2 0x1FB5 JUMP JUMPDEST DUP2 PUSH1 0x1 DUP3 PUSH1 0x8 DUP2 LT PUSH2 0x1B8C JUMPI INVALID JUMPDEST PUSH1 0x8 SWAP2 DUP3 DUP3 DIV ADD SWAP2 SWAP1 MOD PUSH1 0x4 MUL PUSH2 0x100 EXP DUP2 SLOAD DUP2 PUSH4 0xFFFFFFFF MUL NOT AND SWAP1 DUP4 PUSH4 0xFFFFFFFF AND MUL OR SWAP1 SSTORE POP DUP2 PUSH4 0xFFFFFFFF AND PUSH32 0x260AAC5B840EDC27B89FDF50E91311A413363A400959466E1049E6D071B8CEE2 PUSH1 0x40 MLOAD PUSH1 0x40 MLOAD DUP1 SWAP2 SUB SWAP1 LOG2 POP POP JUMP JUMPDEST PUSH1 0x0 PUSH2 0x1BF8 DUP4 DUP4 PUSH2 0x1C36 JUMP JUMPDEST PUSH2 0x1C2E JUMPI POP DUP2 SLOAD PUSH1 0x1 DUP2 DUP2 ADD DUP5 SSTORE PUSH1 0x0 DUP5 DUP2 MSTORE PUSH1 0x20 DUP1 DUP3 KECCAK256 SWAP1 SWAP4 ADD DUP5 SWAP1 SSTORE DUP5 SLOAD DUP5 DUP3 MSTORE DUP3 DUP7 ADD SWAP1 SWAP4 MSTORE PUSH1 0x40 SWAP1 KECCAK256 SWAP2 SWAP1 SWAP2 SSTORE PUSH2 0x6D2 JUMP JUMPDEST POP PUSH1 0x0 PUSH2 0x6D2 JUMP JUMPDEST PUSH1 0x0 SWAP1 DUP2 MSTORE PUSH1 0x1 SWAP2 SWAP1 SWAP2 ADD PUSH1 0x20 MSTORE PUSH1 0x40 SWAP1 KECCAK256 SLOAD ISZERO ISZERO SWAP1 JUMP JUMPDEST PUSH2 0x1C59 DUP4 DUP4 DUP4 PUSH2 0xB79 JUMP JUMPDEST PUSH20 0xFFFFFFFFFFFFFFFFFFFFFFFFFFFFFFFFFFFFFFFF DUP3 AND ADDRESS EQ ISZERO PUSH2 0x1CA9 JUMPI PUSH1 0x40 MLOAD PUSH32 0x8C379A000000000000000000000000000000000000000000000000000000000 DUP2 MSTORE PUSH1 0x4 ADD PUSH2 0x875 SWAP1 PUSH2 0x2A4A JUMP JUMPDEST PUSH1 0x0 DUP2 GT DUP1 ISZERO PUSH2 0x1D10 JUMPI POP PUSH2 0x1CDE PUSH32 0xCF2B1209506B76F140FB1BC5FE66D6E42627C4B9703A951D65552F50F14C9EE7 DUP5 PUSH2 0xBBA JUMP JUMPDEST DUP1 PUSH2 0x1D0E JUMPI POP PUSH2 0x1D0E PUSH32 0x94201143CC0A32610F14F8F185EBB23E4CA60F1758E49668647D0879B1E81F0B DUP4 PUSH2 0xBBA JUMP JUMPDEST ISZERO JUMPDEST ISZERO PUSH2 0xB79 JUMPI PUSH1 0x0 PUSH2 0x1D1F PUSH2 0x59B JUMP JUMPDEST PUSH1 0x8 DUP2 GT ISZERO PUSH2 0x1D2A JUMPI INVALID JUMPDEST EQ ISZERO PUSH2 0x1D7C JUMPI PUSH1 0xC SLOAD PUSH2 0x1D41 SWAP1 DUP4 SWAP1 PUSH1 0xFF AND PUSH2 0xA6A JUMP JUMPDEST PUSH2 0x1D77 JUMPI PUSH1 0x40 MLOAD PUSH32 0x8C379A000000000000000000000000000000000000000000000000000000000 DUP2 MSTORE PUSH1 0x4 ADD PUSH2 0x875 SWAP1 PUSH2 0x2846 JUMP JUMPDEST PUSH2 0xB79 JUMP JUMPDEST PUSH1 0x1 PUSH2 0x1D86 PUSH2 0x59B JUMP JUMPDEST PUSH1 0x8 DUP2 GT ISZERO PUSH2 0x1D91 JUMPI INVALID JUMPDEST EQ ISZERO PUSH2 0x1DE5 JUMPI PUSH20 0xFFFFFFFFFFFFFFFFFFFFFFFFFFFFFFFFFFFFFFFF DUP3 AND ISZERO PUSH2 0x1D77 JUMPI PUSH1 0x40 MLOAD PUSH32 0x8C379A000000000000000000000000000000000000000000000000000000000 DUP2 MSTORE PUSH1 0x4 ADD PUSH2 0x875 SWAP1 PUSH2 0x2A13 JUMP JUMPDEST INVALID JUMPDEST PUSH1 0x0 PUSH2 0x805 DUP4 PUSH20 0xFFFFFFFFFFFFFFFFFFFFFFFFFFFFFFFFFFFFFFFF DUP5 AND PUSH2 0x1FDA JUMP JUMPDEST PUSH1 0x0 PUSH2 0x805 DUP4 DUP4 PUSH1 0x40 MLOAD DUP1 PUSH1 0x40 ADD PUSH1 0x40 MSTORE DUP1 PUSH1 0x1E DUP2 MSTORE PUSH1 0x20 ADD PUSH32 0x536166654D6174683A207375627472616374696F6E206F766572666C6F770000 DUP2 MSTORE POP PUSH2 0x16AC JUMP JUMPDEST DUP2 SLOAD PUSH1 0x0 SWAP1 DUP3 LT PUSH2 0x1E88 JUMPI PUSH1 0x40 MLOAD PUSH32 0x8C379A000000000000000000000000000000000000000000000000000000000 DUP2 MSTORE PUSH1 0x4 ADD PUSH2 0x875 SWAP1 PUSH2 0x269B JUMP JUMPDEST DUP3 PUSH1 0x0 ADD DUP3 DUP2 SLOAD DUP2 LT PUSH2 0x1E97 JUMPI INVALID JUMPDEST SWAP1 PUSH1 0x0 MSTORE PUSH1 0x20 PUSH1 0x0 KECCAK256 ADD SLOAD SWAP1 POP SWAP3 SWAP2 POP POP JUMP JUMPDEST PUSH1 0x0 DUP2 DUP4 PUSH2 0x1EE5 JUMPI PUSH1 0x40 MLOAD PUSH32 0x8C379A000000000000000000000000000000000000000000000000000000000 DUP2 MSTORE PUSH1 0x4 ADD PUSH2 0x875 SWAP2 SWAP1 PUSH2 0x264A JUMP JUMPDEST POP PUSH1 0x0 DUP4 DUP6 DUP2 PUSH2 0x1EF1 JUMPI INVALID JUMPDEST DIV SWAP6 SWAP5 POP POP POP POP POP JUMP JUMPDEST PUSH1 0x60 PUSH2 0x1F5D DUP3 PUSH1 0x40 MLOAD DUP1 PUSH1 0x40 ADD PUSH1 0x40 MSTORE DUP1 PUSH1 0x20 DUP2 MSTORE PUSH1 0x20 ADD PUSH32 0x5361666545524332303A206C6F772D6C6576656C2063616C6C206661696C6564 DUP2 MSTORE POP DUP6 PUSH20 0xFFFFFFFFFFFFFFFFFFFFFFFFFFFFFFFFFFFFFFFF AND PUSH2 0x20BE SWAP1 SWAP3 SWAP2 SWAP1 PUSH4 0xFFFFFFFF AND JUMP JUMPDEST DUP1 MLOAD SWAP1 SWAP2 POP ISZERO PUSH2 0xB79 JUMPI DUP1 DUP1 PUSH1 0x20 ADD SWAP1 MLOAD DUP2 ADD SWAP1 PUSH2 0x1F7B SWAP2 SWAP1 PUSH2 0x249F JUMP JUMPDEST PUSH2 0xB79 JUMPI PUSH1 0x40 MLOAD PUSH32 0x8C379A000000000000000000000000000000000000000000000000000000000 DUP2 MSTORE PUSH1 0x4 ADD PUSH2 0x875 SWAP1 PUSH2 0x2C63 JUMP JUMPDEST SLOAD SWAP1 JUMP JUMPDEST PUSH2 0x1FBE DUP2 PUSH2 0x9CE JUMP JUMPDEST PUSH1 0x2 PUSH2 0x1FC8 PUSH2 0x59B JUMP JUMPDEST PUSH1 0x8 DUP2 GT ISZERO PUSH2 0x1FD3 JUMPI INVALID JUMPDEST LT PUSH2 0x9CE JUMPI INVALID JUMPDEST PUSH1 0x0 DUP2 DUP2 MSTORE PUSH1 0x1 DUP4 ADD PUSH1 0x20 MSTORE PUSH1 0x40 DUP2 KECCAK256 SLOAD DUP1 ISZERO PUSH2 0x20B4 JUMPI DUP4 SLOAD PUSH32 0xFFFFFFFFFFFFFFFFFFFFFFFFFFFFFFFFFFFFFFFFFFFFFFFFFFFFFFFFFFFFFFFF DUP1 DUP4 ADD SWAP2 SWAP1 DUP2 ADD SWAP1 PUSH1 0x0 SWAP1 DUP8 SWAP1 DUP4 SWAP1 DUP2 LT PUSH2 0x202B JUMPI INVALID JUMPDEST SWAP1 PUSH1 0x0 MSTORE PUSH1 0x20 PUSH1 0x0 KECCAK256 ADD SLOAD SWAP1 POP DUP1 DUP8 PUSH1 0x0 ADD DUP5 DUP2 SLOAD DUP2 LT PUSH2 0x2048 JUMPI INVALID JUMPDEST PUSH1 0x0 SWAP2 DUP3 MSTORE PUSH1 0x20 DUP1 DUP4 KECCAK256 SWAP1 SWAP2 ADD SWAP3 SWAP1 SWAP3 SSTORE DUP3 DUP2 MSTORE PUSH1 0x1 DUP10 DUP2 ADD SWAP1 SWAP3 MSTORE PUSH1 0x40 SWAP1 KECCAK256 SWAP1 DUP5 ADD SWAP1 SSTORE DUP7 SLOAD DUP8 SWAP1 DUP1 PUSH2 0x2078 JUMPI INVALID JUMPDEST PUSH1 0x1 SWAP1 SUB DUP2 DUP2 SWAP1 PUSH1 0x0 MSTORE PUSH1 0x20 PUSH1 0x0 KECCAK256 ADD PUSH1 0x0 SWAP1 SSTORE SWAP1 SSTORE DUP7 PUSH1 0x1 ADD PUSH1 0x0 DUP8 DUP2 MSTORE PUSH1 0x20 ADD SWAP1 DUP2 MSTORE PUSH1 0x20 ADD PUSH1 0x0 KECCAK256 PUSH1 0x0 SWAP1 SSTORE PUSH1 0x1 SWAP5 POP POP POP POP POP PUSH2 0x6D2 JUMP JUMPDEST PUSH1 0x0 SWAP2 POP POP PUSH2 0x6D2 JUMP JUMPDEST PUSH1 0x60 PUSH2 0x20CD DUP5 DUP5 PUSH1 0x0 DUP6 PUSH2 0x20D5 JUMP JUMPDEST SWAP5 SWAP4 POP POP POP POP JUMP JUMPDEST PUSH1 0x60 DUP3 SELFBALANCE LT ISZERO PUSH2 0x2111 JUMPI PUSH1 0x40 MLOAD PUSH32 0x8C379A000000000000000000000000000000000000000000000000000000000 DUP2 MSTORE PUSH1 0x4 ADD PUSH2 0x875 SWAP1 PUSH2 0x2959 JUMP JUMPDEST PUSH2 0x211A DUP6 PUSH2 0x21D7 JUMP JUMPDEST PUSH2 0x2150 JUMPI PUSH1 0x40 MLOAD PUSH32 0x8C379A000000000000000000000000000000000000000000000000000000000 DUP2 MSTORE PUSH1 0x4 ADD PUSH2 0x875 SWAP1 PUSH2 0x2C2C JUMP JUMPDEST PUSH1 0x0 PUSH1 0x60 DUP7 PUSH20 0xFFFFFFFFFFFFFFFFFFFFFFFFFFFFFFFFFFFFFFFF AND DUP6 DUP8 PUSH1 0x40 MLOAD PUSH2 0x217A SWAP2 SWAP1 PUSH2 0x2550 JUMP JUMPDEST PUSH1 0x0 PUSH1 0x40 MLOAD DUP1 DUP4 SUB DUP2 DUP6 DUP8 GAS CALL SWAP3 POP POP POP RETURNDATASIZE DUP1 PUSH1 0x0 DUP2 EQ PUSH2 0x21B7 JUMPI PUSH1 0x40 MLOAD SWAP2 POP PUSH1 0x1F NOT PUSH1 0x3F RETURNDATASIZE ADD AND DUP3 ADD PUSH1 0x40 MSTORE RETURNDATASIZE DUP3 MSTORE RETURNDATASIZE PUSH1 0x0 PUSH1 0x20 DUP5 ADD RETURNDATACOPY PUSH2 0x21BC JUMP JUMPDEST PUSH1 0x60 SWAP2 POP JUMPDEST POP SWAP2 POP SWAP2 POP PUSH2 0x21CC DUP3 DUP3 DUP7 PUSH2 0x21DD JUMP JUMPDEST SWAP8 SWAP7 POP POP POP POP POP POP POP JUMP JUMPDEST EXTCODESIZE ISZERO ISZERO SWAP1 JUMP JUMPDEST PUSH1 0x60 DUP4 ISZERO PUSH2 0x21EC JUMPI POP DUP2 PUSH2 0x805 JUMP JUMPDEST DUP3 MLOAD ISZERO PUSH2 0x21FC JUMPI DUP3 MLOAD DUP1 DUP5 PUSH1 0x20 ADD REVERT JUMPDEST DUP2 PUSH1 0x40 MLOAD PUSH32 0x8C379A000000000000000000000000000000000000000000000000000000000 DUP2 MSTORE PUSH1 0x4 ADD PUSH2 0x875 SWAP2 SWAP1 PUSH2 0x264A JUMP JUMPDEST PUSH1 0x40 MLOAD DUP1 PUSH2 0x100 ADD PUSH1 0x40 MSTORE DUP1 PUSH1 0x8 SWAP1 PUSH1 0x20 DUP3 MUL DUP1 CALLDATASIZE DUP4 CALLDATACOPY POP SWAP2 SWAP3 SWAP2 POP POP JUMP JUMPDEST DUP1 CALLDATALOAD PUSH2 0x6D2 DUP2 PUSH2 0x2E99 JUMP JUMPDEST PUSH1 0x0 PUSH1 0x20 DUP3 DUP5 SUB SLT ISZERO PUSH2 0x226B JUMPI DUP1 DUP2 REVERT JUMPDEST DUP2 CALLDATALOAD PUSH2 0x805 DUP2 PUSH2 0x2E99 JUMP JUMPDEST PUSH1 0x0 DUP1 PUSH1 0x40 DUP4 DUP6 SUB SLT ISZERO PUSH2 0x2288 JUMPI DUP1 DUP2 REVERT JUMPDEST DUP3 CALLDATALOAD PUSH2 0x2293 DUP2 PUSH2 0x2E99 JUMP JUMPDEST SWAP2 POP PUSH1 0x20 DUP4 ADD CALLDATALOAD PUSH2 0x22A3 DUP2 PUSH2 0x2E99 JUMP JUMPDEST DUP1 SWAP2 POP POP SWAP3 POP SWAP3 SWAP1 POP JUMP JUMPDEST PUSH1 0x0 DUP1 PUSH1 0x0 PUSH1 0x60 DUP5 DUP7 SUB SLT ISZERO PUSH2 0x22C2 JUMPI DUP1 DUP2 REVERT JUMPDEST DUP4 CALLDATALOAD PUSH2 0x22CD DUP2 PUSH2 0x2E99 JUMP JUMPDEST SWAP3 POP PUSH1 0x20 DUP5 ADD CALLDATALOAD PUSH2 0x22DD DUP2 PUSH2 0x2E99 JUMP JUMPDEST SWAP3 SWAP6 SWAP3 SWAP5 POP POP POP PUSH1 0x40 SWAP2 SWAP1 SWAP2 ADD CALLDATALOAD SWAP1 JUMP JUMPDEST PUSH1 0x0 DUP1 PUSH1 0x40 DUP4 DUP6 SUB SLT ISZERO PUSH2 0x2300 JUMPI DUP2 DUP3 REVERT JUMPDEST DUP3 CALLDATALOAD PUSH2 0x230B DUP2 PUSH2 0x2E99 JUMP JUMPDEST SWAP2 POP PUSH1 0x20 DUP4 ADD CALLDATALOAD PUSH2 0x22A3 DUP2 PUSH2 0x2EBB JUMP JUMPDEST PUSH1 0x0 DUP1 PUSH1 0x40 DUP4 DUP6 SUB SLT ISZERO PUSH2 0x232D JUMPI DUP2 DUP3 REVERT JUMPDEST DUP3 CALLDATALOAD PUSH2 0x2338 DUP2 PUSH2 0x2E99 JUMP JUMPDEST SWAP5 PUSH1 0x20 SWAP4 SWAP1 SWAP4 ADD CALLDATALOAD SWAP4 POP POP POP JUMP JUMPDEST PUSH1 0x0 DUP1 PUSH1 0x40 DUP4 DUP6 SUB SLT ISZERO PUSH2 0x2358 JUMPI DUP2 DUP3 REVERT JUMPDEST DUP3 CALLDATALOAD PUSH8 0xFFFFFFFFFFFFFFFF DUP2 GT ISZERO PUSH2 0x236E JUMPI DUP3 DUP4 REVERT JUMPDEST DUP4 ADD PUSH1 0x1F DUP2 ADD DUP6 SGT PUSH2 0x237E JUMPI DUP3 DUP4 REVERT JUMPDEST DUP1 CALLDATALOAD PUSH2 0x2391 PUSH2 0x238C DUP3 PUSH2 0x2E3F JUMP JUMPDEST PUSH2 0x2E18 JUMP JUMPDEST DUP1 DUP3 DUP3 MSTORE PUSH1 0x20 DUP1 DUP4 ADD SWAP3 POP DUP1 DUP6 ADD DUP10 DUP3 DUP4 DUP8 MUL DUP9 ADD ADD GT ISZERO PUSH2 0x23B1 JUMPI DUP8 DUP9 REVERT JUMPDEST DUP8 SWAP6 POP JUMPDEST DUP5 DUP7 LT ISZERO PUSH2 0x23DB JUMPI PUSH2 0x23C7 DUP11 DUP3 PUSH2 0x224F JUMP JUMPDEST DUP5 MSTORE PUSH1 0x1 SWAP6 SWAP1 SWAP6 ADD SWAP5 SWAP3 DUP2 ADD SWAP3 DUP2 ADD PUSH2 0x23B5 JUMP JUMPDEST POP SWAP1 SWAP9 SWAP7 ADD CALLDATALOAD SWAP7 POP POP POP POP POP POP JUMP JUMPDEST PUSH1 0x0 DUP1 PUSH2 0x120 DUP4 DUP6 SUB SLT ISZERO PUSH2 0x23FD JUMPI DUP2 DUP3 REVERT JUMPDEST PUSH2 0x100 DUP4 ADD DUP5 DUP2 GT ISZERO PUSH2 0x240E JUMPI DUP3 DUP4 REVERT JUMPDEST DUP4 SWAP3 POP CALLDATALOAD PUSH2 0x22A3 DUP2 PUSH2 0x2EBB JUMP JUMPDEST PUSH1 0x0 DUP1 PUSH2 0x120 DUP4 DUP6 SUB SLT ISZERO PUSH2 0x242E JUMPI DUP2 DUP3 REVERT JUMPDEST DUP4 PUSH1 0x1F DUP5 ADD SLT PUSH2 0x243C JUMPI DUP2 DUP3 REVERT JUMPDEST PUSH2 0x100 PUSH2 0x2448 DUP2 PUSH2 0x2E18 JUMP JUMPDEST SWAP1 DUP5 ADD SWAP1 DUP1 DUP6 DUP8 DUP5 GT ISZERO PUSH2 0x245A JUMPI DUP6 DUP7 REVERT JUMPDEST DUP6 JUMPDEST PUSH1 0x8 DUP2 LT ISZERO PUSH2 0x248D JUMPI DUP2 CALLDATALOAD PUSH4 0xFFFFFFFF DUP2 AND DUP2 EQ PUSH2 0x2478 JUMPI DUP8 DUP9 REVERT JUMPDEST DUP5 MSTORE PUSH1 0x20 SWAP4 DUP5 ADD SWAP4 SWAP2 SWAP1 SWAP2 ADD SWAP1 PUSH1 0x1 ADD PUSH2 0x245C JUMP JUMPDEST POP SWAP1 SWAP5 POP POP SWAP1 CALLDATALOAD SWAP1 POP PUSH2 0x22A3 DUP2 PUSH2 0x2EC8 JUMP JUMPDEST PUSH1 0x0 PUSH1 0x20 DUP3 DUP5 SUB SLT ISZERO PUSH2 0x24B0 JUMPI DUP1 DUP2 REVERT JUMPDEST DUP2 MLOAD DUP1 ISZERO ISZERO DUP2 EQ PUSH2 0x805 JUMPI DUP2 DUP3 REVERT JUMPDEST PUSH1 0x0 PUSH1 0x20 DUP3 DUP5 SUB SLT ISZERO PUSH2 0x24D0 JUMPI DUP1 DUP2 REVERT JUMPDEST POP CALLDATALOAD SWAP2 SWAP1 POP JUMP JUMPDEST PUSH1 0x0 DUP1 PUSH1 0x40 DUP4 DUP6 SUB SLT ISZERO PUSH2 0x24E9 JUMPI DUP2 DUP3 REVERT JUMPDEST DUP3 CALLDATALOAD SWAP2 POP PUSH1 0x20 DUP4 ADD CALLDATALOAD PUSH2 0x22A3 DUP2 PUSH2 0x2E99 JUMP JUMPDEST PUSH1 0x0 DUP1 PUSH1 0x40 DUP4 DUP6 SUB SLT ISZERO PUSH2 0x250D JUMPI DUP2 DUP3 REVERT JUMPDEST POP POP DUP1 CALLDATALOAD SWAP3 PUSH1 0x20 SWAP1 SWAP2 ADD CALLDATALOAD SWAP2 POP JUMP JUMPDEST PUSH1 0x0 PUSH1 0x20 DUP3 DUP5 SUB SLT ISZERO PUSH2 0x252D JUMPI DUP1 DUP2 REVERT JUMPDEST POP MLOAD SWAP2 SWAP1 POP JUMP JUMPDEST PUSH1 0x0 PUSH1 0x20 DUP3 DUP5 SUB SLT ISZERO PUSH2 0x2545 JUMPI DUP1 DUP2 REVERT JUMPDEST DUP2 CALLDATALOAD PUSH2 0x805 DUP2 PUSH2 0x2EC8 JUMP JUMPDEST PUSH1 0x0 DUP3 MLOAD PUSH2 0x2562 DUP2 DUP5 PUSH1 0x20 DUP8 ADD PUSH2 0x2E5F JUMP JUMPDEST SWAP2 SWAP1 SWAP2 ADD SWAP3 SWAP2 POP POP JUMP JUMPDEST PUSH20 0xFFFFFFFFFFFFFFFFFFFFFFFFFFFFFFFFFFFFFFFF SWAP2 SWAP1 SWAP2 AND DUP2 MSTORE PUSH1 0x20 ADD SWAP1 JUMP JUMPDEST PUSH20 0xFFFFFFFFFFFFFFFFFFFFFFFFFFFFFFFFFFFFFFFF SWAP3 SWAP1 SWAP3 AND DUP3 MSTORE PUSH1 0x20 DUP3 ADD MSTORE PUSH1 0x40 ADD SWAP1 JUMP JUMPDEST PUSH2 0x100 DUP2 ADD DUP2 DUP4 PUSH1 0x0 JUMPDEST PUSH1 0x8 DUP2 LT ISZERO PUSH2 0x25F2 JUMPI DUP2 MLOAD PUSH20 0xFFFFFFFFFFFFFFFFFFFFFFFFFFFFFFFFFFFFFFFF AND DUP4 MSTORE PUSH1 0x20 SWAP3 DUP4 ADD SWAP3 SWAP1 SWAP2 ADD SWAP1 PUSH1 0x1 ADD PUSH2 0x25BD JUMP JUMPDEST POP POP POP SWAP3 SWAP2 POP POP JUMP JUMPDEST PUSH1 0x40 DUP2 ADD DUP2 DUP4 PUSH1 0x0 JUMPDEST PUSH1 0x2 DUP2 LT ISZERO PUSH2 0x25F2 JUMPI DUP2 MLOAD DUP4 MSTORE PUSH1 0x20 SWAP3 DUP4 ADD SWAP3 SWAP1 SWAP2 ADD SWAP1 PUSH1 0x1 ADD PUSH2 0x2604 JUMP JUMPDEST SWAP1 ISZERO ISZERO DUP2 MSTORE PUSH1 0x20 ADD SWAP1 JUMP JUMPDEST SWAP1 DUP2 MSTORE PUSH1 0x20 ADD SWAP1 JUMP JUMPDEST PUSH1 0x20 DUP2 ADD PUSH2 0x2644 DUP4 PUSH2 0x2E8F JUMP JUMPDEST SWAP2 SWAP1 MSTORE SWAP1 JUMP JUMPDEST PUSH1 0x0 PUSH1 0x20 DUP3 MSTORE DUP3 MLOAD DUP1 PUSH1 0x20 DUP5 ADD MSTORE PUSH2 0x2669 DUP2 PUSH1 0x40 DUP6 ADD PUSH1 0x20 DUP8 ADD PUSH2 0x2E5F JUMP JUMPDEST PUSH1 0x1F ADD PUSH32 0xFFFFFFFFFFFFFFFFFFFFFFFFFFFFFFFFFFFFFFFFFFFFFFFFFFFFFFFFFFFFFFE0 AND SWAP2 SWAP1 SWAP2 ADD PUSH1 0x40 ADD SWAP3 SWAP2 POP POP JUMP JUMPDEST PUSH1 0x20 DUP1 DUP3 MSTORE PUSH1 0x22 SWAP1 DUP3 ADD MSTORE PUSH32 0x456E756D657261626C655365743A20696E646578206F7574206F6620626F756E PUSH1 0x40 DUP3 ADD MSTORE PUSH32 0x6473000000000000000000000000000000000000000000000000000000000000 PUSH1 0x60 DUP3 ADD MSTORE PUSH1 0x80 ADD SWAP1 JUMP JUMPDEST PUSH1 0x20 DUP1 DUP3 MSTORE PUSH1 0x23 SWAP1 DUP3 ADD MSTORE PUSH32 0x45524332303A207472616E7366657220746F20746865207A65726F2061646472 PUSH1 0x40 DUP3 ADD MSTORE PUSH32 0x6573730000000000000000000000000000000000000000000000000000000000 PUSH1 0x60 DUP3 ADD MSTORE PUSH1 0x80 ADD SWAP1 JUMP JUMPDEST PUSH1 0x20 DUP1 DUP3 MSTORE PUSH1 0x2F SWAP1 DUP3 ADD MSTORE PUSH32 0x416363657373436F6E74726F6C3A2073656E646572206D75737420626520616E PUSH1 0x40 DUP3 ADD MSTORE PUSH32 0x2061646D696E20746F206772616E740000000000000000000000000000000000 PUSH1 0x60 DUP3 ADD MSTORE PUSH1 0x80 ADD SWAP1 JUMP JUMPDEST PUSH1 0x20 DUP1 DUP3 MSTORE PUSH1 0xF SWAP1 DUP3 ADD MSTORE PUSH32 0x4E4558545F424C4F434B5F504153540000000000000000000000000000000000 PUSH1 0x40 DUP3 ADD MSTORE PUSH1 0x60 ADD SWAP1 JUMP JUMPDEST PUSH1 0x20 DUP1 DUP3 MSTORE PUSH1 0x22 SWAP1 DUP3 ADD MSTORE PUSH32 0x45524332303A20617070726F766520746F20746865207A65726F206164647265 PUSH1 0x40 DUP3 ADD MSTORE PUSH32 0x7373000000000000000000000000000000000000000000000000000000000000 PUSH1 0x60 DUP3 ADD MSTORE PUSH1 0x80 ADD SWAP1 JUMP JUMPDEST PUSH1 0x20 DUP1 DUP3 MSTORE PUSH1 0x8 SWAP1 DUP3 ADD MSTORE PUSH32 0x4D494E5F54494552000000000000000000000000000000000000000000000000 PUSH1 0x40 DUP3 ADD MSTORE PUSH1 0x60 ADD SWAP1 JUMP JUMPDEST PUSH1 0x20 DUP1 DUP3 MSTORE PUSH1 0x1B SWAP1 DUP3 ADD MSTORE PUSH32 0x536166654D6174683A206164646974696F6E206F766572666C6F770000000000 PUSH1 0x40 DUP3 ADD MSTORE PUSH1 0x60 ADD SWAP1 JUMP JUMPDEST PUSH1 0x20 DUP1 DUP3 MSTORE PUSH1 0x18 SWAP1 DUP3 ADD MSTORE PUSH32 0x4E4558545F424C4F434B5F554E494E495449414C495A45440000000000000000 PUSH1 0x40 DUP3 ADD MSTORE PUSH1 0x60 ADD SWAP1 JUMP JUMPDEST PUSH1 0x20 DUP1 DUP3 MSTORE PUSH1 0x9 SWAP1 DUP3 ADD MSTORE PUSH32 0x4241445F50484153450000000000000000000000000000000000000000000000 PUSH1 0x40 DUP3 ADD MSTORE PUSH1 0x60 ADD SWAP1 JUMP JUMPDEST PUSH1 0x20 DUP1 DUP3 MSTORE PUSH1 0x14 SWAP1 DUP3 ADD MSTORE PUSH32 0x4455504C49434154455F52454445454D41424C45000000000000000000000000 PUSH1 0x40 DUP3 ADD MSTORE PUSH1 0x60 ADD SWAP1 JUMP JUMPDEST PUSH1 0x20 DUP1 DUP3 MSTORE PUSH1 0x26 SWAP1 DUP3 ADD MSTORE PUSH32 0x416464726573733A20696E73756666696369656E742062616C616E636520666F PUSH1 0x40 DUP3 ADD MSTORE PUSH32 0x722063616C6C0000000000000000000000000000000000000000000000000000 PUSH1 0x60 DUP3 ADD MSTORE PUSH1 0x80 ADD SWAP1 JUMP JUMPDEST PUSH1 0x20 DUP1 DUP3 MSTORE PUSH1 0x30 SWAP1 DUP3 ADD MSTORE PUSH32 0x416363657373436F6E74726F6C3A2073656E646572206D75737420626520616E PUSH1 0x40 DUP3 ADD MSTORE PUSH32 0x2061646D696E20746F207265766F6B6500000000000000000000000000000000 PUSH1 0x60 DUP3 ADD MSTORE PUSH1 0x80 ADD SWAP1 JUMP JUMPDEST PUSH1 0x20 DUP1 DUP3 MSTORE PUSH1 0x6 SWAP1 DUP3 ADD MSTORE PUSH32 0x46524F5A454E0000000000000000000000000000000000000000000000000000 PUSH1 0x40 DUP3 ADD MSTORE PUSH1 0x60 ADD SWAP1 JUMP JUMPDEST PUSH1 0x20 DUP1 DUP3 MSTORE PUSH1 0xF SWAP1 DUP3 ADD MSTORE PUSH32 0x544F4B454E5F53454E445F53454C460000000000000000000000000000000000 PUSH1 0x40 DUP3 ADD MSTORE PUSH1 0x60 ADD SWAP1 JUMP JUMPDEST PUSH1 0x20 DUP1 DUP3 MSTORE PUSH1 0x21 SWAP1 DUP3 ADD MSTORE PUSH32 0x536166654D6174683A206D756C7469706C69636174696F6E206F766572666C6F PUSH1 0x40 DUP3 ADD MSTORE PUSH32 0x7700000000000000000000000000000000000000000000000000000000000000 PUSH1 0x60 DUP3 ADD MSTORE PUSH1 0x80 ADD SWAP1 JUMP JUMPDEST PUSH1 0x20 DUP1 DUP3 MSTORE PUSH1 0x21 SWAP1 DUP3 ADD MSTORE PUSH32 0x45524332303A206275726E2066726F6D20746865207A65726F20616464726573 PUSH1 0x40 DUP3 ADD MSTORE PUSH32 0x7300000000000000000000000000000000000000000000000000000000000000 PUSH1 0x60 DUP3 ADD MSTORE PUSH1 0x80 ADD SWAP1 JUMP JUMPDEST PUSH1 0x20 DUP1 DUP3 MSTORE PUSH1 0x25 SWAP1 DUP3 ADD MSTORE PUSH32 0x45524332303A207472616E736665722066726F6D20746865207A65726F206164 PUSH1 0x40 DUP3 ADD MSTORE PUSH32 0x6472657373000000000000000000000000000000000000000000000000000000 PUSH1 0x60 DUP3 ADD MSTORE PUSH1 0x80 ADD SWAP1 JUMP JUMPDEST PUSH1 0x20 DUP1 DUP3 MSTORE PUSH1 0xE SWAP1 DUP3 ADD MSTORE PUSH32 0x4E4558545F424C4F434B5F534554000000000000000000000000000000000000 PUSH1 0x40 DUP3 ADD MSTORE PUSH1 0x60 ADD SWAP1 JUMP JUMPDEST PUSH1 0x20 DUP1 DUP3 MSTORE PUSH1 0x24 SWAP1 DUP3 ADD MSTORE PUSH32 0x45524332303A20617070726F76652066726F6D20746865207A65726F20616464 PUSH1 0x40 DUP3 ADD MSTORE PUSH32 0x7265737300000000000000000000000000000000000000000000000000000000 PUSH1 0x60 DUP3 ADD MSTORE PUSH1 0x80 ADD SWAP1 JUMP JUMPDEST PUSH1 0x20 DUP1 DUP3 MSTORE PUSH1 0x1D SWAP1 DUP3 ADD MSTORE PUSH32 0x416464726573733A2063616C6C20746F206E6F6E2D636F6E7472616374000000 PUSH1 0x40 DUP3 ADD MSTORE PUSH1 0x60 ADD SWAP1 JUMP JUMPDEST PUSH1 0x20 DUP1 DUP3 MSTORE PUSH1 0x2A SWAP1 DUP3 ADD MSTORE PUSH32 0x5361666545524332303A204552433230206F7065726174696F6E20646964206E PUSH1 0x40 DUP3 ADD MSTORE PUSH32 0x6F74207375636365656400000000000000000000000000000000000000000000 PUSH1 0x60 DUP3 ADD MSTORE PUSH1 0x80 ADD SWAP1 JUMP JUMPDEST PUSH1 0x20 DUP1 DUP3 MSTORE PUSH1 0x17 SWAP1 DUP3 ADD MSTORE PUSH32 0x4F4E4C595F4449535452494255544F525F4255524E4552000000000000000000 PUSH1 0x40 DUP3 ADD MSTORE PUSH1 0x60 ADD SWAP1 JUMP JUMPDEST PUSH1 0x20 DUP1 DUP3 MSTORE PUSH1 0x1F SWAP1 DUP3 ADD MSTORE PUSH32 0x5265656E7472616E637947756172643A207265656E7472616E742063616C6C00 PUSH1 0x40 DUP3 ADD MSTORE PUSH1 0x60 ADD SWAP1 JUMP JUMPDEST PUSH1 0x20 DUP1 DUP3 MSTORE PUSH1 0xF SWAP1 DUP3 ADD MSTORE PUSH32 0x4D41585F52454445454D41424C45530000000000000000000000000000000000 PUSH1 0x40 DUP3 ADD MSTORE PUSH1 0x60 ADD SWAP1 JUMP JUMPDEST PUSH1 0x20 DUP1 DUP3 MSTORE PUSH1 0x15 SWAP1 DUP3 ADD MSTORE PUSH32 0x4F4E4C595F52454445454D41424C455F41444445520000000000000000000000 PUSH1 0x40 DUP3 ADD MSTORE PUSH1 0x60 ADD SWAP1 JUMP JUMPDEST PUSH1 0x20 DUP1 DUP3 MSTORE PUSH1 0x2F SWAP1 DUP3 ADD MSTORE PUSH32 0x416363657373436F6E74726F6C3A2063616E206F6E6C792072656E6F756E6365 PUSH1 0x40 DUP3 ADD MSTORE PUSH32 0x20726F6C657320666F722073656C660000000000000000000000000000000000 PUSH1 0x60 DUP3 ADD MSTORE PUSH1 0x80 ADD SWAP1 JUMP JUMPDEST PUSH4 0xFFFFFFFF SWAP2 SWAP1 SWAP2 AND DUP2 MSTORE PUSH1 0x20 ADD SWAP1 JUMP JUMPDEST PUSH1 0xFF SWAP2 SWAP1 SWAP2 AND DUP2 MSTORE PUSH1 0x20 ADD SWAP1 JUMP JUMPDEST PUSH1 0x40 MLOAD DUP2 DUP2 ADD PUSH8 0xFFFFFFFFFFFFFFFF DUP2 GT DUP3 DUP3 LT OR ISZERO PUSH2 0x2E37 JUMPI PUSH1 0x0 DUP1 REVERT JUMPDEST PUSH1 0x40 MSTORE SWAP2 SWAP1 POP JUMP JUMPDEST PUSH1 0x0 PUSH8 0xFFFFFFFFFFFFFFFF DUP3 GT ISZERO PUSH2 0x2E55 JUMPI DUP1 DUP2 REVERT JUMPDEST POP PUSH1 0x20 SWAP1 DUP2 MUL ADD SWAP1 JUMP JUMPDEST PUSH1 0x0 JUMPDEST DUP4 DUP2 LT ISZERO PUSH2 0x2E7A JUMPI DUP2 DUP2 ADD MLOAD DUP4 DUP3 ADD MSTORE PUSH1 0x20 ADD PUSH2 0x2E62 JUMP JUMPDEST DUP4 DUP2 GT ISZERO PUSH2 0x2E89 JUMPI PUSH1 0x0 DUP5 DUP5 ADD MSTORE JUMPDEST POP POP POP POP JUMP JUMPDEST PUSH1 0x9 DUP2 LT PUSH2 0x9CE JUMPI INVALID JUMPDEST PUSH20 0xFFFFFFFFFFFFFFFFFFFFFFFFFFFFFFFFFFFFFFFF DUP2 AND DUP2 EQ PUSH2 0x9CE JUMPI PUSH1 0x0 DUP1 REVERT JUMPDEST PUSH1 0x9 DUP2 LT PUSH2 0x9CE JUMPI PUSH1 0x0 DUP1 REVERT JUMPDEST PUSH4 0xFFFFFFFF DUP2 AND DUP2 EQ PUSH2 0x9CE JUMPI PUSH1 0x0 DUP1 REVERT INVALID GASLIMIT MSTORE NUMBER ORIGIN ADDRESS GASPRICE KECCAK256 PUSH3 0x75726E KECCAK256 PUSH2 0x6D6F PUSH22 0x6E7420657863656564732062616C616E636545524332 ADDRESS GASPRICE KECCAK256 PUSH21 0x72616E7366657220616D6F756E7420657863656564 PUSH20 0x2062616C616E636545524332303A207472616E73 PUSH7 0x657220616D6F75 PUSH15 0x74206578636565647320616C6C6F77 PUSH2 0x6E63 PUSH6 0x45524332303A KECCAK256 PUSH3 0x75726E KECCAK256 PUSH2 0x6D6F PUSH22 0x6E74206578636565647320616C6C6F77616E63654552 NUMBER ORIGIN ADDRESS GASPRICE KECCAK256 PUSH5 0x6563726561 PUSH20 0x656420616C6C6F77616E63652062656C6F77207A PUSH6 0x726FA2646970 PUSH7 0x73582212207AF4 EXP 0xCC DUP13 0x28 DUP5 0x27 DUP4 SHL 0xE9 0xA5 SWAP11 0xBE 0xE7 RETURNDATASIZE DUP16 0xE7 0xB6 SWAP2 0xDD 0x2F SUB 0x24 SGT 0x2E 0xD9 PUSH9 0xE7FDFFF264736F6C63 NUMBER STOP MOD 0xC STOP CALLER SWAP5 KECCAK256 GT NUMBER 0xCC EXP ORIGIN PUSH2 0xF14 0xF8 CALL DUP6 0xEB 0xB2 RETURNDATACOPY 0x4C 0xA6 0xF OR PC 0xE4 SWAP7 PUSH9 0x647D0879B1E81F0BA2 PUSH5 0x6970667358 0x22 SLT KECCAK256 0xD0 BYTE 0x29 SWAP11 0xF6 0xC7 0xD3 0xFB 0xD4 PUSH14 0xEA69A8CF5A77AF40DFDC51388221 NOT CALLDATALOAD REVERT SWAP4 0xB4 0xDD DUP2 DUP16 PUSH5 0x736F6C6343 STOP MOD 0xC STOP CALLER "
        },
        "methodIdentifiers": {
          "createChild((address,string,string,address,uint8,uint256))": "9bfa20bb",
          "createChild(bytes)": "2ea72a49",
          "isChild(address)": "fc91a897"
        }
      }
    }
  }
}