{
  "contracts/test/PhasedTest.sol": {
    "PhasedTest": {
      "abi": [
        {
          "anonymous": false,
          "inputs": [
            {
              "indexed": true,
              "internalType": "uint32",
              "name": "newPhaseBlock_",
              "type": "uint32"
            }
          ],
          "name": "PhaseShiftScheduled",
          "type": "event"
        },
        {
          "inputs": [],
          "name": "UNINITIALIZED",
          "outputs": [
            {
              "internalType": "uint32",
              "name": "",
              "type": "uint32"
            }
          ],
          "stateMutability": "view",
          "type": "function"
        },
        {
          "inputs": [
            {
              "internalType": "uint32[8]",
              "name": "phaseBlocks_",
              "type": "uint32[8]"
            },
            {
              "internalType": "enum Phase",
              "name": "phase_",
              "type": "uint8"
            }
          ],
          "name": "blockNumberForPhase",
          "outputs": [
            {
              "internalType": "uint32",
              "name": "",
              "type": "uint32"
            }
          ],
          "stateMutability": "pure",
          "type": "function"
        },
        {
          "inputs": [],
          "name": "currentPhase",
          "outputs": [
            {
              "internalType": "enum Phase",
              "name": "",
              "type": "uint8"
            }
          ],
          "stateMutability": "view",
          "type": "function"
        },
        {
          "inputs": [],
          "name": "hookCondition",
          "outputs": [
            {
              "internalType": "bool",
              "name": "",
              "type": "bool"
            }
          ],
          "stateMutability": "view",
          "type": "function"
        },
        {
          "inputs": [
            {
              "internalType": "uint32[8]",
              "name": "phaseBlocks_",
              "type": "uint32[8]"
            },
            {
              "internalType": "uint32",
              "name": "blockNumber_",
              "type": "uint32"
            }
          ],
          "name": "phaseAtBlockNumber",
          "outputs": [
            {
              "internalType": "enum Phase",
              "name": "",
              "type": "uint8"
            }
          ],
          "stateMutability": "pure",
          "type": "function"
        },
        {
          "inputs": [
            {
              "internalType": "uint256",
              "name": "",
              "type": "uint256"
            }
          ],
          "name": "phaseBlocks",
          "outputs": [
            {
              "internalType": "uint32",
              "name": "",
              "type": "uint32"
            }
          ],
          "stateMutability": "view",
          "type": "function"
        },
        {
          "inputs": [
            {
              "internalType": "enum Phase",
              "name": "phase_",
              "type": "uint8"
            }
          ],
          "name": "runsOnlyAtLeastPhase",
          "outputs": [
            {
              "internalType": "bool",
              "name": "",
              "type": "bool"
            }
          ],
          "stateMutability": "view",
          "type": "function"
        },
        {
          "inputs": [
            {
              "internalType": "enum Phase",
              "name": "phase_",
              "type": "uint8"
            }
          ],
          "name": "runsOnlyPhase",
          "outputs": [
            {
              "internalType": "bool",
              "name": "",
              "type": "bool"
            }
          ],
          "stateMutability": "view",
          "type": "function"
        },
        {
          "inputs": [
            {
              "internalType": "uint32",
              "name": "nextPhaseBlock_",
              "type": "uint32"
            }
          ],
          "name": "testScheduleNextPhase",
          "outputs": [],
          "stateMutability": "nonpayable",
          "type": "function"
        },
        {
          "inputs": [],
          "name": "toggleHookCondition",
          "outputs": [],
          "stateMutability": "nonpayable",
          "type": "function"
        }
      ],
      "evm": {
        "bytecode": {
          "linkReferences": {},
          "object": "61018060405263ffffffff608081815260a082905260c082905260e082905261010082905261012082905261014082905261016091909152610045906000906008610064565b506001805460ff19168117905534801561005e57600080fd5b5061011c565b6001830191839082156100f05791602002820160005b838211156100be57835183826101000a81548163ffffffff021916908363ffffffff160217905550926020019260040160208160030104928301926001030261007a565b80156100ee5782816101000a81549063ffffffff02191690556004016020816003010492830192600103026100be565b505b506100fc929150610100565b5090565b5b808211156100fc57805463ffffffff19168155600101610101565b6107c28061012b6000396000f3fe608060405234801561001057600080fd5b50600436106100be5760003560e01c80636932f6b71161007657806381e45d9a1161005b57806381e45d9a146102065780639923c94b1461020e578063abec2f811461022b576100be565b80636932f6b7146101de578063791f211f146101fe576100be565b80633bd126dc116100a75780633bd126dc1461014657806345bdfa8a1461016b57806348a8b7df146101aa576100be565b8063055ad42e146100c357806334c1df75146100ec575b600080fd5b6100cb610233565b604051808260088111156100db57fe5b815260200191505060405180910390f35b6100cb600480360361012081101561010357600080fd5b81019080806101000190600880602002604051908101604052809291908260086020028082843760009201919091525091945050503563ffffffff16905061029d565b6101696004803603602081101561015c57600080fd5b503563ffffffff166102f7565b005b610191600480360361012081101561018257600080fd5b5060ff61010082013516610303565b6040805163ffffffff9092168252519081900360200190f35b6101ca600480360360208110156101c057600080fd5b503560ff1661034b565b604080519115158252519081900360200190f35b6101ca600480360360208110156101f457600080fd5b503560ff166103e2565b610169610471565b6101916104a3565b6101916004803603602081101561022457600080fd5b50356104c7565b6101ca6104f4565b60408051610100810191829052600091610298919083906008908280855b82829054906101000a900463ffffffff1663ffffffff168152602001906004019060208260030104928301926001038202915080841161025157905050505050504361029d565b905090565b6000805b60088110156102ea578381600881106102b657fe5b602002015163ffffffff168363ffffffff1610156102e2578060088111156102da57fe5b9150506102f1565b6001016102a1565b5060085b90505b92915050565b610300816104fd565b50565b60008082600881111561031257fe5b1161031e5760006102ee565b82600183600881111561032d57fe5b036008811061033857fe5b602002013563ffffffff16905092915050565b60008180600881111561035a57fe5b610362610233565b600881111561036d57fe5b146103d957604080517f08c379a000000000000000000000000000000000000000000000000000000000815260206004820152600960248201527f4241445f50484153450000000000000000000000000000000000000000000000604482015290519081900360640190fd5b50600192915050565b6000818060088111156103f157fe5b6103f9610233565b600881111561040457fe5b10156103d957604080517f08c379a000000000000000000000000000000000000000000000000000000000815260206004820152600960248201527f4d494e5f50484153450000000000000000000000000000000000000000000000604482015290519081900360640190fd5b600180547fffffffffffffffffffffffffffffffffffffffffffffffffffffffffffffff00811660ff90911615179055565b7fffffffffffffffffffffffffffffffffffffffffffffffffffffffffffffffff81565b600081600881106104d457fe5b60089182820401919006600402915054906101000a900463ffffffff1681565b60015460ff1681565b8063ffffffff164363ffffffff16111561057857604080517f08c379a000000000000000000000000000000000000000000000000000000000815260206004820152600f60248201527f4e4558545f424c4f434b5f504153540000000000000000000000000000000000604482015290519081900360640190fd5b63ffffffff818116106105ec57604080517f08c379a000000000000000000000000000000000000000000000000000000000815260206004820152601860248201527f4e4558545f424c4f434b5f554e494e495449414c495a45440000000000000000604482015290519081900360640190fd5b60006105f6610233565b600881111561060157fe5b90506000816008811061061057fe5b60088104919091015460079091166004026101000a900463ffffffff9081161461069b57604080517f08c379a000000000000000000000000000000000000000000000000000000000815260206004820152600e60248201527f4e4558545f424c4f434b5f534554000000000000000000000000000000000000604482015290519081900360640190fd5b6106a482610712565b81600082600881106106b257fe5b600891828204019190066004026101000a81548163ffffffff021916908363ffffffff1602179055508163ffffffff167f260aac5b840edc27b89fdf50e91311a413363a400959466e1049e6d071b8cee260405160405180910390a25050565b60015460ff1661078357604080517f08c379a000000000000000000000000000000000000000000000000000000000815260206004820152600e60248201527f484f4f4b5f434f4e444954494f4e000000000000000000000000000000000000604482015290519081900360640190fd5b6103008161030056fea26469706673582212201d002d7ef9321768e35e172d77c8a13294c0d7a105472e8bf9c0b60aa3afa60364736f6c634300060c0033",
          "opcodes": "PUSH2 0x180 PUSH1 0x40 MSTORE PUSH4 0xFFFFFFFF PUSH1 0x80 DUP2 DUP2 MSTORE PUSH1 0xA0 DUP3 SWAP1 MSTORE PUSH1 0xC0 DUP3 SWAP1 MSTORE PUSH1 0xE0 DUP3 SWAP1 MSTORE PUSH2 0x100 DUP3 SWAP1 MSTORE PUSH2 0x120 DUP3 SWAP1 MSTORE PUSH2 0x140 DUP3 SWAP1 MSTORE PUSH2 0x160 SWAP2 SWAP1 SWAP2 MSTORE PUSH2 0x45 SWAP1 PUSH1 0x0 SWAP1 PUSH1 0x8 PUSH2 0x64 JUMP JUMPDEST POP PUSH1 0x1 DUP1 SLOAD PUSH1 0xFF NOT AND DUP2 OR SWAP1 SSTORE CALLVALUE DUP1 ISZERO PUSH2 0x5E JUMPI PUSH1 0x0 DUP1 REVERT JUMPDEST POP PUSH2 0x11C JUMP JUMPDEST PUSH1 0x1 DUP4 ADD SWAP2 DUP4 SWAP1 DUP3 ISZERO PUSH2 0xF0 JUMPI SWAP2 PUSH1 0x20 MUL DUP3 ADD PUSH1 0x0 JUMPDEST DUP4 DUP3 GT ISZERO PUSH2 0xBE JUMPI DUP4 MLOAD DUP4 DUP3 PUSH2 0x100 EXP DUP2 SLOAD DUP2 PUSH4 0xFFFFFFFF MUL NOT AND SWAP1 DUP4 PUSH4 0xFFFFFFFF AND MUL OR SWAP1 SSTORE POP SWAP3 PUSH1 0x20 ADD SWAP3 PUSH1 0x4 ADD PUSH1 0x20 DUP2 PUSH1 0x3 ADD DIV SWAP3 DUP4 ADD SWAP3 PUSH1 0x1 SUB MUL PUSH2 0x7A JUMP JUMPDEST DUP1 ISZERO PUSH2 0xEE JUMPI DUP3 DUP2 PUSH2 0x100 EXP DUP2 SLOAD SWAP1 PUSH4 0xFFFFFFFF MUL NOT AND SWAP1 SSTORE PUSH1 0x4 ADD PUSH1 0x20 DUP2 PUSH1 0x3 ADD DIV SWAP3 DUP4 ADD SWAP3 PUSH1 0x1 SUB MUL PUSH2 0xBE JUMP JUMPDEST POP JUMPDEST POP PUSH2 0xFC SWAP3 SWAP2 POP PUSH2 0x100 JUMP JUMPDEST POP SWAP1 JUMP JUMPDEST JUMPDEST DUP1 DUP3 GT ISZERO PUSH2 0xFC JUMPI DUP1 SLOAD PUSH4 0xFFFFFFFF NOT AND DUP2 SSTORE PUSH1 0x1 ADD PUSH2 0x101 JUMP JUMPDEST PUSH2 0x7C2 DUP1 PUSH2 0x12B PUSH1 0x0 CODECOPY PUSH1 0x0 RETURN INVALID PUSH1 0x80 PUSH1 0x40 MSTORE CALLVALUE DUP1 ISZERO PUSH2 0x10 JUMPI PUSH1 0x0 DUP1 REVERT JUMPDEST POP PUSH1 0x4 CALLDATASIZE LT PUSH2 0xBE JUMPI PUSH1 0x0 CALLDATALOAD PUSH1 0xE0 SHR DUP1 PUSH4 0x6932F6B7 GT PUSH2 0x76 JUMPI DUP1 PUSH4 0x81E45D9A GT PUSH2 0x5B JUMPI DUP1 PUSH4 0x81E45D9A EQ PUSH2 0x206 JUMPI DUP1 PUSH4 0x9923C94B EQ PUSH2 0x20E JUMPI DUP1 PUSH4 0xABEC2F81 EQ PUSH2 0x22B JUMPI PUSH2 0xBE JUMP JUMPDEST DUP1 PUSH4 0x6932F6B7 EQ PUSH2 0x1DE JUMPI DUP1 PUSH4 0x791F211F EQ PUSH2 0x1FE JUMPI PUSH2 0xBE JUMP JUMPDEST DUP1 PUSH4 0x3BD126DC GT PUSH2 0xA7 JUMPI DUP1 PUSH4 0x3BD126DC EQ PUSH2 0x146 JUMPI DUP1 PUSH4 0x45BDFA8A EQ PUSH2 0x16B JUMPI DUP1 PUSH4 0x48A8B7DF EQ PUSH2 0x1AA JUMPI PUSH2 0xBE JUMP JUMPDEST DUP1 PUSH4 0x55AD42E EQ PUSH2 0xC3 JUMPI DUP1 PUSH4 0x34C1DF75 EQ PUSH2 0xEC JUMPI JUMPDEST PUSH1 0x0 DUP1 REVERT JUMPDEST PUSH2 0xCB PUSH2 0x233 JUMP JUMPDEST PUSH1 0x40 MLOAD DUP1 DUP3 PUSH1 0x8 DUP2 GT ISZERO PUSH2 0xDB JUMPI INVALID JUMPDEST DUP2 MSTORE PUSH1 0x20 ADD SWAP2 POP POP PUSH1 0x40 MLOAD DUP1 SWAP2 SUB SWAP1 RETURN JUMPDEST PUSH2 0xCB PUSH1 0x4 DUP1 CALLDATASIZE SUB PUSH2 0x120 DUP2 LT ISZERO PUSH2 0x103 JUMPI PUSH1 0x0 DUP1 REVERT JUMPDEST DUP2 ADD SWAP1 DUP1 DUP1 PUSH2 0x100 ADD SWAP1 PUSH1 0x8 DUP1 PUSH1 0x20 MUL PUSH1 0x40 MLOAD SWAP1 DUP2 ADD PUSH1 0x40 MSTORE DUP1 SWAP3 SWAP2 SWAP1 DUP3 PUSH1 0x8 PUSH1 0x20 MUL DUP1 DUP3 DUP5 CALLDATACOPY PUSH1 0x0 SWAP3 ADD SWAP2 SWAP1 SWAP2 MSTORE POP SWAP2 SWAP5 POP POP POP CALLDATALOAD PUSH4 0xFFFFFFFF AND SWAP1 POP PUSH2 0x29D JUMP JUMPDEST PUSH2 0x169 PUSH1 0x4 DUP1 CALLDATASIZE SUB PUSH1 0x20 DUP2 LT ISZERO PUSH2 0x15C JUMPI PUSH1 0x0 DUP1 REVERT JUMPDEST POP CALLDATALOAD PUSH4 0xFFFFFFFF AND PUSH2 0x2F7 JUMP JUMPDEST STOP JUMPDEST PUSH2 0x191 PUSH1 0x4 DUP1 CALLDATASIZE SUB PUSH2 0x120 DUP2 LT ISZERO PUSH2 0x182 JUMPI PUSH1 0x0 DUP1 REVERT JUMPDEST POP PUSH1 0xFF PUSH2 0x100 DUP3 ADD CALLDATALOAD AND PUSH2 0x303 JUMP JUMPDEST PUSH1 0x40 DUP1 MLOAD PUSH4 0xFFFFFFFF SWAP1 SWAP3 AND DUP3 MSTORE MLOAD SWAP1 DUP2 SWAP1 SUB PUSH1 0x20 ADD SWAP1 RETURN JUMPDEST PUSH2 0x1CA PUSH1 0x4 DUP1 CALLDATASIZE SUB PUSH1 0x20 DUP2 LT ISZERO PUSH2 0x1C0 JUMPI PUSH1 0x0 DUP1 REVERT JUMPDEST POP CALLDATALOAD PUSH1 0xFF AND PUSH2 0x34B JUMP JUMPDEST PUSH1 0x40 DUP1 MLOAD SWAP2 ISZERO ISZERO DUP3 MSTORE MLOAD SWAP1 DUP2 SWAP1 SUB PUSH1 0x20 ADD SWAP1 RETURN JUMPDEST PUSH2 0x1CA PUSH1 0x4 DUP1 CALLDATASIZE SUB PUSH1 0x20 DUP2 LT ISZERO PUSH2 0x1F4 JUMPI PUSH1 0x0 DUP1 REVERT JUMPDEST POP CALLDATALOAD PUSH1 0xFF AND PUSH2 0x3E2 JUMP JUMPDEST PUSH2 0x169 PUSH2 0x471 JUMP JUMPDEST PUSH2 0x191 PUSH2 0x4A3 JUMP JUMPDEST PUSH2 0x191 PUSH1 0x4 DUP1 CALLDATASIZE SUB PUSH1 0x20 DUP2 LT ISZERO PUSH2 0x224 JUMPI PUSH1 0x0 DUP1 REVERT JUMPDEST POP CALLDATALOAD PUSH2 0x4C7 JUMP JUMPDEST PUSH2 0x1CA PUSH2 0x4F4 JUMP JUMPDEST PUSH1 0x40 DUP1 MLOAD PUSH2 0x100 DUP2 ADD SWAP2 DUP3 SWAP1 MSTORE PUSH1 0x0 SWAP2 PUSH2 0x298 SWAP2 SWAP1 DUP4 SWAP1 PUSH1 0x8 SWAP1 DUP3 DUP1 DUP6 JUMPDEST DUP3 DUP3 SWAP1 SLOAD SWAP1 PUSH2 0x100 EXP SWAP1 DIV PUSH4 0xFFFFFFFF AND PUSH4 0xFFFFFFFF AND DUP2 MSTORE PUSH1 0x20 ADD SWAP1 PUSH1 0x4 ADD SWAP1 PUSH1 0x20 DUP3 PUSH1 0x3 ADD DIV SWAP3 DUP4 ADD SWAP3 PUSH1 0x1 SUB DUP3 MUL SWAP2 POP DUP1 DUP5 GT PUSH2 0x251 JUMPI SWAP1 POP POP POP POP POP POP NUMBER PUSH2 0x29D JUMP JUMPDEST SWAP1 POP SWAP1 JUMP JUMPDEST PUSH1 0x0 DUP1 JUMPDEST PUSH1 0x8 DUP2 LT ISZERO PUSH2 0x2EA JUMPI DUP4 DUP2 PUSH1 0x8 DUP2 LT PUSH2 0x2B6 JUMPI INVALID JUMPDEST PUSH1 0x20 MUL ADD MLOAD PUSH4 0xFFFFFFFF AND DUP4 PUSH4 0xFFFFFFFF AND LT ISZERO PUSH2 0x2E2 JUMPI DUP1 PUSH1 0x8 DUP2 GT ISZERO PUSH2 0x2DA JUMPI INVALID JUMPDEST SWAP2 POP POP PUSH2 0x2F1 JUMP JUMPDEST PUSH1 0x1 ADD PUSH2 0x2A1 JUMP JUMPDEST POP PUSH1 0x8 JUMPDEST SWAP1 POP JUMPDEST SWAP3 SWAP2 POP POP JUMP JUMPDEST PUSH2 0x300 DUP2 PUSH2 0x4FD JUMP JUMPDEST POP JUMP JUMPDEST PUSH1 0x0 DUP1 DUP3 PUSH1 0x8 DUP2 GT ISZERO PUSH2 0x312 JUMPI INVALID JUMPDEST GT PUSH2 0x31E JUMPI PUSH1 0x0 PUSH2 0x2EE JUMP JUMPDEST DUP3 PUSH1 0x1 DUP4 PUSH1 0x8 DUP2 GT ISZERO PUSH2 0x32D JUMPI INVALID JUMPDEST SUB PUSH1 0x8 DUP2 LT PUSH2 0x338 JUMPI INVALID JUMPDEST PUSH1 0x20 MUL ADD CALLDATALOAD PUSH4 0xFFFFFFFF AND SWAP1 POP SWAP3 SWAP2 POP POP JUMP JUMPDEST PUSH1 0x0 DUP2 DUP1 PUSH1 0x8 DUP2 GT ISZERO PUSH2 0x35A JUMPI INVALID JUMPDEST PUSH2 0x362 PUSH2 0x233 JUMP JUMPDEST PUSH1 0x8 DUP2 GT ISZERO PUSH2 0x36D JUMPI INVALID JUMPDEST EQ PUSH2 0x3D9 JUMPI PUSH1 0x40 DUP1 MLOAD PUSH32 0x8C379A000000000000000000000000000000000000000000000000000000000 DUP2 MSTORE PUSH1 0x20 PUSH1 0x4 DUP3 ADD MSTORE PUSH1 0x9 PUSH1 0x24 DUP3 ADD MSTORE PUSH32 0x4241445F50484153450000000000000000000000000000000000000000000000 PUSH1 0x44 DUP3 ADD MSTORE SWAP1 MLOAD SWAP1 DUP2 SWAP1 SUB PUSH1 0x64 ADD SWAP1 REVERT JUMPDEST POP PUSH1 0x1 SWAP3 SWAP2 POP POP JUMP JUMPDEST PUSH1 0x0 DUP2 DUP1 PUSH1 0x8 DUP2 GT ISZERO PUSH2 0x3F1 JUMPI INVALID JUMPDEST PUSH2 0x3F9 PUSH2 0x233 JUMP JUMPDEST PUSH1 0x8 DUP2 GT ISZERO PUSH2 0x404 JUMPI INVALID JUMPDEST LT ISZERO PUSH2 0x3D9 JUMPI PUSH1 0x40 DUP1 MLOAD PUSH32 0x8C379A000000000000000000000000000000000000000000000000000000000 DUP2 MSTORE PUSH1 0x20 PUSH1 0x4 DUP3 ADD MSTORE PUSH1 0x9 PUSH1 0x24 DUP3 ADD MSTORE PUSH32 0x4D494E5F50484153450000000000000000000000000000000000000000000000 PUSH1 0x44 DUP3 ADD MSTORE SWAP1 MLOAD SWAP1 DUP2 SWAP1 SUB PUSH1 0x64 ADD SWAP1 REVERT JUMPDEST PUSH1 0x1 DUP1 SLOAD PUSH32 0xFFFFFFFFFFFFFFFFFFFFFFFFFFFFFFFFFFFFFFFFFFFFFFFFFFFFFFFFFFFFFF00 DUP2 AND PUSH1 0xFF SWAP1 SWAP2 AND ISZERO OR SWAP1 SSTORE JUMP JUMPDEST PUSH32 0xFFFFFFFFFFFFFFFFFFFFFFFFFFFFFFFFFFFFFFFFFFFFFFFFFFFFFFFFFFFFFFFF DUP2 JUMP JUMPDEST PUSH1 0x0 DUP2 PUSH1 0x8 DUP2 LT PUSH2 0x4D4 JUMPI INVALID JUMPDEST PUSH1 0x8 SWAP2 DUP3 DUP3 DIV ADD SWAP2 SWAP1 MOD PUSH1 0x4 MUL SWAP2 POP SLOAD SWAP1 PUSH2 0x100 EXP SWAP1 DIV PUSH4 0xFFFFFFFF AND DUP2 JUMP JUMPDEST PUSH1 0x1 SLOAD PUSH1 0xFF AND DUP2 JUMP JUMPDEST DUP1 PUSH4 0xFFFFFFFF AND NUMBER PUSH4 0xFFFFFFFF AND GT ISZERO PUSH2 0x578 JUMPI PUSH1 0x40 DUP1 MLOAD PUSH32 0x8C379A000000000000000000000000000000000000000000000000000000000 DUP2 MSTORE PUSH1 0x20 PUSH1 0x4 DUP3 ADD MSTORE PUSH1 0xF PUSH1 0x24 DUP3 ADD MSTORE PUSH32 0x4E4558545F424C4F434B5F504153540000000000000000000000000000000000 PUSH1 0x44 DUP3 ADD MSTORE SWAP1 MLOAD SWAP1 DUP2 SWAP1 SUB PUSH1 0x64 ADD SWAP1 REVERT JUMPDEST PUSH4 0xFFFFFFFF DUP2 DUP2 AND LT PUSH2 0x5EC JUMPI PUSH1 0x40 DUP1 MLOAD PUSH32 0x8C379A000000000000000000000000000000000000000000000000000000000 DUP2 MSTORE PUSH1 0x20 PUSH1 0x4 DUP3 ADD MSTORE PUSH1 0x18 PUSH1 0x24 DUP3 ADD MSTORE PUSH32 0x4E4558545F424C4F434B5F554E494E495449414C495A45440000000000000000 PUSH1 0x44 DUP3 ADD MSTORE SWAP1 MLOAD SWAP1 DUP2 SWAP1 SUB PUSH1 0x64 ADD SWAP1 REVERT JUMPDEST PUSH1 0x0 PUSH2 0x5F6 PUSH2 0x233 JUMP JUMPDEST PUSH1 0x8 DUP2 GT ISZERO PUSH2 0x601 JUMPI INVALID JUMPDEST SWAP1 POP PUSH1 0x0 DUP2 PUSH1 0x8 DUP2 LT PUSH2 0x610 JUMPI INVALID JUMPDEST PUSH1 0x8 DUP2 DIV SWAP2 SWAP1 SWAP2 ADD SLOAD PUSH1 0x7 SWAP1 SWAP2 AND PUSH1 0x4 MUL PUSH2 0x100 EXP SWAP1 DIV PUSH4 0xFFFFFFFF SWAP1 DUP2 AND EQ PUSH2 0x69B JUMPI PUSH1 0x40 DUP1 MLOAD PUSH32 0x8C379A000000000000000000000000000000000000000000000000000000000 DUP2 MSTORE PUSH1 0x20 PUSH1 0x4 DUP3 ADD MSTORE PUSH1 0xE PUSH1 0x24 DUP3 ADD MSTORE PUSH32 0x4E4558545F424C4F434B5F534554000000000000000000000000000000000000 PUSH1 0x44 DUP3 ADD MSTORE SWAP1 MLOAD SWAP1 DUP2 SWAP1 SUB PUSH1 0x64 ADD SWAP1 REVERT JUMPDEST PUSH2 0x6A4 DUP3 PUSH2 0x712 JUMP JUMPDEST DUP2 PUSH1 0x0 DUP3 PUSH1 0x8 DUP2 LT PUSH2 0x6B2 JUMPI INVALID JUMPDEST PUSH1 0x8 SWAP2 DUP3 DUP3 DIV ADD SWAP2 SWAP1 MOD PUSH1 0x4 MUL PUSH2 0x100 EXP DUP2 SLOAD DUP2 PUSH4 0xFFFFFFFF MUL NOT AND SWAP1 DUP4 PUSH4 0xFFFFFFFF AND MUL OR SWAP1 SSTORE POP DUP2 PUSH4 0xFFFFFFFF AND PUSH32 0x260AAC5B840EDC27B89FDF50E91311A413363A400959466E1049E6D071B8CEE2 PUSH1 0x40 MLOAD PUSH1 0x40 MLOAD DUP1 SWAP2 SUB SWAP1 LOG2 POP POP JUMP JUMPDEST PUSH1 0x1 SLOAD PUSH1 0xFF AND PUSH2 0x783 JUMPI PUSH1 0x40 DUP1 MLOAD PUSH32 0x8C379A000000000000000000000000000000000000000000000000000000000 DUP2 MSTORE PUSH1 0x20 PUSH1 0x4 DUP3 ADD MSTORE PUSH1 0xE PUSH1 0x24 DUP3 ADD MSTORE PUSH32 0x484F4F4B5F434F4E444954494F4E000000000000000000000000000000000000 PUSH1 0x44 DUP3 ADD MSTORE SWAP1 MLOAD SWAP1 DUP2 SWAP1 SUB PUSH1 0x64 ADD SWAP1 REVERT JUMPDEST PUSH2 0x300 DUP2 PUSH2 0x300 JUMP INVALID LOG2 PUSH5 0x6970667358 0x22 SLT KECCAK256 SAR STOP 0x2D PUSH31 0xF9321768E35E172D77C8A13294C0D7A105472E8BF9C0B60AA3AFA60364736F PUSH13 0x634300060C0033000000000000 "
        },
        "methodIdentifiers": {
          "UNINITIALIZED()": "81e45d9a",
          "blockNumberForPhase(uint32[8],uint8)": "45bdfa8a",
          "currentPhase()": "055ad42e",
          "hookCondition()": "abec2f81",
          "phaseAtBlockNumber(uint32[8],uint32)": "34c1df75",
          "phaseBlocks(uint256)": "9923c94b",
          "runsOnlyAtLeastPhase(uint8)": "6932f6b7",
          "runsOnlyPhase(uint8)": "48a8b7df",
          "testScheduleNextPhase(uint32)": "3bd126dc",
          "toggleHookCondition()": "791f211f"
        }
      }
    }
  }
}