{
  "contracts/verify/VerifyFactory.sol": {
    "VerifyFactory": {
      "abi": [
        {
          "anonymous": false,
          "inputs": [
            {
              "indexed": true,
              "internalType": "address",
              "name": "_contract",
              "type": "address"
            }
          ],
          "name": "NewContract",
          "type": "event"
        },
        {
          "inputs": [
            {
              "internalType": "bytes",
              "name": "data_",
              "type": "bytes"
            }
          ],
          "name": "createChild",
          "outputs": [
            {
              "internalType": "address",
              "name": "",
              "type": "address"
            }
          ],
          "stateMutability": "nonpayable",
          "type": "function"
        },
        {
          "inputs": [
            {
              "internalType": "address",
              "name": "admin_",
              "type": "address"
            }
          ],
          "name": "createChild",
          "outputs": [
            {
              "internalType": "address",
              "name": "",
              "type": "address"
            }
          ],
          "stateMutability": "nonpayable",
          "type": "function"
        },
        {
          "inputs": [
            {
              "internalType": "address",
              "name": "maybeChild_",
              "type": "address"
            }
          ],
          "name": "isChild",
          "outputs": [
            {
              "internalType": "bool",
              "name": "",
              "type": "bool"
            }
          ],
          "stateMutability": "nonpayable",
          "type": "function"
        }
      ],
      "evm": {
        "bytecode": {
          "linkReferences": {},
          "object": "608060405234801561001057600080fd5b506001600055611f42806100256000396000f3fe608060405234801561001057600080fd5b50600436106100415760003560e01c80632ea72a4914610046578063eaa744d7146100df578063fc91a89714610112575b600080fd5b6100b66004803603602081101561005c57600080fd5b81019060208101813564010000000081111561007757600080fd5b82018360208201111561008957600080fd5b803590602001918460018302840111640100000000831117156100ab57600080fd5b509092509050610159565b6040805173ffffffffffffffffffffffffffffffffffffffff9092168252519081900360200190f35b6100b6600480360360208110156100f557600080fd5b503573ffffffffffffffffffffffffffffffffffffffff16610266565b6101456004803603602081101561012857600080fd5b503573ffffffffffffffffffffffffffffffffffffffff16610382565b604080519115158252519081900360200190f35b6000600260005414156101cd57604080517f08c379a000000000000000000000000000000000000000000000000000000000815260206004820152601f60248201527f5265656e7472616e637947756172643a207265656e7472616e742063616c6c00604482015290519081900360640190fd5b600260009081556101de84846103ad565b73ffffffffffffffffffffffffffffffffffffffff8116600081815260016020819052604080832080547fffffffffffffffffffffffffffffffffffffffffffffffffffffffffffffff00169092179091555192935090917f387ea218537e939551af33bbc2dd6c53b1fee55d377a0dce288258f972cb3a9c9190a260016000559392505050565b6040805173ffffffffffffffffffffffffffffffffffffffff8316602080830191909152825180830382018152828401938490527f2ea72a4900000000000000000000000000000000000000000000000000000000909352604482018181528351606484015283516000943094632ea72a499491939283926084909201918501908083838b5b838110156103045781810151838201526020016102ec565b50505050905090810190601f1680156103315780820380516001836020036101000a031916815260200191505b5092505050602060405180830381600087803b15801561035057600080fd5b505af1158015610364573d6000803e3d6000fd5b505050506040513d602081101561037a57600080fd5b505192915050565b73ffffffffffffffffffffffffffffffffffffffff1660009081526001602052604090205460ff1690565b600080838360208110156103c057600080fd5b50604051903573ffffffffffffffffffffffffffffffffffffffff16915060009082906103ec90610430565b73ffffffffffffffffffffffffffffffffffffffff909116815260405190819003602001906000f080158015610426573d6000803e3d6000fd5b5095945050505050565b611acf8061043e8339019056fe60806040523480156200001157600080fd5b5060405162001acf38038062001acf8339810160408190526200003491620002d5565b6200006f7f5ff1fb0ce9089603e6e193667ed17164e0360a6148f4a39fc194055588948a3160008051602062001a6f8339815191526200016f565b6200008a60008051602062001a6f83398151915282620001c1565b620000c57f794e4221ebb6dd4e460d558b4ec709511d44017d6610ba89daa896c0684ddfac60008051602062001aaf8339815191526200016f565b620000e060008051602062001aaf83398151915282620001c1565b6200011b7f5a686c9d070917be517818979fb56f451f007e3ae83e96fb5a22a304929b070d60008051602062001a8f8339815191526200016f565b6200013660008051602062001a8f83398151915282620001c1565b6001600160a01b038116620001685760405162461bcd60e51b81526004016200015f9062000305565b60405180910390fd5b5062000328565b600082815260208190526040808220600201549051839285917fbd79b86ffe0ab8e8776151514217cd7cacd52c909f66475c3af44e129f0b00ff9190a460009182526020829052604090912060020155565b620001cd8282620001d1565b5050565b600082815260208181526040909120620001f691839062000e816200024a821b17901c565b15620001cd57620002066200026a565b6001600160a01b0316816001600160a01b0316837f2f8788117e7eff1d82e926ec794901d17c78024a50270940304540a733656f0d60405160405180910390a45050565b600062000261836001600160a01b0384166200026e565b90505b92915050565b3390565b60006200027c8383620002bd565b620002b45750815460018181018455600084815260208082209093018490558454848252828601909352604090209190915562000264565b50600062000264565b60009081526001919091016020526040902054151590565b600060208284031215620002e7578081fd5b81516001600160a01b0381168114620002fe578182fd5b9392505050565b6020808252600990820152680c17d050d0d3d5539560ba1b604082015260600190565b61173780620003386000396000f3fe608060405234801561001057600080fd5b50600436106101825760003560e01c80637547a867116100d857806397c3ccd81161008c578063ca15c87311610066578063ca15c87314610301578063d547741f14610314578063daea85c51461032757610182565b806397c3ccd8146102de578063a217fddf146102f1578063b8c55bfa146102f957610182565b806381e45d9a116100bd57806381e45d9a146102895780639010d07c1461029e57806391d14854146102be57610182565b80637547a8671461027957806381792e441461028157610182565b806329092d0e1161013a57806336568abe1161011457806336568abe1461023e5780633d111c7e146102515780636be018c31461025957610182565b806329092d0e146101f85780632f2ff15d1461020b57806331e658a51461021e57610182565b8063100ec9981161016b578063100ec998146101c85780631e210912146101dd578063248a9ca3146101e557610182565b806302a22337146101875780631003e2d2146101b3575b600080fd5b61019a6101953660046111d0565b61033a565b6040516101aa94939291906116b7565b60405180910390f35b6101c66101c1366004611204565b610375565b005b6101d061050f565b6040516101aa91906112fe565b6101d0610533565b6101d06101f3366004611204565b610557565b6101c66102063660046111d0565b61056c565b6101c661021936600461121c565b610695565b61023161022c3660046111d0565b6106f7565b6040516101aa919061167e565b6101c661024c36600461121c565b61076f565b6101d06107e5565b61026c610267366004611284565b610809565b6040516101aa9190611307565b6101d06108b5565b6101d06108d9565b6102916108fd565b6040516101aa91906116db565b6102b16102ac366004611263565b610921565b6040516101aa91906112d2565b6102d16102cc36600461121c565b610940565b6040516101aa91906112f3565b6101c66102ec3660046111d0565b610958565b6101d0610b6c565b6101d0610b71565b6101d061030f366004611204565b610b95565b6101c661032236600461121c565b610bac565b6101c66103353660046111d0565b610c00565b6001602081905260009182526040909120805491015463ffffffff808216916401000000008104821691680100000000000000009091041684565b806103b5576040517f08c379a00000000000000000000000000000000000000000000000000000000081526004016103ac906114b1565b60405180910390fd5b33600090815260016020819052604090912081015463ffffffff1610610407576040517f08c379a00000000000000000000000000000000000000000000000000000000081526004016103ac9061147a565b604080516080810182528281524363ffffffff908116602080840191825283850183815260608501848152336000818152600194859052888120975188559451969093018054925191517fffffffffffffffffffffffffffffffffffffffffffffffffffffffff00000000909316968616969096177fffffffffffffffffffffffffffffffffffffffffffffffff00000000ffffffff1664010000000091861691909102177fffffffffffffffffffffffffffffffffffffffff00000000ffffffffffffffff166801000000000000000091909416029290921790925591518392917f2728c9d3205d667bbc0eefdfeda366261b4d021949630c047f3e5834b30611ab91a350565b7f9d65f741849e7609dd1e2c70f0d7da5f5433b36bfcf3ba4d27d2bb08ad2155b181565b7f2d4d1d70bd81797c3479f5c3f873a5c9203d249659c3b317cdad46367472783c81565b60009081526020819052604090206002015490565b73ffffffffffffffffffffffffffffffffffffffff81166105b9576040517f08c379a00000000000000000000000000000000000000000000000000000000081526004016103ac9061151f565b6105e37f794e4221ebb6dd4e460d558b4ec709511d44017d6610ba89daa896c0684ddfac33610940565b610619576040517f08c379a00000000000000000000000000000000000000000000000000000000081526004016103ac9061140c565b73ffffffffffffffffffffffffffffffffffffffff8116600081815260016020819052604080832083815590910180547fffffffffffffffffffffffffffffffffffffffff000000000000000000000000169055517fbe7c7ac3248df4581c206a84aab3cb4e7d521b5398b42b681757f78a5a7d411e9190a250565b6000828152602081905260409020600201546106b3906102cc610ea3565b6106e9576040517f08c379a00000000000000000000000000000000000000000000000000000000081526004016103ac90611378565b6106f38282610ea7565b5050565b6106ff6111a9565b5073ffffffffffffffffffffffffffffffffffffffff1660009081526001602081815260409283902083516080810185528154815292015463ffffffff80821692840192909252640100000000810482169383019390935268010000000000000000909204909116606082015290565b610777610ea3565b73ffffffffffffffffffffffffffffffffffffffff168173ffffffffffffffffffffffffffffffffffffffff16146107db576040517f08c379a00000000000000000000000000000000000000000000000000000000081526004016103ac90611621565b6106f38282610f2a565b7f5ff1fb0ce9089603e6e193667ed17164e0360a6148f4a39fc194055588948a3181565b600061081b60408401602085016112b6565b63ffffffff1661082d575060006108af565b63ffffffff821661084460808501606086016112b6565b63ffffffff1611610857575060036108af565b63ffffffff821661086e60608501604086016112b6565b63ffffffff1611610881575060026108af565b63ffffffff821661089860408501602086016112b6565b63ffffffff16116108ab575060016108af565b5060005b92915050565b7f794e4221ebb6dd4e460d558b4ec709511d44017d6610ba89daa896c0684ddfac81565b7fbb496ca6fee71a17f78592fbc6fc7f04a436edb9c709c4289d6bbfbc5fd45f4d81565b7fffffffffffffffffffffffffffffffffffffffffffffffffffffffffffffffff81565b60008281526020819052604081206109399083610fad565b9392505050565b60008281526020819052604081206109399083610fb9565b73ffffffffffffffffffffffffffffffffffffffff81166109a5576040517f08c379a00000000000000000000000000000000000000000000000000000000081526004016103ac9061151f565b6109cf7f5a686c9d070917be517818979fb56f451f007e3ae83e96fb5a22a304929b070d33610940565b610a05576040517f08c379a00000000000000000000000000000000000000000000000000000000081526004016103ac906115b3565b73ffffffffffffffffffffffffffffffffffffffff81166000908152600160208190526040909120015463ffffffff16610a6b576040517f08c379a00000000000000000000000000000000000000000000000000000000081526004016103ac906115ea565b73ffffffffffffffffffffffffffffffffffffffff81166000908152600160208190526040909120015468010000000000000000900463ffffffff90811614610ae0576040517f08c379a00000000000000000000000000000000000000000000000000000000081526004016103ac906113d5565b73ffffffffffffffffffffffffffffffffffffffff8116600081815260016020819052604080832090910180547fffffffffffffffffffffffffffffffffffffffff00000000ffffffffffffffff16680100000000000000004363ffffffff1602179055517f9a4e757235705bd178419abc9fa645392c5c7dce5b09940a81ef76794b84bd689190a250565b600081565b7f5a686c9d070917be517818979fb56f451f007e3ae83e96fb5a22a304929b070d81565b60008181526020819052604081206108af90610fdb565b600082815260208190526040902060020154610bca906102cc610ea3565b6107db576040517f08c379a00000000000000000000000000000000000000000000000000000000081526004016103ac90611556565b73ffffffffffffffffffffffffffffffffffffffff8116610c4d576040517f08c379a00000000000000000000000000000000000000000000000000000000081526004016103ac9061151f565b610c777f5ff1fb0ce9089603e6e193667ed17164e0360a6148f4a39fc194055588948a3133610940565b610cad576040517f08c379a00000000000000000000000000000000000000000000000000000000081526004016103ac906114e8565b73ffffffffffffffffffffffffffffffffffffffff81166000908152600160208190526040909120015463ffffffff16610d13576040517f08c379a00000000000000000000000000000000000000000000000000000000081526004016103ac906115ea565b73ffffffffffffffffffffffffffffffffffffffff811660009081526001602081905260409091200154640100000000900463ffffffff90811614610d84576040517f08c379a00000000000000000000000000000000000000000000000000000000081526004016103ac90611443565b73ffffffffffffffffffffffffffffffffffffffff81166000908152600160208190526040909120015468010000000000000000900463ffffffff90811614610df9576040517f08c379a00000000000000000000000000000000000000000000000000000000081526004016103ac906113d5565b73ffffffffffffffffffffffffffffffffffffffff8116600081815260016020819052604080832090910180547fffffffffffffffffffffffffffffffffffffffffffffffff00000000ffffffff166401000000004363ffffffff1602179055517f96bfcd230b7ff6b6fae05762edc541f5cb32225984541cf1a9c0b04bac427a5e9190a250565b60006109398373ffffffffffffffffffffffffffffffffffffffff8416610fe6565b3390565b6000828152602081905260409020610ebf9082610e81565b156106f357610ecc610ea3565b73ffffffffffffffffffffffffffffffffffffffff168173ffffffffffffffffffffffffffffffffffffffff16837f2f8788117e7eff1d82e926ec794901d17c78024a50270940304540a733656f0d60405160405180910390a45050565b6000828152602081905260409020610f429082611028565b156106f357610f4f610ea3565b73ffffffffffffffffffffffffffffffffffffffff168173ffffffffffffffffffffffffffffffffffffffff16837ff6391f5c32d9c69d2a47ea670b442974b53935d1edc7fd64eb21e047a839171b60405160405180910390a45050565b6000610939838361104a565b60006109398373ffffffffffffffffffffffffffffffffffffffff84166110a9565b60006108af826110c1565b6000610ff283836110a9565b6108ab575081546001818101845560008481526020808220909301849055845484825282860190935260409020919091556108af565b60006109398373ffffffffffffffffffffffffffffffffffffffff84166110c5565b81546000908210611087576040517f08c379a00000000000000000000000000000000000000000000000000000000081526004016103ac9061131b565b82600001828154811061109657fe5b9060005260206000200154905092915050565b60009081526001919091016020526040902054151590565b5490565b6000818152600183016020526040812054801561119f5783547fffffffffffffffffffffffffffffffffffffffffffffffffffffffffffffffff808301919081019060009087908390811061111657fe5b906000526020600020015490508087600001848154811061113357fe5b60009182526020808320909101929092558281526001898101909252604090209084019055865487908061116357fe5b600190038181906000526020600020016000905590558660010160008781526020019081526020016000206000905560019450505050506108af565b60009150506108af565b60408051608081018252600080825260208201819052918101829052606081019190915290565b6000602082840312156111e1578081fd5b813573ffffffffffffffffffffffffffffffffffffffff81168114610939578182fd5b600060208284031215611215578081fd5b5035919050565b6000806040838503121561122e578081fd5b82359150602083013573ffffffffffffffffffffffffffffffffffffffff81168114611258578182fd5b809150509250929050565b60008060408385031215611275578182fd5b50508035926020909101359150565b60008082840360a0811215611297578283fd5b60808112156112a4578283fd5b508291506080830135611258816116ec565b6000602082840312156112c7578081fd5b8135610939816116ec565b73ffffffffffffffffffffffffffffffffffffffff91909116815260200190565b901515815260200190565b90815260200190565b602081016004831061131557fe5b91905290565b60208082526022908201527f456e756d657261626c655365743a20696e646578206f7574206f6620626f756e60408201527f6473000000000000000000000000000000000000000000000000000000000000606082015260800190565b6020808252602f908201527f416363657373436f6e74726f6c3a2073656e646572206d75737420626520616e60408201527f2061646d696e20746f206772616e740000000000000000000000000000000000606082015260800190565b60208082526009908201527f5052494f525f42414e0000000000000000000000000000000000000000000000604082015260600190565b6020808252600c908201527f4f4e4c595f52454d4f5645520000000000000000000000000000000000000000604082015260600190565b6020808252600d908201527f5052494f525f415050524f564500000000000000000000000000000000000000604082015260600190565b60208082526009908201527f5052494f525f4144440000000000000000000000000000000000000000000000604082015260600190565b60208082526004908201527f305f494400000000000000000000000000000000000000000000000000000000604082015260600190565b6020808252600d908201527f4f4e4c595f415050524f56455200000000000000000000000000000000000000604082015260600190565b60208082526009908201527f305f414444524553530000000000000000000000000000000000000000000000604082015260600190565b60208082526030908201527f416363657373436f6e74726f6c3a2073656e646572206d75737420626520616e60408201527f2061646d696e20746f207265766f6b6500000000000000000000000000000000606082015260800190565b6020808252600b908201527f4f4e4c595f42414e4e4552000000000000000000000000000000000000000000604082015260600190565b60208082526009908201527f4e4f545f41444445440000000000000000000000000000000000000000000000604082015260600190565b6020808252602f908201527f416363657373436f6e74726f6c3a2063616e206f6e6c792072656e6f756e636560408201527f20726f6c657320666f722073656c660000000000000000000000000000000000606082015260800190565b8151815260208083015163ffffffff90811691830191909152604080840151821690830152606092830151169181019190915260800190565b93845263ffffffff9283166020850152908216604084015216606082015260800190565b63ffffffff91909116815260200190565b63ffffffff811681146116fe57600080fd5b5056fea2646970667358221220c4790b2741282e8c843ce13a669221c871d1957a767209f7f29c2ba13ebd744464736f6c634300060c00332d4d1d70bd81797c3479f5c3f873a5c9203d249659c3b317cdad46367472783cbb496ca6fee71a17f78592fbc6fc7f04a436edb9c709c4289d6bbfbc5fd45f4d9d65f741849e7609dd1e2c70f0d7da5f5433b36bfcf3ba4d27d2bb08ad2155b1a26469706673582212200c8fde2601353f06e7101b108df9181767e750be55386789049e6277163022f864736f6c634300060c0033",
          "opcodes": "PUSH1 0x80 PUSH1 0x40 MSTORE CALLVALUE DUP1 ISZERO PUSH2 0x10 JUMPI PUSH1 0x0 DUP1 REVERT JUMPDEST POP PUSH1 0x1 PUSH1 0x0 SSTORE PUSH2 0x1F42 DUP1 PUSH2 0x25 PUSH1 0x0 CODECOPY PUSH1 0x0 RETURN INVALID PUSH1 0x80 PUSH1 0x40 MSTORE CALLVALUE DUP1 ISZERO PUSH2 0x10 JUMPI PUSH1 0x0 DUP1 REVERT JUMPDEST POP PUSH1 0x4 CALLDATASIZE LT PUSH2 0x41 JUMPI PUSH1 0x0 CALLDATALOAD PUSH1 0xE0 SHR DUP1 PUSH4 0x2EA72A49 EQ PUSH2 0x46 JUMPI DUP1 PUSH4 0xEAA744D7 EQ PUSH2 0xDF JUMPI DUP1 PUSH4 0xFC91A897 EQ PUSH2 0x112 JUMPI JUMPDEST PUSH1 0x0 DUP1 REVERT JUMPDEST PUSH2 0xB6 PUSH1 0x4 DUP1 CALLDATASIZE SUB PUSH1 0x20 DUP2 LT ISZERO PUSH2 0x5C JUMPI PUSH1 0x0 DUP1 REVERT JUMPDEST DUP2 ADD SWAP1 PUSH1 0x20 DUP2 ADD DUP2 CALLDATALOAD PUSH5 0x100000000 DUP2 GT ISZERO PUSH2 0x77 JUMPI PUSH1 0x0 DUP1 REVERT JUMPDEST DUP3 ADD DUP4 PUSH1 0x20 DUP3 ADD GT ISZERO PUSH2 0x89 JUMPI PUSH1 0x0 DUP1 REVERT JUMPDEST DUP1 CALLDATALOAD SWAP1 PUSH1 0x20 ADD SWAP2 DUP5 PUSH1 0x1 DUP4 MUL DUP5 ADD GT PUSH5 0x100000000 DUP4 GT OR ISZERO PUSH2 0xAB JUMPI PUSH1 0x0 DUP1 REVERT JUMPDEST POP SWAP1 SWAP3 POP SWAP1 POP PUSH2 0x159 JUMP JUMPDEST PUSH1 0x40 DUP1 MLOAD PUSH20 0xFFFFFFFFFFFFFFFFFFFFFFFFFFFFFFFFFFFFFFFF SWAP1 SWAP3 AND DUP3 MSTORE MLOAD SWAP1 DUP2 SWAP1 SUB PUSH1 0x20 ADD SWAP1 RETURN JUMPDEST PUSH2 0xB6 PUSH1 0x4 DUP1 CALLDATASIZE SUB PUSH1 0x20 DUP2 LT ISZERO PUSH2 0xF5 JUMPI PUSH1 0x0 DUP1 REVERT JUMPDEST POP CALLDATALOAD PUSH20 0xFFFFFFFFFFFFFFFFFFFFFFFFFFFFFFFFFFFFFFFF AND PUSH2 0x266 JUMP JUMPDEST PUSH2 0x145 PUSH1 0x4 DUP1 CALLDATASIZE SUB PUSH1 0x20 DUP2 LT ISZERO PUSH2 0x128 JUMPI PUSH1 0x0 DUP1 REVERT JUMPDEST POP CALLDATALOAD PUSH20 0xFFFFFFFFFFFFFFFFFFFFFFFFFFFFFFFFFFFFFFFF AND PUSH2 0x382 JUMP JUMPDEST PUSH1 0x40 DUP1 MLOAD SWAP2 ISZERO ISZERO DUP3 MSTORE MLOAD SWAP1 DUP2 SWAP1 SUB PUSH1 0x20 ADD SWAP1 RETURN JUMPDEST PUSH1 0x0 PUSH1 0x2 PUSH1 0x0 SLOAD EQ ISZERO PUSH2 0x1CD JUMPI PUSH1 0x40 DUP1 MLOAD PUSH32 0x8C379A000000000000000000000000000000000000000000000000000000000 DUP2 MSTORE PUSH1 0x20 PUSH1 0x4 DUP3 ADD MSTORE PUSH1 0x1F PUSH1 0x24 DUP3 ADD MSTORE PUSH32 0x5265656E7472616E637947756172643A207265656E7472616E742063616C6C00 PUSH1 0x44 DUP3 ADD MSTORE SWAP1 MLOAD SWAP1 DUP2 SWAP1 SUB PUSH1 0x64 ADD SWAP1 REVERT JUMPDEST PUSH1 0x2 PUSH1 0x0 SWAP1 DUP2 SSTORE PUSH2 0x1DE DUP5 DUP5 PUSH2 0x3AD JUMP JUMPDEST PUSH20 0xFFFFFFFFFFFFFFFFFFFFFFFFFFFFFFFFFFFFFFFF DUP2 AND PUSH1 0x0 DUP2 DUP2 MSTORE PUSH1 0x1 PUSH1 0x20 DUP2 SWAP1 MSTORE PUSH1 0x40 DUP1 DUP4 KECCAK256 DUP1 SLOAD PUSH32 0xFFFFFFFFFFFFFFFFFFFFFFFFFFFFFFFFFFFFFFFFFFFFFFFFFFFFFFFFFFFFFF00 AND SWAP1 SWAP3 OR SWAP1 SWAP2 SSTORE MLOAD SWAP3 SWAP4 POP SWAP1 SWAP2 PUSH32 0x387EA218537E939551AF33BBC2DD6C53B1FEE55D377A0DCE288258F972CB3A9C SWAP2 SWAP1 LOG2 PUSH1 0x1 PUSH1 0x0 SSTORE SWAP4 SWAP3 POP POP POP JUMP JUMPDEST PUSH1 0x40 DUP1 MLOAD PUSH20 0xFFFFFFFFFFFFFFFFFFFFFFFFFFFFFFFFFFFFFFFF DUP4 AND PUSH1 0x20 DUP1 DUP4 ADD SWAP2 SWAP1 SWAP2 MSTORE DUP3 MLOAD DUP1 DUP4 SUB DUP3 ADD DUP2 MSTORE DUP3 DUP5 ADD SWAP4 DUP5 SWAP1 MSTORE PUSH32 0x2EA72A4900000000000000000000000000000000000000000000000000000000 SWAP1 SWAP4 MSTORE PUSH1 0x44 DUP3 ADD DUP2 DUP2 MSTORE DUP4 MLOAD PUSH1 0x64 DUP5 ADD MSTORE DUP4 MLOAD PUSH1 0x0 SWAP5 ADDRESS SWAP5 PUSH4 0x2EA72A49 SWAP5 SWAP2 SWAP4 SWAP3 DUP4 SWAP3 PUSH1 0x84 SWAP1 SWAP3 ADD SWAP2 DUP6 ADD SWAP1 DUP1 DUP4 DUP4 DUP12 JUMPDEST DUP4 DUP2 LT ISZERO PUSH2 0x304 JUMPI DUP2 DUP2 ADD MLOAD DUP4 DUP3 ADD MSTORE PUSH1 0x20 ADD PUSH2 0x2EC JUMP JUMPDEST POP POP POP POP SWAP1 POP SWAP1 DUP2 ADD SWAP1 PUSH1 0x1F AND DUP1 ISZERO PUSH2 0x331 JUMPI DUP1 DUP3 SUB DUP1 MLOAD PUSH1 0x1 DUP4 PUSH1 0x20 SUB PUSH2 0x100 EXP SUB NOT AND DUP2 MSTORE PUSH1 0x20 ADD SWAP2 POP JUMPDEST POP SWAP3 POP POP POP PUSH1 0x20 PUSH1 0x40 MLOAD DUP1 DUP4 SUB DUP2 PUSH1 0x0 DUP8 DUP1 EXTCODESIZE ISZERO DUP1 ISZERO PUSH2 0x350 JUMPI PUSH1 0x0 DUP1 REVERT JUMPDEST POP GAS CALL ISZERO DUP1 ISZERO PUSH2 0x364 JUMPI RETURNDATASIZE PUSH1 0x0 DUP1 RETURNDATACOPY RETURNDATASIZE PUSH1 0x0 REVERT JUMPDEST POP POP POP POP PUSH1 0x40 MLOAD RETURNDATASIZE PUSH1 0x20 DUP2 LT ISZERO PUSH2 0x37A JUMPI PUSH1 0x0 DUP1 REVERT JUMPDEST POP MLOAD SWAP3 SWAP2 POP POP JUMP JUMPDEST PUSH20 0xFFFFFFFFFFFFFFFFFFFFFFFFFFFFFFFFFFFFFFFF AND PUSH1 0x0 SWAP1 DUP2 MSTORE PUSH1 0x1 PUSH1 0x20 MSTORE PUSH1 0x40 SWAP1 KECCAK256 SLOAD PUSH1 0xFF AND SWAP1 JUMP JUMPDEST PUSH1 0x0 DUP1 DUP4 DUP4 PUSH1 0x20 DUP2 LT ISZERO PUSH2 0x3C0 JUMPI PUSH1 0x0 DUP1 REVERT JUMPDEST POP PUSH1 0x40 MLOAD SWAP1 CALLDATALOAD PUSH20 0xFFFFFFFFFFFFFFFFFFFFFFFFFFFFFFFFFFFFFFFF AND SWAP2 POP PUSH1 0x0 SWAP1 DUP3 SWAP1 PUSH2 0x3EC SWAP1 PUSH2 0x430 JUMP JUMPDEST PUSH20 0xFFFFFFFFFFFFFFFFFFFFFFFFFFFFFFFFFFFFFFFF SWAP1 SWAP2 AND DUP2 MSTORE PUSH1 0x40 MLOAD SWAP1 DUP2 SWAP1 SUB PUSH1 0x20 ADD SWAP1 PUSH1 0x0 CREATE DUP1 ISZERO DUP1 ISZERO PUSH2 0x426 JUMPI RETURNDATASIZE PUSH1 0x0 DUP1 RETURNDATACOPY RETURNDATASIZE PUSH1 0x0 REVERT JUMPDEST POP SWAP6 SWAP5 POP POP POP POP POP JUMP JUMPDEST PUSH2 0x1ACF DUP1 PUSH2 0x43E DUP4 CODECOPY ADD SWAP1 JUMP INVALID PUSH1 0x80 PUSH1 0x40 MSTORE CALLVALUE DUP1 ISZERO PUSH3 0x11 JUMPI PUSH1 0x0 DUP1 REVERT JUMPDEST POP PUSH1 0x40 MLOAD PUSH3 0x1ACF CODESIZE SUB DUP1 PUSH3 0x1ACF DUP4 CODECOPY DUP2 ADD PUSH1 0x40 DUP2 SWAP1 MSTORE PUSH3 0x34 SWAP2 PUSH3 0x2D5 JUMP JUMPDEST PUSH3 0x6F PUSH32 0x5FF1FB0CE9089603E6E193667ED17164E0360A6148F4A39FC194055588948A31 PUSH1 0x0 DUP1 MLOAD PUSH1 0x20 PUSH3 0x1A6F DUP4 CODECOPY DUP2 MLOAD SWAP2 MSTORE PUSH3 0x16F JUMP JUMPDEST PUSH3 0x8A PUSH1 0x0 DUP1 MLOAD PUSH1 0x20 PUSH3 0x1A6F DUP4 CODECOPY DUP2 MLOAD SWAP2 MSTORE DUP3 PUSH3 0x1C1 JUMP JUMPDEST PUSH3 0xC5 PUSH32 0x794E4221EBB6DD4E460D558B4EC709511D44017D6610BA89DAA896C0684DDFAC PUSH1 0x0 DUP1 MLOAD PUSH1 0x20 PUSH3 0x1AAF DUP4 CODECOPY DUP2 MLOAD SWAP2 MSTORE PUSH3 0x16F JUMP JUMPDEST PUSH3 0xE0 PUSH1 0x0 DUP1 MLOAD PUSH1 0x20 PUSH3 0x1AAF DUP4 CODECOPY DUP2 MLOAD SWAP2 MSTORE DUP3 PUSH3 0x1C1 JUMP JUMPDEST PUSH3 0x11B PUSH32 0x5A686C9D070917BE517818979FB56F451F007E3AE83E96FB5A22A304929B070D PUSH1 0x0 DUP1 MLOAD PUSH1 0x20 PUSH3 0x1A8F DUP4 CODECOPY DUP2 MLOAD SWAP2 MSTORE PUSH3 0x16F JUMP JUMPDEST PUSH3 0x136 PUSH1 0x0 DUP1 MLOAD PUSH1 0x20 PUSH3 0x1A8F DUP4 CODECOPY DUP2 MLOAD SWAP2 MSTORE DUP3 PUSH3 0x1C1 JUMP JUMPDEST PUSH1 0x1 PUSH1 0x1 PUSH1 0xA0 SHL SUB DUP2 AND PUSH3 0x168 JUMPI PUSH1 0x40 MLOAD PUSH3 0x461BCD PUSH1 0xE5 SHL DUP2 MSTORE PUSH1 0x4 ADD PUSH3 0x15F SWAP1 PUSH3 0x305 JUMP JUMPDEST PUSH1 0x40 MLOAD DUP1 SWAP2 SUB SWAP1 REVERT JUMPDEST POP PUSH3 0x328 JUMP JUMPDEST PUSH1 0x0 DUP3 DUP2 MSTORE PUSH1 0x20 DUP2 SWAP1 MSTORE PUSH1 0x40 DUP1 DUP3 KECCAK256 PUSH1 0x2 ADD SLOAD SWAP1 MLOAD DUP4 SWAP3 DUP6 SWAP2 PUSH32 0xBD79B86FFE0AB8E8776151514217CD7CACD52C909F66475C3AF44E129F0B00FF SWAP2 SWAP1 LOG4 PUSH1 0x0 SWAP2 DUP3 MSTORE PUSH1 0x20 DUP3 SWAP1 MSTORE PUSH1 0x40 SWAP1 SWAP2 KECCAK256 PUSH1 0x2 ADD SSTORE JUMP JUMPDEST PUSH3 0x1CD DUP3 DUP3 PUSH3 0x1D1 JUMP JUMPDEST POP POP JUMP JUMPDEST PUSH1 0x0 DUP3 DUP2 MSTORE PUSH1 0x20 DUP2 DUP2 MSTORE PUSH1 0x40 SWAP1 SWAP2 KECCAK256 PUSH3 0x1F6 SWAP2 DUP4 SWAP1 PUSH3 0xE81 PUSH3 0x24A DUP3 SHL OR SWAP1 SHR JUMP JUMPDEST ISZERO PUSH3 0x1CD JUMPI PUSH3 0x206 PUSH3 0x26A JUMP JUMPDEST PUSH1 0x1 PUSH1 0x1 PUSH1 0xA0 SHL SUB AND DUP2 PUSH1 0x1 PUSH1 0x1 PUSH1 0xA0 SHL SUB AND DUP4 PUSH32 0x2F8788117E7EFF1D82E926EC794901D17C78024A50270940304540A733656F0D PUSH1 0x40 MLOAD PUSH1 0x40 MLOAD DUP1 SWAP2 SUB SWAP1 LOG4 POP POP JUMP JUMPDEST PUSH1 0x0 PUSH3 0x261 DUP4 PUSH1 0x1 PUSH1 0x1 PUSH1 0xA0 SHL SUB DUP5 AND PUSH3 0x26E JUMP JUMPDEST SWAP1 POP JUMPDEST SWAP3 SWAP2 POP POP JUMP JUMPDEST CALLER SWAP1 JUMP JUMPDEST PUSH1 0x0 PUSH3 0x27C DUP4 DUP4 PUSH3 0x2BD JUMP JUMPDEST PUSH3 0x2B4 JUMPI POP DUP2 SLOAD PUSH1 0x1 DUP2 DUP2 ADD DUP5 SSTORE PUSH1 0x0 DUP5 DUP2 MSTORE PUSH1 0x20 DUP1 DUP3 KECCAK256 SWAP1 SWAP4 ADD DUP5 SWAP1 SSTORE DUP5 SLOAD DUP5 DUP3 MSTORE DUP3 DUP7 ADD SWAP1 SWAP4 MSTORE PUSH1 0x40 SWAP1 KECCAK256 SWAP2 SWAP1 SWAP2 SSTORE PUSH3 0x264 JUMP JUMPDEST POP PUSH1 0x0 PUSH3 0x264 JUMP JUMPDEST PUSH1 0x0 SWAP1 DUP2 MSTORE PUSH1 0x1 SWAP2 SWAP1 SWAP2 ADD PUSH1 0x20 MSTORE PUSH1 0x40 SWAP1 KECCAK256 SLOAD ISZERO ISZERO SWAP1 JUMP JUMPDEST PUSH1 0x0 PUSH1 0x20 DUP3 DUP5 SUB SLT ISZERO PUSH3 0x2E7 JUMPI DUP1 DUP2 REVERT JUMPDEST DUP2 MLOAD PUSH1 0x1 PUSH1 0x1 PUSH1 0xA0 SHL SUB DUP2 AND DUP2 EQ PUSH3 0x2FE JUMPI DUP2 DUP3 REVERT JUMPDEST SWAP4 SWAP3 POP POP POP JUMP JUMPDEST PUSH1 0x20 DUP1 DUP3 MSTORE PUSH1 0x9 SWAP1 DUP3 ADD MSTORE PUSH9 0xC17D050D0D3D55395 PUSH1 0xBA SHL PUSH1 0x40 DUP3 ADD MSTORE PUSH1 0x60 ADD SWAP1 JUMP JUMPDEST PUSH2 0x1737 DUP1 PUSH3 0x338 PUSH1 0x0 CODECOPY PUSH1 0x0 RETURN INVALID PUSH1 0x80 PUSH1 0x40 MSTORE CALLVALUE DUP1 ISZERO PUSH2 0x10 JUMPI PUSH1 0x0 DUP1 REVERT JUMPDEST POP PUSH1 0x4 CALLDATASIZE LT PUSH2 0x182 JUMPI PUSH1 0x0 CALLDATALOAD PUSH1 0xE0 SHR DUP1 PUSH4 0x7547A867 GT PUSH2 0xD8 JUMPI DUP1 PUSH4 0x97C3CCD8 GT PUSH2 0x8C JUMPI DUP1 PUSH4 0xCA15C873 GT PUSH2 0x66 JUMPI DUP1 PUSH4 0xCA15C873 EQ PUSH2 0x301 JUMPI DUP1 PUSH4 0xD547741F EQ PUSH2 0x314 JUMPI DUP1 PUSH4 0xDAEA85C5 EQ PUSH2 0x327 JUMPI PUSH2 0x182 JUMP JUMPDEST DUP1 PUSH4 0x97C3CCD8 EQ PUSH2 0x2DE JUMPI DUP1 PUSH4 0xA217FDDF EQ PUSH2 0x2F1 JUMPI DUP1 PUSH4 0xB8C55BFA EQ PUSH2 0x2F9 JUMPI PUSH2 0x182 JUMP JUMPDEST DUP1 PUSH4 0x81E45D9A GT PUSH2 0xBD JUMPI DUP1 PUSH4 0x81E45D9A EQ PUSH2 0x289 JUMPI DUP1 PUSH4 0x9010D07C EQ PUSH2 0x29E JUMPI DUP1 PUSH4 0x91D14854 EQ PUSH2 0x2BE JUMPI PUSH2 0x182 JUMP JUMPDEST DUP1 PUSH4 0x7547A867 EQ PUSH2 0x279 JUMPI DUP1 PUSH4 0x81792E44 EQ PUSH2 0x281 JUMPI PUSH2 0x182 JUMP JUMPDEST DUP1 PUSH4 0x29092D0E GT PUSH2 0x13A JUMPI DUP1 PUSH4 0x36568ABE GT PUSH2 0x114 JUMPI DUP1 PUSH4 0x36568ABE EQ PUSH2 0x23E JUMPI DUP1 PUSH4 0x3D111C7E EQ PUSH2 0x251 JUMPI DUP1 PUSH4 0x6BE018C3 EQ PUSH2 0x259 JUMPI PUSH2 0x182 JUMP JUMPDEST DUP1 PUSH4 0x29092D0E EQ PUSH2 0x1F8 JUMPI DUP1 PUSH4 0x2F2FF15D EQ PUSH2 0x20B JUMPI DUP1 PUSH4 0x31E658A5 EQ PUSH2 0x21E JUMPI PUSH2 0x182 JUMP JUMPDEST DUP1 PUSH4 0x100EC998 GT PUSH2 0x16B JUMPI DUP1 PUSH4 0x100EC998 EQ PUSH2 0x1C8 JUMPI DUP1 PUSH4 0x1E210912 EQ PUSH2 0x1DD JUMPI DUP1 PUSH4 0x248A9CA3 EQ PUSH2 0x1E5 JUMPI PUSH2 0x182 JUMP JUMPDEST DUP1 PUSH4 0x2A22337 EQ PUSH2 0x187 JUMPI DUP1 PUSH4 0x1003E2D2 EQ PUSH2 0x1B3 JUMPI JUMPDEST PUSH1 0x0 DUP1 REVERT JUMPDEST PUSH2 0x19A PUSH2 0x195 CALLDATASIZE PUSH1 0x4 PUSH2 0x11D0 JUMP JUMPDEST PUSH2 0x33A JUMP JUMPDEST PUSH1 0x40 MLOAD PUSH2 0x1AA SWAP5 SWAP4 SWAP3 SWAP2 SWAP1 PUSH2 0x16B7 JUMP JUMPDEST PUSH1 0x40 MLOAD DUP1 SWAP2 SUB SWAP1 RETURN JUMPDEST PUSH2 0x1C6 PUSH2 0x1C1 CALLDATASIZE PUSH1 0x4 PUSH2 0x1204 JUMP JUMPDEST PUSH2 0x375 JUMP JUMPDEST STOP JUMPDEST PUSH2 0x1D0 PUSH2 0x50F JUMP JUMPDEST PUSH1 0x40 MLOAD PUSH2 0x1AA SWAP2 SWAP1 PUSH2 0x12FE JUMP JUMPDEST PUSH2 0x1D0 PUSH2 0x533 JUMP JUMPDEST PUSH2 0x1D0 PUSH2 0x1F3 CALLDATASIZE PUSH1 0x4 PUSH2 0x1204 JUMP JUMPDEST PUSH2 0x557 JUMP JUMPDEST PUSH2 0x1C6 PUSH2 0x206 CALLDATASIZE PUSH1 0x4 PUSH2 0x11D0 JUMP JUMPDEST PUSH2 0x56C JUMP JUMPDEST PUSH2 0x1C6 PUSH2 0x219 CALLDATASIZE PUSH1 0x4 PUSH2 0x121C JUMP JUMPDEST PUSH2 0x695 JUMP JUMPDEST PUSH2 0x231 PUSH2 0x22C CALLDATASIZE PUSH1 0x4 PUSH2 0x11D0 JUMP JUMPDEST PUSH2 0x6F7 JUMP JUMPDEST PUSH1 0x40 MLOAD PUSH2 0x1AA SWAP2 SWAP1 PUSH2 0x167E JUMP JUMPDEST PUSH2 0x1C6 PUSH2 0x24C CALLDATASIZE PUSH1 0x4 PUSH2 0x121C JUMP JUMPDEST PUSH2 0x76F JUMP JUMPDEST PUSH2 0x1D0 PUSH2 0x7E5 JUMP JUMPDEST PUSH2 0x26C PUSH2 0x267 CALLDATASIZE PUSH1 0x4 PUSH2 0x1284 JUMP JUMPDEST PUSH2 0x809 JUMP JUMPDEST PUSH1 0x40 MLOAD PUSH2 0x1AA SWAP2 SWAP1 PUSH2 0x1307 JUMP JUMPDEST PUSH2 0x1D0 PUSH2 0x8B5 JUMP JUMPDEST PUSH2 0x1D0 PUSH2 0x8D9 JUMP JUMPDEST PUSH2 0x291 PUSH2 0x8FD JUMP JUMPDEST PUSH1 0x40 MLOAD PUSH2 0x1AA SWAP2 SWAP1 PUSH2 0x16DB JUMP JUMPDEST PUSH2 0x2B1 PUSH2 0x2AC CALLDATASIZE PUSH1 0x4 PUSH2 0x1263 JUMP JUMPDEST PUSH2 0x921 JUMP JUMPDEST PUSH1 0x40 MLOAD PUSH2 0x1AA SWAP2 SWAP1 PUSH2 0x12D2 JUMP JUMPDEST PUSH2 0x2D1 PUSH2 0x2CC CALLDATASIZE PUSH1 0x4 PUSH2 0x121C JUMP JUMPDEST PUSH2 0x940 JUMP JUMPDEST PUSH1 0x40 MLOAD PUSH2 0x1AA SWAP2 SWAP1 PUSH2 0x12F3 JUMP JUMPDEST PUSH2 0x1C6 PUSH2 0x2EC CALLDATASIZE PUSH1 0x4 PUSH2 0x11D0 JUMP JUMPDEST PUSH2 0x958 JUMP JUMPDEST PUSH2 0x1D0 PUSH2 0xB6C JUMP JUMPDEST PUSH2 0x1D0 PUSH2 0xB71 JUMP JUMPDEST PUSH2 0x1D0 PUSH2 0x30F CALLDATASIZE PUSH1 0x4 PUSH2 0x1204 JUMP JUMPDEST PUSH2 0xB95 JUMP JUMPDEST PUSH2 0x1C6 PUSH2 0x322 CALLDATASIZE PUSH1 0x4 PUSH2 0x121C JUMP JUMPDEST PUSH2 0xBAC JUMP JUMPDEST PUSH2 0x1C6 PUSH2 0x335 CALLDATASIZE PUSH1 0x4 PUSH2 0x11D0 JUMP JUMPDEST PUSH2 0xC00 JUMP JUMPDEST PUSH1 0x1 PUSH1 0x20 DUP2 SWAP1 MSTORE PUSH1 0x0 SWAP2 DUP3 MSTORE PUSH1 0x40 SWAP1 SWAP2 KECCAK256 DUP1 SLOAD SWAP2 ADD SLOAD PUSH4 0xFFFFFFFF DUP1 DUP3 AND SWAP2 PUSH5 0x100000000 DUP2 DIV DUP3 AND SWAP2 PUSH9 0x10000000000000000 SWAP1 SWAP2 DIV AND DUP5 JUMP JUMPDEST DUP1 PUSH2 0x3B5 JUMPI PUSH1 0x40 MLOAD PUSH32 0x8C379A000000000000000000000000000000000000000000000000000000000 DUP2 MSTORE PUSH1 0x4 ADD PUSH2 0x3AC SWAP1 PUSH2 0x14B1 JUMP JUMPDEST PUSH1 0x40 MLOAD DUP1 SWAP2 SUB SWAP1 REVERT JUMPDEST CALLER PUSH1 0x0 SWAP1 DUP2 MSTORE PUSH1 0x1 PUSH1 0x20 DUP2 SWAP1 MSTORE PUSH1 0x40 SWAP1 SWAP2 KECCAK256 DUP2 ADD SLOAD PUSH4 0xFFFFFFFF AND LT PUSH2 0x407 JUMPI PUSH1 0x40 MLOAD PUSH32 0x8C379A000000000000000000000000000000000000000000000000000000000 DUP2 MSTORE PUSH1 0x4 ADD PUSH2 0x3AC SWAP1 PUSH2 0x147A JUMP JUMPDEST PUSH1 0x40 DUP1 MLOAD PUSH1 0x80 DUP2 ADD DUP3 MSTORE DUP3 DUP2 MSTORE NUMBER PUSH4 0xFFFFFFFF SWAP1 DUP2 AND PUSH1 0x20 DUP1 DUP5 ADD SWAP2 DUP3 MSTORE DUP4 DUP6 ADD DUP4 DUP2 MSTORE PUSH1 0x60 DUP6 ADD DUP5 DUP2 MSTORE CALLER PUSH1 0x0 DUP2 DUP2 MSTORE PUSH1 0x1 SWAP5 DUP6 SWAP1 MSTORE DUP9 DUP2 KECCAK256 SWAP8 MLOAD DUP9 SSTORE SWAP5 MLOAD SWAP7 SWAP1 SWAP4 ADD DUP1 SLOAD SWAP3 MLOAD SWAP2 MLOAD PUSH32 0xFFFFFFFFFFFFFFFFFFFFFFFFFFFFFFFFFFFFFFFFFFFFFFFFFFFFFFFF00000000 SWAP1 SWAP4 AND SWAP7 DUP7 AND SWAP7 SWAP1 SWAP7 OR PUSH32 0xFFFFFFFFFFFFFFFFFFFFFFFFFFFFFFFFFFFFFFFFFFFFFFFF00000000FFFFFFFF AND PUSH5 0x100000000 SWAP2 DUP7 AND SWAP2 SWAP1 SWAP2 MUL OR PUSH32 0xFFFFFFFFFFFFFFFFFFFFFFFFFFFFFFFFFFFFFFFF00000000FFFFFFFFFFFFFFFF AND PUSH9 0x10000000000000000 SWAP2 SWAP1 SWAP5 AND MUL SWAP3 SWAP1 SWAP3 OR SWAP1 SWAP3 SSTORE SWAP2 MLOAD DUP4 SWAP3 SWAP2 PUSH32 0x2728C9D3205D667BBC0EEFDFEDA366261B4D021949630C047F3E5834B30611AB SWAP2 LOG3 POP JUMP JUMPDEST PUSH32 0x9D65F741849E7609DD1E2C70F0D7DA5F5433B36BFCF3BA4D27D2BB08AD2155B1 DUP2 JUMP JUMPDEST PUSH32 0x2D4D1D70BD81797C3479F5C3F873A5C9203D249659C3B317CDAD46367472783C DUP2 JUMP JUMPDEST PUSH1 0x0 SWAP1 DUP2 MSTORE PUSH1 0x20 DUP2 SWAP1 MSTORE PUSH1 0x40 SWAP1 KECCAK256 PUSH1 0x2 ADD SLOAD SWAP1 JUMP JUMPDEST PUSH20 0xFFFFFFFFFFFFFFFFFFFFFFFFFFFFFFFFFFFFFFFF DUP2 AND PUSH2 0x5B9 JUMPI PUSH1 0x40 MLOAD PUSH32 0x8C379A000000000000000000000000000000000000000000000000000000000 DUP2 MSTORE PUSH1 0x4 ADD PUSH2 0x3AC SWAP1 PUSH2 0x151F JUMP JUMPDEST PUSH2 0x5E3 PUSH32 0x794E4221EBB6DD4E460D558B4EC709511D44017D6610BA89DAA896C0684DDFAC CALLER PUSH2 0x940 JUMP JUMPDEST PUSH2 0x619 JUMPI PUSH1 0x40 MLOAD PUSH32 0x8C379A000000000000000000000000000000000000000000000000000000000 DUP2 MSTORE PUSH1 0x4 ADD PUSH2 0x3AC SWAP1 PUSH2 0x140C JUMP JUMPDEST PUSH20 0xFFFFFFFFFFFFFFFFFFFFFFFFFFFFFFFFFFFFFFFF DUP2 AND PUSH1 0x0 DUP2 DUP2 MSTORE PUSH1 0x1 PUSH1 0x20 DUP2 SWAP1 MSTORE PUSH1 0x40 DUP1 DUP4 KECCAK256 DUP4 DUP2 SSTORE SWAP1 SWAP2 ADD DUP1 SLOAD PUSH32 0xFFFFFFFFFFFFFFFFFFFFFFFFFFFFFFFFFFFFFFFF000000000000000000000000 AND SWAP1 SSTORE MLOAD PUSH32 0xBE7C7AC3248DF4581C206A84AAB3CB4E7D521B5398B42B681757F78A5A7D411E SWAP2 SWAP1 LOG2 POP JUMP JUMPDEST PUSH1 0x0 DUP3 DUP2 MSTORE PUSH1 0x20 DUP2 SWAP1 MSTORE PUSH1 0x40 SWAP1 KECCAK256 PUSH1 0x2 ADD SLOAD PUSH2 0x6B3 SWAP1 PUSH2 0x2CC PUSH2 0xEA3 JUMP JUMPDEST PUSH2 0x6E9 JUMPI PUSH1 0x40 MLOAD PUSH32 0x8C379A000000000000000000000000000000000000000000000000000000000 DUP2 MSTORE PUSH1 0x4 ADD PUSH2 0x3AC SWAP1 PUSH2 0x1378 JUMP JUMPDEST PUSH2 0x6F3 DUP3 DUP3 PUSH2 0xEA7 JUMP JUMPDEST POP POP JUMP JUMPDEST PUSH2 0x6FF PUSH2 0x11A9 JUMP JUMPDEST POP PUSH20 0xFFFFFFFFFFFFFFFFFFFFFFFFFFFFFFFFFFFFFFFF AND PUSH1 0x0 SWAP1 DUP2 MSTORE PUSH1 0x1 PUSH1 0x20 DUP2 DUP2 MSTORE PUSH1 0x40 SWAP3 DUP4 SWAP1 KECCAK256 DUP4 MLOAD PUSH1 0x80 DUP2 ADD DUP6 MSTORE DUP2 SLOAD DUP2 MSTORE SWAP3 ADD SLOAD PUSH4 0xFFFFFFFF DUP1 DUP3 AND SWAP3 DUP5 ADD SWAP3 SWAP1 SWAP3 MSTORE PUSH5 0x100000000 DUP2 DIV DUP3 AND SWAP4 DUP4 ADD SWAP4 SWAP1 SWAP4 MSTORE PUSH9 0x10000000000000000 SWAP1 SWAP3 DIV SWAP1 SWAP2 AND PUSH1 0x60 DUP3 ADD MSTORE SWAP1 JUMP JUMPDEST PUSH2 0x777 PUSH2 0xEA3 JUMP JUMPDEST PUSH20 0xFFFFFFFFFFFFFFFFFFFFFFFFFFFFFFFFFFFFFFFF AND DUP2 PUSH20 0xFFFFFFFFFFFFFFFFFFFFFFFFFFFFFFFFFFFFFFFF AND EQ PUSH2 0x7DB JUMPI PUSH1 0x40 MLOAD PUSH32 0x8C379A000000000000000000000000000000000000000000000000000000000 DUP2 MSTORE PUSH1 0x4 ADD PUSH2 0x3AC SWAP1 PUSH2 0x1621 JUMP JUMPDEST PUSH2 0x6F3 DUP3 DUP3 PUSH2 0xF2A JUMP JUMPDEST PUSH32 0x5FF1FB0CE9089603E6E193667ED17164E0360A6148F4A39FC194055588948A31 DUP2 JUMP JUMPDEST PUSH1 0x0 PUSH2 0x81B PUSH1 0x40 DUP5 ADD PUSH1 0x20 DUP6 ADD PUSH2 0x12B6 JUMP JUMPDEST PUSH4 0xFFFFFFFF AND PUSH2 0x82D JUMPI POP PUSH1 0x0 PUSH2 0x8AF JUMP JUMPDEST PUSH4 0xFFFFFFFF DUP3 AND PUSH2 0x844 PUSH1 0x80 DUP6 ADD PUSH1 0x60 DUP7 ADD PUSH2 0x12B6 JUMP JUMPDEST PUSH4 0xFFFFFFFF AND GT PUSH2 0x857 JUMPI POP PUSH1 0x3 PUSH2 0x8AF JUMP JUMPDEST PUSH4 0xFFFFFFFF DUP3 AND PUSH2 0x86E PUSH1 0x60 DUP6 ADD PUSH1 0x40 DUP7 ADD PUSH2 0x12B6 JUMP JUMPDEST PUSH4 0xFFFFFFFF AND GT PUSH2 0x881 JUMPI POP PUSH1 0x2 PUSH2 0x8AF JUMP JUMPDEST PUSH4 0xFFFFFFFF DUP3 AND PUSH2 0x898 PUSH1 0x40 DUP6 ADD PUSH1 0x20 DUP7 ADD PUSH2 0x12B6 JUMP JUMPDEST PUSH4 0xFFFFFFFF AND GT PUSH2 0x8AB JUMPI POP PUSH1 0x1 PUSH2 0x8AF JUMP JUMPDEST POP PUSH1 0x0 JUMPDEST SWAP3 SWAP2 POP POP JUMP JUMPDEST PUSH32 0x794E4221EBB6DD4E460D558B4EC709511D44017D6610BA89DAA896C0684DDFAC DUP2 JUMP JUMPDEST PUSH32 0xBB496CA6FEE71A17F78592FBC6FC7F04A436EDB9C709C4289D6BBFBC5FD45F4D DUP2 JUMP JUMPDEST PUSH32 0xFFFFFFFFFFFFFFFFFFFFFFFFFFFFFFFFFFFFFFFFFFFFFFFFFFFFFFFFFFFFFFFF DUP2 JUMP JUMPDEST PUSH1 0x0 DUP3 DUP2 MSTORE PUSH1 0x20 DUP2 SWAP1 MSTORE PUSH1 0x40 DUP2 KECCAK256 PUSH2 0x939 SWAP1 DUP4 PUSH2 0xFAD JUMP JUMPDEST SWAP4 SWAP3 POP POP POP JUMP JUMPDEST PUSH1 0x0 DUP3 DUP2 MSTORE PUSH1 0x20 DUP2 SWAP1 MSTORE PUSH1 0x40 DUP2 KECCAK256 PUSH2 0x939 SWAP1 DUP4 PUSH2 0xFB9 JUMP JUMPDEST PUSH20 0xFFFFFFFFFFFFFFFFFFFFFFFFFFFFFFFFFFFFFFFF DUP2 AND PUSH2 0x9A5 JUMPI PUSH1 0x40 MLOAD PUSH32 0x8C379A000000000000000000000000000000000000000000000000000000000 DUP2 MSTORE PUSH1 0x4 ADD PUSH2 0x3AC SWAP1 PUSH2 0x151F JUMP JUMPDEST PUSH2 0x9CF PUSH32 0x5A686C9D070917BE517818979FB56F451F007E3AE83E96FB5A22A304929B070D CALLER PUSH2 0x940 JUMP JUMPDEST PUSH2 0xA05 JUMPI PUSH1 0x40 MLOAD PUSH32 0x8C379A000000000000000000000000000000000000000000000000000000000 DUP2 MSTORE PUSH1 0x4 ADD PUSH2 0x3AC SWAP1 PUSH2 0x15B3 JUMP JUMPDEST PUSH20 0xFFFFFFFFFFFFFFFFFFFFFFFFFFFFFFFFFFFFFFFF DUP2 AND PUSH1 0x0 SWAP1 DUP2 MSTORE PUSH1 0x1 PUSH1 0x20 DUP2 SWAP1 MSTORE PUSH1 0x40 SWAP1 SWAP2 KECCAK256 ADD SLOAD PUSH4 0xFFFFFFFF AND PUSH2 0xA6B JUMPI PUSH1 0x40 MLOAD PUSH32 0x8C379A000000000000000000000000000000000000000000000000000000000 DUP2 MSTORE PUSH1 0x4 ADD PUSH2 0x3AC SWAP1 PUSH2 0x15EA JUMP JUMPDEST PUSH20 0xFFFFFFFFFFFFFFFFFFFFFFFFFFFFFFFFFFFFFFFF DUP2 AND PUSH1 0x0 SWAP1 DUP2 MSTORE PUSH1 0x1 PUSH1 0x20 DUP2 SWAP1 MSTORE PUSH1 0x40 SWAP1 SWAP2 KECCAK256 ADD SLOAD PUSH9 0x10000000000000000 SWAP1 DIV PUSH4 0xFFFFFFFF SWAP1 DUP2 AND EQ PUSH2 0xAE0 JUMPI PUSH1 0x40 MLOAD PUSH32 0x8C379A000000000000000000000000000000000000000000000000000000000 DUP2 MSTORE PUSH1 0x4 ADD PUSH2 0x3AC SWAP1 PUSH2 0x13D5 JUMP JUMPDEST PUSH20 0xFFFFFFFFFFFFFFFFFFFFFFFFFFFFFFFFFFFFFFFF DUP2 AND PUSH1 0x0 DUP2 DUP2 MSTORE PUSH1 0x1 PUSH1 0x20 DUP2 SWAP1 MSTORE PUSH1 0x40 DUP1 DUP4 KECCAK256 SWAP1 SWAP2 ADD DUP1 SLOAD PUSH32 0xFFFFFFFFFFFFFFFFFFFFFFFFFFFFFFFFFFFFFFFF00000000FFFFFFFFFFFFFFFF AND PUSH9 0x10000000000000000 NUMBER PUSH4 0xFFFFFFFF AND MUL OR SWAP1 SSTORE MLOAD PUSH32 0x9A4E757235705BD178419ABC9FA645392C5C7DCE5B09940A81EF76794B84BD68 SWAP2 SWAP1 LOG2 POP JUMP JUMPDEST PUSH1 0x0 DUP2 JUMP JUMPDEST PUSH32 0x5A686C9D070917BE517818979FB56F451F007E3AE83E96FB5A22A304929B070D DUP2 JUMP JUMPDEST PUSH1 0x0 DUP2 DUP2 MSTORE PUSH1 0x20 DUP2 SWAP1 MSTORE PUSH1 0x40 DUP2 KECCAK256 PUSH2 0x8AF SWAP1 PUSH2 0xFDB JUMP JUMPDEST PUSH1 0x0 DUP3 DUP2 MSTORE PUSH1 0x20 DUP2 SWAP1 MSTORE PUSH1 0x40 SWAP1 KECCAK256 PUSH1 0x2 ADD SLOAD PUSH2 0xBCA SWAP1 PUSH2 0x2CC PUSH2 0xEA3 JUMP JUMPDEST PUSH2 0x7DB JUMPI PUSH1 0x40 MLOAD PUSH32 0x8C379A000000000000000000000000000000000000000000000000000000000 DUP2 MSTORE PUSH1 0x4 ADD PUSH2 0x3AC SWAP1 PUSH2 0x1556 JUMP JUMPDEST PUSH20 0xFFFFFFFFFFFFFFFFFFFFFFFFFFFFFFFFFFFFFFFF DUP2 AND PUSH2 0xC4D JUMPI PUSH1 0x40 MLOAD PUSH32 0x8C379A000000000000000000000000000000000000000000000000000000000 DUP2 MSTORE PUSH1 0x4 ADD PUSH2 0x3AC SWAP1 PUSH2 0x151F JUMP JUMPDEST PUSH2 0xC77 PUSH32 0x5FF1FB0CE9089603E6E193667ED17164E0360A6148F4A39FC194055588948A31 CALLER PUSH2 0x940 JUMP JUMPDEST PUSH2 0xCAD JUMPI PUSH1 0x40 MLOAD PUSH32 0x8C379A000000000000000000000000000000000000000000000000000000000 DUP2 MSTORE PUSH1 0x4 ADD PUSH2 0x3AC SWAP1 PUSH2 0x14E8 JUMP JUMPDEST PUSH20 0xFFFFFFFFFFFFFFFFFFFFFFFFFFFFFFFFFFFFFFFF DUP2 AND PUSH1 0x0 SWAP1 DUP2 MSTORE PUSH1 0x1 PUSH1 0x20 DUP2 SWAP1 MSTORE PUSH1 0x40 SWAP1 SWAP2 KECCAK256 ADD SLOAD PUSH4 0xFFFFFFFF AND PUSH2 0xD13 JUMPI PUSH1 0x40 MLOAD PUSH32 0x8C379A000000000000000000000000000000000000000000000000000000000 DUP2 MSTORE PUSH1 0x4 ADD PUSH2 0x3AC SWAP1 PUSH2 0x15EA JUMP JUMPDEST PUSH20 0xFFFFFFFFFFFFFFFFFFFFFFFFFFFFFFFFFFFFFFFF DUP2 AND PUSH1 0x0 SWAP1 DUP2 MSTORE PUSH1 0x1 PUSH1 0x20 DUP2 SWAP1 MSTORE PUSH1 0x40 SWAP1 SWAP2 KECCAK256 ADD SLOAD PUSH5 0x100000000 SWAP1 DIV PUSH4 0xFFFFFFFF SWAP1 DUP2 AND EQ PUSH2 0xD84 JUMPI PUSH1 0x40 MLOAD PUSH32 0x8C379A000000000000000000000000000000000000000000000000000000000 DUP2 MSTORE PUSH1 0x4 ADD PUSH2 0x3AC SWAP1 PUSH2 0x1443 JUMP JUMPDEST PUSH20 0xFFFFFFFFFFFFFFFFFFFFFFFFFFFFFFFFFFFFFFFF DUP2 AND PUSH1 0x0 SWAP1 DUP2 MSTORE PUSH1 0x1 PUSH1 0x20 DUP2 SWAP1 MSTORE PUSH1 0x40 SWAP1 SWAP2 KECCAK256 ADD SLOAD PUSH9 0x10000000000000000 SWAP1 DIV PUSH4 0xFFFFFFFF SWAP1 DUP2 AND EQ PUSH2 0xDF9 JUMPI PUSH1 0x40 MLOAD PUSH32 0x8C379A000000000000000000000000000000000000000000000000000000000 DUP2 MSTORE PUSH1 0x4 ADD PUSH2 0x3AC SWAP1 PUSH2 0x13D5 JUMP JUMPDEST PUSH20 0xFFFFFFFFFFFFFFFFFFFFFFFFFFFFFFFFFFFFFFFF DUP2 AND PUSH1 0x0 DUP2 DUP2 MSTORE PUSH1 0x1 PUSH1 0x20 DUP2 SWAP1 MSTORE PUSH1 0x40 DUP1 DUP4 KECCAK256 SWAP1 SWAP2 ADD DUP1 SLOAD PUSH32 0xFFFFFFFFFFFFFFFFFFFFFFFFFFFFFFFFFFFFFFFFFFFFFFFF00000000FFFFFFFF AND PUSH5 0x100000000 NUMBER PUSH4 0xFFFFFFFF AND MUL OR SWAP1 SSTORE MLOAD PUSH32 0x96BFCD230B7FF6B6FAE05762EDC541F5CB32225984541CF1A9C0B04BAC427A5E SWAP2 SWAP1 LOG2 POP JUMP JUMPDEST PUSH1 0x0 PUSH2 0x939 DUP4 PUSH20 0xFFFFFFFFFFFFFFFFFFFFFFFFFFFFFFFFFFFFFFFF DUP5 AND PUSH2 0xFE6 JUMP JUMPDEST CALLER SWAP1 JUMP JUMPDEST PUSH1 0x0 DUP3 DUP2 MSTORE PUSH1 0x20 DUP2 SWAP1 MSTORE PUSH1 0x40 SWAP1 KECCAK256 PUSH2 0xEBF SWAP1 DUP3 PUSH2 0xE81 JUMP JUMPDEST ISZERO PUSH2 0x6F3 JUMPI PUSH2 0xECC PUSH2 0xEA3 JUMP JUMPDEST PUSH20 0xFFFFFFFFFFFFFFFFFFFFFFFFFFFFFFFFFFFFFFFF AND DUP2 PUSH20 0xFFFFFFFFFFFFFFFFFFFFFFFFFFFFFFFFFFFFFFFF AND DUP4 PUSH32 0x2F8788117E7EFF1D82E926EC794901D17C78024A50270940304540A733656F0D PUSH1 0x40 MLOAD PUSH1 0x40 MLOAD DUP1 SWAP2 SUB SWAP1 LOG4 POP POP JUMP JUMPDEST PUSH1 0x0 DUP3 DUP2 MSTORE PUSH1 0x20 DUP2 SWAP1 MSTORE PUSH1 0x40 SWAP1 KECCAK256 PUSH2 0xF42 SWAP1 DUP3 PUSH2 0x1028 JUMP JUMPDEST ISZERO PUSH2 0x6F3 JUMPI PUSH2 0xF4F PUSH2 0xEA3 JUMP JUMPDEST PUSH20 0xFFFFFFFFFFFFFFFFFFFFFFFFFFFFFFFFFFFFFFFF AND DUP2 PUSH20 0xFFFFFFFFFFFFFFFFFFFFFFFFFFFFFFFFFFFFFFFF AND DUP4 PUSH32 0xF6391F5C32D9C69D2A47EA670B442974B53935D1EDC7FD64EB21E047A839171B PUSH1 0x40 MLOAD PUSH1 0x40 MLOAD DUP1 SWAP2 SUB SWAP1 LOG4 POP POP JUMP JUMPDEST PUSH1 0x0 PUSH2 0x939 DUP4 DUP4 PUSH2 0x104A JUMP JUMPDEST PUSH1 0x0 PUSH2 0x939 DUP4 PUSH20 0xFFFFFFFFFFFFFFFFFFFFFFFFFFFFFFFFFFFFFFFF DUP5 AND PUSH2 0x10A9 JUMP JUMPDEST PUSH1 0x0 PUSH2 0x8AF DUP3 PUSH2 0x10C1 JUMP JUMPDEST PUSH1 0x0 PUSH2 0xFF2 DUP4 DUP4 PUSH2 0x10A9 JUMP JUMPDEST PUSH2 0x8AB JUMPI POP DUP2 SLOAD PUSH1 0x1 DUP2 DUP2 ADD DUP5 SSTORE PUSH1 0x0 DUP5 DUP2 MSTORE PUSH1 0x20 DUP1 DUP3 KECCAK256 SWAP1 SWAP4 ADD DUP5 SWAP1 SSTORE DUP5 SLOAD DUP5 DUP3 MSTORE DUP3 DUP7 ADD SWAP1 SWAP4 MSTORE PUSH1 0x40 SWAP1 KECCAK256 SWAP2 SWAP1 SWAP2 SSTORE PUSH2 0x8AF JUMP JUMPDEST PUSH1 0x0 PUSH2 0x939 DUP4 PUSH20 0xFFFFFFFFFFFFFFFFFFFFFFFFFFFFFFFFFFFFFFFF DUP5 AND PUSH2 0x10C5 JUMP JUMPDEST DUP2 SLOAD PUSH1 0x0 SWAP1 DUP3 LT PUSH2 0x1087 JUMPI PUSH1 0x40 MLOAD PUSH32 0x8C379A000000000000000000000000000000000000000000000000000000000 DUP2 MSTORE PUSH1 0x4 ADD PUSH2 0x3AC SWAP1 PUSH2 0x131B JUMP JUMPDEST DUP3 PUSH1 0x0 ADD DUP3 DUP2 SLOAD DUP2 LT PUSH2 0x1096 JUMPI INVALID JUMPDEST SWAP1 PUSH1 0x0 MSTORE PUSH1 0x20 PUSH1 0x0 KECCAK256 ADD SLOAD SWAP1 POP SWAP3 SWAP2 POP POP JUMP JUMPDEST PUSH1 0x0 SWAP1 DUP2 MSTORE PUSH1 0x1 SWAP2 SWAP1 SWAP2 ADD PUSH1 0x20 MSTORE PUSH1 0x40 SWAP1 KECCAK256 SLOAD ISZERO ISZERO SWAP1 JUMP JUMPDEST SLOAD SWAP1 JUMP JUMPDEST PUSH1 0x0 DUP2 DUP2 MSTORE PUSH1 0x1 DUP4 ADD PUSH1 0x20 MSTORE PUSH1 0x40 DUP2 KECCAK256 SLOAD DUP1 ISZERO PUSH2 0x119F JUMPI DUP4 SLOAD PUSH32 0xFFFFFFFFFFFFFFFFFFFFFFFFFFFFFFFFFFFFFFFFFFFFFFFFFFFFFFFFFFFFFFFF DUP1 DUP4 ADD SWAP2 SWAP1 DUP2 ADD SWAP1 PUSH1 0x0 SWAP1 DUP8 SWAP1 DUP4 SWAP1 DUP2 LT PUSH2 0x1116 JUMPI INVALID JUMPDEST SWAP1 PUSH1 0x0 MSTORE PUSH1 0x20 PUSH1 0x0 KECCAK256 ADD SLOAD SWAP1 POP DUP1 DUP8 PUSH1 0x0 ADD DUP5 DUP2 SLOAD DUP2 LT PUSH2 0x1133 JUMPI INVALID JUMPDEST PUSH1 0x0 SWAP2 DUP3 MSTORE PUSH1 0x20 DUP1 DUP4 KECCAK256 SWAP1 SWAP2 ADD SWAP3 SWAP1 SWAP3 SSTORE DUP3 DUP2 MSTORE PUSH1 0x1 DUP10 DUP2 ADD SWAP1 SWAP3 MSTORE PUSH1 0x40 SWAP1 KECCAK256 SWAP1 DUP5 ADD SWAP1 SSTORE DUP7 SLOAD DUP8 SWAP1 DUP1 PUSH2 0x1163 JUMPI INVALID JUMPDEST PUSH1 0x1 SWAP1 SUB DUP2 DUP2 SWAP1 PUSH1 0x0 MSTORE PUSH1 0x20 PUSH1 0x0 KECCAK256 ADD PUSH1 0x0 SWAP1 SSTORE SWAP1 SSTORE DUP7 PUSH1 0x1 ADD PUSH1 0x0 DUP8 DUP2 MSTORE PUSH1 0x20 ADD SWAP1 DUP2 MSTORE PUSH1 0x20 ADD PUSH1 0x0 KECCAK256 PUSH1 0x0 SWAP1 SSTORE PUSH1 0x1 SWAP5 POP POP POP POP POP PUSH2 0x8AF JUMP JUMPDEST PUSH1 0x0 SWAP2 POP POP PUSH2 0x8AF JUMP JUMPDEST PUSH1 0x40 DUP1 MLOAD PUSH1 0x80 DUP2 ADD DUP3 MSTORE PUSH1 0x0 DUP1 DUP3 MSTORE PUSH1 0x20 DUP3 ADD DUP2 SWAP1 MSTORE SWAP2 DUP2 ADD DUP3 SWAP1 MSTORE PUSH1 0x60 DUP2 ADD SWAP2 SWAP1 SWAP2 MSTORE SWAP1 JUMP JUMPDEST PUSH1 0x0 PUSH1 0x20 DUP3 DUP5 SUB SLT ISZERO PUSH2 0x11E1 JUMPI DUP1 DUP2 REVERT JUMPDEST DUP2 CALLDATALOAD PUSH20 0xFFFFFFFFFFFFFFFFFFFFFFFFFFFFFFFFFFFFFFFF DUP2 AND DUP2 EQ PUSH2 0x939 JUMPI DUP2 DUP3 REVERT JUMPDEST PUSH1 0x0 PUSH1 0x20 DUP3 DUP5 SUB SLT ISZERO PUSH2 0x1215 JUMPI DUP1 DUP2 REVERT JUMPDEST POP CALLDATALOAD SWAP2 SWAP1 POP JUMP JUMPDEST PUSH1 0x0 DUP1 PUSH1 0x40 DUP4 DUP6 SUB SLT ISZERO PUSH2 0x122E JUMPI DUP1 DUP2 REVERT JUMPDEST DUP3 CALLDATALOAD SWAP2 POP PUSH1 0x20 DUP4 ADD CALLDATALOAD PUSH20 0xFFFFFFFFFFFFFFFFFFFFFFFFFFFFFFFFFFFFFFFF DUP2 AND DUP2 EQ PUSH2 0x1258 JUMPI DUP2 DUP3 REVERT JUMPDEST DUP1 SWAP2 POP POP SWAP3 POP SWAP3 SWAP1 POP JUMP JUMPDEST PUSH1 0x0 DUP1 PUSH1 0x40 DUP4 DUP6 SUB SLT ISZERO PUSH2 0x1275 JUMPI DUP2 DUP3 REVERT JUMPDEST POP POP DUP1 CALLDATALOAD SWAP3 PUSH1 0x20 SWAP1 SWAP2 ADD CALLDATALOAD SWAP2 POP JUMP JUMPDEST PUSH1 0x0 DUP1 DUP3 DUP5 SUB PUSH1 0xA0 DUP2 SLT ISZERO PUSH2 0x1297 JUMPI DUP3 DUP4 REVERT JUMPDEST PUSH1 0x80 DUP2 SLT ISZERO PUSH2 0x12A4 JUMPI DUP3 DUP4 REVERT JUMPDEST POP DUP3 SWAP2 POP PUSH1 0x80 DUP4 ADD CALLDATALOAD PUSH2 0x1258 DUP2 PUSH2 0x16EC JUMP JUMPDEST PUSH1 0x0 PUSH1 0x20 DUP3 DUP5 SUB SLT ISZERO PUSH2 0x12C7 JUMPI DUP1 DUP2 REVERT JUMPDEST DUP2 CALLDATALOAD PUSH2 0x939 DUP2 PUSH2 0x16EC JUMP JUMPDEST PUSH20 0xFFFFFFFFFFFFFFFFFFFFFFFFFFFFFFFFFFFFFFFF SWAP2 SWAP1 SWAP2 AND DUP2 MSTORE PUSH1 0x20 ADD SWAP1 JUMP JUMPDEST SWAP1 ISZERO ISZERO DUP2 MSTORE PUSH1 0x20 ADD SWAP1 JUMP JUMPDEST SWAP1 DUP2 MSTORE PUSH1 0x20 ADD SWAP1 JUMP JUMPDEST PUSH1 0x20 DUP2 ADD PUSH1 0x4 DUP4 LT PUSH2 0x1315 JUMPI INVALID JUMPDEST SWAP2 SWAP1 MSTORE SWAP1 JUMP JUMPDEST PUSH1 0x20 DUP1 DUP3 MSTORE PUSH1 0x22 SWAP1 DUP3 ADD MSTORE PUSH32 0x456E756D657261626C655365743A20696E646578206F7574206F6620626F756E PUSH1 0x40 DUP3 ADD MSTORE PUSH32 0x6473000000000000000000000000000000000000000000000000000000000000 PUSH1 0x60 DUP3 ADD MSTORE PUSH1 0x80 ADD SWAP1 JUMP JUMPDEST PUSH1 0x20 DUP1 DUP3 MSTORE PUSH1 0x2F SWAP1 DUP3 ADD MSTORE PUSH32 0x416363657373436F6E74726F6C3A2073656E646572206D75737420626520616E PUSH1 0x40 DUP3 ADD MSTORE PUSH32 0x2061646D696E20746F206772616E740000000000000000000000000000000000 PUSH1 0x60 DUP3 ADD MSTORE PUSH1 0x80 ADD SWAP1 JUMP JUMPDEST PUSH1 0x20 DUP1 DUP3 MSTORE PUSH1 0x9 SWAP1 DUP3 ADD MSTORE PUSH32 0x5052494F525F42414E0000000000000000000000000000000000000000000000 PUSH1 0x40 DUP3 ADD MSTORE PUSH1 0x60 ADD SWAP1 JUMP JUMPDEST PUSH1 0x20 DUP1 DUP3 MSTORE PUSH1 0xC SWAP1 DUP3 ADD MSTORE PUSH32 0x4F4E4C595F52454D4F5645520000000000000000000000000000000000000000 PUSH1 0x40 DUP3 ADD MSTORE PUSH1 0x60 ADD SWAP1 JUMP JUMPDEST PUSH1 0x20 DUP1 DUP3 MSTORE PUSH1 0xD SWAP1 DUP3 ADD MSTORE PUSH32 0x5052494F525F415050524F564500000000000000000000000000000000000000 PUSH1 0x40 DUP3 ADD MSTORE PUSH1 0x60 ADD SWAP1 JUMP JUMPDEST PUSH1 0x20 DUP1 DUP3 MSTORE PUSH1 0x9 SWAP1 DUP3 ADD MSTORE PUSH32 0x5052494F525F4144440000000000000000000000000000000000000000000000 PUSH1 0x40 DUP3 ADD MSTORE PUSH1 0x60 ADD SWAP1 JUMP JUMPDEST PUSH1 0x20 DUP1 DUP3 MSTORE PUSH1 0x4 SWAP1 DUP3 ADD MSTORE PUSH32 0x305F494400000000000000000000000000000000000000000000000000000000 PUSH1 0x40 DUP3 ADD MSTORE PUSH1 0x60 ADD SWAP1 JUMP JUMPDEST PUSH1 0x20 DUP1 DUP3 MSTORE PUSH1 0xD SWAP1 DUP3 ADD MSTORE PUSH32 0x4F4E4C595F415050524F56455200000000000000000000000000000000000000 PUSH1 0x40 DUP3 ADD MSTORE PUSH1 0x60 ADD SWAP1 JUMP JUMPDEST PUSH1 0x20 DUP1 DUP3 MSTORE PUSH1 0x9 SWAP1 DUP3 ADD MSTORE PUSH32 0x305F414444524553530000000000000000000000000000000000000000000000 PUSH1 0x40 DUP3 ADD MSTORE PUSH1 0x60 ADD SWAP1 JUMP JUMPDEST PUSH1 0x20 DUP1 DUP3 MSTORE PUSH1 0x30 SWAP1 DUP3 ADD MSTORE PUSH32 0x416363657373436F6E74726F6C3A2073656E646572206D75737420626520616E PUSH1 0x40 DUP3 ADD MSTORE PUSH32 0x2061646D696E20746F207265766F6B6500000000000000000000000000000000 PUSH1 0x60 DUP3 ADD MSTORE PUSH1 0x80 ADD SWAP1 JUMP JUMPDEST PUSH1 0x20 DUP1 DUP3 MSTORE PUSH1 0xB SWAP1 DUP3 ADD MSTORE PUSH32 0x4F4E4C595F42414E4E4552000000000000000000000000000000000000000000 PUSH1 0x40 DUP3 ADD MSTORE PUSH1 0x60 ADD SWAP1 JUMP JUMPDEST PUSH1 0x20 DUP1 DUP3 MSTORE PUSH1 0x9 SWAP1 DUP3 ADD MSTORE PUSH32 0x4E4F545F41444445440000000000000000000000000000000000000000000000 PUSH1 0x40 DUP3 ADD MSTORE PUSH1 0x60 ADD SWAP1 JUMP JUMPDEST PUSH1 0x20 DUP1 DUP3 MSTORE PUSH1 0x2F SWAP1 DUP3 ADD MSTORE PUSH32 0x416363657373436F6E74726F6C3A2063616E206F6E6C792072656E6F756E6365 PUSH1 0x40 DUP3 ADD MSTORE PUSH32 0x20726F6C657320666F722073656C660000000000000000000000000000000000 PUSH1 0x60 DUP3 ADD MSTORE PUSH1 0x80 ADD SWAP1 JUMP JUMPDEST DUP2 MLOAD DUP2 MSTORE PUSH1 0x20 DUP1 DUP4 ADD MLOAD PUSH4 0xFFFFFFFF SWAP1 DUP2 AND SWAP2 DUP4 ADD SWAP2 SWAP1 SWAP2 MSTORE PUSH1 0x40 DUP1 DUP5 ADD MLOAD DUP3 AND SWAP1 DUP4 ADD MSTORE PUSH1 0x60 SWAP3 DUP4 ADD MLOAD AND SWAP2 DUP2 ADD SWAP2 SWAP1 SWAP2 MSTORE PUSH1 0x80 ADD SWAP1 JUMP JUMPDEST SWAP4 DUP5 MSTORE PUSH4 0xFFFFFFFF SWAP3 DUP4 AND PUSH1 0x20 DUP6 ADD MSTORE SWAP1 DUP3 AND PUSH1 0x40 DUP5 ADD MSTORE AND PUSH1 0x60 DUP3 ADD MSTORE PUSH1 0x80 ADD SWAP1 JUMP JUMPDEST PUSH4 0xFFFFFFFF SWAP2 SWAP1 SWAP2 AND DUP2 MSTORE PUSH1 0x20 ADD SWAP1 JUMP JUMPDEST PUSH4 0xFFFFFFFF DUP2 AND DUP2 EQ PUSH2 0x16FE JUMPI PUSH1 0x0 DUP1 REVERT JUMPDEST POP JUMP INVALID LOG2 PUSH5 0x6970667358 0x22 SLT KECCAK256 0xC4 PUSH26 0xB2741282E8C843CE13A669221C871D1957A767209F7F29C2BA1 RETURNDATACOPY 0xBD PUSH21 0x4464736F6C634300060C00332D4D1D70BD81797C34 PUSH26 0xF5C3F873A5C9203D249659C3B317CDAD46367472783CBB496CA6 INVALID 0xE7 BYTE OR 0xF7 DUP6 SWAP3 0xFB 0xC6 0xFC PUSH32 0x4A436EDB9C709C4289D6BBFBC5FD45F4D9D65F741849E7609DD1E2C70F0D7DA 0x5F SLOAD CALLER 0xB3 PUSH12 0xFCF3BA4D27D2BB08AD2155B1 LOG2 PUSH5 0x6970667358 0x22 SLT KECCAK256 0xC DUP16 0xDE 0x26 ADD CALLDATALOAD EXTCODEHASH MOD 0xE7 LT SHL LT DUP14 0xF9 XOR OR PUSH8 0xE750BE5538678904 SWAP15 PUSH3 0x771630 0x22 0xF8 PUSH5 0x736F6C6343 STOP MOD 0xC STOP CALLER "
        },
        "methodIdentifiers": {
          "createChild(address)": "eaa744d7",
          "createChild(bytes)": "2ea72a49",
          "isChild(address)": "fc91a897"
        }
      }
    }
  }
}