{
  "contracts/tier/TierByConstruction.sol": {
    "TierByConstruction": {
      "abi": [
        {
          "inputs": [
            {
              "internalType": "contract ITier",
              "name": "tierContract_",
              "type": "address"
            }
          ],
          "stateMutability": "nonpayable",
          "type": "constructor"
        },
        {
          "inputs": [],
          "name": "constructionBlock",
          "outputs": [
            {
              "internalType": "uint256",
              "name": "",
              "type": "uint256"
            }
          ],
          "stateMutability": "view",
          "type": "function"
        },
        {
          "inputs": [
            {
              "internalType": "address",
              "name": "account_",
              "type": "address"
            },
            {
              "internalType": "enum ITier.Tier",
              "name": "minimumTier_",
              "type": "uint8"
            }
          ],
          "name": "isTier",
          "outputs": [
            {
              "internalType": "bool",
              "name": "",
              "type": "bool"
            }
          ],
          "stateMutability": "view",
          "type": "function"
        },
        {
          "inputs": [],
          "name": "tierContract",
          "outputs": [
            {
              "internalType": "contract ITier",
              "name": "",
              "type": "address"
            }
          ],
          "stateMutability": "view",
          "type": "function"
        }
      ],
      "evm": {
        "bytecode": {
          "linkReferences": {},
          "object": "608060405234801561001057600080fd5b506040516102a13803806102a18339818101604052602081101561003357600080fd5b5051600080546001600160a01b039092166001600160a01b031990921691909117905543600155610238806100696000396000f3fe608060405234801561001057600080fd5b50600436106100415760003560e01c80630f0af57f1461004657806377544f3314610060578063a30872db146100b0575b600080fd5b61004e6100e1565b60408051918252519081900360200190f35b61009c6004803603604081101561007657600080fd5b50803573ffffffffffffffffffffffffffffffffffffffff16906020013560ff166100e7565b604080519115158252519081900360200190f35b6100b86101a0565b6040805173ffffffffffffffffffffffffffffffffffffffff9092168252519081900360200190f35b60015481565b60008054604080517fe053ea3100000000000000000000000000000000000000000000000000000000815273ffffffffffffffffffffffffffffffffffffffff8681166004830152915161019293929092169163e053ea3191602480820192602092909190829003018186803b15801561016057600080fd5b505afa158015610174573d6000803e3d6000fd5b505050506040513d602081101561018a57600080fd5b5051836101bc565b600154101590505b92915050565b60005473ffffffffffffffffffffffffffffffffffffffff1681565b6000808260088111156101cb57fe5b14156101d95750600061019a565b600060018360088111156101e957fe5b0360200290508084901c63ffffffff169150509291505056fea26469706673582212203c0c3f6f7f53f2ea98574064ecfb23680db8a3913c5b7adc2a3b2dd328c2e86064736f6c634300060c0033",
          "opcodes": "PUSH1 0x80 PUSH1 0x40 MSTORE CALLVALUE DUP1 ISZERO PUSH2 0x10 JUMPI PUSH1 0x0 DUP1 REVERT JUMPDEST POP PUSH1 0x40 MLOAD PUSH2 0x2A1 CODESIZE SUB DUP1 PUSH2 0x2A1 DUP4 CODECOPY DUP2 DUP2 ADD PUSH1 0x40 MSTORE PUSH1 0x20 DUP2 LT ISZERO PUSH2 0x33 JUMPI PUSH1 0x0 DUP1 REVERT JUMPDEST POP MLOAD PUSH1 0x0 DUP1 SLOAD PUSH1 0x1 PUSH1 0x1 PUSH1 0xA0 SHL SUB SWAP1 SWAP3 AND PUSH1 0x1 PUSH1 0x1 PUSH1 0xA0 SHL SUB NOT SWAP1 SWAP3 AND SWAP2 SWAP1 SWAP2 OR SWAP1 SSTORE NUMBER PUSH1 0x1 SSTORE PUSH2 0x238 DUP1 PUSH2 0x69 PUSH1 0x0 CODECOPY PUSH1 0x0 RETURN INVALID PUSH1 0x80 PUSH1 0x40 MSTORE CALLVALUE DUP1 ISZERO PUSH2 0x10 JUMPI PUSH1 0x0 DUP1 REVERT JUMPDEST POP PUSH1 0x4 CALLDATASIZE LT PUSH2 0x41 JUMPI PUSH1 0x0 CALLDATALOAD PUSH1 0xE0 SHR DUP1 PUSH4 0xF0AF57F EQ PUSH2 0x46 JUMPI DUP1 PUSH4 0x77544F33 EQ PUSH2 0x60 JUMPI DUP1 PUSH4 0xA30872DB EQ PUSH2 0xB0 JUMPI JUMPDEST PUSH1 0x0 DUP1 REVERT JUMPDEST PUSH2 0x4E PUSH2 0xE1 JUMP JUMPDEST PUSH1 0x40 DUP1 MLOAD SWAP2 DUP3 MSTORE MLOAD SWAP1 DUP2 SWAP1 SUB PUSH1 0x20 ADD SWAP1 RETURN JUMPDEST PUSH2 0x9C PUSH1 0x4 DUP1 CALLDATASIZE SUB PUSH1 0x40 DUP2 LT ISZERO PUSH2 0x76 JUMPI PUSH1 0x0 DUP1 REVERT JUMPDEST POP DUP1 CALLDATALOAD PUSH20 0xFFFFFFFFFFFFFFFFFFFFFFFFFFFFFFFFFFFFFFFF AND SWAP1 PUSH1 0x20 ADD CALLDATALOAD PUSH1 0xFF AND PUSH2 0xE7 JUMP JUMPDEST PUSH1 0x40 DUP1 MLOAD SWAP2 ISZERO ISZERO DUP3 MSTORE MLOAD SWAP1 DUP2 SWAP1 SUB PUSH1 0x20 ADD SWAP1 RETURN JUMPDEST PUSH2 0xB8 PUSH2 0x1A0 JUMP JUMPDEST PUSH1 0x40 DUP1 MLOAD PUSH20 0xFFFFFFFFFFFFFFFFFFFFFFFFFFFFFFFFFFFFFFFF SWAP1 SWAP3 AND DUP3 MSTORE MLOAD SWAP1 DUP2 SWAP1 SUB PUSH1 0x20 ADD SWAP1 RETURN JUMPDEST PUSH1 0x1 SLOAD DUP2 JUMP JUMPDEST PUSH1 0x0 DUP1 SLOAD PUSH1 0x40 DUP1 MLOAD PUSH32 0xE053EA3100000000000000000000000000000000000000000000000000000000 DUP2 MSTORE PUSH20 0xFFFFFFFFFFFFFFFFFFFFFFFFFFFFFFFFFFFFFFFF DUP7 DUP2 AND PUSH1 0x4 DUP4 ADD MSTORE SWAP2 MLOAD PUSH2 0x192 SWAP4 SWAP3 SWAP1 SWAP3 AND SWAP2 PUSH4 0xE053EA31 SWAP2 PUSH1 0x24 DUP1 DUP3 ADD SWAP3 PUSH1 0x20 SWAP3 SWAP1 SWAP2 SWAP1 DUP3 SWAP1 SUB ADD DUP2 DUP7 DUP1 EXTCODESIZE ISZERO DUP1 ISZERO PUSH2 0x160 JUMPI PUSH1 0x0 DUP1 REVERT JUMPDEST POP GAS STATICCALL ISZERO DUP1 ISZERO PUSH2 0x174 JUMPI RETURNDATASIZE PUSH1 0x0 DUP1 RETURNDATACOPY RETURNDATASIZE PUSH1 0x0 REVERT JUMPDEST POP POP POP POP PUSH1 0x40 MLOAD RETURNDATASIZE PUSH1 0x20 DUP2 LT ISZERO PUSH2 0x18A JUMPI PUSH1 0x0 DUP1 REVERT JUMPDEST POP MLOAD DUP4 PUSH2 0x1BC JUMP JUMPDEST PUSH1 0x1 SLOAD LT ISZERO SWAP1 POP JUMPDEST SWAP3 SWAP2 POP POP JUMP JUMPDEST PUSH1 0x0 SLOAD PUSH20 0xFFFFFFFFFFFFFFFFFFFFFFFFFFFFFFFFFFFFFFFF AND DUP2 JUMP JUMPDEST PUSH1 0x0 DUP1 DUP3 PUSH1 0x8 DUP2 GT ISZERO PUSH2 0x1CB JUMPI INVALID JUMPDEST EQ ISZERO PUSH2 0x1D9 JUMPI POP PUSH1 0x0 PUSH2 0x19A JUMP JUMPDEST PUSH1 0x0 PUSH1 0x1 DUP4 PUSH1 0x8 DUP2 GT ISZERO PUSH2 0x1E9 JUMPI INVALID JUMPDEST SUB PUSH1 0x20 MUL SWAP1 POP DUP1 DUP5 SWAP1 SHR PUSH4 0xFFFFFFFF AND SWAP2 POP POP SWAP3 SWAP2 POP POP JUMP INVALID LOG2 PUSH5 0x6970667358 0x22 SLT KECCAK256 EXTCODECOPY 0xC EXTCODEHASH PUSH16 0x7F53F2EA98574064ECFB23680DB8A391 EXTCODECOPY JUMPDEST PUSH27 0xDC2A3B2DD328C2E86064736F6C634300060C003300000000000000 "
        },
        "methodIdentifiers": {
          "constructionBlock()": "0f0af57f",
          "isTier(address,uint8)": "77544f33",
          "tierContract()": "a30872db"
        }
      }
    }
  }
}