{
  "contracts/claim/TierByConstructionClaim.sol": {
    "TierByConstructionClaim": {
      "abi": [
        {
          "inputs": [
            {
              "internalType": "contract ITier",
              "name": "tierContract_",
              "type": "address"
            },
            {
              "internalType": "enum ITier.Tier",
              "name": "minimumTier_",
              "type": "uint8"
            }
          ],
          "stateMutability": "nonpayable",
          "type": "constructor"
        },
        {
          "anonymous": false,
          "inputs": [
            {
              "indexed": true,
              "internalType": "address",
              "name": "account",
              "type": "address"
            },
            {
              "indexed": false,
              "internalType": "bytes",
              "name": "data",
              "type": "bytes"
            }
          ],
          "name": "Claim",
          "type": "event"
        },
        {
          "inputs": [
            {
              "internalType": "address",
              "name": "account_",
              "type": "address"
            },
            {
              "internalType": "bytes",
              "name": "data_",
              "type": "bytes"
            }
          ],
          "name": "claim",
          "outputs": [],
          "stateMutability": "nonpayable",
          "type": "function"
        },
        {
          "inputs": [
            {
              "internalType": "address",
              "name": "",
              "type": "address"
            }
          ],
          "name": "claims",
          "outputs": [
            {
              "internalType": "bool",
              "name": "",
              "type": "bool"
            }
          ],
          "stateMutability": "view",
          "type": "function"
        },
        {
          "inputs": [],
          "name": "constructionBlock",
          "outputs": [
            {
              "internalType": "uint256",
              "name": "",
              "type": "uint256"
            }
          ],
          "stateMutability": "view",
          "type": "function"
        },
        {
          "inputs": [
            {
              "internalType": "address",
              "name": "account_",
              "type": "address"
            },
            {
              "internalType": "enum ITier.Tier",
              "name": "minimumTier_",
              "type": "uint8"
            }
          ],
          "name": "isTier",
          "outputs": [
            {
              "internalType": "bool",
              "name": "",
              "type": "bool"
            }
          ],
          "stateMutability": "view",
          "type": "function"
        },
        {
          "inputs": [],
          "name": "minimumTier",
          "outputs": [
            {
              "internalType": "enum ITier.Tier",
              "name": "",
              "type": "uint8"
            }
          ],
          "stateMutability": "view",
          "type": "function"
        },
        {
          "inputs": [],
          "name": "tierContract",
          "outputs": [
            {
              "internalType": "contract ITier",
              "name": "",
              "type": "address"
            }
          ],
          "stateMutability": "view",
          "type": "function"
        }
      ],
      "evm": {
        "bytecode": {
          "linkReferences": {},
          "object": "60a060405234801561001057600080fd5b5060405161072a38038061072a8339818101604052604081101561003357600080fd5b508051602090910151600080546001600160a01b0319166001600160a01b0384161790554360015580600881111561006757fe5b608081600881111561007557fe5b60f81b905250505060805160f81c61068b61009f6000398061033852806105e8525061068b6000f3fe608060405234801561001057600080fd5b50600436106100725760003560e01c8063bb1757cf11610050578063bb1757cf14610112578063c6788bdd146101d7578063f1ebd5dd1461020a57610072565b80630f0af57f1461007757806377544f3314610091578063a30872db146100e1575b600080fd5b61007f610233565b60408051918252519081900360200190f35b6100cd600480360360408110156100a757600080fd5b50803573ffffffffffffffffffffffffffffffffffffffff16906020013560ff16610239565b604080519115158252519081900360200190f35b6100e96102f2565b6040805173ffffffffffffffffffffffffffffffffffffffff9092168252519081900360200190f35b6101d56004803603604081101561012857600080fd5b73ffffffffffffffffffffffffffffffffffffffff823516919081019060408101602082013564010000000081111561016057600080fd5b82018360208201111561017257600080fd5b8035906020019184600183028401116401000000008311171561019457600080fd5b91908080601f01602080910402602001604051908101604052809392919081815260200183838082843760009201919091525092955061030e945050505050565b005b6100cd600480360360208110156101ed57600080fd5b503573ffffffffffffffffffffffffffffffffffffffff166105d1565b6102126105e6565b6040518082600881111561022257fe5b815260200191505060405180910390f35b60015481565b60008054604080517fe053ea3100000000000000000000000000000000000000000000000000000000815273ffffffffffffffffffffffffffffffffffffffff868116600483015291516102e493929092169163e053ea3191602480820192602092909190829003018186803b1580156102b257600080fd5b505afa1580156102c6573d6000803e3d6000fd5b505050506040513d60208110156102dc57600080fd5b50518361060a565b600154101590505b92915050565b60005473ffffffffffffffffffffffffffffffffffffffff1681565b73ffffffffffffffffffffffffffffffffffffffff821660009081526002602052604090205482907f00000000000000000000000000000000000000000000000000000000000000009060ff16156103c757604080517f08c379a000000000000000000000000000000000000000000000000000000000815260206004820152600f60248201527f4455504c49434154455f434c41494d0000000000000000000000000000000000604482015290519081900360640190fd5b73ffffffffffffffffffffffffffffffffffffffff8416600081815260026020908152604080832080547fffffffffffffffffffffffffffffffffffffffffffffffffffffffffffffff00166001179055805182815287518184015287517fa16751aa65ef03fb7261c0a125a84854295c191657bda7151d4396246b1bbeb49489949293849390840192908601918190849084905b8381101561047457818101518382015260200161045c565b50505050905090810190601f1680156104a15780820380516001836020036101000a031916815260200191505b509250505060405180910390a2600054604080517fe053ea3100000000000000000000000000000000000000000000000000000000815273ffffffffffffffffffffffffffffffffffffffff80881660048301529151610556938893169163e053ea31916024808301926020929190829003018186803b15801561052457600080fd5b505afa158015610538573d6000803e3d6000fd5b505050506040513d602081101561054e57600080fd5b505185610650565b6105608282610239565b6105cb57604080517f08c379a000000000000000000000000000000000000000000000000000000000815260206004820152600c60248201527f4d494e494d554d5f544945520000000000000000000000000000000000000000604482015290519081900360640190fd5b50505050565b60026020526000908152604090205460ff1681565b7f000000000000000000000000000000000000000000000000000000000000000081565b60008082600881111561061957fe5b1415610627575060006102ec565b6000600183600881111561063757fe5b0360200290508084901c63ffffffff1691505092915050565b50505056fea2646970667358221220dac33697f8f97279f3b0960357220f9b14fcbd7d8e9689cf95cdeeb87612173964736f6c634300060c0033",
          "opcodes": "PUSH1 0xA0 PUSH1 0x40 MSTORE CALLVALUE DUP1 ISZERO PUSH2 0x10 JUMPI PUSH1 0x0 DUP1 REVERT JUMPDEST POP PUSH1 0x40 MLOAD PUSH2 0x72A CODESIZE SUB DUP1 PUSH2 0x72A DUP4 CODECOPY DUP2 DUP2 ADD PUSH1 0x40 MSTORE PUSH1 0x40 DUP2 LT ISZERO PUSH2 0x33 JUMPI PUSH1 0x0 DUP1 REVERT JUMPDEST POP DUP1 MLOAD PUSH1 0x20 SWAP1 SWAP2 ADD MLOAD PUSH1 0x0 DUP1 SLOAD PUSH1 0x1 PUSH1 0x1 PUSH1 0xA0 SHL SUB NOT AND PUSH1 0x1 PUSH1 0x1 PUSH1 0xA0 SHL SUB DUP5 AND OR SWAP1 SSTORE NUMBER PUSH1 0x1 SSTORE DUP1 PUSH1 0x8 DUP2 GT ISZERO PUSH2 0x67 JUMPI INVALID JUMPDEST PUSH1 0x80 DUP2 PUSH1 0x8 DUP2 GT ISZERO PUSH2 0x75 JUMPI INVALID JUMPDEST PUSH1 0xF8 SHL SWAP1 MSTORE POP POP POP PUSH1 0x80 MLOAD PUSH1 0xF8 SHR PUSH2 0x68B PUSH2 0x9F PUSH1 0x0 CODECOPY DUP1 PUSH2 0x338 MSTORE DUP1 PUSH2 0x5E8 MSTORE POP PUSH2 0x68B PUSH1 0x0 RETURN INVALID PUSH1 0x80 PUSH1 0x40 MSTORE CALLVALUE DUP1 ISZERO PUSH2 0x10 JUMPI PUSH1 0x0 DUP1 REVERT JUMPDEST POP PUSH1 0x4 CALLDATASIZE LT PUSH2 0x72 JUMPI PUSH1 0x0 CALLDATALOAD PUSH1 0xE0 SHR DUP1 PUSH4 0xBB1757CF GT PUSH2 0x50 JUMPI DUP1 PUSH4 0xBB1757CF EQ PUSH2 0x112 JUMPI DUP1 PUSH4 0xC6788BDD EQ PUSH2 0x1D7 JUMPI DUP1 PUSH4 0xF1EBD5DD EQ PUSH2 0x20A JUMPI PUSH2 0x72 JUMP JUMPDEST DUP1 PUSH4 0xF0AF57F EQ PUSH2 0x77 JUMPI DUP1 PUSH4 0x77544F33 EQ PUSH2 0x91 JUMPI DUP1 PUSH4 0xA30872DB EQ PUSH2 0xE1 JUMPI JUMPDEST PUSH1 0x0 DUP1 REVERT JUMPDEST PUSH2 0x7F PUSH2 0x233 JUMP JUMPDEST PUSH1 0x40 DUP1 MLOAD SWAP2 DUP3 MSTORE MLOAD SWAP1 DUP2 SWAP1 SUB PUSH1 0x20 ADD SWAP1 RETURN JUMPDEST PUSH2 0xCD PUSH1 0x4 DUP1 CALLDATASIZE SUB PUSH1 0x40 DUP2 LT ISZERO PUSH2 0xA7 JUMPI PUSH1 0x0 DUP1 REVERT JUMPDEST POP DUP1 CALLDATALOAD PUSH20 0xFFFFFFFFFFFFFFFFFFFFFFFFFFFFFFFFFFFFFFFF AND SWAP1 PUSH1 0x20 ADD CALLDATALOAD PUSH1 0xFF AND PUSH2 0x239 JUMP JUMPDEST PUSH1 0x40 DUP1 MLOAD SWAP2 ISZERO ISZERO DUP3 MSTORE MLOAD SWAP1 DUP2 SWAP1 SUB PUSH1 0x20 ADD SWAP1 RETURN JUMPDEST PUSH2 0xE9 PUSH2 0x2F2 JUMP JUMPDEST PUSH1 0x40 DUP1 MLOAD PUSH20 0xFFFFFFFFFFFFFFFFFFFFFFFFFFFFFFFFFFFFFFFF SWAP1 SWAP3 AND DUP3 MSTORE MLOAD SWAP1 DUP2 SWAP1 SUB PUSH1 0x20 ADD SWAP1 RETURN JUMPDEST PUSH2 0x1D5 PUSH1 0x4 DUP1 CALLDATASIZE SUB PUSH1 0x40 DUP2 LT ISZERO PUSH2 0x128 JUMPI PUSH1 0x0 DUP1 REVERT JUMPDEST PUSH20 0xFFFFFFFFFFFFFFFFFFFFFFFFFFFFFFFFFFFFFFFF DUP3 CALLDATALOAD AND SWAP2 SWAP1 DUP2 ADD SWAP1 PUSH1 0x40 DUP2 ADD PUSH1 0x20 DUP3 ADD CALLDATALOAD PUSH5 0x100000000 DUP2 GT ISZERO PUSH2 0x160 JUMPI PUSH1 0x0 DUP1 REVERT JUMPDEST DUP3 ADD DUP4 PUSH1 0x20 DUP3 ADD GT ISZERO PUSH2 0x172 JUMPI PUSH1 0x0 DUP1 REVERT JUMPDEST DUP1 CALLDATALOAD SWAP1 PUSH1 0x20 ADD SWAP2 DUP5 PUSH1 0x1 DUP4 MUL DUP5 ADD GT PUSH5 0x100000000 DUP4 GT OR ISZERO PUSH2 0x194 JUMPI PUSH1 0x0 DUP1 REVERT JUMPDEST SWAP2 SWAP1 DUP1 DUP1 PUSH1 0x1F ADD PUSH1 0x20 DUP1 SWAP2 DIV MUL PUSH1 0x20 ADD PUSH1 0x40 MLOAD SWAP1 DUP2 ADD PUSH1 0x40 MSTORE DUP1 SWAP4 SWAP3 SWAP2 SWAP1 DUP2 DUP2 MSTORE PUSH1 0x20 ADD DUP4 DUP4 DUP1 DUP3 DUP5 CALLDATACOPY PUSH1 0x0 SWAP3 ADD SWAP2 SWAP1 SWAP2 MSTORE POP SWAP3 SWAP6 POP PUSH2 0x30E SWAP5 POP POP POP POP POP JUMP JUMPDEST STOP JUMPDEST PUSH2 0xCD PUSH1 0x4 DUP1 CALLDATASIZE SUB PUSH1 0x20 DUP2 LT ISZERO PUSH2 0x1ED JUMPI PUSH1 0x0 DUP1 REVERT JUMPDEST POP CALLDATALOAD PUSH20 0xFFFFFFFFFFFFFFFFFFFFFFFFFFFFFFFFFFFFFFFF AND PUSH2 0x5D1 JUMP JUMPDEST PUSH2 0x212 PUSH2 0x5E6 JUMP JUMPDEST PUSH1 0x40 MLOAD DUP1 DUP3 PUSH1 0x8 DUP2 GT ISZERO PUSH2 0x222 JUMPI INVALID JUMPDEST DUP2 MSTORE PUSH1 0x20 ADD SWAP2 POP POP PUSH1 0x40 MLOAD DUP1 SWAP2 SUB SWAP1 RETURN JUMPDEST PUSH1 0x1 SLOAD DUP2 JUMP JUMPDEST PUSH1 0x0 DUP1 SLOAD PUSH1 0x40 DUP1 MLOAD PUSH32 0xE053EA3100000000000000000000000000000000000000000000000000000000 DUP2 MSTORE PUSH20 0xFFFFFFFFFFFFFFFFFFFFFFFFFFFFFFFFFFFFFFFF DUP7 DUP2 AND PUSH1 0x4 DUP4 ADD MSTORE SWAP2 MLOAD PUSH2 0x2E4 SWAP4 SWAP3 SWAP1 SWAP3 AND SWAP2 PUSH4 0xE053EA31 SWAP2 PUSH1 0x24 DUP1 DUP3 ADD SWAP3 PUSH1 0x20 SWAP3 SWAP1 SWAP2 SWAP1 DUP3 SWAP1 SUB ADD DUP2 DUP7 DUP1 EXTCODESIZE ISZERO DUP1 ISZERO PUSH2 0x2B2 JUMPI PUSH1 0x0 DUP1 REVERT JUMPDEST POP GAS STATICCALL ISZERO DUP1 ISZERO PUSH2 0x2C6 JUMPI RETURNDATASIZE PUSH1 0x0 DUP1 RETURNDATACOPY RETURNDATASIZE PUSH1 0x0 REVERT JUMPDEST POP POP POP POP PUSH1 0x40 MLOAD RETURNDATASIZE PUSH1 0x20 DUP2 LT ISZERO PUSH2 0x2DC JUMPI PUSH1 0x0 DUP1 REVERT JUMPDEST POP MLOAD DUP4 PUSH2 0x60A JUMP JUMPDEST PUSH1 0x1 SLOAD LT ISZERO SWAP1 POP JUMPDEST SWAP3 SWAP2 POP POP JUMP JUMPDEST PUSH1 0x0 SLOAD PUSH20 0xFFFFFFFFFFFFFFFFFFFFFFFFFFFFFFFFFFFFFFFF AND DUP2 JUMP JUMPDEST PUSH20 0xFFFFFFFFFFFFFFFFFFFFFFFFFFFFFFFFFFFFFFFF DUP3 AND PUSH1 0x0 SWAP1 DUP2 MSTORE PUSH1 0x2 PUSH1 0x20 MSTORE PUSH1 0x40 SWAP1 KECCAK256 SLOAD DUP3 SWAP1 PUSH32 0x0 SWAP1 PUSH1 0xFF AND ISZERO PUSH2 0x3C7 JUMPI PUSH1 0x40 DUP1 MLOAD PUSH32 0x8C379A000000000000000000000000000000000000000000000000000000000 DUP2 MSTORE PUSH1 0x20 PUSH1 0x4 DUP3 ADD MSTORE PUSH1 0xF PUSH1 0x24 DUP3 ADD MSTORE PUSH32 0x4455504C49434154455F434C41494D0000000000000000000000000000000000 PUSH1 0x44 DUP3 ADD MSTORE SWAP1 MLOAD SWAP1 DUP2 SWAP1 SUB PUSH1 0x64 ADD SWAP1 REVERT JUMPDEST PUSH20 0xFFFFFFFFFFFFFFFFFFFFFFFFFFFFFFFFFFFFFFFF DUP5 AND PUSH1 0x0 DUP2 DUP2 MSTORE PUSH1 0x2 PUSH1 0x20 SWAP1 DUP2 MSTORE PUSH1 0x40 DUP1 DUP4 KECCAK256 DUP1 SLOAD PUSH32 0xFFFFFFFFFFFFFFFFFFFFFFFFFFFFFFFFFFFFFFFFFFFFFFFFFFFFFFFFFFFFFF00 AND PUSH1 0x1 OR SWAP1 SSTORE DUP1 MLOAD DUP3 DUP2 MSTORE DUP8 MLOAD DUP2 DUP5 ADD MSTORE DUP8 MLOAD PUSH32 0xA16751AA65EF03FB7261C0A125A84854295C191657BDA7151D4396246B1BBEB4 SWAP5 DUP10 SWAP5 SWAP3 SWAP4 DUP5 SWAP4 SWAP1 DUP5 ADD SWAP3 SWAP1 DUP7 ADD SWAP2 DUP2 SWAP1 DUP5 SWAP1 DUP5 SWAP1 JUMPDEST DUP4 DUP2 LT ISZERO PUSH2 0x474 JUMPI DUP2 DUP2 ADD MLOAD DUP4 DUP3 ADD MSTORE PUSH1 0x20 ADD PUSH2 0x45C JUMP JUMPDEST POP POP POP POP SWAP1 POP SWAP1 DUP2 ADD SWAP1 PUSH1 0x1F AND DUP1 ISZERO PUSH2 0x4A1 JUMPI DUP1 DUP3 SUB DUP1 MLOAD PUSH1 0x1 DUP4 PUSH1 0x20 SUB PUSH2 0x100 EXP SUB NOT AND DUP2 MSTORE PUSH1 0x20 ADD SWAP2 POP JUMPDEST POP SWAP3 POP POP POP PUSH1 0x40 MLOAD DUP1 SWAP2 SUB SWAP1 LOG2 PUSH1 0x0 SLOAD PUSH1 0x40 DUP1 MLOAD PUSH32 0xE053EA3100000000000000000000000000000000000000000000000000000000 DUP2 MSTORE PUSH20 0xFFFFFFFFFFFFFFFFFFFFFFFFFFFFFFFFFFFFFFFF DUP1 DUP9 AND PUSH1 0x4 DUP4 ADD MSTORE SWAP2 MLOAD PUSH2 0x556 SWAP4 DUP9 SWAP4 AND SWAP2 PUSH4 0xE053EA31 SWAP2 PUSH1 0x24 DUP1 DUP4 ADD SWAP3 PUSH1 0x20 SWAP3 SWAP2 SWAP1 DUP3 SWAP1 SUB ADD DUP2 DUP7 DUP1 EXTCODESIZE ISZERO DUP1 ISZERO PUSH2 0x524 JUMPI PUSH1 0x0 DUP1 REVERT JUMPDEST POP GAS STATICCALL ISZERO DUP1 ISZERO PUSH2 0x538 JUMPI RETURNDATASIZE PUSH1 0x0 DUP1 RETURNDATACOPY RETURNDATASIZE PUSH1 0x0 REVERT JUMPDEST POP POP POP POP PUSH1 0x40 MLOAD RETURNDATASIZE PUSH1 0x20 DUP2 LT ISZERO PUSH2 0x54E JUMPI PUSH1 0x0 DUP1 REVERT JUMPDEST POP MLOAD DUP6 PUSH2 0x650 JUMP JUMPDEST PUSH2 0x560 DUP3 DUP3 PUSH2 0x239 JUMP JUMPDEST PUSH2 0x5CB JUMPI PUSH1 0x40 DUP1 MLOAD PUSH32 0x8C379A000000000000000000000000000000000000000000000000000000000 DUP2 MSTORE PUSH1 0x20 PUSH1 0x4 DUP3 ADD MSTORE PUSH1 0xC PUSH1 0x24 DUP3 ADD MSTORE PUSH32 0x4D494E494D554D5F544945520000000000000000000000000000000000000000 PUSH1 0x44 DUP3 ADD MSTORE SWAP1 MLOAD SWAP1 DUP2 SWAP1 SUB PUSH1 0x64 ADD SWAP1 REVERT JUMPDEST POP POP POP POP JUMP JUMPDEST PUSH1 0x2 PUSH1 0x20 MSTORE PUSH1 0x0 SWAP1 DUP2 MSTORE PUSH1 0x40 SWAP1 KECCAK256 SLOAD PUSH1 0xFF AND DUP2 JUMP JUMPDEST PUSH32 0x0 DUP2 JUMP JUMPDEST PUSH1 0x0 DUP1 DUP3 PUSH1 0x8 DUP2 GT ISZERO PUSH2 0x619 JUMPI INVALID JUMPDEST EQ ISZERO PUSH2 0x627 JUMPI POP PUSH1 0x0 PUSH2 0x2EC JUMP JUMPDEST PUSH1 0x0 PUSH1 0x1 DUP4 PUSH1 0x8 DUP2 GT ISZERO PUSH2 0x637 JUMPI INVALID JUMPDEST SUB PUSH1 0x20 MUL SWAP1 POP DUP1 DUP5 SWAP1 SHR PUSH4 0xFFFFFFFF AND SWAP2 POP POP SWAP3 SWAP2 POP POP JUMP JUMPDEST POP POP POP JUMP INVALID LOG2 PUSH5 0x6970667358 0x22 SLT KECCAK256 0xDA 0xC3 CALLDATASIZE SWAP8 0xF8 0xF9 PUSH19 0x79F3B0960357220F9B14FCBD7D8E9689CF95CD 0xEE 0xB8 PUSH23 0x12173964736F6C634300060C0033000000000000000000 "
        },
        "methodIdentifiers": {
          "claim(address,bytes)": "bb1757cf",
          "claims(address)": "c6788bdd",
          "constructionBlock()": "0f0af57f",
          "isTier(address,uint8)": "77544f33",
          "minimumTier()": "f1ebd5dd",
          "tierContract()": "a30872db"
        }
      }
    }
  }
}