{
  "contracts/test/TierByConstructionTest.sol": {
    "TierByConstructionTest": {
      "abi": [
        {
          "inputs": [
            {
              "internalType": "contract ITier",
              "name": "tier_",
              "type": "address"
            }
          ],
          "stateMutability": "nonpayable",
          "type": "constructor"
        },
        {
          "inputs": [],
          "name": "constructionBlock",
          "outputs": [
            {
              "internalType": "uint256",
              "name": "",
              "type": "uint256"
            }
          ],
          "stateMutability": "view",
          "type": "function"
        },
        {
          "inputs": [],
          "name": "ifEight",
          "outputs": [],
          "stateMutability": "view",
          "type": "function"
        },
        {
          "inputs": [],
          "name": "ifFive",
          "outputs": [],
          "stateMutability": "view",
          "type": "function"
        },
        {
          "inputs": [],
          "name": "ifFour",
          "outputs": [],
          "stateMutability": "view",
          "type": "function"
        },
        {
          "inputs": [],
          "name": "ifOne",
          "outputs": [],
          "stateMutability": "view",
          "type": "function"
        },
        {
          "inputs": [],
          "name": "ifSeven",
          "outputs": [],
          "stateMutability": "view",
          "type": "function"
        },
        {
          "inputs": [],
          "name": "ifSix",
          "outputs": [],
          "stateMutability": "view",
          "type": "function"
        },
        {
          "inputs": [],
          "name": "ifThree",
          "outputs": [],
          "stateMutability": "view",
          "type": "function"
        },
        {
          "inputs": [],
          "name": "ifTwo",
          "outputs": [],
          "stateMutability": "view",
          "type": "function"
        },
        {
          "inputs": [],
          "name": "ifZero",
          "outputs": [],
          "stateMutability": "view",
          "type": "function"
        },
        {
          "inputs": [
            {
              "internalType": "address",
              "name": "account_",
              "type": "address"
            },
            {
              "internalType": "enum ITier.Tier",
              "name": "minimumTier_",
              "type": "uint8"
            }
          ],
          "name": "isTier",
          "outputs": [
            {
              "internalType": "bool",
              "name": "",
              "type": "bool"
            }
          ],
          "stateMutability": "view",
          "type": "function"
        },
        {
          "inputs": [],
          "name": "tierContract",
          "outputs": [
            {
              "internalType": "contract ITier",
              "name": "",
              "type": "address"
            }
          ],
          "stateMutability": "view",
          "type": "function"
        },
        {
          "inputs": [],
          "name": "unlimited",
          "outputs": [],
          "stateMutability": "view",
          "type": "function"
        }
      ],
      "evm": {
        "bytecode": {
          "linkReferences": {},
          "object": "608060405234801561001057600080fd5b506040516104733803806104738339818101604052602081101561003357600080fd5b5051600080546001600160a01b039092166001600160a01b03199092169190911790554360015561040a806100696000396000f3fe608060405234801561001057600080fd5b50600436106100df5760003560e01c80637922deb51161008c578063cb457d4711610066578063cb457d47146101b1578063d1abd2de146101b9578063d78aafde146101c1578063e149ceb5146101c9576100df565b80637922deb5146101705780637bcd3dc514610178578063a30872db14610180576100df565b80636bdfcec6116100bd5780636bdfcec61461011057806375bf27871461011857806377544f3314610120576100df565b80630f0af57f146100e45780631fb3d151146100fe5780633f15225114610108575b600080fd5b6100ec6101d1565b60408051918252519081900360200190f35b6101066101d7565b005b610106610253565b610106610260565b61010661026d565b61015c6004803603604081101561013657600080fd5b50803573ffffffffffffffffffffffffffffffffffffffff16906020013560ff16610276565b604080519115158252519081900360200190f35b61010661032f565b61010661033c565b610188610349565b6040805173ffffffffffffffffffffffffffffffffffffffff9092168252519081900360200190f35b610106610365565b610106610367565b610106610374565b610106610381565b60015481565b3360086101e48282610276565b61024f57604080517f08c379a000000000000000000000000000000000000000000000000000000000815260206004820152600c60248201527f4d494e494d554d5f544945520000000000000000000000000000000000000000604482015290519081900360640190fd5b5050565b3360046101e48282610276565b3360066101e48282610276565b3360036101e482825b60008054604080517fe053ea3100000000000000000000000000000000000000000000000000000000815273ffffffffffffffffffffffffffffffffffffffff8681166004830152915161032193929092169163e053ea3191602480820192602092909190829003018186803b1580156102ef57600080fd5b505afa158015610303573d6000803e3d6000fd5b505050506040513d602081101561031957600080fd5b50518361038e565b600154101590505b92915050565b3360076101e48282610276565b3360006101e48282610276565b60005473ffffffffffffffffffffffffffffffffffffffff1681565b565b3360016101e48282610276565b3360056101e48282610276565b3360026101e48282610276565b60008082600881111561039d57fe5b14156103ab57506000610329565b600060018360088111156103bb57fe5b0360200290508084901c63ffffffff169150509291505056fea264697066735822122066d337b7c46328da3cca9ce99f5ca7c9589605b849c5b2d601cf6a759b4a642c64736f6c634300060c0033",
          "opcodes": "PUSH1 0x80 PUSH1 0x40 MSTORE CALLVALUE DUP1 ISZERO PUSH2 0x10 JUMPI PUSH1 0x0 DUP1 REVERT JUMPDEST POP PUSH1 0x40 MLOAD PUSH2 0x473 CODESIZE SUB DUP1 PUSH2 0x473 DUP4 CODECOPY DUP2 DUP2 ADD PUSH1 0x40 MSTORE PUSH1 0x20 DUP2 LT ISZERO PUSH2 0x33 JUMPI PUSH1 0x0 DUP1 REVERT JUMPDEST POP MLOAD PUSH1 0x0 DUP1 SLOAD PUSH1 0x1 PUSH1 0x1 PUSH1 0xA0 SHL SUB SWAP1 SWAP3 AND PUSH1 0x1 PUSH1 0x1 PUSH1 0xA0 SHL SUB NOT SWAP1 SWAP3 AND SWAP2 SWAP1 SWAP2 OR SWAP1 SSTORE NUMBER PUSH1 0x1 SSTORE PUSH2 0x40A DUP1 PUSH2 0x69 PUSH1 0x0 CODECOPY PUSH1 0x0 RETURN INVALID PUSH1 0x80 PUSH1 0x40 MSTORE CALLVALUE DUP1 ISZERO PUSH2 0x10 JUMPI PUSH1 0x0 DUP1 REVERT JUMPDEST POP PUSH1 0x4 CALLDATASIZE LT PUSH2 0xDF JUMPI PUSH1 0x0 CALLDATALOAD PUSH1 0xE0 SHR DUP1 PUSH4 0x7922DEB5 GT PUSH2 0x8C JUMPI DUP1 PUSH4 0xCB457D47 GT PUSH2 0x66 JUMPI DUP1 PUSH4 0xCB457D47 EQ PUSH2 0x1B1 JUMPI DUP1 PUSH4 0xD1ABD2DE EQ PUSH2 0x1B9 JUMPI DUP1 PUSH4 0xD78AAFDE EQ PUSH2 0x1C1 JUMPI DUP1 PUSH4 0xE149CEB5 EQ PUSH2 0x1C9 JUMPI PUSH2 0xDF JUMP JUMPDEST DUP1 PUSH4 0x7922DEB5 EQ PUSH2 0x170 JUMPI DUP1 PUSH4 0x7BCD3DC5 EQ PUSH2 0x178 JUMPI DUP1 PUSH4 0xA30872DB EQ PUSH2 0x180 JUMPI PUSH2 0xDF JUMP JUMPDEST DUP1 PUSH4 0x6BDFCEC6 GT PUSH2 0xBD JUMPI DUP1 PUSH4 0x6BDFCEC6 EQ PUSH2 0x110 JUMPI DUP1 PUSH4 0x75BF2787 EQ PUSH2 0x118 JUMPI DUP1 PUSH4 0x77544F33 EQ PUSH2 0x120 JUMPI PUSH2 0xDF JUMP JUMPDEST DUP1 PUSH4 0xF0AF57F EQ PUSH2 0xE4 JUMPI DUP1 PUSH4 0x1FB3D151 EQ PUSH2 0xFE JUMPI DUP1 PUSH4 0x3F152251 EQ PUSH2 0x108 JUMPI JUMPDEST PUSH1 0x0 DUP1 REVERT JUMPDEST PUSH2 0xEC PUSH2 0x1D1 JUMP JUMPDEST PUSH1 0x40 DUP1 MLOAD SWAP2 DUP3 MSTORE MLOAD SWAP1 DUP2 SWAP1 SUB PUSH1 0x20 ADD SWAP1 RETURN JUMPDEST PUSH2 0x106 PUSH2 0x1D7 JUMP JUMPDEST STOP JUMPDEST PUSH2 0x106 PUSH2 0x253 JUMP JUMPDEST PUSH2 0x106 PUSH2 0x260 JUMP JUMPDEST PUSH2 0x106 PUSH2 0x26D JUMP JUMPDEST PUSH2 0x15C PUSH1 0x4 DUP1 CALLDATASIZE SUB PUSH1 0x40 DUP2 LT ISZERO PUSH2 0x136 JUMPI PUSH1 0x0 DUP1 REVERT JUMPDEST POP DUP1 CALLDATALOAD PUSH20 0xFFFFFFFFFFFFFFFFFFFFFFFFFFFFFFFFFFFFFFFF AND SWAP1 PUSH1 0x20 ADD CALLDATALOAD PUSH1 0xFF AND PUSH2 0x276 JUMP JUMPDEST PUSH1 0x40 DUP1 MLOAD SWAP2 ISZERO ISZERO DUP3 MSTORE MLOAD SWAP1 DUP2 SWAP1 SUB PUSH1 0x20 ADD SWAP1 RETURN JUMPDEST PUSH2 0x106 PUSH2 0x32F JUMP JUMPDEST PUSH2 0x106 PUSH2 0x33C JUMP JUMPDEST PUSH2 0x188 PUSH2 0x349 JUMP JUMPDEST PUSH1 0x40 DUP1 MLOAD PUSH20 0xFFFFFFFFFFFFFFFFFFFFFFFFFFFFFFFFFFFFFFFF SWAP1 SWAP3 AND DUP3 MSTORE MLOAD SWAP1 DUP2 SWAP1 SUB PUSH1 0x20 ADD SWAP1 RETURN JUMPDEST PUSH2 0x106 PUSH2 0x365 JUMP JUMPDEST PUSH2 0x106 PUSH2 0x367 JUMP JUMPDEST PUSH2 0x106 PUSH2 0x374 JUMP JUMPDEST PUSH2 0x106 PUSH2 0x381 JUMP JUMPDEST PUSH1 0x1 SLOAD DUP2 JUMP JUMPDEST CALLER PUSH1 0x8 PUSH2 0x1E4 DUP3 DUP3 PUSH2 0x276 JUMP JUMPDEST PUSH2 0x24F JUMPI PUSH1 0x40 DUP1 MLOAD PUSH32 0x8C379A000000000000000000000000000000000000000000000000000000000 DUP2 MSTORE PUSH1 0x20 PUSH1 0x4 DUP3 ADD MSTORE PUSH1 0xC PUSH1 0x24 DUP3 ADD MSTORE PUSH32 0x4D494E494D554D5F544945520000000000000000000000000000000000000000 PUSH1 0x44 DUP3 ADD MSTORE SWAP1 MLOAD SWAP1 DUP2 SWAP1 SUB PUSH1 0x64 ADD SWAP1 REVERT JUMPDEST POP POP JUMP JUMPDEST CALLER PUSH1 0x4 PUSH2 0x1E4 DUP3 DUP3 PUSH2 0x276 JUMP JUMPDEST CALLER PUSH1 0x6 PUSH2 0x1E4 DUP3 DUP3 PUSH2 0x276 JUMP JUMPDEST CALLER PUSH1 0x3 PUSH2 0x1E4 DUP3 DUP3 JUMPDEST PUSH1 0x0 DUP1 SLOAD PUSH1 0x40 DUP1 MLOAD PUSH32 0xE053EA3100000000000000000000000000000000000000000000000000000000 DUP2 MSTORE PUSH20 0xFFFFFFFFFFFFFFFFFFFFFFFFFFFFFFFFFFFFFFFF DUP7 DUP2 AND PUSH1 0x4 DUP4 ADD MSTORE SWAP2 MLOAD PUSH2 0x321 SWAP4 SWAP3 SWAP1 SWAP3 AND SWAP2 PUSH4 0xE053EA31 SWAP2 PUSH1 0x24 DUP1 DUP3 ADD SWAP3 PUSH1 0x20 SWAP3 SWAP1 SWAP2 SWAP1 DUP3 SWAP1 SUB ADD DUP2 DUP7 DUP1 EXTCODESIZE ISZERO DUP1 ISZERO PUSH2 0x2EF JUMPI PUSH1 0x0 DUP1 REVERT JUMPDEST POP GAS STATICCALL ISZERO DUP1 ISZERO PUSH2 0x303 JUMPI RETURNDATASIZE PUSH1 0x0 DUP1 RETURNDATACOPY RETURNDATASIZE PUSH1 0x0 REVERT JUMPDEST POP POP POP POP PUSH1 0x40 MLOAD RETURNDATASIZE PUSH1 0x20 DUP2 LT ISZERO PUSH2 0x319 JUMPI PUSH1 0x0 DUP1 REVERT JUMPDEST POP MLOAD DUP4 PUSH2 0x38E JUMP JUMPDEST PUSH1 0x1 SLOAD LT ISZERO SWAP1 POP JUMPDEST SWAP3 SWAP2 POP POP JUMP JUMPDEST CALLER PUSH1 0x7 PUSH2 0x1E4 DUP3 DUP3 PUSH2 0x276 JUMP JUMPDEST CALLER PUSH1 0x0 PUSH2 0x1E4 DUP3 DUP3 PUSH2 0x276 JUMP JUMPDEST PUSH1 0x0 SLOAD PUSH20 0xFFFFFFFFFFFFFFFFFFFFFFFFFFFFFFFFFFFFFFFF AND DUP2 JUMP JUMPDEST JUMP JUMPDEST CALLER PUSH1 0x1 PUSH2 0x1E4 DUP3 DUP3 PUSH2 0x276 JUMP JUMPDEST CALLER PUSH1 0x5 PUSH2 0x1E4 DUP3 DUP3 PUSH2 0x276 JUMP JUMPDEST CALLER PUSH1 0x2 PUSH2 0x1E4 DUP3 DUP3 PUSH2 0x276 JUMP JUMPDEST PUSH1 0x0 DUP1 DUP3 PUSH1 0x8 DUP2 GT ISZERO PUSH2 0x39D JUMPI INVALID JUMPDEST EQ ISZERO PUSH2 0x3AB JUMPI POP PUSH1 0x0 PUSH2 0x329 JUMP JUMPDEST PUSH1 0x0 PUSH1 0x1 DUP4 PUSH1 0x8 DUP2 GT ISZERO PUSH2 0x3BB JUMPI INVALID JUMPDEST SUB PUSH1 0x20 MUL SWAP1 POP DUP1 DUP5 SWAP1 SHR PUSH4 0xFFFFFFFF AND SWAP2 POP POP SWAP3 SWAP2 POP POP JUMP INVALID LOG2 PUSH5 0x6970667358 0x22 SLT KECCAK256 PUSH7 0xD337B7C46328DA EXTCODECOPY 0xCA SWAP13 0xE9 SWAP16 0x5C 0xA7 0xC9 PC SWAP7 SDIV 0xB8 0x49 0xC5 0xB2 0xD6 ADD 0xCF PUSH11 0x759B4A642C64736F6C6343 STOP MOD 0xC STOP CALLER "
        },
        "methodIdentifiers": {
          "constructionBlock()": "0f0af57f",
          "ifEight()": "1fb3d151",
          "ifFive()": "d78aafde",
          "ifFour()": "3f152251",
          "ifOne()": "d1abd2de",
          "ifSeven()": "7922deb5",
          "ifSix()": "6bdfcec6",
          "ifThree()": "75bf2787",
          "ifTwo()": "e149ceb5",
          "ifZero()": "7bcd3dc5",
          "isTier(address,uint8)": "77544f33",
          "tierContract()": "a30872db",
          "unlimited()": "cb457d47"
        }
      }
    }
  }
}