{
  "contractName": "CRPFactory",
  "abi": [
    {
      "anonymous": false,
      "inputs": [
        {
          "indexed": true,
          "internalType": "address",
          "name": "caller",
          "type": "address"
        },
        {
          "indexed": true,
          "internalType": "address",
          "name": "pool",
          "type": "address"
        }
      ],
      "name": "LogNewCrp",
      "type": "event"
    },
    {
      "inputs": [
        {
          "internalType": "address",
          "name": "factoryAddress",
          "type": "address"
        },
        {
          "components": [
            {
              "internalType": "string",
              "name": "poolTokenSymbol",
              "type": "string"
            },
            {
              "internalType": "string",
              "name": "poolTokenName",
              "type": "string"
            },
            {
              "internalType": "address[]",
              "name": "constituentTokens",
              "type": "address[]"
            },
            {
              "internalType": "uint256[]",
              "name": "tokenBalances",
              "type": "uint256[]"
            },
            {
              "internalType": "uint256[]",
              "name": "tokenWeights",
              "type": "uint256[]"
            },
            {
              "internalType": "uint256",
              "name": "swapFee",
              "type": "uint256"
            }
          ],
          "internalType": "struct ConfigurableRightsPool.PoolParams",
          "name": "poolParams",
          "type": "tuple"
        },
        {
          "components": [
            {
              "internalType": "bool",
              "name": "canPauseSwapping",
              "type": "bool"
            },
            {
              "internalType": "bool",
              "name": "canChangeSwapFee",
              "type": "bool"
            },
            {
              "internalType": "bool",
              "name": "canChangeWeights",
              "type": "bool"
            },
            {
              "internalType": "bool",
              "name": "canAddRemoveTokens",
              "type": "bool"
            },
            {
              "internalType": "bool",
              "name": "canWhitelistLPs",
              "type": "bool"
            },
            {
              "internalType": "bool",
              "name": "canChangeCap",
              "type": "bool"
            }
          ],
          "internalType": "struct RightsManager.Rights",
          "name": "rights",
          "type": "tuple"
        }
      ],
      "name": "newCrp",
      "outputs": [
        {
          "internalType": "contract ConfigurableRightsPool",
          "name": "",
          "type": "address"
        }
      ],
      "stateMutability": "nonpayable",
      "type": "function"
    },
    {
      "inputs": [
        {
          "internalType": "address",
          "name": "addr",
          "type": "address"
        }
      ],
      "name": "isCrp",
      "outputs": [
        {
          "internalType": "bool",
          "name": "",
          "type": "bool"
        }
      ],
      "stateMutability": "view",
      "type": "function"
    }
  ],
  "bytecode": "0x608060405234801561001057600080fd5b5061a9bf806100206000396000f3fe60806040523480156200001157600080fd5b50600436106200003a5760003560e01c80634420002b146200003f578063dc19e8421462000075575b600080fd5b6200005d600480360381019062000057919062000455565b620000ab565b6040516200006c91906200094e565b60405180910390f35b6200009360048036038101906200008d919062000429565b62000349565b604051620000a2919062000931565b60405180910390f35b60006002838060400190620000c19190620009d1565b9050101562000107576040517f08c379a0000000000000000000000000000000000000000000000000000000008152600401620000fe90620009af565b60405180910390fd5b828060400190620001199190620009d1565b90508380606001906200012d919062000a2b565b90501462000172576040517f08c379a000000000000000000000000000000000000000000000000000000000815260040162000169906200098d565b60405180910390fd5b828060400190620001849190620009d1565b905083806080019062000198919062000a2b565b905014620001dd576040517f08c379a0000000000000000000000000000000000000000000000000000000008152600401620001d4906200096b565b60405180910390fd5b6000848484604051620001f0906200039e565b620001fe93929190620008ec565b604051809103906000f0801580156200021b573d6000803e3d6000fd5b5090508073ffffffffffffffffffffffffffffffffffffffff163373ffffffffffffffffffffffffffffffffffffffff167f8aaa45dbe91f274e1c80489691f3d62dbf595d587fcc6a989fa27696e7c2a23260405160405180910390a360016000808373ffffffffffffffffffffffffffffffffffffffff1673ffffffffffffffffffffffffffffffffffffffff16815260200190815260200160002060006101000a81548160ff0219169083151502179055508073ffffffffffffffffffffffffffffffffffffffff166392eefe9b336040518263ffffffff1660e01b81526004016200030a9190620008cf565b600060405180830381600087803b1580156200032557600080fd5b505af11580156200033a573d6000803e3d6000fd5b50505050809150509392505050565b60008060008373ffffffffffffffffffffffffffffffffffffffff1673ffffffffffffffffffffffffffffffffffffffff16815260200190815260200160002060009054906101000a900460ff169050919050565b619c348062000d5683390190565b600081359050620003bd8162000d07565b92915050565b600081359050620003d48162000d21565b92915050565b600060c08284031215620003ed57600080fd5b81905092915050565b600060c082840312156200040957600080fd5b81905092915050565b600081359050620004238162000d3b565b92915050565b6000602082840312156200043c57600080fd5b60006200044c84828501620003ac565b91505092915050565b600080600061010084860312156200046c57600080fd5b60006200047c86828701620003ac565b935050602084013567ffffffffffffffff8111156200049a57600080fd5b620004a886828701620003da565b9250506040620004bb86828701620003f6565b9150509250925092565b6000620004d38383620004f0565b60208301905092915050565b620004ea8162000c83565b82525050565b620004fb8162000c39565b82525050565b6200050c8162000c39565b82525050565b600062000520838562000a9c565b93506200052d8262000a85565b8060005b858110156200056e5762000546828462000ae0565b620005528882620004c5565b97506200055f8362000a8f565b92505060018101905062000531565b5085925050509392505050565b600062000589838562000aad565b93507f07ffffffffffffffffffffffffffffffffffffffffffffffffffffffffffffff831115620005b957600080fd5b602083029250620005cc83858462000ce7565b82840190509392505050565b620005e38162000c4d565b82525050565b620005f48162000c4d565b82525050565b620006058162000c97565b82525050565b600062000619838562000abe565b93506200062883858462000ce7565b620006338362000cf6565b840190509392505050565b60006200064d601a8362000acf565b91507f4552525f53544152545f574549474854535f4d49534d415443480000000000006000830152602082019050919050565b60006200068f601b8362000acf565b91507f4552525f53544152545f42414c414e4345535f4d49534d4154434800000000006000830152602082019050919050565b6000620006d160128362000acf565b91507f4552525f544f4f5f4645575f544f4b454e5300000000000000000000000000006000830152602082019050919050565b600060c0830162000719600084018462000bc6565b85830360008701526200072e8382846200060b565b9250505062000741602084018462000bc6565b8583036020870152620007568382846200060b565b9250505062000769604084018462000af9565b85830360408701526200077e83828462000512565b9250505062000791606084018462000b53565b8583036060870152620007a68382846200057b565b92505050620007b9608084018462000b53565b8583036080870152620007ce8382846200057b565b92505050620007e160a084018462000c20565b620007f060a0860182620008be565b508091505092915050565b60c082016200080e600083018362000bad565b6200081d6000850182620005d8565b506200082d602083018362000bad565b6200083c6020850182620005d8565b506200084c604083018362000bad565b6200085b6040850182620005d8565b506200086b606083018362000bad565b6200087a6060850182620005d8565b506200088a608083018362000bad565b620008996080850182620005d8565b50620008a960a083018362000bad565b620008b860a0850182620005d8565b50505050565b620008c98162000c79565b82525050565b6000602082019050620008e66000830184620004df565b92915050565b60006101008201905062000904600083018662000501565b818103602083015262000918818562000704565b9050620009296040830184620007fb565b949350505050565b6000602082019050620009486000830184620005e9565b92915050565b6000602082019050620009656000830184620005fa565b92915050565b6000602082019050818103600083015262000986816200063e565b9050919050565b60006020820190508181036000830152620009a88162000680565b9050919050565b60006020820190508181036000830152620009ca81620006c2565b9050919050565b60008083356001602003843603038112620009eb57600080fd5b80840192508235915067ffffffffffffffff82111562000a0a57600080fd5b60208301925060208202360383131562000a2357600080fd5b509250929050565b6000808335600160200384360303811262000a4557600080fd5b80840192508235915067ffffffffffffffff82111562000a6457600080fd5b60208301925060208202360383131562000a7d57600080fd5b509250929050565b6000819050919050565b6000602082019050919050565b600082825260208201905092915050565b600082825260208201905092915050565b600082825260208201905092915050565b600082825260208201905092915050565b600062000af16020840184620003ac565b905092915050565b6000808335600160200384360303811262000b1357600080fd5b83810192508235915060208301925067ffffffffffffffff82111562000b3857600080fd5b60208202360384131562000b4b57600080fd5b509250929050565b6000808335600160200384360303811262000b6d57600080fd5b83810192508235915060208301925067ffffffffffffffff82111562000b9257600080fd5b60208202360384131562000ba557600080fd5b509250929050565b600062000bbe6020840184620003c3565b905092915050565b6000808335600160200384360303811262000be057600080fd5b83810192508235915060208301925067ffffffffffffffff82111562000c0557600080fd5b60018202360384131562000c1857600080fd5b509250929050565b600062000c31602084018462000412565b905092915050565b600062000c468262000c59565b9050919050565b60008115159050919050565b600073ffffffffffffffffffffffffffffffffffffffff82169050919050565b6000819050919050565b600062000c908262000cbf565b9050919050565b600062000ca48262000cab565b9050919050565b600062000cb88262000c59565b9050919050565b600062000ccc8262000cd3565b9050919050565b600062000ce08262000c59565b9050919050565b82818337600083830152505050565b6000601f19601f8301169050919050565b62000d128162000c39565b811462000d1e57600080fd5b50565b62000d2c8162000c4d565b811462000d3857600080fd5b50565b62000d468162000c79565b811462000d5257600080fd5b5056fe60806040523480156200001157600080fd5b5060405162009c3438038062009c34833981810160405281019062000037919062000a2b565b81600001518260200151816003908051906020019062000059929190620004d9565b50806004908051906020019062000072929190620004d9565b50505033600560006101000a81548173ffffffffffffffffffffffffffffffffffffffff021916908373ffffffffffffffffffffffffffffffffffffffff1602179055506001600681905550620f4240670de0b6b3a764000081620000d357fe5b048260a0015110156200011d576040517f08c379a0000000000000000000000000000000000000000000000000000000008152600401620001149062000d04565b60405180910390fd5b600a670de0b6b3a7640000816200013057fe5b048260a0015111156200017a576040517f08c379a0000000000000000000000000000000000000000000000000000000008152600401620001719062000d04565b60405180910390fd5b81604001515182606001515114620001c9576040517f08c379a0000000000000000000000000000000000000000000000000000000008152600401620001c09062000cc0565b60405180910390fd5b8160400151518260800151511462000218576040517f08c379a00000000000000000000000000000000000000000000000000000000081526004016200020f9062000c9e565b60405180910390fd5b6002826040015151101562000264576040517f08c379a00000000000000000000000000000000000000000000000000000000081526004016200025b9062000ce2565b60405180910390fd5b60088260400151511115620002b0576040517f08c379a0000000000000000000000000000000000000000000000000000000008152600401620002a79062000d26565b60405180910390fd5b73__SmartPoolManager______________________6377d4434983604001516040518263ffffffff1660e01b8152600401620002ed919062000c7a565b60006040518083038186803b1580156200030657600080fd5b505af41580156200031b573d6000803e3d6000fd5b5050505082600760006101000a81548173ffffffffffffffffffffffffffffffffffffffff021916908373ffffffffffffffffffffffffffffffffffffffff16021790555080600960008201518160000160006101000a81548160ff02191690831515021790555060208201518160000160016101000a81548160ff02191690831515021790555060408201518160000160026101000a81548160ff02191690831515021790555060608201518160000160036101000a81548160ff02191690831515021790555060808201518160000160046101000a81548160ff02191690831515021790555060a08201518160000160056101000a81548160ff0219169083151502179055509050508160400151601390805190602001906200044292919062000560565b508160600151601490805190602001906200045f929190620005ef565b508160a0015160128190555062015f906015819055506101f46016819055508160800151600a60020190805190602001906200049d929190620005ef565b506000600a600001819055507fffffffffffffffffffffffffffffffffffffffffffffffffffffffffffffffff60188190555050505062000f0d565b828054600181600116156101000203166002900490600052602060002090601f016020900481019282601f106200051c57805160ff19168380011785556200054d565b828001600101855582156200054d579182015b828111156200054c5782518255916020019190600101906200052f565b5b5090506200055c919062000641565b5090565b828054828255906000526020600020908101928215620005dc579160200282015b82811115620005db5782518260006101000a81548173ffffffffffffffffffffffffffffffffffffffff021916908373ffffffffffffffffffffffffffffffffffffffff1602179055509160200191906001019062000581565b5b509050620005eb919062000660565b5090565b8280548282559060005260206000209081019282156200062e579160200282015b828111156200062d57825182559160200191906001019062000610565b5b5090506200063d919062000641565b5090565b5b808211156200065c57600081600090555060010162000642565b5090565b5b808211156200069957600081816101000a81549073ffffffffffffffffffffffffffffffffffffffff02191690555060010162000661565b5090565b600081519050620006ae8162000ebf565b92915050565b600082601f830112620006c657600080fd5b8151620006dd620006d78262000d76565b62000d48565b915081818352602084019350602081019050838560208402820111156200070357600080fd5b60005b838110156200073757816200071c88826200069d565b84526020840193506020830192505060018101905062000706565b5050505092915050565b600082601f8301126200075357600080fd5b81516200076a620007648262000d9f565b62000d48565b915081818352602084019350602081019050838560208402820111156200079057600080fd5b60005b83811015620007c45781620007a9888262000a14565b84526020840193506020830192505060018101905062000793565b5050505092915050565b600081519050620007df8162000ed9565b92915050565b600082601f830112620007f757600080fd5b81516200080e620008088262000dc8565b62000d48565b915080825260208301602083018583830111156200082b57600080fd5b6200083883828462000e89565b50505092915050565b600060c082840312156200085457600080fd5b6200086060c062000d48565b9050600082015167ffffffffffffffff8111156200087d57600080fd5b6200088b84828501620007e5565b600083015250602082015167ffffffffffffffff811115620008ac57600080fd5b620008ba84828501620007e5565b602083015250604082015167ffffffffffffffff811115620008db57600080fd5b620008e984828501620006b4565b604083015250606082015167ffffffffffffffff8111156200090a57600080fd5b620009188482850162000741565b606083015250608082015167ffffffffffffffff8111156200093957600080fd5b620009478482850162000741565b60808301525060a06200095d8482850162000a14565b60a08301525092915050565b600060c082840312156200097c57600080fd5b6200098860c062000d48565b905060006200099a84828501620007ce565b6000830152506020620009b084828501620007ce565b6020830152506040620009c684828501620007ce565b6040830152506060620009dc84828501620007ce565b6060830152506080620009f284828501620007ce565b60808301525060a062000a0884828501620007ce565b60a08301525092915050565b60008151905062000a258162000ef3565b92915050565b6000806000610100848603121562000a4257600080fd5b600062000a52868287016200069d565b935050602084015167ffffffffffffffff81111562000a7057600080fd5b62000a7e8682870162000841565b925050604062000a918682870162000969565b9150509250925092565b600062000aa9838362000ab5565b60208301905092915050565b62000ac08162000e3f565b82525050565b600062000ad38262000e05565b62000adf818562000e1d565b935062000aec8362000df5565b8060005b8381101562000b2357815162000b07888262000a9b565b975062000b148362000e10565b92505060018101905062000af0565b5085935050505092915050565b600062000b3f601a8362000e2e565b91507f4552525f53544152545f574549474854535f4d49534d415443480000000000006000830152602082019050919050565b600062000b81601b8362000e2e565b91507f4552525f53544152545f42414c414e4345535f4d49534d4154434800000000006000830152602082019050919050565b600062000bc360128362000e2e565b91507f4552525f544f4f5f4645575f544f4b454e5300000000000000000000000000006000830152602082019050919050565b600062000c0560148362000e2e565b91507f4552525f494e56414c49445f535741505f4645450000000000000000000000006000830152602082019050919050565b600062000c4760138362000e2e565b91507f4552525f544f4f5f4d414e595f544f4b454e53000000000000000000000000006000830152602082019050919050565b6000602082019050818103600083015262000c96818462000ac6565b905092915050565b6000602082019050818103600083015262000cb98162000b30565b9050919050565b6000602082019050818103600083015262000cdb8162000b72565b9050919050565b6000602082019050818103600083015262000cfd8162000bb4565b9050919050565b6000602082019050818103600083015262000d1f8162000bf6565b9050919050565b6000602082019050818103600083015262000d418162000c38565b9050919050565b6000604051905081810181811067ffffffffffffffff8211171562000d6c57600080fd5b8060405250919050565b600067ffffffffffffffff82111562000d8e57600080fd5b602082029050602081019050919050565b600067ffffffffffffffff82111562000db757600080fd5b602082029050602081019050919050565b600067ffffffffffffffff82111562000de057600080fd5b601f19601f8301169050602081019050919050565b6000819050602082019050919050565b600081519050919050565b6000602082019050919050565b600082825260208201905092915050565b600082825260208201905092915050565b600062000e4c8262000e5f565b9050919050565b60008115159050919050565b600073ffffffffffffffffffffffffffffffffffffffff82169050919050565b6000819050919050565b60005b8381101562000ea957808201518184015260208101905062000e8c565b8381111562000eb9576000848401525b50505050565b62000eca8162000e3f565b811462000ed657600080fd5b50565b62000ee48162000e53565b811462000ef057600080fd5b50565b62000efe8162000e7f565b811462000f0a57600080fd5b50565b618d178062000f1d6000396000f3fe608060405234801561001057600080fd5b506004361061035d5760003560e01c806370a08231116101d3578063b02f0b7311610104578063dd62ed3e116100a2578063e7f1a5541161007c578063e7f1a55414610a16578063e854f53d14610a34578063f226b52814610a52578063fde924f714610a705761035d565b8063dd62ed3e146109c0578063e211b875146109f0578063e2762d4b146109fa5761035d565b8063c3391d27116100de578063c3391d2714610936578063c42bd05a14610952578063c83a1c2d14610974578063d73dd623146109905761035d565b8063b02f0b73146108f2578063b64ef17b1461090e578063c275d81b1461092c5761035d565b80639776e94b116101715780639d829c2b1161014b5780639d829c2b14610868578063a3f4df7e14610886578063a835a0de146108a4578063a9059cbb146108c25761035d565b80639776e94b1461080b578063980e8db6146108275780639a82417e1461084a5761035d565b80638259e6a0116101ad5780638259e6a01461078557806392eefe9b146107a1578063948d8ce6146107bd57806395d89b41146107ed5761035d565b806370a082311461070757806374983a0d14610737578063806c6f87146107555761035d565b806334e19907116102ad5780634f69c0d41161024b5780635db34277116102255780635db342771461065b5780635fa7b5841461068b57806366188463146106a75780636d06dfa0146106d75761035d565b80634f69c0d41461060457806355c32a23146106205780635a8342d81461063c5761035d565b806347786d371161028757806347786d371461059457806349b59552146105b05780634ba57882146105cc5780634c20d209146105e85761035d565b806334e199071461051857806337c6f4d91461053457806346ab38f1146105645761035d565b806318160ddd1161031a578063246bc19b116102f4578063246bc19b146104a25780632e0f2625146104be5780633018205f146104dc578063313ce567146104fa5761035d565b806318160ddd14610438578063220eb7601461045657806323b872dd146104725761035d565b806302c967481461036257806306fdde0314610392578063095dcccc146103b0578063095ea7b3146103cc5780630a165940146103fc5780630ce279251461041a575b600080fd5b61037c600480360381019061037791906173db565b610a8e565b60405161038991906188c4565b60405180910390f35b61039a610d6d565b6040516103a79190618519565b60405180910390f35b6103ca60048036038101906103c5919061739f565b610e0f565b005b6103e660048036038101906103e1919061739f565b610e8b565b6040516103f391906181fb565b60405180910390f35b610404610f7d565b604051610411919061829b565b60405180910390f35b610422610fa3565b60405161042f91906188c4565b60405180910390f35b610440610fa9565b60405161044d91906188c4565b60405180910390f35b610470600480360381019061046b91906175bc565b610fb2565b005b61048c60048036038101906104879190617350565b61102c565b60405161049991906181fb565b60405180910390f35b6104bc60048036038101906104b7919061746b565b6113f7565b005b6104c6611726565b6040516104d39190618908565b60405180910390f35b6104e461172b565b6040516104f1919061806d565b60405180910390f35b610502611755565b60405161050f9190618908565b60405180910390f35b610532600480360381019061052d91906175bc565b61175e565b005b61054e60048036038101906105499190617593565b611a2c565b60405161055b91906181fb565b60405180910390f35b61057e600480360381019061057991906173db565b611abf565b60405161058b91906188c4565b60405180910390f35b6105ae60048036038101906105a991906175bc565b611d9e565b005b6105ca60048036038101906105c59190617518565b612038565b005b6105e660048036038101906105e191906175bc565b612306565b005b61060260048036038101906105fd91906173db565b612380565b005b61061e6004803603810190610619919061760e565b612775565b005b61063a6004803603810190610635919061739f565b612d71565b005b610644612ded565b6040516106529291906188df565b60405180910390f35b610675600480360381019061067091906173db565b612dff565b60405161068291906188c4565b60405180910390f35b6106a560048036038101906106a091906172eb565b613141565b005b6106c160048036038101906106bc919061739f565b6134aa565b6040516106ce91906181fb565b60405180910390f35b6106f160048036038101906106ec91906173db565b613731565b6040516106fe91906188c4565b60405180910390f35b610721600480360381019061071c91906172eb565b613a73565b60405161072e91906188c4565b60405180910390f35b61073f613abc565b60405161074c919061806d565b60405180910390f35b61076f600480360381019061076a91906172eb565b613ad8565b60405161077c91906181fb565b60405180910390f35b61079f600480360381019061079a91906175bc565b613b7f565b005b6107bb60048036038101906107b691906172eb565b613ce5565b005b6107d760048036038101906107d291906172eb565b613ea5565b6040516107e491906188c4565b60405180910390f35b6107f5614031565b6040516108029190618519565b60405180910390f35b6108256004803603810190610820919061739f565b6140d3565b005b61082f6143ec565b60405161084196959493929190618216565b60405180910390f35b610852614464565b60405161085f919061806d565b60405180910390f35b610870614480565b60405161087d919061806d565b60405180910390f35b61088e61449c565b60405161089b9190618519565b60405180910390f35b6108ac6144d5565b6040516108b991906188c4565b60405180910390f35b6108dc60048036038101906108d7919061739f565b6144db565b6040516108e991906181fb565b60405180910390f35b61090c6004803603810190610907919061760e565b614561565b005b610916614aeb565b60405161092391906182b6565b60405180910390f35b610934614b11565b005b610950600480360381019061094b9190617709565b614de3565b005b61095a614f9c565b60405161096b95949392919061811f565b60405180910390f35b61098e600480360381019061098991906172eb565b614fed565b005b6109aa60048036038101906109a5919061739f565b615264565b6040516109b791906181fb565b60405180910390f35b6109da60048036038101906109d59190617314565b615457565b6040516109e791906188c4565b60405180910390f35b6109f86154de565b005b610a146004803603810190610a0f91906172eb565b61571a565b005b610a1e615a1d565b604051610a2b91906188c4565b60405180910390f35b610a3c615a23565b604051610a4991906188c4565b60405180910390f35b610a5a615a29565b604051610a6791906188c4565b60405180910390f35b610a78615a30565b604051610a8591906181fb565b60405180910390f35b60003373ffffffffffffffffffffffffffffffffffffffff166000357fffffffff00000000000000000000000000000000000000000000000000000000167bffffffffffffffffffffffffffffffffffffffffffffffffffffffff1916600036604051610afc929190618277565b60405180910390a260026006541415610b4a576040517f08c379a0000000000000000000000000000000000000000000000000000000008152600401610b41906186bb565b60405180910390fd5b6002600681905550600073ffffffffffffffffffffffffffffffffffffffff16600860009054906101000a900473ffffffffffffffffffffffffffffffffffffffff1673ffffffffffffffffffffffffffffffffffffffff161415610be4576040517f08c379a0000000000000000000000000000000000000000000000000000000008152600401610bdb9061865b565b60405180910390fd5b60008073__SmartPoolManager______________________63724a2d5330600860009054906101000a900473ffffffffffffffffffffffffffffffffffffffff168989896040518663ffffffff1660e01b8152600401610c48959493929190618433565b604080518083038186803b158015610c5f57600080fd5b505af4158015610c73573d6000803e3d6000fd5b505050506040513d601f19601f82011682018060405250810190610c979190617666565b915091508092506000610caa8484615baf565b90508673ffffffffffffffffffffffffffffffffffffffff163373ffffffffffffffffffffffffffffffffffffffff167fc62fc35ac75e3bff532648e2859a3e1694002cfa357614ae8e034df7f83db5e988604051610d0991906188c4565b60405180910390a3610d1b3385615c0e565b610d2481615c1c565b610d50600760009054906101000a900473ffffffffffffffffffffffffffffffffffffffff1684615c28565b610d5b873388615c36565b50505060016006819055509392505050565b606060048054600181600116156101000203166002900480601f016020809104026020016040519081016040528092919081815260200182805460018160011615610100020316600290048015610e055780601f10610dda57610100808354040283529160200191610e05565b820191906000526020600020905b815481529060010190602001808311610de857829003601f168201915b5050505050905090565b3073ffffffffffffffffffffffffffffffffffffffff163373ffffffffffffffffffffffffffffffffffffffff1614610e7d576040517f08c379a0000000000000000000000000000000000000000000000000000000008152600401610e749061853b565b60405180910390fd5b610e878282615f99565b5050565b600081600260003373ffffffffffffffffffffffffffffffffffffffff1673ffffffffffffffffffffffffffffffffffffffff16815260200190815260200160002060008573ffffffffffffffffffffffffffffffffffffffff1673ffffffffffffffffffffffffffffffffffffffff168152602001908152602001600020819055508273ffffffffffffffffffffffffffffffffffffffff163373ffffffffffffffffffffffffffffffffffffffff167f8c5be1e5ebec7d5bd14f71427d1e84f3dd0314c0f7b2291e5b200ac8c7c3b92584604051610f6b91906188c4565b60405180910390a36001905092915050565b600760009054906101000a900473ffffffffffffffffffffffffffffffffffffffff1681565b60185481565b60008054905090565b3073ffffffffffffffffffffffffffffffffffffffff163373ffffffffffffffffffffffffffffffffffffffff1614611020576040517f08c379a00000000000000000000000000000000000000000000000000000000081526004016110179061853b565b60405180910390fd5b61102981615fa8565b50565b60008073ffffffffffffffffffffffffffffffffffffffff168373ffffffffffffffffffffffffffffffffffffffff16141561109d576040517f08c379a0000000000000000000000000000000000000000000000000000000008152600401611094906185db565b60405180910390fd5b8373ffffffffffffffffffffffffffffffffffffffff163373ffffffffffffffffffffffffffffffffffffffff1614806111535750600260008573ffffffffffffffffffffffffffffffffffffffff1673ffffffffffffffffffffffffffffffffffffffff16815260200190815260200160002060003373ffffffffffffffffffffffffffffffffffffffff1673ffffffffffffffffffffffffffffffffffffffff168152602001908152602001600020548211155b611192576040517f08c379a00000000000000000000000000000000000000000000000000000000081526004016111899061877b565b60405180910390fd5b61119d8484846160af565b6000600260008673ffffffffffffffffffffffffffffffffffffffff1673ffffffffffffffffffffffffffffffffffffffff16815260200190815260200160002060003373ffffffffffffffffffffffffffffffffffffffff1673ffffffffffffffffffffffffffffffffffffffff1681526020019081526020016000205490508473ffffffffffffffffffffffffffffffffffffffff163373ffffffffffffffffffffffffffffffffffffffff161415801561127a57507fffffffffffffffffffffffffffffffffffffffffffffffffffffffffffffffff8114155b156113eb576112898184615baf565b600260008773ffffffffffffffffffffffffffffffffffffffff1673ffffffffffffffffffffffffffffffffffffffff16815260200190815260200160002060003373ffffffffffffffffffffffffffffffffffffffff1673ffffffffffffffffffffffffffffffffffffffff168152602001908152602001600020819055508373ffffffffffffffffffffffffffffffffffffffff163373ffffffffffffffffffffffffffffffffffffffff167f8c5be1e5ebec7d5bd14f71427d1e84f3dd0314c0f7b2291e5b200ac8c7c3b925600260008973ffffffffffffffffffffffffffffffffffffffff1673ffffffffffffffffffffffffffffffffffffffff16815260200190815260200160002060003373ffffffffffffffffffffffffffffffffffffffff1673ffffffffffffffffffffffffffffffffffffffff168152602001908152602001600020546040516113e291906188c4565b60405180910390a35b60019150509392505050565b3373ffffffffffffffffffffffffffffffffffffffff166000357fffffffff00000000000000000000000000000000000000000000000000000000167bffffffffffffffffffffffffffffffffffffffffffffffffffffffff1916600036604051611463929190618277565b60405180910390a2600260065414156114b1576040517f08c379a00000000000000000000000000000000000000000000000000000000081526004016114a8906186bb565b60405180910390fd5b60026006819055503373ffffffffffffffffffffffffffffffffffffffff16600560009054906101000a900473ffffffffffffffffffffffffffffffffffffffff1673ffffffffffffffffffffffffffffffffffffffff1614611549576040517f08c379a00000000000000000000000000000000000000000000000000000000081526004016115409061853b565b60405180910390fd5b600073ffffffffffffffffffffffffffffffffffffffff16600860009054906101000a900473ffffffffffffffffffffffffffffffffffffffff1673ffffffffffffffffffffffffffffffffffffffff1614156115db576040517f08c379a00000000000000000000000000000000000000000000000000000000081526004016115d29061865b565b60405180910390fd5b600960000160029054906101000a900460ff1661162d576040517f08c379a00000000000000000000000000000000000000000000000000000000081526004016116249061861b565b60405180910390fd5b600e60000160149054906101000a900460ff1615611680576040517f08c379a00000000000000000000000000000000000000000000000000000000081526004016116779061879b565b60405180910390fd5b73__SmartPoolManager______________________6313b8bf24600860009054906101000a900473ffffffffffffffffffffffffffffffffffffffff16600a878787876015546040518863ffffffff1660e01b81526004016116e8979695949392919061834d565b60006040518083038186803b15801561170057600080fd5b505af4158015611714573d6000803e3d6000fd5b50505050600160068190555050505050565b601281565b6000600560009054906101000a900473ffffffffffffffffffffffffffffffffffffffff16905090565b60006012905090565b3373ffffffffffffffffffffffffffffffffffffffff166000357fffffffff00000000000000000000000000000000000000000000000000000000167bffffffffffffffffffffffffffffffffffffffffffffffffffffffff19166000366040516117ca929190618277565b60405180910390a260026006541415611818576040517f08c379a000000000000000000000000000000000000000000000000000000000815260040161180f906186bb565b60405180910390fd5b60026006819055503373ffffffffffffffffffffffffffffffffffffffff16600560009054906101000a900473ffffffffffffffffffffffffffffffffffffffff1673ffffffffffffffffffffffffffffffffffffffff16146118b0576040517f08c379a00000000000000000000000000000000000000000000000000000000081526004016118a79061853b565b60405180910390fd5b600073ffffffffffffffffffffffffffffffffffffffff16600860009054906101000a900473ffffffffffffffffffffffffffffffffffffffff1673ffffffffffffffffffffffffffffffffffffffff161415611942576040517f08c379a00000000000000000000000000000000000000000000000000000000081526004016119399061865b565b60405180910390fd5b600960000160019054906101000a900460ff16611994576040517f08c379a000000000000000000000000000000000000000000000000000000000815260040161198b9061885b565b60405180910390fd5b600860009054906101000a900473ffffffffffffffffffffffffffffffffffffffff1673ffffffffffffffffffffffffffffffffffffffff166334e19907826040518263ffffffff1660e01b81526004016119ef91906188c4565b600060405180830381600087803b158015611a0957600080fd5b505af1158015611a1d573d6000803e3d6000fd5b50505050600160068190555050565b600073__RightsManager_________________________634583544a6009846040518363ffffffff1660e01b8152600401611a6892919061889b565b60206040518083038186803b158015611a8057600080fd5b505af4158015611a94573d6000803e3d6000fd5b505050506040513d601f19601f82011682018060405250810190611ab89190617541565b9050919050565b60003373ffffffffffffffffffffffffffffffffffffffff166000357fffffffff00000000000000000000000000000000000000000000000000000000167bffffffffffffffffffffffffffffffffffffffffffffffffffffffff1916600036604051611b2d929190618277565b60405180910390a260026006541415611b7b576040517f08c379a0000000000000000000000000000000000000000000000000000000008152600401611b72906186bb565b60405180910390fd5b6002600681905550600073ffffffffffffffffffffffffffffffffffffffff16600860009054906101000a900473ffffffffffffffffffffffffffffffffffffffff1673ffffffffffffffffffffffffffffffffffffffff161415611c15576040517f08c379a0000000000000000000000000000000000000000000000000000000008152600401611c0c9061865b565b60405180910390fd5b60008073__SmartPoolManager______________________63d505a94e30600860009054906101000a900473ffffffffffffffffffffffffffffffffffffffff168989896040518663ffffffff1660e01b8152600401611c79959493929190618433565b604080518083038186803b158015611c9057600080fd5b505af4158015611ca4573d6000803e3d6000fd5b505050506040513d601f19601f82011682018060405250810190611cc89190617666565b915091508092506000611cdb8684615baf565b90508673ffffffffffffffffffffffffffffffffffffffff163373ffffffffffffffffffffffffffffffffffffffff167fc62fc35ac75e3bff532648e2859a3e1694002cfa357614ae8e034df7f83db5e986604051611d3a91906188c4565b60405180910390a3611d4c3387615c0e565b611d5581615c1c565b611d81600760009054906101000a900473ffffffffffffffffffffffffffffffffffffffff1684615c28565b611d8c873386615c36565b50505060016006819055509392505050565b3373ffffffffffffffffffffffffffffffffffffffff166000357fffffffff00000000000000000000000000000000000000000000000000000000167bffffffffffffffffffffffffffffffffffffffffffffffffffffffff1916600036604051611e0a929190618277565b60405180910390a260026006541415611e58576040517f08c379a0000000000000000000000000000000000000000000000000000000008152600401611e4f906186bb565b60405180910390fd5b6002600681905550600073ffffffffffffffffffffffffffffffffffffffff16600860009054906101000a900473ffffffffffffffffffffffffffffffffffffffff1673ffffffffffffffffffffffffffffffffffffffff161415611ef2576040517f08c379a0000000000000000000000000000000000000000000000000000000008152600401611ee99061865b565b60405180910390fd5b3373ffffffffffffffffffffffffffffffffffffffff16600560009054906101000a900473ffffffffffffffffffffffffffffffffffffffff1673ffffffffffffffffffffffffffffffffffffffff1614611f82576040517f08c379a0000000000000000000000000000000000000000000000000000000008152600401611f799061853b565b60405180910390fd5b600960000160059054906101000a900460ff16611fd4576040517f08c379a0000000000000000000000000000000000000000000000000000000008152600401611fcb9061871b565b60405180910390fd5b3373ffffffffffffffffffffffffffffffffffffffff167f6bc200110c7794738d401810b22ef824a2044a8ccb022d4ad8769840370331f56018548360405161201e9291906188df565b60405180910390a280601881905550600160068190555050565b3373ffffffffffffffffffffffffffffffffffffffff166000357fffffffff00000000000000000000000000000000000000000000000000000000167bffffffffffffffffffffffffffffffffffffffffffffffffffffffff19166000366040516120a4929190618277565b60405180910390a2600260065414156120f2576040517f08c379a00000000000000000000000000000000000000000000000000000000081526004016120e9906186bb565b60405180910390fd5b60026006819055503373ffffffffffffffffffffffffffffffffffffffff16600560009054906101000a900473ffffffffffffffffffffffffffffffffffffffff1673ffffffffffffffffffffffffffffffffffffffff161461218a576040517f08c379a00000000000000000000000000000000000000000000000000000000081526004016121819061853b565b60405180910390fd5b600073ffffffffffffffffffffffffffffffffffffffff16600860009054906101000a900473ffffffffffffffffffffffffffffffffffffffff1673ffffffffffffffffffffffffffffffffffffffff16141561221c576040517f08c379a00000000000000000000000000000000000000000000000000000000081526004016122139061865b565b60405180910390fd5b600960000160009054906101000a900460ff1661226e576040517f08c379a0000000000000000000000000000000000000000000000000000000008152600401612265906187fb565b60405180910390fd5b600860009054906101000a900473ffffffffffffffffffffffffffffffffffffffff1673ffffffffffffffffffffffffffffffffffffffff166349b59552826040518263ffffffff1660e01b81526004016122c991906181fb565b600060405180830381600087803b1580156122e357600080fd5b505af11580156122f7573d6000803e3d6000fd5b50505050600160068190555050565b3073ffffffffffffffffffffffffffffffffffffffff163373ffffffffffffffffffffffffffffffffffffffff1614612374576040517f08c379a000000000000000000000000000000000000000000000000000000000815260040161236b9061853b565b60405180910390fd5b61237d81616231565b50565b3373ffffffffffffffffffffffffffffffffffffffff166000357fffffffff00000000000000000000000000000000000000000000000000000000167bffffffffffffffffffffffffffffffffffffffffffffffffffffffff19166000366040516123ec929190618277565b60405180910390a26002600654141561243a576040517f08c379a0000000000000000000000000000000000000000000000000000000008152600401612431906186bb565b60405180910390fd5b60026006819055503373ffffffffffffffffffffffffffffffffffffffff16600560009054906101000a900473ffffffffffffffffffffffffffffffffffffffff1673ffffffffffffffffffffffffffffffffffffffff16146124d2576040517f08c379a00000000000000000000000000000000000000000000000000000000081526004016124c99061853b565b60405180910390fd5b600073ffffffffffffffffffffffffffffffffffffffff16600860009054906101000a900473ffffffffffffffffffffffffffffffffffffffff1673ffffffffffffffffffffffffffffffffffffffff161415612564576040517f08c379a000000000000000000000000000000000000000000000000000000000815260040161255b9061865b565b60405180910390fd5b600960000160039054906101000a900460ff166125b6576040517f08c379a00000000000000000000000000000000000000000000000000000000081526004016125ad9061855b565b60405180910390fd5b6000600a60000154146125fe576040517f08c379a00000000000000000000000000000000000000000000000000000000081526004016125f59061887b565b60405180910390fd5b73__SmartPoolManager______________________631c1af136846040518263ffffffff1660e01b81526004016126359190618052565b60006040518083038186803b15801561264d57600080fd5b505af4158015612661573d6000803e3d6000fd5b505050503373ffffffffffffffffffffffffffffffffffffffff163073ffffffffffffffffffffffffffffffffffffffff168473ffffffffffffffffffffffffffffffffffffffff167f33b043686b9408a355896fe90b2f8ecc86a41d87d1554ef65a739948b4f23e2760405160405180910390a473__SmartPoolManager______________________63b489ec19600860009054906101000a900473ffffffffffffffffffffffffffffffffffffffff16858585600e6040518663ffffffff1660e01b81526004016127389594939291906182d1565b60006040518083038186803b15801561275057600080fd5b505af4158015612764573d6000803e3d6000fd5b505050506001600681905550505050565b3373ffffffffffffffffffffffffffffffffffffffff166000357fffffffff00000000000000000000000000000000000000000000000000000000167bffffffffffffffffffffffffffffffffffffffffffffffffffffffff19166000366040516127e1929190618277565b60405180910390a26002600654141561282f576040517f08c379a0000000000000000000000000000000000000000000000000000000008152600401612826906186bb565b60405180910390fd5b6002600681905550600073ffffffffffffffffffffffffffffffffffffffff16600860009054906101000a900473ffffffffffffffffffffffffffffffffffffffff1673ffffffffffffffffffffffffffffffffffffffff1614156128c9576040517f08c379a00000000000000000000000000000000000000000000000000000000081526004016128c09061865b565b60405180910390fd5b6000600860009054906101000a900473ffffffffffffffffffffffffffffffffffffffff1673ffffffffffffffffffffffffffffffffffffffff1663fde924f76040518163ffffffff1660e01b815260040160206040518083038186803b15801561293357600080fd5b505afa158015612947573d6000803e3d6000fd5b505050506040513d601f19601f8201168201806040525081019061296b9190617541565b9050600860009054906101000a900473ffffffffffffffffffffffffffffffffffffffff1673ffffffffffffffffffffffffffffffffffffffff166349b5955260006040518263ffffffff1660e01b81526004016129c991906181fb565b600060405180830381600087803b1580156129e357600080fd5b505af11580156129f7573d6000803e3d6000fd5b50505050600960000160049054906101000a900460ff161580612a635750601760003373ffffffffffffffffffffffffffffffffffffffff1673ffffffffffffffffffffffffffffffffffffffff16815260200190815260200160002060009054906101000a900460ff165b612aa2576040517f08c379a0000000000000000000000000000000000000000000000000000000008152600401612a999061859b565b60405180910390fd5b606073__SmartPoolManager______________________63a1925f1d30600860009054906101000a900473ffffffffffffffffffffffffffffffffffffffff168888886040518663ffffffff1660e01b8152600401612b05959493929190618486565b60006040518083038186803b158015612b1d57600080fd5b505af4158015612b31573d6000803e3d6000fd5b505050506040513d6000823e3d601f19601f82011682018060405250810190612b5a91906174d7565b90506060600860009054906101000a900473ffffffffffffffffffffffffffffffffffffffff1673ffffffffffffffffffffffffffffffffffffffff1663cc77828d6040518163ffffffff1660e01b815260040160006040518083038186803b158015612bc657600080fd5b505afa158015612bda573d6000803e3d6000fd5b505050506040513d6000823e3d601f19601f82011682018060405250810190612c03919061742a565b905060005b8151811015612cc0576000828281518110612c1f57fe5b602002602001015190506000848381518110612c3757fe5b602002602001015190508173ffffffffffffffffffffffffffffffffffffffff163373ffffffffffffffffffffffffffffffffffffffff167fea39e3b35c5cd8937999ed5f7fbab30acd562a931fc4a887fed2a47c3074aa7283604051612c9e91906188c4565b60405180910390a3612cb1823383616284565b50508080600101915050612c08565b50612cca866165e9565b612cd43387615c28565b5050600860009054906101000a900473ffffffffffffffffffffffffffffffffffffffff1673ffffffffffffffffffffffffffffffffffffffff166349b59552826040518263ffffffff1660e01b8152600401612d3191906181fb565b600060405180830381600087803b158015612d4b57600080fd5b505af1158015612d5f573d6000803e3d6000fd5b50505050506001600681905550505050565b3073ffffffffffffffffffffffffffffffffffffffff163373ffffffffffffffffffffffffffffffffffffffff1614612ddf576040517f08c379a0000000000000000000000000000000000000000000000000000000008152600401612dd69061853b565b60405180910390fd5b612de982826165f5565b5050565b600a8060000154908060010154905082565b60003373ffffffffffffffffffffffffffffffffffffffff166000357fffffffff00000000000000000000000000000000000000000000000000000000167bffffffffffffffffffffffffffffffffffffffffffffffffffffffff1916600036604051612e6d929190618277565b60405180910390a260026006541415612ebb576040517f08c379a0000000000000000000000000000000000000000000000000000000008152600401612eb2906186bb565b60405180910390fd5b6002600681905550600073ffffffffffffffffffffffffffffffffffffffff16600860009054906101000a900473ffffffffffffffffffffffffffffffffffffffff1673ffffffffffffffffffffffffffffffffffffffff161415612f55576040517f08c379a0000000000000000000000000000000000000000000000000000000008152600401612f4c9061865b565b60405180910390fd5b600960000160049054906101000a900460ff161580612fbd5750601760003373ffffffffffffffffffffffffffffffffffffffff1673ffffffffffffffffffffffffffffffffffffffff16815260200190815260200160002060009054906101000a900460ff165b612ffc576040517f08c379a0000000000000000000000000000000000000000000000000000000008152600401612ff39061859b565b60405180910390fd5b73__SmartPoolManager______________________63df90de0b30600860009054906101000a900473ffffffffffffffffffffffffffffffffffffffff168787876040518663ffffffff1660e01b815260040161305d959493929190618433565b60206040518083038186803b15801561307557600080fd5b505af4158015613089573d6000803e3d6000fd5b505050506040513d601f19601f820116820180604052508101906130ad91906175e5565b90508373ffffffffffffffffffffffffffffffffffffffff163373ffffffffffffffffffffffffffffffffffffffff167fea39e3b35c5cd8937999ed5f7fbab30acd562a931fc4a887fed2a47c3074aa728560405161310c91906188c4565b60405180910390a361311d816165e9565b6131273382615c28565b613132843385616284565b60016006819055509392505050565b3373ffffffffffffffffffffffffffffffffffffffff166000357fffffffff00000000000000000000000000000000000000000000000000000000167bffffffffffffffffffffffffffffffffffffffffffffffffffffffff19166000366040516131ad929190618277565b60405180910390a2600260065414156131fb576040517f08c379a00000000000000000000000000000000000000000000000000000000081526004016131f2906186bb565b60405180910390fd5b60026006819055503373ffffffffffffffffffffffffffffffffffffffff16600560009054906101000a900473ffffffffffffffffffffffffffffffffffffffff1673ffffffffffffffffffffffffffffffffffffffff1614613293576040517f08c379a000000000000000000000000000000000000000000000000000000000815260040161328a9061853b565b60405180910390fd5b600073ffffffffffffffffffffffffffffffffffffffff16600860009054906101000a900473ffffffffffffffffffffffffffffffffffffffff1673ffffffffffffffffffffffffffffffffffffffff161415613325576040517f08c379a000000000000000000000000000000000000000000000000000000000815260040161331c9061865b565b60405180910390fd5b600960000160039054906101000a900460ff16613377576040517f08c379a000000000000000000000000000000000000000000000000000000000815260040161336e9061855b565b60405180910390fd5b600e60000160149054906101000a900460ff16156133ca576040517f08c379a00000000000000000000000000000000000000000000000000000000081526004016133c1906187bb565b60405180910390fd5b6000600a6000015414613412576040517f08c379a00000000000000000000000000000000000000000000000000000000081526004016134099061887b565b60405180910390fd5b73__SmartPoolManager______________________630970e47f30600860009054906101000a900473ffffffffffffffffffffffffffffffffffffffff16846040518463ffffffff1660e01b815260040161346f939291906183b7565b60006040518083038186803b15801561348757600080fd5b505af415801561349b573d6000803e3d6000fd5b50505050600160068190555050565b600080600260003373ffffffffffffffffffffffffffffffffffffffff1673ffffffffffffffffffffffffffffffffffffffff16815260200190815260200160002060008573ffffffffffffffffffffffffffffffffffffffff1673ffffffffffffffffffffffffffffffffffffffff1681526020019081526020016000205490508083106135ba576000600260003373ffffffffffffffffffffffffffffffffffffffff1673ffffffffffffffffffffffffffffffffffffffff16815260200190815260200160002060008673ffffffffffffffffffffffffffffffffffffffff1673ffffffffffffffffffffffffffffffffffffffff16815260200190815260200160002081905550613645565b6135c48184615baf565b600260003373ffffffffffffffffffffffffffffffffffffffff1673ffffffffffffffffffffffffffffffffffffffff16815260200190815260200160002060008673ffffffffffffffffffffffffffffffffffffffff1673ffffffffffffffffffffffffffffffffffffffff168152602001908152602001600020819055505b8373ffffffffffffffffffffffffffffffffffffffff163373ffffffffffffffffffffffffffffffffffffffff167f8c5be1e5ebec7d5bd14f71427d1e84f3dd0314c0f7b2291e5b200ac8c7c3b925600260003373ffffffffffffffffffffffffffffffffffffffff1673ffffffffffffffffffffffffffffffffffffffff16815260200190815260200160002060008873ffffffffffffffffffffffffffffffffffffffff1673ffffffffffffffffffffffffffffffffffffffff1681526020019081526020016000205460405161371e91906188c4565b60405180910390a3600191505092915050565b60003373ffffffffffffffffffffffffffffffffffffffff166000357fffffffff00000000000000000000000000000000000000000000000000000000167bffffffffffffffffffffffffffffffffffffffffffffffffffffffff191660003660405161379f929190618277565b60405180910390a2600260065414156137ed576040517f08c379a00000000000000000000000000000000000000000000000000000000081526004016137e4906186bb565b60405180910390fd5b6002600681905550600073ffffffffffffffffffffffffffffffffffffffff16600860009054906101000a900473ffffffffffffffffffffffffffffffffffffffff1673ffffffffffffffffffffffffffffffffffffffff161415613887576040517f08c379a000000000000000000000000000000000000000000000000000000000815260040161387e9061865b565b60405180910390fd5b600960000160049054906101000a900460ff1615806138ef5750601760003373ffffffffffffffffffffffffffffffffffffffff1673ffffffffffffffffffffffffffffffffffffffff16815260200190815260200160002060009054906101000a900460ff165b61392e576040517f08c379a00000000000000000000000000000000000000000000000000000000081526004016139259061859b565b60405180910390fd5b73__SmartPoolManager______________________636a6dc6e730600860009054906101000a900473ffffffffffffffffffffffffffffffffffffffff168787876040518663ffffffff1660e01b815260040161398f959493929190618433565b60206040518083038186803b1580156139a757600080fd5b505af41580156139bb573d6000803e3d6000fd5b505050506040513d601f19601f820116820180604052508101906139df91906175e5565b90508373ffffffffffffffffffffffffffffffffffffffff163373ffffffffffffffffffffffffffffffffffffffff167fea39e3b35c5cd8937999ed5f7fbab30acd562a931fc4a887fed2a47c3074aa7283604051613a3e91906188c4565b60405180910390a3613a4f836165e9565b613a593384615c28565b613a64843383616284565b60016006819055509392505050565b6000600160008373ffffffffffffffffffffffffffffffffffffffff1673ffffffffffffffffffffffffffffffffffffffff168152602001908152602001600020549050919050565b600073__RightsManager_________________________905090565b6000600960000160049054906101000a900460ff1615613b4657601760008373ffffffffffffffffffffffffffffffffffffffff1673ffffffffffffffffffffffffffffffffffffffff16815260200190815260200160002060009054906101000a900460ff169050613b7a565b600073ffffffffffffffffffffffffffffffffffffffff168273ffffffffffffffffffffffffffffffffffffffff16141590505b919050565b3373ffffffffffffffffffffffffffffffffffffffff16600560009054906101000a900473ffffffffffffffffffffffffffffffffffffffff1673ffffffffffffffffffffffffffffffffffffffff1614613c0f576040517f08c379a0000000000000000000000000000000000000000000000000000000008152600401613c069061853b565b60405180910390fd5b3373ffffffffffffffffffffffffffffffffffffffff166000357fffffffff00000000000000000000000000000000000000000000000000000000167bffffffffffffffffffffffffffffffffffffffffffffffffffffffff1916600036604051613c7b929190618277565b60405180910390a260026006541415613cc9576040517f08c379a0000000000000000000000000000000000000000000000000000000008152600401613cc0906186bb565b60405180910390fd5b6002600681905550613cda81616604565b600160068190555050565b3373ffffffffffffffffffffffffffffffffffffffff16600560009054906101000a900473ffffffffffffffffffffffffffffffffffffffff1673ffffffffffffffffffffffffffffffffffffffff1614613d75576040517f08c379a0000000000000000000000000000000000000000000000000000000008152600401613d6c9061853b565b60405180910390fd5b600073ffffffffffffffffffffffffffffffffffffffff168173ffffffffffffffffffffffffffffffffffffffff161415613de5576040517f08c379a0000000000000000000000000000000000000000000000000000000008152600401613ddc906185db565b60405180910390fd5b8073ffffffffffffffffffffffffffffffffffffffff16600560009054906101000a900473ffffffffffffffffffffffffffffffffffffffff1673ffffffffffffffffffffffffffffffffffffffff167f8be0079c531659141344cd1fd0a4f28419497f9722a3daafe3b4186f6b6457e060405160405180910390a380600560006101000a81548173ffffffffffffffffffffffffffffffffffffffff021916908373ffffffffffffffffffffffffffffffffffffffff16021790555050565b600060026006541415613eed576040517f08c379a0000000000000000000000000000000000000000000000000000000008152600401613ee4906186db565b60405180910390fd5b600073ffffffffffffffffffffffffffffffffffffffff16600860009054906101000a900473ffffffffffffffffffffffffffffffffffffffff1673ffffffffffffffffffffffffffffffffffffffff161415613f7f576040517f08c379a0000000000000000000000000000000000000000000000000000000008152600401613f769061865b565b60405180910390fd5b600860009054906101000a900473ffffffffffffffffffffffffffffffffffffffff1673ffffffffffffffffffffffffffffffffffffffff1663948d8ce6836040518263ffffffff1660e01b8152600401613fda919061806d565b60206040518083038186803b158015613ff257600080fd5b505afa158015614006573d6000803e3d6000fd5b505050506040513d601f19601f8201168201806040525081019061402a91906175e5565b9050919050565b606060038054600181600116156101000203166002900480601f0160208091040260200160405190810160405280929190818152602001828054600181600116156101000203166002900480156140c95780601f1061409e576101008083540402835291602001916140c9565b820191906000526020600020905b8154815290600101906020018083116140ac57829003601f168201915b5050505050905090565b3373ffffffffffffffffffffffffffffffffffffffff166000357fffffffff00000000000000000000000000000000000000000000000000000000167bffffffffffffffffffffffffffffffffffffffffffffffffffffffff191660003660405161413f929190618277565b60405180910390a26002600654141561418d576040517f08c379a0000000000000000000000000000000000000000000000000000000008152600401614184906186bb565b60405180910390fd5b60026006819055503373ffffffffffffffffffffffffffffffffffffffff16600560009054906101000a900473ffffffffffffffffffffffffffffffffffffffff1673ffffffffffffffffffffffffffffffffffffffff1614614225576040517f08c379a000000000000000000000000000000000000000000000000000000000815260040161421c9061853b565b60405180910390fd5b600073ffffffffffffffffffffffffffffffffffffffff16600860009054906101000a900473ffffffffffffffffffffffffffffffffffffffff1673ffffffffffffffffffffffffffffffffffffffff1614156142b7576040517f08c379a00000000000000000000000000000000000000000000000000000000081526004016142ae9061865b565b60405180910390fd5b600960000160029054906101000a900460ff16614309576040517f08c379a00000000000000000000000000000000000000000000000000000000081526004016143009061861b565b60405180910390fd5b6000600a6000015414614351576040517f08c379a00000000000000000000000000000000000000000000000000000000081526004016143489061887b565b60405180910390fd5b73__SmartPoolManager______________________63f544aa1c30600860009054906101000a900473ffffffffffffffffffffffffffffffffffffffff1685856040518563ffffffff1660e01b81526004016143b094939291906183ee565b60006040518083038186803b1580156143c857600080fd5b505af41580156143dc573d6000803e3d6000fd5b5050505060016006819055505050565b60098060000160009054906101000a900460ff16908060000160019054906101000a900460ff16908060000160029054906101000a900460ff16908060000160039054906101000a900460ff16908060000160049054906101000a900460ff16908060000160059054906101000a900460ff16905086565b600073__BalancerSafeMath______________________905090565b600073__SmartPoolManager______________________905090565b6040518060400160405280601381526020017f42616c616e63657220536d61727420506f6f6c0000000000000000000000000081525081565b6101f481565b60008073ffffffffffffffffffffffffffffffffffffffff168373ffffffffffffffffffffffffffffffffffffffff16141561454c576040517f08c379a0000000000000000000000000000000000000000000000000000000008152600401614543906185db565b60405180910390fd5b6145573384846160af565b6001905092915050565b3373ffffffffffffffffffffffffffffffffffffffff166000357fffffffff00000000000000000000000000000000000000000000000000000000167bffffffffffffffffffffffffffffffffffffffffffffffffffffffff19166000366040516145cd929190618277565b60405180910390a26002600654141561461b576040517f08c379a0000000000000000000000000000000000000000000000000000000008152600401614612906186bb565b60405180910390fd5b6002600681905550600073ffffffffffffffffffffffffffffffffffffffff16600860009054906101000a900473ffffffffffffffffffffffffffffffffffffffff1673ffffffffffffffffffffffffffffffffffffffff1614156146b5576040517f08c379a00000000000000000000000000000000000000000000000000000000081526004016146ac9061865b565b60405180910390fd5b6000600860009054906101000a900473ffffffffffffffffffffffffffffffffffffffff1673ffffffffffffffffffffffffffffffffffffffff1663fde924f76040518163ffffffff1660e01b815260040160206040518083038186803b15801561471f57600080fd5b505afa158015614733573d6000803e3d6000fd5b505050506040513d601f19601f820116820180604052508101906147579190617541565b9050600860009054906101000a900473ffffffffffffffffffffffffffffffffffffffff1673ffffffffffffffffffffffffffffffffffffffff166349b5955260006040518263ffffffff1660e01b81526004016147b591906181fb565b600060405180830381600087803b1580156147cf57600080fd5b505af11580156147e3573d6000803e3d6000fd5b50505050600080606073__SmartPoolManager______________________635471c3e430600860009054906101000a900473ffffffffffffffffffffffffffffffffffffffff168a8a8a6040518663ffffffff1660e01b815260040161484d959493929190618486565b60006040518083038186803b15801561486557600080fd5b505af4158015614879573d6000803e3d6000fd5b505050506040513d6000823e3d601f19601f820116820180604052508101906148a291906176a2565b9250925092506148b23388615c0e565b6148de600760009054906101000a900473ffffffffffffffffffffffffffffffffffffffff1684615c28565b6148e782615c1c565b6060600860009054906101000a900473ffffffffffffffffffffffffffffffffffffffff1673ffffffffffffffffffffffffffffffffffffffff1663cc77828d6040518163ffffffff1660e01b815260040160006040518083038186803b15801561495157600080fd5b505afa158015614965573d6000803e3d6000fd5b505050506040513d6000823e3d601f19601f8201168201806040525081019061498e919061742a565b905060005b8151811015614a4b5760008282815181106149aa57fe5b6020026020010151905060008483815181106149c257fe5b602002602001015190508173ffffffffffffffffffffffffffffffffffffffff163373ffffffffffffffffffffffffffffffffffffffff167fc62fc35ac75e3bff532648e2859a3e1694002cfa357614ae8e034df7f83db5e983604051614a2991906188c4565b60405180910390a3614a3c823383615c36565b50508080600101915050614993565b5050505050600860009054906101000a900473ffffffffffffffffffffffffffffffffffffffff1673ffffffffffffffffffffffffffffffffffffffff166349b59552826040518263ffffffff1660e01b8152600401614aab91906181fb565b600060405180830381600087803b158015614ac557600080fd5b505af1158015614ad9573d6000803e3d6000fd5b50505050506001600681905550505050565b600860009054906101000a900473ffffffffffffffffffffffffffffffffffffffff1681565b3373ffffffffffffffffffffffffffffffffffffffff166000357fffffffff00000000000000000000000000000000000000000000000000000000167bffffffffffffffffffffffffffffffffffffffffffffffffffffffff1916600036604051614b7d929190618277565b60405180910390a260026006541415614bcb576040517f08c379a0000000000000000000000000000000000000000000000000000000008152600401614bc2906186bb565b60405180910390fd5b60026006819055503373ffffffffffffffffffffffffffffffffffffffff16600560009054906101000a900473ffffffffffffffffffffffffffffffffffffffff1673ffffffffffffffffffffffffffffffffffffffff1614614c63576040517f08c379a0000000000000000000000000000000000000000000000000000000008152600401614c5a9061853b565b60405180910390fd5b600073ffffffffffffffffffffffffffffffffffffffff16600860009054906101000a900473ffffffffffffffffffffffffffffffffffffffff1673ffffffffffffffffffffffffffffffffffffffff161415614cf5576040517f08c379a0000000000000000000000000000000000000000000000000000000008152600401614cec9061865b565b60405180910390fd5b600960000160039054906101000a900460ff16614d47576040517f08c379a0000000000000000000000000000000000000000000000000000000008152600401614d3e9061855b565b60405180910390fd5b73__SmartPoolManager______________________63efa5877430600860009054906101000a900473ffffffffffffffffffffffffffffffffffffffff16601654600e6040518563ffffffff1660e01b8152600401614da994939291906184d4565b60006040518083038186803b158015614dc157600080fd5b505af4158015614dd5573d6000803e3d6000fd5b505050506001600681905550565b3373ffffffffffffffffffffffffffffffffffffffff16600560009054906101000a900473ffffffffffffffffffffffffffffffffffffffff1673ffffffffffffffffffffffffffffffffffffffff1614614e73576040517f08c379a0000000000000000000000000000000000000000000000000000000008152600401614e6a9061853b565b60405180910390fd5b3373ffffffffffffffffffffffffffffffffffffffff166000357fffffffff00000000000000000000000000000000000000000000000000000000167bffffffffffffffffffffffffffffffffffffffffffffffffffffffff1916600036604051614edf929190618277565b60405180910390a260026006541415614f2d576040517f08c379a0000000000000000000000000000000000000000000000000000000008152600401614f24906186bb565b60405180910390fd5b600260068190555080821015614f78576040517f08c379a0000000000000000000000000000000000000000000000000000000008152600401614f6f9061857b565b60405180910390fd5b8160158190555080601681905550614f8f83616604565b6001600681905550505050565b600e8060000160009054906101000a900473ffffffffffffffffffffffffffffffffffffffff16908060000160149054906101000a900460ff16908060010154908060020154908060030154905085565b3373ffffffffffffffffffffffffffffffffffffffff16600560009054906101000a900473ffffffffffffffffffffffffffffffffffffffff1673ffffffffffffffffffffffffffffffffffffffff161461507d576040517f08c379a00000000000000000000000000000000000000000000000000000000081526004016150749061853b565b60405180910390fd5b600260065414156150c3576040517f08c379a00000000000000000000000000000000000000000000000000000000081526004016150ba906186bb565b60405180910390fd5b60026006819055503373ffffffffffffffffffffffffffffffffffffffff166000357fffffffff00000000000000000000000000000000000000000000000000000000167bffffffffffffffffffffffffffffffffffffffffffffffffffffffff1916600036604051615137929190618277565b60405180910390a2600960000160049054906101000a900460ff16615191576040517f08c379a0000000000000000000000000000000000000000000000000000000008152600401615188906185fb565b60405180910390fd5b600073ffffffffffffffffffffffffffffffffffffffff168173ffffffffffffffffffffffffffffffffffffffff161415615201576040517f08c379a00000000000000000000000000000000000000000000000000000000081526004016151f8906186fb565b60405180910390fd5b6001601760008373ffffffffffffffffffffffffffffffffffffffff1673ffffffffffffffffffffffffffffffffffffffff16815260200190815260200160002060006101000a81548160ff021916908315150217905550600160068190555050565b60006152ec600260003373ffffffffffffffffffffffffffffffffffffffff1673ffffffffffffffffffffffffffffffffffffffff16815260200190815260200160002060008573ffffffffffffffffffffffffffffffffffffffff1673ffffffffffffffffffffffffffffffffffffffff1681526020019081526020016000205483616d96565b600260003373ffffffffffffffffffffffffffffffffffffffff1673ffffffffffffffffffffffffffffffffffffffff16815260200190815260200160002060008573ffffffffffffffffffffffffffffffffffffffff1673ffffffffffffffffffffffffffffffffffffffff168152602001908152602001600020819055508273ffffffffffffffffffffffffffffffffffffffff163373ffffffffffffffffffffffffffffffffffffffff167f8c5be1e5ebec7d5bd14f71427d1e84f3dd0314c0f7b2291e5b200ac8c7c3b925600260003373ffffffffffffffffffffffffffffffffffffffff1673ffffffffffffffffffffffffffffffffffffffff16815260200190815260200160002060008773ffffffffffffffffffffffffffffffffffffffff1673ffffffffffffffffffffffffffffffffffffffff1681526020019081526020016000205460405161544591906188c4565b60405180910390a36001905092915050565b6000600260008473ffffffffffffffffffffffffffffffffffffffff1673ffffffffffffffffffffffffffffffffffffffff16815260200190815260200160002060008373ffffffffffffffffffffffffffffffffffffffff1673ffffffffffffffffffffffffffffffffffffffff16815260200190815260200160002054905092915050565b3373ffffffffffffffffffffffffffffffffffffffff166000357fffffffff00000000000000000000000000000000000000000000000000000000167bffffffffffffffffffffffffffffffffffffffffffffffffffffffff191660003660405161554a929190618277565b60405180910390a260026006541415615598576040517f08c379a000000000000000000000000000000000000000000000000000000000815260040161558f906186bb565b60405180910390fd5b6002600681905550600073ffffffffffffffffffffffffffffffffffffffff16600860009054906101000a900473ffffffffffffffffffffffffffffffffffffffff1673ffffffffffffffffffffffffffffffffffffffff161415615632576040517f08c379a00000000000000000000000000000000000000000000000000000000081526004016156299061865b565b60405180910390fd5b600960000160029054906101000a900460ff16615684576040517f08c379a000000000000000000000000000000000000000000000000000000000815260040161567b9061861b565b60405180910390fd5b73__SmartPoolManager______________________6382495b45600860009054906101000a900473ffffffffffffffffffffffffffffffffffffffff16600a6040518363ffffffff1660e01b81526004016156e0929190618324565b60006040518083038186803b1580156156f857600080fd5b505af415801561570c573d6000803e3d6000fd5b505050506001600681905550565b3373ffffffffffffffffffffffffffffffffffffffff16600560009054906101000a900473ffffffffffffffffffffffffffffffffffffffff1673ffffffffffffffffffffffffffffffffffffffff16146157aa576040517f08c379a00000000000000000000000000000000000000000000000000000000081526004016157a19061853b565b60405180910390fd5b600260065414156157f0576040517f08c379a00000000000000000000000000000000000000000000000000000000081526004016157e7906186bb565b60405180910390fd5b60026006819055503373ffffffffffffffffffffffffffffffffffffffff166000357fffffffff00000000000000000000000000000000000000000000000000000000167bffffffffffffffffffffffffffffffffffffffffffffffffffffffff1916600036604051615864929190618277565b60405180910390a2600960000160049054906101000a900460ff166158be576040517f08c379a00000000000000000000000000000000000000000000000000000000081526004016158b5906185fb565b60405180910390fd5b601760008273ffffffffffffffffffffffffffffffffffffffff1673ffffffffffffffffffffffffffffffffffffffff16815260200190815260200160002060009054906101000a900460ff1661594a576040517f08c379a00000000000000000000000000000000000000000000000000000000081526004016159419061863b565b60405180910390fd5b600073ffffffffffffffffffffffffffffffffffffffff168173ffffffffffffffffffffffffffffffffffffffff1614156159ba576040517f08c379a00000000000000000000000000000000000000000000000000000000081526004016159b1906186fb565b60405180910390fd5b6000601760008373ffffffffffffffffffffffffffffffffffffffff1673ffffffffffffffffffffffffffffffffffffffff16815260200190815260200160002060006101000a81548160ff021916908315150217905550600160068190555050565b60165481565b60155481565b62015f9081565b600060026006541415615a78576040517f08c379a0000000000000000000000000000000000000000000000000000000008152600401615a6f906186db565b60405180910390fd5b600073ffffffffffffffffffffffffffffffffffffffff16600860009054906101000a900473ffffffffffffffffffffffffffffffffffffffff1673ffffffffffffffffffffffffffffffffffffffff161415615b0a576040517f08c379a0000000000000000000000000000000000000000000000000000000008152600401615b019061865b565b60405180910390fd5b600860009054906101000a900473ffffffffffffffffffffffffffffffffffffffff1673ffffffffffffffffffffffffffffffffffffffff1663fde924f76040518163ffffffff1660e01b815260040160206040518083038186803b158015615b7257600080fd5b505afa158015615b86573d6000803e3d6000fd5b505050506040513d601f19601f82011682018060405250810190615baa9190617541565b905090565b6000806000615bbe8585616deb565b915091508015615c03576040517f08c379a0000000000000000000000000000000000000000000000000000000008152600401615bfa9061881b565b60405180910390fd5b819250505092915050565b615c1882826165f5565b5050565b615c2581615fa8565b50565b615c328282615f99565b5050565b600073ffffffffffffffffffffffffffffffffffffffff16600860009054906101000a900473ffffffffffffffffffffffffffffffffffffffff1673ffffffffffffffffffffffffffffffffffffffff161415615cc8576040517f08c379a0000000000000000000000000000000000000000000000000000000008152600401615cbf9061865b565b60405180910390fd5b6000600860009054906101000a900473ffffffffffffffffffffffffffffffffffffffff1673ffffffffffffffffffffffffffffffffffffffff1663f8b2cb4f856040518263ffffffff1660e01b8152600401615d25919061806d565b60206040518083038186803b158015615d3d57600080fd5b505afa158015615d51573d6000803e3d6000fd5b505050506040513d601f19601f82011682018060405250810190615d7591906175e5565b90506000600860009054906101000a900473ffffffffffffffffffffffffffffffffffffffff1673ffffffffffffffffffffffffffffffffffffffff1663948d8ce6866040518263ffffffff1660e01b8152600401615dd4919061806d565b60206040518083038186803b158015615dec57600080fd5b505afa158015615e00573d6000803e3d6000fd5b505050506040513d601f19601f82011682018060405250810190615e2491906175e5565b9050600860009054906101000a900473ffffffffffffffffffffffffffffffffffffffff1673ffffffffffffffffffffffffffffffffffffffff16633fdddaa286615e6f8587615baf565b846040518463ffffffff1660e01b8152600401615e8e939291906181c4565b600060405180830381600087803b158015615ea857600080fd5b505af1158015615ebc573d6000803e3d6000fd5b5050505060008573ffffffffffffffffffffffffffffffffffffffff1663a9059cbb86866040518363ffffffff1660e01b8152600401615efd92919061819b565b602060405180830381600087803b158015615f1757600080fd5b505af1158015615f2b573d6000803e3d6000fd5b505050506040513d601f19601f82011682018060405250810190615f4f9190617541565b905080615f91576040517f08c379a0000000000000000000000000000000000000000000000000000000008152600401615f88906187db565b60405180910390fd5b505050505050565b615fa43083836160af565b5050565b615ff1600160003073ffffffffffffffffffffffffffffffffffffffff1673ffffffffffffffffffffffffffffffffffffffff1681526020019081526020016000205482615baf565b600160003073ffffffffffffffffffffffffffffffffffffffff1673ffffffffffffffffffffffffffffffffffffffff1681526020019081526020016000208190555061604060005482615baf565b600081905550600073ffffffffffffffffffffffffffffffffffffffff163073ffffffffffffffffffffffffffffffffffffffff167fddf252ad1be2c89b69c2b068fc378daa952ba7f163c4a11628f55a4df523b3ef836040516160a491906188c4565b60405180910390a350565b6160f8600160008573ffffffffffffffffffffffffffffffffffffffff1673ffffffffffffffffffffffffffffffffffffffff1681526020019081526020016000205482615baf565b600160008573ffffffffffffffffffffffffffffffffffffffff1673ffffffffffffffffffffffffffffffffffffffff16815260200190815260200160002081905550616184600160008473ffffffffffffffffffffffffffffffffffffffff1673ffffffffffffffffffffffffffffffffffffffff1681526020019081526020016000205482616d96565b600160008473ffffffffffffffffffffffffffffffffffffffff1673ffffffffffffffffffffffffffffffffffffffff168152602001908152602001600020819055508173ffffffffffffffffffffffffffffffffffffffff168373ffffffffffffffffffffffffffffffffffffffff167fddf252ad1be2c89b69c2b068fc378daa952ba7f163c4a11628f55a4df523b3ef8360405161622491906188c4565b60405180910390a3505050565b61623a81616e14565b6018546000541115616281576040517f08c379a00000000000000000000000000000000000000000000000000000000081526004016162789061875b565b60405180910390fd5b50565b600073ffffffffffffffffffffffffffffffffffffffff16600860009054906101000a900473ffffffffffffffffffffffffffffffffffffffff1673ffffffffffffffffffffffffffffffffffffffff161415616316576040517f08c379a000000000000000000000000000000000000000000000000000000000815260040161630d9061865b565b60405180910390fd5b6000600860009054906101000a900473ffffffffffffffffffffffffffffffffffffffff1673ffffffffffffffffffffffffffffffffffffffff1663f8b2cb4f856040518263ffffffff1660e01b8152600401616373919061806d565b60206040518083038186803b15801561638b57600080fd5b505afa15801561639f573d6000803e3d6000fd5b505050506040513d601f19601f820116820180604052508101906163c391906175e5565b90506000600860009054906101000a900473ffffffffffffffffffffffffffffffffffffffff1673ffffffffffffffffffffffffffffffffffffffff1663948d8ce6866040518263ffffffff1660e01b8152600401616422919061806d565b60206040518083038186803b15801561643a57600080fd5b505afa15801561644e573d6000803e3d6000fd5b505050506040513d601f19601f8201168201806040525081019061647291906175e5565b905060008573ffffffffffffffffffffffffffffffffffffffff166323b872dd8630876040518463ffffffff1660e01b81526004016164b3939291906180e8565b602060405180830381600087803b1580156164cd57600080fd5b505af11580156164e1573d6000803e3d6000fd5b505050506040513d601f19601f820116820180604052508101906165059190617541565b905080616547576040517f08c379a000000000000000000000000000000000000000000000000000000000815260040161653e906187db565b60405180910390fd5b600860009054906101000a900473ffffffffffffffffffffffffffffffffffffffff1673ffffffffffffffffffffffffffffffffffffffff16633fdddaa2876165908688616d96565b856040518463ffffffff1660e01b81526004016165af939291906181c4565b600060405180830381600087803b1580156165c957600080fd5b505af11580156165dd573d6000803e3d6000fd5b50505050505050505050565b6165f281616231565b50565b6166008230836160af565b5050565b600073ffffffffffffffffffffffffffffffffffffffff16600860009054906101000a900473ffffffffffffffffffffffffffffffffffffffff1673ffffffffffffffffffffffffffffffffffffffff1614616695576040517f08c379a000000000000000000000000000000000000000000000000000000000815260040161668c9061867b565b60405180910390fd5b6064670de0b6b3a7640000028110156166e3576040517f08c379a00000000000000000000000000000000000000000000000000000000081526004016166da9061869b565b60405180910390fd5b633b9aca00670de0b6b3a764000002811115616734576040517f08c379a000000000000000000000000000000000000000000000000000000000815260040161672b906185bb565b60405180910390fd5b600960000160059054906101000a900460ff161561675457806018819055505b61675d816165e9565b6167673382615c28565b600760009054906101000a900473ffffffffffffffffffffffffffffffffffffffff1673ffffffffffffffffffffffffffffffffffffffff1663d556c5dc6040518163ffffffff1660e01b8152600401602060405180830381600087803b1580156167d157600080fd5b505af11580156167e5573d6000803e3d6000fd5b505050506040513d601f19601f82011682018060405250810190616809919061756a565b600860006101000a81548173ffffffffffffffffffffffffffffffffffffffff021916908373ffffffffffffffffffffffffffffffffffffffff1602179055506000600860009054906101000a900473ffffffffffffffffffffffffffffffffffffffff1673ffffffffffffffffffffffffffffffffffffffff1663c6580d126040518163ffffffff1660e01b815260040160206040518083038186803b1580156168b357600080fd5b505afa1580156168c7573d6000803e3d6000fd5b505050506040513d601f19601f820116820180604052508101906168eb91906175e5565b1461692b576040517f08c379a00000000000000000000000000000000000000000000000000000000081526004016169229061873b565b60405180910390fd5b6000801461696e576040517f08c379a00000000000000000000000000000000000000000000000000000000081526004016169659061873b565b60405180910390fd5b60005b601380549050811015616c195760006013828154811061698d57fe5b9060005260206000200160009054906101000a900473ffffffffffffffffffffffffffffffffffffffff1690506000601483815481106169c957fe5b906000526020600020015490506000600a60020184815481106169e857fe5b9060005260206000200154905060008373ffffffffffffffffffffffffffffffffffffffff166323b872dd3330866040518463ffffffff1660e01b8152600401616a3493929190618088565b602060405180830381600087803b158015616a4e57600080fd5b505af1158015616a62573d6000803e3d6000fd5b505050506040513d601f19601f82011682018060405250810190616a869190617541565b905080616ac8576040517f08c379a0000000000000000000000000000000000000000000000000000000008152600401616abf906187db565b60405180910390fd5b616b35600860009054906101000a900473ffffffffffffffffffffffffffffffffffffffff167fffffffffffffffffffffffffffffffffffffffffffffffffffffffffffffffff8673ffffffffffffffffffffffffffffffffffffffff16616f1b9092919063ffffffff16565b905080616b77576040517f08c379a0000000000000000000000000000000000000000000000000000000008152600401616b6e906187db565b60405180910390fd5b600860009054906101000a900473ffffffffffffffffffffffffffffffffffffffff1673ffffffffffffffffffffffffffffffffffffffff1663e4e1e5388585856040518463ffffffff1660e01b8152600401616bd6939291906181c4565b600060405180830381600087803b158015616bf057600080fd5b505af1158015616c04573d6000803e3d6000fd5b50505050505050508080600101915050616971565b505b60006013805490501115616c6e576013805480616c3457fe5b6001900381819060005260206000200160006101000a81549073ffffffffffffffffffffffffffffffffffffffff02191690559055616c1b565b600860009054906101000a900473ffffffffffffffffffffffffffffffffffffffff1673ffffffffffffffffffffffffffffffffffffffff166334e199076012546040518263ffffffff1660e01b8152600401616ccb91906188c4565b600060405180830381600087803b158015616ce557600080fd5b505af1158015616cf9573d6000803e3d6000fd5b50505050600860009054906101000a900473ffffffffffffffffffffffffffffffffffffffff1673ffffffffffffffffffffffffffffffffffffffff166349b5955260016040518263ffffffff1660e01b8152600401616d5991906181fb565b600060405180830381600087803b158015616d7357600080fd5b505af1158015616d87573d6000803e3d6000fd5b50505050600060128190555050565b600080828401905083811015616de1576040517f08c379a0000000000000000000000000000000000000000000000000000000008152600401616dd89061883b565b60405180910390fd5b8091505092915050565b600080838311616e0357828403600091509150616e0d565b8383036001915091505b9250929050565b616e5d600160003073ffffffffffffffffffffffffffffffffffffffff1673ffffffffffffffffffffffffffffffffffffffff1681526020019081526020016000205482616d96565b600160003073ffffffffffffffffffffffffffffffffffffffff1673ffffffffffffffffffffffffffffffffffffffff16815260200190815260200160002081905550616eac60005482616d96565b6000819055503073ffffffffffffffffffffffffffffffffffffffff16600073ffffffffffffffffffffffffffffffffffffffff167fddf252ad1be2c89b69c2b068fc378daa952ba7f163c4a11628f55a4df523b3ef83604051616f1091906188c4565b60405180910390a350565b6000808473ffffffffffffffffffffffffffffffffffffffff1663dd62ed3e30866040518363ffffffff1660e01b8152600401616f599291906180bf565b60206040518083038186803b158015616f7157600080fd5b505afa158015616f85573d6000803e3d6000fd5b505050506040513d601f19601f82011682018060405250810190616fa991906175e5565b905082811415616fbd5760019150506170ec565b6000811461705b578473ffffffffffffffffffffffffffffffffffffffff1663095ea7b38560006040518363ffffffff1660e01b8152600401617001929190618172565b602060405180830381600087803b15801561701b57600080fd5b505af115801561702f573d6000803e3d6000fd5b505050506040513d601f19601f820116820180604052508101906170539190617541565b9150506170ec565b8473ffffffffffffffffffffffffffffffffffffffff1663095ea7b385856040518363ffffffff1660e01b815260040161709692919061819b565b602060405180830381600087803b1580156170b057600080fd5b505af11580156170c4573d6000803e3d6000fd5b505050506040513d601f19601f820116820180604052508101906170e89190617541565b9150505b9392505050565b60008135905061710281618c75565b92915050565b60008151905061711781618c75565b92915050565b600082601f83011261712e57600080fd5b815161714161713c82618950565b618923565b9150818183526020840193506020810190508385602084028201111561716657600080fd5b60005b83811015617196578161717c8882617108565b845260208401935060208301925050600181019050617169565b5050505092915050565b60008083601f8401126171b257600080fd5b8235905067ffffffffffffffff8111156171cb57600080fd5b6020830191508360208202830111156171e357600080fd5b9250929050565b600082601f8301126171fb57600080fd5b815161720e61720982618978565b618923565b9150818183526020840193506020810190508385602084028201111561723357600080fd5b60005b83811015617263578161724988826172d6565b845260208401935060208301925050600181019050617236565b5050505092915050565b60008135905061727c81618c8c565b92915050565b60008151905061729181618c8c565b92915050565b6000815190506172a681618ca3565b92915050565b6000813590506172bb81618cba565b92915050565b6000813590506172d081618cca565b92915050565b6000815190506172e581618cca565b92915050565b6000602082840312156172fd57600080fd5b600061730b848285016170f3565b91505092915050565b6000806040838503121561732757600080fd5b6000617335858286016170f3565b9250506020617346858286016170f3565b9150509250929050565b60008060006060848603121561736557600080fd5b6000617373868287016170f3565b9350506020617384868287016170f3565b9250506040617395868287016172c1565b9150509250925092565b600080604083850312156173b257600080fd5b60006173c0858286016170f3565b92505060206173d1858286016172c1565b9150509250929050565b6000806000606084860312156173f057600080fd5b60006173fe868287016170f3565b935050602061740f868287016172c1565b9250506040617420868287016172c1565b9150509250925092565b60006020828403121561743c57600080fd5b600082015167ffffffffffffffff81111561745657600080fd5b6174628482850161711d565b91505092915050565b6000806000806060858703121561748157600080fd5b600085013567ffffffffffffffff81111561749b57600080fd5b6174a7878288016171a0565b945094505060206174ba878288016172c1565b92505060406174cb878288016172c1565b91505092959194509250565b6000602082840312156174e957600080fd5b600082015167ffffffffffffffff81111561750357600080fd5b61750f848285016171ea565b91505092915050565b60006020828403121561752a57600080fd5b60006175388482850161726d565b91505092915050565b60006020828403121561755357600080fd5b600061756184828501617282565b91505092915050565b60006020828403121561757c57600080fd5b600061758a84828501617297565b91505092915050565b6000602082840312156175a557600080fd5b60006175b3848285016172ac565b91505092915050565b6000602082840312156175ce57600080fd5b60006175dc848285016172c1565b91505092915050565b6000602082840312156175f757600080fd5b6000617605848285016172d6565b91505092915050565b60008060006040848603121561762357600080fd5b6000617631868287016172c1565b935050602084013567ffffffffffffffff81111561764e57600080fd5b61765a868287016171a0565b92509250509250925092565b6000806040838503121561767957600080fd5b6000617687858286016172d6565b9250506020617698858286016172d6565b9150509250929050565b6000806000606084860312156176b757600080fd5b60006176c5868287016172d6565b93505060206176d6868287016172d6565b925050604084015167ffffffffffffffff8111156176f357600080fd5b6176ff868287016171ea565b9150509250925092565b60008060006060848603121561771e57600080fd5b600061772c868287016172c1565b935050602061773d868287016172c1565b925050604061774e868287016172c1565b9150509250925092565b61776181618a65565b82525050565b617770816189eb565b82525050565b61777f816189eb565b82525050565b600061779183856189ab565b93507f07ffffffffffffffffffffffffffffffffffffffffffffffffffffffffffffff8311156177c057600080fd5b6020830292506177d1838584618b2b565b82840190509392505050565b6177e6816189fd565b82525050565b6177f5816189fd565b82525050565b600061780783856189bc565b9350617814838584618b2b565b61781d83618c09565b840190509392505050565b61783181618a77565b82525050565b61784081618a9b565b82525050565b61784f81618a9b565b82525050565b61785e81618abf565b82525050565b61786d81618ae3565b82525050565b61787c81618af5565b82525050565b600061788d826189a0565b61789781856189cd565b93506178a7818560208601618b3a565b6178b081618c09565b840191505092915050565b60006178c86012836189cd565b91507f4552525f4e4f545f434f4e54524f4c4c455200000000000000000000000000006000830152602082019050919050565b6000617908601c836189cd565b91507f4552525f43414e4e4f545f4144445f52454d4f56455f544f4b454e53000000006000830152602082019050919050565b60006179486020836189cd565b91507f4552525f494e434f4e53495354454e545f544f4b454e5f54494d455f4c4f434b6000830152602082019050919050565b60006179886014836189cd565b91507f4552525f4e4f545f4f4e5f57484954454c4953540000000000000000000000006000830152602082019050919050565b60006179c86013836189cd565b91507f4552525f494e49545f535550504c595f4d4158000000000000000000000000006000830152602082019050919050565b6000617a086010836189cd565b91507f4552525f5a45524f5f41444452455353000000000000000000000000000000006000830152602082019050919050565b6000617a486018836189cd565b91507f4552525f43414e4e4f545f57484954454c4953545f4c505300000000000000006000830152602082019050919050565b6000617a88601c836189cd565b91507f4552525f4e4f545f434f4e464947555241424c455f57454947485453000000006000830152602082019050919050565b6000617ac86016836189cd565b91507f4552525f4c505f4e4f545f57484954454c4953544544000000000000000000006000830152602082019050919050565b6000617b08600f836189cd565b91507f4552525f4e4f545f4352454154454400000000000000000000000000000000006000830152602082019050919050565b6000617b48600e836189cd565b91507f4552525f49535f435245415445440000000000000000000000000000000000006000830152602082019050919050565b6000617b886013836189cd565b91507f4552525f494e49545f535550504c595f4d494e000000000000000000000000006000830152602082019050919050565b6000617bc8600b836189cd565b91507f4552525f5245454e5452590000000000000000000000000000000000000000006000830152602082019050919050565b6000617c086010836189cd565b91507f4552525f5245454e5452595f56494557000000000000000000000000000000006000830152602082019050919050565b6000617c486013836189cd565b91507f4552525f494e56414c49445f41444452455353000000000000000000000000006000830152602082019050919050565b6000617c886015836189cd565b91507f4552525f43414e4e4f545f4348414e47455f43415000000000000000000000006000830152602082019050919050565b6000617cc86014836189cd565b91507f4552525f4e4f4e5a45524f5f455849545f4645450000000000000000000000006000830152602082019050919050565b6000617d086015836189cd565b91507f4552525f4341505f4c494d49545f5245414348454400000000000000000000006000830152602082019050919050565b6000617d486016836189cd565b91507f4552525f5043544f4b454e5f4241445f43414c4c4552000000000000000000006000830152602082019050919050565b6000617d886015836189cd565b91507f4552525f50454e44494e475f544f4b454e5f41444400000000000000000000006000830152602082019050919050565b6000617dc8601b836189cd565b91507f4552525f52454d4f56455f574954485f4144445f50454e44494e4700000000006000830152602082019050919050565b6000617e08600f836189cd565b91507f4552525f45524332305f46414c534500000000000000000000000000000000006000830152602082019050919050565b6000617e486015836189cd565b91507f4552525f4e4f545f5041555341424c455f5357415000000000000000000000006000830152602082019050919050565b6000617e886011836189cd565b91507f4552525f5355425f554e444552464c4f570000000000000000000000000000006000830152602082019050919050565b6000617ec86010836189cd565b91507f4552525f4144445f4f564552464c4f57000000000000000000000000000000006000830152602082019050919050565b6000617f08601d836189cd565b91507f4552525f4e4f545f434f4e464947555241424c455f535741505f4645450000006000830152602082019050919050565b6000617f48601c836189cd565b91507f4552525f4e4f5f5550444154455f445552494e475f4752414455414c000000006000830152602082019050919050565b8082525050565b8082525050565b60c082016000808301549050617f9e81618b6d565b617fab60008601826177ec565b50617fb581618b87565b617fc260208601826177ec565b50617fcc81618ba1565b617fd960408601826177ec565b50617fe381618bbb565b617ff060608601826177ec565b50617ffa81618bd5565b61800760808601826177ec565b5061801181618bef565b61801e60a08601826177ec565b5050505050565b61802e81618a4e565b82525050565b61803d81618a4e565b82525050565b61804c81618a58565b82525050565b60006020820190506180676000830184617776565b92915050565b60006020820190506180826000830184617767565b92915050565b600060608201905061809d6000830186617758565b6180aa6020830185617767565b6180b76040830184618025565b949350505050565b60006040820190506180d46000830185617767565b6180e16020830184617767565b9392505050565b60006060820190506180fd6000830186617767565b61810a6020830185617767565b6181176040830184618025565b949350505050565b600060a0820190506181346000830188617767565b61814160208301876177dd565b61814e6040830186618025565b61815b6060830185618025565b6181686080830184618025565b9695505050505050565b60006040820190506181876000830185617767565b6181946020830184617873565b9392505050565b60006040820190506181b06000830185617767565b6181bd6020830184618025565b9392505050565b60006060820190506181d96000830186617767565b6181e66020830185618025565b6181f36040830184618025565b949350505050565b600060208201905061821060008301846177dd565b92915050565b600060c08201905061822b60008301896177dd565b61823860208301886177dd565b61824560408301876177dd565b61825260608301866177dd565b61825f60808301856177dd565b61826c60a08301846177dd565b979650505050505050565b600060208201905081810360008301526182928184866177fb565b90509392505050565b60006020820190506182b06000830184617828565b92915050565b60006020820190506182cb6000830184617837565b92915050565b600060a0820190506182e66000830188617846565b6182f36020830187617776565b6183006040830186618034565b61830d6060830185618034565b61831a6080830184617f82565b9695505050505050565b60006040820190506183396000830185617846565b6183466020830184617f7b565b9392505050565b600060c082019050618362600083018a617846565b61836f6020830189617f7b565b8181036040830152618382818789617785565b90506183916060830186618034565b61839e6080830185618034565b6183ab60a0830184618034565b98975050505050505050565b60006060820190506183cc6000830186617855565b6183d96020830185617846565b6183e66040830184617776565b949350505050565b60006080820190506184036000830187617855565b6184106020830186617846565b61841d6040830185617776565b61842a6060830184618034565b95945050505050565b600060a0820190506184486000830188617855565b6184556020830187617846565b6184626040830186617776565b61846f6060830185618034565b61847c6080830184618034565b9695505050505050565b600060808201905061849b6000830188617855565b6184a86020830187617846565b6184b56040830186618034565b81810360608301526184c8818486617785565b90509695505050505050565b60006080820190506184e96000830187617855565b6184f66020830186617846565b6185036040830185618034565b6185106060830184617f82565b95945050505050565b600060208201905081810360008301526185338184617882565b905092915050565b60006020820190508181036000830152618554816178bb565b9050919050565b60006020820190508181036000830152618574816178fb565b9050919050565b600060208201905081810360008301526185948161793b565b9050919050565b600060208201905081810360008301526185b48161797b565b9050919050565b600060208201905081810360008301526185d4816179bb565b9050919050565b600060208201905081810360008301526185f4816179fb565b9050919050565b6000602082019050818103600083015261861481617a3b565b9050919050565b6000602082019050818103600083015261863481617a7b565b9050919050565b6000602082019050818103600083015261865481617abb565b9050919050565b6000602082019050818103600083015261867481617afb565b9050919050565b6000602082019050818103600083015261869481617b3b565b9050919050565b600060208201905081810360008301526186b481617b7b565b9050919050565b600060208201905081810360008301526186d481617bbb565b9050919050565b600060208201905081810360008301526186f481617bfb565b9050919050565b6000602082019050818103600083015261871481617c3b565b9050919050565b6000602082019050818103600083015261873481617c7b565b9050919050565b6000602082019050818103600083015261875481617cbb565b9050919050565b6000602082019050818103600083015261877481617cfb565b9050919050565b6000602082019050818103600083015261879481617d3b565b9050919050565b600060208201905081810360008301526187b481617d7b565b9050919050565b600060208201905081810360008301526187d481617dbb565b9050919050565b600060208201905081810360008301526187f481617dfb565b9050919050565b6000602082019050818103600083015261881481617e3b565b9050919050565b6000602082019050818103600083015261883481617e7b565b9050919050565b6000602082019050818103600083015261885481617ebb565b9050919050565b6000602082019050818103600083015261887481617efb565b9050919050565b6000602082019050818103600083015261889481617f3b565b9050919050565b600060e0820190506188b06000830185617f89565b6188bd60c0830184617864565b9392505050565b60006020820190506188d96000830184618025565b92915050565b60006040820190506188f46000830185618025565b6189016020830184618025565b9392505050565b600060208201905061891d6000830184618043565b92915050565b6000604051905081810181811067ffffffffffffffff8211171561894657600080fd5b8060405250919050565b600067ffffffffffffffff82111561896757600080fd5b602082029050602081019050919050565b600067ffffffffffffffff82111561898f57600080fd5b602082029050602081019050919050565b600081519050919050565b600082825260208201905092915050565b600082825260208201905092915050565b600082825260208201905092915050565b600060ff82169050919050565b60006189f682618a2e565b9050919050565b60008115159050919050565b6000618a14826189eb565b9050919050565b6000819050618a2982618c68565b919050565b600073ffffffffffffffffffffffffffffffffffffffff82169050919050565b6000819050919050565b600060ff82169050919050565b6000618a7082618b07565b9050919050565b6000618a8282618a89565b9050919050565b6000618a9482618a2e565b9050919050565b6000618aa682618aad565b9050919050565b6000618ab882618a2e565b9050919050565b6000618aca82618ad1565b9050919050565b6000618adc82618a2e565b9050919050565b6000618aee82618a1b565b9050919050565b6000618b0082618a4e565b9050919050565b6000618b1282618b19565b9050919050565b6000618b2482618a2e565b9050919050565b82818337600083830152505050565b60005b83811015618b58578082015181840152602081019050618b3d565b83811115618b67576000848401525b50505050565b6000618b80618b7b83618c1a565b6189de565b9050919050565b6000618b9a618b9583618c5b565b6189de565b9050919050565b6000618bb4618baf83618c27565b6189de565b9050919050565b6000618bce618bc983618c34565b6189de565b9050919050565b6000618be8618be383618c41565b6189de565b9050919050565b6000618c02618bfd83618c4e565b6189de565b9050919050565b6000601f19601f8301169050919050565b60008160001c9050919050565b60008160101c9050919050565b60008160181c9050919050565b60008160201c9050919050565b60008160281c9050919050565b60008160081c9050919050565b60068110618c7257fe5b50565b618c7e816189eb565b8114618c8957600080fd5b50565b618c95816189fd565b8114618ca057600080fd5b50565b618cac81618a09565b8114618cb757600080fd5b50565b60068110618cc757600080fd5b50565b618cd381618a4e565b8114618cde57600080fd5b5056fea264697066735822122061d46b5e92a7af7a0b3be4da38d57843b4bab256bc26bdb4b57686037d30d9ce64736f6c634300060c0033a2646970667358221220feb4b3c37525dafe68a0065955b4f458eec7879c1852f510f815ad753735704964736f6c634300060c0033",
  "immutableReferences": {},
  "source": "// SPDX-License-Identifier: GPL-3.0-or-later\npragma solidity 0.6.12;\n\n// Needed to handle structures externally\npragma experimental ABIEncoderV2;\n\n// Imports\n\nimport \"./ConfigurableRightsPool.sol\";\n\n// Contracts\n\n/**\n * @author Balancer Labs\n * @title Configurable Rights Pool Factory - create parameterized smart pools\n * @dev Rights are held in a corresponding struct in ConfigurableRightsPool\n *      Index values are as follows:\n *      0: canPauseSwapping - can setPublicSwap back to false after turning it on\n *                            by default, it is off on initialization and can only be turned on\n *      1: canChangeSwapFee - can setSwapFee after initialization (by default, it is fixed at create time)\n *      2: canChangeWeights - can bind new token weights (allowed by default in base pool)\n *      3: canAddRemoveTokens - can bind/unbind tokens (allowed by default in base pool)\n *      4: canWhitelistLPs - if set, only whitelisted addresses can join pools\n *                           (enables private pools with more than one LP)\n *      5: canChangeCap - can change the BSP cap (max # of pool tokens)\n */\ncontract CRPFactory {\n    // State variables\n\n    // Keep a list of all Configurable Rights Pools\n    mapping(address=>bool) private _isCrp;\n\n    // Event declarations\n\n    // Log the address of each new smart pool, and its creator\n    event LogNewCrp(\n        address indexed caller,\n        address indexed pool\n    );\n\n    // Function declarations\n\n    /**\n     * @notice Create a new CRP\n     * @dev emits a LogNewCRP event\n     * @param factoryAddress - the BFactory instance used to create the underlying pool\n     * @param poolParams - struct containing the names, tokens, weights, balances, and swap fee\n     * @param rights - struct of permissions, configuring this CRP instance (see above for definitions)\n     */\n    function newCrp(\n        address factoryAddress,\n        ConfigurableRightsPool.PoolParams calldata poolParams,\n        RightsManager.Rights calldata rights\n    )\n        external\n        returns (ConfigurableRightsPool)\n    {\n        require(poolParams.constituentTokens.length >= BalancerConstants.MIN_ASSET_LIMIT, \"ERR_TOO_FEW_TOKENS\");\n\n        // Arrays must be parallel\n        require(poolParams.tokenBalances.length == poolParams.constituentTokens.length, \"ERR_START_BALANCES_MISMATCH\");\n        require(poolParams.tokenWeights.length == poolParams.constituentTokens.length, \"ERR_START_WEIGHTS_MISMATCH\");\n\n        ConfigurableRightsPool crp = new ConfigurableRightsPool(\n            factoryAddress,\n            poolParams,\n            rights\n        );\n\n        emit LogNewCrp(msg.sender, address(crp));\n\n        _isCrp[address(crp)] = true;\n        // The caller is the controller of the CRP\n        // The CRP will be the controller of the underlying Core BPool\n        crp.setController(msg.sender);\n\n        return crp;\n    }\n\n    /**\n     * @notice Check to see if a given address is a CRP\n     * @param addr - address to check\n     * @return boolean indicating whether it is a CRP\n     */\n    function isCrp(address addr) external view returns (bool) {\n        return _isCrp[addr];\n    }\n}\n",
  "sourcePath": "/home/thedavidmeister/tv-balancer-poc/contracts/configurable-rights-pools/contracts/CRPFactory.sol",
  "compiler": {
    "name": "solc",
    "version": "0.6.12+commit.27d51765.Emscripten.clang"
  },
  "schemaVersion": "3.3.3",
  "updatedAt": "2021-01-23T15:34:46.812Z",
  "devdoc": {
    "author": "Balancer Labs",
    "details": "Rights are held in a corresponding struct in ConfigurableRightsPool      Index values are as follows:      0: canPauseSwapping - can setPublicSwap back to false after turning it on                            by default, it is off on initialization and can only be turned on      1: canChangeSwapFee - can setSwapFee after initialization (by default, it is fixed at create time)      2: canChangeWeights - can bind new token weights (allowed by default in base pool)      3: canAddRemoveTokens - can bind/unbind tokens (allowed by default in base pool)      4: canWhitelistLPs - if set, only whitelisted addresses can join pools                           (enables private pools with more than one LP)      5: canChangeCap - can change the BSP cap (max # of pool tokens)",
    "kind": "dev",
    "methods": {
      "isCrp(address)": {
        "params": {
          "addr": "- address to check"
        },
        "returns": {
          "_0": "boolean indicating whether it is a CRP"
        }
      },
      "newCrp(address,(string,string,address[],uint256[],uint256[],uint256),(bool,bool,bool,bool,bool,bool))": {
        "details": "emits a LogNewCRP event",
        "params": {
          "factoryAddress": "- the BFactory instance used to create the underlying pool",
          "poolParams": "- struct containing the names, tokens, weights, balances, and swap fee",
          "rights": "- struct of permissions, configuring this CRP instance (see above for definitions)"
        }
      }
    },
    "title": "Configurable Rights Pool Factory - create parameterized smart pools",
    "version": 1
  },
  "userdoc": {
    "kind": "user",
    "methods": {
      "isCrp(address)": {
        "notice": "Check to see if a given address is a CRP"
      },
      "newCrp(address,(string,string,address[],uint256[],uint256[],uint256),(bool,bool,bool,bool,bool,bool))": {
        "notice": "Create a new CRP"
      }
    },
    "version": 1
  }
}