{
  "_format": "hh-sol-artifact-1",
  "contractName": "Trust",
  "sourceName": "contracts/Trust.sol",
  "abi": [
    {
      "inputs": [
        {
          "components": [
            {
              "internalType": "address",
              "name": "creator",
              "type": "address"
            },
            {
              "internalType": "uint256",
              "name": "minimumCreatorRaise",
              "type": "uint256"
            },
            {
              "internalType": "address",
              "name": "seeder",
              "type": "address"
            },
            {
              "internalType": "uint256",
              "name": "seederFee",
              "type": "uint256"
            },
            {
              "internalType": "uint16",
              "name": "seederUnits",
              "type": "uint16"
            },
            {
              "internalType": "uint16",
              "name": "seederCooldownDuration",
              "type": "uint16"
            },
            {
              "internalType": "uint256",
              "name": "minimumTradingDuration",
              "type": "uint256"
            },
            {
              "internalType": "uint256",
              "name": "redeemInit",
              "type": "uint256"
            }
          ],
          "internalType": "struct TrustConfig",
          "name": "config_",
          "type": "tuple"
        },
        {
          "components": [
            {
              "internalType": "string",
              "name": "name",
              "type": "string"
            },
            {
              "internalType": "string",
              "name": "symbol",
              "type": "string"
            },
            {
              "internalType": "contract IPrestige",
              "name": "prestige",
              "type": "address"
            },
            {
              "internalType": "enum IPrestige.Status",
              "name": "minimumStatus",
              "type": "uint8"
            },
            {
              "internalType": "uint256",
              "name": "totalSupply",
              "type": "uint256"
            }
          ],
          "internalType": "struct RedeemableERC20Config",
          "name": "redeemableERC20Config_",
          "type": "tuple"
        },
        {
          "components": [
            {
              "internalType": "contract CRPFactory",
              "name": "crpFactory",
              "type": "address"
            },
            {
              "internalType": "contract BFactory",
              "name": "balancerFactory",
              "type": "address"
            },
            {
              "internalType": "contract IERC20",
              "name": "reserve",
              "type": "address"
            },
            {
              "internalType": "uint256",
              "name": "reserveInit",
              "type": "uint256"
            },
            {
              "internalType": "uint256",
              "name": "initialValuation",
              "type": "uint256"
            },
            {
              "internalType": "uint256",
              "name": "finalValuation",
              "type": "uint256"
            }
          ],
          "internalType": "struct TrustRedeemableERC20PoolConfig",
          "name": "poolConfig_",
          "type": "tuple"
        }
      ],
      "stateMutability": "nonpayable",
      "type": "constructor"
    },
    {
      "inputs": [],
      "name": "anonEndDistribution",
      "outputs": [],
      "stateMutability": "nonpayable",
      "type": "function"
    },
    {
      "inputs": [],
      "name": "anonStartDistribution",
      "outputs": [],
      "stateMutability": "nonpayable",
      "type": "function"
    },
    {
      "inputs": [],
      "name": "creator",
      "outputs": [
        {
          "internalType": "address",
          "name": "",
          "type": "address"
        }
      ],
      "stateMutability": "view",
      "type": "function"
    },
    {
      "inputs": [
        {
          "internalType": "contract IERC20",
          "name": "redeemable_",
          "type": "address"
        }
      ],
      "name": "creatorAddRedeemable",
      "outputs": [],
      "stateMutability": "nonpayable",
      "type": "function"
    },
    {
      "inputs": [],
      "name": "finalBalance",
      "outputs": [
        {
          "internalType": "uint256",
          "name": "",
          "type": "uint256"
        }
      ],
      "stateMutability": "view",
      "type": "function"
    },
    {
      "inputs": [],
      "name": "getContracts",
      "outputs": [
        {
          "components": [
            {
              "internalType": "address",
              "name": "reserveERC20",
              "type": "address"
            },
            {
              "internalType": "address",
              "name": "redeemableERC20",
              "type": "address"
            },
            {
              "internalType": "address",
              "name": "redeemableERC20Pool",
              "type": "address"
            },
            {
              "internalType": "address",
              "name": "seeder",
              "type": "address"
            },
            {
              "internalType": "address",
              "name": "prestige",
              "type": "address"
            },
            {
              "internalType": "address",
              "name": "crp",
              "type": "address"
            },
            {
              "internalType": "address",
              "name": "pool",
              "type": "address"
            }
          ],
          "internalType": "struct TrustContracts",
          "name": "",
          "type": "tuple"
        }
      ],
      "stateMutability": "view",
      "type": "function"
    },
    {
      "inputs": [],
      "name": "getDistributionProgress",
      "outputs": [
        {
          "components": [
            {
              "internalType": "enum DistributionStatus",
              "name": "distributionStatus",
              "type": "uint8"
            },
            {
              "internalType": "uint32",
              "name": "distributionStartBlock",
              "type": "uint32"
            },
            {
              "internalType": "uint32",
              "name": "distributionEndBlock",
              "type": "uint32"
            },
            {
              "internalType": "uint256",
              "name": "poolReserveBalance",
              "type": "uint256"
            },
            {
              "internalType": "uint256",
              "name": "poolTokenBalance",
              "type": "uint256"
            },
            {
              "internalType": "uint256",
              "name": "reserveInit",
              "type": "uint256"
            },
            {
              "internalType": "uint256",
              "name": "minimumCreatorRaise",
              "type": "uint256"
            },
            {
              "internalType": "uint256",
              "name": "seederFee",
              "type": "uint256"
            },
            {
              "internalType": "uint256",
              "name": "redeemInit",
              "type": "uint256"
            }
          ],
          "internalType": "struct DistributionProgress",
          "name": "",
          "type": "tuple"
        }
      ],
      "stateMutability": "view",
      "type": "function"
    },
    {
      "inputs": [],
      "name": "getDistributionStatus",
      "outputs": [
        {
          "internalType": "enum DistributionStatus",
          "name": "",
          "type": "uint8"
        }
      ],
      "stateMutability": "view",
      "type": "function"
    },
    {
      "inputs": [],
      "name": "getTrustConfig",
      "outputs": [
        {
          "components": [
            {
              "internalType": "address",
              "name": "creator",
              "type": "address"
            },
            {
              "internalType": "uint256",
              "name": "minimumCreatorRaise",
              "type": "uint256"
            },
            {
              "internalType": "address",
              "name": "seeder",
              "type": "address"
            },
            {
              "internalType": "uint256",
              "name": "seederFee",
              "type": "uint256"
            },
            {
              "internalType": "uint16",
              "name": "seederUnits",
              "type": "uint16"
            },
            {
              "internalType": "uint16",
              "name": "seederCooldownDuration",
              "type": "uint16"
            },
            {
              "internalType": "uint256",
              "name": "minimumTradingDuration",
              "type": "uint256"
            },
            {
              "internalType": "uint256",
              "name": "redeemInit",
              "type": "uint256"
            }
          ],
          "internalType": "struct TrustConfig",
          "name": "",
          "type": "tuple"
        }
      ],
      "stateMutability": "view",
      "type": "function"
    },
    {
      "inputs": [],
      "name": "minimumCreatorRaise",
      "outputs": [
        {
          "internalType": "uint256",
          "name": "",
          "type": "uint256"
        }
      ],
      "stateMutability": "view",
      "type": "function"
    },
    {
      "inputs": [],
      "name": "minimumTradingDuration",
      "outputs": [
        {
          "internalType": "uint256",
          "name": "",
          "type": "uint256"
        }
      ],
      "stateMutability": "view",
      "type": "function"
    },
    {
      "inputs": [],
      "name": "pool",
      "outputs": [
        {
          "internalType": "contract RedeemableERC20Pool",
          "name": "",
          "type": "address"
        }
      ],
      "stateMutability": "view",
      "type": "function"
    },
    {
      "inputs": [],
      "name": "redeemInit",
      "outputs": [
        {
          "internalType": "uint256",
          "name": "",
          "type": "uint256"
        }
      ],
      "stateMutability": "view",
      "type": "function"
    },
    {
      "inputs": [],
      "name": "seeder",
      "outputs": [
        {
          "internalType": "address",
          "name": "",
          "type": "address"
        }
      ],
      "stateMutability": "view",
      "type": "function"
    },
    {
      "inputs": [],
      "name": "seederCooldownDuration",
      "outputs": [
        {
          "internalType": "uint16",
          "name": "",
          "type": "uint16"
        }
      ],
      "stateMutability": "view",
      "type": "function"
    },
    {
      "inputs": [],
      "name": "seederFee",
      "outputs": [
        {
          "internalType": "uint256",
          "name": "",
          "type": "uint256"
        }
      ],
      "stateMutability": "view",
      "type": "function"
    },
    {
      "inputs": [],
      "name": "seederUnits",
      "outputs": [
        {
          "internalType": "uint16",
          "name": "",
          "type": "uint16"
        }
      ],
      "stateMutability": "view",
      "type": "function"
    },
    {
      "inputs": [],
      "name": "successBalance",
      "outputs": [
        {
          "internalType": "uint256",
          "name": "",
          "type": "uint256"
        }
      ],
      "stateMutability": "view",
      "type": "function"
    },
    {
      "inputs": [],
      "name": "token",
      "outputs": [
        {
          "internalType": "contract RedeemableERC20",
          "name": "",
          "type": "address"
        }
      ],
      "stateMutability": "view",
      "type": "function"
    }
  ],
  "bytecode": "0x6101e06040523480156200001257600080fd5b506040516200d8193803806200d819833981016040819052620000359162000e9e565b600160005582516001600160a01b03166200006d5760405162461bcd60e51b81526004016200006490620010b2565b60405180910390fd5b806060015182608001511015620000985760405162461bcd60e51b815260040162000064906200110c565b8060a0015181608001511015620000c35760405162461bcd60e51b81526004016200006490620010d5565b60006200010d8460200151620000f98660e00151620000f988606001518760600151620008f860201b620021471790919060201c565b620008f860201b620021471790919060201c565b9050808260a001511015620001365760405162461bcd60e51b81526004016200006490620011ee565b61018081905283516001600160601b0319606091821b1660809081529085015160e0908152908501516001600160f01b031960f091821b81166101005260a08088015190921b166101205260c0860151610140529085015161016052602085015190526040516000908490620001ac9062000c5b565b620001b8919062001225565b604051809103906000f080158015620001d5573d6000803e3d6000fd5b509050806001600160a01b03166101a0816001600160a01b031660601b8152505060006040518060e0016040528085600001516001600160a01b0316815260200185602001516001600160a01b0316815260200185604001516001600160a01b03168152602001836001600160a01b0316815260200185606001518152602001856080015181526020018560a00151815250604051620002759062000c69565b620002819190620012a2565b604051809103906000f0801580156200029e573d6000803e3d6000fd5b506001600160601b0319606082901b166101c05260408701519091506001600160a01b0316620003f157620002ee866080015161ffff1685606001516200092960201b6200218f1790919060201c565b156200030e5760405162461bcd60e51b81526004016200006490620011b7565b6040518060e0016040528085604001516001600160a01b03168152602001826001600160a01b0316815260200162000361886080015161ffff1687606001516200097360201b620021d11790919060201c565b8152602001876080015161ffff1681526020018760a0015161ffff16815260200160405180602001604052806000815250815260200160405180602001604052806000815250815250604051620003b89062000c77565b620003c49190620012fd565b604051809103906000f080158015620003e1573d6000803e3d6000fd5b506001600160a01b031660408701525b85604001516001600160a01b031660c0816001600160a01b031660601b81525050816001600160a01b0316632f2ff15d836001600160a01b031663ad7430cc6040518163ffffffff1660e01b815260040160206040518083038186803b1580156200045b57600080fd5b505afa15801562000470573d6000803e3d6000fd5b505050506040513d601f19601f8201168201806040525081019062000496919062000e66565b86602001516040518363ffffffff1660e01b8152600401620004ba92919062000ff5565b600060405180830381600087803b158015620004d557600080fd5b505af1158015620004ea573d6000803e3d6000fd5b50505050816001600160a01b0316632f2ff15d836001600160a01b031663ad7430cc6040518163ffffffff1660e01b815260040160206040518083038186803b1580156200053757600080fd5b505afa1580156200054c573d6000803e3d6000fd5b505050506040513d601f19601f8201168201806040525081019062000572919062000e66565b836001600160a01b0316633fd8108e6040518163ffffffff1660e01b815260040160206040518083038186803b158015620005ac57600080fd5b505afa158015620005c1573d6000803e3d6000fd5b505050506040513d601f19601f82011682018060405250810190620005e7919062000e7f565b6040518363ffffffff1660e01b81526004016200060692919062000ff5565b600060405180830381600087803b1580156200062157600080fd5b505af115801562000636573d6000803e3d6000fd5b50505050816001600160a01b0316632f2ff15d836001600160a01b031663ad7430cc6040518163ffffffff1660e01b815260040160206040518083038186803b1580156200068357600080fd5b505afa15801562000698573d6000803e3d6000fd5b505050506040513d601f19601f82011682018060405250810190620006be919062000e66565b836040518363ffffffff1660e01b8152600401620006de92919062000ff5565b600060405180830381600087803b158015620006f957600080fd5b505af11580156200070e573d6000803e3d6000fd5b50505050816001600160a01b0316632f2ff15d836001600160a01b0316636050f2f86040518163ffffffff1660e01b815260040160206040518083038186803b1580156200075b57600080fd5b505afa15801562000770573d6000803e3d6000fd5b505050506040513d601f19601f8201168201806040525081019062000796919062000e66565b836001600160a01b0316633fd8108e6040518163ffffffff1660e01b815260040160206040518083038186803b158015620007d057600080fd5b505afa158015620007e5573d6000803e3d6000fd5b505050506040513d601f19601f820116820180604052508101906200080b919062000e7f565b6040518363ffffffff1660e01b81526004016200082a92919062000ff5565b600060405180830381600087803b1580156200084557600080fd5b505af11580156200085a573d6000803e3d6000fd5b5050506040808601519051630e50eacd60e11b81526001600160a01b0385169250631ca1d59a916200088f916004016200100c565b600060405180830381600087803b158015620008aa57600080fd5b505af1158015620008bf573d6000803e3d6000fd5b50505050620008ec818660800151846001600160a01b0316620009bd60201b62002213179092919060201c565b50505050505062001404565b600082820183811015620009205760405162461bcd60e51b8152600401620000649062001035565b90505b92915050565b60006200092083836040518060400160405280601881526020017f536166654d6174683a206d6f64756c6f206279207a65726f000000000000000081525062000a1d60201b60201c565b60006200092083836040518060400160405280601a81526020017f536166654d6174683a206469766973696f6e206279207a65726f00000000000081525062000a5760201b60201c565b62000a188363a9059cbb60e01b8484604051602401620009df92919062000fdc565b60408051808303601f190181529190526020810180516001600160e01b0319939093166001600160e01b039384161790529062000a9216565b505050565b6000818362000a415760405162461bcd60e51b815260040162000064919062001020565b5082848162000a4c57fe5b0690505b9392505050565b6000818362000a7b5760405162461bcd60e51b815260040162000064919062001020565b50600083858162000a8857fe5b0495945050505050565b606062000aee826040518060400160405280602081526020017f5361666545524332303a206c6f772d6c6576656c2063616c6c206661696c6564815250856001600160a01b031662000b2e60201b620022b9179092919060201c565b80519091501562000a18578080602001905181019062000b0f919062000e44565b62000a185760405162461bcd60e51b815260040162000064906200116d565b606062000b3f848460008562000b47565b949350505050565b60608247101562000b6c5760405162461bcd60e51b815260040162000064906200106c565b62000b778562000c17565b62000b965760405162461bcd60e51b8152600401620000649062001136565b60006060866001600160a01b0316858760405162000bb5919062000fbe565b60006040518083038185875af1925050503d806000811462000bf4576040519150601f19603f3d011682016040523d82523d6000602084013e62000bf9565b606091505b50909250905062000c0c82828662000c1d565b979650505050505050565b3b151590565b6060831562000c2e57508162000a50565b82511562000c3f5782518084602001fd5b8160405162461bcd60e51b815260040162000064919062001020565b613a4d80620041da83390190565b612cce8062007c2783390190565b612f24806200a8f583390190565b80516200092381620013eb565b600082601f83011262000ca3578081fd5b81516001600160401b0381111562000cb9578182fd5b62000cce601f8201601f191660200162001391565b915080825283602082850101111562000ce657600080fd5b62000cf9816020840160208601620013b8565b5092915050565b600060a0828403121562000d12578081fd5b62000d1e60a062001391565b82519091506001600160401b038082111562000d3957600080fd5b62000d478583860162000c92565b8352602084015191508082111562000d5e57600080fd5b5062000d6d8482850162000c92565b602083015250604082015162000d8381620013eb565b604082015260608201516009811062000d9b57600080fd5b806060830152506080820151608082015292915050565b600060c0828403121562000dc4578081fd5b62000dd060c062001391565b9050815162000ddf81620013eb565b8152602082015162000df181620013eb565b6020820152604082015162000e0681620013eb565b80604083015250606082015160608201526080820151608082015260a082015160a082015292915050565b805161ffff811681146200092357600080fd5b60006020828403121562000e56578081fd5b8151801515811462000920578182fd5b60006020828403121562000e78578081fd5b5051919050565b60006020828403121562000e91578081fd5b81516200092081620013eb565b60008060008385036101e081121562000eb5578283fd5b6101008082121562000ec5578384fd5b62000ed08162001391565b915062000ede878762000c85565b82526020860151602083015262000ef9876040880162000c85565b60408301526060860151606083015262000f17876080880162000e31565b608083015262000f2b8760a0880162000e31565b60a083015260c0868101519083015260e080870151908301528501519093506001600160401b0381111562000f5e578283fd5b62000f6c8682870162000d00565b92505062000f7f85610120860162000db2565b90509250925092565b6000815180845262000fa2816020860160208601620013b8565b601f01601f19169290920160200192915050565b61ffff169052565b6000825162000fd2818460208701620013b8565b9190910192915050565b6001600160a01b03929092168252602082015260400190565b9182526001600160a01b0316602082015260400190565b6001600160a01b0391909116815260200190565b60006020825262000920602083018462000f88565b6020808252601b908201527f536166654d6174683a206164646974696f6e206f766572666c6f770000000000604082015260600190565b60208082526026908201527f416464726573733a20696e73756666696369656e742062616c616e636520666f6040820152651c8818d85b1b60d21b606082015260800190565b602080825260099082015268043524541544f525f360bc1b604082015260600190565b60208082526014908201527f4d494e5f494e495449414c5f56414c5554494f4e000000000000000000000000604082015260600190565b60208082526010908201526f4d494e5f544f4b454e5f535550504c5960801b604082015260600190565b6020808252601d908201527f416464726573733a2063616c6c20746f206e6f6e2d636f6e7472616374000000604082015260600190565b6020808252602a908201527f5361666545524332303a204552433230206f7065726174696f6e20646964206e6040820152691bdd081cdd58d8d9595960b21b606082015260800190565b60208082526015908201527f534545445f50524943455f4d554c5449504c4945520000000000000000000000604082015260600190565b60208082526013908201527f4d494e5f46494e414c5f56414c554154494f4e00000000000000000000000000604082015260600190565b600060208252825160a060208401526200124360c084018262000f88565b90506020840151601f1984830301604085015262001262828262000f88565b91505060018060a01b0360408501511660608401526060840151600981106200128757fe5b80608085015250608084015160a08401528091505092915050565b81516001600160a01b039081168252602080840151821690830152604080840151821690830152606080840151909116908201526080808301519082015260a0828101519082015260c0918201519181019190915260e00190565b60006020825260018060a01b03808451166020840152806020850151166040840152506040830151606083015261ffff606084015116608083015260808301516200134c60a084018262000fb6565b5060a083015160e060c08401526200136961010084018262000f88565b905060c0840151601f198483030160e085015262001388828262000f88565b95945050505050565b6040518181016001600160401b0381118282101715620013b057600080fd5b604052919050565b60005b83811015620013d5578181015183820152602001620013bb565b83811115620013e5576000848401525b50505050565b6001600160a01b03811681146200140157600080fd5b50565b60805160601c60a05160c05160601c60e0516101005160f01c6101205160f01c6101405161016051610180516101a05160601c6101c05160601c612c4462001596600039806102a9528061037a528061049d528061055652806106e3528061079f528061090a52806109c35280610b4e5280610c7c5280610ddb5280610ebb5280610f235280611076528061120152806112b55280611353528061140c528061154e528061168a52806118a7528061195c5280611a1d5280611b935280611c885280611db95280611e725250806107635280611054528061119252806117ee5280611c4c5280611d0052806121255250806102855280610d245280611502525080610d805280611b0c5280611b3852806120fc5250806102f152806103a852806120d6525080611b5c52806120ac52508061031552806120825250806104075280610d515280611ae6528061205c52508061042b5280610e995280611cc452806120205250806102cd5280611ac05280611ffa5250806102615280610db952806110fe5280611fbe5250612c446000f3fe608060405234801561001057600080fd5b50600436106101515760003560e01c8063684931ed116100cd578063a4f383aa11610081578063c3a2a93a11610066578063c3a2a93a1461022d578063cd813af614610242578063fc0c546a1461025757610151565b8063a4f383aa1461021d578063bcc9e0c11461022557610151565b80638365408c116100b25780638365408c146101e0578063a1b140b6146101f3578063a49ab8c71461020857610151565b8063684931ed146101d057806379c4985c146101d857610151565b806318fd663f116101245780632129e25a116101095780632129e25a146101b65780632c6ff642146101be57806336aeae55146101c857610151565b806318fd663f146101995780631cd8bed0146101a157610151565b806302d05d3f146101565780630ee81cb61461017457806316f0115b1461018957806318afd94f14610191575b600080fd5b61015e61025f565b60405161016b91906127ff565b60405180910390f35b61017c610283565b60405161016b9190612854565b61015e6102a7565b61017c6102cb565b61017c6102ef565b6101a9610313565b60405161016b9190612bae565b61017c610337565b6101c661033d565b005b61017c610405565b61015e610429565b6101c661044d565b6101c66101ee366004612754565b6110e6565b6101fb6111fc565b60405161016b9190612846565b610210611542565b60405161016b9190612a44565b61017c611b36565b6101a9611b5a565b610235611b7e565b60405161016b9190612b3c565b61024a611fa8565b60405161016b9190612abf565b61015e612123565b7f000000000000000000000000000000000000000000000000000000000000000081565b7f000000000000000000000000000000000000000000000000000000000000000081565b7f000000000000000000000000000000000000000000000000000000000000000081565b7f000000000000000000000000000000000000000000000000000000000000000081565b7f000000000000000000000000000000000000000000000000000000000000000081565b7f000000000000000000000000000000000000000000000000000000000000000081565b60015481565b6040517f6049895400000000000000000000000000000000000000000000000000000000815273ffffffffffffffffffffffffffffffffffffffff7f000000000000000000000000000000000000000000000000000000000000000016906360498954906103d190437f00000000000000000000000000000000000000000000000000000000000000000190600401612854565b600060405180830381600087803b1580156103eb57600080fd5b505af11580156103ff573d6000803e3d6000fd5b50505050565b7f000000000000000000000000000000000000000000000000000000000000000081565b7f000000000000000000000000000000000000000000000000000000000000000081565b60026000541415610493576040517f08c379a000000000000000000000000000000000000000000000000000000000815260040161048a906129d6565b60405180910390fd5b60026000819055507f000000000000000000000000000000000000000000000000000000000000000073ffffffffffffffffffffffffffffffffffffffff1663cd3293de6040518163ffffffff1660e01b815260040160206040518083038186803b15801561050157600080fd5b505afa158015610515573d6000803e3d6000fd5b505050506040513d601f19601f820116820180604052508101906105399190612738565b73ffffffffffffffffffffffffffffffffffffffff166370a082317f000000000000000000000000000000000000000000000000000000000000000073ffffffffffffffffffffffffffffffffffffffff16633fd8108e6040518163ffffffff1660e01b815260040160206040518083038186803b1580156105ba57600080fd5b505afa1580156105ce573d6000803e3d6000fd5b505050506040513d601f19601f820116820180604052508101906105f29190612738565b73ffffffffffffffffffffffffffffffffffffffff1663b64ef17b6040518163ffffffff1660e01b815260040160206040518083038186803b15801561063757600080fd5b505afa15801561064b573d6000803e3d6000fd5b505050506040513d601f19601f8201168201806040525081019061066f9190612738565b6040518263ffffffff1660e01b815260040161068b91906127ff565b60206040518083038186803b1580156106a357600080fd5b505afa1580156106b7573d6000803e3d6000fd5b505050506040513d601f19601f820116820180604052508101906106db919061278f565b6001819055507f000000000000000000000000000000000000000000000000000000000000000073ffffffffffffffffffffffffffffffffffffffff1663e52ecbfb6040518163ffffffff1660e01b8152600401600060405180830381600087803b15801561074957600080fd5b505af115801561075d573d6000803e3d6000fd5b505050507f000000000000000000000000000000000000000000000000000000000000000073ffffffffffffffffffffffffffffffffffffffff166327d557417f000000000000000000000000000000000000000000000000000000000000000073ffffffffffffffffffffffffffffffffffffffff16633fd8108e6040518163ffffffff1660e01b815260040160206040518083038186803b15801561080357600080fd5b505afa158015610817573d6000803e3d6000fd5b505050506040513d601f19601f8201168201806040525081019061083b9190612738565b73ffffffffffffffffffffffffffffffffffffffff1663b64ef17b6040518163ffffffff1660e01b815260040160206040518083038186803b15801561088057600080fd5b505afa158015610894573d6000803e3d6000fd5b505050506040513d601f19601f820116820180604052508101906108b89190612738565b6040518263ffffffff1660e01b81526004016108d491906127ff565b600060405180830381600087803b1580156108ee57600080fd5b505af1158015610902573d6000803e3d6000fd5b5050505060007f000000000000000000000000000000000000000000000000000000000000000073ffffffffffffffffffffffffffffffffffffffff1663cd3293de6040518163ffffffff1660e01b815260040160206040518083038186803b15801561096e57600080fd5b505afa158015610982573d6000803e3d6000fd5b505050506040513d601f19601f820116820180604052508101906109a69190612738565b73ffffffffffffffffffffffffffffffffffffffff166370a082317f000000000000000000000000000000000000000000000000000000000000000073ffffffffffffffffffffffffffffffffffffffff16633fd8108e6040518163ffffffff1660e01b815260040160206040518083038186803b158015610a2757600080fd5b505afa158015610a3b573d6000803e3d6000fd5b505050506040513d601f19601f82011682018060405250810190610a5f9190612738565b73ffffffffffffffffffffffffffffffffffffffff1663b64ef17b6040518163ffffffff1660e01b815260040160206040518083038186803b158015610aa457600080fd5b505afa158015610ab8573d6000803e3d6000fd5b505050506040513d601f19601f82011682018060405250810190610adc9190612738565b6040518263ffffffff1660e01b8152600401610af891906127ff565b60206040518083038186803b158015610b1057600080fd5b505afa158015610b24573d6000803e3d6000fd5b505050506040513d601f19601f82011682018060405250810190610b48919061278f565b905060007f000000000000000000000000000000000000000000000000000000000000000073ffffffffffffffffffffffffffffffffffffffff1663cd3293de6040518163ffffffff1660e01b815260040160206040518083038186803b158015610bb257600080fd5b505afa158015610bc6573d6000803e3d6000fd5b505050506040513d601f19601f82011682018060405250810190610bea9190612738565b73ffffffffffffffffffffffffffffffffffffffff166370a08231306040518263ffffffff1660e01b8152600401610c2291906127ff565b60206040518083038186803b158015610c3a57600080fd5b505afa158015610c4e573d6000803e3d6000fd5b505050506040513d601f19601f82011682018060405250810190610c72919061278f565b90506000610d1e837f000000000000000000000000000000000000000000000000000000000000000073ffffffffffffffffffffffffffffffffffffffff1663bb0699726040518163ffffffff1660e01b815260040160206040518083038186803b158015610ce057600080fd5b505afa158015610cf4573d6000803e3d6000fd5b505050506040513d601f19601f82011682018060405250810190610d18919061278f565b906122d2565b905060007f000000000000000000000000000000000000000000000000000000000000000060015410610dae57610d75827f0000000000000000000000000000000000000000000000000000000000000000612147565b9150610dab610da4837f0000000000000000000000000000000000000000000000000000000000000000612147565b84906122d2565b90505b8015610e9457610e947f0000000000000000000000000000000000000000000000000000000000000000827f000000000000000000000000000000000000000000000000000000000000000073ffffffffffffffffffffffffffffffffffffffff1663cd3293de6040518163ffffffff1660e01b815260040160206040518083038186803b158015610e3f57600080fd5b505afa158015610e53573d6000803e3d6000fd5b505050506040513d601f19601f82011682018060405250810190610e779190612738565b73ffffffffffffffffffffffffffffffffffffffff169190612213565b610f1f7f0000000000000000000000000000000000000000000000000000000000000000837f000000000000000000000000000000000000000000000000000000000000000073ffffffffffffffffffffffffffffffffffffffff1663cd3293de6040518163ffffffff1660e01b815260040160206040518083038186803b158015610e3f57600080fd5b60007f000000000000000000000000000000000000000000000000000000000000000073ffffffffffffffffffffffffffffffffffffffff1663cd3293de6040518163ffffffff1660e01b815260040160206040518083038186803b158015610f8757600080fd5b505afa158015610f9b573d6000803e3d6000fd5b505050506040513d601f19601f82011682018060405250810190610fbf9190612738565b73ffffffffffffffffffffffffffffffffffffffff166370a08231306040518263ffffffff1660e01b8152600401610ff791906127ff565b60206040518083038186803b15801561100f57600080fd5b505afa158015611023573d6000803e3d6000fd5b505050506040513d601f19601f82011682018060405250810190611047919061278f565b905080156110da576110da7f0000000000000000000000000000000000000000000000000000000000000000827f000000000000000000000000000000000000000000000000000000000000000073ffffffffffffffffffffffffffffffffffffffff1663cd3293de6040518163ffffffff1660e01b815260040160206040518083038186803b158015610e3f57600080fd5b50506001600055505050565b3373ffffffffffffffffffffffffffffffffffffffff7f00000000000000000000000000000000000000000000000000000000000000001614611155576040517f08c379a000000000000000000000000000000000000000000000000000000000815260040161048a90612a0d565b6040517f1ca1d59a00000000000000000000000000000000000000000000000000000000815273ffffffffffffffffffffffffffffffffffffffff7f00000000000000000000000000000000000000000000000000000000000000001690631ca1d59a906111c79084906004016127ff565b600060405180830381600087803b1580156111e157600080fd5b505af11580156111f5573d6000803e3d6000fd5b5050505050565b6000807f000000000000000000000000000000000000000000000000000000000000000073ffffffffffffffffffffffffffffffffffffffff1663055ad42e6040518163ffffffff1660e01b815260040160206040518083038186803b15801561126557600080fd5b505afa158015611279573d6000803e3d6000fd5b505050506040513d601f19601f8201168201806040525081019061129d9190612770565b905060008160088111156112ad57fe5b14156114b0577f000000000000000000000000000000000000000000000000000000000000000073ffffffffffffffffffffffffffffffffffffffff1663bb0699726040518163ffffffff1660e01b815260040160206040518083038186803b15801561131957600080fd5b505afa15801561132d573d6000803e3d6000fd5b505050506040513d601f19601f82011682018060405250810190611351919061278f565b7f000000000000000000000000000000000000000000000000000000000000000073ffffffffffffffffffffffffffffffffffffffff1663cd3293de6040518163ffffffff1660e01b815260040160206040518083038186803b1580156113b757600080fd5b505afa1580156113cb573d6000803e3d6000fd5b505050506040513d601f19601f820116820180604052508101906113ef9190612738565b73ffffffffffffffffffffffffffffffffffffffff166370a082317f00000000000000000000000000000000000000000000000000000000000000006040518263ffffffff1660e01b815260040161144791906127ff565b60206040518083038186803b15801561145f57600080fd5b505afa158015611473573d6000803e3d6000fd5b505050506040513d601f19601f82011682018060405250810190611497919061278f565b106114a657600191505061153f565b600091505061153f565b60018160088111156114be57fe5b14156114ce57600291505061153f565b60028160088111156114dc57fe5b14156114ec57600391505061153f565b60038160088111156114fa57fe5b141561153d577f00000000000000000000000000000000000000000000000000000000000000006001541061153357600491505061153f565b600591505061153f565b505b90565b61154a61260a565b60007f000000000000000000000000000000000000000000000000000000000000000073ffffffffffffffffffffffffffffffffffffffff16633fd8108e6040518163ffffffff1660e01b815260040160206040518083038186803b1580156115b257600080fd5b505afa1580156115c6573d6000803e3d6000fd5b505050506040513d601f19601f820116820180604052508101906115ea9190612738565b73ffffffffffffffffffffffffffffffffffffffff1663b64ef17b6040518163ffffffff1660e01b815260040160206040518083038186803b15801561162f57600080fd5b505afa158015611643573d6000803e3d6000fd5b505050506040513d601f19601f820116820180604052508101906116679190612738565b905060008073ffffffffffffffffffffffffffffffffffffffff83161561187a577f000000000000000000000000000000000000000000000000000000000000000073ffffffffffffffffffffffffffffffffffffffff1663cd3293de6040518163ffffffff1660e01b815260040160206040518083038186803b1580156116ee57600080fd5b505afa158015611702573d6000803e3d6000fd5b505050506040513d601f19601f820116820180604052508101906117269190612738565b73ffffffffffffffffffffffffffffffffffffffff166370a08231846040518263ffffffff1660e01b815260040161175e91906127ff565b60206040518083038186803b15801561177657600080fd5b505afa15801561178a573d6000803e3d6000fd5b505050506040513d601f19601f820116820180604052508101906117ae919061278f565b6040517f70a0823100000000000000000000000000000000000000000000000000000000815290925073ffffffffffffffffffffffffffffffffffffffff7f000000000000000000000000000000000000000000000000000000000000000016906370a08231906118239086906004016127ff565b60206040518083038186803b15801561183b57600080fd5b505afa15801561184f573d6000803e3d6000fd5b505050506040513d601f19601f82011682018060405250810190611873919061278f565b9050611881565b5060009050805b6040518061012001604052806118956111fc565b60058111156118a057fe5b81526020017f000000000000000000000000000000000000000000000000000000000000000073ffffffffffffffffffffffffffffffffffffffff16639923c94b60006040518263ffffffff1660e01b81526004016118ff9190612854565b60206040518083038186803b15801561191757600080fd5b505afa15801561192b573d6000803e3d6000fd5b505050506040513d601f19601f8201168201806040525081019061194f91906127a7565b63ffffffff1681526020017f000000000000000000000000000000000000000000000000000000000000000073ffffffffffffffffffffffffffffffffffffffff16639923c94b60016040518263ffffffff1660e01b81526004016119b49190612854565b60206040518083038186803b1580156119cc57600080fd5b505afa1580156119e0573d6000803e3d6000fd5b505050506040513d601f19601f82011682018060405250810190611a0491906127a7565b63ffffffff1681526020018381526020018281526020017f000000000000000000000000000000000000000000000000000000000000000073ffffffffffffffffffffffffffffffffffffffff1663bb0699726040518163ffffffff1660e01b815260040160206040518083038186803b158015611a8157600080fd5b505afa158015611a95573d6000803e3d6000fd5b505050506040513d601f19601f82011682018060405250810190611ab9919061278f565b81526020017f000000000000000000000000000000000000000000000000000000000000000081526020017f000000000000000000000000000000000000000000000000000000000000000081526020017f0000000000000000000000000000000000000000000000000000000000000000815250935050505090565b7f000000000000000000000000000000000000000000000000000000000000000081565b7f000000000000000000000000000000000000000000000000000000000000000081565b611b86612663565b6040518060e001604052807f000000000000000000000000000000000000000000000000000000000000000073ffffffffffffffffffffffffffffffffffffffff1663cd3293de6040518163ffffffff1660e01b815260040160206040518083038186803b158015611bf757600080fd5b505afa158015611c0b573d6000803e3d6000fd5b505050506040513d601f19601f82011682018060405250810190611c2f9190612738565b73ffffffffffffffffffffffffffffffffffffffff1681526020017f000000000000000000000000000000000000000000000000000000000000000073ffffffffffffffffffffffffffffffffffffffff1681526020017f000000000000000000000000000000000000000000000000000000000000000073ffffffffffffffffffffffffffffffffffffffff1681526020017f000000000000000000000000000000000000000000000000000000000000000073ffffffffffffffffffffffffffffffffffffffff1681526020017f000000000000000000000000000000000000000000000000000000000000000073ffffffffffffffffffffffffffffffffffffffff16639c7081df6040518163ffffffff1660e01b815260040160206040518083038186803b158015611d6457600080fd5b505afa158015611d78573d6000803e3d6000fd5b505050506040513d601f19601f82011682018060405250810190611d9c9190612738565b73ffffffffffffffffffffffffffffffffffffffff1681526020017f000000000000000000000000000000000000000000000000000000000000000073ffffffffffffffffffffffffffffffffffffffff16633fd8108e6040518163ffffffff1660e01b815260040160206040518083038186803b158015611e1d57600080fd5b505afa158015611e31573d6000803e3d6000fd5b505050506040513d601f19601f82011682018060405250810190611e559190612738565b73ffffffffffffffffffffffffffffffffffffffff1681526020017f000000000000000000000000000000000000000000000000000000000000000073ffffffffffffffffffffffffffffffffffffffff16633fd8108e6040518163ffffffff1660e01b815260040160206040518083038186803b158015611ed657600080fd5b505afa158015611eea573d6000803e3d6000fd5b505050506040513d601f19601f82011682018060405250810190611f0e9190612738565b73ffffffffffffffffffffffffffffffffffffffff1663b64ef17b6040518163ffffffff1660e01b815260040160206040518083038186803b158015611f5357600080fd5b505afa158015611f67573d6000803e3d6000fd5b505050506040513d601f19601f82011682018060405250810190611f8b9190612738565b73ffffffffffffffffffffffffffffffffffffffff169052905090565b611fb061269f565b6040518061010001604052807f000000000000000000000000000000000000000000000000000000000000000073ffffffffffffffffffffffffffffffffffffffff1681526020017f000000000000000000000000000000000000000000000000000000000000000081526020017f000000000000000000000000000000000000000000000000000000000000000073ffffffffffffffffffffffffffffffffffffffff1681526020017f000000000000000000000000000000000000000000000000000000000000000081526020017f000000000000000000000000000000000000000000000000000000000000000061ffff1681526020017f000000000000000000000000000000000000000000000000000000000000000061ffff1681526020017f000000000000000000000000000000000000000000000000000000000000000081526020017f0000000000000000000000000000000000000000000000000000000000000000815250905090565b7f000000000000000000000000000000000000000000000000000000000000000081565b600082820183811015612186576040517f08c379a000000000000000000000000000000000000000000000000000000000815260040161048a906128ae565b90505b92915050565b600061218683836040518060400160405280601881526020017f536166654d6174683a206d6f64756c6f206279207a65726f0000000000000000815250612314565b600061218683836040518060400160405280601a81526020017f536166654d6174683a206469766973696f6e206279207a65726f000000000000815250612362565b6122b48363a9059cbb60e01b8484604051602401612232929190612820565b604080517fffffffffffffffffffffffffffffffffffffffffffffffffffffffffffffffe08184030181529190526020810180517bffffffffffffffffffffffffffffffffffffffffffffffffffffffff167fffffffff00000000000000000000000000000000000000000000000000000000909316929092179091526123b3565b505050565b60606122c88484600085612469565b90505b9392505050565b600061218683836040518060400160405280601e81526020017f536166654d6174683a207375627472616374696f6e206f766572666c6f77000081525061256b565b6000818361234f576040517f08c379a000000000000000000000000000000000000000000000000000000000815260040161048a919061285d565b5082848161235957fe5b06949350505050565b6000818361239d576040517f08c379a000000000000000000000000000000000000000000000000000000000815260040161048a919061285d565b5060008385816123a957fe5b0495945050505050565b6060612415826040518060400160405280602081526020017f5361666545524332303a206c6f772d6c6576656c2063616c6c206661696c65648152508573ffffffffffffffffffffffffffffffffffffffff166122b99092919063ffffffff16565b8051909150156122b457808060200190518101906124339190612718565b6122b4576040517f08c379a000000000000000000000000000000000000000000000000000000000815260040161048a90612979565b6060824710156124a5576040517f08c379a000000000000000000000000000000000000000000000000000000000815260040161048a906128e5565b6124ae856125b1565b6124e4576040517f08c379a000000000000000000000000000000000000000000000000000000000815260040161048a90612942565b600060608673ffffffffffffffffffffffffffffffffffffffff16858760405161250e91906127e3565b60006040518083038185875af1925050503d806000811461254b576040519150601f19603f3d011682016040523d82523d6000602084013e612550565b606091505b50915091506125608282866125b7565b979650505050505050565b600081848411156125a9576040517f08c379a000000000000000000000000000000000000000000000000000000000815260040161048a919061285d565b505050900390565b3b151590565b606083156125c65750816122cb565b8251156125d65782518084602001fd5b816040517f08c379a000000000000000000000000000000000000000000000000000000000815260040161048a919061285d565b6040805161012081019091528060008152602001600063ffffffff168152602001600063ffffffff1681526020016000815260200160008152602001600081526020016000815260200160008152602001600081525090565b6040805160e081018252600080825260208201819052918101829052606081018290526080810182905260a0810182905260c081019190915290565b604051806101000160405280600073ffffffffffffffffffffffffffffffffffffffff16815260200160008152602001600073ffffffffffffffffffffffffffffffffffffffff16815260200160008152602001600061ffff168152602001600061ffff16815260200160008152602001600081525090565b600060208284031215612729578081fd5b81518015158114612186578182fd5b600060208284031215612749578081fd5b815161218681612be9565b600060208284031215612765578081fd5b813561218681612be9565b600060208284031215612781578081fd5b815160098110612186578182fd5b6000602082840312156127a0578081fd5b5051919050565b6000602082840312156127b8578081fd5b815163ffffffff81168114612186578182fd5b600681106127d557fe5b9052565b63ffffffff169052565b600082516127f5818460208701612bbd565b9190910192915050565b73ffffffffffffffffffffffffffffffffffffffff91909116815260200190565b73ffffffffffffffffffffffffffffffffffffffff929092168252602082015260400190565b6020810161218982846127cb565b90815260200190565b600060208252825180602084015261287c816040850160208701612bbd565b601f017fffffffffffffffffffffffffffffffffffffffffffffffffffffffffffffffe0169190910160400192915050565b6020808252601b908201527f536166654d6174683a206164646974696f6e206f766572666c6f770000000000604082015260600190565b60208082526026908201527f416464726573733a20696e73756666696369656e742062616c616e636520666f60408201527f722063616c6c0000000000000000000000000000000000000000000000000000606082015260800190565b6020808252601d908201527f416464726573733a2063616c6c20746f206e6f6e2d636f6e7472616374000000604082015260600190565b6020808252602a908201527f5361666545524332303a204552433230206f7065726174696f6e20646964206e60408201527f6f74207375636365656400000000000000000000000000000000000000000000606082015260800190565b6020808252601f908201527f5265656e7472616e637947756172643a207265656e7472616e742063616c6c00604082015260600190565b6020808252600b908201527f4e4f545f43524541544f52000000000000000000000000000000000000000000604082015260600190565b600061012082019050612a588284516127cb565b63ffffffff60208401511660208301526040830151612a7a60408401826127d9565b50606083015160608301526080830151608083015260a083015160a083015260c083015160c083015260e083015160e083015261010080840151818401525092915050565b60006101008201905073ffffffffffffffffffffffffffffffffffffffff808451168352602084015160208401528060408501511660408401525060608301516060830152608083015161ffff80821660808501528060a08601511660a0850152505060c083015160c083015260e083015160e083015292915050565b600060e08201905073ffffffffffffffffffffffffffffffffffffffff8084511683528060208501511660208401528060408501511660408401528060608501511660608401528060808501511660808401528060a08501511660a08401528060c08501511660c08401525092915050565b61ffff91909116815260200190565b60005b83811015612bd8578181015183820152602001612bc0565b838111156103ff5750506000910152565b73ffffffffffffffffffffffffffffffffffffffff81168114612c0b57600080fd5b5056fea2646970667358221220d7164ec890678edc377f02fa2b9915fc7060e8805bc98983cba1710480a55dfc64736f6c634300060c003361018060405263ffffffff608081815260a082905260c082905260e08290526101008290526101208290526101408290526101609190915262000047906001906008620006e2565b503480156200005557600080fd5b5060405162003a4d38038062003a4d8339810160408190526200007891620008f2565b80516020808301516040840151600280546001600160a01b0319166001600160a01b039092169190911790554360035582519091620000bd9160079185019062000785565b508051620000d390600890602084019062000785565b50506009805460ff19166012179055506001600a556080810151670de0b6b3a76400001115620001205760405162461bcd60e51b8152600401620001179062000a90565b60405180910390fd5b6060810151600c805460ff191660018360088111156200013c57fe5b02179055506200014e60003362000186565b6200016960008051602062003a2d8339815191523362000186565b6200017f3382608001516200019660201b60201c565b5062000b2e565b6200019282826200027b565b5050565b6001600160a01b038216620001bf5760405162461bcd60e51b8152600401620001179062000ac7565b620001cd60008383620002f4565b620001e9816006546200044160201b620012a51790919060201c565b6006556001600160a01b0382166000908152600460209081526040909120546200021e918390620012a562000441821b17901c565b6001600160a01b0383166000818152600460205260408082209390935591519091907fddf252ad1be2c89b69c2b068fc378daa952ba7f163c4a11628f55a4df523b3ef906200026f90859062000afe565b60405180910390a35050565b600082815260208181526040909120620002a0918390620012e462000472821b17901c565b156200019257620002b062000489565b6001600160a01b0316816001600160a01b0316837f2f8788117e7eff1d82e926ec794901d17c78024a50270940304540a733656f0d60405160405180910390a45050565b6200030c8383836200043c60201b62000d981760201c565b6001600160a01b038216301415620003385760405162461bcd60e51b8152600401620001179062000a43565b600081118015620003945750620003707fcf2b1209506b76f140fb1bc5fe66d6e42627c4b9703a951d65552f50f14c9ee7846200048d565b806200039257506200039260008051602062003a2d833981519152836200048d565b155b156200043c576000620003a6620004b1565b6008811115620003b257fe5b1415620003f157600c54620003cc90839060ff1662000520565b620003eb5760405162461bcd60e51b8152600401620001179062000a6c565b6200043c565b6001620003fd620004b1565b60088111156200040957fe5b14156200043a576001600160a01b03821615620003eb5760405162461bcd60e51b8152600401620001179062000a23565bfe5b505050565b600082820183811015620004695760405162461bcd60e51b81526004016200011790620009ec565b90505b92915050565b600062000469836001600160a01b038416620005df565b3390565b600082815260208181526040822062000469918490620013066200062e821b17901c565b604080516101008101918290526000916200051b91906001906008908286855b82829054906101000a900463ffffffff1663ffffffff1681526020019060040190602082600301049283019260010382029150808411620004d15750439450506200064592505050565b905090565b600254604051631b0cb4b960e31b815260009182916001600160a01b039091169063d865a5c89062000557908790600401620009d8565b60206040518083038186803b1580156200057057600080fd5b505afa15801562000585573d6000803e3d6000fd5b505050506040513d601f19601f82011682018060405250810190620005ab9190620009bf565b90506000620005d282856008811115620005c157fe5b620006a160201b620013281760201c565b6003541195945050505050565b6000620005ed8383620006ca565b62000625575081546001818101845560008481526020808220909301849055845484825282860190935260409020919091556200046c565b5060006200046c565b600062000469836001600160a01b038416620006ca565b6000805b600881101562000698578381600881106200066057fe5b602002015163ffffffff168363ffffffff1610156200068f578060088111156200068657fe5b9150506200046c565b60010162000649565b50600862000469565b600081620006b2575060006200046c565b5063ffffffff602060001983010283901c166200046c565b60009081526001919091016020526040902054151590565b600183019183908215620007735791602002820160005b838211156200073f57835183826101000a81548163ffffffff021916908363ffffffff1602179055509260200192600401602081600301049283019260010302620006f9565b8015620007715782816101000a81549063ffffffff02191690556004016020816003010492830192600103026200073f565b505b506200078192915062000806565b5090565b828054600181600116156101000203166002900490600052602060002090601f016020900481019282601f10620007c857805160ff1916838001178555620007f8565b82800160010185558215620007f8579182015b82811115620007f8578251825591602001919060010190620007db565b506200078192915062000824565b5b808211156200078157805463ffffffff1916815560010162000807565b5b8082111562000781576000815560010162000825565b80516001600160a01b03811681146200046c57600080fd5b8051600981106200046c57600080fd5b600082601f83011262000874578081fd5b81516001600160401b038111156200088a578182fd5b6020620008a0601f8301601f1916820162000b07565b92508183528481838601011115620008b757600080fd5b60005b82811015620008d7578481018201518482018301528101620008ba565b82811115620008e95760008284860101525b50505092915050565b60006020828403121562000904578081fd5b81516001600160401b03808211156200091b578283fd5b9083019060a082860312156200092f578283fd5b6200093b60a062000b07565b8251828111156200094a578485fd5b620009588782860162000863565b8252506020830151828111156200096d578485fd5b6200097b8782860162000863565b6020830152506200099086604085016200083b565b6040820152620009a4866060850162000853565b60608201526080830151608082015280935050505092915050565b600060208284031215620009d1578081fd5b5051919050565b6001600160a01b0391909116815260200190565b6020808252601b908201527f536166654d6174683a206164646974696f6e206f766572666c6f770000000000604082015260600190565b602080825260069082015265232927ad22a760d11b604082015260600190565b6020808252600f908201526e2a27a5a2a72fa9a2a7222fa9a2a62360891b604082015260600190565b6020808252600a90820152694d494e5f53544154555360b01b604082015260600190565b60208082526016908201527f4d494e494d554d5f494e495449414c5f535550504c5900000000000000000000604082015260600190565b6020808252601f908201527f45524332303a206d696e7420746f20746865207a65726f206164647265737300604082015260600190565b90815260200190565b6040518181016001600160401b038111828210171562000b2657600080fd5b604052919050565b612eef8062000b3e6000396000f3fe608060405234801561001057600080fd5b50600436106102ad5760003560e01c806353bcb3251161017b578063a217fddf116100d8578063c5c97ece1161008c578063d547741f11610071578063d547741f1461052c578063db006a751461053f578063dd62ed3e14610552576102ad565b8063c5c97ece14610506578063ca15c87314610519576102ad565b8063a9059cbb116100bd578063a9059cbb146104e3578063ad3cb103146104f6578063ad7430cc146104fe576102ad565b8063a217fddf146104c8578063a457c2d7146104d0576102ad565b80639010d07c1161012f57806395d89b411161011457806395d89b41146104a55780639923c94b146104ad5780639c7081df146104c0576102ad565b80639010d07c1461047257806391d1485414610492576102ad565b806370a082311161016057806370a082311461044457806379cc67901461045757806381e45d9a1461046a576102ad565b806353bcb325146104345780636050f2f81461043c576102ad565b80632471bc3e1161022957806334c1df75116101dd57806339509351116101c257806339509351146103ee57806342966c681461040157806345bdfa8a14610414576102ad565b806334c1df75146103c857806336568abe146103db576102ad565b806327d557411161020e57806327d557411461038d5780632f2ff15d146103a0578063313ce567146103b3576102ad565b80632471bc3e14610367578063248a9ca31461037a576102ad565b80630f0af57f116102805780631c77bb2c116102655780631c77bb2c1461032a5780631ca1d59a1461033f57806323b872dd14610354576102ad565b80630f0af57f1461030d57806318160ddd14610322576102ad565b806301725c00146102b2578063055ad42e146102d057806306fdde03146102d8578063095ea7b3146102ed575b600080fd5b6102ba610565565b6040516102c79190612594565b60405180910390f35b6102ba61056e565b6102e06105d9565b6040516102c791906125a7565b6103006102fb366004612278565b61068d565b6040516102c79190612580565b6103156106ab565b6040516102c7919061258b565b6103156106b1565b6103326106b7565b6040516102c79190612510565b61035261034d3660046121b7565b61073d565b005b61030061036236600461220b565b6108ce565b61030061037536600461224b565b610970565b61031561038836600461241c565b610a41565b61035261039b3660046121b7565b610a56565b6103526103ae366004612434565b610b03565b6103bb610b61565b6040516102c79190612d30565b6102ba6103d6366004612378565b610b6a565b6103526103e9366004612434565b610bc1565b6103006103fc366004612278565b610c37565b61035261040f36600461241c565b610c92565b610427610422366004612347565b610ca6565b6040516102c79190612d1f565b6103bb610cf7565b610315610cfc565b6103156104523660046121b7565b610d20565b610352610465366004612278565b610d48565b610427610d9d565b610485610480366004612458565b610dc1565b6040516102c791906124c9565b6103006104a0366004612434565b610dd9565b6102e0610df1565b6104276104bb36600461241c565b610e70565b610485610e9d565b610315610eb9565b6103006104de366004612278565b610ebe565b6103006104f1366004612278565b610f33565b610315610f47565b610315610f53565b6103526105143660046122a3565b610f77565b61031561052736600461241c565b611191565b61035261053a366004612434565b6111a8565b61035261054d36600461241c565b6111fc565b6103156105603660046121d3565b61126d565b600c5460ff1681565b604080516101008101918290526000916105d491906001906008908286855b82829054906101000a900463ffffffff1663ffffffff168152602001906004019060208260030104928301926001038202915080841161058d579050505050505043610b6a565b905090565b60078054604080516020601f60027fffffffffffffffffffffffffffffffffffffffffffffffffffffffffffffffff6101006001881615020190951694909404938401819004810282018101909252828152606093909290918301828280156106835780601f1061065857610100808354040283529160200191610683565b820191906000526020600020905b81548152906001019060200180831161066657829003601f168201915b5050505050905090565b60006106a161069a61136c565b8484611370565b5060015b92915050565b60035481565b60065490565b6106bf61218d565b6106c761218d565b60005b600b5481101561073757600b81815481106106e157fe5b60009182526020909120015473ffffffffffffffffffffffffffffffffffffffff1682826008811061070f57fe5b73ffffffffffffffffffffffffffffffffffffffff90921660209290920201526001016106ca565b50905090565b610748600033610dd9565b610787576040517f08c379a000000000000000000000000000000000000000000000000000000000815260040161077e90612939565b60405180910390fd5b600b546008116107c3576040517f08c379a000000000000000000000000000000000000000000000000000000000815260040161077e90612c8b565b60005b600b54811015610856578173ffffffffffffffffffffffffffffffffffffffff16600b82815481106107f457fe5b60009182526020909120015473ffffffffffffffffffffffffffffffffffffffff16141561084e576040517f08c379a000000000000000000000000000000000000000000000000000000000815260040161077e90612848565b6001016107c6565b50600b80546001810182556000919091527f0175b7a638427703f0dbe7bb9bbf987a2551717b34e79f33b5b1008d1fa01db90180547fffffffffffffffffffffffff00000000000000000000000000000000000000001673ffffffffffffffffffffffffffffffffffffffff92909216919091179055565b60006108db84848461147f565b610965846108e761136c565b61096085604051806060016040528060288152602001612e496028913973ffffffffffffffffffffffffffffffffffffffff8a1660009081526005602052604081209061093261136c565b73ffffffffffffffffffffffffffffffffffffffff1681526020810191909152604001600020549190611609565b611370565b5060015b9392505050565b6002546040517fd865a5c8000000000000000000000000000000000000000000000000000000008152600091829173ffffffffffffffffffffffffffffffffffffffff9091169063d865a5c8906109cb9087906004016124c9565b60206040518083038186803b1580156109e357600080fd5b505afa1580156109f7573d6000803e3d6000fd5b505050506040513d601f19601f82011682018060405250810190610a1b9190612479565b90506000610a3482856008811115610a2f57fe5b611328565b6003541195945050505050565b60009081526020819052604090206002015490565b610a61600033610dd9565b610a97576040517f08c379a000000000000000000000000000000000000000000000000000000000815260040161077e90612939565b600080610aa261056e565b6008811115610aad57fe5b14610ae4576040517f08c379a000000000000000000000000000000000000000000000000000000000815260040161077e90612811565b610aed4361164f565b610aff82610afa84610d20565b6117c5565b5050565b600082815260208190526040902060020154610b21906104a061136c565b610b57576040517f08c379a000000000000000000000000000000000000000000000000000000000815260040161077e906126b2565b610aff82826118f5565b60095460ff1690565b6000805b6008811015610bb757838160088110610b8357fe5b602002015163ffffffff168363ffffffff161015610baf57806008811115610ba757fe5b9150506106a5565b600101610b6e565b5060089392505050565b610bc961136c565b73ffffffffffffffffffffffffffffffffffffffff168173ffffffffffffffffffffffffffffffffffffffff1614610c2d576040517f08c379a000000000000000000000000000000000000000000000000000000000815260040161077e90612cc2565b610aff8282611978565b60006106a1610c4461136c565b846109608560056000610c5561136c565b73ffffffffffffffffffffffffffffffffffffffff908116825260208083019390935260409182016000908120918c1681529252902054906112a5565b610ca3610c9d61136c565b826117c5565b50565b600080826008811115610cb557fe5b1415610cc3575060006106a5565b826001836008811115610cd257fe5b0360088110610cdd57fe5b602002016020810190610cf09190612491565b90506106a5565b600881565b7fcf2b1209506b76f140fb1bc5fe66d6e42627c4b9703a951d65552f50f14c9ee781565b73ffffffffffffffffffffffffffffffffffffffff1660009081526004602052604090205490565b6000610d7a82604051806060016040528060248152602001612e7160249139610d738661056061136c565b9190611609565b9050610d8e83610d8861136c565b83611370565b610d9883836117c5565b505050565b7fffffffffffffffffffffffffffffffffffffffffffffffffffffffffffffffff81565b600082815260208190526040812061096990836119fb565b60008281526020819052604081206109699083611306565b60088054604080516020601f60027fffffffffffffffffffffffffffffffffffffffffffffffffffffffffffffffff6101006001881615020190951694909404938401819004810282018101909252828152606093909290918301828280156106835780601f1061065857610100808354040283529160200191610683565b60018160088110610e7d57fe5b60089182820401919006600402915054906101000a900463ffffffff1681565b60025473ffffffffffffffffffffffffffffffffffffffff1681565b600081565b60006106a1610ecb61136c565b8461096085604051806060016040528060258152602001612e956025913960056000610ef561136c565b73ffffffffffffffffffffffffffffffffffffffff908116825260208083019390935260409182016000908120918d16815292529020549190611609565b60006106a1610f4061136c565b848461147f565b670de0b6b3a764000081565b7f94201143cc0a32610f14f8f185ebb23e4ca60f1758e49668647d0879b1e81f0b81565b600180610f8261056e565b6008811115610f8d57fe5b14610fc4576040517f08c379a000000000000000000000000000000000000000000000000000000000815260040161077e90612811565b6002600a541415611001576040517f08c379a000000000000000000000000000000000000000000000000000000000815260040161077e90612c54565b6002600a5560006110106106b1565b905061101c33846117c5565b60005b845181101561118557600085828151811061103657fe5b6020026020010151905060006110df846110d9888573ffffffffffffffffffffffffffffffffffffffff166370a08231306040518263ffffffff1660e01b815260040161108391906124c9565b60206040518083038186803b15801561109b57600080fd5b505afa1580156110af573d6000803e3d6000fd5b505050506040513d601f19601f820116820180604052508101906110d39190612479565b90611a07565b90611a5b565b90508173ffffffffffffffffffffffffffffffffffffffff163373ffffffffffffffffffffffffffffffffffffffff167ff8eb02c03b445447861a4fda33b7470adf3b693b314b35a1efb8203edc28d65660405180604001604052808a8152602001858152506040516111529190612558565b60405180910390a361117b73ffffffffffffffffffffffffffffffffffffffff83163383611a9d565b505060010161101f565b50506001600a55505050565b60008181526020819052604081206106a590611b3e565b6000828152602081905260409020600201546111c6906104a061136c565b610c2d576040517f08c379a000000000000000000000000000000000000000000000000000000000815260040161077e906128dc565b610ca3600b80548060200260200160405190810160405280929190818152602001828054801561126257602002820191906000526020600020905b815473ffffffffffffffffffffffffffffffffffffffff168152600190910190602001808311611237575b505050505082610f77565b73ffffffffffffffffffffffffffffffffffffffff918216600090815260056020908152604080832093909416825291909152205490565b600082820183811015610969576040517f08c379a000000000000000000000000000000000000000000000000000000000815260040161077e906127a3565b60006109698373ffffffffffffffffffffffffffffffffffffffff8416611b49565b60006109698373ffffffffffffffffffffffffffffffffffffffff8416611b93565b600081611337575060006106a5565b5063ffffffff60207fffffffffffffffffffffffffffffffffffffffffffffffffffffffffffffffff83010283901c166106a5565b3390565b73ffffffffffffffffffffffffffffffffffffffff83166113bd576040517f08c379a000000000000000000000000000000000000000000000000000000000815260040161077e90612b63565b73ffffffffffffffffffffffffffffffffffffffff821661140a576040517f08c379a000000000000000000000000000000000000000000000000000000000815260040161077e90612746565b73ffffffffffffffffffffffffffffffffffffffff80841660008181526005602090815260408083209487168084529490915290819020849055517f8c5be1e5ebec7d5bd14f71427d1e84f3dd0314c0f7b2291e5b200ac8c7c3b9259061147290859061258b565b60405180910390a3505050565b73ffffffffffffffffffffffffffffffffffffffff83166114cc576040517f08c379a000000000000000000000000000000000000000000000000000000000815260040161077e90612acf565b73ffffffffffffffffffffffffffffffffffffffff8216611519576040517f08c379a000000000000000000000000000000000000000000000000000000000815260040161077e90612655565b611524838383611bab565b61156e81604051806060016040528060268152602001612e236026913973ffffffffffffffffffffffffffffffffffffffff86166000908152600460205260409020549190611609565b73ffffffffffffffffffffffffffffffffffffffff80851660009081526004602052604080822093909355908416815220546115aa90826112a5565b73ffffffffffffffffffffffffffffffffffffffff80841660008181526004602052604090819020939093559151908516907fddf252ad1be2c89b69c2b068fc378daa952ba7f163c4a11628f55a4df523b3ef9061147290859061258b565b60008184841115611647576040517f08c379a000000000000000000000000000000000000000000000000000000000815260040161077e91906125a7565b505050900390565b8063ffffffff164363ffffffff161115611695576040517f08c379a000000000000000000000000000000000000000000000000000000000815260040161077e9061270f565b63ffffffff818116106116d4576040517f08c379a000000000000000000000000000000000000000000000000000000000815260040161077e906127da565b60006116de61056e565b60088111156116e957fe5b9050600181600881106116f857fe5b60088104919091015460079091166004026101000a900463ffffffff9081161461174e576040517f08c379a000000000000000000000000000000000000000000000000000000000815260040161077e90612b2c565b61175782611d44565b816001826008811061176557fe5b600891828204019190066004026101000a81548163ffffffff021916908363ffffffff1602179055508163ffffffff167f260aac5b840edc27b89fdf50e91311a413363a400959466e1049e6d071b8cee260405160405180910390a25050565b73ffffffffffffffffffffffffffffffffffffffff8216611812576040517f08c379a000000000000000000000000000000000000000000000000000000000815260040161077e90612a72565b61181e82600083611bab565b61186881604051806060016040528060228152602001612e016022913973ffffffffffffffffffffffffffffffffffffffff85166000908152600460205260409020549190611609565b73ffffffffffffffffffffffffffffffffffffffff831660009081526004602052604090205560065461189b9082611d69565b60065560405160009073ffffffffffffffffffffffffffffffffffffffff8416907fddf252ad1be2c89b69c2b068fc378daa952ba7f163c4a11628f55a4df523b3ef906118e990859061258b565b60405180910390a35050565b600082815260208190526040902061190d90826112e4565b15610aff5761191a61136c565b73ffffffffffffffffffffffffffffffffffffffff168173ffffffffffffffffffffffffffffffffffffffff16837f2f8788117e7eff1d82e926ec794901d17c78024a50270940304540a733656f0d60405160405180910390a45050565b60008281526020819052604090206119909082611dab565b15610aff5761199d61136c565b73ffffffffffffffffffffffffffffffffffffffff168173ffffffffffffffffffffffffffffffffffffffff16837ff6391f5c32d9c69d2a47ea670b442974b53935d1edc7fd64eb21e047a839171b60405160405180910390a45050565b60006109698383611dcd565b600082611a16575060006106a5565b82820282848281611a2357fe5b0414610969576040517f08c379a000000000000000000000000000000000000000000000000000000000815260040161077e90612a15565b600061096983836040518060400160405280601a81526020017f536166654d6174683a206469766973696f6e206279207a65726f000000000000815250611e2c565b610d988363a9059cbb60e01b8484604051602401611abc9291906124ea565b604080517fffffffffffffffffffffffffffffffffffffffffffffffffffffffffffffffe08184030181529190526020810180517bffffffffffffffffffffffffffffffffffffffffffffffffffffffff167fffffffff0000000000000000000000000000000000000000000000000000000090931692909217909152611e7d565b60006106a582611f33565b6000611b558383611b93565b611b8b575081546001818101845560008481526020808220909301849055845484825282860190935260409020919091556106a5565b5060006106a5565b60009081526001919091016020526040902054151590565b611bb6838383610d98565b73ffffffffffffffffffffffffffffffffffffffff8216301415611c06576040517f08c379a000000000000000000000000000000000000000000000000000000000815260040161077e906129a7565b600081118015611c6d5750611c3b7fcf2b1209506b76f140fb1bc5fe66d6e42627c4b9703a951d65552f50f14c9ee784610dd9565b80611c6b5750611c6b7f94201143cc0a32610f14f8f185ebb23e4ca60f1758e49668647d0879b1e81f0b83610dd9565b155b15610d98576000611c7c61056e565b6008811115611c8757fe5b1415611cd957600c54611c9e90839060ff16610970565b611cd4576040517f08c379a000000000000000000000000000000000000000000000000000000000815260040161077e906129de565b610d98565b6001611ce361056e565b6008811115611cee57fe5b1415611d425773ffffffffffffffffffffffffffffffffffffffff821615611cd4576040517f08c379a000000000000000000000000000000000000000000000000000000000815260040161077e90612970565bfe5b611d4d81610ca3565b6002611d5761056e565b6008811115611d6257fe5b10610ca357fe5b600061096983836040518060400160405280601e81526020017f536166654d6174683a207375627472616374696f6e206f766572666c6f770000815250611609565b60006109698373ffffffffffffffffffffffffffffffffffffffff8416611f37565b81546000908210611e0a576040517f08c379a000000000000000000000000000000000000000000000000000000000815260040161077e906125f8565b826000018281548110611e1957fe5b9060005260206000200154905092915050565b60008183611e67576040517f08c379a000000000000000000000000000000000000000000000000000000000815260040161077e91906125a7565b506000838581611e7357fe5b0495945050505050565b6060611edf826040518060400160405280602081526020017f5361666545524332303a206c6f772d6c6576656c2063616c6c206661696c65648152508573ffffffffffffffffffffffffffffffffffffffff1661201b9092919063ffffffff16565b805190915015610d985780806020019051810190611efd91906123fc565b610d98576040517f08c379a000000000000000000000000000000000000000000000000000000000815260040161077e90612bf7565b5490565b600081815260018301602052604081205480156120115783547fffffffffffffffffffffffffffffffffffffffffffffffffffffffffffffffff8083019190810190600090879083908110611f8857fe5b9060005260206000200154905080876000018481548110611fa557fe5b600091825260208083209091019290925582815260018981019092526040902090840190558654879080611fd557fe5b600190038181906000526020600020016000905590558660010160008781526020019081526020016000206000905560019450505050506106a5565b60009150506106a5565b606061202a8484600085612032565b949350505050565b60608247101561206e576040517f08c379a000000000000000000000000000000000000000000000000000000000815260040161077e9061287f565b61207785612134565b6120ad576040517f08c379a000000000000000000000000000000000000000000000000000000000815260040161077e90612bc0565b600060608673ffffffffffffffffffffffffffffffffffffffff1685876040516120d791906124ad565b60006040518083038185875af1925050503d8060008114612114576040519150601f19603f3d011682016040523d82523d6000602084013e612119565b606091505b509150915061212982828661213a565b979650505050505050565b3b151590565b60608315612149575081610969565b8251156121595782518084602001fd5b816040517f08c379a000000000000000000000000000000000000000000000000000000000815260040161077e91906125a7565b6040518061010001604052806008906020820280368337509192915050565b80356106a581612dbf565b6000602082840312156121c8578081fd5b813561096981612dbf565b600080604083850312156121e5578081fd5b82356121f081612dbf565b9150602083013561220081612dbf565b809150509250929050565b60008060006060848603121561221f578081fd5b833561222a81612dbf565b9250602084013561223a81612dbf565b929592945050506040919091013590565b6000806040838503121561225d578182fd5b823561226881612dbf565b9150602083013561220081612de1565b6000806040838503121561228a578182fd5b823561229581612dbf565b946020939093013593505050565b600080604083850312156122b5578182fd5b823567ffffffffffffffff8111156122cb578283fd5b8301601f810185136122db578283fd5b80356122ee6122e982612d65565b612d3e565b80828252602080830192508085018982838702880101111561230e578788fd5b8795505b84861015612338576123248a826121ac565b845260019590950194928101928101612312565b50909896013596505050505050565b600080610120838503121561235a578182fd5b61010083018481111561236b578283fd5b8392503561220081612de1565b600080610120838503121561238b578182fd5b83601f840112612399578182fd5b6101006123a581612d3e565b908401908085878411156123b7578586fd5b855b60088110156123ea57813563ffffffff811681146123d5578788fd5b845260209384019391909101906001016123b9565b50909450509035905061220081612dee565b60006020828403121561240d578081fd5b81518015158114610969578182fd5b60006020828403121561242d578081fd5b5035919050565b60008060408385031215612446578182fd5b82359150602083013561220081612dbf565b6000806040838503121561246a578182fd5b50508035926020909101359150565b60006020828403121561248a578081fd5b5051919050565b6000602082840312156124a2578081fd5b813561096981612dee565b600082516124bf818460208701612d85565b9190910192915050565b73ffffffffffffffffffffffffffffffffffffffff91909116815260200190565b73ffffffffffffffffffffffffffffffffffffffff929092168252602082015260400190565b6101008101818360005b600881101561254f57815173ffffffffffffffffffffffffffffffffffffffff1683526020928301929091019060010161251a565b50505092915050565b60408101818360005b600281101561254f578151835260209283019290910190600101612561565b901515815260200190565b90815260200190565b602081016125a183612db5565b91905290565b60006020825282518060208401526125c6816040850160208701612d85565b601f017fffffffffffffffffffffffffffffffffffffffffffffffffffffffffffffffe0169190910160400192915050565b60208082526022908201527f456e756d657261626c655365743a20696e646578206f7574206f6620626f756e60408201527f6473000000000000000000000000000000000000000000000000000000000000606082015260800190565b60208082526023908201527f45524332303a207472616e7366657220746f20746865207a65726f206164647260408201527f6573730000000000000000000000000000000000000000000000000000000000606082015260800190565b6020808252602f908201527f416363657373436f6e74726f6c3a2073656e646572206d75737420626520616e60408201527f2061646d696e20746f206772616e740000000000000000000000000000000000606082015260800190565b6020808252600f908201527f4e4558545f424c4f434b5f504153540000000000000000000000000000000000604082015260600190565b60208082526022908201527f45524332303a20617070726f766520746f20746865207a65726f20616464726560408201527f7373000000000000000000000000000000000000000000000000000000000000606082015260800190565b6020808252601b908201527f536166654d6174683a206164646974696f6e206f766572666c6f770000000000604082015260600190565b60208082526018908201527f4e4558545f424c4f434b5f554e494e495449414c495a45440000000000000000604082015260600190565b60208082526009908201527f4241445f50484153450000000000000000000000000000000000000000000000604082015260600190565b60208082526014908201527f4455504c49434154455f52454445454d41424c45000000000000000000000000604082015260600190565b60208082526026908201527f416464726573733a20696e73756666696369656e742062616c616e636520666f60408201527f722063616c6c0000000000000000000000000000000000000000000000000000606082015260800190565b60208082526030908201527f416363657373436f6e74726f6c3a2073656e646572206d75737420626520616e60408201527f2061646d696e20746f207265766f6b6500000000000000000000000000000000606082015260800190565b6020808252600a908201527f4f4e4c595f41444d494e00000000000000000000000000000000000000000000604082015260600190565b60208082526006908201527f46524f5a454e0000000000000000000000000000000000000000000000000000604082015260600190565b6020808252600f908201527f544f4b454e5f53454e445f53454c460000000000000000000000000000000000604082015260600190565b6020808252600a908201527f4d494e5f53544154555300000000000000000000000000000000000000000000604082015260600190565b60208082526021908201527f536166654d6174683a206d756c7469706c69636174696f6e206f766572666c6f60408201527f7700000000000000000000000000000000000000000000000000000000000000606082015260800190565b60208082526021908201527f45524332303a206275726e2066726f6d20746865207a65726f2061646472657360408201527f7300000000000000000000000000000000000000000000000000000000000000606082015260800190565b60208082526025908201527f45524332303a207472616e736665722066726f6d20746865207a65726f20616460408201527f6472657373000000000000000000000000000000000000000000000000000000606082015260800190565b6020808252600e908201527f4e4558545f424c4f434b5f534554000000000000000000000000000000000000604082015260600190565b60208082526024908201527f45524332303a20617070726f76652066726f6d20746865207a65726f2061646460408201527f7265737300000000000000000000000000000000000000000000000000000000606082015260800190565b6020808252601d908201527f416464726573733a2063616c6c20746f206e6f6e2d636f6e7472616374000000604082015260600190565b6020808252602a908201527f5361666545524332303a204552433230206f7065726174696f6e20646964206e60408201527f6f74207375636365656400000000000000000000000000000000000000000000606082015260800190565b6020808252601f908201527f5265656e7472616e637947756172643a207265656e7472616e742063616c6c00604082015260600190565b6020808252600f908201527f4d41585f52454445454d41424c45530000000000000000000000000000000000604082015260600190565b6020808252602f908201527f416363657373436f6e74726f6c3a2063616e206f6e6c792072656e6f756e636560408201527f20726f6c657320666f722073656c660000000000000000000000000000000000606082015260800190565b63ffffffff91909116815260200190565b60ff91909116815260200190565b60405181810167ffffffffffffffff81118282101715612d5d57600080fd5b604052919050565b600067ffffffffffffffff821115612d7b578081fd5b5060209081020190565b60005b83811015612da0578181015183820152602001612d88565b83811115612daf576000848401525b50505050565b60098110610ca357fe5b73ffffffffffffffffffffffffffffffffffffffff81168114610ca357600080fd5b60098110610ca357600080fd5b63ffffffff81168114610ca357600080fdfe45524332303a206275726e20616d6f756e7420657863656564732062616c616e636545524332303a207472616e7366657220616d6f756e7420657863656564732062616c616e636545524332303a207472616e7366657220616d6f756e74206578636565647320616c6c6f77616e636545524332303a206275726e20616d6f756e74206578636565647320616c6c6f77616e636545524332303a2064656372656173656420616c6c6f77616e63652062656c6f77207a65726fa264697066735822122091cc88c8f06bed443c6777d831b8b13158916a62a298fb6837d0b5e839ecf85964736f6c634300060c003394201143cc0a32610f14f8f185ebb23e4ca60f1758e49668647d0879b1e81f0b61022060405263ffffffff6101208181526101408290526101608290526101808290526101a08290526101c08290526101e0829052610200919091526200004b90600190600862000999565b503480156200005957600080fd5b5060405162002cce38038062002cce8339810160408190526200007c9162000aac565b60006200008862000753565b600080546001600160a01b0319166001600160a01b0383169081178255604051929350917f8be0079c531659141344cd1fd0a4f28419497f9722a3daafe3b4186f6b6457e0908290a3506305f5e10081608001511015620001065760405162461bcd60e51b8152600401620000fd9062000f1a565b60405180910390fd5b6060808201516001600160601b031990821b81166080908152604084015190921b1660a0528101805160c090815290519082015162000146919062000757565b6101005260408051600280825260608083018452926020830190803683370190505090508160400151816000815181106200017d57fe5b60200260200101906001600160a01b031690816001600160a01b031681525050816060015181600181518110620001b057fe5b6001600160a01b0392909216602092830291909101909101526040805160028082526060828101909352816020016020820280368337019050509050826080015181600081518110620001ff57fe5b60200260200101818152505082606001516001600160a01b03166318160ddd6040518163ffffffff1660e01b815260040160206040518083038186803b1580156200024957600080fd5b505afa1580156200025e573d6000803e3d6000fd5b505050506040513d601f19601f8201168201806040525081019062000284919062000bd9565b816001815181106200029257fe5b602002602001018181525050600081600181518110620002ae57fe5b602002602001015111620002d65760405162461bcd60e51b8152600401620000fd9062000f92565b6040805160028082526060808301845292602083019080368337019050509050670de0b6b3a7640000816000815181106200030d57fe5b6020026020010181815250506200033384608001518560a001516200075760201b60201c565b816001815181106200034157fe5b602090810291909101015260408051600680825260e082019092526060918160200160208202803683370190505090506001816002815181106200038157fe5b602002602001019015159081151581525050600181600481518110620003a357fe5b602002602001019015159081151581525050600085600001516001600160a01b0316634420002b87602001516040518060c00160405280604051806040016040528060048152602001630523230560e41b81525081526020016040518060400160405280601381526020017f52656465656d61626c654552433230506f6f6c000000000000000000000000008152508152602001898152602001888152602001878152602001620f4240670de0b6b3a7640000816200045e57fe5b0490526040516330211cff60e21b815273__$2e01043d609d645301b32b1d7a001b4107$__9063c08473fc906200049a90899060040162000df1565b60c06040518083038186803b158015620004b357600080fd5b505af4158015620004c8573d6000803e3d6000fd5b505050506040513d601f19601f82011682018060405250810190620004ee919062000b42565b6040518463ffffffff1660e01b81526004016200050e9392919062000cfc565b602060405180830381600087803b1580156200052957600080fd5b505af11580156200053e573d6000803e3d6000fd5b505050506040513d601f19601f8201168201806040525081019062000564919062000a8d565b6001600160601b0319606082901b1660e0526040808801516080890151915163095ea7b360e01b81529293506001600160a01b03169163095ea7b391620005b19185919060040162000dd8565b602060405180830381600087803b158015620005cc57600080fd5b505af1158015620005e1573d6000803e3d6000fd5b505050506040513d601f19601f8201168201806040525081019062000607919062000a6b565b620006265760405162461bcd60e51b8152600401620000fd9062000fb8565b85606001516001600160a01b031663095ea7b38288606001516001600160a01b03166318160ddd6040518163ffffffff1660e01b815260040160206040518083038186803b1580156200067857600080fd5b505afa1580156200068d573d6000803e3d6000fd5b505050506040513d601f19601f82011682018060405250810190620006b3919062000bd9565b6040518363ffffffff1660e01b8152600401620006d292919062000dd8565b602060405180830381600087803b158015620006ed57600080fd5b505af115801562000702573d6000803e3d6000fd5b505050506040513d601f19601f8201168201806040525081019062000728919062000a6b565b620007475760405162461bcd60e51b8152600401620000fd9062000ebc565b50505050505062001021565b3390565b600080620007958462000781670de0b6b3a7640000866200083360201b62000f711790919060201c565b6200087360201b62000fc51790919060201c565b9050670de0b6b3a7640000811015620007c25760405162461bcd60e51b8152600401620000fd9062000ee3565b620007e481670de0b6b3a7640000620008bd60201b620010071790919060201c565b62000809670de0b6b3a764000080603202620008e560201b620010461790919060201c565b10156200082a5760405162461bcd60e51b8152600401620000fd9062000e4e565b90505b92915050565b60008262000844575060006200082d565b828202828482816200085257fe5b04146200082a5760405162461bcd60e51b8152600401620000fd9062000f51565b60006200082a83836040518060400160405280601a81526020017f536166654d6174683a206469766973696f6e206279207a65726f0000000000008152506200092f60201b60201c565b6000828201838110156200082a5760405162461bcd60e51b8152600401620000fd9062000e85565b60006200082a83836040518060400160405280601e81526020017f536166654d6174683a207375627472616374696f6e206f766572666c6f7700008152506200096a60201b60201c565b60008183620009535760405162461bcd60e51b8152600401620000fd919062000e39565b5060008385816200096057fe5b0495945050505050565b60008184841115620009915760405162461bcd60e51b8152600401620000fd919062000e39565b505050900390565b60018301918390821562000a2a5791602002820160005b83821115620009f657835183826101000a81548163ffffffff021916908363ffffffff1602179055509260200192600401602081600301049283019260010302620009b0565b801562000a285782816101000a81549063ffffffff0219169055600401602081600301049283019260010302620009f6565b505b5062000a3892915062000a3c565b5090565b5b8082111562000a3857805463ffffffff1916815560010162000a3d565b805180151581146200082d57600080fd5b60006020828403121562000a7d578081fd5b815180151581146200082a578182fd5b60006020828403121562000a9f578081fd5b81516200082a8162001008565b600060e0828403121562000abe578081fd5b62000aca60e062000fe1565b825162000ad78162001008565b8152602083015162000ae98162001008565b6020820152604083015162000afe8162001008565b6040820152606083015162000b138162001008565b806060830152506080830151608082015260a083015160a082015260c083015160c08201528091505092915050565b600060c0828403121562000b54578081fd5b62000b6060c062000fe1565b62000b6c848462000a5a565b815262000b7d846020850162000a5a565b602082015262000b91846040850162000a5a565b604082015262000ba5846060850162000a5a565b606082015262000bb9846080850162000a5a565b608082015262000bcd8460a0850162000a5a565b60a08201529392505050565b60006020828403121562000beb578081fd5b5051919050565b6000815180845260208085019450808401835b8381101562000c2c5781516001600160a01b03168752958201959082019060010162000c05565b509495945050505050565b6000815180845260208085019450808401835b8381101562000c2c5781518752958201959082019060010162000c4a565b60008151808452815b8181101562000c8f5760208185018101518683018201520162000c71565b8181111562000ca15782602083870101525b50601f01601f19169290920160200192915050565b80511515825260208101511515602083015260408101511515604083015260608101511515606083015260808101511515608083015260a0810151151560a08301525050565b6001600160a01b038416815261010060208201819052835160c0838301526000919062000d2e6101c085018262000c68565b915050602085015160ff19808584030161012086015262000d50838362000c68565b925060408701519150808584030161014086015262000d70838362000bf2565b925060608701519150808584030161016086015262000d90838362000c37565b92506080870151915080858403016101808601525062000db1828262000c37565b60a08701516101a0860152925062000dd0915050604083018462000cb6565b949350505050565b6001600160a01b03929092168252602082015260400190565b6020808252825182820181905260009190848201906040850190845b8181101562000e2d57835115158352928401929184019160010162000e0d565b50909695505050505050565b6000602082526200082a602083018462000c68565b60208082526014908201527f4d41585f5745494748545f56414c554154494f4e000000000000000000000000604082015260600190565b6020808252601b908201527f536166654d6174683a206164646974696f6e206f766572666c6f770000000000604082015260600190565b6020808252600d908201526c544f4b454e5f415050524f564560981b604082015260600190565b60208082526014908201527f4d494e5f5745494748545f56414c554154494f4e000000000000000000000000604082015260600190565b60208082526014908201527f524553455256455f494e49545f4d494e494d554d000000000000000000000000604082015260600190565b60208082526021908201527f536166654d6174683a206d756c7469706c69636174696f6e206f766572666c6f6040820152607760f81b606082015260800190565b6020808252600c908201526b0544f4b454e5f494e49545f360a41b604082015260600190565b6020808252600f908201526e524553455256455f415050524f564560881b604082015260600190565b6040518181016001600160401b03811182821017156200100057600080fd5b604052919050565b6001600160a01b03811681146200101e57600080fd5b50565b60805160601c60a05160601c60c05160e05160601c61010051611c28620010a66000398061028b528061048f525080610309528061050352806105b652806108a45280610a105280610a995280610ad652508061076952508061078d52806108685280610d4e5280610dea5250806109d45280610c295280610f4f5250611c286000f3fe608060405234801561001057600080fd5b506004361061011b5760003560e01c8063715018a6116100b2578063bb06997211610081578063e52ecbfb11610066578063e52ecbfb146101fb578063f2fde38b14610203578063fc0c546a146102165761011b565b8063bb069972146101eb578063cd3293de146101f35761011b565b8063715018a6146101c057806381e45d9a146101c85780638da5cb5b146101d05780639923c94b146101d85761011b565b806345bdfa8a116100ee57806345bdfa8a1461017b5780634ea2cb191461019b57806360498954146101a35780636ba85bd6146101b85761011b565b8063055ad42e1461012057806324ee2f4d1461013e57806334c1df75146101535780633fd8108e14610166575b600080fd5b61012861021e565b60405161013591906117f1565b60405180910390f35b610146610289565b6040516101359190611b49565b610128610161366004611617565b6102ad565b61016e610307565b6040516101359190611785565b61018e6101893660046115d8565b61032b565b6040516101359190611b81565b61014661037c565b6101b66101b13660046116e3565b610384565b005b610146610628565b6101b661062f565b61018e6106fa565b61016e61071e565b61018e6101e63660046116e3565b61073a565b610146610767565b61016e61078b565b6101b66107af565b6101b66102113660046115bc565b610e17565b61016e610f4d565b6040805161010081019182905260009161028491906001906008908286855b82829054906101000a900463ffffffff1663ffffffff168152602001906004019060208260030104928301926001038202915080841161023d5790505050505050436102ad565b905090565b7f000000000000000000000000000000000000000000000000000000000000000081565b6000805b60088110156102fa578381600881106102c657fe5b602002015163ffffffff168363ffffffff1610156102f2578060088111156102ea57fe5b915050610301565b6001016102b1565b5060085b90505b92915050565b7f000000000000000000000000000000000000000000000000000000000000000081565b60008082600881111561033a57fe5b141561034857506000610301565b82600183600881111561035757fe5b036008811061036257fe5b6020020160208101906103759190611713565b9050610301565b6305f5e10081565b61038c611088565b60005473ffffffffffffffffffffffffffffffffffffffff9081169116146103e9576040517f08c379a00000000000000000000000000000000000000000000000000000000081526004016103e090611a49565b60405180910390fd5b6000806103f461021e565b60088111156103ff57fe5b14610436576040517f08c379a00000000000000000000000000000000000000000000000000000000081526004016103e090611958565b61043f4361108c565b61044b8260010161108c565b6040805160028082526060808301845292602083019080368337019050509050670de0b6b3a76400008160008151811061048157fe5b6020026020010181815250507f0000000000000000000000000000000000000000000000000000000000000000816001815181106104bb57fe5b60209081029190910101526040517fc3391d2700000000000000000000000000000000000000000000000000000000815273ffffffffffffffffffffffffffffffffffffffff7f0000000000000000000000000000000000000000000000000000000000000000169063c3391d2790610549906b033b2e3c9fd0803ce8000000906000908190600401611b6b565b600060405180830381600087803b15801561056357600080fd5b505af1158015610577573d6000803e3d6000fd5b50506040517f246bc19b00000000000000000000000000000000000000000000000000000000815273ffffffffffffffffffffffffffffffffffffffff7f000000000000000000000000000000000000000000000000000000000000000016925063246bc19b91506105f1908490439088906004016117cc565b600060405180830381600087803b15801561060b57600080fd5b505af115801561061f573d6000803e3d6000fd5b50505050505050565b620f424081565b610637611088565b60005473ffffffffffffffffffffffffffffffffffffffff90811691161461068b576040517f08c379a00000000000000000000000000000000000000000000000000000000081526004016103e090611a49565b6000805460405173ffffffffffffffffffffffffffffffffffffffff909116907f8be0079c531659141344cd1fd0a4f28419497f9722a3daafe3b4186f6b6457e0908390a3600080547fffffffffffffffffffffffff0000000000000000000000000000000000000000169055565b7fffffffffffffffffffffffffffffffffffffffffffffffffffffffffffffffff81565b60005473ffffffffffffffffffffffffffffffffffffffff1690565b6001816008811061074757fe5b60089182820401919006600402915054906101000a900463ffffffff1681565b7f000000000000000000000000000000000000000000000000000000000000000081565b7f000000000000000000000000000000000000000000000000000000000000000081565b6107b7611088565b60005473ffffffffffffffffffffffffffffffffffffffff90811691161461080b576040517f08c379a00000000000000000000000000000000000000000000000000000000081526004016103e090611a49565b60028061081661021e565b600881111561082157fe5b14610858576040517f08c379a00000000000000000000000000000000000000000000000000000000081526004016103e090611958565b6108614361108c565b60006109cb7f000000000000000000000000000000000000000000000000000000000000000073ffffffffffffffffffffffffffffffffffffffff166370a082317f000000000000000000000000000000000000000000000000000000000000000073ffffffffffffffffffffffffffffffffffffffff1663b64ef17b6040518163ffffffff1660e01b815260040160206040518083038186803b15801561090857600080fd5b505afa15801561091c573d6000803e3d6000fd5b505050506040513d601f19601f8201168201806040525081019061094091906116c7565b6040518263ffffffff1660e01b815260040161095c9190611785565b60206040518083038186803b15801561097457600080fd5b505afa158015610988573d6000803e3d6000fd5b505050506040513d601f19601f820116820180604052508101906109ac91906116fb565b6109c5620f42406b033b2e3c9fd0803ce8000000610f71565b90610fc5565b90506000610a747f000000000000000000000000000000000000000000000000000000000000000073ffffffffffffffffffffffffffffffffffffffff166370a082317f000000000000000000000000000000000000000000000000000000000000000073ffffffffffffffffffffffffffffffffffffffff1663b64ef17b6040518163ffffffff1660e01b815260040160206040518083038186803b15801561090857600080fd5b90506000610a9582610a8f68056bc75e2d6310000086611202565b90611202565b90507f000000000000000000000000000000000000000000000000000000000000000073ffffffffffffffffffffffffffffffffffffffff1663b02f0b73827f000000000000000000000000000000000000000000000000000000000000000073ffffffffffffffffffffffffffffffffffffffff166370a08231306040518263ffffffff1660e01b8152600401610b2d9190611785565b60206040518083038186803b158015610b4557600080fd5b505afa158015610b59573d6000803e3d6000fd5b505050506040513d601f19601f82011682018060405250810190610b7d91906116fb565b604080516002808252606082018352939092039290602083019080368337019050506040518363ffffffff1660e01b8152600401610bbc929190611b52565b600060405180830381600087803b158015610bd657600080fd5b505af1158015610bea573d6000803e3d6000fd5b50506040517f70a0823100000000000000000000000000000000000000000000000000000000815273ffffffffffffffffffffffffffffffffffffffff7f00000000000000000000000000000000000000000000000000000000000000001692506342966c68915082906370a0823190610c68903090600401611785565b60206040518083038186803b158015610c8057600080fd5b505afa158015610c94573d6000803e3d6000fd5b505050506040513d601f19601f82011682018060405250810190610cb891906116fb565b6040518263ffffffff1660e01b8152600401610cd49190611b49565b600060405180830381600087803b158015610cee57600080fd5b505af1158015610d02573d6000803e3d6000fd5b50505050610e11610d1161071e565b6040517f70a0823100000000000000000000000000000000000000000000000000000000815273ffffffffffffffffffffffffffffffffffffffff7f000000000000000000000000000000000000000000000000000000000000000016906370a0823190610d83903090600401611785565b60206040518083038186803b158015610d9b57600080fd5b505afa158015610daf573d6000803e3d6000fd5b505050506040513d601f19601f82011682018060405250810190610dd391906116fb565b73ffffffffffffffffffffffffffffffffffffffff7f0000000000000000000000000000000000000000000000000000000000000000169190611219565b50505050565b610e1f611088565b60005473ffffffffffffffffffffffffffffffffffffffff908116911614610e73576040517f08c379a00000000000000000000000000000000000000000000000000000000081526004016103e090611a49565b73ffffffffffffffffffffffffffffffffffffffff8116610ec0576040517f08c379a00000000000000000000000000000000000000000000000000000000081526004016103e09061188d565b6000805460405173ffffffffffffffffffffffffffffffffffffffff808516939216917f8be0079c531659141344cd1fd0a4f28419497f9722a3daafe3b4186f6b6457e091a3600080547fffffffffffffffffffffffff00000000000000000000000000000000000000001673ffffffffffffffffffffffffffffffffffffffff92909216919091179055565b7f000000000000000000000000000000000000000000000000000000000000000081565b600082610f8057506000610301565b82820282848281610f8d57fe5b04146102fe576040517f08c379a00000000000000000000000000000000000000000000000000000000081526004016103e0906119ec565b60006102fe83836040518060400160405280601a81526020017f536166654d6174683a206469766973696f6e206279207a65726f0000000000008152506112bf565b6000828201838110156102fe576040517f08c379a00000000000000000000000000000000000000000000000000000000081526004016103e0906118ea565b60006102fe83836040518060400160405280601e81526020017f536166654d6174683a207375627472616374696f6e206f766572666c6f770000815250611312565b3390565b8063ffffffff164363ffffffff1611156110d2576040517f08c379a00000000000000000000000000000000000000000000000000000000081526004016103e090611856565b63ffffffff81811610611111576040517f08c379a00000000000000000000000000000000000000000000000000000000081526004016103e090611921565b600061111b61021e565b600881111561112657fe5b90506001816008811061113557fe5b60088104919091015460079091166004026101000a900463ffffffff9081161461118b576040517f08c379a00000000000000000000000000000000000000000000000000000000081526004016103e090611a7e565b61119482611358565b81600182600881106111a257fe5b600891828204019190066004026101000a81548163ffffffff021916908363ffffffff1602179055508163ffffffff167f260aac5b840edc27b89fdf50e91311a413363a400959466e1049e6d071b8cee260405160405180910390a25050565b60008183101561121257816102fe565b5090919050565b6112ba8363a9059cbb60e01b84846040516024016112389291906117a6565b604080517fffffffffffffffffffffffffffffffffffffffffffffffffffffffffffffffe08184030181529190526020810180517bffffffffffffffffffffffffffffffffffffffffffffffffffffffff167fffffffff0000000000000000000000000000000000000000000000000000000090931692909217909152611380565b505050565b600081836112fa576040517f08c379a00000000000000000000000000000000000000000000000000000000081526004016103e09190611805565b50600083858161130657fe5b049150505b9392505050565b60008184841115611350576040517f08c379a00000000000000000000000000000000000000000000000000000000081526004016103e09190611805565b505050900390565b6113618161137d565b600361136b61021e565b600881111561137657fe5b1061137d57fe5b50565b60606113e2826040518060400160405280602081526020017f5361666545524332303a206c6f772d6c6576656c2063616c6c206661696c65648152508573ffffffffffffffffffffffffffffffffffffffff166114369092919063ffffffff16565b8051909150156112ba578080602001905181019061140091906116a7565b6112ba576040517f08c379a00000000000000000000000000000000000000000000000000000000081526004016103e090611aec565b6060611445848460008561144d565b949350505050565b606082471015611489576040517f08c379a00000000000000000000000000000000000000000000000000000000081526004016103e09061198f565b6114928561154f565b6114c8576040517f08c379a00000000000000000000000000000000000000000000000000000000081526004016103e090611ab5565b600060608673ffffffffffffffffffffffffffffffffffffffff1685876040516114f29190611769565b60006040518083038185875af1925050503d806000811461152f576040519150601f19603f3d011682016040523d82523d6000602084013e611534565b606091505b5091509150611544828286611555565b979650505050505050565b3b151590565b6060831561156457508161130b565b8251156115745782518084602001fd5b816040517f08c379a00000000000000000000000000000000000000000000000000000000081526004016103e09190611805565b803563ffffffff8116811461030157600080fd5b6000602082840312156115cd578081fd5b81356102fe81611bbe565b60008061012083850312156115eb578081fd5b6101008301848111156115fc578182fd5b839250356009811061160c578182fd5b809150509250929050565b600080610120838503121561162a578182fd5b83601f840112611638578182fd5b60405161010080820182811067ffffffffffffffff82111715611659578485fd5b604052840181858783111561166c578586fd5b855b60088110156116965761168189836115a8565b8352602092830192919091019060010161166e565b509294505035905061160c81611be0565b6000602082840312156116b8578081fd5b815180151581146102fe578182fd5b6000602082840312156116d8578081fd5b81516102fe81611bbe565b6000602082840312156116f4578081fd5b5035919050565b60006020828403121561170c578081fd5b5051919050565b600060208284031215611724578081fd5b81356102fe81611be0565b6000815180845260208085019450808401835b8381101561175e57815187529582019590820190600101611742565b509495945050505050565b6000825161177b818460208701611b92565b9190910192915050565b73ffffffffffffffffffffffffffffffffffffffff91909116815260200190565b73ffffffffffffffffffffffffffffffffffffffff929092168252602082015260400190565b6000606082526117df606083018661172f565b60208301949094525060400152919050565b60208101600983106117ff57fe5b91905290565b6000602082528251806020840152611824816040850160208701611b92565b601f017fffffffffffffffffffffffffffffffffffffffffffffffffffffffffffffffe0169190910160400192915050565b6020808252600f908201527f4e4558545f424c4f434b5f504153540000000000000000000000000000000000604082015260600190565b60208082526026908201527f4f776e61626c653a206e6577206f776e657220697320746865207a65726f206160408201527f6464726573730000000000000000000000000000000000000000000000000000606082015260800190565b6020808252601b908201527f536166654d6174683a206164646974696f6e206f766572666c6f770000000000604082015260600190565b60208082526018908201527f4e4558545f424c4f434b5f554e494e495449414c495a45440000000000000000604082015260600190565b60208082526009908201527f4241445f50484153450000000000000000000000000000000000000000000000604082015260600190565b60208082526026908201527f416464726573733a20696e73756666696369656e742062616c616e636520666f60408201527f722063616c6c0000000000000000000000000000000000000000000000000000606082015260800190565b60208082526021908201527f536166654d6174683a206d756c7469706c69636174696f6e206f766572666c6f60408201527f7700000000000000000000000000000000000000000000000000000000000000606082015260800190565b6020808252818101527f4f776e61626c653a2063616c6c6572206973206e6f7420746865206f776e6572604082015260600190565b6020808252600e908201527f4e4558545f424c4f434b5f534554000000000000000000000000000000000000604082015260600190565b6020808252601d908201527f416464726573733a2063616c6c20746f206e6f6e2d636f6e7472616374000000604082015260600190565b6020808252602a908201527f5361666545524332303a204552433230206f7065726174696f6e20646964206e60408201527f6f74207375636365656400000000000000000000000000000000000000000000606082015260800190565b90815260200190565b600083825260406020830152611445604083018461172f565b9283526020830191909152604082015260600190565b63ffffffff91909116815260200190565b60005b83811015611bad578181015183820152602001611b95565b83811115610e115750506000910152565b73ffffffffffffffffffffffffffffffffffffffff8116811461137d57600080fd5b63ffffffff8116811461137d57600080fdfea26469706673582212201a3584344bd285a8f1f693b8df6a141d5eb2cb119cc40dc8e0c6c43e3a7af13564736f6c634300060c003361020060405263ffffffff6101008181526101208290526101408290526101608290526101808290526101a08290526101c08290526101e0919091526200004b90600790600862000360565b503480156200005957600080fd5b5060405162002f2438038062002f248339810160408190526200007c9162000573565b608081015160a082015160c08301516000620000976200022b565b600080546001600160a01b0319166001600160a01b0383169081178255604051929350917f8be0079c531659141344cd1fd0a4f28419497f9722a3daafe3b4186f6b6457e0908290a3508151620000f690600490602085019062000403565b5080516200010c90600590602084019062000403565b50506006805460ff191660121790555061ffff8116620001495760405162461bcd60e51b81526004016200014090620006e2565b60405180910390fd5b60f01b6001600160f01b03191660805260408101516200017d5760405162461bcd60e51b81526004016200014090620006c1565b6000816060015161ffff1611620001a85760405162461bcd60e51b815260040162000140906200073d565b60208101516001600160a01b0316620001d55760405162461bcd60e51b8152600401620001409062000665565b604081015160e05280516001600160601b0319606091821b811660a052602083015190911b1660c0526200020a60006200022f565b6200022430826060015161ffff166200024560201b60201c565b506200078e565b3390565b6006805460ff191660ff92909216919091179055565b6001600160a01b0382166200026e5760405162461bcd60e51b8152600401620001409062000706565b6200027c600083836200032a565b62000298816003546200032f60201b620012821790919060201c565b6003556001600160a01b038216600090815260016020908152604090912054620002cd918390620012826200032f821b17901c565b6001600160a01b0383166000818152600160205260408082209390935591519091907fddf252ad1be2c89b69c2b068fc378daa952ba7f163c4a11628f55a4df523b3ef906200031e9085906200075e565b60405180910390a35050565b505050565b600082820183811015620003575760405162461bcd60e51b815260040162000140906200068a565b90505b92915050565b600183019183908215620003f15791602002820160005b83821115620003bd57835183826101000a81548163ffffffff021916908363ffffffff160217905550926020019260040160208160030104928301926001030262000377565b8015620003ef5782816101000a81549063ffffffff0219169055600401602081600301049283019260010302620003bd565b505b50620003ff92915062000484565b5090565b828054600181600116156101000203166002900490600052602060002090601f016020900481019282601f106200044657805160ff191683800117855562000476565b8280016001018555821562000476579182015b828111156200047657825182559160200191906001019062000459565b50620003ff929150620004a2565b5b80821115620003ff57805463ffffffff1916815560010162000485565b5b80821115620003ff5760008155600101620004a3565b80516001600160a01b03811681146200035a57600080fd5b600082601f830112620004e2578081fd5b81516001600160401b03811115620004f8578182fd5b60206200050e601f8301601f1916820162000767565b925081835284818386010111156200052557600080fd5b60005b828110156200054557848101820151848201830152810162000528565b82811115620005575760008284860101525b50505092915050565b805161ffff811681146200035a57600080fd5b60006020828403121562000585578081fd5b81516001600160401b03808211156200059c578283fd5b9083019060e08286031215620005b0578283fd5b620005bc60e062000767565b620005c88684620004b9565b8152620005d98660208501620004b9565b602082015260408301516040820152620005f7866060850162000560565b60608201526200060b866080850162000560565b608082015260a08301518281111562000622578485fd5b6200063087828601620004d1565b60a08301525060c08301518281111562000648578485fd5b6200065687828601620004d1565b60c08301525095945050505050565b6020808252600b908201526a0524543495049454e545f360ac1b604082015260600190565b6020808252601b908201527f536166654d6174683a206164646974696f6e206f766572666c6f770000000000604082015260600190565b602080825260079082015266050524943455f360cc1b604082015260600190565b6020808252600a90820152690434f4f4c444f574e5f360b41b604082015260600190565b6020808252601f908201527f45524332303a206d696e7420746f20746865207a65726f206164647265737300604082015260600190565b6020808252600790820152660554e4954535f360cc1b604082015260600190565b90815260200190565b6040518181016001600160401b03811182821017156200078657600080fd5b604052919050565b60805160f01c60a05160601c60c05160601c60e05161272a620007fa60003980610666528061096a5280610dd75250806109ee5280610cc05250806106a252806109a65280610a0f5280610f70528061103552508061062f528061085b5280610bf0525061272a6000f3fe608060405234801561001057600080fd5b50600436106101b95760003560e01c806366d003ac116100f95780639923c94b11610097578063cd3293de11610071578063cd3293de1461036d578063db006a7514610375578063dd62ed3e14610388578063f2fde38b1461039b576101b9565b80639923c94b14610334578063a457c2d714610347578063a9059cbb1461035a576101b9565b80637e34cd3d116100d35780637e34cd3d1461031457806381e45d9a1461031c5780638da5cb5b1461032457806395d89b411461032c576101b9565b806366d003ac146102e457806370a08231146102f9578063715018a61461030c576101b9565b806318160ddd1161016657806334c1df751161014057806334c1df7514610289578063352693151461029c57806339509351146102b157806345bdfa8a146102c4576101b9565b806318160ddd1461025957806323b872dd14610261578063313ce56714610274576101b9565b806309489096116101975780630948909614610211578063095ea7b314610226578063166a00e414610246576101b9565b806301320fe2146101be578063055ad42e146101e757806306fdde03146101fc575b600080fd5b6101d16101cc366004611cd8565b6103ae565b6040516101de91906125d7565b60405180910390f35b6101ef6103c0565b6040516101de9190611f8c565b61020461042b565b6040516101de9190611fa0565b61022461021f366004611e80565b6104df565b005b610239610234366004611d67565b6106f6565b6040516101de9190611f81565b610224610254366004611eb0565b610714565b6101d1610ae6565b61023961026f366004611d27565b610aec565b61027c610b8e565b6040516101de91906125f1565b6101ef610297366004611dd0565b610b97565b6102a4610bee565b6040516101de91906125c8565b6102396102bf366004611d67565b610c12565b6102d76102d2366004611d91565b610c6d565b6040516101de91906125e0565b6102ec610cbe565b6040516101de9190611f09565b6101d1610307366004611cd8565b610ce2565b610224610d0a565b6101d1610dd5565b6102d7610df9565b6102ec610e1d565b610204610e39565b6102d7610342366004611e80565b610eb8565b610239610355366004611d67565b610ee5565b610239610368366004611d67565b610f5a565b6102ec610f6e565b610224610383366004611e80565b610f92565b6101d1610396366004611cf3565b611114565b6102246103a9366004611cd8565b61114c565b60086020526000908152604090205481565b6040805161010081019182905260009161042691906007906008908286855b82829054906101000a900463ffffffff1663ffffffff16815260200190600401906020826003010492830192600103820291508084116103df579050505050505043610b97565b905090565b60048054604080516020601f60027fffffffffffffffffffffffffffffffffffffffffffffffffffffffffffffffff6101006001881615020190951694909404938401819004810282018101909252828152606093909290918301828280156104d55780601f106104aa576101008083540402835291602001916104d5565b820191906000526020600020905b8154815290600101906020018083116104b857829003601f168201915b5050505050905090565b6000806104ea6103c0565b60088111156104f557fe5b14610535576040517f08c379a000000000000000000000000000000000000000000000000000000000815260040161052c906121e4565b60405180910390fd5b60095460009073ffffffffffffffffffffffffffffffffffffffff16156105745760095473ffffffffffffffffffffffffffffffffffffffff166105a2565b600980547fffffffffffffffffffffffff000000000000000000000000000000000000000016339081179091555b73ffffffffffffffffffffffffffffffffffffffff8116600090815260086020526040902054909150431015610604576040517f08c379a000000000000000000000000000000000000000000000000000000000815260040161052c90612278565b73ffffffffffffffffffffffffffffffffffffffff811660009081526008602052604090204361ffff7f00000000000000000000000000000000000000000000000000000000000000001601905561065d3330856112c1565b6106c93361068b7f000000000000000000000000000000000000000000000000000000000000000086611458565b73ffffffffffffffffffffffffffffffffffffffff7f00000000000000000000000000000000000000000000000000000000000000001691906114ac565b5050600980547fffffffffffffffffffffffff000000000000000000000000000000000000000016905550565b600061070a610703611552565b8484611556565b5060015b92915050565b60008061071f6103c0565b600881111561072a57fe5b14610761576040517f08c379a000000000000000000000000000000000000000000000000000000000815260040161052c906121e4565b60095460009073ffffffffffffffffffffffffffffffffffffffff16156107a05760095473ffffffffffffffffffffffffffffffffffffffff166107ce565b600980547fffffffffffffffffffffffff000000000000000000000000000000000000000016339081179091555b73ffffffffffffffffffffffffffffffffffffffff8116600090815260086020526040902054909150431015610830576040517f08c379a000000000000000000000000000000000000000000000000000000000815260040161052c90612278565b73ffffffffffffffffffffffffffffffffffffffff811660009081526008602052604090204361ffff7f000000000000000000000000000000000000000000000000000000000000000016019055826108b5576040517f08c379a000000000000000000000000000000000000000000000000000000000815260040161052c906122af565b828411156108ef576040517f08c379a000000000000000000000000000000000000000000000000000000000815260040161052c906123af565b60006108fa30610ce2565b905080851115610936576040517f08c379a000000000000000000000000000000000000000000000000000000000815260040161052c9061213f565b60006109428583611658565b905080821415610955576109554361166e565b6109603033836112c1565b6109ce333061098f7f000000000000000000000000000000000000000000000000000000000000000085611458565b73ffffffffffffffffffffffffffffffffffffffff7f0000000000000000000000000000000000000000000000000000000000000000169291906117e4565b60016109d86103c0565b60088111156109e357fe5b1415610ab657610ab67f00000000000000000000000000000000000000000000000000000000000000007f000000000000000000000000000000000000000000000000000000000000000073ffffffffffffffffffffffffffffffffffffffff166370a08231306040518263ffffffff1660e01b8152600401610a669190611f09565b60206040518083038186803b158015610a7e57600080fd5b505afa158015610a92573d6000803e3d6000fd5b505050506040513d601f19601f8201168201806040525081019061068b9190611e98565b5050600980547fffffffffffffffffffffffff000000000000000000000000000000000000000016905550505050565b60035490565b6000610af98484846112c1565b610b8384610b05611552565b610b7e856040518060600160405280602881526020016126a86028913973ffffffffffffffffffffffffffffffffffffffff8a16600090815260026020526040812090610b50611552565b73ffffffffffffffffffffffffffffffffffffffff1681526020810191909152604001600020549190611805565b611556565b5060015b9392505050565b60065460ff1690565b6000805b6008811015610be457838160088110610bb057fe5b602002015163ffffffff168363ffffffff161015610bdc57806008811115610bd457fe5b91505061070e565b600101610b9b565b5060089392505050565b7f000000000000000000000000000000000000000000000000000000000000000081565b600061070a610c1f611552565b84610b7e8560026000610c30611552565b73ffffffffffffffffffffffffffffffffffffffff908116825260208083019390935260409182016000908120918c168152925290205490611282565b600080826008811115610c7c57fe5b1415610c8a5750600061070e565b826001836008811115610c9957fe5b0360088110610ca457fe5b602002016020810190610cb79190611ed1565b905061070e565b7f000000000000000000000000000000000000000000000000000000000000000081565b73ffffffffffffffffffffffffffffffffffffffff1660009081526001602052604090205490565b610d12611552565b60005473ffffffffffffffffffffffffffffffffffffffff908116911614610d66576040517f08c379a000000000000000000000000000000000000000000000000000000000815260040161052c9061237a565b6000805460405173ffffffffffffffffffffffffffffffffffffffff909116907f8be0079c531659141344cd1fd0a4f28419497f9722a3daafe3b4186f6b6457e0908390a3600080547fffffffffffffffffffffffff0000000000000000000000000000000000000000169055565b7f000000000000000000000000000000000000000000000000000000000000000081565b7fffffffffffffffffffffffffffffffffffffffffffffffffffffffffffffffff81565b60005473ffffffffffffffffffffffffffffffffffffffff1690565b60058054604080516020601f60027fffffffffffffffffffffffffffffffffffffffffffffffffffffffffffffffff6101006001881615020190951694909404938401819004810282018101909252828152606093909290918301828280156104d55780601f106104aa576101008083540402835291602001916104d5565b60078160088110610ec557fe5b60089182820401919006600402915054906101000a900463ffffffff1681565b600061070a610ef2611552565b84610b7e856040518060600160405280602581526020016126d06025913960026000610f1c611552565b73ffffffffffffffffffffffffffffffffffffffff908116825260208083019390935260409182016000908120918d16815292529020549190611805565b600061070a610f67611552565b84846112c1565b7f000000000000000000000000000000000000000000000000000000000000000081565b600180610f9d6103c0565b6008811115610fa857fe5b14610fdf576040517f08c379a000000000000000000000000000000000000000000000000000000000815260040161052c906121e4565b6000610fe9610ae6565b9050610ff5338461184b565b6040517f70a0823100000000000000000000000000000000000000000000000000000000815260009073ffffffffffffffffffffffffffffffffffffffff7f000000000000000000000000000000000000000000000000000000000000000016906370a082319061106a903090600401611f09565b60206040518083038186803b15801561108257600080fd5b505afa158015611096573d6000803e3d6000fd5b505050506040513d601f19601f820116820180604052508101906110ba9190611e98565b9050600081116110f6576040517f08c379a000000000000000000000000000000000000000000000000000000000815260040161052c906122e6565b61110e3361068b846111088886611458565b9061197b565b50505050565b73ffffffffffffffffffffffffffffffffffffffff918216600090815260026020908152604080832093909416825291909152205490565b611154611552565b60005473ffffffffffffffffffffffffffffffffffffffff9081169116146111a8576040517f08c379a000000000000000000000000000000000000000000000000000000000815260040161052c9061237a565b73ffffffffffffffffffffffffffffffffffffffff81166111f5576040517f08c379a000000000000000000000000000000000000000000000000000000000815260040161052c90612085565b6000805460405173ffffffffffffffffffffffffffffffffffffffff808516939216917f8be0079c531659141344cd1fd0a4f28419497f9722a3daafe3b4186f6b6457e091a3600080547fffffffffffffffffffffffff00000000000000000000000000000000000000001673ffffffffffffffffffffffffffffffffffffffff92909216919091179055565b600082820183811015610b87576040517f08c379a000000000000000000000000000000000000000000000000000000000815260040161052c90612176565b73ffffffffffffffffffffffffffffffffffffffff831661130e576040517f08c379a000000000000000000000000000000000000000000000000000000000815260040161052c90612443565b73ffffffffffffffffffffffffffffffffffffffff821661135b576040517f08c379a000000000000000000000000000000000000000000000000000000000815260040161052c90611ff1565b61136683838361154d565b6113b0816040518060600160405280602681526020016126826026913973ffffffffffffffffffffffffffffffffffffffff86166000908152600160205260409020549190611805565b73ffffffffffffffffffffffffffffffffffffffff80851660009081526001602052604080822093909355908416815220546113ec9082611282565b73ffffffffffffffffffffffffffffffffffffffff80841660008181526001602052604090819020939093559151908516907fddf252ad1be2c89b69c2b068fc378daa952ba7f163c4a11628f55a4df523b3ef9061144b9085906125d7565b60405180910390a3505050565b6000826114675750600061070e565b8282028284828161147457fe5b0414610b87576040517f08c379a000000000000000000000000000000000000000000000000000000000815260040161052c9061231d565b61154d8363a9059cbb60e01b84846040516024016114cb929190611f5b565b604080517fffffffffffffffffffffffffffffffffffffffffffffffffffffffffffffffe08184030181529190526020810180517bffffffffffffffffffffffffffffffffffffffffffffffffffffffff167fffffffff00000000000000000000000000000000000000000000000000000000909316929092179091526119bd565b505050565b3390565b73ffffffffffffffffffffffffffffffffffffffff83166115a3576040517f08c379a000000000000000000000000000000000000000000000000000000000815260040161052c906124d7565b73ffffffffffffffffffffffffffffffffffffffff82166115f0576040517f08c379a000000000000000000000000000000000000000000000000000000000815260040161052c906120e2565b73ffffffffffffffffffffffffffffffffffffffff80841660008181526002602090815260408083209487168084529490915290819020849055517f8c5be1e5ebec7d5bd14f71427d1e84f3dd0314c0f7b2291e5b200ac8c7c3b9259061144b9085906125d7565b60008183106116675781610b87565b5090919050565b8063ffffffff164363ffffffff1611156116b4576040517f08c379a000000000000000000000000000000000000000000000000000000000815260040161052c9061204e565b63ffffffff818116106116f3576040517f08c379a000000000000000000000000000000000000000000000000000000000815260040161052c906121ad565b60006116fd6103c0565b600881111561170857fe5b90506007816008811061171757fe5b60088104919091015460079091166004026101000a900463ffffffff9081161461176d576040517f08c379a000000000000000000000000000000000000000000000000000000000815260040161052c906124a0565b61177682611a73565b816007826008811061178457fe5b600891828204019190066004026101000a81548163ffffffff021916908363ffffffff1602179055508163ffffffff167f260aac5b840edc27b89fdf50e91311a413363a400959466e1049e6d071b8cee260405160405180910390a25050565b61110e846323b872dd60e01b8585856040516024016114cb93929190611f2a565b60008184841115611843576040517f08c379a000000000000000000000000000000000000000000000000000000000815260040161052c9190611fa0565b505050900390565b73ffffffffffffffffffffffffffffffffffffffff8216611898576040517f08c379a000000000000000000000000000000000000000000000000000000000815260040161052c906123e6565b6118a48260008361154d565b6118ee816040518060600160405280602281526020016126606022913973ffffffffffffffffffffffffffffffffffffffff85166000908152600160205260409020549190611805565b73ffffffffffffffffffffffffffffffffffffffff83166000908152600160205260409020556003546119219082611a9b565b60035560405160009073ffffffffffffffffffffffffffffffffffffffff8416907fddf252ad1be2c89b69c2b068fc378daa952ba7f163c4a11628f55a4df523b3ef9061196f9085906125d7565b60405180910390a35050565b6000610b8783836040518060400160405280601a81526020017f536166654d6174683a206469766973696f6e206279207a65726f000000000000815250611add565b6060611a1f826040518060400160405280602081526020017f5361666545524332303a206c6f772d6c6576656c2063616c6c206661696c65648152508573ffffffffffffffffffffffffffffffffffffffff16611b2e9092919063ffffffff16565b80519091501561154d5780806020019051810190611a3d9190611e60565b61154d576040517f08c379a000000000000000000000000000000000000000000000000000000000815260040161052c9061256b565b611a7c81611a98565b6001611a866103c0565b6008811115611a9157fe5b10611a9857fe5b50565b6000610b8783836040518060400160405280601e81526020017f536166654d6174683a207375627472616374696f6e206f766572666c6f770000815250611805565b60008183611b18576040517f08c379a000000000000000000000000000000000000000000000000000000000815260040161052c9190611fa0565b506000838581611b2457fe5b0495945050505050565b6060611b3d8484600085611b45565b949350505050565b606082471015611b81576040517f08c379a000000000000000000000000000000000000000000000000000000000815260040161052c9061221b565b611b8a85611c47565b611bc0576040517f08c379a000000000000000000000000000000000000000000000000000000000815260040161052c90612534565b600060608673ffffffffffffffffffffffffffffffffffffffff168587604051611bea9190611eed565b60006040518083038185875af1925050503d8060008114611c27576040519150601f19603f3d011682016040523d82523d6000602084013e611c2c565b606091505b5091509150611c3c828286611c4d565b979650505050505050565b3b151590565b60608315611c5c575081610b87565b825115611c6c5782518084602001fd5b816040517f08c379a000000000000000000000000000000000000000000000000000000000815260040161052c9190611fa0565b803573ffffffffffffffffffffffffffffffffffffffff8116811461070e57600080fd5b803563ffffffff8116811461070e57600080fd5b600060208284031215611ce9578081fd5b610b878383611ca0565b60008060408385031215611d05578081fd5b611d0f8484611ca0565b9150611d1e8460208501611ca0565b90509250929050565b600080600060608486031215611d3b578081fd5b8335611d468161262b565b92506020840135611d568161262b565b929592945050506040919091013590565b60008060408385031215611d79578182fd5b611d838484611ca0565b946020939093013593505050565b6000806101208385031215611da4578182fd5b610100830184811115611db5578283fd5b8392503560098110611dc5578182fd5b809150509250929050565b6000806101208385031215611de3578182fd5b83601f840112611df1578182fd5b60405161010080820182811067ffffffffffffffff82111715611e12578485fd5b6040528401818587831115611e25578586fd5b855b6008811015611e4f57611e3a8983611cc4565b83526020928301929190910190600101611e27565b5092945050359050611dc58161264d565b600060208284031215611e71578081fd5b81518015158114610b87578182fd5b600060208284031215611e91578081fd5b5035919050565b600060208284031215611ea9578081fd5b5051919050565b60008060408385031215611ec2578182fd5b50508035926020909101359150565b600060208284031215611ee2578081fd5b8135610b878161264d565b60008251611eff8184602087016125ff565b9190910192915050565b73ffffffffffffffffffffffffffffffffffffffff91909116815260200190565b73ffffffffffffffffffffffffffffffffffffffff9384168152919092166020820152604081019190915260600190565b73ffffffffffffffffffffffffffffffffffffffff929092168252602082015260400190565b901515815260200190565b6020810160098310611f9a57fe5b91905290565b6000602082528251806020840152611fbf8160408501602087016125ff565b601f017fffffffffffffffffffffffffffffffffffffffffffffffffffffffffffffffe0169190910160400192915050565b60208082526023908201527f45524332303a207472616e7366657220746f20746865207a65726f206164647260408201527f6573730000000000000000000000000000000000000000000000000000000000606082015260800190565b6020808252600f908201527f4e4558545f424c4f434b5f504153540000000000000000000000000000000000604082015260600190565b60208082526026908201527f4f776e61626c653a206e6577206f776e657220697320746865207a65726f206160408201527f6464726573730000000000000000000000000000000000000000000000000000606082015260800190565b60208082526022908201527f45524332303a20617070726f766520746f20746865207a65726f20616464726560408201527f7373000000000000000000000000000000000000000000000000000000000000606082015260800190565b60208082526012908201527f494e53554646494349454e545f53544f434b0000000000000000000000000000604082015260600190565b6020808252601b908201527f536166654d6174683a206164646974696f6e206f766572666c6f770000000000604082015260600190565b60208082526018908201527f4e4558545f424c4f434b5f554e494e495449414c495a45440000000000000000604082015260600190565b60208082526009908201527f4241445f50484153450000000000000000000000000000000000000000000000604082015260600190565b60208082526026908201527f416464726573733a20696e73756666696369656e742062616c616e636520666f60408201527f722063616c6c0000000000000000000000000000000000000000000000000000606082015260800190565b60208082526008908201527f434f4f4c444f574e000000000000000000000000000000000000000000000000604082015260600190565b60208082526009908201527f444553495245445f300000000000000000000000000000000000000000000000604082015260600190565b6020808252600f908201527f524553455256455f42414c414e43450000000000000000000000000000000000604082015260600190565b60208082526021908201527f536166654d6174683a206d756c7469706c69636174696f6e206f766572666c6f60408201527f7700000000000000000000000000000000000000000000000000000000000000606082015260800190565b6020808252818101527f4f776e61626c653a2063616c6c6572206973206e6f7420746865206f776e6572604082015260600190565b60208082526014908201527f4d494e494d554d5f4f5645525f44455349524544000000000000000000000000604082015260600190565b60208082526021908201527f45524332303a206275726e2066726f6d20746865207a65726f2061646472657360408201527f7300000000000000000000000000000000000000000000000000000000000000606082015260800190565b60208082526025908201527f45524332303a207472616e736665722066726f6d20746865207a65726f20616460408201527f6472657373000000000000000000000000000000000000000000000000000000606082015260800190565b6020808252600e908201527f4e4558545f424c4f434b5f534554000000000000000000000000000000000000604082015260600190565b60208082526024908201527f45524332303a20617070726f76652066726f6d20746865207a65726f2061646460408201527f7265737300000000000000000000000000000000000000000000000000000000606082015260800190565b6020808252601d908201527f416464726573733a2063616c6c20746f206e6f6e2d636f6e7472616374000000604082015260600190565b6020808252602a908201527f5361666545524332303a204552433230206f7065726174696f6e20646964206e60408201527f6f74207375636365656400000000000000000000000000000000000000000000606082015260800190565b61ffff91909116815260200190565b90815260200190565b63ffffffff91909116815260200190565b60ff91909116815260200190565b60005b8381101561261a578181015183820152602001612602565b8381111561110e5750506000910152565b73ffffffffffffffffffffffffffffffffffffffff81168114611a9857600080fd5b63ffffffff81168114611a9857600080fdfe45524332303a206275726e20616d6f756e7420657863656564732062616c616e636545524332303a207472616e7366657220616d6f756e7420657863656564732062616c616e636545524332303a207472616e7366657220616d6f756e74206578636565647320616c6c6f77616e636545524332303a2064656372656173656420616c6c6f77616e63652062656c6f77207a65726fa264697066735822122061e954475d9f0077507d14e5456bb2527005e4461383e9dd36fd8703128e6a7f64736f6c634300060c0033",
  "linkReferences": {
    "contracts/configurable-rights-pool/libraries/RightsManager.sol": {
      "RightsManager": [
        {
          "length": 20,
          "start": 32919
        }
      ]
    }
  },
  "deployedLinkReferences": {}
}