{
  "_format": "hh-sol-artifact-1",
  "contractName": "TierByConstructionTest",
  "sourceName": "contracts/test/TierByConstructionTest.sol",
  "abi": [
    {
      "inputs": [
        {
          "internalType": "contract ITier",
          "name": "tier_",
          "type": "address"
        }
      ],
      "stateMutability": "nonpayable",
      "type": "constructor"
    },
    {
      "inputs": [],
      "name": "constructionBlock",
      "outputs": [
        {
          "internalType": "uint256",
          "name": "",
          "type": "uint256"
        }
      ],
      "stateMutability": "view",
      "type": "function"
    },
    {
      "inputs": [],
      "name": "ifEight",
      "outputs": [],
      "stateMutability": "view",
      "type": "function"
    },
    {
      "inputs": [],
      "name": "ifFive",
      "outputs": [],
      "stateMutability": "view",
      "type": "function"
    },
    {
      "inputs": [],
      "name": "ifFour",
      "outputs": [],
      "stateMutability": "view",
      "type": "function"
    },
    {
      "inputs": [],
      "name": "ifOne",
      "outputs": [],
      "stateMutability": "view",
      "type": "function"
    },
    {
      "inputs": [],
      "name": "ifSeven",
      "outputs": [],
      "stateMutability": "view",
      "type": "function"
    },
    {
      "inputs": [],
      "name": "ifSix",
      "outputs": [],
      "stateMutability": "view",
      "type": "function"
    },
    {
      "inputs": [],
      "name": "ifThree",
      "outputs": [],
      "stateMutability": "view",
      "type": "function"
    },
    {
      "inputs": [],
      "name": "ifTwo",
      "outputs": [],
      "stateMutability": "view",
      "type": "function"
    },
    {
      "inputs": [],
      "name": "ifZero",
      "outputs": [],
      "stateMutability": "view",
      "type": "function"
    },
    {
      "inputs": [
        {
          "internalType": "address",
          "name": "account_",
          "type": "address"
        },
        {
          "internalType": "enum ITier.Tier",
          "name": "minimumTier_",
          "type": "uint8"
        }
      ],
      "name": "isTier",
      "outputs": [
        {
          "internalType": "bool",
          "name": "",
          "type": "bool"
        }
      ],
      "stateMutability": "view",
      "type": "function"
    },
    {
      "inputs": [],
      "name": "tierContract",
      "outputs": [
        {
          "internalType": "contract ITier",
          "name": "",
          "type": "address"
        }
      ],
      "stateMutability": "view",
      "type": "function"
    },
    {
      "inputs": [],
      "name": "unlimited",
      "outputs": [],
      "stateMutability": "view",
      "type": "function"
    }
  ],
  "bytecode": "0x608060405234801561001057600080fd5b506040516104733803806104738339818101604052602081101561003357600080fd5b5051600080546001600160a01b039092166001600160a01b03199092169190911790554360015561040a806100696000396000f3fe608060405234801561001057600080fd5b50600436106100df5760003560e01c80637922deb51161008c578063cb457d4711610066578063cb457d47146101b1578063d1abd2de146101b9578063d78aafde146101c1578063e149ceb5146101c9576100df565b80637922deb5146101705780637bcd3dc514610178578063a30872db14610180576100df565b80636bdfcec6116100bd5780636bdfcec61461011057806375bf27871461011857806377544f3314610120576100df565b80630f0af57f146100e45780631fb3d151146100fe5780633f15225114610108575b600080fd5b6100ec6101d1565b60408051918252519081900360200190f35b6101066101d7565b005b610106610253565b610106610260565b61010661026d565b61015c6004803603604081101561013657600080fd5b50803573ffffffffffffffffffffffffffffffffffffffff16906020013560ff16610276565b604080519115158252519081900360200190f35b61010661032f565b61010661033c565b610188610349565b6040805173ffffffffffffffffffffffffffffffffffffffff9092168252519081900360200190f35b610106610365565b610106610367565b610106610374565b610106610381565b60015481565b3360086101e48282610276565b61024f57604080517f08c379a000000000000000000000000000000000000000000000000000000000815260206004820152600c60248201527f4d494e494d554d5f544945520000000000000000000000000000000000000000604482015290519081900360640190fd5b5050565b3360046101e48282610276565b3360066101e48282610276565b3360036101e482825b60008054604080517fe053ea3100000000000000000000000000000000000000000000000000000000815273ffffffffffffffffffffffffffffffffffffffff8681166004830152915161032193929092169163e053ea3191602480820192602092909190829003018186803b1580156102ef57600080fd5b505afa158015610303573d6000803e3d6000fd5b505050506040513d602081101561031957600080fd5b50518361038e565b600154101590505b92915050565b3360076101e48282610276565b3360006101e48282610276565b60005473ffffffffffffffffffffffffffffffffffffffff1681565b565b3360016101e48282610276565b3360056101e48282610276565b3360026101e48282610276565b60008082600881111561039d57fe5b14156103ab57506000610329565b600060018360088111156103bb57fe5b0360200290508084901c63ffffffff169150509291505056fea264697066735822122066d337b7c46328da3cca9ce99f5ca7c9589605b849c5b2d601cf6a759b4a642c64736f6c634300060c0033",
  "linkReferences": {},
  "deployedLinkReferences": {}
}