{
  "_format": "hh-sol-artifact-1",
  "contractName": "BPool",
  "sourceName": "contracts/configurable-rights-pool/contracts/test/BPool.sol",
  "abi": [
    {
      "inputs": [],
      "stateMutability": "nonpayable",
      "type": "constructor"
    },
    {
      "anonymous": false,
      "inputs": [
        {
          "indexed": true,
          "internalType": "address",
          "name": "owner",
          "type": "address"
        },
        {
          "indexed": true,
          "internalType": "address",
          "name": "spender",
          "type": "address"
        },
        {
          "indexed": false,
          "internalType": "uint256",
          "name": "value",
          "type": "uint256"
        }
      ],
      "name": "Approval",
      "type": "event"
    },
    {
      "anonymous": true,
      "inputs": [
        {
          "indexed": true,
          "internalType": "bytes4",
          "name": "sig",
          "type": "bytes4"
        },
        {
          "indexed": true,
          "internalType": "address",
          "name": "caller",
          "type": "address"
        },
        {
          "indexed": false,
          "internalType": "bytes",
          "name": "data",
          "type": "bytes"
        }
      ],
      "name": "LOG_CALL",
      "type": "event"
    },
    {
      "anonymous": false,
      "inputs": [
        {
          "indexed": true,
          "internalType": "address",
          "name": "caller",
          "type": "address"
        },
        {
          "indexed": true,
          "internalType": "address",
          "name": "tokenOut",
          "type": "address"
        },
        {
          "indexed": false,
          "internalType": "uint256",
          "name": "tokenAmountOut",
          "type": "uint256"
        }
      ],
      "name": "LOG_EXIT",
      "type": "event"
    },
    {
      "anonymous": false,
      "inputs": [
        {
          "indexed": true,
          "internalType": "address",
          "name": "caller",
          "type": "address"
        },
        {
          "indexed": true,
          "internalType": "address",
          "name": "tokenIn",
          "type": "address"
        },
        {
          "indexed": false,
          "internalType": "uint256",
          "name": "tokenAmountIn",
          "type": "uint256"
        }
      ],
      "name": "LOG_JOIN",
      "type": "event"
    },
    {
      "anonymous": false,
      "inputs": [
        {
          "indexed": true,
          "internalType": "address",
          "name": "caller",
          "type": "address"
        },
        {
          "indexed": true,
          "internalType": "address",
          "name": "tokenIn",
          "type": "address"
        },
        {
          "indexed": true,
          "internalType": "address",
          "name": "tokenOut",
          "type": "address"
        },
        {
          "indexed": false,
          "internalType": "uint256",
          "name": "tokenAmountIn",
          "type": "uint256"
        },
        {
          "indexed": false,
          "internalType": "uint256",
          "name": "tokenAmountOut",
          "type": "uint256"
        }
      ],
      "name": "LOG_SWAP",
      "type": "event"
    },
    {
      "anonymous": false,
      "inputs": [
        {
          "indexed": true,
          "internalType": "address",
          "name": "from",
          "type": "address"
        },
        {
          "indexed": true,
          "internalType": "address",
          "name": "to",
          "type": "address"
        },
        {
          "indexed": false,
          "internalType": "uint256",
          "name": "value",
          "type": "uint256"
        }
      ],
      "name": "Transfer",
      "type": "event"
    },
    {
      "inputs": [],
      "name": "BONE",
      "outputs": [
        {
          "internalType": "uint256",
          "name": "",
          "type": "uint256"
        }
      ],
      "stateMutability": "view",
      "type": "function"
    },
    {
      "inputs": [],
      "name": "BPOW_PRECISION",
      "outputs": [
        {
          "internalType": "uint256",
          "name": "",
          "type": "uint256"
        }
      ],
      "stateMutability": "view",
      "type": "function"
    },
    {
      "inputs": [],
      "name": "EXIT_FEE",
      "outputs": [
        {
          "internalType": "uint256",
          "name": "",
          "type": "uint256"
        }
      ],
      "stateMutability": "view",
      "type": "function"
    },
    {
      "inputs": [],
      "name": "INIT_POOL_SUPPLY",
      "outputs": [
        {
          "internalType": "uint256",
          "name": "",
          "type": "uint256"
        }
      ],
      "stateMutability": "view",
      "type": "function"
    },
    {
      "inputs": [],
      "name": "MAX_BOUND_TOKENS",
      "outputs": [
        {
          "internalType": "uint256",
          "name": "",
          "type": "uint256"
        }
      ],
      "stateMutability": "view",
      "type": "function"
    },
    {
      "inputs": [],
      "name": "MAX_BPOW_BASE",
      "outputs": [
        {
          "internalType": "uint256",
          "name": "",
          "type": "uint256"
        }
      ],
      "stateMutability": "view",
      "type": "function"
    },
    {
      "inputs": [],
      "name": "MAX_FEE",
      "outputs": [
        {
          "internalType": "uint256",
          "name": "",
          "type": "uint256"
        }
      ],
      "stateMutability": "view",
      "type": "function"
    },
    {
      "inputs": [],
      "name": "MAX_IN_RATIO",
      "outputs": [
        {
          "internalType": "uint256",
          "name": "",
          "type": "uint256"
        }
      ],
      "stateMutability": "view",
      "type": "function"
    },
    {
      "inputs": [],
      "name": "MAX_OUT_RATIO",
      "outputs": [
        {
          "internalType": "uint256",
          "name": "",
          "type": "uint256"
        }
      ],
      "stateMutability": "view",
      "type": "function"
    },
    {
      "inputs": [],
      "name": "MAX_TOTAL_WEIGHT",
      "outputs": [
        {
          "internalType": "uint256",
          "name": "",
          "type": "uint256"
        }
      ],
      "stateMutability": "view",
      "type": "function"
    },
    {
      "inputs": [],
      "name": "MAX_WEIGHT",
      "outputs": [
        {
          "internalType": "uint256",
          "name": "",
          "type": "uint256"
        }
      ],
      "stateMutability": "view",
      "type": "function"
    },
    {
      "inputs": [],
      "name": "MIN_BALANCE",
      "outputs": [
        {
          "internalType": "uint256",
          "name": "",
          "type": "uint256"
        }
      ],
      "stateMutability": "view",
      "type": "function"
    },
    {
      "inputs": [],
      "name": "MIN_BOUND_TOKENS",
      "outputs": [
        {
          "internalType": "uint256",
          "name": "",
          "type": "uint256"
        }
      ],
      "stateMutability": "view",
      "type": "function"
    },
    {
      "inputs": [],
      "name": "MIN_BPOW_BASE",
      "outputs": [
        {
          "internalType": "uint256",
          "name": "",
          "type": "uint256"
        }
      ],
      "stateMutability": "view",
      "type": "function"
    },
    {
      "inputs": [],
      "name": "MIN_FEE",
      "outputs": [
        {
          "internalType": "uint256",
          "name": "",
          "type": "uint256"
        }
      ],
      "stateMutability": "view",
      "type": "function"
    },
    {
      "inputs": [],
      "name": "MIN_WEIGHT",
      "outputs": [
        {
          "internalType": "uint256",
          "name": "",
          "type": "uint256"
        }
      ],
      "stateMutability": "view",
      "type": "function"
    },
    {
      "inputs": [
        {
          "internalType": "address",
          "name": "src",
          "type": "address"
        },
        {
          "internalType": "address",
          "name": "dst",
          "type": "address"
        }
      ],
      "name": "allowance",
      "outputs": [
        {
          "internalType": "uint256",
          "name": "",
          "type": "uint256"
        }
      ],
      "stateMutability": "view",
      "type": "function"
    },
    {
      "inputs": [
        {
          "internalType": "address",
          "name": "dst",
          "type": "address"
        },
        {
          "internalType": "uint256",
          "name": "amt",
          "type": "uint256"
        }
      ],
      "name": "approve",
      "outputs": [
        {
          "internalType": "bool",
          "name": "",
          "type": "bool"
        }
      ],
      "stateMutability": "nonpayable",
      "type": "function"
    },
    {
      "inputs": [
        {
          "internalType": "address",
          "name": "whom",
          "type": "address"
        }
      ],
      "name": "balanceOf",
      "outputs": [
        {
          "internalType": "uint256",
          "name": "",
          "type": "uint256"
        }
      ],
      "stateMutability": "view",
      "type": "function"
    },
    {
      "inputs": [
        {
          "internalType": "address",
          "name": "token",
          "type": "address"
        },
        {
          "internalType": "uint256",
          "name": "balance",
          "type": "uint256"
        },
        {
          "internalType": "uint256",
          "name": "denorm",
          "type": "uint256"
        }
      ],
      "name": "bind",
      "outputs": [],
      "stateMutability": "nonpayable",
      "type": "function"
    },
    {
      "inputs": [
        {
          "internalType": "uint256",
          "name": "tokenBalanceIn",
          "type": "uint256"
        },
        {
          "internalType": "uint256",
          "name": "tokenWeightIn",
          "type": "uint256"
        },
        {
          "internalType": "uint256",
          "name": "tokenBalanceOut",
          "type": "uint256"
        },
        {
          "internalType": "uint256",
          "name": "tokenWeightOut",
          "type": "uint256"
        },
        {
          "internalType": "uint256",
          "name": "tokenAmountOut",
          "type": "uint256"
        },
        {
          "internalType": "uint256",
          "name": "swapFee",
          "type": "uint256"
        }
      ],
      "name": "calcInGivenOut",
      "outputs": [
        {
          "internalType": "uint256",
          "name": "tokenAmountIn",
          "type": "uint256"
        }
      ],
      "stateMutability": "pure",
      "type": "function"
    },
    {
      "inputs": [
        {
          "internalType": "uint256",
          "name": "tokenBalanceIn",
          "type": "uint256"
        },
        {
          "internalType": "uint256",
          "name": "tokenWeightIn",
          "type": "uint256"
        },
        {
          "internalType": "uint256",
          "name": "tokenBalanceOut",
          "type": "uint256"
        },
        {
          "internalType": "uint256",
          "name": "tokenWeightOut",
          "type": "uint256"
        },
        {
          "internalType": "uint256",
          "name": "tokenAmountIn",
          "type": "uint256"
        },
        {
          "internalType": "uint256",
          "name": "swapFee",
          "type": "uint256"
        }
      ],
      "name": "calcOutGivenIn",
      "outputs": [
        {
          "internalType": "uint256",
          "name": "tokenAmountOut",
          "type": "uint256"
        }
      ],
      "stateMutability": "pure",
      "type": "function"
    },
    {
      "inputs": [
        {
          "internalType": "uint256",
          "name": "tokenBalanceOut",
          "type": "uint256"
        },
        {
          "internalType": "uint256",
          "name": "tokenWeightOut",
          "type": "uint256"
        },
        {
          "internalType": "uint256",
          "name": "poolSupply",
          "type": "uint256"
        },
        {
          "internalType": "uint256",
          "name": "totalWeight",
          "type": "uint256"
        },
        {
          "internalType": "uint256",
          "name": "tokenAmountOut",
          "type": "uint256"
        },
        {
          "internalType": "uint256",
          "name": "swapFee",
          "type": "uint256"
        }
      ],
      "name": "calcPoolInGivenSingleOut",
      "outputs": [
        {
          "internalType": "uint256",
          "name": "poolAmountIn",
          "type": "uint256"
        }
      ],
      "stateMutability": "pure",
      "type": "function"
    },
    {
      "inputs": [
        {
          "internalType": "uint256",
          "name": "tokenBalanceIn",
          "type": "uint256"
        },
        {
          "internalType": "uint256",
          "name": "tokenWeightIn",
          "type": "uint256"
        },
        {
          "internalType": "uint256",
          "name": "poolSupply",
          "type": "uint256"
        },
        {
          "internalType": "uint256",
          "name": "totalWeight",
          "type": "uint256"
        },
        {
          "internalType": "uint256",
          "name": "tokenAmountIn",
          "type": "uint256"
        },
        {
          "internalType": "uint256",
          "name": "swapFee",
          "type": "uint256"
        }
      ],
      "name": "calcPoolOutGivenSingleIn",
      "outputs": [
        {
          "internalType": "uint256",
          "name": "poolAmountOut",
          "type": "uint256"
        }
      ],
      "stateMutability": "pure",
      "type": "function"
    },
    {
      "inputs": [
        {
          "internalType": "uint256",
          "name": "tokenBalanceIn",
          "type": "uint256"
        },
        {
          "internalType": "uint256",
          "name": "tokenWeightIn",
          "type": "uint256"
        },
        {
          "internalType": "uint256",
          "name": "poolSupply",
          "type": "uint256"
        },
        {
          "internalType": "uint256",
          "name": "totalWeight",
          "type": "uint256"
        },
        {
          "internalType": "uint256",
          "name": "poolAmountOut",
          "type": "uint256"
        },
        {
          "internalType": "uint256",
          "name": "swapFee",
          "type": "uint256"
        }
      ],
      "name": "calcSingleInGivenPoolOut",
      "outputs": [
        {
          "internalType": "uint256",
          "name": "tokenAmountIn",
          "type": "uint256"
        }
      ],
      "stateMutability": "pure",
      "type": "function"
    },
    {
      "inputs": [
        {
          "internalType": "uint256",
          "name": "tokenBalanceOut",
          "type": "uint256"
        },
        {
          "internalType": "uint256",
          "name": "tokenWeightOut",
          "type": "uint256"
        },
        {
          "internalType": "uint256",
          "name": "poolSupply",
          "type": "uint256"
        },
        {
          "internalType": "uint256",
          "name": "totalWeight",
          "type": "uint256"
        },
        {
          "internalType": "uint256",
          "name": "poolAmountIn",
          "type": "uint256"
        },
        {
          "internalType": "uint256",
          "name": "swapFee",
          "type": "uint256"
        }
      ],
      "name": "calcSingleOutGivenPoolIn",
      "outputs": [
        {
          "internalType": "uint256",
          "name": "tokenAmountOut",
          "type": "uint256"
        }
      ],
      "stateMutability": "pure",
      "type": "function"
    },
    {
      "inputs": [
        {
          "internalType": "uint256",
          "name": "tokenBalanceIn",
          "type": "uint256"
        },
        {
          "internalType": "uint256",
          "name": "tokenWeightIn",
          "type": "uint256"
        },
        {
          "internalType": "uint256",
          "name": "tokenBalanceOut",
          "type": "uint256"
        },
        {
          "internalType": "uint256",
          "name": "tokenWeightOut",
          "type": "uint256"
        },
        {
          "internalType": "uint256",
          "name": "swapFee",
          "type": "uint256"
        }
      ],
      "name": "calcSpotPrice",
      "outputs": [
        {
          "internalType": "uint256",
          "name": "spotPrice",
          "type": "uint256"
        }
      ],
      "stateMutability": "pure",
      "type": "function"
    },
    {
      "inputs": [],
      "name": "decimals",
      "outputs": [
        {
          "internalType": "uint8",
          "name": "",
          "type": "uint8"
        }
      ],
      "stateMutability": "view",
      "type": "function"
    },
    {
      "inputs": [
        {
          "internalType": "address",
          "name": "dst",
          "type": "address"
        },
        {
          "internalType": "uint256",
          "name": "amt",
          "type": "uint256"
        }
      ],
      "name": "decreaseApproval",
      "outputs": [
        {
          "internalType": "bool",
          "name": "",
          "type": "bool"
        }
      ],
      "stateMutability": "nonpayable",
      "type": "function"
    },
    {
      "inputs": [
        {
          "internalType": "uint256",
          "name": "poolAmountIn",
          "type": "uint256"
        },
        {
          "internalType": "uint256[]",
          "name": "minAmountsOut",
          "type": "uint256[]"
        }
      ],
      "name": "exitPool",
      "outputs": [],
      "stateMutability": "nonpayable",
      "type": "function"
    },
    {
      "inputs": [
        {
          "internalType": "address",
          "name": "tokenOut",
          "type": "address"
        },
        {
          "internalType": "uint256",
          "name": "tokenAmountOut",
          "type": "uint256"
        },
        {
          "internalType": "uint256",
          "name": "maxPoolAmountIn",
          "type": "uint256"
        }
      ],
      "name": "exitswapExternAmountOut",
      "outputs": [
        {
          "internalType": "uint256",
          "name": "poolAmountIn",
          "type": "uint256"
        }
      ],
      "stateMutability": "nonpayable",
      "type": "function"
    },
    {
      "inputs": [
        {
          "internalType": "address",
          "name": "tokenOut",
          "type": "address"
        },
        {
          "internalType": "uint256",
          "name": "poolAmountIn",
          "type": "uint256"
        },
        {
          "internalType": "uint256",
          "name": "minAmountOut",
          "type": "uint256"
        }
      ],
      "name": "exitswapPoolAmountIn",
      "outputs": [
        {
          "internalType": "uint256",
          "name": "tokenAmountOut",
          "type": "uint256"
        }
      ],
      "stateMutability": "nonpayable",
      "type": "function"
    },
    {
      "inputs": [],
      "name": "finalize",
      "outputs": [],
      "stateMutability": "nonpayable",
      "type": "function"
    },
    {
      "inputs": [
        {
          "internalType": "address",
          "name": "token",
          "type": "address"
        }
      ],
      "name": "getBalance",
      "outputs": [
        {
          "internalType": "uint256",
          "name": "",
          "type": "uint256"
        }
      ],
      "stateMutability": "view",
      "type": "function"
    },
    {
      "inputs": [],
      "name": "getColor",
      "outputs": [
        {
          "internalType": "bytes32",
          "name": "",
          "type": "bytes32"
        }
      ],
      "stateMutability": "view",
      "type": "function"
    },
    {
      "inputs": [],
      "name": "getController",
      "outputs": [
        {
          "internalType": "address",
          "name": "",
          "type": "address"
        }
      ],
      "stateMutability": "view",
      "type": "function"
    },
    {
      "inputs": [],
      "name": "getCurrentTokens",
      "outputs": [
        {
          "internalType": "address[]",
          "name": "tokens",
          "type": "address[]"
        }
      ],
      "stateMutability": "view",
      "type": "function"
    },
    {
      "inputs": [
        {
          "internalType": "address",
          "name": "token",
          "type": "address"
        }
      ],
      "name": "getDenormalizedWeight",
      "outputs": [
        {
          "internalType": "uint256",
          "name": "",
          "type": "uint256"
        }
      ],
      "stateMutability": "view",
      "type": "function"
    },
    {
      "inputs": [],
      "name": "getFinalTokens",
      "outputs": [
        {
          "internalType": "address[]",
          "name": "tokens",
          "type": "address[]"
        }
      ],
      "stateMutability": "view",
      "type": "function"
    },
    {
      "inputs": [
        {
          "internalType": "address",
          "name": "token",
          "type": "address"
        }
      ],
      "name": "getNormalizedWeight",
      "outputs": [
        {
          "internalType": "uint256",
          "name": "",
          "type": "uint256"
        }
      ],
      "stateMutability": "view",
      "type": "function"
    },
    {
      "inputs": [],
      "name": "getNumTokens",
      "outputs": [
        {
          "internalType": "uint256",
          "name": "",
          "type": "uint256"
        }
      ],
      "stateMutability": "view",
      "type": "function"
    },
    {
      "inputs": [
        {
          "internalType": "address",
          "name": "tokenIn",
          "type": "address"
        },
        {
          "internalType": "address",
          "name": "tokenOut",
          "type": "address"
        }
      ],
      "name": "getSpotPrice",
      "outputs": [
        {
          "internalType": "uint256",
          "name": "spotPrice",
          "type": "uint256"
        }
      ],
      "stateMutability": "view",
      "type": "function"
    },
    {
      "inputs": [
        {
          "internalType": "address",
          "name": "tokenIn",
          "type": "address"
        },
        {
          "internalType": "address",
          "name": "tokenOut",
          "type": "address"
        }
      ],
      "name": "getSpotPriceSansFee",
      "outputs": [
        {
          "internalType": "uint256",
          "name": "spotPrice",
          "type": "uint256"
        }
      ],
      "stateMutability": "view",
      "type": "function"
    },
    {
      "inputs": [],
      "name": "getSwapFee",
      "outputs": [
        {
          "internalType": "uint256",
          "name": "",
          "type": "uint256"
        }
      ],
      "stateMutability": "view",
      "type": "function"
    },
    {
      "inputs": [],
      "name": "getTotalDenormalizedWeight",
      "outputs": [
        {
          "internalType": "uint256",
          "name": "",
          "type": "uint256"
        }
      ],
      "stateMutability": "view",
      "type": "function"
    },
    {
      "inputs": [
        {
          "internalType": "address",
          "name": "token",
          "type": "address"
        }
      ],
      "name": "gulp",
      "outputs": [],
      "stateMutability": "nonpayable",
      "type": "function"
    },
    {
      "inputs": [
        {
          "internalType": "address",
          "name": "dst",
          "type": "address"
        },
        {
          "internalType": "uint256",
          "name": "amt",
          "type": "uint256"
        }
      ],
      "name": "increaseApproval",
      "outputs": [
        {
          "internalType": "bool",
          "name": "",
          "type": "bool"
        }
      ],
      "stateMutability": "nonpayable",
      "type": "function"
    },
    {
      "inputs": [
        {
          "internalType": "address",
          "name": "t",
          "type": "address"
        }
      ],
      "name": "isBound",
      "outputs": [
        {
          "internalType": "bool",
          "name": "",
          "type": "bool"
        }
      ],
      "stateMutability": "view",
      "type": "function"
    },
    {
      "inputs": [],
      "name": "isFinalized",
      "outputs": [
        {
          "internalType": "bool",
          "name": "",
          "type": "bool"
        }
      ],
      "stateMutability": "view",
      "type": "function"
    },
    {
      "inputs": [],
      "name": "isPublicSwap",
      "outputs": [
        {
          "internalType": "bool",
          "name": "",
          "type": "bool"
        }
      ],
      "stateMutability": "view",
      "type": "function"
    },
    {
      "inputs": [
        {
          "internalType": "uint256",
          "name": "poolAmountOut",
          "type": "uint256"
        },
        {
          "internalType": "uint256[]",
          "name": "maxAmountsIn",
          "type": "uint256[]"
        }
      ],
      "name": "joinPool",
      "outputs": [],
      "stateMutability": "nonpayable",
      "type": "function"
    },
    {
      "inputs": [
        {
          "internalType": "address",
          "name": "tokenIn",
          "type": "address"
        },
        {
          "internalType": "uint256",
          "name": "tokenAmountIn",
          "type": "uint256"
        },
        {
          "internalType": "uint256",
          "name": "minPoolAmountOut",
          "type": "uint256"
        }
      ],
      "name": "joinswapExternAmountIn",
      "outputs": [
        {
          "internalType": "uint256",
          "name": "poolAmountOut",
          "type": "uint256"
        }
      ],
      "stateMutability": "nonpayable",
      "type": "function"
    },
    {
      "inputs": [
        {
          "internalType": "address",
          "name": "tokenIn",
          "type": "address"
        },
        {
          "internalType": "uint256",
          "name": "poolAmountOut",
          "type": "uint256"
        },
        {
          "internalType": "uint256",
          "name": "maxAmountIn",
          "type": "uint256"
        }
      ],
      "name": "joinswapPoolAmountOut",
      "outputs": [
        {
          "internalType": "uint256",
          "name": "tokenAmountIn",
          "type": "uint256"
        }
      ],
      "stateMutability": "nonpayable",
      "type": "function"
    },
    {
      "inputs": [],
      "name": "name",
      "outputs": [
        {
          "internalType": "string",
          "name": "",
          "type": "string"
        }
      ],
      "stateMutability": "view",
      "type": "function"
    },
    {
      "inputs": [
        {
          "internalType": "address",
          "name": "token",
          "type": "address"
        },
        {
          "internalType": "uint256",
          "name": "balance",
          "type": "uint256"
        },
        {
          "internalType": "uint256",
          "name": "denorm",
          "type": "uint256"
        }
      ],
      "name": "rebind",
      "outputs": [],
      "stateMutability": "nonpayable",
      "type": "function"
    },
    {
      "inputs": [
        {
          "internalType": "address",
          "name": "manager",
          "type": "address"
        }
      ],
      "name": "setController",
      "outputs": [],
      "stateMutability": "nonpayable",
      "type": "function"
    },
    {
      "inputs": [
        {
          "internalType": "bool",
          "name": "public_",
          "type": "bool"
        }
      ],
      "name": "setPublicSwap",
      "outputs": [],
      "stateMutability": "nonpayable",
      "type": "function"
    },
    {
      "inputs": [
        {
          "internalType": "uint256",
          "name": "swapFee",
          "type": "uint256"
        }
      ],
      "name": "setSwapFee",
      "outputs": [],
      "stateMutability": "nonpayable",
      "type": "function"
    },
    {
      "inputs": [
        {
          "internalType": "address",
          "name": "tokenIn",
          "type": "address"
        },
        {
          "internalType": "uint256",
          "name": "tokenAmountIn",
          "type": "uint256"
        },
        {
          "internalType": "address",
          "name": "tokenOut",
          "type": "address"
        },
        {
          "internalType": "uint256",
          "name": "minAmountOut",
          "type": "uint256"
        },
        {
          "internalType": "uint256",
          "name": "maxPrice",
          "type": "uint256"
        }
      ],
      "name": "swapExactAmountIn",
      "outputs": [
        {
          "internalType": "uint256",
          "name": "tokenAmountOut",
          "type": "uint256"
        },
        {
          "internalType": "uint256",
          "name": "spotPriceAfter",
          "type": "uint256"
        }
      ],
      "stateMutability": "nonpayable",
      "type": "function"
    },
    {
      "inputs": [
        {
          "internalType": "address",
          "name": "tokenIn",
          "type": "address"
        },
        {
          "internalType": "uint256",
          "name": "maxAmountIn",
          "type": "uint256"
        },
        {
          "internalType": "address",
          "name": "tokenOut",
          "type": "address"
        },
        {
          "internalType": "uint256",
          "name": "tokenAmountOut",
          "type": "uint256"
        },
        {
          "internalType": "uint256",
          "name": "maxPrice",
          "type": "uint256"
        }
      ],
      "name": "swapExactAmountOut",
      "outputs": [
        {
          "internalType": "uint256",
          "name": "tokenAmountIn",
          "type": "uint256"
        },
        {
          "internalType": "uint256",
          "name": "spotPriceAfter",
          "type": "uint256"
        }
      ],
      "stateMutability": "nonpayable",
      "type": "function"
    },
    {
      "inputs": [],
      "name": "symbol",
      "outputs": [
        {
          "internalType": "string",
          "name": "",
          "type": "string"
        }
      ],
      "stateMutability": "view",
      "type": "function"
    },
    {
      "inputs": [],
      "name": "totalSupply",
      "outputs": [
        {
          "internalType": "uint256",
          "name": "",
          "type": "uint256"
        }
      ],
      "stateMutability": "view",
      "type": "function"
    },
    {
      "inputs": [
        {
          "internalType": "address",
          "name": "dst",
          "type": "address"
        },
        {
          "internalType": "uint256",
          "name": "amt",
          "type": "uint256"
        }
      ],
      "name": "transfer",
      "outputs": [
        {
          "internalType": "bool",
          "name": "",
          "type": "bool"
        }
      ],
      "stateMutability": "nonpayable",
      "type": "function"
    },
    {
      "inputs": [
        {
          "internalType": "address",
          "name": "src",
          "type": "address"
        },
        {
          "internalType": "address",
          "name": "dst",
          "type": "address"
        },
        {
          "internalType": "uint256",
          "name": "amt",
          "type": "uint256"
        }
      ],
      "name": "transferFrom",
      "outputs": [
        {
          "internalType": "bool",
          "name": "",
          "type": "bool"
        }
      ],
      "stateMutability": "nonpayable",
      "type": "function"
    },
    {
      "inputs": [
        {
          "internalType": "address",
          "name": "token",
          "type": "address"
        }
      ],
      "name": "unbind",
      "outputs": [],
      "stateMutability": "nonpayable",
      "type": "function"
    }
  ],
  "bytecode": "0x60c0604052601360808190527f42616c616e63657220506f6f6c20546f6b656e0000000000000000000000000060a0908152620000409160039190620000da565b506040805180820190915260038082526210941560ea1b60209092019182526200006d91600491620000da565b506005805460ff191660121790553480156200008857600080fd5b50600680546005805462010000600160b01b031916336201000081029190911790915564e8d4a510006007556001600160a01b03199091161760ff60a01b191690556008805460ff1916905562000176565b828054600181600116156101000203166002900490600052602060002090601f016020900481019282601f106200011d57805160ff19168380011785556200014d565b828001600101855582156200014d579182015b828111156200014d57825182559160200191906001019062000130565b506200015b9291506200015f565b5090565b5b808211156200015b576000815560010162000160565b61786380620001866000396000f3fe608060405234801561001057600080fd5b50600436106103eb5760003560e01c80638d4e40831161021a578063bc694ea211610135578063d73dd623116100c8578063ec09302111610097578063f8b2cb4f1161007c578063f8b2cb4f14610de4578063f8d6aed414610e17578063fde924f714610e52576103eb565b8063ec09302114610da9578063f1b8a9b714610db1576103eb565b8063d73dd62314610cf6578063dd62ed3e14610d2f578063e4a28a521461050b578063e4e1e53814610d6a576103eb565b8063cc77828d11610104578063cc77828d14610cab578063cd2ed8fb14610cb3578063cf5e7bd314610cbb578063d4cadf6814610cee576103eb565b8063bc694ea214610c43578063be3bbd2e14610c4b578063c36596a614610599578063c6580d1214610ca3576103eb565b8063a221ee49116101ad578063b7b800a41161017c578063b7b800a414610bf0578063ba019dab14610bf8578063ba9530a614610c00578063bc063e1a14610c3b576103eb565b8063a221ee4914610b03578063a9059cbb14610b38578063b02f0b7314610b71578063b0e0d13614610be8576103eb565b8063948d8ce6116101e9578063948d8ce614610ab857806395d89b4114610aeb578063992e2a9214610af35780639a86139b14610afb576103eb565b80638d4e408314610a6d57806392eefe9b14610a75578063936c347714610aa85780639381cd2b14610ab0576103eb565b806349b595521161030a57806376c7a3c71161029d5780638656b6531161026c5780638656b653146109bc578063867378c5146109f757806389298012146109ff5780638c28cbe814610a3a576103eb565b806376c7a3c7146108c65780637c5e9ea4146108ce5780638201aa3f1461093457806382f652ad14610981576103eb565b80635db34277116102d95780635db34277146107dc578063661884631461081b5780636d06dfa01461085457806370a0823114610893576103eb565b806349b59552146107035780634bb278f3146107225780634f69c0d41461072a5780635c1bbaf7146107a1576103eb565b8063218b538211610382578063313ce56711610351578063313ce5671461064857806334e19907146106665780633fdddaa21461068557806346ab38f1146106c4576103eb565b8063218b53821461059957806323b872dd146105a15780632f37b624146105e45780633018205f14610617576103eb565b80631446a7ff116103be5780631446a7ff1461051357806315e84af91461054e57806318160ddd14610589578063189d00ca14610591576103eb565b806302c96748146103f057806306fdde0314610441578063095ea7b3146104be57806309a3bbe41461050b575b600080fd5b61042f6004803603606081101561040657600080fd5b5073ffffffffffffffffffffffffffffffffffffffff8135169060208101359060400135610e5a565b60408051918252519081900360200190f35b610449611382565b6040805160208082528351818301528351919283929083019185019080838360005b8381101561048357818101518382015260200161046b565b50505050905090810190601f1680156104b05780820380516001836020036101000a031916815260200191505b509250505060405180910390f35b6104f7600480360360408110156104d457600080fd5b5073ffffffffffffffffffffffffffffffffffffffff8135169060200135611436565b604080519115158252519081900360200190f35b61042f6114aa565b61042f6004803603604081101561052957600080fd5b5073ffffffffffffffffffffffffffffffffffffffff813581169160200135166114b7565b61042f6004803603604081101561056457600080fd5b5073ffffffffffffffffffffffffffffffffffffffff813581169160200135166116b3565b61042f6118a6565b61042f6118ac565b61042f6118c0565b6104f7600480360360608110156105b757600080fd5b5073ffffffffffffffffffffffffffffffffffffffff8135811691602081013590911690604001356118cc565b6104f7600480360360208110156105fa57600080fd5b503573ffffffffffffffffffffffffffffffffffffffff16611ac6565b61061f611af1565b6040805173ffffffffffffffffffffffffffffffffffffffff9092168252519081900360200190f35b610650611b88565b6040805160ff9092168252519081900360200190f35b6106836004803603602081101561067c57600080fd5b5035611b91565b005b6106836004803603606081101561069b57600080fd5b5073ffffffffffffffffffffffffffffffffffffffff8135169060208101359060400135611efd565b61042f600480360360608110156106da57600080fd5b5073ffffffffffffffffffffffffffffffffffffffff813516906020810135906040013561251c565b6106836004803603602081101561071957600080fd5b5035151561299d565b610683612c63565b6106836004803603604081101561074057600080fd5b8135919081019060408101602082013564010000000081111561076257600080fd5b82018360208201111561077457600080fd5b8035906020019184602083028401116401000000008311171561079657600080fd5b509092509050612fe4565b61042f600480360360c08110156107b757600080fd5b5080359060208101359060408101359060608101359060808101359060a00135613446565b61042f600480360360608110156107f257600080fd5b5073ffffffffffffffffffffffffffffffffffffffff81351690602081013590604001356134fe565b6104f76004803603604081101561083157600080fd5b5073ffffffffffffffffffffffffffffffffffffffff8135169060200135613974565b61042f6004803603606081101561086a57600080fd5b5073ffffffffffffffffffffffffffffffffffffffff8135169060208101359060400135613a92565b61042f600480360360208110156108a957600080fd5b503573ffffffffffffffffffffffffffffffffffffffff16613f42565b61042f613f6a565b61091b600480360360a08110156108e457600080fd5b5073ffffffffffffffffffffffffffffffffffffffff81358116916020810135916040820135169060608101359060800135613f7c565b6040805192835260208301919091528051918290030190f35b61091b600480360360a081101561094a57600080fd5b5073ffffffffffffffffffffffffffffffffffffffff8135811691602081013591604082013516906060810135906080013561469f565b61042f600480360360c081101561099757600080fd5b5080359060208101359060408101359060608101359060808101359060a00135614d8c565b61042f600480360360c08110156109d257600080fd5b5080359060208101359060408101359060608101359060808101359060a00135614e4b565b61042f614eec565b61042f600480360360c0811015610a1557600080fd5b5080359060208101359060408101359060608101359060808101359060a00135614f00565b61068360048036036020811015610a5057600080fd5b503573ffffffffffffffffffffffffffffffffffffffff16614fb0565b6104f761528c565b61068360048036036020811015610a8b57600080fd5b503573ffffffffffffffffffffffffffffffffffffffff16615295565b61042f6154e8565b61042f615569565b61042f60048036036020811015610ace57600080fd5b503573ffffffffffffffffffffffffffffffffffffffff16615576565b6104496156b0565b61042f61572f565b61042f61573b565b61042f600480360360a0811015610b1957600080fd5b508035906020810135906040810135906060810135906080013561575f565b6104f760048036036040811015610b4e57600080fd5b5073ffffffffffffffffffffffffffffffffffffffff81351690602001356157c4565b61068360048036036040811015610b8757600080fd5b81359190810190604081016020820135640100000000811115610ba957600080fd5b820183602082011115610bbb57600080fd5b80359060200191846020830284011164010000000083111715610bdd57600080fd5b5090925090506157da565b61042f615cb3565b61042f615cb8565b61042f615cbd565b61042f600480360360c0811015610c1657600080fd5b5080359060208101359060408101359060608101359060808101359060a00135615cc2565b61042f615d43565b61042f615d53565b610c53615d5f565b60408051602080825283518183015283519192839290830191858101910280838360005b83811015610c8f578181015183820152602001610c77565b505050509050019250505060405180910390f35b61042f615eb6565b610c53615ebb565b61042f615f35565b61068360048036036020811015610cd157600080fd5b503573ffffffffffffffffffffffffffffffffffffffff16615f3b565b61042f6164d5565b6104f760048036036040811015610d0c57600080fd5b5073ffffffffffffffffffffffffffffffffffffffff8135169060200135616556565b61042f60048036036040811015610d4557600080fd5b5073ffffffffffffffffffffffffffffffffffffffff81358116916020013516616603565b61068360048036036060811015610d8057600080fd5b5073ffffffffffffffffffffffffffffffffffffffff813516906020810135906040013561663b565b61042f6169e7565b61042f60048036036020811015610dc757600080fd5b503573ffffffffffffffffffffffffffffffffffffffff166169f7565b61042f60048036036020811015610dfa57600080fd5b503573ffffffffffffffffffffffffffffffffffffffff16616b43565b61042f600480360360c0811015610e2d57600080fd5b5080359060208101359060408101359060608101359060808101359060a00135616c7d565b6104f7616d00565b60003373ffffffffffffffffffffffffffffffffffffffff166000357fffffffff00000000000000000000000000000000000000000000000000000000167bffffffffffffffffffffffffffffffffffffffffffffffffffffffff191660003660405180806020018281038252848482818152602001925080828437600083820152604051601f9091017fffffffffffffffffffffffffffffffffffffffffffffffffffffffffffffffe0169092018290039550909350505050a2600554610100900460ff1615610f8c57604080517f08c379a000000000000000000000000000000000000000000000000000000000815260206004820152600b60248201527f4552525f5245454e545259000000000000000000000000000000000000000000604482015290519081900360640190fd5b600580547fffffffffffffffffffffffffffffffffffffffffffffffffffffffffffff00ff1661010017905560085460ff1661102957604080517f08c379a000000000000000000000000000000000000000000000000000000000815260206004820152601160248201527f4552525f4e4f545f46494e414c495a4544000000000000000000000000000000604482015290519081900360640190fd5b73ffffffffffffffffffffffffffffffffffffffff84166000908152600a602052604090205460ff166110bd57604080517f08c379a000000000000000000000000000000000000000000000000000000000815260206004820152600d60248201527f4552525f4e4f545f424f554e4400000000000000000000000000000000000000604482015290519081900360640190fd5b73ffffffffffffffffffffffffffffffffffffffff84166000908152600a602052604090206003908101546110ff91670de0b6b3a76400005b04600101616d21565b83111561116d57604080517f08c379a000000000000000000000000000000000000000000000000000000000815260206004820152601160248201527f4552525f4d41585f4f55545f524154494f000000000000000000000000000000604482015290519081900360640190fd5b73ffffffffffffffffffffffffffffffffffffffff84166000908152600a6020526040902060038101546002808301549054600b546007546111b494939291908990614d8c565b91508161122257604080517f08c379a000000000000000000000000000000000000000000000000000000000815260206004820152600f60248201527f4552525f4d4154485f415050524f580000000000000000000000000000000000604482015290519081900360640190fd5b8282111561129157604080517f08c379a000000000000000000000000000000000000000000000000000000000815260206004820152600c60248201527f4552525f4c494d49545f494e0000000000000000000000000000000000000000604482015290519081900360640190fd5b61129f816003015485616e38565b600382015560006112b08382616d21565b60408051878152905191925073ffffffffffffffffffffffffffffffffffffffff88169133917fe74c91552b64c2e2e7bd255639e004e693bd3e1d01cc33e65610b86afcc1ffed919081900360200190a361130b3384616ec0565b61131d6113188483616e38565b616ece565b6005546113469062010000900473ffffffffffffffffffffffffffffffffffffffff1682616eda565b611351863387616ee4565b5050600580547fffffffffffffffffffffffffffffffffffffffffffffffffffffffffffff00ff1690559392505050565b60038054604080516020601f60027fffffffffffffffffffffffffffffffffffffffffffffffffffffffffffffffff61010060018816150201909516949094049384018190048102820181019092528281526060939092909183018282801561142c5780601f106114015761010080835404028352916020019161142c565b820191906000526020600020905b81548152906001019060200180831161140f57829003601f168201915b5050505050905090565b33600081815260016020908152604080832073ffffffffffffffffffffffffffffffffffffffff8716808552908352818420869055815186815291519394909390927f8c5be1e5ebec7d5bd14f71427d1e84f3dd0314c0f7b2291e5b200ac8c7c3b925928290030190a35060015b92915050565b6802b5e3af16b188000081565b600554600090610100900460ff161561153157604080517f08c379a000000000000000000000000000000000000000000000000000000000815260206004820152600b60248201527f4552525f5245454e545259000000000000000000000000000000000000000000604482015290519081900360640190fd5b73ffffffffffffffffffffffffffffffffffffffff83166000908152600a602052604090205460ff166115c557604080517f08c379a000000000000000000000000000000000000000000000000000000000815260206004820152600d60248201527f4552525f4e4f545f424f554e4400000000000000000000000000000000000000604482015290519081900360640190fd5b73ffffffffffffffffffffffffffffffffffffffff82166000908152600a602052604090205460ff1661165957604080517f08c379a000000000000000000000000000000000000000000000000000000000815260206004820152600d60248201527f4552525f4e4f545f424f554e4400000000000000000000000000000000000000604482015290519081900360640190fd5b73ffffffffffffffffffffffffffffffffffffffff8084166000908152600a602052604080822092851682528120600380840154600280860154928401549084015493946116aa949293929061575f565b95945050505050565b600554600090610100900460ff161561172d57604080517f08c379a000000000000000000000000000000000000000000000000000000000815260206004820152600b60248201527f4552525f5245454e545259000000000000000000000000000000000000000000604482015290519081900360640190fd5b73ffffffffffffffffffffffffffffffffffffffff83166000908152600a602052604090205460ff166117c157604080517f08c379a000000000000000000000000000000000000000000000000000000000815260206004820152600d60248201527f4552525f4e4f545f424f554e4400000000000000000000000000000000000000604482015290519081900360640190fd5b73ffffffffffffffffffffffffffffffffffffffff82166000908152600a602052604090205460ff1661185557604080517f08c379a000000000000000000000000000000000000000000000000000000000815260206004820152600d60248201527f4552525f4e4f545f424f554e4400000000000000000000000000000000000000604482015290519081900360640190fd5b73ffffffffffffffffffffffffffffffffffffffff8084166000908152600a60205260408082209285168252902060038083015460028085015492840154908401546007546116aa9492919061575f565b60025490565b6402540be400670de0b6b3a76400005b0481565b670de0b6b3a764000081565b60003373ffffffffffffffffffffffffffffffffffffffff85161480611922575073ffffffffffffffffffffffffffffffffffffffff841660009081526001602090815260408083203384529091529020548211155b61198d57604080517f08c379a000000000000000000000000000000000000000000000000000000000815260206004820152601560248201527f4552525f42544f4b454e5f4241445f43414c4c45520000000000000000000000604482015290519081900360640190fd5b611998848484616ff7565b3373ffffffffffffffffffffffffffffffffffffffff851614801590611a0e575073ffffffffffffffffffffffffffffffffffffffff841660009081526001602090815260408083203384529091529020547fffffffffffffffffffffffffffffffffffffffffffffffffffffffffffffffff14155b15611abc5773ffffffffffffffffffffffffffffffffffffffff84166000908152600160209081526040808320338452909152902054611a4e9083616e38565b73ffffffffffffffffffffffffffffffffffffffff858116600090815260016020908152604080832033808552908352928190208590558051948552519287169391927f8c5be1e5ebec7d5bd14f71427d1e84f3dd0314c0f7b2291e5b200ac8c7c3b9259281900390910190a35b5060019392505050565b73ffffffffffffffffffffffffffffffffffffffff166000908152600a602052604090205460ff1690565b600554600090610100900460ff1615611b6b57604080517f08c379a000000000000000000000000000000000000000000000000000000000815260206004820152600b60248201527f4552525f5245454e545259000000000000000000000000000000000000000000604482015290519081900360640190fd5b5060065473ffffffffffffffffffffffffffffffffffffffff1690565b60055460ff1690565b3373ffffffffffffffffffffffffffffffffffffffff166000357fffffffff00000000000000000000000000000000000000000000000000000000167bffffffffffffffffffffffffffffffffffffffffffffffffffffffff191660003660405180806020018281038252848482818152602001925080828437600083820152604051601f9091017fffffffffffffffffffffffffffffffffffffffffffffffffffffffffffffffe0169092018290039550909350505050a2600554610100900460ff1615611cc157604080517f08c379a000000000000000000000000000000000000000000000000000000000815260206004820152600b60248201527f4552525f5245454e545259000000000000000000000000000000000000000000604482015290519081900360640190fd5b600580547fffffffffffffffffffffffffffffffffffffffffffffffffffffffffffff00ff1661010017905560085460ff1615611d5f57604080517f08c379a000000000000000000000000000000000000000000000000000000000815260206004820152601060248201527f4552525f49535f46494e414c495a454400000000000000000000000000000000604482015290519081900360640190fd5b60065473ffffffffffffffffffffffffffffffffffffffff163314611de557604080517f08c379a000000000000000000000000000000000000000000000000000000000815260206004820152601260248201527f4552525f4e4f545f434f4e54524f4c4c45520000000000000000000000000000604482015290519081900360640190fd5b64e8d4a51000811015611e5957604080517f08c379a000000000000000000000000000000000000000000000000000000000815260206004820152600b60248201527f4552525f4d494e5f464545000000000000000000000000000000000000000000604482015290519081900360640190fd5b67016345785d8a0000811115611ed057604080517f08c379a000000000000000000000000000000000000000000000000000000000815260206004820152600b60248201527f4552525f4d41585f464545000000000000000000000000000000000000000000604482015290519081900360640190fd5b600755600580547fffffffffffffffffffffffffffffffffffffffffffffffffffffffffffff00ff169055565b3373ffffffffffffffffffffffffffffffffffffffff166000357fffffffff00000000000000000000000000000000000000000000000000000000167bffffffffffffffffffffffffffffffffffffffffffffffffffffffff191660003660405180806020018281038252848482818152602001925080828437600083820152604051601f9091017fffffffffffffffffffffffffffffffffffffffffffffffffffffffffffffffe0169092018290039550909350505050a2600554610100900460ff161561202d57604080517f08c379a000000000000000000000000000000000000000000000000000000000815260206004820152600b60248201527f4552525f5245454e545259000000000000000000000000000000000000000000604482015290519081900360640190fd5b600580547fffffffffffffffffffffffffffffffffffffffffffffffffffffffffffff00ff166101001790556006543373ffffffffffffffffffffffffffffffffffffffff909116146120e157604080517f08c379a000000000000000000000000000000000000000000000000000000000815260206004820152601260248201527f4552525f4e4f545f434f4e54524f4c4c45520000000000000000000000000000604482015290519081900360640190fd5b73ffffffffffffffffffffffffffffffffffffffff83166000908152600a602052604090205460ff1661217557604080517f08c379a000000000000000000000000000000000000000000000000000000000815260206004820152600d60248201527f4552525f4e4f545f424f554e4400000000000000000000000000000000000000604482015290519081900360640190fd5b60085460ff16156121e757604080517f08c379a000000000000000000000000000000000000000000000000000000000815260206004820152601060248201527f4552525f49535f46494e414c495a454400000000000000000000000000000000604482015290519081900360640190fd5b670de0b6b3a764000081101561225e57604080517f08c379a000000000000000000000000000000000000000000000000000000000815260206004820152600e60248201527f4552525f4d494e5f574549474854000000000000000000000000000000000000604482015290519081900360640190fd5b6802b5e3af16b18800008111156122d657604080517f08c379a000000000000000000000000000000000000000000000000000000000815260206004820152600e60248201527f4552525f4d41585f574549474854000000000000000000000000000000000000604482015290519081900360640190fd5b620f424082101561234857604080517f08c379a000000000000000000000000000000000000000000000000000000000815260206004820152600f60248201527f4552525f4d494e5f42414c414e43450000000000000000000000000000000000604482015290519081900360640190fd5b73ffffffffffffffffffffffffffffffffffffffff83166000908152600a60205260409020600201548082111561240f5761238e600b546123898484616e38565b61715e565b600b8190556802b5e3af16b1880000101561240a57604080517f08c379a000000000000000000000000000000000000000000000000000000000815260206004820152601460248201527f4552525f4d41585f544f54414c5f574549474854000000000000000000000000604482015290519081900360640190fd5b612430565b808210156124305761242c600b546124278385616e38565b616e38565b600b555b73ffffffffffffffffffffffffffffffffffffffff84166000908152600a60205260409020600281018390556003018054908490558084111561248657612481853361247c8785616e38565b6171d2565b6124ed565b808410156124ed57600061249a8286616e38565b905060006124a9826000616d21565b90506124bf87336124ba8585616e38565b616ee4565b6005546124ea90889062010000900473ffffffffffffffffffffffffffffffffffffffff1683616ee4565b50505b5050600580547fffffffffffffffffffffffffffffffffffffffffffffffffffffffffffff00ff169055505050565b60003373ffffffffffffffffffffffffffffffffffffffff166000357fffffffff00000000000000000000000000000000000000000000000000000000167bffffffffffffffffffffffffffffffffffffffffffffffffffffffff191660003660405180806020018281038252848482818152602001925080828437600083820152604051601f9091017fffffffffffffffffffffffffffffffffffffffffffffffffffffffffffffffe0169092018290039550909350505050a2600554610100900460ff161561264e57604080517f08c379a000000000000000000000000000000000000000000000000000000000815260206004820152600b60248201527f4552525f5245454e545259000000000000000000000000000000000000000000604482015290519081900360640190fd5b600580547fffffffffffffffffffffffffffffffffffffffffffffffffffffffffffff00ff1661010017905560085460ff166126eb57604080517f08c379a000000000000000000000000000000000000000000000000000000000815260206004820152601160248201527f4552525f4e4f545f46494e414c495a4544000000000000000000000000000000604482015290519081900360640190fd5b73ffffffffffffffffffffffffffffffffffffffff84166000908152600a602052604090205460ff1661277f57604080517f08c379a000000000000000000000000000000000000000000000000000000000815260206004820152600d60248201527f4552525f4e4f545f424f554e4400000000000000000000000000000000000000604482015290519081900360640190fd5b73ffffffffffffffffffffffffffffffffffffffff84166000908152600a6020526040902060038101546002808301549054600b546007546127c694939291908990614f00565b91508282101561283757604080517f08c379a000000000000000000000000000000000000000000000000000000000815260206004820152600d60248201527f4552525f4c494d49545f4f555400000000000000000000000000000000000000604482015290519081900360640190fd5b73ffffffffffffffffffffffffffffffffffffffff85166000908152600a6020526040902060039081015461287491670de0b6b3a76400006110f6565b8211156128e257604080517f08c379a000000000000000000000000000000000000000000000000000000000815260206004820152601160248201527f4552525f4d41585f4f55545f524154494f000000000000000000000000000000604482015290519081900360640190fd5b6128f0816003015483616e38565b600382015560006129018582616d21565b60408051858152905191925073ffffffffffffffffffffffffffffffffffffffff88169133917fe74c91552b64c2e2e7bd255639e004e693bd3e1d01cc33e65610b86afcc1ffed919081900360200190a361295c3386616ec0565b6129696113188683616e38565b6005546129929062010000900473ffffffffffffffffffffffffffffffffffffffff1682616eda565b611351863385616ee4565b3373ffffffffffffffffffffffffffffffffffffffff166000357fffffffff00000000000000000000000000000000000000000000000000000000167bffffffffffffffffffffffffffffffffffffffffffffffffffffffff191660003660405180806020018281038252848482818152602001925080828437600083820152604051601f9091017fffffffffffffffffffffffffffffffffffffffffffffffffffffffffffffffe0169092018290039550909350505050a2600554610100900460ff1615612acd57604080517f08c379a000000000000000000000000000000000000000000000000000000000815260206004820152600b60248201527f4552525f5245454e545259000000000000000000000000000000000000000000604482015290519081900360640190fd5b600580547fffffffffffffffffffffffffffffffffffffffffffffffffffffffffffff00ff1661010017905560085460ff1615612b6b57604080517f08c379a000000000000000000000000000000000000000000000000000000000815260206004820152601060248201527f4552525f49535f46494e414c495a454400000000000000000000000000000000604482015290519081900360640190fd5b60065473ffffffffffffffffffffffffffffffffffffffff163314612bf157604080517f08c379a000000000000000000000000000000000000000000000000000000000815260206004820152601260248201527f4552525f4e4f545f434f4e54524f4c4c45520000000000000000000000000000604482015290519081900360640190fd5b6006805491151574010000000000000000000000000000000000000000027fffffffffffffffffffffff00ffffffffffffffffffffffffffffffffffffffff909216919091179055600580547fffffffffffffffffffffffffffffffffffffffffffffffffffffffffffff00ff169055565b3373ffffffffffffffffffffffffffffffffffffffff166000357fffffffff00000000000000000000000000000000000000000000000000000000167bffffffffffffffffffffffffffffffffffffffffffffffffffffffff191660003660405180806020018281038252848482818152602001925080828437600083820152604051601f9091017fffffffffffffffffffffffffffffffffffffffffffffffffffffffffffffffe0169092018290039550909350505050a2600554610100900460ff1615612d9357604080517f08c379a000000000000000000000000000000000000000000000000000000000815260206004820152600b60248201527f4552525f5245454e545259000000000000000000000000000000000000000000604482015290519081900360640190fd5b600580547fffffffffffffffffffffffffffffffffffffffffffffffffffffffffffff00ff166101001790556006543373ffffffffffffffffffffffffffffffffffffffff90911614612e4757604080517f08c379a000000000000000000000000000000000000000000000000000000000815260206004820152601260248201527f4552525f4e4f545f434f4e54524f4c4c45520000000000000000000000000000604482015290519081900360640190fd5b60085460ff1615612eb957604080517f08c379a000000000000000000000000000000000000000000000000000000000815260206004820152601060248201527f4552525f49535f46494e414c495a454400000000000000000000000000000000604482015290519081900360640190fd5b60095460021115612f2b57604080517f08c379a000000000000000000000000000000000000000000000000000000000815260206004820152600e60248201527f4552525f4d494e5f544f4b454e53000000000000000000000000000000000000604482015290519081900360640190fd5b600880547fffffffffffffffffffffffffffffffffffffffffffffffffffffffffffffff00166001179055600680547fffffffffffffffffffffff00ffffffffffffffffffffffffffffffffffffffff1674010000000000000000000000000000000000000000179055612fa768056bc75e2d63100000617251565b612fba3368056bc75e2d63100000616eda565b600580547fffffffffffffffffffffffffffffffffffffffffffffffffffffffffffff00ff169055565b3373ffffffffffffffffffffffffffffffffffffffff166000357fffffffff00000000000000000000000000000000000000000000000000000000167bffffffffffffffffffffffffffffffffffffffffffffffffffffffff191660003660405180806020018281038252848482818152602001925080828437600083820152604051601f9091017fffffffffffffffffffffffffffffffffffffffffffffffffffffffffffffffe0169092018290039550909350505050a2600554610100900460ff161561311457604080517f08c379a000000000000000000000000000000000000000000000000000000000815260206004820152600b60248201527f4552525f5245454e545259000000000000000000000000000000000000000000604482015290519081900360640190fd5b600580547fffffffffffffffffffffffffffffffffffffffffffffffffffffffffffff00ff1661010017905560085460ff166131b157604080517f08c379a000000000000000000000000000000000000000000000000000000000815260206004820152601160248201527f4552525f4e4f545f46494e414c495a4544000000000000000000000000000000604482015290519081900360640190fd5b60006131bb6118a6565b905060006131c9858361725a565b90508061323757604080517f08c379a000000000000000000000000000000000000000000000000000000000815260206004820152600f60248201527f4552525f4d4154485f415050524f580000000000000000000000000000000000604482015290519081900360640190fd5b60005b6009548110156134325760006009828154811061325357fe5b600091825260208083209091015473ffffffffffffffffffffffffffffffffffffffff16808352600a9091526040822060030154909250906132958583616d21565b90508061330357604080517f08c379a000000000000000000000000000000000000000000000000000000000815260206004820152600f60248201527f4552525f4d4154485f415050524f580000000000000000000000000000000000604482015290519081900360640190fd5b87878581811061330f57fe5b9050602002013581111561338457604080517f08c379a000000000000000000000000000000000000000000000000000000000815260206004820152600c60248201527f4552525f4c494d49545f494e0000000000000000000000000000000000000000604482015290519081900360640190fd5b73ffffffffffffffffffffffffffffffffffffffff83166000908152600a60205260409020600301546133b7908261715e565b73ffffffffffffffffffffffffffffffffffffffff84166000818152600a60209081526040918290206003019390935580518481529051919233927f63982df10efd8dfaaaa0fcc7f50b2d93b7cba26ccc48adee2873220d485dc39a9281900390910190a36134278333836171d2565b50505060010161323a565b5061343c85617251565b6124ed3386616eda565b600080613453878661725a565b90506000613461878661715e565b9050600061346f828961725a565b90506000613485670de0b6b3a76400008561725a565b9050600061349383836173db565b905060006134a1828e616d21565b905060006134af828f616e38565b905060006134ce6134c8670de0b6b3a76400008a616e38565b8b616d21565b90506134eb826134e6670de0b6b3a764000084616e38565b61725a565b9f9e505050505050505050505050505050565b60003373ffffffffffffffffffffffffffffffffffffffff166000357fffffffff00000000000000000000000000000000000000000000000000000000167bffffffffffffffffffffffffffffffffffffffffffffffffffffffff191660003660405180806020018281038252848482818152602001925080828437600083820152604051601f9091017fffffffffffffffffffffffffffffffffffffffffffffffffffffffffffffffe0169092018290039550909350505050a2600554610100900460ff161561363057604080517f08c379a000000000000000000000000000000000000000000000000000000000815260206004820152600b60248201527f4552525f5245454e545259000000000000000000000000000000000000000000604482015290519081900360640190fd5b600580547fffffffffffffffffffffffffffffffffffffffffffffffffffffffffffff00ff1661010017905560085460ff166136cd57604080517f08c379a000000000000000000000000000000000000000000000000000000000815260206004820152601160248201527f4552525f4e4f545f46494e414c495a4544000000000000000000000000000000604482015290519081900360640190fd5b73ffffffffffffffffffffffffffffffffffffffff84166000908152600a602052604090205460ff1661376157604080517f08c379a000000000000000000000000000000000000000000000000000000000815260206004820152600d60248201527f4552525f4e4f545f424f554e4400000000000000000000000000000000000000604482015290519081900360640190fd5b73ffffffffffffffffffffffffffffffffffffffff84166000908152600a60205260409020600301546137a0906002670de0b6b3a76400005b04616d21565b83111561380e57604080517f08c379a000000000000000000000000000000000000000000000000000000000815260206004820152601060248201527f4552525f4d41585f494e5f524154494f00000000000000000000000000000000604482015290519081900360640190fd5b73ffffffffffffffffffffffffffffffffffffffff84166000908152600a6020526040902060038101546002808301549054600b5460075461385594939291908990614e4b565b9150828210156138c657604080517f08c379a000000000000000000000000000000000000000000000000000000000815260206004820152600d60248201527f4552525f4c494d49545f4f555400000000000000000000000000000000000000604482015290519081900360640190fd5b6138d481600301548561715e565b600382015560408051858152905173ffffffffffffffffffffffffffffffffffffffff87169133917f63982df10efd8dfaaaa0fcc7f50b2d93b7cba26ccc48adee2873220d485dc39a9181900360200190a361392f82617251565b6139393383616eda565b6139448533866171d2565b50600580547fffffffffffffffffffffffffffffffffffffffffffffffffffffffffffff00ff1690559392505050565b33600090815260016020908152604080832073ffffffffffffffffffffffffffffffffffffffff86168452909152812054808311156139e35733600090815260016020908152604080832073ffffffffffffffffffffffffffffffffffffffff88168452909152812055613a1f565b6139ed8184616e38565b33600090815260016020908152604080832073ffffffffffffffffffffffffffffffffffffffff891684529091529020555b33600081815260016020908152604080832073ffffffffffffffffffffffffffffffffffffffff89168085529083529281902054815190815290519293927f8c5be1e5ebec7d5bd14f71427d1e84f3dd0314c0f7b2291e5b200ac8c7c3b925929181900390910190a35060019392505050565b60003373ffffffffffffffffffffffffffffffffffffffff166000357fffffffff00000000000000000000000000000000000000000000000000000000167bffffffffffffffffffffffffffffffffffffffffffffffffffffffff191660003660405180806020018281038252848482818152602001925080828437600083820152604051601f9091017fffffffffffffffffffffffffffffffffffffffffffffffffffffffffffffffe0169092018290039550909350505050a2600554610100900460ff1615613bc457604080517f08c379a000000000000000000000000000000000000000000000000000000000815260206004820152600b60248201527f4552525f5245454e545259000000000000000000000000000000000000000000604482015290519081900360640190fd5b600580547fffffffffffffffffffffffffffffffffffffffffffffffffffffffffffff00ff1661010017905560085460ff16613c6157604080517f08c379a000000000000000000000000000000000000000000000000000000000815260206004820152601160248201527f4552525f4e4f545f46494e414c495a4544000000000000000000000000000000604482015290519081900360640190fd5b73ffffffffffffffffffffffffffffffffffffffff84166000908152600a602052604090205460ff16613cf557604080517f08c379a000000000000000000000000000000000000000000000000000000000815260206004820152600d60248201527f4552525f4e4f545f424f554e4400000000000000000000000000000000000000604482015290519081900360640190fd5b73ffffffffffffffffffffffffffffffffffffffff84166000908152600a6020526040902060038101546002808301549054600b54600754613d3c94939291908990613446565b915081613daa57604080517f08c379a000000000000000000000000000000000000000000000000000000000815260206004820152600f60248201527f4552525f4d4154485f415050524f580000000000000000000000000000000000604482015290519081900360640190fd5b82821115613e1957604080517f08c379a000000000000000000000000000000000000000000000000000000000815260206004820152600c60248201527f4552525f4c494d49545f494e0000000000000000000000000000000000000000604482015290519081900360640190fd5b73ffffffffffffffffffffffffffffffffffffffff85166000908152600a6020526040902060030154613e56906002670de0b6b3a764000061379a565b821115613ec457604080517f08c379a000000000000000000000000000000000000000000000000000000000815260206004820152601060248201527f4552525f4d41585f494e5f524154494f00000000000000000000000000000000604482015290519081900360640190fd5b613ed281600301548361715e565b600382015560408051838152905173ffffffffffffffffffffffffffffffffffffffff87169133917f63982df10efd8dfaaaa0fcc7f50b2d93b7cba26ccc48adee2873220d485dc39a9181900360200190a3613f2d84617251565b613f373385616eda565b6139448533846171d2565b73ffffffffffffffffffffffffffffffffffffffff1660009081526020819052604090205490565b620f4240670de0b6b3a76400006118bc565b60408051602080825236908201819052600092839233927fffffffff000000000000000000000000000000000000000000000000000000008535169285929081908101848480828437600083820152604051601f9091017fffffffffffffffffffffffffffffffffffffffffffffffffffffffffffffffe0169092018290039550909350505050a2600554610100900460ff161561407b57604080517f08c379a000000000000000000000000000000000000000000000000000000000815260206004820152600b60248201527f4552525f5245454e545259000000000000000000000000000000000000000000604482015290519081900360640190fd5b600580547fffffffffffffffffffffffffffffffffffffffffffffffffffffffffffff00ff1661010017905573ffffffffffffffffffffffffffffffffffffffff87166000908152600a602052604090205460ff1661413b57604080517f08c379a000000000000000000000000000000000000000000000000000000000815260206004820152600d60248201527f4552525f4e4f545f424f554e4400000000000000000000000000000000000000604482015290519081900360640190fd5b73ffffffffffffffffffffffffffffffffffffffff85166000908152600a602052604090205460ff166141cf57604080517f08c379a000000000000000000000000000000000000000000000000000000000815260206004820152600d60248201527f4552525f4e4f545f424f554e4400000000000000000000000000000000000000604482015290519081900360640190fd5b60065474010000000000000000000000000000000000000000900460ff1661425857604080517f08c379a000000000000000000000000000000000000000000000000000000000815260206004820152601360248201527f4552525f535741505f4e4f545f5055424c494300000000000000000000000000604482015290519081900360640190fd5b73ffffffffffffffffffffffffffffffffffffffff8088166000908152600a60205260408082209288168252902060038082015461429e91670de0b6b3a76400006110f6565b86111561430c57604080517f08c379a000000000000000000000000000000000000000000000000000000000815260206004820152601160248201527f4552525f4d41585f4f55545f524154494f000000000000000000000000000000604482015290519081900360640190fd5b600061432d836003015484600201548460030154856002015460075461575f565b90508581111561439e57604080517f08c379a000000000000000000000000000000000000000000000000000000000815260206004820152601360248201527f4552525f4241445f4c494d49545f505249434500000000000000000000000000604482015290519081900360640190fd5b6143be83600301548460020154846003015485600201548b600754616c7d565b94508885111561442f57604080517f08c379a000000000000000000000000000000000000000000000000000000000815260206004820152600c60248201527f4552525f4c494d49545f494e0000000000000000000000000000000000000000604482015290519081900360640190fd5b61443d83600301548661715e565b8360030181905550614453826003015488616e38565b60038084018290558401546002808601549085015460075461447694919061575f565b9350808410156144e757604080517f08c379a000000000000000000000000000000000000000000000000000000000815260206004820152600f60248201527f4552525f4d4154485f415050524f580000000000000000000000000000000000604482015290519081900360640190fd5b8584111561455657604080517f08c379a000000000000000000000000000000000000000000000000000000000815260206004820152600f60248201527f4552525f4c494d49545f50524943450000000000000000000000000000000000604482015290519081900360640190fd5b614560858861725a565b8111156145ce57604080517f08c379a000000000000000000000000000000000000000000000000000000000815260206004820152600f60248201527f4552525f4d4154485f415050524f580000000000000000000000000000000000604482015290519081900360640190fd5b8773ffffffffffffffffffffffffffffffffffffffff168a73ffffffffffffffffffffffffffffffffffffffff163373ffffffffffffffffffffffffffffffffffffffff167f908fb5ee8f16c6bc9bc3690973819f32a4d4b10188134543c88706e0e1d43378888b604051808381526020018281526020019250505060405180910390a461465d8a33876171d2565b614668883389616ee4565b505050600580547fffffffffffffffffffffffffffffffffffffffffffffffffffffffffffff00ff16905590969095509350505050565b60408051602080825236908201819052600092839233927fffffffff000000000000000000000000000000000000000000000000000000008535169285929081908101848480828437600083820152604051601f9091017fffffffffffffffffffffffffffffffffffffffffffffffffffffffffffffffe0169092018290039550909350505050a2600554610100900460ff161561479e57604080517f08c379a000000000000000000000000000000000000000000000000000000000815260206004820152600b60248201527f4552525f5245454e545259000000000000000000000000000000000000000000604482015290519081900360640190fd5b600580547fffffffffffffffffffffffffffffffffffffffffffffffffffffffffffff00ff1661010017905573ffffffffffffffffffffffffffffffffffffffff87166000908152600a602052604090205460ff1661485e57604080517f08c379a000000000000000000000000000000000000000000000000000000000815260206004820152600d60248201527f4552525f4e4f545f424f554e4400000000000000000000000000000000000000604482015290519081900360640190fd5b73ffffffffffffffffffffffffffffffffffffffff85166000908152600a602052604090205460ff166148f257604080517f08c379a000000000000000000000000000000000000000000000000000000000815260206004820152600d60248201527f4552525f4e4f545f424f554e4400000000000000000000000000000000000000604482015290519081900360640190fd5b60065474010000000000000000000000000000000000000000900460ff1661497b57604080517f08c379a000000000000000000000000000000000000000000000000000000000815260206004820152601360248201527f4552525f535741505f4e4f545f5055424c494300000000000000000000000000604482015290519081900360640190fd5b73ffffffffffffffffffffffffffffffffffffffff8088166000908152600a60205260408082209288168252902060038201546149c2906002670de0b6b3a764000061379a565b881115614a3057604080517f08c379a000000000000000000000000000000000000000000000000000000000815260206004820152601060248201527f4552525f4d41585f494e5f524154494f00000000000000000000000000000000604482015290519081900360640190fd5b6000614a51836003015484600201548460030154856002015460075461575f565b905085811115614ac257604080517f08c379a000000000000000000000000000000000000000000000000000000000815260206004820152601360248201527f4552525f4241445f4c494d49545f505249434500000000000000000000000000604482015290519081900360640190fd5b614ae283600301548460020154846003015485600201548d600754615cc2565b945086851015614b5357604080517f08c379a000000000000000000000000000000000000000000000000000000000815260206004820152600d60248201527f4552525f4c494d49545f4f555400000000000000000000000000000000000000604482015290519081900360640190fd5b614b6183600301548a61715e565b8360030181905550614b77826003015486616e38565b600380840182905584015460028086015490850154600754614b9a94919061575f565b935080841015614c0b57604080517f08c379a000000000000000000000000000000000000000000000000000000000815260206004820152600f60248201527f4552525f4d4154485f415050524f580000000000000000000000000000000000604482015290519081900360640190fd5b85841115614c7a57604080517f08c379a000000000000000000000000000000000000000000000000000000000815260206004820152600f60248201527f4552525f4c494d49545f50524943450000000000000000000000000000000000604482015290519081900360640190fd5b614c84898661725a565b811115614cf257604080517f08c379a000000000000000000000000000000000000000000000000000000000815260206004820152600f60248201527f4552525f4d4154485f415050524f580000000000000000000000000000000000604482015290519081900360640190fd5b8773ffffffffffffffffffffffffffffffffffffffff168a73ffffffffffffffffffffffffffffffffffffffff163373ffffffffffffffffffffffffffffffffffffffff167f908fb5ee8f16c6bc9bc3690973819f32a4d4b10188134543c88706e0e1d433788c89604051808381526020018281526020019250505060405180910390a4614d818a338b6171d2565b614668883387616ee4565b600080614d99878661725a565b90506000614daf670de0b6b3a764000083616e38565b90506000614dbd8286616d21565b90506000614dd7876134e6670de0b6b3a764000085616e38565b90506000614de58c83616e38565b90506000614df3828e61725a565b90506000614e0182886173db565b90506000614e0f828e616d21565b90506000614e1d8e83616e38565b9050614e36816134e6670de0b6b3a76400006000616e38565b99505050505050505050509695505050505050565b600080614e58878661725a565b90506000614e77614e71670de0b6b3a764000084616e38565b85616d21565b90506000614e9686614e91670de0b6b3a764000085616e38565b616d21565b90506000614ea48b8361715e565b90506000614eb2828d61725a565b90506000614ec082876173db565b90506000614ece828d616d21565b9050614eda818d616e38565b9e9d5050505050505050505050505050565b64e8d4a51000670de0b6b3a76400006118bc565b600080614f0d878661725a565b90506000614f2885614e91670de0b6b3a76400006000616e38565b90506000614f368883616e38565b90506000614f44828a61725a565b90506000614f6382614f5e670de0b6b3a76400008861725a565b6173db565b90506000614f71828e616d21565b90506000614f7f8e83616e38565b90506000614f986134c8670de0b6b3a76400008a616e38565b90506134eb82614e91670de0b6b3a764000084616e38565b3373ffffffffffffffffffffffffffffffffffffffff166000357fffffffff00000000000000000000000000000000000000000000000000000000167bffffffffffffffffffffffffffffffffffffffffffffffffffffffff191660003660405180806020018281038252848482818152602001925080828437600083820152604051601f9091017fffffffffffffffffffffffffffffffffffffffffffffffffffffffffffffffe0169092018290039550909350505050a2600554610100900460ff16156150e057604080517f08c379a000000000000000000000000000000000000000000000000000000000815260206004820152600b60248201527f4552525f5245454e545259000000000000000000000000000000000000000000604482015290519081900360640190fd5b600580547fffffffffffffffffffffffffffffffffffffffffffffffffffffffffffff00ff1661010017905573ffffffffffffffffffffffffffffffffffffffff81166000908152600a602052604090205460ff166151a057604080517f08c379a000000000000000000000000000000000000000000000000000000000815260206004820152600d60248201527f4552525f4e4f545f424f554e4400000000000000000000000000000000000000604482015290519081900360640190fd5b604080517f70a08231000000000000000000000000000000000000000000000000000000008152306004820152905173ffffffffffffffffffffffffffffffffffffffff8316916370a08231916024808301926020929190829003018186803b15801561520c57600080fd5b505afa158015615220573d6000803e3d6000fd5b505050506040513d602081101561523657600080fd5b505173ffffffffffffffffffffffffffffffffffffffff9091166000908152600a6020526040902060030155600580547fffffffffffffffffffffffffffffffffffffffffffffffffffffffffffff00ff169055565b60085460ff1690565b3373ffffffffffffffffffffffffffffffffffffffff166000357fffffffff00000000000000000000000000000000000000000000000000000000167bffffffffffffffffffffffffffffffffffffffffffffffffffffffff191660003660405180806020018281038252848482818152602001925080828437600083820152604051601f9091017fffffffffffffffffffffffffffffffffffffffffffffffffffffffffffffffe0169092018290039550909350505050a2600554610100900460ff16156153c557604080517f08c379a000000000000000000000000000000000000000000000000000000000815260206004820152600b60248201527f4552525f5245454e545259000000000000000000000000000000000000000000604482015290519081900360640190fd5b600580547fffffffffffffffffffffffffffffffffffffffffffffffffffffffffffff00ff166101001790556006543373ffffffffffffffffffffffffffffffffffffffff9091161461547957604080517f08c379a000000000000000000000000000000000000000000000000000000000815260206004820152601260248201527f4552525f4e4f545f434f4e54524f4c4c45520000000000000000000000000000604482015290519081900360640190fd5b600680547fffffffffffffffffffffffff00000000000000000000000000000000000000001673ffffffffffffffffffffffffffffffffffffffff92909216919091179055600580547fffffffffffffffffffffffffffffffffffffffffffffffffffffffffffff00ff169055565b600554600090610100900460ff161561556257604080517f08c379a000000000000000000000000000000000000000000000000000000000815260206004820152600b60248201527f4552525f5245454e545259000000000000000000000000000000000000000000604482015290519081900360640190fd5b50600b5490565b68056bc75e2d6310000081565b600554600090610100900460ff16156155f057604080517f08c379a000000000000000000000000000000000000000000000000000000000815260206004820152600b60248201527f4552525f5245454e545259000000000000000000000000000000000000000000604482015290519081900360640190fd5b73ffffffffffffffffffffffffffffffffffffffff82166000908152600a602052604090205460ff1661568457604080517f08c379a000000000000000000000000000000000000000000000000000000000815260206004820152600d60248201527f4552525f4e4f545f424f554e4400000000000000000000000000000000000000604482015290519081900360640190fd5b5073ffffffffffffffffffffffffffffffffffffffff166000908152600a602052604090206002015490565b60048054604080516020601f60027fffffffffffffffffffffffffffffffffffffffffffffffffffffffffffffffff61010060018816150201909516949094049384018190048102820181019092528281526060939092909183018282801561142c5780601f106114015761010080835404028352916020019161142c565b6704a03ce68d21555681565b7f42524f4e5a45000000000000000000000000000000000000000000000000000090565b60008061576c878761725a565b9050600061577a868661725a565b90506000615788838361725a565b905060006157aa670de0b6b3a76400006134e6670de0b6b3a764000089616e38565b90506157b68282616d21565b9a9950505050505050505050565b60006157d1338484616ff7565b50600192915050565b3373ffffffffffffffffffffffffffffffffffffffff166000357fffffffff00000000000000000000000000000000000000000000000000000000167bffffffffffffffffffffffffffffffffffffffffffffffffffffffff191660003660405180806020018281038252848482818152602001925080828437600083820152604051601f9091017fffffffffffffffffffffffffffffffffffffffffffffffffffffffffffffffe0169092018290039550909350505050a2600554610100900460ff161561590a57604080517f08c379a000000000000000000000000000000000000000000000000000000000815260206004820152600b60248201527f4552525f5245454e545259000000000000000000000000000000000000000000604482015290519081900360640190fd5b600580547fffffffffffffffffffffffffffffffffffffffffffffffffffffffffffff00ff1661010017905560085460ff166159a757604080517f08c379a000000000000000000000000000000000000000000000000000000000815260206004820152601160248201527f4552525f4e4f545f46494e414c495a4544000000000000000000000000000000604482015290519081900360640190fd5b60006159b16118a6565b905060006159c0856000616d21565b905060006159ce8683616e38565b905060006159dc828561725a565b905080615a4a57604080517f08c379a000000000000000000000000000000000000000000000000000000000815260206004820152600f60248201527f4552525f4d4154485f415050524f580000000000000000000000000000000000604482015290519081900360640190fd5b615a543388616ec0565b600554615a7d9062010000900473ffffffffffffffffffffffffffffffffffffffff1684616eda565b615a8682616ece565b60005b600954811015615c8157600060098281548110615aa257fe5b600091825260208083209091015473ffffffffffffffffffffffffffffffffffffffff16808352600a909152604082206003015490925090615ae48583616d21565b905080615b5257604080517f08c379a000000000000000000000000000000000000000000000000000000000815260206004820152600f60248201527f4552525f4d4154485f415050524f580000000000000000000000000000000000604482015290519081900360640190fd5b898985818110615b5e57fe5b90506020020135811015615bd357604080517f08c379a000000000000000000000000000000000000000000000000000000000815260206004820152600d60248201527f4552525f4c494d49545f4f555400000000000000000000000000000000000000604482015290519081900360640190fd5b73ffffffffffffffffffffffffffffffffffffffff83166000908152600a6020526040902060030154615c069082616e38565b73ffffffffffffffffffffffffffffffffffffffff84166000818152600a60209081526040918290206003019390935580518481529051919233927fe74c91552b64c2e2e7bd255639e004e693bd3e1d01cc33e65610b86afcc1ffed9281900390910190a3615c76833383616ee4565b505050600101615a89565b5050600580547fffffffffffffffffffffffffffffffffffffffffffffffffffffffffffff00ff169055505050505050565b600881565b600281565b600181565b600080615ccf878661725a565b90506000615ce5670de0b6b3a764000085616e38565b9050615cf18582616d21565b90506000615d038a6134e68c8561715e565b90506000615d1182856173db565b90506000615d27670de0b6b3a764000083616e38565b9050615d338a82616d21565b9c9b505050505050505050505050565b600a670de0b6b3a76400006118bc565b671bc16d674ec7ffff81565b600554606090610100900460ff1615615dd957604080517f08c379a000000000000000000000000000000000000000000000000000000000815260206004820152600b60248201527f4552525f5245454e545259000000000000000000000000000000000000000000604482015290519081900360640190fd5b60085460ff16615e4a57604080517f08c379a000000000000000000000000000000000000000000000000000000000815260206004820152601160248201527f4552525f4e4f545f46494e414c495a4544000000000000000000000000000000604482015290519081900360640190fd5b600980548060200260200160405190810160405280929190818152602001828054801561142c57602002820191906000526020600020905b815473ffffffffffffffffffffffffffffffffffffffff168152600190910190602001808311615e82575050505050905090565b600081565b600554606090610100900460ff1615615e4a57604080517f08c379a000000000000000000000000000000000000000000000000000000000815260206004820152600b60248201527f4552525f5245454e545259000000000000000000000000000000000000000000604482015290519081900360640190fd5b60095490565b3373ffffffffffffffffffffffffffffffffffffffff166000357fffffffff00000000000000000000000000000000000000000000000000000000167bffffffffffffffffffffffffffffffffffffffffffffffffffffffff191660003660405180806020018281038252848482818152602001925080828437600083820152604051601f9091017fffffffffffffffffffffffffffffffffffffffffffffffffffffffffffffffe0169092018290039550909350505050a2600554610100900460ff161561606b57604080517f08c379a000000000000000000000000000000000000000000000000000000000815260206004820152600b60248201527f4552525f5245454e545259000000000000000000000000000000000000000000604482015290519081900360640190fd5b600580547fffffffffffffffffffffffffffffffffffffffffffffffffffffffffffff00ff166101001790556006543373ffffffffffffffffffffffffffffffffffffffff9091161461611f57604080517f08c379a000000000000000000000000000000000000000000000000000000000815260206004820152601260248201527f4552525f4e4f545f434f4e54524f4c4c45520000000000000000000000000000604482015290519081900360640190fd5b73ffffffffffffffffffffffffffffffffffffffff81166000908152600a602052604090205460ff166161b357604080517f08c379a000000000000000000000000000000000000000000000000000000000815260206004820152600d60248201527f4552525f4e4f545f424f554e4400000000000000000000000000000000000000604482015290519081900360640190fd5b60085460ff161561622557604080517f08c379a000000000000000000000000000000000000000000000000000000000815260206004820152601060248201527f4552525f49535f46494e414c495a454400000000000000000000000000000000604482015290519081900360640190fd5b73ffffffffffffffffffffffffffffffffffffffff81166000908152600a6020526040812060030154906162598282616d21565b600b5473ffffffffffffffffffffffffffffffffffffffff85166000908152600a602052604090206002015491925061629191616e38565b600b5573ffffffffffffffffffffffffffffffffffffffff83166000908152600a6020526040902060010154600980547fffffffffffffffffffffffffffffffffffffffffffffffffffffffffffffffff81019190829081106162f057fe5b6000918252602090912001546009805473ffffffffffffffffffffffffffffffffffffffff909216918490811061632357fe5b9060005260206000200160006101000a81548173ffffffffffffffffffffffffffffffffffffffff021916908373ffffffffffffffffffffffffffffffffffffffff16021790555081600a60006009858154811061637d57fe5b600091825260208083209091015473ffffffffffffffffffffffffffffffffffffffff16835282019290925260400190206001015560098054806163bd57fe5b600082815260208082207fffffffffffffffffffffffffffffffffffffffffffffffffffffffffffffffff908401810180547fffffffffffffffffffffffff0000000000000000000000000000000000000000169055909201909255604080516080810182528381528083018481528183018581526060830186815273ffffffffffffffffffffffffffffffffffffffff8c168752600a90955292909420905181547fffffffffffffffffffffffffffffffffffffffffffffffffffffffffffffff001690151517815592516001840155516002830155516003909101556164aa85336124ba8787616e38565b6005546124ed90869062010000900473ffffffffffffffffffffffffffffffffffffffff1685616ee4565b600554600090610100900460ff161561654f57604080517f08c379a000000000000000000000000000000000000000000000000000000000815260206004820152600b60248201527f4552525f5245454e545259000000000000000000000000000000000000000000604482015290519081900360640190fd5b5060075490565b33600090815260016020908152604080832073ffffffffffffffffffffffffffffffffffffffff86168452909152812054616591908361715e565b33600081815260016020908152604080832073ffffffffffffffffffffffffffffffffffffffff89168085529083529281902085905580519485525191937f8c5be1e5ebec7d5bd14f71427d1e84f3dd0314c0f7b2291e5b200ac8c7c3b925929081900390910190a350600192915050565b73ffffffffffffffffffffffffffffffffffffffff918216600090815260016020908152604080832093909416825291909152205490565b3373ffffffffffffffffffffffffffffffffffffffff166000357fffffffff00000000000000000000000000000000000000000000000000000000167bffffffffffffffffffffffffffffffffffffffffffffffffffffffff191660003660405180806020018281038252848482818152602001925080828437600083820152604051601f9091017fffffffffffffffffffffffffffffffffffffffffffffffffffffffffffffffe0169092018290039550909350505050a260065473ffffffffffffffffffffffffffffffffffffffff16331461677a57604080517f08c379a000000000000000000000000000000000000000000000000000000000815260206004820152601260248201527f4552525f4e4f545f434f4e54524f4c4c45520000000000000000000000000000604482015290519081900360640190fd5b73ffffffffffffffffffffffffffffffffffffffff83166000908152600a602052604090205460ff161561680f57604080517f08c379a000000000000000000000000000000000000000000000000000000000815260206004820152600c60248201527f4552525f49535f424f554e440000000000000000000000000000000000000000604482015290519081900360640190fd5b60085460ff161561688157604080517f08c379a000000000000000000000000000000000000000000000000000000000815260206004820152601060248201527f4552525f49535f46494e414c495a454400000000000000000000000000000000604482015290519081900360640190fd5b6009546008116168f257604080517f08c379a000000000000000000000000000000000000000000000000000000000815260206004820152600e60248201527f4552525f4d41585f544f4b454e53000000000000000000000000000000000000604482015290519081900360640190fd5b60408051608081018252600180825260098054602080850191825260008587018181526060870182815273ffffffffffffffffffffffffffffffffffffffff8c16808452600a909452978220965187547fffffffffffffffffffffffffffffffffffffffffffffffffffffffffffffff0016901515178755925186860155915160028601559451600390940193909355805491820181559091527f6e1540171b6c0c960b71a7020d9f60077f6af931a8bbf590da0223dacf75c7af0180547fffffffffffffffffffffffff00000000000000000000000000000000000000001690911790556169e2838383611efd565b505050565b6002670de0b6b3a76400006118bc565b600554600090610100900460ff1615616a7157604080517f08c379a000000000000000000000000000000000000000000000000000000000815260206004820152600b60248201527f4552525f5245454e545259000000000000000000000000000000000000000000604482015290519081900360640190fd5b73ffffffffffffffffffffffffffffffffffffffff82166000908152600a602052604090205460ff16616b0557604080517f08c379a000000000000000000000000000000000000000000000000000000000815260206004820152600d60248201527f4552525f4e4f545f424f554e4400000000000000000000000000000000000000604482015290519081900360640190fd5b73ffffffffffffffffffffffffffffffffffffffff82166000908152600a6020526040902060020154600b54616b3c90829061725a565b9392505050565b600554600090610100900460ff1615616bbd57604080517f08c379a000000000000000000000000000000000000000000000000000000000815260206004820152600b60248201527f4552525f5245454e545259000000000000000000000000000000000000000000604482015290519081900360640190fd5b73ffffffffffffffffffffffffffffffffffffffff82166000908152600a602052604090205460ff16616c5157604080517f08c379a000000000000000000000000000000000000000000000000000000000815260206004820152600d60248201527f4552525f4e4f545f424f554e4400000000000000000000000000000000000000604482015290519081900360640190fd5b5073ffffffffffffffffffffffffffffffffffffffff166000908152600a602052604090206003015490565b600080616c8a858861725a565b90506000616c988786616e38565b90506000616ca6888361725a565b90506000616cb482856173db565b9050616cc881670de0b6b3a7640000616e38565b9050616cdc670de0b6b3a764000087616e38565b9450616cf1616ceb8c83616d21565b8661725a565b9b9a5050505050505050505050565b60065474010000000000000000000000000000000000000000900460ff1690565b6000828202831580616d3b575082848281616d3857fe5b04145b616da657604080517f08c379a000000000000000000000000000000000000000000000000000000000815260206004820152601060248201527f4552525f4d554c5f4f564552464c4f5700000000000000000000000000000000604482015290519081900360640190fd5b6706f05b59d3b20000810181811015616e2057604080517f08c379a000000000000000000000000000000000000000000000000000000000815260206004820152601060248201527f4552525f4d554c5f4f564552464c4f5700000000000000000000000000000000604482015290519081900360640190fd5b6000670de0b6b3a7640000825b049695505050505050565b6000806000616e47858561752c565b915091508015616eb857604080517f08c379a000000000000000000000000000000000000000000000000000000000815260206004820152601160248201527f4552525f5355425f554e444552464c4f57000000000000000000000000000000604482015290519081900360640190fd5b509392505050565b616eca8282617551565b5050565b616ed78161755c565b50565b616eca828261764f565b60008373ffffffffffffffffffffffffffffffffffffffff1663a9059cbb84846040518363ffffffff1660e01b8152600401808373ffffffffffffffffffffffffffffffffffffffff16815260200182815260200192505050602060405180830381600087803b158015616f5757600080fd5b505af1158015616f6b573d6000803e3d6000fd5b505050506040513d6020811015616f8157600080fd5b5051905080616ff157604080517f08c379a000000000000000000000000000000000000000000000000000000000815260206004820152600f60248201527f4552525f45524332305f46414c53450000000000000000000000000000000000604482015290519081900360640190fd5b50505050565b73ffffffffffffffffffffffffffffffffffffffff831660009081526020819052604090205481111561708b57604080517f08c379a000000000000000000000000000000000000000000000000000000000815260206004820152601460248201527f4552525f494e53554646494349454e545f42414c000000000000000000000000604482015290519081900360640190fd5b73ffffffffffffffffffffffffffffffffffffffff83166000908152602081905260409020546170bb9082616e38565b73ffffffffffffffffffffffffffffffffffffffff80851660009081526020819052604080822093909355908416815220546170f7908261715e565b73ffffffffffffffffffffffffffffffffffffffff8084166000818152602081815260409182902094909455805185815290519193928716927fddf252ad1be2c89b69c2b068fc378daa952ba7f163c4a11628f55a4df523b3ef92918290030190a3505050565b600082820183811015616b3c57604080517f08c379a000000000000000000000000000000000000000000000000000000000815260206004820152601060248201527f4552525f4144445f4f564552464c4f5700000000000000000000000000000000604482015290519081900360640190fd5b604080517f23b872dd00000000000000000000000000000000000000000000000000000000815273ffffffffffffffffffffffffffffffffffffffff84811660048301523060248301526044820184905291516000928616916323b872dd91606480830192602092919082900301818787803b158015616f5757600080fd5b616ed78161765a565b6000816172c857604080517f08c379a000000000000000000000000000000000000000000000000000000000815260206004820152600c60248201527f4552525f4449565f5a45524f0000000000000000000000000000000000000000604482015290519081900360640190fd5b670de0b6b3a764000083028315806172f05750670de0b6b3a76400008482816172ed57fe5b04145b61735b57604080517f08c379a000000000000000000000000000000000000000000000000000000000815260206004820152601060248201527f4552525f4449565f494e5445524e414c00000000000000000000000000000000604482015290519081900360640190fd5b600283048101818110156173d057604080517f08c379a000000000000000000000000000000000000000000000000000000000815260206004820152601060248201527f4552525f4449565f494e5445524e414c00000000000000000000000000000000604482015290519081900360640190fd5b6000848281616e2d57fe5b6000600183101561744d57604080517f08c379a000000000000000000000000000000000000000000000000000000000815260206004820152601560248201527f4552525f42504f575f424153455f544f4f5f4c4f570000000000000000000000604482015290519081900360640190fd5b671bc16d674ec7ffff8311156174c457604080517f08c379a000000000000000000000000000000000000000000000000000000000815260206004820152601660248201527f4552525f42504f575f424153455f544f4f5f4849474800000000000000000000604482015290519081900360640190fd5b60006174cf836176cf565b905060006174dd8483616e38565b905060006174f3866174ee856176ea565b6176f8565b9050816175045792506114a4915050565b600061751587846305f5e10061774f565b90506175218282616d21565b979650505050505050565b600080828410617542575050808203600061754a565b505081810360015b9250929050565b616eca823083616ff7565b306000908152602081905260409020548111156175da57604080517f08c379a000000000000000000000000000000000000000000000000000000000815260206004820152601460248201527f4552525f494e53554646494349454e545f42414c000000000000000000000000604482015290519081900360640190fd5b306000908152602081905260409020546175f49082616e38565b306000908152602081905260409020556002546176119082616e38565b60025560408051828152905160009130917fddf252ad1be2c89b69c2b068fc378daa952ba7f163c4a11628f55a4df523b3ef9181900360200190a350565b616eca308383616ff7565b30600090815260208190526040902054617674908261715e565b30600090815260208190526040902055600254617691908261715e565b60025560408051828152905130916000917fddf252ad1be2c89b69c2b068fc378daa952ba7f163c4a11628f55a4df523b3ef9181900360200190a350565b6000670de0b6b3a76400006176e3836176ea565b0292915050565b670de0b6b3a7640000900490565b6000806002830661771157670de0b6b3a7640000617713565b835b90506002830492505b8215616b3c5761772c8485616d21565b93506002830615617744576177418185616d21565b90505b60028304925061771c565b600082818061776687670de0b6b3a764000061752c565b9092509050670de0b6b3a764000080600060015b88841061781e576000670de0b6b3a7640000820290506000806177ae8a6177a985670de0b6b3a7640000616e38565b61752c565b915091506177c087614e91848c616d21565b96506177cc878461725a565b9650866177db5750505061781e565b87156177e5579315935b80156177ef579315935b8415617806576177ff8688616e38565b9550617813565b617810868861715e565b95505b50505060010161777a565b5090999850505050505050505056fea264697066735822122082db0942ddd968fbab9138a0b4b59933a14b8db4e2fdd74fe706fbf13da028e264736f6c634300060c0033",
  "linkReferences": {},
  "deployedLinkReferences": {}
}