{
  "_format": "hh-sol-artifact-1",
  "contractName": "TVKPrestige",
  "sourceName": "contracts/TVKPrestige.sol",
  "abi": [
    {
      "inputs": [],
      "stateMutability": "nonpayable",
      "type": "constructor"
    },
    {
      "anonymous": false,
      "inputs": [
        {
          "indexed": false,
          "internalType": "address",
          "name": "_address",
          "type": "address"
        },
        {
          "indexed": false,
          "internalType": "enum IPrestige.Status",
          "name": "_old",
          "type": "uint8"
        },
        {
          "indexed": false,
          "internalType": "enum IPrestige.Status",
          "name": "_new",
          "type": "uint8"
        }
      ],
      "name": "StatusChange",
      "type": "event"
    },
    {
      "inputs": [],
      "name": "common",
      "outputs": [
        {
          "internalType": "uint256",
          "name": "",
          "type": "uint256"
        }
      ],
      "stateMutability": "view",
      "type": "function"
    },
    {
      "inputs": [],
      "name": "legendary",
      "outputs": [
        {
          "internalType": "uint256",
          "name": "",
          "type": "uint256"
        }
      ],
      "stateMutability": "view",
      "type": "function"
    },
    {
      "inputs": [],
      "name": "levels",
      "outputs": [
        {
          "internalType": "uint256[6]",
          "name": "",
          "type": "uint256[6]"
        }
      ],
      "stateMutability": "pure",
      "type": "function"
    },
    {
      "inputs": [],
      "name": "platinum",
      "outputs": [
        {
          "internalType": "uint256",
          "name": "",
          "type": "uint256"
        }
      ],
      "stateMutability": "view",
      "type": "function"
    },
    {
      "inputs": [],
      "name": "rare",
      "outputs": [
        {
          "internalType": "uint256",
          "name": "",
          "type": "uint256"
        }
      ],
      "stateMutability": "view",
      "type": "function"
    },
    {
      "inputs": [
        {
          "internalType": "address",
          "name": "_account",
          "type": "address"
        },
        {
          "internalType": "enum IPrestige.Status",
          "name": "_status",
          "type": "uint8"
        }
      ],
      "name": "set_status",
      "outputs": [],
      "stateMutability": "nonpayable",
      "type": "function"
    },
    {
      "inputs": [],
      "name": "special",
      "outputs": [
        {
          "internalType": "uint256",
          "name": "",
          "type": "uint256"
        }
      ],
      "stateMutability": "view",
      "type": "function"
    },
    {
      "inputs": [
        {
          "internalType": "address",
          "name": "_account",
          "type": "address"
        }
      ],
      "name": "status",
      "outputs": [
        {
          "internalType": "enum IPrestige.Status",
          "name": "",
          "type": "uint8"
        }
      ],
      "stateMutability": "view",
      "type": "function"
    },
    {
      "inputs": [],
      "name": "tvk",
      "outputs": [
        {
          "internalType": "contract IERC20",
          "name": "",
          "type": "address"
        }
      ],
      "stateMutability": "view",
      "type": "function"
    },
    {
      "inputs": [],
      "name": "uncommon",
      "outputs": [
        {
          "internalType": "uint256",
          "name": "",
          "type": "uint256"
        }
      ],
      "stateMutability": "view",
      "type": "function"
    }
  ],
  "bytecode": "0x608060405234801561001057600080fd5b50610a9e806100206000396000f3fe608060405234801561001057600080fd5b506004361061009e5760003560e01c8063a02eccaf11610066578063a02eccaf146101a6578063b786e5ca146101f7578063c937b0a91461022b578063ce9a3b0f14610249578063f739c261146102675761009e565b806344c4de41146100a35780634ecf518b146100c1578063645b8b1b146101075780636bb7b7a41461016a578063942d5f5614610188575b600080fd5b6100ab610285565b6040518082815260200191505060405180910390f35b6100c961028a565b6040518082600660200280838360005b838110156100f45780820151818401526020810190506100d9565b5050505090500191505060405180910390f35b6101496004803603602081101561011d57600080fd5b81019080803573ffffffffffffffffffffffffffffffffffffffff169060200190929190505050610305565b6040518082600581111561015957fe5b815260200191505060405180910390f35b610172610473565b6040518082815260200191505060405180910390f35b610190610481565b6040518082815260200191505060405180910390f35b6101f5600480360360408110156101bc57600080fd5b81019080803573ffffffffffffffffffffffffffffffffffffffff169060200190929190803560ff16906020019092919050505061048d565b005b6101ff610971565b604051808273ffffffffffffffffffffffffffffffffffffffff16815260200191505060405180910390f35b610233610989565b6040518082815260200191505060405180910390f35b61025161099f565b6040518082815260200191505060405180910390f35b61026f6109b0565b6040518082815260200191505060405180910390f35b600081565b610292610a46565b6040518060c0016040528060008152602001670de0b6b3a76400008152602001693782dace9d900000000081526020016c3025f39ef241c56cd2e7c4000081526020016ec097ce7bc90715b34b9f100000000081526020017103025f39ef241c56cd2e7c40000000000000815250905090565b60008073d084b83c305dafd76ae3e1b4e1f1fe2ecccb398873ffffffffffffffffffffffffffffffffffffffff166370a08231846040518263ffffffff1660e01b8152600401808273ffffffffffffffffffffffffffffffffffffffff16815260200191505060206040518083038186803b15801561038357600080fd5b505afa158015610397573d6000803e3d6000fd5b505050506040513d60208110156103ad57600080fd5b810190808051906020019092919050505090506103c8610a46565b6103d061028a565b905060005b60068160ff1610156104595782828260ff16600681106103f157fe5b60200201511115610418576001810360ff16600581111561040e57fe5b935050505061046e565b82828260ff166006811061042857fe5b6020020151141561044c578060ff16600581111561044257fe5b935050505061046e565b80806001019150506103d5565b8060ff16600581111561046857fe5b93505050505b919050565b693782dace9d900000000081565b670de0b6b3a764000081565b7fa910b436cadde7fdecf75fab5051f15a3029de055c54c1e819d66613a95c53f6823073ffffffffffffffffffffffffffffffffffffffff1663645b8b1b856040518263ffffffff1660e01b8152600401808273ffffffffffffffffffffffffffffffffffffffff16815260200191505060206040518083038186803b15801561051657600080fd5b505afa15801561052a573d6000803e3d6000fd5b505050506040513d602081101561054057600080fd5b810190808051906020019092919050505083604051808473ffffffffffffffffffffffffffffffffffffffff16815260200183600581111561057e57fe5b815260200182600581111561058f57fe5b8152602001935050505060405180910390a1600073d084b83c305dafd76ae3e1b4e1f1fe2ecccb398873ffffffffffffffffffffffffffffffffffffffff166370a08231846040518263ffffffff1660e01b8152600401808273ffffffffffffffffffffffffffffffffffffffff16815260200191505060206040518083038186803b15801561061e57600080fd5b505afa158015610632573d6000803e3d6000fd5b505050506040513d602081101561064857600080fd5b81019080805190602001909291905050509050600061066561028a565b83600581111561067157fe5b6006811061067b57fe5b602002015190508181106107765773d084b83c305dafd76ae3e1b4e1f1fe2ecccb398873ffffffffffffffffffffffffffffffffffffffff166323b872dd85306106c585876109c3565b6040518463ffffffff1660e01b8152600401808473ffffffffffffffffffffffffffffffffffffffff1681526020018373ffffffffffffffffffffffffffffffffffffffff1681526020018281526020019350505050602060405180830381600087803b15801561073557600080fd5b505af1158015610749573d6000803e3d6000fd5b505050506040513d602081101561075f57600080fd5b810190808051906020019092919050505050610841565b73d084b83c305dafd76ae3e1b4e1f1fe2ecccb398873ffffffffffffffffffffffffffffffffffffffff1663a9059cbb856107b185856109c3565b6040518363ffffffff1660e01b8152600401808373ffffffffffffffffffffffffffffffffffffffff16815260200182815260200192505050602060405180830381600087803b15801561080457600080fd5b505af1158015610818573d6000803e3d6000fd5b505050506040513d602081101561082e57600080fd5b8101908080519060200190929190505050505b8073d084b83c305dafd76ae3e1b4e1f1fe2ecccb398873ffffffffffffffffffffffffffffffffffffffff166370a08231866040518263ffffffff1660e01b8152600401808273ffffffffffffffffffffffffffffffffffffffff16815260200191505060206040518083038186803b1580156108bd57600080fd5b505afa1580156108d1573d6000803e3d6000fd5b505050506040513d60208110156108e757600080fd5b81019080805190602001909291905050501461096b576040517f08c379a000000000000000000000000000000000000000000000000000000000815260040180806020018281038252600f8152602001807f4552525f5354415455535f46554e44000000000000000000000000000000000081525060200191505060405180910390fd5b50505050565b73d084b83c305dafd76ae3e1b4e1f1fe2ecccb398881565b7103025f39ef241c56cd2e7c4000000000000081565b6c3025f39ef241c56cd2e7c4000081565b6ec097ce7bc90715b34b9f100000000081565b600082821115610a3b576040517f08c379a000000000000000000000000000000000000000000000000000000000815260040180806020018281038252601e8152602001807f536166654d6174683a207375627472616374696f6e206f766572666c6f77000081525060200191505060405180910390fd5b818303905092915050565b6040518060c0016040528060069060208202803683378082019150509050509056fea264697066735822122053434da3c5a2ec01c1d23db69e37444f4568f1e881c0dfdf4ec76cce3635adbd64736f6c63430007030033",
  "linkReferences": {},
  "deployedLinkReferences": {}
}