{
  "@beehiveinnovation/balancer-core/contracts/BConst.sol": {
    "BConst": {
      "abi": [
        {
          "constant": true,
          "inputs": [],
          "name": "BONE",
          "outputs": [
            {
              "internalType": "uint256",
              "name": "",
              "type": "uint256"
            }
          ],
          "payable": false,
          "stateMutability": "view",
          "type": "function"
        },
        {
          "constant": true,
          "inputs": [],
          "name": "BPOW_PRECISION",
          "outputs": [
            {
              "internalType": "uint256",
              "name": "",
              "type": "uint256"
            }
          ],
          "payable": false,
          "stateMutability": "view",
          "type": "function"
        },
        {
          "constant": true,
          "inputs": [],
          "name": "EXIT_FEE",
          "outputs": [
            {
              "internalType": "uint256",
              "name": "",
              "type": "uint256"
            }
          ],
          "payable": false,
          "stateMutability": "view",
          "type": "function"
        },
        {
          "constant": true,
          "inputs": [],
          "name": "INIT_POOL_SUPPLY",
          "outputs": [
            {
              "internalType": "uint256",
              "name": "",
              "type": "uint256"
            }
          ],
          "payable": false,
          "stateMutability": "view",
          "type": "function"
        },
        {
          "constant": true,
          "inputs": [],
          "name": "MAX_BOUND_TOKENS",
          "outputs": [
            {
              "internalType": "uint256",
              "name": "",
              "type": "uint256"
            }
          ],
          "payable": false,
          "stateMutability": "view",
          "type": "function"
        },
        {
          "constant": true,
          "inputs": [],
          "name": "MAX_BPOW_BASE",
          "outputs": [
            {
              "internalType": "uint256",
              "name": "",
              "type": "uint256"
            }
          ],
          "payable": false,
          "stateMutability": "view",
          "type": "function"
        },
        {
          "constant": true,
          "inputs": [],
          "name": "MAX_FEE",
          "outputs": [
            {
              "internalType": "uint256",
              "name": "",
              "type": "uint256"
            }
          ],
          "payable": false,
          "stateMutability": "view",
          "type": "function"
        },
        {
          "constant": true,
          "inputs": [],
          "name": "MAX_IN_RATIO",
          "outputs": [
            {
              "internalType": "uint256",
              "name": "",
              "type": "uint256"
            }
          ],
          "payable": false,
          "stateMutability": "view",
          "type": "function"
        },
        {
          "constant": true,
          "inputs": [],
          "name": "MAX_OUT_RATIO",
          "outputs": [
            {
              "internalType": "uint256",
              "name": "",
              "type": "uint256"
            }
          ],
          "payable": false,
          "stateMutability": "view",
          "type": "function"
        },
        {
          "constant": true,
          "inputs": [],
          "name": "MAX_TOTAL_WEIGHT",
          "outputs": [
            {
              "internalType": "uint256",
              "name": "",
              "type": "uint256"
            }
          ],
          "payable": false,
          "stateMutability": "view",
          "type": "function"
        },
        {
          "constant": true,
          "inputs": [],
          "name": "MAX_WEIGHT",
          "outputs": [
            {
              "internalType": "uint256",
              "name": "",
              "type": "uint256"
            }
          ],
          "payable": false,
          "stateMutability": "view",
          "type": "function"
        },
        {
          "constant": true,
          "inputs": [],
          "name": "MIN_BALANCE",
          "outputs": [
            {
              "internalType": "uint256",
              "name": "",
              "type": "uint256"
            }
          ],
          "payable": false,
          "stateMutability": "view",
          "type": "function"
        },
        {
          "constant": true,
          "inputs": [],
          "name": "MIN_BOUND_TOKENS",
          "outputs": [
            {
              "internalType": "uint256",
              "name": "",
              "type": "uint256"
            }
          ],
          "payable": false,
          "stateMutability": "view",
          "type": "function"
        },
        {
          "constant": true,
          "inputs": [],
          "name": "MIN_BPOW_BASE",
          "outputs": [
            {
              "internalType": "uint256",
              "name": "",
              "type": "uint256"
            }
          ],
          "payable": false,
          "stateMutability": "view",
          "type": "function"
        },
        {
          "constant": true,
          "inputs": [],
          "name": "MIN_FEE",
          "outputs": [
            {
              "internalType": "uint256",
              "name": "",
              "type": "uint256"
            }
          ],
          "payable": false,
          "stateMutability": "view",
          "type": "function"
        },
        {
          "constant": true,
          "inputs": [],
          "name": "MIN_WEIGHT",
          "outputs": [
            {
              "internalType": "uint256",
              "name": "",
              "type": "uint256"
            }
          ],
          "payable": false,
          "stateMutability": "view",
          "type": "function"
        },
        {
          "constant": true,
          "inputs": [],
          "name": "getColor",
          "outputs": [
            {
              "internalType": "bytes32",
              "name": "",
              "type": "bytes32"
            }
          ],
          "payable": false,
          "stateMutability": "view",
          "type": "function"
        }
      ],
      "evm": {
        "bytecode": {
          "linkReferences": {},
          "object": "608060405234801561001057600080fd5b5061029c806100206000396000f3fe608060405234801561001057600080fd5b5060043610610108576000357c010000000000000000000000000000000000000000000000000000000090048063b0e0d136116100af578063b0e0d1361461015f578063b7b800a414610167578063ba019dab1461016f578063bc063e1a14610177578063bc694ea21461017f578063c36596a61461012f578063c6580d1214610187578063e4a28a521461010d578063ec0930211461018f57610108565b806309a3bbe41461010d578063189d00ca14610127578063218b53821461012f57806376c7a3c714610137578063867378c51461013f5780639381cd2b14610147578063992e2a921461014f5780639a86139b14610157575b600080fd5b610115610197565b60408051918252519081900360200190f35b6101156101a4565b6101156101b8565b6101156101c4565b6101156101d6565b6101156101ea565b6101156101f7565b610115610203565b610115610227565b61011561022c565b610115610231565b610115610236565b610115610246565b610115610252565b610115610257565b6802b5e3af16b188000081565b6402540be400670de0b6b3a76400005b0481565b670de0b6b3a764000081565b620f4240670de0b6b3a76400006101b4565b64e8d4a51000670de0b6b3a76400006101b4565b68056bc75e2d6310000081565b6704a03ce68d21555681565b7f42524f4e5a45000000000000000000000000000000000000000000000000000090565b600881565b600281565b600181565b600a670de0b6b3a76400006101b4565b671bc16d674ec7ffff81565b600081565b6002670de0b6b3a76400006101b456fea265627a7a723158208e1edb1fd771245f6634566b411e4c5031e01c7660ea056767654579a082a4f064736f6c634300050c0032",
          "opcodes": "PUSH1 0x80 PUSH1 0x40 MSTORE CALLVALUE DUP1 ISZERO PUSH2 0x10 JUMPI PUSH1 0x0 DUP1 REVERT JUMPDEST POP PUSH2 0x29C DUP1 PUSH2 0x20 PUSH1 0x0 CODECOPY PUSH1 0x0 RETURN INVALID PUSH1 0x80 PUSH1 0x40 MSTORE CALLVALUE DUP1 ISZERO PUSH2 0x10 JUMPI PUSH1 0x0 DUP1 REVERT JUMPDEST POP PUSH1 0x4 CALLDATASIZE LT PUSH2 0x108 JUMPI PUSH1 0x0 CALLDATALOAD PUSH29 0x100000000000000000000000000000000000000000000000000000000 SWAP1 DIV DUP1 PUSH4 0xB0E0D136 GT PUSH2 0xAF JUMPI DUP1 PUSH4 0xB0E0D136 EQ PUSH2 0x15F JUMPI DUP1 PUSH4 0xB7B800A4 EQ PUSH2 0x167 JUMPI DUP1 PUSH4 0xBA019DAB EQ PUSH2 0x16F JUMPI DUP1 PUSH4 0xBC063E1A EQ PUSH2 0x177 JUMPI DUP1 PUSH4 0xBC694EA2 EQ PUSH2 0x17F JUMPI DUP1 PUSH4 0xC36596A6 EQ PUSH2 0x12F JUMPI DUP1 PUSH4 0xC6580D12 EQ PUSH2 0x187 JUMPI DUP1 PUSH4 0xE4A28A52 EQ PUSH2 0x10D JUMPI DUP1 PUSH4 0xEC093021 EQ PUSH2 0x18F JUMPI PUSH2 0x108 JUMP JUMPDEST DUP1 PUSH4 0x9A3BBE4 EQ PUSH2 0x10D JUMPI DUP1 PUSH4 0x189D00CA EQ PUSH2 0x127 JUMPI DUP1 PUSH4 0x218B5382 EQ PUSH2 0x12F JUMPI DUP1 PUSH4 0x76C7A3C7 EQ PUSH2 0x137 JUMPI DUP1 PUSH4 0x867378C5 EQ PUSH2 0x13F JUMPI DUP1 PUSH4 0x9381CD2B EQ PUSH2 0x147 JUMPI DUP1 PUSH4 0x992E2A92 EQ PUSH2 0x14F JUMPI DUP1 PUSH4 0x9A86139B EQ PUSH2 0x157 JUMPI JUMPDEST PUSH1 0x0 DUP1 REVERT JUMPDEST PUSH2 0x115 PUSH2 0x197 JUMP JUMPDEST PUSH1 0x40 DUP1 MLOAD SWAP2 DUP3 MSTORE MLOAD SWAP1 DUP2 SWAP1 SUB PUSH1 0x20 ADD SWAP1 RETURN JUMPDEST PUSH2 0x115 PUSH2 0x1A4 JUMP JUMPDEST PUSH2 0x115 PUSH2 0x1B8 JUMP JUMPDEST PUSH2 0x115 PUSH2 0x1C4 JUMP JUMPDEST PUSH2 0x115 PUSH2 0x1D6 JUMP JUMPDEST PUSH2 0x115 PUSH2 0x1EA JUMP JUMPDEST PUSH2 0x115 PUSH2 0x1F7 JUMP JUMPDEST PUSH2 0x115 PUSH2 0x203 JUMP JUMPDEST PUSH2 0x115 PUSH2 0x227 JUMP JUMPDEST PUSH2 0x115 PUSH2 0x22C JUMP JUMPDEST PUSH2 0x115 PUSH2 0x231 JUMP JUMPDEST PUSH2 0x115 PUSH2 0x236 JUMP JUMPDEST PUSH2 0x115 PUSH2 0x246 JUMP JUMPDEST PUSH2 0x115 PUSH2 0x252 JUMP JUMPDEST PUSH2 0x115 PUSH2 0x257 JUMP JUMPDEST PUSH9 0x2B5E3AF16B1880000 DUP2 JUMP JUMPDEST PUSH5 0x2540BE400 PUSH8 0xDE0B6B3A7640000 JUMPDEST DIV DUP2 JUMP JUMPDEST PUSH8 0xDE0B6B3A7640000 DUP2 JUMP JUMPDEST PUSH3 0xF4240 PUSH8 0xDE0B6B3A7640000 PUSH2 0x1B4 JUMP JUMPDEST PUSH5 0xE8D4A51000 PUSH8 0xDE0B6B3A7640000 PUSH2 0x1B4 JUMP JUMPDEST PUSH9 0x56BC75E2D63100000 DUP2 JUMP JUMPDEST PUSH8 0x4A03CE68D215556 DUP2 JUMP JUMPDEST PUSH32 0x42524F4E5A450000000000000000000000000000000000000000000000000000 SWAP1 JUMP JUMPDEST PUSH1 0x8 DUP2 JUMP JUMPDEST PUSH1 0x2 DUP2 JUMP JUMPDEST PUSH1 0x1 DUP2 JUMP JUMPDEST PUSH1 0xA PUSH8 0xDE0B6B3A7640000 PUSH2 0x1B4 JUMP JUMPDEST PUSH8 0x1BC16D674EC7FFFF DUP2 JUMP JUMPDEST PUSH1 0x0 DUP2 JUMP JUMPDEST PUSH1 0x2 PUSH8 0xDE0B6B3A7640000 PUSH2 0x1B4 JUMP INVALID LOG2 PUSH6 0x627A7A723158 KECCAK256 DUP15 0x1e 0xdb 0x1f 0xd7 PUSH18 0x245F6634566B411E4C5031E01C7660EA0567 PUSH8 0x654579A082A4F064 PUSH20 0x6F6C634300050C00320000000000000000000000 "
        },
        "methodIdentifiers": {
          "BONE()": "c36596a6",
          "BPOW_PRECISION()": "189d00ca",
          "EXIT_FEE()": "c6580d12",
          "INIT_POOL_SUPPLY()": "9381cd2b",
          "MAX_BOUND_TOKENS()": "b0e0d136",
          "MAX_BPOW_BASE()": "bc694ea2",
          "MAX_FEE()": "bc063e1a",
          "MAX_IN_RATIO()": "ec093021",
          "MAX_OUT_RATIO()": "992e2a92",
          "MAX_TOTAL_WEIGHT()": "09a3bbe4",
          "MAX_WEIGHT()": "e4a28a52",
          "MIN_BALANCE()": "867378c5",
          "MIN_BOUND_TOKENS()": "b7b800a4",
          "MIN_BPOW_BASE()": "ba019dab",
          "MIN_FEE()": "76c7a3c7",
          "MIN_WEIGHT()": "218b5382",
          "getColor()": "9a86139b"
        }
      }
    }
  }
}