{
  "@beehiveinnovation/balancer-core/contracts/BMath.sol": {
    "BMath": {
      "abi": [
        {
          "constant": true,
          "inputs": [],
          "name": "BONE",
          "outputs": [
            {
              "internalType": "uint256",
              "name": "",
              "type": "uint256"
            }
          ],
          "payable": false,
          "stateMutability": "view",
          "type": "function"
        },
        {
          "constant": true,
          "inputs": [],
          "name": "BPOW_PRECISION",
          "outputs": [
            {
              "internalType": "uint256",
              "name": "",
              "type": "uint256"
            }
          ],
          "payable": false,
          "stateMutability": "view",
          "type": "function"
        },
        {
          "constant": true,
          "inputs": [],
          "name": "EXIT_FEE",
          "outputs": [
            {
              "internalType": "uint256",
              "name": "",
              "type": "uint256"
            }
          ],
          "payable": false,
          "stateMutability": "view",
          "type": "function"
        },
        {
          "constant": true,
          "inputs": [],
          "name": "INIT_POOL_SUPPLY",
          "outputs": [
            {
              "internalType": "uint256",
              "name": "",
              "type": "uint256"
            }
          ],
          "payable": false,
          "stateMutability": "view",
          "type": "function"
        },
        {
          "constant": true,
          "inputs": [],
          "name": "MAX_BOUND_TOKENS",
          "outputs": [
            {
              "internalType": "uint256",
              "name": "",
              "type": "uint256"
            }
          ],
          "payable": false,
          "stateMutability": "view",
          "type": "function"
        },
        {
          "constant": true,
          "inputs": [],
          "name": "MAX_BPOW_BASE",
          "outputs": [
            {
              "internalType": "uint256",
              "name": "",
              "type": "uint256"
            }
          ],
          "payable": false,
          "stateMutability": "view",
          "type": "function"
        },
        {
          "constant": true,
          "inputs": [],
          "name": "MAX_FEE",
          "outputs": [
            {
              "internalType": "uint256",
              "name": "",
              "type": "uint256"
            }
          ],
          "payable": false,
          "stateMutability": "view",
          "type": "function"
        },
        {
          "constant": true,
          "inputs": [],
          "name": "MAX_IN_RATIO",
          "outputs": [
            {
              "internalType": "uint256",
              "name": "",
              "type": "uint256"
            }
          ],
          "payable": false,
          "stateMutability": "view",
          "type": "function"
        },
        {
          "constant": true,
          "inputs": [],
          "name": "MAX_OUT_RATIO",
          "outputs": [
            {
              "internalType": "uint256",
              "name": "",
              "type": "uint256"
            }
          ],
          "payable": false,
          "stateMutability": "view",
          "type": "function"
        },
        {
          "constant": true,
          "inputs": [],
          "name": "MAX_TOTAL_WEIGHT",
          "outputs": [
            {
              "internalType": "uint256",
              "name": "",
              "type": "uint256"
            }
          ],
          "payable": false,
          "stateMutability": "view",
          "type": "function"
        },
        {
          "constant": true,
          "inputs": [],
          "name": "MAX_WEIGHT",
          "outputs": [
            {
              "internalType": "uint256",
              "name": "",
              "type": "uint256"
            }
          ],
          "payable": false,
          "stateMutability": "view",
          "type": "function"
        },
        {
          "constant": true,
          "inputs": [],
          "name": "MIN_BALANCE",
          "outputs": [
            {
              "internalType": "uint256",
              "name": "",
              "type": "uint256"
            }
          ],
          "payable": false,
          "stateMutability": "view",
          "type": "function"
        },
        {
          "constant": true,
          "inputs": [],
          "name": "MIN_BOUND_TOKENS",
          "outputs": [
            {
              "internalType": "uint256",
              "name": "",
              "type": "uint256"
            }
          ],
          "payable": false,
          "stateMutability": "view",
          "type": "function"
        },
        {
          "constant": true,
          "inputs": [],
          "name": "MIN_BPOW_BASE",
          "outputs": [
            {
              "internalType": "uint256",
              "name": "",
              "type": "uint256"
            }
          ],
          "payable": false,
          "stateMutability": "view",
          "type": "function"
        },
        {
          "constant": true,
          "inputs": [],
          "name": "MIN_FEE",
          "outputs": [
            {
              "internalType": "uint256",
              "name": "",
              "type": "uint256"
            }
          ],
          "payable": false,
          "stateMutability": "view",
          "type": "function"
        },
        {
          "constant": true,
          "inputs": [],
          "name": "MIN_WEIGHT",
          "outputs": [
            {
              "internalType": "uint256",
              "name": "",
              "type": "uint256"
            }
          ],
          "payable": false,
          "stateMutability": "view",
          "type": "function"
        },
        {
          "constant": true,
          "inputs": [
            {
              "internalType": "uint256",
              "name": "tokenBalanceIn",
              "type": "uint256"
            },
            {
              "internalType": "uint256",
              "name": "tokenWeightIn",
              "type": "uint256"
            },
            {
              "internalType": "uint256",
              "name": "tokenBalanceOut",
              "type": "uint256"
            },
            {
              "internalType": "uint256",
              "name": "tokenWeightOut",
              "type": "uint256"
            },
            {
              "internalType": "uint256",
              "name": "tokenAmountOut",
              "type": "uint256"
            },
            {
              "internalType": "uint256",
              "name": "swapFee",
              "type": "uint256"
            }
          ],
          "name": "calcInGivenOut",
          "outputs": [
            {
              "internalType": "uint256",
              "name": "tokenAmountIn",
              "type": "uint256"
            }
          ],
          "payable": false,
          "stateMutability": "pure",
          "type": "function"
        },
        {
          "constant": true,
          "inputs": [
            {
              "internalType": "uint256",
              "name": "tokenBalanceIn",
              "type": "uint256"
            },
            {
              "internalType": "uint256",
              "name": "tokenWeightIn",
              "type": "uint256"
            },
            {
              "internalType": "uint256",
              "name": "tokenBalanceOut",
              "type": "uint256"
            },
            {
              "internalType": "uint256",
              "name": "tokenWeightOut",
              "type": "uint256"
            },
            {
              "internalType": "uint256",
              "name": "tokenAmountIn",
              "type": "uint256"
            },
            {
              "internalType": "uint256",
              "name": "swapFee",
              "type": "uint256"
            }
          ],
          "name": "calcOutGivenIn",
          "outputs": [
            {
              "internalType": "uint256",
              "name": "tokenAmountOut",
              "type": "uint256"
            }
          ],
          "payable": false,
          "stateMutability": "pure",
          "type": "function"
        },
        {
          "constant": true,
          "inputs": [
            {
              "internalType": "uint256",
              "name": "tokenBalanceOut",
              "type": "uint256"
            },
            {
              "internalType": "uint256",
              "name": "tokenWeightOut",
              "type": "uint256"
            },
            {
              "internalType": "uint256",
              "name": "poolSupply",
              "type": "uint256"
            },
            {
              "internalType": "uint256",
              "name": "totalWeight",
              "type": "uint256"
            },
            {
              "internalType": "uint256",
              "name": "tokenAmountOut",
              "type": "uint256"
            },
            {
              "internalType": "uint256",
              "name": "swapFee",
              "type": "uint256"
            }
          ],
          "name": "calcPoolInGivenSingleOut",
          "outputs": [
            {
              "internalType": "uint256",
              "name": "poolAmountIn",
              "type": "uint256"
            }
          ],
          "payable": false,
          "stateMutability": "pure",
          "type": "function"
        },
        {
          "constant": true,
          "inputs": [
            {
              "internalType": "uint256",
              "name": "tokenBalanceIn",
              "type": "uint256"
            },
            {
              "internalType": "uint256",
              "name": "tokenWeightIn",
              "type": "uint256"
            },
            {
              "internalType": "uint256",
              "name": "poolSupply",
              "type": "uint256"
            },
            {
              "internalType": "uint256",
              "name": "totalWeight",
              "type": "uint256"
            },
            {
              "internalType": "uint256",
              "name": "tokenAmountIn",
              "type": "uint256"
            },
            {
              "internalType": "uint256",
              "name": "swapFee",
              "type": "uint256"
            }
          ],
          "name": "calcPoolOutGivenSingleIn",
          "outputs": [
            {
              "internalType": "uint256",
              "name": "poolAmountOut",
              "type": "uint256"
            }
          ],
          "payable": false,
          "stateMutability": "pure",
          "type": "function"
        },
        {
          "constant": true,
          "inputs": [
            {
              "internalType": "uint256",
              "name": "tokenBalanceIn",
              "type": "uint256"
            },
            {
              "internalType": "uint256",
              "name": "tokenWeightIn",
              "type": "uint256"
            },
            {
              "internalType": "uint256",
              "name": "poolSupply",
              "type": "uint256"
            },
            {
              "internalType": "uint256",
              "name": "totalWeight",
              "type": "uint256"
            },
            {
              "internalType": "uint256",
              "name": "poolAmountOut",
              "type": "uint256"
            },
            {
              "internalType": "uint256",
              "name": "swapFee",
              "type": "uint256"
            }
          ],
          "name": "calcSingleInGivenPoolOut",
          "outputs": [
            {
              "internalType": "uint256",
              "name": "tokenAmountIn",
              "type": "uint256"
            }
          ],
          "payable": false,
          "stateMutability": "pure",
          "type": "function"
        },
        {
          "constant": true,
          "inputs": [
            {
              "internalType": "uint256",
              "name": "tokenBalanceOut",
              "type": "uint256"
            },
            {
              "internalType": "uint256",
              "name": "tokenWeightOut",
              "type": "uint256"
            },
            {
              "internalType": "uint256",
              "name": "poolSupply",
              "type": "uint256"
            },
            {
              "internalType": "uint256",
              "name": "totalWeight",
              "type": "uint256"
            },
            {
              "internalType": "uint256",
              "name": "poolAmountIn",
              "type": "uint256"
            },
            {
              "internalType": "uint256",
              "name": "swapFee",
              "type": "uint256"
            }
          ],
          "name": "calcSingleOutGivenPoolIn",
          "outputs": [
            {
              "internalType": "uint256",
              "name": "tokenAmountOut",
              "type": "uint256"
            }
          ],
          "payable": false,
          "stateMutability": "pure",
          "type": "function"
        },
        {
          "constant": true,
          "inputs": [
            {
              "internalType": "uint256",
              "name": "tokenBalanceIn",
              "type": "uint256"
            },
            {
              "internalType": "uint256",
              "name": "tokenWeightIn",
              "type": "uint256"
            },
            {
              "internalType": "uint256",
              "name": "tokenBalanceOut",
              "type": "uint256"
            },
            {
              "internalType": "uint256",
              "name": "tokenWeightOut",
              "type": "uint256"
            },
            {
              "internalType": "uint256",
              "name": "swapFee",
              "type": "uint256"
            }
          ],
          "name": "calcSpotPrice",
          "outputs": [
            {
              "internalType": "uint256",
              "name": "spotPrice",
              "type": "uint256"
            }
          ],
          "payable": false,
          "stateMutability": "pure",
          "type": "function"
        },
        {
          "constant": true,
          "inputs": [],
          "name": "getColor",
          "outputs": [
            {
              "internalType": "bytes32",
              "name": "",
              "type": "bytes32"
            }
          ],
          "payable": false,
          "stateMutability": "view",
          "type": "function"
        }
      ],
      "evm": {
        "bytecode": {
          "linkReferences": {},
          "object": "608060405234801561001057600080fd5b50610e77806100206000396000f3fe608060405234801561001057600080fd5b5060043610610175576000357c010000000000000000000000000000000000000000000000000000000090048063a221ee49116100e0578063bc694ea211610099578063bc694ea214610348578063c36596a61461019c578063c6580d1214610350578063e4a28a521461017a578063ec09302114610358578063f8d6aed41461036057610175565b8063a221ee49146102b8578063b0e0d136146102ed578063b7b800a4146102f5578063ba019dab146102fd578063ba9530a614610305578063bc063e1a1461034057610175565b80638656b653116101325780638656b65314610222578063867378c51461025d57806389298012146102655780639381cd2b146102a0578063992e2a92146102a85780639a86139b146102b057610175565b806309a3bbe41461017a578063189d00ca14610194578063218b53821461019c5780635c1bbaf7146101a457806376c7a3c7146101df57806382f652ad146101e7575b600080fd5b61018261039b565b60408051918252519081900360200190f35b6101826103a8565b6101826103bc565b610182600480360360c08110156101ba57600080fd5b5080359060208101359060408101359060608101359060808101359060a001356103c8565b610182610480565b610182600480360360c08110156101fd57600080fd5b5080359060208101359060408101359060608101359060808101359060a00135610492565b610182600480360360c081101561023857600080fd5b5080359060208101359060408101359060608101359060808101359060a00135610551565b6101826105f2565b610182600480360360c081101561027b57600080fd5b5080359060208101359060408101359060608101359060808101359060a00135610606565b6101826106b6565b6101826106c3565b6101826106cf565b610182600480360360a08110156102ce57600080fd5b50803590602081013590604081013590606081013590608001356106f3565b610182610758565b61018261075d565b610182610762565b610182600480360360c081101561031b57600080fd5b5080359060208101359060408101359060608101359060808101359060a00135610767565b6101826107e8565b6101826107f8565b610182610804565b610182610809565b610182600480360360c081101561037657600080fd5b5080359060208101359060408101359060608101359060808101359060a00135610819565b6802b5e3af16b188000081565b6402540be400670de0b6b3a76400005b0481565b670de0b6b3a764000081565b6000806103d5878661089c565b905060006103e387866109e5565b905060006103f1828961089c565b90506000610407670de0b6b3a76400008561089c565b905060006104158383610a49565b90506000610423828e610b6c565b90506000610431828f610c4e565b9050600061045061044a670de0b6b3a76400008a610c4e565b8b610b6c565b905061046d82610468670de0b6b3a764000084610c4e565b61089c565b9f9e505050505050505050505050505050565b620f4240670de0b6b3a76400006103b8565b60008061049f878661089c565b905060006104b5670de0b6b3a764000083610c4e565b905060006104c38286610b6c565b905060006104dd87610468670de0b6b3a764000085610c4e565b905060006104eb8c83610c4e565b905060006104f9828e61089c565b905060006105078288610a49565b90506000610515828e610b6c565b905060006105238e83610c4e565b905061053c81610468670de0b6b3a76400006000610c4e565b99505050505050505050509695505050505050565b60008061055e878661089c565b9050600061057d610577670de0b6b3a764000084610c4e565b85610b6c565b9050600061059c86610597670de0b6b3a764000085610c4e565b610b6c565b905060006105aa8b836109e5565b905060006105b8828d61089c565b905060006105c68287610a49565b905060006105d4828d610b6c565b90506105e0818d610c4e565b9e9d5050505050505050505050505050565b64e8d4a51000670de0b6b3a76400006103b8565b600080610613878661089c565b9050600061062e85610597670de0b6b3a76400006000610c4e565b9050600061063c8883610c4e565b9050600061064a828a61089c565b9050600061066982610664670de0b6b3a76400008861089c565b610a49565b90506000610677828e610b6c565b905060006106858e83610c4e565b9050600061069e61044a670de0b6b3a76400008a610c4e565b905061046d82610597670de0b6b3a764000084610c4e565b68056bc75e2d6310000081565b6704a03ce68d21555681565b7f42524f4e5a45000000000000000000000000000000000000000000000000000090565b600080610700878761089c565b9050600061070e868661089c565b9050600061071c838361089c565b9050600061073e670de0b6b3a7640000610468670de0b6b3a764000089610c4e565b905061074a8282610b6c565b9a9950505050505050505050565b600881565b600281565b600181565b600080610774878661089c565b9050600061078a670de0b6b3a764000085610c4e565b90506107968582610b6c565b905060006107a88a6104688c856109e5565b905060006107b68285610a49565b905060006107cc670de0b6b3a764000083610c4e565b90506107d88a82610b6c565b9c9b505050505050505050505050565b600a670de0b6b3a76400006103b8565b671bc16d674ec7ffff81565b600081565b6002670de0b6b3a76400006103b8565b600080610826858861089c565b905060006108348786610c4e565b90506000610842888361089c565b905060006108508285610a49565b905061086481670de0b6b3a7640000610c4e565b9050610878670de0b6b3a764000087610c4e565b945061088d6108878c83610b6c565b8661089c565b9b9a5050505050505050505050565b6000816108f3576040805160e560020a62461bcd02815260206004820152600c60248201527f4552525f4449565f5a45524f0000000000000000000000000000000000000000604482015290519081900360640190fd5b670de0b6b3a7640000830283158061091b5750670de0b6b3a764000084828161091857fe5b04145b61096f576040805160e560020a62461bcd02815260206004820152601060248201527f4552525f4449565f494e5445524e414c00000000000000000000000000000000604482015290519081900360640190fd5b600283048101818110156109cd576040805160e560020a62461bcd02815260206004820152601060248201527f4552525f4449565f494e5445524e414c00000000000000000000000000000000604482015290519081900360640190fd5b60008482816109d857fe5b0493505050505b92915050565b600082820183811015610a42576040805160e560020a62461bcd02815260206004820152601060248201527f4552525f4144445f4f564552464c4f5700000000000000000000000000000000604482015290519081900360640190fd5b9392505050565b60006001831015610aa4576040805160e560020a62461bcd02815260206004820152601560248201527f4552525f42504f575f424153455f544f4f5f4c4f570000000000000000000000604482015290519081900360640190fd5b671bc16d674ec7ffff831115610b04576040805160e560020a62461bcd02815260206004820152601660248201527f4552525f42504f575f424153455f544f4f5f4849474800000000000000000000604482015290519081900360640190fd5b6000610b0f83610cbf565b90506000610b1d8483610c4e565b90506000610b3386610b2e85610cda565b610ce8565b905081610b445792506109df915050565b6000610b5587846305f5e100610d3f565b9050610b618282610b6c565b979650505050505050565b6000828202831580610b86575082848281610b8357fe5b04145b610bda576040805160e560020a62461bcd02815260206004820152601060248201527f4552525f4d554c5f4f564552464c4f5700000000000000000000000000000000604482015290519081900360640190fd5b6706f05b59d3b20000810181811015610c3d576040805160e560020a62461bcd02815260206004820152601060248201527f4552525f4d554c5f4f564552464c4f5700000000000000000000000000000000604482015290519081900360640190fd5b6000670de0b6b3a7640000826109d8565b6000806000610c5d8585610e1d565b915091508015610cb7576040805160e560020a62461bcd02815260206004820152601160248201527f4552525f5355425f554e444552464c4f57000000000000000000000000000000604482015290519081900360640190fd5b509392505050565b6000670de0b6b3a7640000610cd383610cda565b0292915050565b670de0b6b3a7640000900490565b60008060028306610d0157670de0b6b3a7640000610d03565b835b90506002830492505b8215610a4257610d1c8485610b6c565b93506002830615610d3457610d318185610b6c565b90505b600283049250610d0c565b6000828180610d5687670de0b6b3a7640000610e1d565b9092509050670de0b6b3a764000080600060015b888410610e0e576000670de0b6b3a764000082029050600080610d9e8a610d9985670de0b6b3a7640000610c4e565b610e1d565b91509150610db087610597848c610b6c565b9650610dbc878461089c565b965086610dcb57505050610e0e565b8715610dd5579315935b8015610ddf579315935b8415610df657610def8688610c4e565b9550610e03565b610e0086886109e5565b95505b505050600101610d6a565b50909998505050505050505050565b600080828410610e335750508082036000610e3b565b505081810360015b925092905056fea265627a7a72315820b84be0e1b2328c384a2421b9926a285c61c3bde270ed7b0d5998eef0bfd3588564736f6c634300050c0032",
          "opcodes": "PUSH1 0x80 PUSH1 0x40 MSTORE CALLVALUE DUP1 ISZERO PUSH2 0x10 JUMPI PUSH1 0x0 DUP1 REVERT JUMPDEST POP PUSH2 0xE77 DUP1 PUSH2 0x20 PUSH1 0x0 CODECOPY PUSH1 0x0 RETURN INVALID PUSH1 0x80 PUSH1 0x40 MSTORE CALLVALUE DUP1 ISZERO PUSH2 0x10 JUMPI PUSH1 0x0 DUP1 REVERT JUMPDEST POP PUSH1 0x4 CALLDATASIZE LT PUSH2 0x175 JUMPI PUSH1 0x0 CALLDATALOAD PUSH29 0x100000000000000000000000000000000000000000000000000000000 SWAP1 DIV DUP1 PUSH4 0xA221EE49 GT PUSH2 0xE0 JUMPI DUP1 PUSH4 0xBC694EA2 GT PUSH2 0x99 JUMPI DUP1 PUSH4 0xBC694EA2 EQ PUSH2 0x348 JUMPI DUP1 PUSH4 0xC36596A6 EQ PUSH2 0x19C JUMPI DUP1 PUSH4 0xC6580D12 EQ PUSH2 0x350 JUMPI DUP1 PUSH4 0xE4A28A52 EQ PUSH2 0x17A JUMPI DUP1 PUSH4 0xEC093021 EQ PUSH2 0x358 JUMPI DUP1 PUSH4 0xF8D6AED4 EQ PUSH2 0x360 JUMPI PUSH2 0x175 JUMP JUMPDEST DUP1 PUSH4 0xA221EE49 EQ PUSH2 0x2B8 JUMPI DUP1 PUSH4 0xB0E0D136 EQ PUSH2 0x2ED JUMPI DUP1 PUSH4 0xB7B800A4 EQ PUSH2 0x2F5 JUMPI DUP1 PUSH4 0xBA019DAB EQ PUSH2 0x2FD JUMPI DUP1 PUSH4 0xBA9530A6 EQ PUSH2 0x305 JUMPI DUP1 PUSH4 0xBC063E1A EQ PUSH2 0x340 JUMPI PUSH2 0x175 JUMP JUMPDEST DUP1 PUSH4 0x8656B653 GT PUSH2 0x132 JUMPI DUP1 PUSH4 0x8656B653 EQ PUSH2 0x222 JUMPI DUP1 PUSH4 0x867378C5 EQ PUSH2 0x25D JUMPI DUP1 PUSH4 0x89298012 EQ PUSH2 0x265 JUMPI DUP1 PUSH4 0x9381CD2B EQ PUSH2 0x2A0 JUMPI DUP1 PUSH4 0x992E2A92 EQ PUSH2 0x2A8 JUMPI DUP1 PUSH4 0x9A86139B EQ PUSH2 0x2B0 JUMPI PUSH2 0x175 JUMP JUMPDEST DUP1 PUSH4 0x9A3BBE4 EQ PUSH2 0x17A JUMPI DUP1 PUSH4 0x189D00CA EQ PUSH2 0x194 JUMPI DUP1 PUSH4 0x218B5382 EQ PUSH2 0x19C JUMPI DUP1 PUSH4 0x5C1BBAF7 EQ PUSH2 0x1A4 JUMPI DUP1 PUSH4 0x76C7A3C7 EQ PUSH2 0x1DF JUMPI DUP1 PUSH4 0x82F652AD EQ PUSH2 0x1E7 JUMPI JUMPDEST PUSH1 0x0 DUP1 REVERT JUMPDEST PUSH2 0x182 PUSH2 0x39B JUMP JUMPDEST PUSH1 0x40 DUP1 MLOAD SWAP2 DUP3 MSTORE MLOAD SWAP1 DUP2 SWAP1 SUB PUSH1 0x20 ADD SWAP1 RETURN JUMPDEST PUSH2 0x182 PUSH2 0x3A8 JUMP JUMPDEST PUSH2 0x182 PUSH2 0x3BC JUMP JUMPDEST PUSH2 0x182 PUSH1 0x4 DUP1 CALLDATASIZE SUB PUSH1 0xC0 DUP2 LT ISZERO PUSH2 0x1BA JUMPI PUSH1 0x0 DUP1 REVERT JUMPDEST POP DUP1 CALLDATALOAD SWAP1 PUSH1 0x20 DUP2 ADD CALLDATALOAD SWAP1 PUSH1 0x40 DUP2 ADD CALLDATALOAD SWAP1 PUSH1 0x60 DUP2 ADD CALLDATALOAD SWAP1 PUSH1 0x80 DUP2 ADD CALLDATALOAD SWAP1 PUSH1 0xA0 ADD CALLDATALOAD PUSH2 0x3C8 JUMP JUMPDEST PUSH2 0x182 PUSH2 0x480 JUMP JUMPDEST PUSH2 0x182 PUSH1 0x4 DUP1 CALLDATASIZE SUB PUSH1 0xC0 DUP2 LT ISZERO PUSH2 0x1FD JUMPI PUSH1 0x0 DUP1 REVERT JUMPDEST POP DUP1 CALLDATALOAD SWAP1 PUSH1 0x20 DUP2 ADD CALLDATALOAD SWAP1 PUSH1 0x40 DUP2 ADD CALLDATALOAD SWAP1 PUSH1 0x60 DUP2 ADD CALLDATALOAD SWAP1 PUSH1 0x80 DUP2 ADD CALLDATALOAD SWAP1 PUSH1 0xA0 ADD CALLDATALOAD PUSH2 0x492 JUMP JUMPDEST PUSH2 0x182 PUSH1 0x4 DUP1 CALLDATASIZE SUB PUSH1 0xC0 DUP2 LT ISZERO PUSH2 0x238 JUMPI PUSH1 0x0 DUP1 REVERT JUMPDEST POP DUP1 CALLDATALOAD SWAP1 PUSH1 0x20 DUP2 ADD CALLDATALOAD SWAP1 PUSH1 0x40 DUP2 ADD CALLDATALOAD SWAP1 PUSH1 0x60 DUP2 ADD CALLDATALOAD SWAP1 PUSH1 0x80 DUP2 ADD CALLDATALOAD SWAP1 PUSH1 0xA0 ADD CALLDATALOAD PUSH2 0x551 JUMP JUMPDEST PUSH2 0x182 PUSH2 0x5F2 JUMP JUMPDEST PUSH2 0x182 PUSH1 0x4 DUP1 CALLDATASIZE SUB PUSH1 0xC0 DUP2 LT ISZERO PUSH2 0x27B JUMPI PUSH1 0x0 DUP1 REVERT JUMPDEST POP DUP1 CALLDATALOAD SWAP1 PUSH1 0x20 DUP2 ADD CALLDATALOAD SWAP1 PUSH1 0x40 DUP2 ADD CALLDATALOAD SWAP1 PUSH1 0x60 DUP2 ADD CALLDATALOAD SWAP1 PUSH1 0x80 DUP2 ADD CALLDATALOAD SWAP1 PUSH1 0xA0 ADD CALLDATALOAD PUSH2 0x606 JUMP JUMPDEST PUSH2 0x182 PUSH2 0x6B6 JUMP JUMPDEST PUSH2 0x182 PUSH2 0x6C3 JUMP JUMPDEST PUSH2 0x182 PUSH2 0x6CF JUMP JUMPDEST PUSH2 0x182 PUSH1 0x4 DUP1 CALLDATASIZE SUB PUSH1 0xA0 DUP2 LT ISZERO PUSH2 0x2CE JUMPI PUSH1 0x0 DUP1 REVERT JUMPDEST POP DUP1 CALLDATALOAD SWAP1 PUSH1 0x20 DUP2 ADD CALLDATALOAD SWAP1 PUSH1 0x40 DUP2 ADD CALLDATALOAD SWAP1 PUSH1 0x60 DUP2 ADD CALLDATALOAD SWAP1 PUSH1 0x80 ADD CALLDATALOAD PUSH2 0x6F3 JUMP JUMPDEST PUSH2 0x182 PUSH2 0x758 JUMP JUMPDEST PUSH2 0x182 PUSH2 0x75D JUMP JUMPDEST PUSH2 0x182 PUSH2 0x762 JUMP JUMPDEST PUSH2 0x182 PUSH1 0x4 DUP1 CALLDATASIZE SUB PUSH1 0xC0 DUP2 LT ISZERO PUSH2 0x31B JUMPI PUSH1 0x0 DUP1 REVERT JUMPDEST POP DUP1 CALLDATALOAD SWAP1 PUSH1 0x20 DUP2 ADD CALLDATALOAD SWAP1 PUSH1 0x40 DUP2 ADD CALLDATALOAD SWAP1 PUSH1 0x60 DUP2 ADD CALLDATALOAD SWAP1 PUSH1 0x80 DUP2 ADD CALLDATALOAD SWAP1 PUSH1 0xA0 ADD CALLDATALOAD PUSH2 0x767 JUMP JUMPDEST PUSH2 0x182 PUSH2 0x7E8 JUMP JUMPDEST PUSH2 0x182 PUSH2 0x7F8 JUMP JUMPDEST PUSH2 0x182 PUSH2 0x804 JUMP JUMPDEST PUSH2 0x182 PUSH2 0x809 JUMP JUMPDEST PUSH2 0x182 PUSH1 0x4 DUP1 CALLDATASIZE SUB PUSH1 0xC0 DUP2 LT ISZERO PUSH2 0x376 JUMPI PUSH1 0x0 DUP1 REVERT JUMPDEST POP DUP1 CALLDATALOAD SWAP1 PUSH1 0x20 DUP2 ADD CALLDATALOAD SWAP1 PUSH1 0x40 DUP2 ADD CALLDATALOAD SWAP1 PUSH1 0x60 DUP2 ADD CALLDATALOAD SWAP1 PUSH1 0x80 DUP2 ADD CALLDATALOAD SWAP1 PUSH1 0xA0 ADD CALLDATALOAD PUSH2 0x819 JUMP JUMPDEST PUSH9 0x2B5E3AF16B1880000 DUP2 JUMP JUMPDEST PUSH5 0x2540BE400 PUSH8 0xDE0B6B3A7640000 JUMPDEST DIV DUP2 JUMP JUMPDEST PUSH8 0xDE0B6B3A7640000 DUP2 JUMP JUMPDEST PUSH1 0x0 DUP1 PUSH2 0x3D5 DUP8 DUP7 PUSH2 0x89C JUMP JUMPDEST SWAP1 POP PUSH1 0x0 PUSH2 0x3E3 DUP8 DUP7 PUSH2 0x9E5 JUMP JUMPDEST SWAP1 POP PUSH1 0x0 PUSH2 0x3F1 DUP3 DUP10 PUSH2 0x89C JUMP JUMPDEST SWAP1 POP PUSH1 0x0 PUSH2 0x407 PUSH8 0xDE0B6B3A7640000 DUP6 PUSH2 0x89C JUMP JUMPDEST SWAP1 POP PUSH1 0x0 PUSH2 0x415 DUP4 DUP4 PUSH2 0xA49 JUMP JUMPDEST SWAP1 POP PUSH1 0x0 PUSH2 0x423 DUP3 DUP15 PUSH2 0xB6C JUMP JUMPDEST SWAP1 POP PUSH1 0x0 PUSH2 0x431 DUP3 DUP16 PUSH2 0xC4E JUMP JUMPDEST SWAP1 POP PUSH1 0x0 PUSH2 0x450 PUSH2 0x44A PUSH8 0xDE0B6B3A7640000 DUP11 PUSH2 0xC4E JUMP JUMPDEST DUP12 PUSH2 0xB6C JUMP JUMPDEST SWAP1 POP PUSH2 0x46D DUP3 PUSH2 0x468 PUSH8 0xDE0B6B3A7640000 DUP5 PUSH2 0xC4E JUMP JUMPDEST PUSH2 0x89C JUMP JUMPDEST SWAP16 SWAP15 POP POP POP POP POP POP POP POP POP POP POP POP POP POP POP JUMP JUMPDEST PUSH3 0xF4240 PUSH8 0xDE0B6B3A7640000 PUSH2 0x3B8 JUMP JUMPDEST PUSH1 0x0 DUP1 PUSH2 0x49F DUP8 DUP7 PUSH2 0x89C JUMP JUMPDEST SWAP1 POP PUSH1 0x0 PUSH2 0x4B5 PUSH8 0xDE0B6B3A7640000 DUP4 PUSH2 0xC4E JUMP JUMPDEST SWAP1 POP PUSH1 0x0 PUSH2 0x4C3 DUP3 DUP7 PUSH2 0xB6C JUMP JUMPDEST SWAP1 POP PUSH1 0x0 PUSH2 0x4DD DUP8 PUSH2 0x468 PUSH8 0xDE0B6B3A7640000 DUP6 PUSH2 0xC4E JUMP JUMPDEST SWAP1 POP PUSH1 0x0 PUSH2 0x4EB DUP13 DUP4 PUSH2 0xC4E JUMP JUMPDEST SWAP1 POP PUSH1 0x0 PUSH2 0x4F9 DUP3 DUP15 PUSH2 0x89C JUMP JUMPDEST SWAP1 POP PUSH1 0x0 PUSH2 0x507 DUP3 DUP9 PUSH2 0xA49 JUMP JUMPDEST SWAP1 POP PUSH1 0x0 PUSH2 0x515 DUP3 DUP15 PUSH2 0xB6C JUMP JUMPDEST SWAP1 POP PUSH1 0x0 PUSH2 0x523 DUP15 DUP4 PUSH2 0xC4E JUMP JUMPDEST SWAP1 POP PUSH2 0x53C DUP2 PUSH2 0x468 PUSH8 0xDE0B6B3A7640000 PUSH1 0x0 PUSH2 0xC4E JUMP JUMPDEST SWAP10 POP POP POP POP POP POP POP POP POP POP SWAP7 SWAP6 POP POP POP POP POP POP JUMP JUMPDEST PUSH1 0x0 DUP1 PUSH2 0x55E DUP8 DUP7 PUSH2 0x89C JUMP JUMPDEST SWAP1 POP PUSH1 0x0 PUSH2 0x57D PUSH2 0x577 PUSH8 0xDE0B6B3A7640000 DUP5 PUSH2 0xC4E JUMP JUMPDEST DUP6 PUSH2 0xB6C JUMP JUMPDEST SWAP1 POP PUSH1 0x0 PUSH2 0x59C DUP7 PUSH2 0x597 PUSH8 0xDE0B6B3A7640000 DUP6 PUSH2 0xC4E JUMP JUMPDEST PUSH2 0xB6C JUMP JUMPDEST SWAP1 POP PUSH1 0x0 PUSH2 0x5AA DUP12 DUP4 PUSH2 0x9E5 JUMP JUMPDEST SWAP1 POP PUSH1 0x0 PUSH2 0x5B8 DUP3 DUP14 PUSH2 0x89C JUMP JUMPDEST SWAP1 POP PUSH1 0x0 PUSH2 0x5C6 DUP3 DUP8 PUSH2 0xA49 JUMP JUMPDEST SWAP1 POP PUSH1 0x0 PUSH2 0x5D4 DUP3 DUP14 PUSH2 0xB6C JUMP JUMPDEST SWAP1 POP PUSH2 0x5E0 DUP2 DUP14 PUSH2 0xC4E JUMP JUMPDEST SWAP15 SWAP14 POP POP POP POP POP POP POP POP POP POP POP POP POP POP JUMP JUMPDEST PUSH5 0xE8D4A51000 PUSH8 0xDE0B6B3A7640000 PUSH2 0x3B8 JUMP JUMPDEST PUSH1 0x0 DUP1 PUSH2 0x613 DUP8 DUP7 PUSH2 0x89C JUMP JUMPDEST SWAP1 POP PUSH1 0x0 PUSH2 0x62E DUP6 PUSH2 0x597 PUSH8 0xDE0B6B3A7640000 PUSH1 0x0 PUSH2 0xC4E JUMP JUMPDEST SWAP1 POP PUSH1 0x0 PUSH2 0x63C DUP9 DUP4 PUSH2 0xC4E JUMP JUMPDEST SWAP1 POP PUSH1 0x0 PUSH2 0x64A DUP3 DUP11 PUSH2 0x89C JUMP JUMPDEST SWAP1 POP PUSH1 0x0 PUSH2 0x669 DUP3 PUSH2 0x664 PUSH8 0xDE0B6B3A7640000 DUP9 PUSH2 0x89C JUMP JUMPDEST PUSH2 0xA49 JUMP JUMPDEST SWAP1 POP PUSH1 0x0 PUSH2 0x677 DUP3 DUP15 PUSH2 0xB6C JUMP JUMPDEST SWAP1 POP PUSH1 0x0 PUSH2 0x685 DUP15 DUP4 PUSH2 0xC4E JUMP JUMPDEST SWAP1 POP PUSH1 0x0 PUSH2 0x69E PUSH2 0x44A PUSH8 0xDE0B6B3A7640000 DUP11 PUSH2 0xC4E JUMP JUMPDEST SWAP1 POP PUSH2 0x46D DUP3 PUSH2 0x597 PUSH8 0xDE0B6B3A7640000 DUP5 PUSH2 0xC4E JUMP JUMPDEST PUSH9 0x56BC75E2D63100000 DUP2 JUMP JUMPDEST PUSH8 0x4A03CE68D215556 DUP2 JUMP JUMPDEST PUSH32 0x42524F4E5A450000000000000000000000000000000000000000000000000000 SWAP1 JUMP JUMPDEST PUSH1 0x0 DUP1 PUSH2 0x700 DUP8 DUP8 PUSH2 0x89C JUMP JUMPDEST SWAP1 POP PUSH1 0x0 PUSH2 0x70E DUP7 DUP7 PUSH2 0x89C JUMP JUMPDEST SWAP1 POP PUSH1 0x0 PUSH2 0x71C DUP4 DUP4 PUSH2 0x89C JUMP JUMPDEST SWAP1 POP PUSH1 0x0 PUSH2 0x73E PUSH8 0xDE0B6B3A7640000 PUSH2 0x468 PUSH8 0xDE0B6B3A7640000 DUP10 PUSH2 0xC4E JUMP JUMPDEST SWAP1 POP PUSH2 0x74A DUP3 DUP3 PUSH2 0xB6C JUMP JUMPDEST SWAP11 SWAP10 POP POP POP POP POP POP POP POP POP POP JUMP JUMPDEST PUSH1 0x8 DUP2 JUMP JUMPDEST PUSH1 0x2 DUP2 JUMP JUMPDEST PUSH1 0x1 DUP2 JUMP JUMPDEST PUSH1 0x0 DUP1 PUSH2 0x774 DUP8 DUP7 PUSH2 0x89C JUMP JUMPDEST SWAP1 POP PUSH1 0x0 PUSH2 0x78A PUSH8 0xDE0B6B3A7640000 DUP6 PUSH2 0xC4E JUMP JUMPDEST SWAP1 POP PUSH2 0x796 DUP6 DUP3 PUSH2 0xB6C JUMP JUMPDEST SWAP1 POP PUSH1 0x0 PUSH2 0x7A8 DUP11 PUSH2 0x468 DUP13 DUP6 PUSH2 0x9E5 JUMP JUMPDEST SWAP1 POP PUSH1 0x0 PUSH2 0x7B6 DUP3 DUP6 PUSH2 0xA49 JUMP JUMPDEST SWAP1 POP PUSH1 0x0 PUSH2 0x7CC PUSH8 0xDE0B6B3A7640000 DUP4 PUSH2 0xC4E JUMP JUMPDEST SWAP1 POP PUSH2 0x7D8 DUP11 DUP3 PUSH2 0xB6C JUMP JUMPDEST SWAP13 SWAP12 POP POP POP POP POP POP POP POP POP POP POP POP JUMP JUMPDEST PUSH1 0xA PUSH8 0xDE0B6B3A7640000 PUSH2 0x3B8 JUMP JUMPDEST PUSH8 0x1BC16D674EC7FFFF DUP2 JUMP JUMPDEST PUSH1 0x0 DUP2 JUMP JUMPDEST PUSH1 0x2 PUSH8 0xDE0B6B3A7640000 PUSH2 0x3B8 JUMP JUMPDEST PUSH1 0x0 DUP1 PUSH2 0x826 DUP6 DUP9 PUSH2 0x89C JUMP JUMPDEST SWAP1 POP PUSH1 0x0 PUSH2 0x834 DUP8 DUP7 PUSH2 0xC4E JUMP JUMPDEST SWAP1 POP PUSH1 0x0 PUSH2 0x842 DUP9 DUP4 PUSH2 0x89C JUMP JUMPDEST SWAP1 POP PUSH1 0x0 PUSH2 0x850 DUP3 DUP6 PUSH2 0xA49 JUMP JUMPDEST SWAP1 POP PUSH2 0x864 DUP2 PUSH8 0xDE0B6B3A7640000 PUSH2 0xC4E JUMP JUMPDEST SWAP1 POP PUSH2 0x878 PUSH8 0xDE0B6B3A7640000 DUP8 PUSH2 0xC4E JUMP JUMPDEST SWAP5 POP PUSH2 0x88D PUSH2 0x887 DUP13 DUP4 PUSH2 0xB6C JUMP JUMPDEST DUP7 PUSH2 0x89C JUMP JUMPDEST SWAP12 SWAP11 POP POP POP POP POP POP POP POP POP POP POP JUMP JUMPDEST PUSH1 0x0 DUP2 PUSH2 0x8F3 JUMPI PUSH1 0x40 DUP1 MLOAD PUSH1 0xE5 PUSH1 0x2 EXP PUSH3 0x461BCD MUL DUP2 MSTORE PUSH1 0x20 PUSH1 0x4 DUP3 ADD MSTORE PUSH1 0xC PUSH1 0x24 DUP3 ADD MSTORE PUSH32 0x4552525F4449565F5A45524F0000000000000000000000000000000000000000 PUSH1 0x44 DUP3 ADD MSTORE SWAP1 MLOAD SWAP1 DUP2 SWAP1 SUB PUSH1 0x64 ADD SWAP1 REVERT JUMPDEST PUSH8 0xDE0B6B3A7640000 DUP4 MUL DUP4 ISZERO DUP1 PUSH2 0x91B JUMPI POP PUSH8 0xDE0B6B3A7640000 DUP5 DUP3 DUP2 PUSH2 0x918 JUMPI INVALID JUMPDEST DIV EQ JUMPDEST PUSH2 0x96F JUMPI PUSH1 0x40 DUP1 MLOAD PUSH1 0xE5 PUSH1 0x2 EXP PUSH3 0x461BCD MUL DUP2 MSTORE PUSH1 0x20 PUSH1 0x4 DUP3 ADD MSTORE PUSH1 0x10 PUSH1 0x24 DUP3 ADD MSTORE PUSH32 0x4552525F4449565F494E5445524E414C00000000000000000000000000000000 PUSH1 0x44 DUP3 ADD MSTORE SWAP1 MLOAD SWAP1 DUP2 SWAP1 SUB PUSH1 0x64 ADD SWAP1 REVERT JUMPDEST PUSH1 0x2 DUP4 DIV DUP2 ADD DUP2 DUP2 LT ISZERO PUSH2 0x9CD JUMPI PUSH1 0x40 DUP1 MLOAD PUSH1 0xE5 PUSH1 0x2 EXP PUSH3 0x461BCD MUL DUP2 MSTORE PUSH1 0x20 PUSH1 0x4 DUP3 ADD MSTORE PUSH1 0x10 PUSH1 0x24 DUP3 ADD MSTORE PUSH32 0x4552525F4449565F494E5445524E414C00000000000000000000000000000000 PUSH1 0x44 DUP3 ADD MSTORE SWAP1 MLOAD SWAP1 DUP2 SWAP1 SUB PUSH1 0x64 ADD SWAP1 REVERT JUMPDEST PUSH1 0x0 DUP5 DUP3 DUP2 PUSH2 0x9D8 JUMPI INVALID JUMPDEST DIV SWAP4 POP POP POP POP JUMPDEST SWAP3 SWAP2 POP POP JUMP JUMPDEST PUSH1 0x0 DUP3 DUP3 ADD DUP4 DUP2 LT ISZERO PUSH2 0xA42 JUMPI PUSH1 0x40 DUP1 MLOAD PUSH1 0xE5 PUSH1 0x2 EXP PUSH3 0x461BCD MUL DUP2 MSTORE PUSH1 0x20 PUSH1 0x4 DUP3 ADD MSTORE PUSH1 0x10 PUSH1 0x24 DUP3 ADD MSTORE PUSH32 0x4552525F4144445F4F564552464C4F5700000000000000000000000000000000 PUSH1 0x44 DUP3 ADD MSTORE SWAP1 MLOAD SWAP1 DUP2 SWAP1 SUB PUSH1 0x64 ADD SWAP1 REVERT JUMPDEST SWAP4 SWAP3 POP POP POP JUMP JUMPDEST PUSH1 0x0 PUSH1 0x1 DUP4 LT ISZERO PUSH2 0xAA4 JUMPI PUSH1 0x40 DUP1 MLOAD PUSH1 0xE5 PUSH1 0x2 EXP PUSH3 0x461BCD MUL DUP2 MSTORE PUSH1 0x20 PUSH1 0x4 DUP3 ADD MSTORE PUSH1 0x15 PUSH1 0x24 DUP3 ADD MSTORE PUSH32 0x4552525F42504F575F424153455F544F4F5F4C4F570000000000000000000000 PUSH1 0x44 DUP3 ADD MSTORE SWAP1 MLOAD SWAP1 DUP2 SWAP1 SUB PUSH1 0x64 ADD SWAP1 REVERT JUMPDEST PUSH8 0x1BC16D674EC7FFFF DUP4 GT ISZERO PUSH2 0xB04 JUMPI PUSH1 0x40 DUP1 MLOAD PUSH1 0xE5 PUSH1 0x2 EXP PUSH3 0x461BCD MUL DUP2 MSTORE PUSH1 0x20 PUSH1 0x4 DUP3 ADD MSTORE PUSH1 0x16 PUSH1 0x24 DUP3 ADD MSTORE PUSH32 0x4552525F42504F575F424153455F544F4F5F4849474800000000000000000000 PUSH1 0x44 DUP3 ADD MSTORE SWAP1 MLOAD SWAP1 DUP2 SWAP1 SUB PUSH1 0x64 ADD SWAP1 REVERT JUMPDEST PUSH1 0x0 PUSH2 0xB0F DUP4 PUSH2 0xCBF JUMP JUMPDEST SWAP1 POP PUSH1 0x0 PUSH2 0xB1D DUP5 DUP4 PUSH2 0xC4E JUMP JUMPDEST SWAP1 POP PUSH1 0x0 PUSH2 0xB33 DUP7 PUSH2 0xB2E DUP6 PUSH2 0xCDA JUMP JUMPDEST PUSH2 0xCE8 JUMP JUMPDEST SWAP1 POP DUP2 PUSH2 0xB44 JUMPI SWAP3 POP PUSH2 0x9DF SWAP2 POP POP JUMP JUMPDEST PUSH1 0x0 PUSH2 0xB55 DUP8 DUP5 PUSH4 0x5F5E100 PUSH2 0xD3F JUMP JUMPDEST SWAP1 POP PUSH2 0xB61 DUP3 DUP3 PUSH2 0xB6C JUMP JUMPDEST SWAP8 SWAP7 POP POP POP POP POP POP POP JUMP JUMPDEST PUSH1 0x0 DUP3 DUP3 MUL DUP4 ISZERO DUP1 PUSH2 0xB86 JUMPI POP DUP3 DUP5 DUP3 DUP2 PUSH2 0xB83 JUMPI INVALID JUMPDEST DIV EQ JUMPDEST PUSH2 0xBDA JUMPI PUSH1 0x40 DUP1 MLOAD PUSH1 0xE5 PUSH1 0x2 EXP PUSH3 0x461BCD MUL DUP2 MSTORE PUSH1 0x20 PUSH1 0x4 DUP3 ADD MSTORE PUSH1 0x10 PUSH1 0x24 DUP3 ADD MSTORE PUSH32 0x4552525F4D554C5F4F564552464C4F5700000000000000000000000000000000 PUSH1 0x44 DUP3 ADD MSTORE SWAP1 MLOAD SWAP1 DUP2 SWAP1 SUB PUSH1 0x64 ADD SWAP1 REVERT JUMPDEST PUSH8 0x6F05B59D3B20000 DUP2 ADD DUP2 DUP2 LT ISZERO PUSH2 0xC3D JUMPI PUSH1 0x40 DUP1 MLOAD PUSH1 0xE5 PUSH1 0x2 EXP PUSH3 0x461BCD MUL DUP2 MSTORE PUSH1 0x20 PUSH1 0x4 DUP3 ADD MSTORE PUSH1 0x10 PUSH1 0x24 DUP3 ADD MSTORE PUSH32 0x4552525F4D554C5F4F564552464C4F5700000000000000000000000000000000 PUSH1 0x44 DUP3 ADD MSTORE SWAP1 MLOAD SWAP1 DUP2 SWAP1 SUB PUSH1 0x64 ADD SWAP1 REVERT JUMPDEST PUSH1 0x0 PUSH8 0xDE0B6B3A7640000 DUP3 PUSH2 0x9D8 JUMP JUMPDEST PUSH1 0x0 DUP1 PUSH1 0x0 PUSH2 0xC5D DUP6 DUP6 PUSH2 0xE1D JUMP JUMPDEST SWAP2 POP SWAP2 POP DUP1 ISZERO PUSH2 0xCB7 JUMPI PUSH1 0x40 DUP1 MLOAD PUSH1 0xE5 PUSH1 0x2 EXP PUSH3 0x461BCD MUL DUP2 MSTORE PUSH1 0x20 PUSH1 0x4 DUP3 ADD MSTORE PUSH1 0x11 PUSH1 0x24 DUP3 ADD MSTORE PUSH32 0x4552525F5355425F554E444552464C4F57000000000000000000000000000000 PUSH1 0x44 DUP3 ADD MSTORE SWAP1 MLOAD SWAP1 DUP2 SWAP1 SUB PUSH1 0x64 ADD SWAP1 REVERT JUMPDEST POP SWAP4 SWAP3 POP POP POP JUMP JUMPDEST PUSH1 0x0 PUSH8 0xDE0B6B3A7640000 PUSH2 0xCD3 DUP4 PUSH2 0xCDA JUMP JUMPDEST MUL SWAP3 SWAP2 POP POP JUMP JUMPDEST PUSH8 0xDE0B6B3A7640000 SWAP1 DIV SWAP1 JUMP JUMPDEST PUSH1 0x0 DUP1 PUSH1 0x2 DUP4 MOD PUSH2 0xD01 JUMPI PUSH8 0xDE0B6B3A7640000 PUSH2 0xD03 JUMP JUMPDEST DUP4 JUMPDEST SWAP1 POP PUSH1 0x2 DUP4 DIV SWAP3 POP JUMPDEST DUP3 ISZERO PUSH2 0xA42 JUMPI PUSH2 0xD1C DUP5 DUP6 PUSH2 0xB6C JUMP JUMPDEST SWAP4 POP PUSH1 0x2 DUP4 MOD ISZERO PUSH2 0xD34 JUMPI PUSH2 0xD31 DUP2 DUP6 PUSH2 0xB6C JUMP JUMPDEST SWAP1 POP JUMPDEST PUSH1 0x2 DUP4 DIV SWAP3 POP PUSH2 0xD0C JUMP JUMPDEST PUSH1 0x0 DUP3 DUP2 DUP1 PUSH2 0xD56 DUP8 PUSH8 0xDE0B6B3A7640000 PUSH2 0xE1D JUMP JUMPDEST SWAP1 SWAP3 POP SWAP1 POP PUSH8 0xDE0B6B3A7640000 DUP1 PUSH1 0x0 PUSH1 0x1 JUMPDEST DUP9 DUP5 LT PUSH2 0xE0E JUMPI PUSH1 0x0 PUSH8 0xDE0B6B3A7640000 DUP3 MUL SWAP1 POP PUSH1 0x0 DUP1 PUSH2 0xD9E DUP11 PUSH2 0xD99 DUP6 PUSH8 0xDE0B6B3A7640000 PUSH2 0xC4E JUMP JUMPDEST PUSH2 0xE1D JUMP JUMPDEST SWAP2 POP SWAP2 POP PUSH2 0xDB0 DUP8 PUSH2 0x597 DUP5 DUP13 PUSH2 0xB6C JUMP JUMPDEST SWAP7 POP PUSH2 0xDBC DUP8 DUP5 PUSH2 0x89C JUMP JUMPDEST SWAP7 POP DUP7 PUSH2 0xDCB JUMPI POP POP POP PUSH2 0xE0E JUMP JUMPDEST DUP8 ISZERO PUSH2 0xDD5 JUMPI SWAP4 ISZERO SWAP4 JUMPDEST DUP1 ISZERO PUSH2 0xDDF JUMPI SWAP4 ISZERO SWAP4 JUMPDEST DUP5 ISZERO PUSH2 0xDF6 JUMPI PUSH2 0xDEF DUP7 DUP9 PUSH2 0xC4E JUMP JUMPDEST SWAP6 POP PUSH2 0xE03 JUMP JUMPDEST PUSH2 0xE00 DUP7 DUP9 PUSH2 0x9E5 JUMP JUMPDEST SWAP6 POP JUMPDEST POP POP POP PUSH1 0x1 ADD PUSH2 0xD6A JUMP JUMPDEST POP SWAP1 SWAP10 SWAP9 POP POP POP POP POP POP POP POP POP JUMP JUMPDEST PUSH1 0x0 DUP1 DUP3 DUP5 LT PUSH2 0xE33 JUMPI POP POP DUP1 DUP3 SUB PUSH1 0x0 PUSH2 0xE3B JUMP JUMPDEST POP POP DUP2 DUP2 SUB PUSH1 0x1 JUMPDEST SWAP3 POP SWAP3 SWAP1 POP JUMP INVALID LOG2 PUSH6 0x627A7A723158 KECCAK256 0xb8 0x4b 0xe0 0xe1 0xb2 ORIGIN DUP13 CODESIZE 0x4a 0x24 0x21 0xb9 SWAP3 PUSH11 0x285C61C3BDE270ED7B0D59 SWAP9 0xee CREATE 0xbf 0xd3 PC DUP6 PUSH5 0x736F6C6343 STOP SDIV 0xc STOP ORIGIN "
        },
        "methodIdentifiers": {
          "BONE()": "c36596a6",
          "BPOW_PRECISION()": "189d00ca",
          "EXIT_FEE()": "c6580d12",
          "INIT_POOL_SUPPLY()": "9381cd2b",
          "MAX_BOUND_TOKENS()": "b0e0d136",
          "MAX_BPOW_BASE()": "bc694ea2",
          "MAX_FEE()": "bc063e1a",
          "MAX_IN_RATIO()": "ec093021",
          "MAX_OUT_RATIO()": "992e2a92",
          "MAX_TOTAL_WEIGHT()": "09a3bbe4",
          "MAX_WEIGHT()": "e4a28a52",
          "MIN_BALANCE()": "867378c5",
          "MIN_BOUND_TOKENS()": "b7b800a4",
          "MIN_BPOW_BASE()": "ba019dab",
          "MIN_FEE()": "76c7a3c7",
          "MIN_WEIGHT()": "218b5382",
          "calcInGivenOut(uint256,uint256,uint256,uint256,uint256,uint256)": "f8d6aed4",
          "calcOutGivenIn(uint256,uint256,uint256,uint256,uint256,uint256)": "ba9530a6",
          "calcPoolInGivenSingleOut(uint256,uint256,uint256,uint256,uint256,uint256)": "82f652ad",
          "calcPoolOutGivenSingleIn(uint256,uint256,uint256,uint256,uint256,uint256)": "8656b653",
          "calcSingleInGivenPoolOut(uint256,uint256,uint256,uint256,uint256,uint256)": "5c1bbaf7",
          "calcSingleOutGivenPoolIn(uint256,uint256,uint256,uint256,uint256,uint256)": "89298012",
          "calcSpotPrice(uint256,uint256,uint256,uint256,uint256)": "a221ee49",
          "getColor()": "9a86139b"
        }
      }
    }
  }
}