{
  "_format": "hh-sol-artifact-1",
  "contractName": "TierUtilTest",
  "sourceName": "contracts/test/TierUtilTest.sol",
  "abi": [
    {
      "inputs": [
        {
          "internalType": "uint256",
          "name": "report_",
          "type": "uint256"
        },
        {
          "internalType": "uint256",
          "name": "blockNumber_",
          "type": "uint256"
        }
      ],
      "name": "tierAtBlockFromReport",
      "outputs": [
        {
          "internalType": "enum ITier.Tier",
          "name": "",
          "type": "uint8"
        }
      ],
      "stateMutability": "pure",
      "type": "function"
    },
    {
      "inputs": [
        {
          "internalType": "uint256",
          "name": "report_",
          "type": "uint256"
        },
        {
          "internalType": "enum ITier.Tier",
          "name": "tier_",
          "type": "uint8"
        }
      ],
      "name": "tierBlock",
      "outputs": [
        {
          "internalType": "uint256",
          "name": "",
          "type": "uint256"
        }
      ],
      "stateMutability": "pure",
      "type": "function"
    },
    {
      "inputs": [
        {
          "internalType": "uint256",
          "name": "report_",
          "type": "uint256"
        },
        {
          "internalType": "enum ITier.Tier",
          "name": "tier_",
          "type": "uint8"
        }
      ],
      "name": "truncateTiersAbove",
      "outputs": [
        {
          "internalType": "uint256",
          "name": "",
          "type": "uint256"
        }
      ],
      "stateMutability": "pure",
      "type": "function"
    },
    {
      "inputs": [
        {
          "internalType": "uint256",
          "name": "report_",
          "type": "uint256"
        },
        {
          "internalType": "enum ITier.Tier",
          "name": "startTier_",
          "type": "uint8"
        },
        {
          "internalType": "enum ITier.Tier",
          "name": "endTier_",
          "type": "uint8"
        },
        {
          "internalType": "uint256",
          "name": "blockNumber_",
          "type": "uint256"
        }
      ],
      "name": "updateBlocksForTierRange",
      "outputs": [
        {
          "internalType": "uint256",
          "name": "",
          "type": "uint256"
        }
      ],
      "stateMutability": "pure",
      "type": "function"
    },
    {
      "inputs": [
        {
          "internalType": "uint256",
          "name": "report_",
          "type": "uint256"
        },
        {
          "internalType": "enum ITier.Tier",
          "name": "startTier_",
          "type": "uint8"
        },
        {
          "internalType": "enum ITier.Tier",
          "name": "endTier_",
          "type": "uint8"
        },
        {
          "internalType": "uint256",
          "name": "blockNumber_",
          "type": "uint256"
        }
      ],
      "name": "updateReportWithTierAtBlock",
      "outputs": [
        {
          "internalType": "uint256",
          "name": "",
          "type": "uint256"
        }
      ],
      "stateMutability": "pure",
      "type": "function"
    }
  ],
  "bytecode": "0x608060405234801561001057600080fd5b50610365806100206000396000f3fe608060405234801561001057600080fd5b50600436106100675760003560e01c80637c76a2fb116100505780637c76a2fb146100e8578063d37fc68a1461010e578063d47070311461014457610067565b80630e47450b1461006c5780636ed9558d146100a4575b600080fd5b6100926004803603604081101561008257600080fd5b508035906020013560ff1661017a565b60408051918252519081900360200190f35b6100c7600480360360408110156100ba57600080fd5b508035906020013561018f565b604051808260088111156100d757fe5b815260200191505060405180910390f35b610092600480360360408110156100fe57600080fd5b508035906020013560ff1661019b565b6100926004803603608081101561012457600080fd5b5080359060ff6020820135811691604081013590911690606001356101a7565b6100926004803603608081101561015a57600080fd5b5080359060ff6020820135811691604081013590911690606001356101be565b600061018683836101cc565b90505b92915050565b60006101868383610212565b6000610186838361025d565b60006101b5858585856102a3565b95945050505050565b60006101b5858585856102f5565b6000808260088111156101db57fe5b14156101e957506000610189565b600060018360088111156101f957fe5b0360200290508084901c63ffffffff1691505092915050565b6000805b6008811015610255578263ffffffff168160200285901c63ffffffff16111561024d5780600881111561024557fe5b915050610189565b600101610216565b506008610186565b60008082600881111561026c57fe5b7fffffffffffffffffffffffffffffffffffffffffffffffffffffffffffffffff60209190910290811c901b841791505092915050565b60008060008560088111156102b457fe5b90505b8460088111156102c357fe5b8110156102ea5763ffffffff6020820290811b199790971684881b179691506001016102b7565b509495945050505050565b600083600881111561030357fe5b83600881111561030f57fe5b1061032557610320858585856102a3565b6101b5565b6101b5858461025d56fea2646970667358221220ffd6b2dd682cb47f50c7f0736876947f16d4253da266428c6a16a37d3f1ec2f364736f6c634300060c0033",
  "linkReferences": {},
  "deployedLinkReferences": {}
}