{
  "_format": "hh-sol-artifact-1",
  "contractName": "RedeemableERC20Pool",
  "sourceName": "contracts/RedeemableERC20Pool.sol",
  "abi": [
    {
      "inputs": [
        {
          "components": [
            {
              "internalType": "contract CRPFactory",
              "name": "crpFactory",
              "type": "address"
            },
            {
              "internalType": "contract BFactory",
              "name": "balancerFactory",
              "type": "address"
            },
            {
              "internalType": "contract IERC20",
              "name": "reserve",
              "type": "address"
            },
            {
              "internalType": "contract RedeemableERC20",
              "name": "token",
              "type": "address"
            },
            {
              "internalType": "uint256",
              "name": "reserveInit",
              "type": "uint256"
            },
            {
              "internalType": "uint256",
              "name": "initialValuation",
              "type": "uint256"
            },
            {
              "internalType": "uint256",
              "name": "finalValuation",
              "type": "uint256"
            }
          ],
          "internalType": "struct RedeemableERC20PoolConfig",
          "name": "config_",
          "type": "tuple"
        }
      ],
      "stateMutability": "nonpayable",
      "type": "constructor"
    },
    {
      "anonymous": false,
      "inputs": [
        {
          "indexed": true,
          "internalType": "address",
          "name": "previousOwner",
          "type": "address"
        },
        {
          "indexed": true,
          "internalType": "address",
          "name": "newOwner",
          "type": "address"
        }
      ],
      "name": "OwnershipTransferred",
      "type": "event"
    },
    {
      "anonymous": false,
      "inputs": [
        {
          "indexed": true,
          "internalType": "uint32",
          "name": "newPhaseBlock_",
          "type": "uint32"
        }
      ],
      "name": "PhaseShiftScheduled",
      "type": "event"
    },
    {
      "inputs": [],
      "name": "MIN_BALANCER_POOL_BALANCE",
      "outputs": [
        {
          "internalType": "uint256",
          "name": "",
          "type": "uint256"
        }
      ],
      "stateMutability": "view",
      "type": "function"
    },
    {
      "inputs": [],
      "name": "MIN_RESERVE_INIT",
      "outputs": [
        {
          "internalType": "uint256",
          "name": "",
          "type": "uint256"
        }
      ],
      "stateMutability": "view",
      "type": "function"
    },
    {
      "inputs": [],
      "name": "UNINITIALIZED",
      "outputs": [
        {
          "internalType": "uint32",
          "name": "",
          "type": "uint32"
        }
      ],
      "stateMutability": "view",
      "type": "function"
    },
    {
      "inputs": [
        {
          "internalType": "uint32[8]",
          "name": "phaseBlocks_",
          "type": "uint32[8]"
        },
        {
          "internalType": "enum Phase",
          "name": "phase_",
          "type": "uint8"
        }
      ],
      "name": "blockNumberForPhase",
      "outputs": [
        {
          "internalType": "uint32",
          "name": "",
          "type": "uint32"
        }
      ],
      "stateMutability": "pure",
      "type": "function"
    },
    {
      "inputs": [],
      "name": "crp",
      "outputs": [
        {
          "internalType": "contract ConfigurableRightsPool",
          "name": "",
          "type": "address"
        }
      ],
      "stateMutability": "view",
      "type": "function"
    },
    {
      "inputs": [],
      "name": "currentPhase",
      "outputs": [
        {
          "internalType": "enum Phase",
          "name": "",
          "type": "uint8"
        }
      ],
      "stateMutability": "view",
      "type": "function"
    },
    {
      "inputs": [],
      "name": "finalWeight",
      "outputs": [
        {
          "internalType": "uint256",
          "name": "",
          "type": "uint256"
        }
      ],
      "stateMutability": "view",
      "type": "function"
    },
    {
      "inputs": [],
      "name": "owner",
      "outputs": [
        {
          "internalType": "address",
          "name": "",
          "type": "address"
        }
      ],
      "stateMutability": "view",
      "type": "function"
    },
    {
      "inputs": [],
      "name": "ownerEndDutchAuction",
      "outputs": [],
      "stateMutability": "nonpayable",
      "type": "function"
    },
    {
      "inputs": [
        {
          "internalType": "uint256",
          "name": "finalAuctionBlock_",
          "type": "uint256"
        }
      ],
      "name": "ownerStartDutchAuction",
      "outputs": [],
      "stateMutability": "nonpayable",
      "type": "function"
    },
    {
      "inputs": [
        {
          "internalType": "uint32[8]",
          "name": "phaseBlocks_",
          "type": "uint32[8]"
        },
        {
          "internalType": "uint32",
          "name": "blockNumber_",
          "type": "uint32"
        }
      ],
      "name": "phaseAtBlockNumber",
      "outputs": [
        {
          "internalType": "enum Phase",
          "name": "",
          "type": "uint8"
        }
      ],
      "stateMutability": "pure",
      "type": "function"
    },
    {
      "inputs": [
        {
          "internalType": "uint256",
          "name": "",
          "type": "uint256"
        }
      ],
      "name": "phaseBlocks",
      "outputs": [
        {
          "internalType": "uint32",
          "name": "",
          "type": "uint32"
        }
      ],
      "stateMutability": "view",
      "type": "function"
    },
    {
      "inputs": [],
      "name": "renounceOwnership",
      "outputs": [],
      "stateMutability": "nonpayable",
      "type": "function"
    },
    {
      "inputs": [],
      "name": "reserve",
      "outputs": [
        {
          "internalType": "contract IERC20",
          "name": "",
          "type": "address"
        }
      ],
      "stateMutability": "view",
      "type": "function"
    },
    {
      "inputs": [],
      "name": "reserveInit",
      "outputs": [
        {
          "internalType": "uint256",
          "name": "",
          "type": "uint256"
        }
      ],
      "stateMutability": "view",
      "type": "function"
    },
    {
      "inputs": [],
      "name": "token",
      "outputs": [
        {
          "internalType": "contract RedeemableERC20",
          "name": "",
          "type": "address"
        }
      ],
      "stateMutability": "view",
      "type": "function"
    },
    {
      "inputs": [
        {
          "internalType": "address",
          "name": "newOwner",
          "type": "address"
        }
      ],
      "name": "transferOwnership",
      "outputs": [],
      "stateMutability": "nonpayable",
      "type": "function"
    }
  ],
  "bytecode": "0x61022060405263ffffffff6101208181526101408290526101608290526101808290526101a08290526101c08290526101e0829052610200919091526200004b90600190600862000999565b503480156200005957600080fd5b5060405162002cce38038062002cce8339810160408190526200007c9162000aac565b60006200008862000753565b600080546001600160a01b0319166001600160a01b0383169081178255604051929350917f8be0079c531659141344cd1fd0a4f28419497f9722a3daafe3b4186f6b6457e0908290a3506305f5e10081608001511015620001065760405162461bcd60e51b8152600401620000fd9062000f1a565b60405180910390fd5b6060808201516001600160601b031990821b81166080908152604084015190921b1660a0528101805160c090815290519082015162000146919062000757565b6101005260408051600280825260608083018452926020830190803683370190505090508160400151816000815181106200017d57fe5b60200260200101906001600160a01b031690816001600160a01b031681525050816060015181600181518110620001b057fe5b6001600160a01b0392909216602092830291909101909101526040805160028082526060828101909352816020016020820280368337019050509050826080015181600081518110620001ff57fe5b60200260200101818152505082606001516001600160a01b03166318160ddd6040518163ffffffff1660e01b815260040160206040518083038186803b1580156200024957600080fd5b505afa1580156200025e573d6000803e3d6000fd5b505050506040513d601f19601f8201168201806040525081019062000284919062000bd9565b816001815181106200029257fe5b602002602001018181525050600081600181518110620002ae57fe5b602002602001015111620002d65760405162461bcd60e51b8152600401620000fd9062000f92565b6040805160028082526060808301845292602083019080368337019050509050670de0b6b3a7640000816000815181106200030d57fe5b6020026020010181815250506200033384608001518560a001516200075760201b60201c565b816001815181106200034157fe5b602090810291909101015260408051600680825260e082019092526060918160200160208202803683370190505090506001816002815181106200038157fe5b602002602001019015159081151581525050600181600481518110620003a357fe5b602002602001019015159081151581525050600085600001516001600160a01b0316634420002b87602001516040518060c00160405280604051806040016040528060048152602001630523230560e41b81525081526020016040518060400160405280601381526020017f52656465656d61626c654552433230506f6f6c000000000000000000000000008152508152602001898152602001888152602001878152602001620f4240670de0b6b3a7640000816200045e57fe5b0490526040516330211cff60e21b815273__$2e01043d609d645301b32b1d7a001b4107$__9063c08473fc906200049a90899060040162000df1565b60c06040518083038186803b158015620004b357600080fd5b505af4158015620004c8573d6000803e3d6000fd5b505050506040513d601f19601f82011682018060405250810190620004ee919062000b42565b6040518463ffffffff1660e01b81526004016200050e9392919062000cfc565b602060405180830381600087803b1580156200052957600080fd5b505af11580156200053e573d6000803e3d6000fd5b505050506040513d601f19601f8201168201806040525081019062000564919062000a8d565b6001600160601b0319606082901b1660e0526040808801516080890151915163095ea7b360e01b81529293506001600160a01b03169163095ea7b391620005b19185919060040162000dd8565b602060405180830381600087803b158015620005cc57600080fd5b505af1158015620005e1573d6000803e3d6000fd5b505050506040513d601f19601f8201168201806040525081019062000607919062000a6b565b620006265760405162461bcd60e51b8152600401620000fd9062000fb8565b85606001516001600160a01b031663095ea7b38288606001516001600160a01b03166318160ddd6040518163ffffffff1660e01b815260040160206040518083038186803b1580156200067857600080fd5b505afa1580156200068d573d6000803e3d6000fd5b505050506040513d601f19601f82011682018060405250810190620006b3919062000bd9565b6040518363ffffffff1660e01b8152600401620006d292919062000dd8565b602060405180830381600087803b158015620006ed57600080fd5b505af115801562000702573d6000803e3d6000fd5b505050506040513d601f19601f8201168201806040525081019062000728919062000a6b565b620007475760405162461bcd60e51b8152600401620000fd9062000ebc565b50505050505062001021565b3390565b600080620007958462000781670de0b6b3a7640000866200083360201b62000f711790919060201c565b6200087360201b62000fc51790919060201c565b9050670de0b6b3a7640000811015620007c25760405162461bcd60e51b8152600401620000fd9062000ee3565b620007e481670de0b6b3a7640000620008bd60201b620010071790919060201c565b62000809670de0b6b3a764000080603202620008e560201b620010461790919060201c565b10156200082a5760405162461bcd60e51b8152600401620000fd9062000e4e565b90505b92915050565b60008262000844575060006200082d565b828202828482816200085257fe5b04146200082a5760405162461bcd60e51b8152600401620000fd9062000f51565b60006200082a83836040518060400160405280601a81526020017f536166654d6174683a206469766973696f6e206279207a65726f0000000000008152506200092f60201b60201c565b6000828201838110156200082a5760405162461bcd60e51b8152600401620000fd9062000e85565b60006200082a83836040518060400160405280601e81526020017f536166654d6174683a207375627472616374696f6e206f766572666c6f7700008152506200096a60201b60201c565b60008183620009535760405162461bcd60e51b8152600401620000fd919062000e39565b5060008385816200096057fe5b0495945050505050565b60008184841115620009915760405162461bcd60e51b8152600401620000fd919062000e39565b505050900390565b60018301918390821562000a2a5791602002820160005b83821115620009f657835183826101000a81548163ffffffff021916908363ffffffff1602179055509260200192600401602081600301049283019260010302620009b0565b801562000a285782816101000a81549063ffffffff0219169055600401602081600301049283019260010302620009f6565b505b5062000a3892915062000a3c565b5090565b5b8082111562000a3857805463ffffffff1916815560010162000a3d565b805180151581146200082d57600080fd5b60006020828403121562000a7d578081fd5b815180151581146200082a578182fd5b60006020828403121562000a9f578081fd5b81516200082a8162001008565b600060e0828403121562000abe578081fd5b62000aca60e062000fe1565b825162000ad78162001008565b8152602083015162000ae98162001008565b6020820152604083015162000afe8162001008565b6040820152606083015162000b138162001008565b806060830152506080830151608082015260a083015160a082015260c083015160c08201528091505092915050565b600060c0828403121562000b54578081fd5b62000b6060c062000fe1565b62000b6c848462000a5a565b815262000b7d846020850162000a5a565b602082015262000b91846040850162000a5a565b604082015262000ba5846060850162000a5a565b606082015262000bb9846080850162000a5a565b608082015262000bcd8460a0850162000a5a565b60a08201529392505050565b60006020828403121562000beb578081fd5b5051919050565b6000815180845260208085019450808401835b8381101562000c2c5781516001600160a01b03168752958201959082019060010162000c05565b509495945050505050565b6000815180845260208085019450808401835b8381101562000c2c5781518752958201959082019060010162000c4a565b60008151808452815b8181101562000c8f5760208185018101518683018201520162000c71565b8181111562000ca15782602083870101525b50601f01601f19169290920160200192915050565b80511515825260208101511515602083015260408101511515604083015260608101511515606083015260808101511515608083015260a0810151151560a08301525050565b6001600160a01b038416815261010060208201819052835160c0838301526000919062000d2e6101c085018262000c68565b915050602085015160ff19808584030161012086015262000d50838362000c68565b925060408701519150808584030161014086015262000d70838362000bf2565b925060608701519150808584030161016086015262000d90838362000c37565b92506080870151915080858403016101808601525062000db1828262000c37565b60a08701516101a0860152925062000dd0915050604083018462000cb6565b949350505050565b6001600160a01b03929092168252602082015260400190565b6020808252825182820181905260009190848201906040850190845b8181101562000e2d57835115158352928401929184019160010162000e0d565b50909695505050505050565b6000602082526200082a602083018462000c68565b60208082526014908201527f4d41585f5745494748545f56414c554154494f4e000000000000000000000000604082015260600190565b6020808252601b908201527f536166654d6174683a206164646974696f6e206f766572666c6f770000000000604082015260600190565b6020808252600d908201526c544f4b454e5f415050524f564560981b604082015260600190565b60208082526014908201527f4d494e5f5745494748545f56414c554154494f4e000000000000000000000000604082015260600190565b60208082526014908201527f524553455256455f494e49545f4d494e494d554d000000000000000000000000604082015260600190565b60208082526021908201527f536166654d6174683a206d756c7469706c69636174696f6e206f766572666c6f6040820152607760f81b606082015260800190565b6020808252600c908201526b0544f4b454e5f494e49545f360a41b604082015260600190565b6020808252600f908201526e524553455256455f415050524f564560881b604082015260600190565b6040518181016001600160401b03811182821017156200100057600080fd5b604052919050565b6001600160a01b03811681146200101e57600080fd5b50565b60805160601c60a05160601c60c05160e05160601c61010051611c28620010a66000398061028b528061048f525080610309528061050352806105b652806108a45280610a105280610a995280610ad652508061076952508061078d52806108685280610d4e5280610dea5250806109d45280610c295280610f4f5250611c286000f3fe608060405234801561001057600080fd5b506004361061011b5760003560e01c8063715018a6116100b2578063bb06997211610081578063e52ecbfb11610066578063e52ecbfb146101fb578063f2fde38b14610203578063fc0c546a146102165761011b565b8063bb069972146101eb578063cd3293de146101f35761011b565b8063715018a6146101c057806381e45d9a146101c85780638da5cb5b146101d05780639923c94b146101d85761011b565b806345bdfa8a116100ee57806345bdfa8a1461017b5780634ea2cb191461019b57806360498954146101a35780636ba85bd6146101b85761011b565b8063055ad42e1461012057806324ee2f4d1461013e57806334c1df75146101535780633fd8108e14610166575b600080fd5b61012861021e565b60405161013591906117f1565b60405180910390f35b610146610289565b6040516101359190611b49565b610128610161366004611617565b6102ad565b61016e610307565b6040516101359190611785565b61018e6101893660046115d8565b61032b565b6040516101359190611b81565b61014661037c565b6101b66101b13660046116e3565b610384565b005b610146610628565b6101b661062f565b61018e6106fa565b61016e61071e565b61018e6101e63660046116e3565b61073a565b610146610767565b61016e61078b565b6101b66107af565b6101b66102113660046115bc565b610e17565b61016e610f4d565b6040805161010081019182905260009161028491906001906008908286855b82829054906101000a900463ffffffff1663ffffffff168152602001906004019060208260030104928301926001038202915080841161023d5790505050505050436102ad565b905090565b7f000000000000000000000000000000000000000000000000000000000000000081565b6000805b60088110156102fa578381600881106102c657fe5b602002015163ffffffff168363ffffffff1610156102f2578060088111156102ea57fe5b915050610301565b6001016102b1565b5060085b90505b92915050565b7f000000000000000000000000000000000000000000000000000000000000000081565b60008082600881111561033a57fe5b141561034857506000610301565b82600183600881111561035757fe5b036008811061036257fe5b6020020160208101906103759190611713565b9050610301565b6305f5e10081565b61038c611088565b60005473ffffffffffffffffffffffffffffffffffffffff9081169116146103e9576040517f08c379a00000000000000000000000000000000000000000000000000000000081526004016103e090611a49565b60405180910390fd5b6000806103f461021e565b60088111156103ff57fe5b14610436576040517f08c379a00000000000000000000000000000000000000000000000000000000081526004016103e090611958565b61043f4361108c565b61044b8260010161108c565b6040805160028082526060808301845292602083019080368337019050509050670de0b6b3a76400008160008151811061048157fe5b6020026020010181815250507f0000000000000000000000000000000000000000000000000000000000000000816001815181106104bb57fe5b60209081029190910101526040517fc3391d2700000000000000000000000000000000000000000000000000000000815273ffffffffffffffffffffffffffffffffffffffff7f0000000000000000000000000000000000000000000000000000000000000000169063c3391d2790610549906b033b2e3c9fd0803ce8000000906000908190600401611b6b565b600060405180830381600087803b15801561056357600080fd5b505af1158015610577573d6000803e3d6000fd5b50506040517f246bc19b00000000000000000000000000000000000000000000000000000000815273ffffffffffffffffffffffffffffffffffffffff7f000000000000000000000000000000000000000000000000000000000000000016925063246bc19b91506105f1908490439088906004016117cc565b600060405180830381600087803b15801561060b57600080fd5b505af115801561061f573d6000803e3d6000fd5b50505050505050565b620f424081565b610637611088565b60005473ffffffffffffffffffffffffffffffffffffffff90811691161461068b576040517f08c379a00000000000000000000000000000000000000000000000000000000081526004016103e090611a49565b6000805460405173ffffffffffffffffffffffffffffffffffffffff909116907f8be0079c531659141344cd1fd0a4f28419497f9722a3daafe3b4186f6b6457e0908390a3600080547fffffffffffffffffffffffff0000000000000000000000000000000000000000169055565b7fffffffffffffffffffffffffffffffffffffffffffffffffffffffffffffffff81565b60005473ffffffffffffffffffffffffffffffffffffffff1690565b6001816008811061074757fe5b60089182820401919006600402915054906101000a900463ffffffff1681565b7f000000000000000000000000000000000000000000000000000000000000000081565b7f000000000000000000000000000000000000000000000000000000000000000081565b6107b7611088565b60005473ffffffffffffffffffffffffffffffffffffffff90811691161461080b576040517f08c379a00000000000000000000000000000000000000000000000000000000081526004016103e090611a49565b60028061081661021e565b600881111561082157fe5b14610858576040517f08c379a00000000000000000000000000000000000000000000000000000000081526004016103e090611958565b6108614361108c565b60006109cb7f000000000000000000000000000000000000000000000000000000000000000073ffffffffffffffffffffffffffffffffffffffff166370a082317f000000000000000000000000000000000000000000000000000000000000000073ffffffffffffffffffffffffffffffffffffffff1663b64ef17b6040518163ffffffff1660e01b815260040160206040518083038186803b15801561090857600080fd5b505afa15801561091c573d6000803e3d6000fd5b505050506040513d601f19601f8201168201806040525081019061094091906116c7565b6040518263ffffffff1660e01b815260040161095c9190611785565b60206040518083038186803b15801561097457600080fd5b505afa158015610988573d6000803e3d6000fd5b505050506040513d601f19601f820116820180604052508101906109ac91906116fb565b6109c5620f42406b033b2e3c9fd0803ce8000000610f71565b90610fc5565b90506000610a747f000000000000000000000000000000000000000000000000000000000000000073ffffffffffffffffffffffffffffffffffffffff166370a082317f000000000000000000000000000000000000000000000000000000000000000073ffffffffffffffffffffffffffffffffffffffff1663b64ef17b6040518163ffffffff1660e01b815260040160206040518083038186803b15801561090857600080fd5b90506000610a9582610a8f68056bc75e2d6310000086611202565b90611202565b90507f000000000000000000000000000000000000000000000000000000000000000073ffffffffffffffffffffffffffffffffffffffff1663b02f0b73827f000000000000000000000000000000000000000000000000000000000000000073ffffffffffffffffffffffffffffffffffffffff166370a08231306040518263ffffffff1660e01b8152600401610b2d9190611785565b60206040518083038186803b158015610b4557600080fd5b505afa158015610b59573d6000803e3d6000fd5b505050506040513d601f19601f82011682018060405250810190610b7d91906116fb565b604080516002808252606082018352939092039290602083019080368337019050506040518363ffffffff1660e01b8152600401610bbc929190611b52565b600060405180830381600087803b158015610bd657600080fd5b505af1158015610bea573d6000803e3d6000fd5b50506040517f70a0823100000000000000000000000000000000000000000000000000000000815273ffffffffffffffffffffffffffffffffffffffff7f00000000000000000000000000000000000000000000000000000000000000001692506342966c68915082906370a0823190610c68903090600401611785565b60206040518083038186803b158015610c8057600080fd5b505afa158015610c94573d6000803e3d6000fd5b505050506040513d601f19601f82011682018060405250810190610cb891906116fb565b6040518263ffffffff1660e01b8152600401610cd49190611b49565b600060405180830381600087803b158015610cee57600080fd5b505af1158015610d02573d6000803e3d6000fd5b50505050610e11610d1161071e565b6040517f70a0823100000000000000000000000000000000000000000000000000000000815273ffffffffffffffffffffffffffffffffffffffff7f000000000000000000000000000000000000000000000000000000000000000016906370a0823190610d83903090600401611785565b60206040518083038186803b158015610d9b57600080fd5b505afa158015610daf573d6000803e3d6000fd5b505050506040513d601f19601f82011682018060405250810190610dd391906116fb565b73ffffffffffffffffffffffffffffffffffffffff7f0000000000000000000000000000000000000000000000000000000000000000169190611219565b50505050565b610e1f611088565b60005473ffffffffffffffffffffffffffffffffffffffff908116911614610e73576040517f08c379a00000000000000000000000000000000000000000000000000000000081526004016103e090611a49565b73ffffffffffffffffffffffffffffffffffffffff8116610ec0576040517f08c379a00000000000000000000000000000000000000000000000000000000081526004016103e09061188d565b6000805460405173ffffffffffffffffffffffffffffffffffffffff808516939216917f8be0079c531659141344cd1fd0a4f28419497f9722a3daafe3b4186f6b6457e091a3600080547fffffffffffffffffffffffff00000000000000000000000000000000000000001673ffffffffffffffffffffffffffffffffffffffff92909216919091179055565b7f000000000000000000000000000000000000000000000000000000000000000081565b600082610f8057506000610301565b82820282848281610f8d57fe5b04146102fe576040517f08c379a00000000000000000000000000000000000000000000000000000000081526004016103e0906119ec565b60006102fe83836040518060400160405280601a81526020017f536166654d6174683a206469766973696f6e206279207a65726f0000000000008152506112bf565b6000828201838110156102fe576040517f08c379a00000000000000000000000000000000000000000000000000000000081526004016103e0906118ea565b60006102fe83836040518060400160405280601e81526020017f536166654d6174683a207375627472616374696f6e206f766572666c6f770000815250611312565b3390565b8063ffffffff164363ffffffff1611156110d2576040517f08c379a00000000000000000000000000000000000000000000000000000000081526004016103e090611856565b63ffffffff81811610611111576040517f08c379a00000000000000000000000000000000000000000000000000000000081526004016103e090611921565b600061111b61021e565b600881111561112657fe5b90506001816008811061113557fe5b60088104919091015460079091166004026101000a900463ffffffff9081161461118b576040517f08c379a00000000000000000000000000000000000000000000000000000000081526004016103e090611a7e565b61119482611358565b81600182600881106111a257fe5b600891828204019190066004026101000a81548163ffffffff021916908363ffffffff1602179055508163ffffffff167f260aac5b840edc27b89fdf50e91311a413363a400959466e1049e6d071b8cee260405160405180910390a25050565b60008183101561121257816102fe565b5090919050565b6112ba8363a9059cbb60e01b84846040516024016112389291906117a6565b604080517fffffffffffffffffffffffffffffffffffffffffffffffffffffffffffffffe08184030181529190526020810180517bffffffffffffffffffffffffffffffffffffffffffffffffffffffff167fffffffff0000000000000000000000000000000000000000000000000000000090931692909217909152611380565b505050565b600081836112fa576040517f08c379a00000000000000000000000000000000000000000000000000000000081526004016103e09190611805565b50600083858161130657fe5b049150505b9392505050565b60008184841115611350576040517f08c379a00000000000000000000000000000000000000000000000000000000081526004016103e09190611805565b505050900390565b6113618161137d565b600361136b61021e565b600881111561137657fe5b1061137d57fe5b50565b60606113e2826040518060400160405280602081526020017f5361666545524332303a206c6f772d6c6576656c2063616c6c206661696c65648152508573ffffffffffffffffffffffffffffffffffffffff166114369092919063ffffffff16565b8051909150156112ba578080602001905181019061140091906116a7565b6112ba576040517f08c379a00000000000000000000000000000000000000000000000000000000081526004016103e090611aec565b6060611445848460008561144d565b949350505050565b606082471015611489576040517f08c379a00000000000000000000000000000000000000000000000000000000081526004016103e09061198f565b6114928561154f565b6114c8576040517f08c379a00000000000000000000000000000000000000000000000000000000081526004016103e090611ab5565b600060608673ffffffffffffffffffffffffffffffffffffffff1685876040516114f29190611769565b60006040518083038185875af1925050503d806000811461152f576040519150601f19603f3d011682016040523d82523d6000602084013e611534565b606091505b5091509150611544828286611555565b979650505050505050565b3b151590565b6060831561156457508161130b565b8251156115745782518084602001fd5b816040517f08c379a00000000000000000000000000000000000000000000000000000000081526004016103e09190611805565b803563ffffffff8116811461030157600080fd5b6000602082840312156115cd578081fd5b81356102fe81611bbe565b60008061012083850312156115eb578081fd5b6101008301848111156115fc578182fd5b839250356009811061160c578182fd5b809150509250929050565b600080610120838503121561162a578182fd5b83601f840112611638578182fd5b60405161010080820182811067ffffffffffffffff82111715611659578485fd5b604052840181858783111561166c578586fd5b855b60088110156116965761168189836115a8565b8352602092830192919091019060010161166e565b509294505035905061160c81611be0565b6000602082840312156116b8578081fd5b815180151581146102fe578182fd5b6000602082840312156116d8578081fd5b81516102fe81611bbe565b6000602082840312156116f4578081fd5b5035919050565b60006020828403121561170c578081fd5b5051919050565b600060208284031215611724578081fd5b81356102fe81611be0565b6000815180845260208085019450808401835b8381101561175e57815187529582019590820190600101611742565b509495945050505050565b6000825161177b818460208701611b92565b9190910192915050565b73ffffffffffffffffffffffffffffffffffffffff91909116815260200190565b73ffffffffffffffffffffffffffffffffffffffff929092168252602082015260400190565b6000606082526117df606083018661172f565b60208301949094525060400152919050565b60208101600983106117ff57fe5b91905290565b6000602082528251806020840152611824816040850160208701611b92565b601f017fffffffffffffffffffffffffffffffffffffffffffffffffffffffffffffffe0169190910160400192915050565b6020808252600f908201527f4e4558545f424c4f434b5f504153540000000000000000000000000000000000604082015260600190565b60208082526026908201527f4f776e61626c653a206e6577206f776e657220697320746865207a65726f206160408201527f6464726573730000000000000000000000000000000000000000000000000000606082015260800190565b6020808252601b908201527f536166654d6174683a206164646974696f6e206f766572666c6f770000000000604082015260600190565b60208082526018908201527f4e4558545f424c4f434b5f554e494e495449414c495a45440000000000000000604082015260600190565b60208082526009908201527f4241445f50484153450000000000000000000000000000000000000000000000604082015260600190565b60208082526026908201527f416464726573733a20696e73756666696369656e742062616c616e636520666f60408201527f722063616c6c0000000000000000000000000000000000000000000000000000606082015260800190565b60208082526021908201527f536166654d6174683a206d756c7469706c69636174696f6e206f766572666c6f60408201527f7700000000000000000000000000000000000000000000000000000000000000606082015260800190565b6020808252818101527f4f776e61626c653a2063616c6c6572206973206e6f7420746865206f776e6572604082015260600190565b6020808252600e908201527f4e4558545f424c4f434b5f534554000000000000000000000000000000000000604082015260600190565b6020808252601d908201527f416464726573733a2063616c6c20746f206e6f6e2d636f6e7472616374000000604082015260600190565b6020808252602a908201527f5361666545524332303a204552433230206f7065726174696f6e20646964206e60408201527f6f74207375636365656400000000000000000000000000000000000000000000606082015260800190565b90815260200190565b600083825260406020830152611445604083018461172f565b9283526020830191909152604082015260600190565b63ffffffff91909116815260200190565b60005b83811015611bad578181015183820152602001611b95565b83811115610e115750506000910152565b73ffffffffffffffffffffffffffffffffffffffff8116811461137d57600080fd5b63ffffffff8116811461137d57600080fdfea26469706673582212201a3584344bd285a8f1f693b8df6a141d5eb2cb119cc40dc8e0c6c43e3a7af13564736f6c634300060c0033",
  "linkReferences": {
    "contracts/configurable-rights-pool/libraries/RightsManager.sol": {
      "RightsManager": [
        {
          "length": 20,
          "start": 1136
        }
      ]
    }
  },
  "deployedLinkReferences": {}
}