{
  "_format": "hh-sol-artifact-1",
  "contractName": "TVKPrestige",
  "sourceName": "contracts/tv-prestige/contracts/TVKPrestige.sol",
  "abi": [
    {
      "anonymous": false,
      "inputs": [
        {
          "indexed": false,
          "internalType": "address",
          "name": "account",
          "type": "address"
        },
        {
          "indexed": false,
          "internalType": "enum IPrestige.Status[2]",
          "name": "change",
          "type": "uint8[2]"
        }
      ],
      "name": "StatusChange",
      "type": "event"
    },
    {
      "inputs": [],
      "name": "BRONZE",
      "outputs": [
        {
          "internalType": "uint256",
          "name": "",
          "type": "uint256"
        }
      ],
      "stateMutability": "view",
      "type": "function"
    },
    {
      "inputs": [],
      "name": "CHAD",
      "outputs": [
        {
          "internalType": "uint256",
          "name": "",
          "type": "uint256"
        }
      ],
      "stateMutability": "view",
      "type": "function"
    },
    {
      "inputs": [],
      "name": "COPPER",
      "outputs": [
        {
          "internalType": "uint256",
          "name": "",
          "type": "uint256"
        }
      ],
      "stateMutability": "view",
      "type": "function"
    },
    {
      "inputs": [],
      "name": "DIAMOND",
      "outputs": [
        {
          "internalType": "uint256",
          "name": "",
          "type": "uint256"
        }
      ],
      "stateMutability": "view",
      "type": "function"
    },
    {
      "inputs": [],
      "name": "GOLD",
      "outputs": [
        {
          "internalType": "uint256",
          "name": "",
          "type": "uint256"
        }
      ],
      "stateMutability": "view",
      "type": "function"
    },
    {
      "inputs": [],
      "name": "JAWAD",
      "outputs": [
        {
          "internalType": "uint256",
          "name": "",
          "type": "uint256"
        }
      ],
      "stateMutability": "view",
      "type": "function"
    },
    {
      "inputs": [],
      "name": "NIL",
      "outputs": [
        {
          "internalType": "uint256",
          "name": "",
          "type": "uint256"
        }
      ],
      "stateMutability": "view",
      "type": "function"
    },
    {
      "inputs": [],
      "name": "PLATINUM",
      "outputs": [
        {
          "internalType": "uint256",
          "name": "",
          "type": "uint256"
        }
      ],
      "stateMutability": "view",
      "type": "function"
    },
    {
      "inputs": [],
      "name": "SILVER",
      "outputs": [
        {
          "internalType": "uint256",
          "name": "",
          "type": "uint256"
        }
      ],
      "stateMutability": "view",
      "type": "function"
    },
    {
      "inputs": [],
      "name": "TVK",
      "outputs": [
        {
          "internalType": "contract IERC20",
          "name": "",
          "type": "address"
        }
      ],
      "stateMutability": "view",
      "type": "function"
    },
    {
      "inputs": [],
      "name": "levels",
      "outputs": [
        {
          "internalType": "uint256[9]",
          "name": "",
          "type": "uint256[9]"
        }
      ],
      "stateMutability": "pure",
      "type": "function"
    },
    {
      "inputs": [
        {
          "internalType": "address",
          "name": "account",
          "type": "address"
        },
        {
          "internalType": "enum IPrestige.Status",
          "name": "newStatus",
          "type": "uint8"
        },
        {
          "internalType": "bytes",
          "name": "data",
          "type": "bytes"
        }
      ],
      "name": "setStatus",
      "outputs": [],
      "stateMutability": "nonpayable",
      "type": "function"
    },
    {
      "inputs": [
        {
          "internalType": "address",
          "name": "account",
          "type": "address"
        }
      ],
      "name": "statusReport",
      "outputs": [
        {
          "internalType": "uint256",
          "name": "",
          "type": "uint256"
        }
      ],
      "stateMutability": "view",
      "type": "function"
    },
    {
      "inputs": [
        {
          "internalType": "address",
          "name": "",
          "type": "address"
        }
      ],
      "name": "statuses",
      "outputs": [
        {
          "internalType": "uint256",
          "name": "",
          "type": "uint256"
        }
      ],
      "stateMutability": "view",
      "type": "function"
    }
  ],
  "bytecode": "0x608060405234801561001057600080fd5b50610da6806100206000396000f3fe608060405234801561001057600080fd5b50600436106100ea5760003560e01c80638a5c26301161008c578063bca3f0c811610066578063bca3f0c81461029b578063d865a5c8146102a3578063e00fd543146102d6578063e3e55f08146102de576100ea565b80638a5c26301461019b57806390f5f0cd14610109578063af11c1f014610268576100ea565b80634334a8a5116100c85780634334a8a5146101195780634ecf518b1461012157806356f0593a14610162578063784099791461016a576100ea565b8063206545c2146100ef578063367f50a0146101095780633e4bee3814610111575b600080fd5b6100f76102e6565b60408051918252519081900360200190f35b6100f76102f4565b6100f76102f9565b6100f7610307565b610129610315565b604051808261012080838360005b8381101561014f578181015183820152602001610137565b5050505090500191505060405180910390f35b6100f76103a9565b6101726103b7565b6040805173ffffffffffffffffffffffffffffffffffffffff9092168252519081900360200190f35b610266600480360360608110156101b157600080fd5b73ffffffffffffffffffffffffffffffffffffffff8235169160ff602082013516918101906060810160408201356401000000008111156101f157600080fd5b82018360208201111561020357600080fd5b8035906020019184600183028401116401000000008311171561022557600080fd5b91908080601f0160208091040260200160405190810160405280939291908181526020018383808284376000920191909152509295506103cf945050505050565b005b6100f76004803603602081101561027e57600080fd5b503573ffffffffffffffffffffffffffffffffffffffff1661057a565b6100f761058c565b6100f7600480360360208110156102b957600080fd5b503573ffffffffffffffffffffffffffffffffffffffff1661059a565b6100f76105f4565b6100f7610601565b69152d02c7e14af680000081565b600081565b69021e19e0c9bab240000081565b6934f086f3b33b6840000081565b61031d610d01565b6040518061012001604052806000815260200160008152602001683635c9adc5dea00000815260200169010f0cf064dd59200000815260200169021e19e0c9bab2400000815260200169054b40b1f852bda00000815260200169152d02c7e14af680000081526020016934f086f3b33b68400000815260200169d3c21bcecceda1000000815250905090565b69054b40b1f852bda0000081565b73d084b83c305dafd76ae3e1b4e1f1fe2ecccb398881565b60008260088111156103dd57fe5b141561044a57604080517f08c379a000000000000000000000000000000000000000000000000000000000815260206004820152600e60248201527f4552525f4e494c5f535441545553000000000000000000000000000000000000604482015290519081900360640190fd5b60006104558461059a565b90506000610463824361060f565b90506104878282600881111561047557fe5b86600881111561048157fe5b4361065f565b73ffffffffffffffffffffffffffffffffffffffff86166000908152602081905260409020556104b985828686610692565b7fe765a8fc6bca3a0cb57e76753ddbb51c450e9aac1a626da74a8119beb9b6d0798560405180604001604052808460088111156104f257fe5b60088111156104fd57fe5b815260200187600881111561050e57fe5b600881111561051957fe5b815250604051808373ffffffffffffffffffffffffffffffffffffffff16815260200182600260200280838360005b83811015610560578181015183820152602001610548565b505050509050019250505060405180910390a15050505050565b60006020819052908152604090205481565b69d3c21bcecceda100000081565b73ffffffffffffffffffffffffffffffffffffffff8116600090815260208190526040812054806105eb577fffffffffffffffffffffffffffffffffffffffffffffffffffffffffffffffff6105ed565b805b9392505050565b683635c9adc5dea0000081565b69010f0cf064dd5920000081565b6000805b6008811015610652578263ffffffff168160200285901c63ffffffff16111561064a5780600881111561064257fe5b915050610659565b600101610613565b5060085b90505b92915050565b60008383101561067a57610673858461074a565b9450610689565b6106868585858561077a565b94505b50929392505050565b600061069c610315565b8460088111156106a857fe5b600981106106b257fe5b6020020151905060006106c3610315565b8460088111156106cf57fe5b600981106106d957fe5b602002015190508181106107185761071386306106f684866107b1565b73d084b83c305dafd76ae3e1b4e1f1fe2ecccb39889291906107f3565b610742565b6107428661072684846107b1565b73d084b83c305dafd76ae3e1b4e1f1fe2ecccb3988919061088e565b505050505050565b7fffffffffffffffffffffffffffffffffffffffffffffffffffffffffffffffff60209190910290811c901b1790565b6000835b838110156107a7576020810283811b63ffffffff90911b1996909616959095179460010161077e565b5093949350505050565b600061065683836040518060400160405280601e81526020017f536166654d6174683a207375627472616374696f6e206f766572666c6f770000815250610920565b6040805173ffffffffffffffffffffffffffffffffffffffff80861660248301528416604482015260648082018490528251808303909101815260849091019091526020810180517bffffffffffffffffffffffffffffffffffffffffffffffffffffffff167f23b872dd000000000000000000000000000000000000000000000000000000001790526108889085906109d1565b50505050565b6040805173ffffffffffffffffffffffffffffffffffffffff8416602482015260448082018490528251808303909101815260649091019091526020810180517bffffffffffffffffffffffffffffffffffffffffffffffffffffffff167fa9059cbb0000000000000000000000000000000000000000000000000000000017905261091b9084906109d1565b505050565b600081848411156109c9576040517f08c379a00000000000000000000000000000000000000000000000000000000081526004018080602001828103825283818151815260200191508051906020019080838360005b8381101561098e578181015183820152602001610976565b50505050905090810190601f1680156109bb5780820380516001836020036101000a031916815260200191505b509250505060405180910390fd5b505050900390565b6060610a33826040518060400160405280602081526020017f5361666545524332303a206c6f772d6c6576656c2063616c6c206661696c65648152508573ffffffffffffffffffffffffffffffffffffffff16610aa99092919063ffffffff16565b80519091501561091b57808060200190516020811015610a5257600080fd5b505161091b576040517f08c379a000000000000000000000000000000000000000000000000000000000815260040180806020018281038252602a815260200180610d47602a913960400191505060405180910390fd5b6060610ab88484600085610ac0565b949350505050565b606082471015610b1b576040517f08c379a0000000000000000000000000000000000000000000000000000000008152600401808060200182810382526026815260200180610d216026913960400191505060405180910390fd5b610b2485610c7b565b610b8f57604080517f08c379a000000000000000000000000000000000000000000000000000000000815260206004820152601d60248201527f416464726573733a2063616c6c20746f206e6f6e2d636f6e7472616374000000604482015290519081900360640190fd5b600060608673ffffffffffffffffffffffffffffffffffffffff1685876040518082805190602001908083835b60208310610bf957805182527fffffffffffffffffffffffffffffffffffffffffffffffffffffffffffffffe09092019160209182019101610bbc565b6001836020036101000a03801982511681845116808217855250505050505090500191505060006040518083038185875af1925050503d8060008114610c5b576040519150601f19603f3d011682016040523d82523d6000602084013e610c60565b606091505b5091509150610c70828286610c81565b979650505050505050565b3b151590565b60608315610c905750816105ed565b825115610ca05782518084602001fd5b6040517f08c379a000000000000000000000000000000000000000000000000000000000815260206004820181815284516024840152845185939192839260440191908501908083836000831561098e578181015183820152602001610976565b604051806101200160405280600990602082028036833750919291505056fe416464726573733a20696e73756666696369656e742062616c616e636520666f722063616c6c5361666545524332303a204552433230206f7065726174696f6e20646964206e6f742073756363656564a264697066735822122022acce290e53602d11c2367c898fca3bd8b5a970bc21e7fd766d2b65257bd71164736f6c634300060c0033",
  "linkReferences": {},
  "deployedLinkReferences": {}
}